:020000040800F2
:10000000902C0010A1010008353300088D2F000846
:1000100031330008DD1600087542000800000000BA
:100020000000000000000000000000005D35000836
:10003000DF16000800000000373300085F350008B5
:10004000BB010008BB010008BB010008BB010008A0
:10005000BB010008BB010008BB010008BB01000890
:10006000BB010008BB010008BB010008BB01000880
:10007000BB010008BB010008BB010008BB01000870
:10008000BB010008BB010008BB010008BB01000860
:10009000BB010008BB010008BB010008BB01000850
:1000A000BB010008BB010008BB010008BB01000840
:1000B000BB0100080000000000000000BB010008B8
:1000C000BB010008BB010008BB010008BB01000820
:1000D000BB01000867420008BB010008BB01000823
:1000E000BB010008BB010008000000000000000088
:1000F0000000000000000000000000000000000000
:1001000000000000BB01000800000000BB01000867
:100110000000000000000000BB010008BB01000857
:10012000BB010008BB010008BB010008BB010008BF
:10013000BB010008000000000000000000000000FB
:10014000BB010008BB010008BB0100080000000063
:10015000BB010008BB0100088F2F0008BB0100088D
:10016000BB010008BB010008BB0100080000000043
:10017000BB010008BB0100080000000000000000F7
:10018000BB010008BB010008BB010008DFF80CD070
:1001900001F03EF800480047E1050108902C0010EE
:1001A0000648804706480047FEE7FEE7FEE7FEE711
:1001B000FEE7FEE7FEE7FEE7FEE7FEE7EB350008B9
:1001C0008D0100082DE9F05F0546002092469B4610
:1001D00088460646814640241BE02846414647465D
:1001E000224600F06FFE53465A46C01A914110D382
:1001F00011461846224600F056FE2D1A67EB0108FC
:100200004F4622460120002100F04DFE17EB000969
:100210004E41201EA4F10104DFDC484631462A4647
:10022000434600F000B830BCBDE8C09F2DE9F04166
:100230000024061B254671F1000605DA012400277B
:10024000D0EB070067EB0101161E73F1000605DA1B
:100250000027D2EB0702012567EB0303FFF7B2FF8C
:1002600086460E4617469C46AC4204D00025D0EB8D
:10027000050E65EB010624B10020D2EB000760EB10
:10028000030C704631463A466346BDE8F081A0F162
:100290004101192900D82030704700000649074A5B
:1002A0000868504343F23902104408604008704720
:1002B0000149086070470000000000106D4EC64103
:1002C00010B5431A934209D28318881803E010F836
:1002D000011D03F8011D521EF9D210BD40EA0103B1
:1002E0009B0703D009E008C9121F08C0042AFAD2EC
:1002F00003E011F8013B00F8013B521EF9D210BD9A
:10030000D2B201E000F8012B491EFBD27047002257
:10031000F6E710B513460A4604461946FFF7F0FF04
:10032000204610BD30B505462A460B4612F8010B93
:1003300013F8014B08B1A042F8D01CB1002802D03C
:100340006D1CF1E7284630BD10B5044604E00B787B
:1003500000F8013B03B1491C521EF8D2204610BDE3
:10036000CAB2401E10F8011F8A4202D00029F9D1FA
:1003700000207047421C10F8011B0029FBD1801A95
:10038000704710B5002200E0521C835C8C5CA342D5
:1003900001D1002BF8D1D8B2E1B2401A10BDCBB2D6
:1003A00003E00178994203D0401C521EF9D200208C
:1003B000704730B504460020034600E05B1C9342C2
:1003C00003D2E05CCD5C401BF8D030BD034611F891
:1003D000012B00F8012B002AF9D11846704730B5DF
:1003E00005460020034600E05B1C934205D2EC5C0E
:1003F000C85C201A01D1002CF6D130BD0FB400B575
:100400008DB010A909900B9000914FF0FF300A9029
:1004100000200C9005480690054807906A4609A8F8
:100420000F9900F085FD0DB05DF814FB4D0F00082D
:100430006B0F00082DE9FF5F1D464FF0FF3BD5E92C
:10044000014691465F464FF00008A9697F1C01985C
:100450008847296A824688470028F6D1BAF1FF3FCB
:100460000CD024F4C064002E19DD600614D5BAF156
:100470002B0F09D0BAF12D0F0ED103E0584604B06E
:1004800000F07EB844F48064A9697F1C0198884715
:10049000761E8246002E02DDBAF1300F03D0B9F18C
:1004A000000F26D032E0A969761E44F400747F1C48
:1004B000019888478246002E05DDBAF1780F06D0F4
:1004C000BAF1580F03D0B9F1000F10D01EE0B9F106
:1004D000000F02D0B9F1100F18D1A969761E24F4CB
:1004E00000747F1C019888478246102002E0082093
:1004F00000E00A20814609E008FB0908A969761E88
:1005000044F400747F1C019888478246002E05DD64
:100510004946504600F0F8FC0028EDDAE9690198F8
:100520008847A00502D46FF00100A8E7E00725D1B5
:10053000600613D5600502D5C8F1000000E0404612
:1005400029680A1D2A600968220501D5087015E08E
:10055000220701D5088011E008600FE02868011D1E
:1005600029600068210502D580F8008006E0210797
:1005700002D5A0F8008001E0C0F8008038467EE790
:1005800030BCBDE8C09F2DE9FF5FD2E901A74FF065
:100590000008916999461446DDF838B0464601983E
:1005A0008847054659EA0B0005D009E0A169761C89
:1005B000019888470546216A284688470028F5D1D2
:1005C000681C03D05FEACA7005D015E04FF0FF3019
:1005D00004B000F048B82068011D2160D0F8008008
:1005E0000AE05FEACA7001D108F8015BA169761CD4
:1005F0007F1E019888470546002F1ADD681C18D019
:10060000B9F1000F0DD0E81705EBD060421120F0D2
:100610001F0059F822102A1A012090400142E0D10F
:1006200007E0BBF1000FDCD1216A2846884700288B
:10063000D7D0E16901988847BBF1000F07D1002EA0
:1006400005DD5FEACA7002D1002188F80010A068B9
:10065000B84203DDBBF1000F03D017B16FF001000A
:10066000B6E73046B4E730BCBDE8C09F2DE9FF4F88
:10067000087883B09946FF2805D0491C2D2804D05E
:100680000024002008E000200BE00124F9E700EB43
:10069000800003EB4000491C0B78FF2BF7D104B11D
:1006A000404200230293147819461D462D2C01D098
:1006B0002B2C04D1521C2D2C13D000240294AA46BA
:1006C0001478FF2C0FD00A25A3FB057801FB0581C8
:1006D0004FF0000C03FB0C11521CE3194AEB010113
:1006E000EEE70124EAE7814453EA010002D019F55C
:1006F000C87F06DA03980021C0E9001107B000F0B6
:1007000065B90025AE4E2F46DFF8B882184600F0D6
:1007100026FDCDE90001B9F1000002DAC9F10004BB
:1007200000E004460023A74A1AEB030B42EB045AED
:1007300012E0E00707D02A4633463846414600F02B
:1007400004FA074688462A4633461046194600F002
:10075000FCF905460E466410002CEAD1DDE90001E3
:10076000B9F1000F5A46534606DA00F063FA3A46EA
:10077000434600F05FFA05E000F0E7F93A464346E9
:1007800000F0E3F9029A0AB181F00041039AC2E94C
:100790000001B3E72DE9FF4F1F468DB0D7E90146B1
:1007A0004FF0FF382E2045464FF000090B90B969F5
:1007B0006D1C0E988847396A824688470028F6D112
:1007C000BAF1FF3F0AD024F4D064002E11DDBAF153
:1007D0002B0F08D0BAF12D0F0BD102E0404611B01B
:1007E0008DE744F48064B9696D1C0E988847824691
:1007F000761E6946600501D52D2000E02B208DF87E
:10080000000001F1010B0DF1200809E0B9696D1C30
:100810000E98884782460F9844F40074761E05604F
:10082000002E02DDBAF1300FF0D00B998A453ED18F
:1008300044F0800406E00F99681CA9F1010944F412
:1008400000740860B9696D1C761E0E988847824650
:100850003028F0D02BE00B998A4505D1200603D42F
:1008600044F08004761E18E0504628F032F908B3B0
:100870000DF11302761EAAF1300044F40074934582
:1008800006D20BF8010B200607D5A9F1010003E001
:10089000200602D409F101008146A00502D50F9976
:1008A000681C0860B9696D1C0E9888478246002E46
:1008B000D1DC53E0002E51DDBAF1650F02D0BAF160
:1008C000450F4BD1A00549D5B9696D1C24F440747E
:1008D000761E0E9888478246002E0CDD2B2804D009
:1008E000BAF12D0F07D144F48074B9696D1C0E98CC
:1008F00088478246761EE00501D52D2100E02B2198
:1009000008F8011BCDF82C8021E00DF12901761E9D
:1009100044F4007488450CD2AAF1300010F0FF00B6
:1009200088F8000002D10B99884509D908F101081F
:1009300006E0E00501D5244801E042F20F7081464F
:10094000B9696D1C0E98884782460F980560002E85
:1009500004DD504628F0BDF80028D6D1F9690E987C
:100960008847FF208BF8000088F8000000200690E0
:1009700007904B466A4608A906A8FFF777FEA00530
:1009800002D46FF001002AE714F0240F0AD0E00728
:1009900014D1DDE906123868031D3B600068C0E928
:1009A00000120BE0DDE9060100F016FC0146E0074D
:1009B00004D13868021D3A600068016028460EE7DD
:1009C000000014400000F03FF1D8FFFF30BCBDE84C
:1009D000C08F70B5064627F08FFF046805460A22CF
:1009E0000021304600F026FB2C6070BD2DE9FE4F43
:1009F000804681EA0300C00F0C46009021F00041C0
:100A000023F00045B8EB0200A94105D2404621463B
:100A100090461C460B46024623F00040104347D048
:100A2000270DC7F30A00C3F30A510290401A019040
:100A300040286BDAC3F3130040F4801B0098924601
:100A400020B10023D2EB030A63EB0B0B019859464C
:100A5000C0F14002504600F026FA06460D465046C8
:100A60005946019A00F03EFA10EB0800614100245B
:100A700087EA115284EAE7731A4340D0009A62B3BE
:100A8000019A012A4FEA075215DC001B61EB0201B3
:100A90004FF0004202EA0752CDE90042001C41F546
:100AA000801132462B4600F00CFB03B000F045B835
:100AB00040462146F9E7001B61EB0201001C41F5AD
:100AC000801300185B412018A2F5001747EB0301C3
:100AD00040EAD570B6196D4111E06D084FEA36064F
:100AE00045EAC0754FEA0752001B61EB0201001C8A
:100AF00041F5801149084FEA300000195141324652
:100B00002B4603B000F01CB800F0CCBA00980122CC
:100B100040000023D0EB020263EBE0730098214613
:100B20004FEAE074B8EB000061EB0401E9E783F001
:100B300000435BE781F0004158E730BCBDE8C08F5F
:100B400030BCBDE8C04FFFF7DFBF2DE9FE4F81EAA3
:100B5000030404F0004421F0004100944FF0000B26
:100B600023F0004350EA01045ED052EA03045BD054
:100B7000C3F30A54C1F30A552C44A4F2F33401948C
:100B8000A0FB0254C1F3130141F48011C3F313031A
:100B900043F4801301FB024400FB034E840A970ACE
:100BA00044EA815447EA8357A4FB076802958D0AFB
:100BB00005FB07854FEA932C04FB0C542705029D87
:100BC0004FEA065847EA1637B5EB08056EEB070CF7
:100BD000870E920E47EA811742EA8312A7FB0201B1
:100BE000B6EB0B0164EB00042B0D43EA0C335E18EB
:100BF00044EB1C50DA465146E7FB0201C5F31304EF
:100C00004FEA0B3343EA14534FEA0432019C43EAA0
:100C10000603A4F10C040294009CCDE900B400F09A
:100C200050FA03B000F003B800200146F9E730BCE9
:100C3000BDE8C08F2DE9F04D81EA030404F0004BBC
:100C400021F0004514464FF0000A23F0004150EA1D
:100C5000050220D054EA01021DD0C5F30A5702460E
:100C6000C5F31303C1F31300C1F30A5640F4801512
:100C700043F48013A7EB0608101BD64608F2FD3894
:100C800073EB050002D308F1010801E092185B4103
:100C9000B8F1000F03DA00200146BDE8F08D002016
:100CA0004FF48011064684460EE0171B73EB0507D0
:100CB00005D3121B63EB050306434CEA010C4908FC
:100CC0004FEA300092185B4150EA0107EDD152EA39
:100CD000030012D082EA040083EA0501084305D02C
:100CE000101BAB4106D20122002306E000224FF088
:100CF000004302E06FF0010253101AEB06004CEBC8
:100D0000085110EB0A0041EB0B01BDE8F04D00F07B
:100D1000C9B930B5041E71F1000404DB4FF0004482
:100D2000404264EB0101141E73F1000405DB1C4614
:100D30004FF00043524263EB0403801A994101D300
:100D4000012030BD002030BD30B5041E71F100041B
:100D500004DB4FF00044404264EB0101141E73F1C8
:100D6000000405DB1C464FF00043524263EB0403D2
:100D7000101A8B4101D3012030BD002030BD0EB5CB
:100D800040F2334102910021CDE900110A460B46A1
:100D900000F097F903B000BD3EB5CA17CB0F002491
:100DA00050405140C0186141DA0740F2334300948B
:100DB000CDE901232246234600F083F903B030BD7C
:100DC00070B5C1F30A5201F000450024C1F31301CC
:100DD00040F2FF3341F480119A4201DA002070BDE5
:100DE00040F233439A42A2F2334203DC524200F013
:100DF00069F800E090402C43F1D0404270BDC1F34F
:100E00000A5210B5C1F3130140F2FF3341F48011CF
:100E10009A4201DA002010BD40F233439A42A2F216
:100E2000334203DC524200F04DF810BD904010BD3B
:100E300070B5C1F30A5201F000450024C1F313015B
:100E400040F2FF3341F480119A4202DA0020014659
:100E500070BD40F233439A42A2F2334203DC524265
:100E600000F030F801E000F01EF82C43F0D0002331
:100E7000D0EB030063EB010170BD30B50B460146BA
:100E800000202022012409E021FA02F59D4205D329
:100E900003FA02F5491B04FA02F52844151EA2F1D3
:100EA0000102F1DC30BD202A04DB203A00FA02F115
:100EB000002070479140C2F1200320FA03F3194348
:100EC00090407047202A04DB203A21FA02F00021EA
:100ED000704721FA02F3D040C2F12002914008434A
:100EE00019467047202A06DBCB17203A41FA02F058
:100EF00043EAE07306E041FA02F3D040C2F1200277
:100F000091400843194670473A2800D2303820F003
:100F10002002412A01D3A2F13700884201D34FF0C9
:100F2000FF3070470268114413780160184670471B
:100F3000D1600449516104491162002111611146D7
:100F400000F08CB9250F000849120008426842B130
:100F5000016811F8013B23B1521EC0E90012184686
:100F600070470121C160881E704742685AB1C3684A
:100F7000016843B983688B4205D0491E521CC0E901
:100F80000012002070474FF0FF3070470FB40B0085
:100F900010B58AB00FA900910E994FF00004234AB2
:100FA000CC60214CCDE9064200D004236FF0004212
:100FB000CDE901321E4A089202466B460020FFF737
:100FC000E9FB0AB010BC5DF814FBF0B585B007462C
:100FD0004FF0FF300091CDE901011E46002015467B
:100FE0000C4604903B466A46314604A8FFF7CEFF04
:100FF00004990346601825B109B1024600E0224673
:101000002A6000290ED0002B02DD0099814209D010
:101010000094001BCDE901043B466A46314604A812
:10102000FFF7B4FF05B0F0BD4D0F00086B0F0008CF
:10103000491200082DE9F04791460F4680460446C4
:10104000002614F8015B2DB100F0FAF80068405D4D
:10105000C007F6D12B2D02D02D2D18D0641E4A4684
:101060003946204600F093FA27B13968A14201D1F0
:10107000C7F8008071054FF002040BD540420028EC
:1010800003DD27F039FC0460A007BDE8F08746F4D3
:101090008066E4E70028F8DA27F02EFC04606FF0A1
:1010A0000040F2E710B5141E73F1000408DA401C8A
:1010B00041F1000192185B411A4301D120F0010077
:1010C00010BD2DE9F04D92469B4611B1B1FA81F267
:1010D00002E0B0FA80F220329046FFF7E4FE0446C8
:1010E0000F4640EA0A0041EA0B0153465A460843BC
:1010F00013D0114653EA010019D0C8F140025046FE
:10110000FFF7E0FE05460E46504659464246FFF7B9
:10111000CAFE084305D0012004E020463946BDE858
:10112000F08D0020054346EAE0762C4337430A98C9
:101130006305E40AA0EB08000022FD0A44EA4754D4
:101140000A3002D500200146E9E70105101969417E
:10115000DDE9084500196941BDE8F04DA2E70EB58B
:1011600040F2334202920022CDE900221346FFF7FB
:10117000A8FF03B000BDC1F30A52C1F3130140F24E
:10118000FF3341F480119A4202DA00200146704791
:1011900040F233439A42A2F2334202DC5242FFF75A
:1011A00091BEFFF780BE000030B5041E71F100044F
:1011B00004DB4FF00044404264EB0101141E73F164
:1011C000000405DB1C464FF00043524263EB04036E
:1011D000994208BF904230BD01F0004330B421F085
:1011E000004150EA010206D00A0DA2F56072C1F377
:1011F0001301002A02DC30BC00207047440F44EA8F
:10120000C104C100E01830BC00EBC25000F011BABC
:101210001CB509480090094801900546009C06E06D
:10122000E06840F0010394E8070098471034AC42AE
:10123000F6D3FEF7AFFF0000B83B0308E83B030816
:1012400000487047DC92020810B50446FFF7F8FF2B
:101250000068005D00F0010010BD00002DE9F34FB3
:101260008BB04FF0000801F10C000C464FF0010B61
:1012700046460DF1080A01906269012101989047E4
:10128000051E2DD0252D2CD0216A8847C0B162695A
:10129000012101989047216A88470028F7D1411E13
:1012A00062690198904700E0761CA1690B98884715
:1012B000216A88470028F7D1E1690B988847DBE766
:1012C000A1690B9888470746A84201D1761CD3E74D
:1012D000E1690B9888477F1C02D1B8F1000F6FD0ED
:1012E00046E1002762693D463946019890472A2821
:1012F00004D162690121019890470125DFF88492A9
:101300006269012101989047A0F130010A290AD2AF
:101310004F45E5DC07EB870100EB4107303FDFD4A9
:1013200045F01005ECE7E90601D46FF000476C28A2
:101330000AD04C2814D0682815D06A280DD07428FB
:101340001CD07A281AD01DE06269012101989047CB
:101350006C2802D045F0040514E045F002050DE0CC
:1013600045F020050AE0626901210198904768284C
:1013700002D045F0080505E045F4006562690121E9
:1013800001989047C4E9015765283DD019DC5828D9
:101390007AD00CDC452837D004DC252826D041281B
:1013A00031D131E046282FD047282CD12CE05B28C2
:1013B00077D0612828D063287CD0642823D15AE0D4
:1013C000D0E06F2848D008DC66281DD067281BD0E5
:1013D000692821D06E2816D127E0702845D07328BF
:1013E00068D0752847D078280DD14DE0A1690B98B9
:1013F0008847054625283FF469AFE1690B9888477F
:101400006D1C3FF46AAFB3E023466A466FF00100FB
:101410000B99FFF7BFF99EE045F040006060A80718
:1014200023464FF0000236D43EE0E8077FF447AF92
:101430002068011D21600068290501D506701BE7A1
:10144000290701D5068017E7A90703D5F117C0E9D9
:10145000006111E706600FE745F040006060A807F3
:1014600023464FF0080216D41EE040F60E0125EA8E
:101470000100606016E045F040006060A807234668
:101480004FF00A0207D40FE045F040006060A80763
:1014900008D5234610226FF001000B99AFF30080AE
:1014A00059E007E0234610226FF001000B99FEF788
:1014B000C1FF50E04FF000094F464B46632802D071
:1014C0005B2806D040E0E80601D40120A060012797
:1014D0003AE062690121019890475E2805D14FF0FA
:1014E00001096269494601989047216939B900218B
:1014F0000A46534643F82120491C0829FADBB0B3B9
:10150000216969B9C11700EBD16253110AEB83015C
:1015100022F01F02821A01200B68904003430B60E7
:1015200062690121019890475D28E8D1B9F1000F67
:1015300009D00020514651F82020D24341F8202004
:10154000401C0828F7DB02AB224600976FF0010031
:101550000B99FFF718F800280CDA401C08D1BBF1F2
:10156000000F05D04FF0FF300DB000F00DB8FFE7D1
:101570004046F9E7E90701D108F1010806444FF0B8
:10158000000B79E6CCCCCC0C30BCBDE8C08F2DE98B
:10159000F05F82460078002715468B460AF1010469
:1015A000B946302801D09DB113E014F8010B012792
:1015B000782803D0582801D045B10AE00DB1102D8C
:1015C00007D10027102514F8010B02E0082500E0E0
:1015D0000A250026B0460EE005FB080005FB06F1D3
:1015E000012701EB10461FFA80F8B6F5803F00D3C3
:1015F000B94614F8010B2946FFF786FC0028EBDA00
:10160000BBF1000F05D00FB1641E00E05446CBF8CB
:101610000040B9F1000F06D027F06EF902210160F9
:10162000C81E00F003B848EA0640FAE730BCBDE83F
:10163000C09F0029A8BF7047401C490008BF20F088
:101640000100704710B4B0FA80FC00FA0CF050EAC8
:10165000010404BF10BC704749B1CCF1200421FA49
:1016600004F411FA0CF118BF012121430843A3EB44
:101670000C01CB1D4FEA00614FEA102042BF002051
:1016800010BC704700EBC35010440029A4BF10BC2D
:101690007047401C490008BF20F0010010BC704793
:1016A00030B58C1810F8012B12F00F0301D110F88F
:1016B000013B120906D110F8012B03E010F8015B81
:1016C00001F8015B5B1EF9D101E001F8013B521EFC
:1016D000FBD1A142E6D3002030BD0000FEE77047F9
:1016E0002DE9F047A6B00446407B884608B90120A2
:1016F0006073B4F800A0BAF5AF7F0AD0BAF1000F5A
:1017000009D000202080C4E901002073E08103207B
:10171000A7E000258FE00AF01BFC9FED530B02466B
:1017200024A80B460AF004FB9DF895009DF89760ED
:101730009DF892209DF893309DF894709DF8961036
:101740008DE8430004AE4AA13046039727F0A6F87F
:101750000AF1140529B2002032464FF0000902F0C8
:10176000A3FC07F001FD074607F02DFD034648A145
:1017700030463A4627F092F8142717FA85F529B231
:101780000020324602F090FCD8F80000002843D038
:10179000D8F80C209FED340B24A800230AF0C8FAD7
:1017A0009DF895209DF896309DF8975004AE3BA18A
:1017B0003046009527F072F80AF13C0001B2002093
:1017C000324602F071FCD8F804203AA1304627F0E6
:1017D00065F80AF1500001B20020324602F064FCC4
:1017E000D8F8082038A1304627F058F80AF16405E7
:1017F00029B20020324602F057FCD8F8002036A16A
:10180000304627F04BF817FA85F529B2002032460A
:1018100002F04AFCC8F80090207B48B907F0F9FCB8
:101820004FF47A71C4E90101012020730020E081A6
:101830004FF4AF70208007F0ECFCD4E90112401A9D
:1018400090420DD307F0E5FCD4E90112AA46401AF4
:10185000904224BF4FF6FE70E081002020735AE7CB
:10186000002026B0BDE8F087000000000000204006
:10187000253032642D2530326420253032643A25FB
:101880003032643A25303264205B25645D0000000C
:10189000253036642F253036640000007570646191
:1018A00074653A253032643A253032643A25303254
:1018B0006400000074656D706572617475726520F6
:1018C000253364200000000068756D6964697479CF
:1018D0002025336420000000776561746865723AE2
:1018E0002025732020200000EFF3108072B600BF87
:1018F000FEE7014690F82500022815D10868D1E9D5
:1019000010C3026822F00E020260026822F0010297
:10191000026003F01C00012202FA00F0CCF804007F
:1019200081F82520002002E00420C8630120002265
:1019300081F82420704790F82510022923D180B522
:101940000168D0F838E0D0E910C30A68BEF1000F92
:1019500022F00E020A600A6822F001020A6003F017
:101960001C014FF0010202FA01F1CCF804104FF013
:10197000000180F8252080F8241001D0F0470021D4
:10198000BDE8804002E00421C163012108467047A0
:101990002DE9F04F82B00D68002D00F0C58000F1F8
:1019A0003847860546EA972741F20006C4F6000646
:1019B000072240F2004EB04208BF0422C4F2010EDA
:1019C000042F38BF3A464FF0000C012400270026B0
:1019D000009200BF04FA06FB15EA0B0800F09A809B
:1019E000D1F804A003230AF003056A1EBB40012AB4
:1019F0006FEA030910D88268CB6802EA0902BB408B
:101A00001A4382604268CAF3001322EA0B02B34011
:101A10001A43426004E000BF032D01D103251FE0FB
:101A2000C2688B6802EA0902BB401A43022DC260F9
:101A300016D16FF0030202EA560202440CF01C05B4
:101A40000F23D2F820A003FA05FB0B692AEA0B0A40
:101A5000AB4043EA0A031362D1F804A00AF003057D
:101A6000026805FA07F302EA09021A431AF4403F32
:101A700002604FD041F26003C4F202031A684FF6CD
:101A8000084A42F001021A601A68CFF6FF7A02F0A3
:101A900001020192019A26F00302724452F80A9060
:101AA0000CF00C050F23009CAB4029EA030304FA59
:101AB00005F52B4342F80A30DEF808204B6842EA6D
:101AC000080540F20C49DC0258BF22EA0805CEF8AE
:101AD0000850C4F20109D9F800209D0242EA080426
:101AE00058BF22EA0804C9F80040DEF804209D032C
:101AF00042EA080458BF22EA0804CEF80440DEF89F
:101B00000020DB0342EA080458BF22EA0804CEF8AA
:101B1000004001240D68013635FA06F207F102078C
:101B20000CF1040C7FF456AF02B000F000B830BCEA
:101B3000BDE8C08F1823002A08BF2823C150704772
:101B400041F68C40C1F200000068704740F2C110BD
:101B500041F68C41C1F20000C1F2000100780A6830
:101B600010440860704780B5032000F088F800201A
:101B700000F007F808B1012080BD00F02CF800202B
:101B800080BDB0B540F2C111C1F200010978F9B1D0
:101B9000044640F20C00C1F200004FF47A72006873
:101BA000B2FBF1F1B0FBF1F000F074FF0F2C4FF03D
:101BB00001050ED868B94FF0FF30214600220025FC
:101BC00000F032F840F2C410C1F20000046000E0FE
:101BD00001252846B0BD82B041F25800C4F202008F
:101BE000816841F001018160816801F0010101918A
:101BF0000199016841F080510160006800F0805057
:101C00000090009802B0704700280CD400F01F012B
:101C1000012202FA01F11C2202EAD0004EF2001267
:101C2000CEF200028150704710B54EF60C5CCEF239
:101C3000000CDCF80030C3F3022E8EF00704042CF5
:101C400028BF0424BEF103034FF0FF3E0EFA04F454
:101C500038BF0023A14399400EFA03F39A4311437E
:101C600000F00F0200F160430901043A03F56443F8
:101C70006244002848BF02F10C03197010BD4EF6F3
:101C80000C51CEF200010A684FF6FF031A4060F3D0
:101C90000A2242F0806040F0FD700860704700004A
:101CA00047F2000CC4F2000CDCF80020B0F5007F15
:101CB00002F4C0602AD1B0F5007F31D0DCF800001A
:101CC000012262F34A20CCF8000040F20C00C1F27D
:101CD00000000068322358434DF68363C4F21B337F
:101CE000A0FB030302EB9340002200BFDCF81410BA
:101CF000013842F10003490501D5002BF6D1DCF88B
:101D00001400400544BF0320704709E0B0F5806F20
:101D100006D0DCF80000022161F34A20CCF8000074
:101D20000020704747F20000C4F20000006800F491
:101D3000C06070472DE9F04182B00446FFF700FF14
:101D4000002C4DD0064694F8410040B9002084F89C
:101D50004000204600F048F841F28830A064206836
:101D6000A168A26C03686FF0FF0523F4706305EBB4
:101D700001211943016000922046202100223346B0
:101D80004FF0000801F0D8FA38BBD4E90012D4E9CA
:101D9000033C0E684FF62F75C0F2FF052E40D4E9C4
:101DA0000757334343EA02622A433A430A604A68C8
:101DB0004FF6FE03CFF6E0731A40D4E905371A4315
:101DC00042EA0C423A434A600A6842F001020A6061
:101DD0000121C4F8448084F8411084F8408000E078
:101DE000012002B0BDE8F081006841F20001CAF2B2
:101DF0000001884218BF704780B586B041F24C00A0
:101E0000C4F20200416841F480714160416801F40C
:101E1000807101910199016841F00201016000683F
:101E200001A900F002000190019840F603400190E2
:101E30000220029000200390032004900A200590C5
:101E400040F20040C4F60000FFF7A2FD06B0BDE876
:101E5000804070472DE9F04381B00446407841F25C
:101E60000C070007C4F202071BD5606C68B1B0F51F
:101E7000400F11D0B0F5000F40F00A81386840F4EF
:101E8000803038604FF4000006E0201D002101F092
:101E900083FA814638B9606CF96F21F44001084338
:101EA000F8674FF00009A078800753D5F86C5FEA17
:101EB000C00808D4F86C40F08050F864F86C00F06A
:101EC00080500090009847F20005C4F20005286891
:101ED00040F480702860FFF733FE06462868C0058E
:101EE00007D4FFF72DFE801B0228F7D94FF0030916
:101EF00029E0B9F1000F26D1D7F8840010F4407022
:101F000017D0A16D884211D0D7F88400D7F884107B
:101F100020F4407041F48031C7F88410D7F8841061
:101F200021F48031C7F88410C7F88400C00740F05E
:101F3000B280D7F88400A16D20F4407008434FF0C0
:101F40000009C7F88400B8F1000F03D4F86C20F042
:101F50008050F8642168C80705D0F86F226A20F025
:101F600003001043F867880705D5F86F626A20F010
:101F70000C001043F867480705D5F86FA26A20F0F7
:101F800030001043F867880605D5F86FE26A20F440
:101F900040601043F867880505D5F86FE26B20F4C0
:101FA00040201043F867480505D5F86F226C20F4EF
:101FB00040101043F867480605D5F86F226B20F4EF
:101FC00040501043F867080605D5F86F626B20F49F
:101FD00040401043F867C80505D5F86FA26B20F4A0
:101FE00040301043F867080318D5FA6FA06C22F050
:101FF00040620243B0F1806FFA6707D0B0F1006F22
:102000000CD1386840F48010386007E0201D0121B1
:1020100001F0C2F92168002818BF8146480318D58D
:10202000FA6FE06C22F040620243B0F1806FFA6711
:1020300007D0B0F1006F0CD1386840F480103860E0
:1020400007E0201D012101F0A7F92168002818BF31
:102050008146480410D5F86F226D20F0405010439F
:10206000B2F1805FF86707D1201D022101F094F9D9
:102070002168002818BF8146080405D5F86F616DF6
:1020800020F080400843F867484601B0BDE8F0837F
:102090004FF0010907E7FFF753FD064641F2883587
:1020A0004FF00309D7F8840080073FF542AFFFF7F0
:1020B00047FD801BA842F5D945E700002DE9F04314
:1020C00081B0002800F0A68042F20008C4F20208A5
:1020D0000446D8F800000D4600F0070088420DD2F3
:1020E000D8F8000020F007002843C8F80000D8F80E
:1020F000000000F00700A84240F08C80206841F208
:102100000809C107C4F2020934D0606840B102284E
:102110000BD003280ED159F8081C89010ED479E0A0
:1021200059F8081C890709D474E059F8081C890378
:1021300004D46FE059F8081C49056BD5D9F8001094
:1021400021F003010843C9F80000FFF7F9FC064637
:1021500041F28837D9F80000616800F00C00B0EB5C
:10216000810F06D0FFF7ECFC801BB842F2D90320A8
:1021700051E02068810707D5D9F80010A26821F046
:10218000F0011143C9F80010D8F8001001F0070160
:10219000A9420CD9D8F8001021F007012943C8F84A
:1021A0000010D8F8001001F00701A94232D1410710
:1021B00007D5D9F80010E26821F4E0611143C9F8AD
:1021C0000010000708D5D9F80000216920F46050FC
:1021D00040EAC100C9F8000000F04AF8D9F8001040
:1021E00049F20442C1F30311C0F60202515C40F20D
:1021F0000C0201F01F0120FA01F140F2C410C1F2FB
:1022000000000068C1F20002116001B0BDE8F043B7
:10221000FFF7B7BC012001B0BDE8F08340F20C002D
:1022200041F20801C1F20000C4F20201006809682D
:1022300049F21442C1F30221C0F60202515C01F0DE
:102240001F01C840704740F20C0041F20801C1F282
:102250000000C4F202010068096849F21442C1F3A7
:10226000C221C0F60202515C01F01F01C840704754
:1022700041F20001C4F20201886810F00C02C86843
:1022800005D00C2A27D100F00300012823D10868CB
:10229000000703D4D1F89400000A01E0086800099F
:1022A0004AF6B00300F00F00C0F6020353F82030E6
:1022B000002A184618BF00200C2A18BF7047C868AB
:1022C00000F0030002280FD0032804BF41F20023CE
:1022D000C0F27A030CE0042A1DD0082A20D141F272
:1022E0000020C0F27A00704742F20043C0F2F403CB
:1022F000C868CA68C0F30210C2F30622C968013078
:102300005A43B2FBF0F0C1F34161022202EB4101FA
:10231000B0FBF1F0704742F20040C0F2F4007047A9
:1023200000200023C8E7000060B32DE9F04381B02E
:1023300041F200060446C4F20206B068F168227851
:1023400000F00C08D00601F003071DD42078C00768
:1023500051D0B8F1080F47D0B8F10C0F08BF032FC8
:1023600042D06068B0F5803F07D0B0F5A02F40F0B4
:102370004182306840F480203060306840F4803022
:10238000306040E201207047B8F1000F1CD0B8F176
:102390000C0F08BF012F17D0A1693068002900F089
:1023A0008E8140F001003060FFF7CAFB054600BF98
:1023B0003068800700F19681FFF7C2FB401B0228BE
:1023C0004FF00300F4D9A6E23068800703D5A06976
:1023D000002800F00D82206A3168090700F10B81A6
:1023E000D6F89410090907E13068800303D56068C6
:1023F000002800F0FD81207880072CD5B8F1040F6B
:102400001BD0B8F10C0F08BF022F16D0E16830685E
:10241000002900F0078240F480703060FFF790FBE5
:10242000054600BF306840050ED4FFF789FB401B0E
:1024300002284FF00300F5D96DE23068400503D55E
:10244000E068002800F0D4817068216920F0F8501D
:1024500040EA016070602078000760D4207840076F
:1024600074D42078800600F1AB80A06A002800F0C8
:102470005182022840F04881F068E16A00F00302CE
:102480008A4240F06581226B6FF00F0300F070010B
:1024900003EB0212914240F05B81616B00F4FE425B
:1024A000B2EB012F40F05481A16B00F07842B2EB07
:1024B000C16F40F04D81E26B0023CFF6E07303EA79
:1024C000025200F4C001A2F50012914240F0408196
:1024D000216C4FF07E4202EA016100F0C06001F120
:1024E0007E41884240F034813068800100F11282E0
:1024F000306840F080703060F06840F08070F060CC
:10250000FFF71EFB04463068800100F10382FFF7ED
:1025100017FB001B02284FF00300F4D9FBE16169AF
:10252000D6F89400002900F0B58040F00100C6F80C
:102530009400FFF705FB0546D6F8940080078DD47C
:10254000FFF7FEFA401B0228F6D94AE1B06D5FEAB8
:10255000C00908D4B06D40F08050B065B06D00F097
:1025600080500090009847F20007C4F200073868D6
:10257000C00512D4386840F480703860FFF7E0FA84
:10258000054600BF3868C00507D4FFF7D9FA401BDD
:1025900002284FF00300F5D9BDE1A068012808D05A
:1025A000052840F00281D6F8900040F00400C6F8FB
:1025B0009000D6F8900040F00100C6F8900002E1CB
:1025C000616AD6F89800002900F0DB8040F0010035
:1025D000C6F89800FFF7B4FA054600BFD6F8980091
:1025E00080073FF542AFFFF7ABFA401B02284FF0E0
:1025F0000300F3D98FE1316801F0F001884216D968
:1026000000F067FF002840F0F380306840F00800D9
:1026100030603068D4E9071220F0F00010433060D9
:10262000706820F47F4040EA0120706014E0316857
:10263000B8F1000F41F008013160316821F0F0017C
:1026400041EA000131607168E26921F47F4141EAA9
:102650000221716000F0C780FFF70AFEB16849F2FD
:102660000442C1F30311C0F60202515C40F20C02B5
:1026700001F01F0120FA01F140F2C410C1F2000084
:102680000068C1F200021160FFF77BFA002840F0F9
:1026900042815BE620F00100C6F89400FFF750FA93
:1026A000054600BFD6F8940080077FF5D7AEFFF748
:1026B00047FA401B02284FF00300F3D92BE120F02A
:1026C00001003060FFF73CFA054600BF3068800724
:1026D0007FF53CAEFFF734FA401B02284FF00300B1
:1026E000F4D918E1306840F0080030603068D4E96F
:1026F000071220F0F00010433060706820F47F4033
:1027000040EA0120706021E6B8F10C0F70D030680B
:1027100020F0807030603068000103D4F06820F051
:102720000300F060F0684FF6FF71CFF6EE610840ED
:10273000F060FFF705FA04463068800140F1EA8056
:10274000FFF7FEF9001B03284FF00300F4D3E2E08B
:10275000B8F10C0F4CD03068400149D4306820F0FB
:1027600080703060FFF7ECF905463068800140F179
:102770009480FFF7E5F9401B02284FF00300F4D9DD
:10278000C9E020F00100C6F89800FFF7D9F9054626
:10279000D6F8980080077FF568AEFFF7D1F9401BA7
:1027A00002284FF00300F3D9B5E0D6F890100028C6
:1027B00021F00101C6F89010D6F8901021F0040124
:1027C000C6F8901040D0FFF7BBF9054641F28837B4
:1027D000D6F89000800748D4FFF7B2F9401BB84202
:1027E000F6D9032097E000F074FE00283FF434AFE0
:1027F000012090E0316821F480313160316821F4AA
:1028000080213160D0B3FFF79BF905463068800323
:102810003FF5F1ADFFF794F9401B64284FF003003A
:10282000F4D978E020F480703060FFF789F905462C
:10283000306840057FF50FAEFFF782F9401B022894
:102840004FF00300F4D966E0FFF77AF9054641F24C
:102850008837D6F89000800707D5FFF771F9401B3D
:10286000B8424FF00300F4D955E0B9F1000F3FF53D
:10287000F8ADB06D20F08050B065F2E5FFF760F97B
:102880000546306880037FF5B6ADFFF759F9401B68
:1028900064284FF00300F4D93DE0F06848F28C0161
:1028A000C0F29D1104F12C0700EA010C8ECF6FF0ED
:1028B0000F00D4E90F5400EB02100022CFF6E072B3
:1028C00041EA0C0102EA05520843A2F500124FF05A
:1028D0007E4540EA032005EA0465104305F17E4584
:1028E00040EAC7602843F060306840F08070306094
:1028F000F06840F08070F060FFF722F9044630681D
:10290000800107D4FFF71CF9001B02284FF00300D9
:10291000F5D900E0002001B0BDE8F08340B1B0B5CA
:102920000446406A30B10020206104F1140007E041
:10293000012070476068B0F5827F03D004F11C006D
:10294000002101600025A56294F85D0020B92046B1
:1029500084F85C5000F04EF8022084F85D00206896
:10296000D4F80CE00268BEF5E06F22F0400202608D
:102970004EF4006298BF0125B2F5706F1CBF0023B2
:10298000A3624FEA053CD4E90135D4E9042103F4FC
:10299000827305F404452B4402F002021A44A36931
:1029A00001F00101E569114403F40072114405F0DE
:1029B0003802256A114405F08002A56A114405F425
:1029C0000052114301600421626A0EF4706501EA4D
:1029D0001341636B45EA0C0502F01002294303F032
:1029E000080311431943416000200121206684F847
:1029F0005D10B0BD006843F60001C4F200018842DA
:102A000018BF70472DE9F04385B041F24C00C4F285
:102A10000200C16840F2004441F48041C160C168D5
:102A2000C4F6000401F480410091009901686D46EC
:102A300041F00401016001684FF0020801F0040157
:102A40000091009901684FF0000941F00201016016
:102A50000068032600F00200009000980C2000900F
:102A6000052704F580602946CDF80480CDF808904C
:102A700003960497FEF78CFF4FF400508DE8010396
:102A800020462946CDE90367FEF782FF05B0BDE881
:102A9000F0437047411E0020B0EB116F1CBF0120B6
:102AA00070474EF21002CEF2000251604EF62351F2
:102AB000CEF20001F0230B70072190601160704787
:102AC000704770477047000070B501680446C869D8
:102AD0000E6840F62F028B680240202A06F0200E76
:102AE0000AD1BEF1000F07D0616E002900F04B81C2
:102AF0002046BDE87040084740F60F02104209D05A
:102B000040F22012C0F2004203F0010C324012EBFE
:102B10000C024FD1226EC5063DD5012A3BD116F0DD
:102B2000100238D0102008628868400600F1A380A7
:102B3000B4F85800B4F85A10B4F85A20002A00F03B
:102B40002281884200F01F81401A00BF216851E8AD
:102B5000001F226821F4907142E80013002BF5D188
:102B6000216851E8021F226821F0010142E80213A6
:102B7000002BF5D12021E16700212166616600BFAD
:102B8000216851E8001F226821F0100142E800137B
:102B9000002BF5D1B4E0C20240F1B88013F48002FA
:102BA00000F0B4804FF4801220460A62BDE8704005
:102BB000FFF787BFC20718BF16F4807207D0012243
:102BC0000A62D4F8802042F00102C4F88020820713
:102BD0000AD5BCF1000F07D002220A62D4F8802087
:102BE00042F00402C4F8802042070AD5BCF1000F6D
:102BF00007D004220A62D4F8802042F00202C4F80E
:102C0000802002070AD55CEA0E0207D008220A6279
:102C1000D4F8802042F00802C4F8802002050BD5C9
:102C200016F0806208D04FF400620A62D4F8802067
:102C300042F02002C4F88020D4F88020002A00F05E
:102C4000A280800607D5BEF1000F04D0626E12B1DB
:102C5000204690472168D4F88000896800F0280059
:102C600001F04001401858D12046FFF72BFF00200B
:102C7000C4F8800087E0206F01684A6893B2002B97
:102C800000F08180B4F85800834280F07C80A4F882
:102C90005A200968890630D4206850E8000F21685E
:102CA00020F4807041E80002002AF5D1206850E845
:102CB000020F216820F0010041E80202002AF5D14C
:102CC000206850E8020F216820F0400041E802022D
:102CD000002AF5D12020E06700202066206850E817
:102CE000000F216820F0100041E80002002AF5D111
:102CF000206FFEF7FEFDB4F85800B4F85A10401AE1
:102D000081B22046BDE87040FFF7DABE010622D549
:102D100016F080011FD0A16EE7E6204600F010FDFE
:102D20002068806840062FD5206850E8020F21688F
:102D300020F0400041E80202002AF5D1206F18B3CC
:102D400043F23171C0F600018163FEF7F4FDD0B1AA
:102D5000206F816BCDE6400615D516F0400012D0ED
:102D6000206850E8000F216820F0400041E8000290
:102D7000002AF5D120200021A0672046A166BDE8E9
:102D8000704000F002B970BD2046BDE87040FFF70A
:102D900099BE10B598B10446806F28B9002084F818
:102DA0007400204600F024F82420A0672068016801
:102DB00021F001010160204600F088FD08B10120EA
:102DC00010BD606A10B1204600F018FC2168486808
:102DD00020F490404860886820F02A0088600868E5
:102DE00040F0010220460A60BDE8104000F06CBCD3
:102DF00010B59EB0044619A81421FDF788FA02A860
:102E00005C21FDF784FA206843F60001C4F2010159
:102E100088422BD048F20001C4F2000188425CD104
:102E20002020029002A8FFF715F808B1FEF75CFD1C
:102E300041F24C00C4F202000169462441F0010154
:102E400001610169032201F0010101910199016809
:102E500041F0040101600068082100F004000190C5
:102E6000019840F60000C4F6000023E00120029023
:102E700002A8FEF7EFFF08B1FEF736FD41F24C0065
:102E8000C4F202004169252441F480414161416955
:102E90004FF4C06201F4804101910199016841F051
:102EA000010101600068072100F001000190019814
:102EB0004FF09040199202221A9200221B92032294
:102EC000CDE91C2119A9FEF763FD2046022100224D
:102ED000FEF7AAFE2046FEF797FE1EB010BD0000CA
:102EE000C36F202B07D14FF0010329B122B190F815
:102EF0007430012B02D102231846704780B501239C
:102F000080F8743000230366D0F800C048F2000354
:102F1000C4F200039C450FD0DCF804301B020BD533
:102F2000036853E800CFD0F800E04CF080634EE82F
:102F3000003CBCF1000FF3D100F0C8FD0023BDE858
:102F40008040D9E780B582B0012141F64012ADF84A
:102F5000041041F68A41C1F20002C1F20001904220
:102F6000009110D16A4644F65510082106F0C4F9C4
:102F700041F6401041F68A41C1F20000C1F2000161
:102F80000122FFF7ADFF02B080BD7047FEE741F6BA
:102F90004010C1F20000FFF797BD2DE9F04383B068
:102FA0000D460D990446002602A898461746029140
:102FB000019621F016FC20F00F0130292CD1C0F32E
:102FC000C0012170C0F34101296000F001010298A5
:102FD000DDF82890397001A900F022F80299064620
:102FE000084401990290471802A948463A4621F040
:102FF00005FC88B10299781A0ED42A680C9C0B9DA6
:10300000012A06DB02A821F0F2FB0299A8F80000D1
:10301000781A012620602960304603B0BDE8F083AD
:10302000F0B541F6DC0CC1F2000C002301220024B3
:10303000CCF800000B6000BF042C10D0051915F966
:10304000017B04F1010E07F07F0602FB0633D2017B
:10305000002F7446CCF800500B60EDD401E04FF027
:10306000050E7046F0BD0000002200BFCB1701EB3B
:10307000536323F07F03CB1A7F294FEAD111C8BFD6
:1030800043F08003835402F10102EFDC10467047E5
:103090007F2801DA02210DE043F6FF71884201D258
:1030A000032107E04FF6FE72C0F21F020521904295
:1030B00038BF042108447047F0B581B00446009041
:1030C000104615460E4600F081F80746FFF7E0FF70
:1030D000B04202DD6FF001006DE06E463046102117
:1030E00024F0E2FC00983946FFF7BEFF00992F7AE2
:1030F0000844009031A033A1042F08BF0146304698
:1031000024F0B6FC042F18BF03273046394624F0BC
:10311000CBFCA87EE97E022202EA4000002918BF0B
:10312000012140EA810609D095F83C0095F83D1050
:10313000202202EA401061F3C4000644286C08B95A
:10314000A86C08B166F07F06E86C08B9686D08B134
:1031500046F040066F463846314624F0A5FC298BE0
:10316000384624F0A7FC05F10C030ECB384624F0BA
:10317000AFFCE87E60B105F124030ECB6F46384604
:1031800024F0A6FC05F130030ECB384624F0A0FC59
:10319000B6F1FF3F05DC05F140030ECB684624F095
:1031A00097FC700605D505F14C030ECB684624F05C
:1031B0008FFC0098001B01B0F0BD00BF4D5154546E
:1031C000000000004D5149736470000070B5044662
:1031D000057AC068D4E904120226042D08BF0C2623
:1031E00000F09FF8032D08BF0E26E17E351871B15F
:1031F00004F1240207CA00F094F8D4E90C31A26B60
:103200000646184600F08DF8A9190844051D206CE3
:1032100008B1A26C01E0A26C22B1616C00F081F8EF
:103220002844851CE06C08B1626D01E0626D22B13A
:10323000216D00F076F82844851C284670BD0C22CC
:1032400000F058B82DE9F04782B0DDE90A580C4685
:1032500082460190284641469946164600F036F8C7
:103260000746FFF715FFA04202DD6FF001002AE0DC
:103270006FF07D0101AC66F3C301204624F014FC1D
:1032800001983946FFF7F0FE019908440190204665
:10329000494624F00FFC012D12DB0C9C08F10407B9
:1032A00001AE00BF57F8041CF7E80323304624F0B2
:1032B0000FFC14F9041B304624F0F6FB013DF1D15C
:1032C0000198A0EB0A0002B0BDE8F08770B50128B4
:1032D0000DDB04460E1D022556F8040CF6E8031219
:1032E00000F01FF82844C51C013CF5D100E0022580
:1032F000284670BD10B582B00229019002DA6FF045
:1033000001000CE00446100141B201A824F0CCFBFE
:1033100001980021FFF7A8FE01990844001B02B0A4
:1033200010BD002804BF08467047FDF723B8000011
:10333000FEE70000FEE770472DE9F04381B0044648
:103340000068154682680E46114018BF0121A94247
:1033500015D0DDF82080994608F101074FB1FEF73E
:10336000EFFBB8F1000F0CD0A0EB0900404508D8E6
:1033700020688168314018BF0121A942EED10020A8
:1033800007E0042084F84100606C40F001006064B4
:10339000012001B0BDE8F083F0B581B041F2000733
:1033A000C4F20207FA680D469107044613D0F86884
:1033B000216800F0030088424FF0010040F0878050
:1033C000002900F08480F8686168C0F302100130C1
:1033D00088420AD11DE02068032808D0022838D08E
:1033E000012802D13968890708D401206FE03968C3
:1033F00089035CBF39685FEA4131F6D5F9686268D4
:103400006FF00F0321F0730103EB02121143084325
:10341000F860386820F080603860FEF791FB06465F
:103420003868000105D5FEF78BFB801B0228F7D911
:1034300046E0012D11D015BB386948F2FF01C0F2FA
:10344000FF71D4E90223084040EA022040EAC36049
:1034500026E039684905C8D5D0E748F2FF01386948
:10346000CFF6FF112269002301F1B461CFF6E073BA
:103470000840A16803EA0252A2F500120DE0386983
:1034800048F2FF016269CFF6FF114FF07E4308401A
:10349000A16803EA026202F17E4240EA0120104381
:1034A0003861386840F080603860FEF749FB0546B7
:1034B0003868000106D4FEF743FB401B0228F7D909
:1034C000032004E0A069396908433861002001B095
:1034D000F0BDB0B582B041F25805C4F202052968CA
:1034E0000446C9000FD4286840F08050286028683E
:1034F00000F0805001900198FEF714FC296821F03B
:103500008051296001E0FEF70DFCB0F5007F06D187
:10351000812C08D30120A02C88BF02200DE0802C34
:1035200003D9032009E0002007E0A4F17000B0FAFD
:1035300080F04009802C08BF022042F20001C4F252
:1035400002010A6822F0070202440A60096801F0D9
:103550000701081A18BF012002B0B0BD704780B53E
:10356000FEF7F4FABDE8804005F06EBE80B596B077
:1035700005A804302421FCF7CAFE4FF40070FEF7C2
:103580008FFB20B1EFF3108072B600BFFEE74FF45F
:103590008071089110210991012111910A210220C5
:1035A000129107210590CDE90F00CDE91310159078
:1035B00005A8FEF7B9FE20B1EFF3108072B600BF88
:1035C000FEE70F200090032001900020CDE90200CB
:1035D000049068460421FEF771FD20B1EFF31080DE
:1035E00072B600BFFEE716B080BD4EF68850CEF230
:1035F0000000016841F4700101607047416ACA0728
:1036000008D00268D0F828C0536823F4003343EA96
:103610000C0353608A0708D50268D0F82CC05368A1
:1036200023F4803343EA0C0353604A0708D5026849
:10363000D0F830C0536823F4802343EA0C0353606E
:103640000A0708D50268D0F834C0536823F4004351
:1036500043EA0C035360CA0608D50268D0F838C0A4
:10366000936823F4805343EA0C0393608A0608D5D9
:103670000268D0F83CC0936823F4005343EA0C037B
:10368000936080B54A0614D50268D0F840C05368EC
:10369000BCF5801F23F4801343EA0C03536008D168
:1036A000D2F804C0D0F844E02CF4C00343EA0E037F
:1036B0005360090658BF80BD0168806C4A6822F4D7
:1036C00000221043486080BDB0B582B0044600209F
:1036D000C4F88000FEF734FA216805460A6812072C
:1036E0000CD56FF07E4C20464FF4001100222B4683
:1036F000CDF800C000F052FA78B921680868400798
:103700000DD56FF07E4C20464FF4800100222B46F1
:10371000CDF800C000F042FA08B1032006E02020F6
:10372000A067E0670020206684F8740002B0B0BD96
:10373000806A0021A0F85A10A0F85210FFF7C2B911
:10374000016851E8001F026821F4907142E80013FB
:10375000002BF5D1016851E8021F026821F0010138
:1037600042E80213002BF5D1016E01290AD100BFF6
:10377000016851E8001F026821F0100142E80013BF
:10378000002BF5D12021C1670021016641667047F9
:10379000B0F85C200168C36F222B41D1898C436D46
:1037A000114023F8021B4365B0F85A100139A0F804
:1037B0005A10B0F85A10002918BF7047016851E834
:1037C000001F026821F4907142E80013002BF5D12C
:1037D000016851E8021F026821F0010142E802136A
:1037E000002BF5D12021C16700214166026E012A1C
:1037F00018BFFFF7A7BB0166016851E8001F026808
:1038000021F0100142E80013002BF5D10168CA69CC
:10381000D20644BF10220A62B0F85810FFF750B920
:10382000088B40F00800088370470000B0F85C1077
:103830000268C36F222B43D1928C436D11401970E3
:10384000416D01314165B0F85A100139A0F85A10A4
:10385000B0F85A10002918BF704700BF016851E83E
:10386000001F026821F4907142E80013002BF5D18B
:10387000016851E8021F026821F0010142E80213C9
:10388000002BF5D12021C16700214166026E012A7B
:1038900018BFFFF757BB0166016851E8001F0268B7
:1038A00021F0100142E80013002BF5D10168CA692C
:1038B000D20644BF10220A62B0F85810FFF700B9D0
:1038C000108B40F00800108370470000B0B505462B
:1038D00005F108041ECC0068194341EA0403D5F839
:1038E0001CE0046846F6F311CEF6FF71214019433F
:1038F00041EA0E010160416848F2000C21F4405198
:1039000011434160AA69C4F2000C60451CBF296ADA
:103910000A438168102321F430611143816047F626
:10392000FF71C4F20001884212DC44F20041C4F28B
:10393000000188421BD044F60001C4F20001884215
:103940002AD141F28801C4F2020109680B091BE087
:10395000604513D043F60001C4F2010188421BD137
:1039600041F28801C4F202010B6854A210E041F256
:103970008801C4F2020109688B0805E041F2880160
:10398000C4F2020109688B0A4BF6E032C0F602026B
:1039900003F0030152F82130604542F20040C0F2CA
:1039A000F40011D0BEF5004F1DD1082B4FF00101DE
:1039B00000F27E80DFE803F00547507C4A7C7C7C87
:1039C0004E00FEF72BFC43E0082B4FF0010100F204
:1039D0006F80DFE803F0056D1C6D166D6D6D1A00CC
:1039E000FEF71CFC0FE0082B4FF0010160D8DFE868
:1039F00003F005464F5F495F5F5F4D00FEF70EFC29
:103A000042E0FEF735FC10B94FE04FF400406A6821
:103A100002EB420188424FF0010149D3130398425F
:103A200046D8010E000210EB520041F100010023C4
:103A3000FCF7C8FB4FF60052A0F54071C0F20F0230
:103A4000914230D333E0FEF7FEFB01E0FEF710FCBD
:103A500010B92AE04FF4004069684A0802EB4000C0
:103A6000B0FBF1F04FF6EF72A0F1100191421ED8B9
:103A70004FF6F0710140C0F34200084413E0FEF736
:103A8000E2FB01E0FEF7F4FB10B90EE04FF400405A
:103A900069684FF6EF7200EB5100B0FBF1F0A0F156
:103AA0001001914203D82968C860002100E001217B
:103AB000002208466A66AA66B0BD00BF0100000089
:103AC0000400000002000000080000004165A0F8AA
:103AD0005820A0F85A2081680022426651B1B1F105
:103AE000805F0BD0B1F5805F0CD1016921B940F244
:103AF000FF110AE0016939B9FF2106E0016919B136
:103B00003F2102E0002100E07F21A0F85C100021AD
:103B1000C0F880102221C167016851E8021F0268C5
:103B200041F0010142E80213002BF5D182680169DE
:103B3000B2F5805F09D1E1B143F62D01C0F6000175
:103B40004166002180F8741008E043F62D02C0F6AB
:103B500000024266002280F8742099B1016851E8A1
:103B6000001F026841F4907142E80013002BF5D168
:103B700012E043F29171C0F600014166002180F825
:103B8000741000BF016851E8001F026841F0200175
:103B900042E80013002BF5D1002070472DE9F043D7
:103BA00081B0044600681546C2690E461140891B63
:103BB000B1FA81F14909A9421ED1DDF82080994668
:103BC00008F1010787B1FDF7BBFFB8F1000F15D071
:103BD000A0EB0900404511D820680168490744BF9F
:103BE000C1695FEA015122D4C1693140891BB1FA30
:103BF00081F14909A942E5D000203AE0206850E867
:103C0000000F216820F4D07041E80002002AF5D1AD
:103C1000206850E8020F216820F0010041E802020C
:103C2000002AF5D12020A06704F17C001BE04FF4AE
:103C300000610162206850E8000F216820F4D07014
:103C400041E80002002AF5D1206850E8020F2168FF
:103C500020F0010041E80202002AF5D12020A067EF
:103C6000E06704F1800020210160002084F87400E6
:103C7000032001B0BDE8F0832DE9F04F83B041F699
:103C80003C15C1F2000514462A68894692F8501086
:103C9000DDF830A09846890706460AD5D76C30462D
:103CA000494622464346CDF800A0B84700286DD0CB
:103CB0002A68A01B01B2A8EB090380EAE1301FB219
:103CC000A0EBE13004B283EAE730A0EBE7300FFA73
:103CD00080FB01200129B8BF4FF0FF30136801902D
:103CE000012F4FF00107304649465246B8BF4FF00A
:103CF000FF3798475C45CDF808B024DAC84545D071
:103D00000298B84680B2029F294645084FF0000B42
:103D1000254428B2B842A8BFED1B0198A8BF0644AD
:103D20000868C144036830B20FFA89F152469847D7
:103D30000BF1010041F63C110FFA80FBC1F20001CA
:103D4000BB45E5DB22E0012C20DBA0B2A8465246B1
:103D50004FEA500A002500BF0298A34682440FFA9A
:103D60008AF0A042A4BFAAEB040AB944D8F8000024
:103D7000019B0FFA89F11E44036830B2144698473C
:103D8000681C05B222465C465D45E5DB03B000F0E9
:103D900000B830BCBDE8C08F032888BF704741F62B
:103DA0003C12C1F20002126802EBC000C1640321A0
:103DB00080F85010704700002DE9F04F81B041F6B7
:103DC0003C1B8246824281460F46C1F2000BC8BFAF
:103DD0009146B8BF92468B42B8BF1F46DBF8000041
:103DE0008846C8BF984690F858100A9D89070AD59A
:103DF000466D0FFA8AF039B20FFA89F20FFA88F39A
:103E00000095B047A8B10FFA89F40FFA88F800BFFF
:103E1000564600BFDBF8000039B2036830B22A46CC
:103E20009847701C06B2A642F4DD781C07B24745DD
:103E3000EEDD01B000F000B830BCBDE8C08F80B549
:103E400082B041F63C11C1F20001096884468888BD
:103E5000C9880138013902B20BB200200021CDF827
:103E600000C0FFF7A9FF02B080BD80B541F63C114C
:103E7000C1F20001096890E80C50006901F12C07BB
:103E800087E80C50C86380BD024690F90000030625
:103E900008605CBF0120704770B5C5B268B20023EE
:103EA000B0F1FF3F4FF0000013DCC02D01D2FF2026
:103EB0000FE0E02D01D202200BE0F02D01D2032013
:103EC00007E0F82D01D2042003E00620FC2D38BFC6
:103ED00005200B6092F90030B3F1FF3FDBB201DD4A
:103EE0000B70A4E0C02BC0F0A280E02B0DD2527862
:103EF00002F0E005802D40F09A8002F03F0242EA95
:103F000083120A70C3F3820216E0F02B16D25578A2
:103F100005F0C004802C40F08A80927802F0C00442
:103F2000802C40F0848002F03F0242EA85120A7041
:103F3000C5F3830242EA03124A7070BDF82B21D206
:103F4000557805F0C004802C71D192F802C00CF0B5
:103F5000C004802C6BD1D27802F0C004802C66D1D2
:103F600002F03F0242EA8C120A70CCF3830242EA6A
:103F700005124A7003F00702C5F3011343EA8202F7
:103F80008A7070BD92F801C092F803E014790CF0C9
:103F9000C005FC2B1FD2802D49D1927802F0C005BC
:103FA000802D44D10EF0C005802D40D104F0C00515
:103FB000802D3CD1CEF3830545EA0215C2F30112F0
:103FC00004F03F0442EA8C0244EA8E148A709A019B
:103FD0000C704D7029E0802D29D1957805F0C00630
:103FE000802E24D10EF0C006802E20D104F0C00611
:103FF000802E1CD1527902F0C006802E18BF70BDF1
:1040000002F03F06C2F3830242EA04124A70CEF382
:10401000011242EA85028A7003F001020CF03F03AC
:1040200046EA841643EA82120E70CA7070BD70BDF3
:10403000844601608280C3804FF00410591FCCF881
:104040002000501FACF82610ACF81E1045F65D415C
:10405000ACF82400ACF81C0040F20110ACF846109B
:104060004FF6FF71ACF840000020CCF84210002160
:10407000CCF82C00CCF83C00CCF83600CCF8320060
:10408000CCE90400CCF818000CEBC1020131042982
:10409000D06482F85000F7D141F63C11C1F2000122
:1040A0000120C1F800C070472DE9F04F85B092F8AB
:1040B000009082460020B9F1000F039104905AD07D
:1040C00041F63C10C1F200000568144604AFD34627
:1040D000B5F83680204639464FFA89F6FFF7D4FE08
:1040E0004645044402DB288F864205DD94F80090A3
:1040F000B9F1000FEED13EE05FFA89F00A2804D151
:1041000094F80090B5F804B0F2E7E86B20B1A6EBA4
:10411000080110F8018001E095F83280B5F904003B
:1041200008FA8BF1814207DBA88E039A95F94110BA
:1041300010440844D3460390AC465CF82C0F88B179
:104140000398B5F84230B5F844500FFA8BF102B23B
:104150003046CDE9005C00F08BFB41F63C10C1F22B
:104160000000056895F9400094F800904044B9F1CA
:10417000000F8344ACD105B000F000B830BCBDE8FE
:10418000C08F41F63C120146C1F2000201201160CD
:10419000704741F63C11C1F200010968A1F84400E2
:1041A000704741F63C11C1F200010968A1F84200D4
:1041B000704741F63C13C1F200031B685881998196
:1041C0001A727047B0B541F63C15C1F20005296876
:1041D00039B391F84800C2071CBF00F0FE0081F817
:1041E0004800D1E9040490B1A04210D0C1E905040F
:1041F00034B1A17D890744BF217A5FEA01711CD4E3
:10420000017A044601F097012831017200E044B1BF
:10421000207A810603D5204600F08AFE207A000726
:1042200000D4B0BD204600F0C1FA204600F0DEFD0B
:104230002046BDE8B04000F089BAE189C2899142C8
:104240000BD1618A428A914207D1218A028A914226
:1042500003D1A18A828A9142D2D0204600F0F4FD97
:1042600028684069CCE741F67420C1F20000FEF7EF
:104270002BBC0000FEE7F0B581B0044600880E4676
:10428000B0F5D17F4FF6FE7704DA88B1B0F5CE7F76
:1042900011D003E038D0B0F5D37F5FD000200325E4
:1042A0002080C4E901002073E081284601B0F0BD00
:1042B0004FF4CE70208007F04BFE8122C6F292525E
:1042C000801A71F100004FF00005EEDB40F224008F
:1042D000C1F2000000684EF61C32C0F60202002156
:1042E00000233560009505F0A1F9207B48B904F062
:1042F00090FF42F21071C4E90101012020730020F7
:10430000E0814FF4D1702080306830B904F081FF33
:10431000D4E90112401A904233D304F07AFFD4E971
:104320000112401A904228BFE7813068002100281E
:104330002173BDD007F00CFE217BF06059B904F069
:1043400068FF4BF60021C0F2DB01C4E90101012046
:1043500020730020E0814FF4D370208004F059FFD7
:10436000D4E90112401A90420BD304F052FFD4E971
:104370000112401A90424FF0000028BFE7812073DD
:1043800096E7002591E7022808BF402A00D0704731
:1043900040F2C010C1F2000000210170704700001F
:1043A0002DE9F04F81B0012869D108680C4600283A
:1043B0005ED0A18800295BD032A11546FBF7B2FF81
:1043C000002855D008F085F9002851D02FA10646C5
:1043D00008F072F9002848D0C168202945D1002191
:1043E00008F058F94EF69E31C0F60201074608F073
:1043F00063F9824627A1384608F05EF9814628A174
:10440000384608F059F980464EF6B63BDAF8100007
:10441000C0F6020B25A1C5F800B0FBF783FF24A767
:10442000002808BF5F462F60DAF8100022A1FBF7D2
:1044300079FF0FF2880B002808BFBB46C5F800B013
:10444000DAF810001FA1FBF76DFF1FA1002808BFBD
:1044500059462960D9F81000FCF7BBFAD8F81010BB
:1044600068600846FCF7B5FAA860304608F0EAF83C
:10447000A16821B1206801B000F02AB8084701B056
:1044800000F02BB80D0A0D0A000000006C6976657B
:104490007300000074656D706572617475726500FB
:1044A00068756D696469747900000000E699B4006C
:1044B00053756E6E79000000E99BA8005261696E29
:1044C00079000000E99BAA00536E6F777900000025
:1044D00030BCBDE8C04FFFF7D1BF30BCBDE8C08FD6
:1044E0002DE9F04383B0164641F61432C1F20002C2
:1044F0001268002A57D007461068894601211D46D8
:1045000006F0B6FD00284ED480463046B74238BF8C
:104510003846ADF8020028460A9C88BF3E46ADF8F2
:104520000660A94538BF4846ADF804000DF1020207
:1045300040464FF0000188BF4D46ADF80850ADF839
:104540000A4004F0ABF80546404604F036F8B5F1F1
:10455000FF3F28DCBDF80200BDF80620904222D8BB
:10456000BDF80410BDF808309FB28EB2BE4213D819
:10457000BDF9020009B2224600F018F8BDF80400A7
:10458000BDF80830411C88B29842ADF80410EFD94C
:10459000BDF80200BDF80620013087B296B2B742DE
:1045A000ADF80200E0D903B0BDE8F083F0B581B00A
:1045B00041F61436C1F200060C463168ADF802200F
:1045C00019B30A7C8B89E743002A04BF0446D81933
:1045D00007B29F4219DAC889844216DA08680121B5
:1045E00006F046FD002810D405463068808900FB9F
:1045F0000471284606F0A0F80DF1020128460222B7
:1046000007F016FF284603F0D8FF01B0F0BD2DE9F2
:10461000F04F87B00C46109907460D88501E9946FA
:1046200016468A4602B2384621462346069200952F
:10463000FFF722FB601CA9F10101BAF802500FFA42
:1046400080FB0FFA81F8384659463A4643460095B2
:10465000FFF712FBBAF804503846494632464B463B
:10466000CDF810900095FFF707FBBAF806503046DA
:1046700021463246434603940095FFF7FDFA781C25
:10468000BAF80850B11E0FFA80FA0AB250465946DD
:104690005B4605920095FFF7EFFA1099A9F1020227
:1046A000A01C4C890FFA82F901B2504652464B4683
:1046B00002910094FFF7E0FA1098069D8489504615
:1046C00041462A4643460094FFF7D6FADDF840807B
:1046D0002846B8F80E4059462A464B460094FFF744
:1046E000CBFAB81C029DB8F81070F11E04B20AB2E1
:1046F000204629462B460097FFF7BEFA04990398F7
:10470000CA1E0330B8F8127016B201B22046224613
:1047100033460097FFF7B0FA2046059CB8F81470AE
:10472000494622464B460097FFF7A6FAB8F816709E
:1047300020462946224633460097FFF79DFA07B0E8
:1047400000F000B830BCBDE8C08F00002DE9F04398
:1047500081B040F218250446C1F2000502202870FD
:1047600020784FF00009C5F80490E0B14701E84611
:10477000002600BF6068815D304401F0030102291A
:1047800000900DD1817E59B1C5F80480008B226B59
:10479000A5F801002846E9709047009880F81A9023
:1047A0002036B742E6D101B0BDE8F0830178002998
:1047B0005DD0B0B541F63C12C1F200021268446807
:1047C0005389B2F90CC0127A4FF6FF70002A18BF55
:1047D0000122181A18BF0120104004F108020FFA34
:1047E00083FE00BF12F8084C12F8073C04F04B049B
:1047F0000A2C35D110B35D06B2F9005003F0620403
:1048000058BF631DAE4503F0DF0413DBB2F904505B
:10481000AE450FDCB2F90250AC450BDBB2F90650E5
:10482000AC4507DC5C0643F020045CBF04F0F903F0
:104830009C1C00BF44F0400312E000BF5C060FD593
:1048400003F0FE0443EA841444F008049D0658BFB4
:1048500043F01004E3B244EA931323F0460300BF8D
:1048600002F8073C20320139BCD1BDE8B0407047A6
:104870002DE9F04F85B015460F9A5FFA80F81C4677
:10488000B8F1DB0F8E460BDCB8F1C30F14DCB8F1C6
:10489000B00F23D0B8F1B50F08BF4FF0E60828E0FD
:1048A000B8F1F50F11DCB8F1DC0F1AD0B8F1E40F54
:1048B00008BF4FF084081CE0B8F1C40F14D0B8F161
:1048C000D60F08BF4FF0990813E0B8F1FC0F0ED0D7
:1048D000B8F1F60F08BF4FF094080AE04FF0F8085F
:1048E00007E04FF09A0804E04FF08E0801E04FF027
:1048F00081085189414500F285810F9880894045A2
:10490000C0F080810F98B0F906C01FFA8CF0002823
:1049100000F078810F9E420732694FEAD0034FF0D2
:10492000010718BF07EBD003834604931AB1A8EB25
:10493000010712F807B041F63C12C1F200021268FA
:10494000DDF8389092F86070CDF80CB0BF0759D4FC
:104950003279CDF804E0012A00F0AA80002A40F064
:1049600051810F98028910B20128C0F24B81049F37
:10497000A8EB010179434A43002700BF0499C9B35A
:104980004FF00008F24600975FEA0B4002921FD0FA
:104990000F9800260068875C41F63C10C1F20000C9
:1049A000006822460368F8070FFA8AF029B208BFA8
:1049B0004A4698470AF1010A062EABF1010B09D8C5
:1049C0007F085FEA0B4006F10106E5D102E000BF77
:1049D0004FF0000B08F101080499029A1FFA88F0C1
:1049E000884202F10102CFD30F98DDF80CB00089A4
:1049F000DDE9007E791C0FB201B28F4205F101059D
:104A0000BCDBFFE031890EEB0B002944D76D013888
:104A1000013902B20BB270462946B84731790546D2
:104A2000012900F0A480039F002940F0EB800F983B
:104A3000018908B20128C0F2E5800F9A049B5289CF
:104A40005943A8EB020201FB02FA0022049949B380
:104A50004FF0000B029200BF380415D00F984FF0B2
:104A60000008006810F80A60F007204608BF4846B2
:104A7000A847B8F1060FA7F1010706D87608380451
:104A800008F10108F0D100E000270BF1010B0499B7
:104A90001FFA8BF088420AF1010ADDD30F98DDE995
:104AA00002270089511C0AB201B28A42CEDBA9E07A
:104AB00037893AB2012AC0F2A580A8EB010101FBB7
:104AC0000CF101FB07F65FFA84FC5FFA89FA24F027
:104AD000FF0829F0FF070024049700BFBBF1000F77
:104AE00039D0C146DDF83C8002940027744600BFEF
:104AF000D8F80000049B805D0136C0F5807101FB91
:104B00000AF21CFB002209FB00F001FB030041F646
:104B10003C11C1F2000109684FF47F43C2F3072240
:104B200003EA10200B68024420B229B2D346E246C1
:104B30009847D446DA46DDF80CB00137B8B258458C
:104B400004F10104D4D3B8F80600B8F80820DDF861
:104B500004E0029CC846A6EB0B0101FA80F6611C3A
:104B60000CB211B28C4205F10105B7DB4AE0308985
:104B700003990FFA80FCBCF1010F43DB0F9B5FFA36
:104B800089FB5A89B3F90630A8EB020242431FFAA7
:104B900083FE02FB03F65FFA84F824F0FF0429F099
:104BA000FF07002029B3DDF83CA04FF00009049076
:104BB000DAF80000805D0136C0F5807101FB0BF270
:104BC00018FB0022604301FB0700C2F307214FF4EA
:104BD0007F4202EA10200844A847039909F101091D
:104BE0001FFA89F08842E3D3BAF806E0BAF808C0A1
:104BF0000498431C721A18B20FFA8CF3984202FA06
:104C00008EF6CFDB05B000F000B830BCBDE8C08F39
:104C10002DE9F04F8BB004460089237D666805902E
:104C2000B4F90A20B4F90E10A089069300230A9360
:104C300096B3336883B3D4F80080B8F1000F2BD05B
:104C4000B6F90870891AB94226DB1FFA82FEF2888B
:104C5000B4F818900892E28A1FFA87FC09920122A0
:104C6000454600BF2B780A2B02D013B903E000BFE2
:104C700001320135F6E7069B13F0300F0FD0012308
:104C800092B2CFF6FF739B1A03FB09F302FB1732B4
:104C9000114401310A0403D50BB000F0A3B8002180
:104CA000069B09B2C3F300121141714407910599A3
:104CB000401A00F1010EC3F34000049009EB0C0010
:104CC000CDE9020E0020414691F90030DAB28AB3F4
:104CD0000A2A2FD07789BB4202DBB589AB4201DDBE
:104CE0000131F1E73569DDF820C015B1DB1B15F89E
:104CF00003C0099B184453B2B3F1FF3F6044EFDC9B
:104D0000C02A02D24FF0FF3210E0E02A01D2022284
:104D10000CE0F02A01D2032208E0F82A01D2042292
:104D200004E0FC2A4FF0060238BF0522114440007F
:104D3000CAE700BF0999081A704400B20028ABD432
:104D4000049980B2C8400699DDF814A0C90708BFCD
:104D5000824400BF98F900905FFA89FBBBF1000F15
:104D60009AD0BBF10A0F34D040460AA9FFF78CF85D
:104D700041F63C11C1F2000109680746C96A69B1F0
:104D8000079A238A658A4FFA8BF00FFA8AF112B2DA
:104D9000CDE90056FFF76CFD66680DE05FEA09603B
:104DA0000AD53169089819B17089A9EB0000085C2F
:104DB0000999514401EB000A3169089819B17089C9
:104DC000A9EB0000085C0999B844514401EB000AC2
:104DD000C0E707980299DDF80CE0084408F10108E3
:104DE00007906FE730BCBDE8C08F00002DE9F043AD
:104DF00081B00446007820B34FEA4018002700BF76
:104E00006068C65D06F00301022917D1C51995F83F
:104E10000190B00603D56A6820462946904770B2D3
:104E2000B0F1FF3F0ADC16F0080018BF19F041008E
:104E300004D06A6820462946904700BF2037B8450D
:104E4000DED101B0BDE8F08340B12DE9F04F89B06B
:104E50000446007A800703D4FF205FE0FF2060E073
:104E6000A07DE68910F0010041F63C10278AC1F2CE
:104E70000000B4F812A094F82C101CBF03360337BE
:104E8000006818BFAAF1030A40692A22A0424FF025
:104E9000280008BF262208BF2420205AA7F1010BB2
:104EA000A55AADF818000BEB01000FFA86F80FFABF
:104EB0008AF939B203B240464A46ADF81A50009515
:104EC000FEF77AFFD4E90601ADF81270CDE90201D0
:104ED000F01CADF8100094F82C0094F822105844FF
:104EE000ADF8160094F920008DF81C1094F92110EB
:104EF000ADF81E0002A8ADF814A0ADF82010FFF721
:104F000087FE94F82C004A46384401B249F61357FC
:104F100040460B460097FEF7AFFE002009B000F0B8
:104F200002B840B2704730BCBDE8C04FFFF7F9BFD0
:104F30002DE9F04381B00446C789B0F81080B0F87D
:104F40001290007AA68A00F0DF01000721720FD4C8
:104F500041F63C10C1F2000000680FFA89F2B0F887
:104F6000465038B233B201460095FEF725FF45E0C2
:104F7000A07D490617D410F0010114D04EF29C4CCC
:104F8000C0F6020C38B20FFA88F10FFA89F233B288
:104F9000CDF800C0FFF73BFBA07D033708F1030805
:104FA000A9F10309033E80070AD52046FFF74CFF0D
:104FB000207A41061FD494F82C00404400F10108E7
:104FC000A58938B20FFA88F10FFA89F233B2009549
:104FD000FEF7F2FE207888B1616800BF0A7802F01F
:104FE0000B030A2B04BF42F060020A70013801F182
:104FF0002001F3D102E000F0BF00207201B0BDE853
:10500000F083000070B584B00C46054625A04EF62E
:105010007D311646CDE90005C0F6020127A2032026
:105020007F23029405F004FB7DB1012D29D144B307
:10503000207830B340F2C010C1F2000004210170AA
:105040004FF4616006F034FD1BE014B341F62845CF
:10505000C1F20005284621466222FBF731F940F2F1
:10506000D0004EF6A631C1F20000C0F602012A4679
:10507000622304F07FFF40F2C010C1F20000022161
:10508000017064B1314656B1204604B0BDE87040AD
:10509000084740F2C010C1F200000021017004B0C6
:1050A00070BD00BF6D61696E206576743A2564201D
:1050B0006172673A2570200D0A0000005F5769662B
:1050C000694576744362000080B582B08446086CFE
:1050D0000121BCF1000F08BF022180F86A114EF6D1
:1050E00016610FF2180EC0F6020108A20120E1239A
:1050F000CDE900EC05F09CFA02B080BD617420722D
:105100006573756C743A25640D0A00005F62417422
:10511000436D64436200000003F07CBF2DE9F04F53
:105120009DB0D3F840B0059241F2FC225A44069259
:10513000002200EB010934A61CAC1BAD0DF11C08CC
:10514000CDE91B22049000BF3146FBF7EBF80028A5
:1051500052D02FA122462B468246FBF74FF91B9FC8
:10516000022838D1012F36DB1C9804282ED850464F
:105170003A21FBF7F5F800F1010A2FA04EF616616F
:105180004EF60862CDE9000A0320C0F60201C0F61F
:10519000020240F22B13029705F04AFADDE91B01E7
:1051A0004422ADF86400462001FB00B000211A91B2
:1051B000811C4046CDF860A0FBF782F80698414676
:1051C000D0E900730B200022B8471B9F0AEB0700B1
:1051D0004845B9D310E012A1CDE900104EF6166192
:1051E0004EF60862C0F60201C0F6020202204FF439
:1051F000A373029705F01CFA0498059908B101B150
:1052000088471DB000F020B82B4950442C00000006
:105210002B4950442C25642C25643A252A73000020
:10522000737363616E66206572726F7220256420ED
:105230002564200D0A000000726561643A25702C17
:105240002025640D0A00000030BCBDE8C08F10B5F9
:1052500082B0D3690A46197804460846214604F00C
:105260008BF94EF6F45C4EF616614EF6FB52C0F624
:10527000020CC0F60201C0F6020203204FF4AF7325
:10528000CDE900C405F0D4F902B010BD10B5017A23
:10529000044600F029F890B1617A8388C1F3430194
:1052A00001228A401A420AD0D0F808C0BCF1000F8F
:1052B00005D00068A379217ABDE81040604710BD91
:1052C00010B503F0A6FF40F22024C1F200042168CB
:1052D000401A152838BF10BD03F09BFF2060BDE8C1
:1052E000104008F0F9BB000070B582B041F60C32F6
:1052F000C1F2000214687CB1A1EB810100EB8106D0
:1053000001AD00BF2068294603F092FB0198B0422E
:1053100003D0E468002CF5D10024204602B070BD13
:1053200070B582B0017A002405468DF80740FFF77A
:10533000DBFFA8B100680021002405F099FE0028D9
:105340000ED4297A064605F0F7F90DF1070130462B
:10535000012205F0D3FE304603F02FF99DF80740F7
:10536000204602B070BD0000B0B5044641F26C109A
:10537000251828468021FAF7CAFF94F8603103A265
:105380002846802123F070FA2846B0BD41542B43B3
:105390004950434C4F53453D25640D0A0000000021
:1053A00070470020704700002DE9F04184B0046C84
:1053B000207828B14FF0FF35284604B0BDE8F081D1
:1053C00016460F464EF616614EF64162CAA5C0F665
:1053D0000201C0F60202032040F25A23CDE9005731
:1053E00005F026F90F2F4FF0000584F86171E3D81E
:1053F00041F2FC202044DFE807F06A724848488107
:105400000909090909A6080808CED5E7002ED1D058
:1054100041F2F01004EB0008404631464422FAF70E
:105420004FFFFF208DF80F000DF10F02204641467F
:1054300000F0F8F99DF80F100646B2A002914EF662
:1054400016614EF641620090C0F60201C0F60202FB
:10545000012040F2A723019605F0EAF8B81F0428BE
:105460004FF00005A8D8DFE800F0040398B5D2009B
:10547000A2E70621012084F861114BF6E82184F8A7
:105480006B512070C0F60201E2E0002E3FF492AFB3
:1054900041F2F010204431466322FAF711FF042F45
:1054A0004FF0000500F0C980032F00F0D680022FD6
:1054B0007FF482AF01202070022084F861014BF656
:1054C0006820C0F60200C4F864010320D0E0002E7A
:1054D0003FF470AFD6E90012C0E900126CE701207A
:1054E000207084F861014BF63830C0F60200C4F831
:1054F00064010220A4F868010320BBE0002E3FF401
:1055000059AF3046FAF736FF40283FF653AF41F225
:10551000F010251828464121FAF7F9FE3046FAF72F
:1055200029FF024628463146FAF7CAFE0521002522
:10553000012084F861114BF6F82184F86B5120703A
:10554000C0F6020184E0002E3FF434AF706C0028F6
:105550003FF430AF41F2F01004EB00082046414622
:10556000002200F05FF9B0F1FF3F40F3B080074642
:10557000404631465022FAF7A3FE0B2184F8611110
:105580004BF628310120C0F6020184F8607184F8DE
:105590006B5120705CE046600EE79DF80F00FF281D
:1055A0006BD0462110FB014584F86001A81C4146E0
:1055B0004422FAF785FE0120082185F846000025DF
:1055C00084F861114BF6083184F86B512070C0F6F5
:1055D00002013DE09DF80F00FF285BD0462110FB43
:1055E000014584F86001A81C41464422FAF768FE90
:1055F0000120092185F84600002584F861114BF649
:10560000183184F86B512070C0F6020120E0B6F129
:10561000FF3F4CDD462006FB00400A2180F8465043
:10562000012084F861114BF6C82184F8606184F888
:105630006B512070C0F602010AE00421012084F8B9
:1056400061114BF6D82184F86B512070C0F602012D
:10565000C4F86411A4F86801AEE601204BF6982165
:1056600020700320C0F6020184F86101C4F86411BF
:10567000A4F8680184F86B019EE64EF616614EF6BA
:1056800041622AA7C0F60201C0F60202022040F2DF
:10569000B1232BE04EF616614EF6416220A7C0F60C
:1056A0000201C0F60202022040F2BE231EE04EF6C6
:1056B000A1574EF616614EF64162C0F60207C0F6DB
:1056C0000201C0F60202022040F2CB230EE04EF6A9
:1056D000A1574EF616614EF64162C0F60207C0F6BB
:1056E0000201C0F60202022040F2E323009704F018
:1056F0009FFF6FF001055FE663746C3A25640D0A45
:105700000000000072657476616C20256420636E71
:105710006E5F69642025303278200D0A0000000099
:10572000636F6E6E2066756C6C0D0A00636F6E6E33
:105730002066756C6C2C2075736520636F6E6E5FD0
:10574000696420300D0A00002DE9F04782B0176C23
:10575000054641F2FC208A460B2D07EB000835D1A7
:1057600041F234204EF6166116463C180FF2900CAA
:10577000C0F6020126A2032040F2B713CDF800C004
:1057800004F056FFBAF1000F1AD0F069D4F8009077
:10579000A2880078494603F0EFFE4EF6F4564EF626
:1057A00016614EF6FB52C0F60206C0F60201C0F6C4
:1057B000020203204FF4AF73CDE9006904F038FF13
:1057C000A16819B120688847002020600020387047
:1057D000A7F86801C7F864014BF64D20C0F6020037
:1057E00000EB4500BAF1000F08BF013090F900004E
:1057F000D8E900C30021002202B0BDE8F0476047AD
:1058000073656E6420646174612E2E2E0D0A000093
:105810005F6245737031326643746C526573756CA8
:1058200074000000F0B581B015460E4600F1440743
:10583000002400BFB87801280CD13888B6F842108F
:10584000884209D1A7F142003146FAF79AFD18B90A
:1058500009E000BF05B12C700134052C07F14607A3
:10586000E8D14FF0FF34204601B0F0BDB0B582B0B2
:1058700003F0CFFC40F22824C1F200042168401A52
:105880000B2851D303F0C5FC41F61435C1F20005D5
:1058900029682060002947D04868002844D00021AA
:1058A00005F0E6FB00283FD404462868806820B94C
:1058B00001A92046042205F021FC204602F07DFECD
:1058C0002968886848BBBDF80420488A824224D3EE
:1058D0008B8A9A4221D2BDF80640CD8AAC421CD3B5
:1058E000B1F818C0644518D2B1F80CE0121A02FBE6
:1058F0000EF2181A92FBF0F0CA89631B5A43ACEB04
:10590000050392FBF3F2097CC3430029114604BF4F
:1059100010460EEB0301012202E0002100200022CC
:1059200000B209B2FEF745FCFEF74CFC02B0B0BD78
:10593000FBB19869E8B1B2F804C0BCF1000F18D00F
:1059400080B50020B3F82CE0D96971450CD91168F5
:10595000D3F818E011F800C0998D0EF801C0998DA8
:1059600001319985B2F804C001306045EAD3BDE841
:105970008040704770B540F21C04C1F200042568F5
:10598000A54208BF70BD002635F8080C40B335F8B5
:10599000061C35F8080CE9B135F8061C884217D109
:1059A00003F037FC55F8041C35F8142C401A9042CB
:1059B00016D955F8103C7BB135F8081C55F81C0C6D
:1059C00055F80C2C984700280ED455F8181C11E0F7
:1059D00035F8080C25F8060C03F01BFC45F8040C00
:1059E0002D68A542D0D10CE035F8081C55F8180CEC
:1059F0008842F1D155F81C0CFAF789FC25F8086C9F
:105A0000EAE770BD80B50B460146106C41F25422A6
:105A100010441A4602F0AAFB002080BD81690322CF
:105A200000204A70704770B515460E46002904469E
:105A300003D4062E01D0012E15D1D4F8D00020B108
:105A400003F0E8FA0020C4F8D000D4F858014FF071
:105A5000FF31C4F8D41020B105F079FC0020C4F85F
:105A6000580105206070D4E9323230462946984703
:105A7000D4F8500120B103F0CDFA0020C4F8500151
:105A80000020C4F8540170BD2DE9F0418AB00446ED
:105A90000D462188002040F22C274FF6FE78099011
:105AA0000320B1F5EA7FC1F2000723DA99B3B1F51B
:105AB000D57F3DD0B1F5DD7F40F0C381D5F8D4006E
:105AC00006F021F8012807D003F0A3FBD4E9011266
:105AD000401A9042C0F0848003F09BFBD4E901128D
:105AE000401A904238D2E08900264045267337D0CC
:105AF0003E8077E000F0908040F2F512914200F095
:105B0000F98040F22E22914240F09B81D5F8D400DA
:105B10009D2700268AE16878052861D0062821D1D2
:105B2000D5F8D40001280EDB4FF4D571218001E0B7
:105B3000D5F8D40005F060FF002851D42846022192
:105B40000022FFF770FFD5F8000106F065F828463F
:105B500003F060FA032074E10026A4F80E80267397
:105B60009E275CE145F6A161C0F6000100202A46AF
:105B7000002605F0CDFF0028C5F8D4002ED4B5F8D6
:105B8000C41005F14302B3A3CDE9031240F26C51F6
:105B900040F2A552AE1CCDE90030C0F60301C0F6BC
:105BA000030203204FF4DC73029604F041FDD5F8A4
:105BB000D400B5F8C420314602F01CFD207B48B962
:105BC00003F027FB41F28831C4E901010120207371
:105BD0000020E0814FF4DD7020806FE79D271EE1FB
:105BE000002034E1287898B3D5F8D410D5F85801BE
:105BF00005F0CEFB0028099027D429D0207B40B99E
:105C000003F007FB0A21C4E90101012020730020F1
:105C1000E0814FF4EA70208003F0FBFAD4E901122E
:105C2000401A9042DCD303F0F4FAD4E90112401A8E
:105C3000904228BFA4F80E803988002001318AB232
:105C4000C82A20733980CDD338809F2709AEE6E07B
:105C5000284600210022FFF7E6FED5F8D07040F27A
:105C60006C5140F2A55281A6C0F60301C0F60302B2
:105C700003204FF4F173CDE9006704F0D9FCD5F8A7
:105C8000D0602F783046FAF775FB47B1D5F8581138
:105C900082B208463146002305F0EFFC07E0D5F854
:105CA000D41082B208463146002305F06BFE05F59C
:105CB00084700121C5F820510AF05DFC05F594704F
:105CC0000AF070FC45F61D20C0F60000C5F844013E
:105CD0000020ADF81600207B48B903F09AFA41F293
:105CE0008831C4E90101012020730020E08140F2E5
:105CF000F5102080D5F8D40005F000FF012807D06A
:105D000003F087FAD4E90112401A9042FFF468AF19
:105D100003F07FFAD4E90112401A904270D2E08970
:105D20000026404526736FD0B5F85401B5F85611DA
:105D3000411A80290CDC00F58061D5F85001A5F8E6
:105D4000541189B205F00AFA0028C5F8500154D060
:105D5000287878B1D5F85011B5F85621B5F85431F6
:105D6000D5F8580111449A1A92B20DF1160305F0B4
:105D700064FC0EE0D5F85011B5F85621B5F8543151
:105D8000D5F8D40011449A1A92B20DF1160305F019
:105D900057FABDF81630002B9DD0D5F85021B5F834
:105DA000567105F5847005F594713A4408F002FACD
:105DB000BDF81610B5F85621064630A0CDE90212FE
:105DC00040F26C5140F2A5520090C0F60301C0F6BB
:105DD0000302032040F21923019604F029FCBDF8C8
:105DE0001600B5F856116A780844032AA5F856013A
:105DF0000CD0B6F1FF3F3FF76EAF9D2700260EE0B7
:105E00000026A4F80E802673A02708E0D5F85011CC
:105E1000ADF81C00002006910890012706AED5F8C9
:105E2000D400012807DB40F22E21218005F0E4FD9B
:105E300000283FF5D5AE79B228463246FFF7F3FD8C
:105E4000002000212180C4E901112173E1810AB001
:105E5000BDE8F081736F636B66643A202578202576
:105E6000732025642025730D0A0000006874747087
:105E7000207265713A25730D0A000000706172731B
:105E8000655F6C656E20256420726561646C656E6B
:105E900020256420696E6465783A25640D0A000047
:105EA00070470000B0B582B0044641F26C1025186E
:105EB00028468021FAF72BFA41F2F010231803F15B
:105EC000210404A228468021009422F0CDFC28461B
:105ED00002B0B0BD41542B43574A41503D22257377
:105EE000222C222573220D0A00000000B0B50446C2
:105EF0000025C561456100BF206918B1E168B1FBAB
:105F0000F0F000E00120854213D22046294600F03F
:105F10004DF800280AD42046294600F0DBFB002873
:105F200004D4E06901350130E061E5E74FF0FF306E
:105F3000B0BD0020B0BD00002DE9F04788B040683A
:105F40008A4602219946904605F092F8002827D407
:105F50000746B9F1000F1FD000246D464E4600BF22
:105F60000AEB0401384604F0E7FB384629462022B4
:105F700005F0C4F808EB0401384604F0DDFB2022EC
:105F800038462946202E38BF324606F051FA2034D2
:105F90004C45A6F12006E3D3384602F00EFB01E0A3
:105FA0004FF0FF39484608B0BDE8F08770B582B0C1
:105FB000044600690D4618B1E168B1FBF0F000E05D
:105FC0000120A84217D96068022105F051F8002885
:105FD00011D40646A06821696A4601FB050000212C
:105FE0000090012001903046002402F057FB30461B
:105FF00002F0E3FA01E04FF0FF34204602B070BD3A
:106000002DE9F04F9BB004920A46814606A910463E
:10601000059200F077F9D9F81000834608B9D9F84D
:106020000CB04FF6FF76DDE90647C0F27F064FF071
:10603000000808AD0394CDE901B700BF20B1D9F83D
:106040000C10B1FBF0F000E00120804580F0D3801F
:10605000484641460FAA00F08AF9002800F1CB809B
:10606000119845F27161C1F23421884200F0BE807E
:1060700045F27961C1F23421884207D0109845F287
:106080007861C1F23421884240F0B080BBF1110F39
:10609000C0F0AC804FF0100AD9F80800D9F8101001
:1060A000504401FB080148462A4600F046F9002802
:1060B00000F1A180089846F67631C6F25F21884249
:1060C00040F09480DDE90A0160407940084357D1EF
:1060D0009DF827000006B0F1AA4F51D0D9F808006A
:1060E000D9F81010504401FB080404984546046098
:1060F0000598FAF73FF9D9F80410804608460021C0
:1061000004F0B6FFB0F1FF3F46DD04F11801074689
:1061100004F012FB5FFA88F6A846BEB100253446AB
:106120000DF14C0B38465946202204F0E7FF059844
:10613000202241195846202C38BF2246FAF74FF941
:1061400060BB2035B542A4F12004E9D3384602F003
:1061500034FA099800F07F41B1F12A4F50D120F074
:106160007F4A6FF07F40DDF804B04FF6FF76DDE93F
:1061700002748245C0F27F0608AD33D136E000BF1D
:106180000D98010200EA060119D44FF6FC720331A2
:10619000C0F2FF0211401DE0A84608E0384602F0B8
:1061A0000CFADDF804B04FF6FF76C0F27F060D98CA
:1061B000DDE90274010200EA060108ADE5D5D9F86F
:1061C00010200AB9D9F80C2011441139103AB1FB4A
:1061D000F2F18900032202EB106020F00300183076
:1061E00008448244DA45FFF457AF00BFD9F81000E5
:1061F00008F1010822E74FF0FF301BB000F002B8B1
:106200000020FAE730BCBDE8C08F00002DE9F04F58
:1062100087B08B4606464FF0FF30002B0860019296
:10622000106008D4306918B1F168B1FBF0F000E0FB
:106230000120984200D8002345F2706AC1F2342A46
:106240005F1C00240DF10C090AF109050AF1080090
:10625000029000BF306928B1F168B1FBF0F08442D0
:1062600003D349E0002C47D1012007EB0408B8FB19
:10627000F0F14A4601FB1081304600F078F8DDE984
:106280000501514508BFA84216D045F2796140F09A
:106290000800C1F2342188422CD004980299884227
:1062A00028D00198006801301FD13069B0B1F16881
:1062B000B1FBF0F013E000BFDBF80000013019D1B2
:1062C000306918B1F168B1FBF0F000E00120B8FBD3
:1062D000F0F101FB1080CBF800000BE00120B8FBCF
:1062E000F0F101FB108001990860DBF8000001303B
:1062F00002D100BF0134ADE707B000F000B830BCF8
:10630000BDE8C08F70B50C460546FAF733F807288C
:1063100004D9686829686060216070BD002600BFEC
:106320002846FAF727F886422CBF3046A85DA055CC
:106330000136082E08BF70BDF2E770B540680E4602
:106340000221144604F094FE00280DD4314605467F
:1063500004F0F2F928462146182204F0CFFE284620
:1063600002F02BF9002070BD4FF0FF3070BDF0B58A
:1063700081B00546006914460E4618B1E968B1FBC4
:10638000F0F000E00120B04217D96868002104F065
:106390006FFE002811D40746A868296901FB060191
:1063A000384604F0C9F938462146102204F0A6FE0A
:1063B000384602F002F9002001E04FF0FF3001B052
:1063C000F0BD00002DE9F04F89B0044621694FF07F
:1063D000FF300190009059B161694FF0FF35481CC2
:1063E00072D020460122002300F0A2F963696DE01B
:1063F0006169A068B1F1FF3F40F30881E16800F1F5
:10640000100501448D4280F0118146F676384FF632
:10641000FC7A4FF6FF7BC6F25F28C0F2FF0AC0F29B
:106420007F0B0DF1080903262F4600BF2046394691
:106430004A46FFF782FF002800F1E58002984045B8
:1064400040F0F3800398000E552829D0AA2827D0C1
:10645000AF4217D007982A4606EB106100EA0B00FE
:10646000033021F0030100EA0A00084400F1180398
:1064700020463946FFF760FD2046394600222B466C
:1064800000F0E2F8079806EB106100EA0B0021F03B
:106490000301033000EA0A002944084400F118050A
:1064A000079806EB106100EA0B0021F003010330AE
:1064B00000EA0A0039440144D4E9020201F1180754
:1064C00011188F42B2D3B1E04FF0FF3301A96A46F1
:1064D0002046FFF79BFEE0696561022810D3009912
:1064E0004A1C00F09080471E1020C4E90510204689
:1064F00000220023E76109B000F09EB800F018B94F
:10650000012840F08080DDF804A04FF0FF301AF140
:1065100001071CBFDDF8008018F1010100F089803F
:10652000A5682669204641460022002300F000F9B4
:10653000B0F1FF3F67DDA068216905F1100201FBA2
:10654000070006FB0A2506FB082B1838A84246D987
:106550000DF10809204629464A46FFF7EEFE02984B
:1065600046F67631C6F25F21884238D1079801029B
:106570004FF6FF71C0F27F0101EA000106D44FF629
:10658000FC720331C0F2FF02114008E0226902B937
:10659000E26811441139103AB1FBF2F1890003228B
:1065A00002EB1060039A20F0030000F11803100EB4
:1065B000552803EB01060AD0AA2808D02046294610
:1065C0005A463346FFF7B8FC20EAE0708344A068DF
:1065D0002169354401FB07001838A842BAD8204683
:1065E0005146FFF7E3FC2046514600F073F8A068DF
:1065F000216901FB0800ABEB00000128A4BFC4E93E
:106600000580002015E04FF0FF3012E0E16900291D
:106610003FF4F4AE00206061E061204600210022DA
:10662000002300F085F8102102E0A068291A00205C
:10663000A16109B000F005B830BCBDE8C04FFFF75C
:106640005DBF30BCBDE8C08FB0B584B00D46AA2197
:1066500061F31F63002A18BF4FF0AA43406802216C
:10666000039304F005FD0446B0F1FF3F0EDD291D44
:10667000204604F061F803A92046042205F0D8FE64
:106680000546204601F099FFE8170EE04FF64B1142
:1066900007A5C0F602010AA203204FF4AF73CDE9AB
:1066A000005403F0C5FF4FF0FF3004B0B0BD00BF91
:1066B0006F70656E206661696C202564200D0A008C
:1066C0005F624B56536574446174615374617465C1
:1066D0000000000070B584B0044600690D4618B192
:1066E000E168B1FBF0F000E00120A8421CD960682D
:1066F000022104F0BDFC002816D40646A0682169DA
:1067000046F6763201FB0501C6F25F223046009262
:1067100004F012F869463046042205F089FE30463E
:1067200001F04BFF002001E04FF0FF3004B070BDDE
:106730002DE9F04184B005460069984616460C469E
:1067400018B1E968B1FBF0F000E00120A04212D9D5
:106750006868022104F08CFC00280CD4074645F23E
:106760007060012EC1F2342008D0002E12BF0390B9
:106770000830019008E04FF0FF301AE0B8F1000F48
:1067800014BF013009300290A8682969751C00EB1C
:10679000850001FB0401384603F0CEFF684600EB9C
:1067A00085013846042205F043FE384601F005FF16
:1067B000002004B0BDE8F08173B1B0B5C5691446DE
:1067C0002878697802F038FDA978401AB0FA80F08C
:1067D000400920700120B0BD4FF0FF307047B0B5C8
:1067E00082B0C5690C46A87CADF8061030B102280D
:1067F00029D001283DD1286804803AE0A878E978BA
:10680000002202F01DFD28796979012202F018FDAD
:10681000287A697A002202F013FD2878214602F0D6
:1068200011FDA879E979002202F00AFDA879E97939
:10683000012202F005FD287A697A012202B0BDE842
:10684000B04002F0FDBC28786978002202F0F8FC24
:10685000E87A297B0022AC1C02F0F2FC0DF1060163
:106860002046012202F0B6FDE87A297B012202F0DF
:10687000E7FC02B0B0BDB0B582B0C5690C46A87CDB
:10688000ADF8061030B1022829D001283DD1286882
:1068900044803AE0A878E978012202F0D1FC287916
:1068A0006979012202F0CCFC287A697A002202F090
:1068B000C7FC2878214602F0C5FCA879E9790022B6
:1068C00002F0BEFCA879E979012202F0B9FC287A2D
:1068D000697A012202B0BDE8B04002F0B1BC28786C
:1068E0006978012202F0ACFCE87A297B0022AC1C1A
:1068F00002F0A6FC0DF106012046012202F06AFD1D
:10690000E87A297B012202F09BFC02B0B0BD10B5F1
:1069100082B0C469A27C022A04D202B0BDE8104051
:10692000FFF7A9BF19D148BAADF8060014F8020B59
:10693000012214F8011C02F083FC607AA17A002283
:1069400002F07EFC0DF106012046022202F042FD1B
:10695000607AA17A012202F073FC02B010BD00003F
:10696000B0B5044641F26C10251828468021F9F78D
:10697000CEFC41F23220235A03A22846802121F086
:1069800073FF2846B0BD00BF41542B4349505345C7
:10699000525645523D312C25640D0A0010B582B087
:1069A000033020F0030C40F200000CF1080EC2F29C
:1069B000000000BF0178AA2909D0014631F8013F43
:1069C0008A7843EA02439C4511D09E4513D940681A
:1069D0000028EFD118A41FA128A20220B223CDE9DC
:1069E000004C03F025FE03F0E1FE002021E0AA2187
:1069F00000F8081B1DE0AA22027000F108025523CE
:106A000002F80C3091F802E00B8802EB0C0443EA28
:106A10000E43A3EB0C03083BA4F801301B0CE370FE
:106A2000436863604FEA1C438B70A1F800C0446068
:106A3000104602B010BD00BF6D656D7020616C6CBA
:106A40006F63206661696C2C2073697A653A2564EE
:106A5000000000002E2E2F2E2E2F2E2E2F42616290
:106A6000794F532F626F732F7574696C732F625F48
:106A70007574696C5F6D656D702E63005F624D6546
:106A80006D70416C6C6F630080B582B0037B84468F
:106A90000020ADF806004BB9DCF830000DF106031C
:106AA00004F0CEFB002801D4BDF8060002B080BD82
:106AB0002DE9F04FA7B08346407B894610B90120ED
:106AC0008BF80D00BBF8000040F210050326B0F56E
:106AD000197FC1F200050BDB40F27621884205D018
:106AE000B0F51C7F51D0B0F5197F06D1286888E237
:106AF00078B3B0F5187F00F058810020ABF80000A3
:106B0000CBE901008BF80C00ABF80E0089E200BF66
:106B100014F8100C90B92F4634F80E5C40F27561F1
:106B20000320C0F6030152464FF4CF73CDE9006550
:106B30003D4603F07DFD54F8081C19B9246844450E
:106B4000E6D106E0D9F8300034F8042C002304F034
:106B500019FFB9F1000F00F05D8299F800000028DC
:106B600000F0E4809BF80C0058B902F052FB4FF49F
:106B70007A71CBE9010101208BF80C000020ABF801
:106B80000E004FF41C70ABF80000286804F0B6FF4C
:106B900058B999F80000012807D102F03AFBDBE967
:106BA0000112401A9042C0F03B8202F032FBDBE956
:106BB0000112401A904224BF4FF6FE70ABF80E004F
:106BC00000208BF80C0099F80000012840F0D381D8
:106BD000286804F093FF002800F0208100208DF841
:106BE0003F000DF13F0148460122FFF74DFF01280C
:106BF00040F02981A8460124002605250DF19A07B9
:106C0000013D00F07581484639460122FFF73CFFFF
:106C1000012840F07D819DF99A0000F07F0104FB7E
:106C20000166B0F1FF3F4FEAC414E9DD10A8314618
:106C3000FCF71AFA8246304440F2756140F2D8629D
:106C4000441C0FF29847C0F60301C0F6030203206C
:106C50004FF40473CDE9007403F0EAFC204603F01E
:106C60007DFD002800F0778105469DF83F002F4606
:106C700007F8010B10A938465246F9F721FB012EFF
:106C800008DB07EB0A01B2B24846FFF7FDFEB0424F
:106C900040F0C2819DF83F00AA46050902F0B9FA0A
:106CA00040F2756140F29F62C9F834000FF240472C
:106CB000C0F60301C0F60302032040F27F23CDE9B2
:106CC000007503F0B5FC022D00F0AF81032D00F03C
:106CD000C481092D454640F0DD810AF1010000BF65
:106CE00010F9011B0029FBD4008840F2756144BAF9
:106CF0000FF21047C0F603010FF21442032040F2D6
:106D0000B513CDE9007403F093FC40F22801C1F201
:106D1000000108460068884200F0BC8130F80E2C63
:106D20009442F7D1012100F8101CB3E147F287111A
:106D3000C0F6000100204A46002604F0E9FE0128C2
:106D40002860FFF6DAAED9F8080040F21961C0F603
:106D50000301B9F80E70CDE9001040F2756140F200
:106D60009F62C0F60301C0F60302032040F25E23D7
:106D7000029703F05DFC2868D9F80810B9F80E20D6
:106D800001F038FC9BF80C0058B902F042FA40F6CA
:106D9000B831CBE9010101208BF80C000020ABF8E1
:106DA0000E004FF41870ABF80000286804F0ABFE3A
:106DB00038B902F02EFADBE90112401A9042C0F015
:106DC0002F8102F026FADBE90112401A904280F08E
:106DD000F880BBF80E104FF6FE72002091428BF83F
:106DE0000C0000F0F580012189F80010296840F2BC
:106DF000F157C9F8301040F22E21C1F2000108709D
:106E000040F2756140F29F62C0F60307C0F60301CD
:106E1000C0F60302032040F26A2320E040F22E2055
:106E2000C1F200000078F0B140F22808C1F2000879
:106E3000D8F8004044453FF48CAE40F2C16AC0F639
:106E4000030ABAA664E640F2756140F2D86298A7D8
:106E5000C0F60301C0F6030202204FF4017300974D
:106E600003F0E6FB75E649F2E021C0F6020110A846
:106E70005822F9F725FA09F1100898E881012097BE
:106E80001390CDF88C80F9F775FA00F10E0637B142
:106E900004463846F9F76EFA204400F11006B8F1BE
:106EA000000F04D04046F9F765FA3044861C012EE5
:106EB000FFF64FAE304603F051FC00283FF449AED8
:106EC00010AA31460746FCF7F7F801280EDB99F8BF
:106ED0000C100022ADF89A2041B9D9F8301082B2D6
:106EE0000DF19A030846394604F04CFD3846D2E0CD
:106EF00040F2406740F2756140F2E962C0F6030774
:106F0000C0F60301C0F60302022040F251130BE069
:106F100040F2756140F2E9626BA7C0F60301C0F66A
:106F2000030202204FF4AC73009703F081FB40F2A0
:106F3000296740F2756140F2D862C0F60307C0F6D7
:106F40000301C0F60302022040F20A23009703F077
:106F50006FFB4546FDE540F20A6740F2756140F27D
:106F6000D862C0F60307C0F60301C0F60302022090
:106F70004FF40573EAE740F2756140F29F6247A75C
:106F8000C0F60301C0F60302032040F2732300970A
:106F900003F04EFBD9F82C0004F0B4FE40F22800B8
:106FA000C1F200000168814205D0002201F8102CD6
:106FB00009688142FAD1286801282BDB40F276214A
:106FC0001DE04FF6FE70ABF80E0000208BF80C00B1
:106FD00040F2636740F2756140F29F62C0F60307BA
:106FE000C0F60301C0F60302022040F263230097BB
:106FF00003F01EFB286801280CDB4FF41971ABF875
:10700000001004F0F9FCB0F1FF3F4FF000063FF72D
:1070100074AD06E0002670E5284601F0FBFF98E716
:107020000026304627B000F087B840F22E2101201C
:10703000C1F200010870B9F81C104FF47A72514384
:1070400045F25652D9F82C00C5F25552A1FB022147
:1070500004F038FE0020454618E009A8011D421C36
:10706000831C00F1100700F1140606ADCDE90057AE
:10707000CDE9026A0494FBF790FF0128454609D147
:10708000DDE907100B900220ADF83010D9E9083285
:1070900009A99847504601F0BDFF5AE57463702076
:1070A000646973636F6E6E6563742E2E2E0D0A0015
:1070B00072656164206865616465722062797465D7
:1070C000206661696C656400624D7174745265611B
:1070D00064206661696C65640D0A00007061636B11
:1070E000206C656E6774683A25640D0A0000000024
:1070F0007061636B657420747970653A2025640D46
:107100000A00000073756261636B3A25640D0A0022
:107110005F624D7174745375627363726962654125
:10712000636B48616E646C65000000007375623AC1
:1071300025640D0A0000000030BCBDE8C08FB0B56A
:1071400082B004460078E0B101A80421FCF777F88A
:10715000054602F05EF8616B4FF47A72401AA18B1B
:107160005143884207D941F62440C1F2000000682B
:107170000021017005E0206BAAB201A9002304F0F0
:1071800001FC02B0B0BD7E3018BF704741F624400C
:10719000C1F2000000680178012904BF00210170DC
:1071A000704770472DE9F04391B00446008841F6DE
:1071B000240740F2095840F22F294FF6FE760021AD
:1071C000E328C1F20007C0F60308C1F20009ADF8D8
:1071D000121005DCD7280CDC08B3D42855D014E0F5
:1071E000F3280CDCE42800F04E81E72800F07881D9
:1071F0000BE0D82800F01481E0287DD005E0F428C9
:1072000000F0B480F62800F0D58000202080C4E98A
:1072100001002073E081032011B0BDE8F08347F244
:10722000A311C0F600010120002204F071FCB0F1AE
:10723000FF3F786040F3D280AFA199F80050CDE9CC
:10724000001040F26C5140F29752C0F60301C0F6B4
:1072500003020320D223029503F0EAF999F8001003
:10726000A9A2786852F821107B2201F0C3F9207B93
:1072700048B901F0CEFF44F62061C4E901010120C4
:1072800020730020E081D4202080786804F03BFC4B
:10729000012807D001F0BDFFD4E90112401A904245
:1072A000C0F0258101F0B5FFD4E90112401A9042E7
:1072B00080F0A380E0890021B042217300F0A0801B
:1072C00005AD28463021F9F722F81B2178688DF8A2
:1072D0001410294630220023002504F053FB207BA4
:1072E00040B901F096FF44F62061C4E90101012094
:1072F0002073E581E0202080786804F0FFFB0128FE
:1073000007D001F086FFD4E90112401A9042C0F084
:10731000EE8001F07EFFD4E90112401A904280F025
:107320009F80E0890021B042217300F09C80786842
:1073300005A90DF11203302203F082FFBDF81200FF
:10734000302811D10D990F98411A0DD301290BD86E
:1073500048F2801100BAC7F6554140184FF00001BD
:1073600061F1000104F00DFEF4202080786804F043
:1073700043FB002800F1BB8040F26C5140F2975271
:10738000C0F60301C0F603020220F523CDF8008009
:1073900003F04EF9207B58B901F03BFF6060B868FC
:1073A0004FF47A714843A060012020730020E081EF
:1073B000F620208001F02DFFD4E90112401A9042FE
:1073C000C0F0958001F025FFD4E90112401A9042E7
:1073D0004FF0000028BFE681207320E740F26C5197
:1073E00040F2975256A7C0F60301C0F603020220EE
:1073F000CF23009703F01CF907E70020E6812073F4
:1074000040F26C5140F2975248A6C0F60301C0F614
:1074100003020220D723009603F00AF9D820208027
:10742000786804F0E9FA002861D440F26C5140F227
:107430009752C0F60301C0F603020220D923CDF80B
:10744000008003F0F5F899F8000045F2565101303C
:107450004143090C01EB4101401A89F80000D4E6D0
:107460000020E681207340F26C5140F2975229A629
:10747000C0F60301C0F603020220E323009603F0E6
:10748000D7F8E4202080786804F0B6FA00282ED4DB
:1074900040F26C5140F29752C0F60301C0F603026D
:1074A0000220E523CDF8008003F0C2F899F800002F
:1074B00045F2565101304143090C227B01EB410159
:1074C000401A89F800004AB901F0A3FE42F2107197
:1074D000C4E90101012020730020E081E720208021
:1074E00001F097FED4E90112401A904201D2002027
:1074F00092E601F08EFE88E6736F636B66643A2055
:1075000025782025640D0A00B4050308C405030886
:10751000D40503086E747020726563762074696DFB
:10752000656F75742E2E200D0A0000006E74702099
:1075300073656E64206661696C2E2E2E0D0A000044
:10754000736F636B6574206661696C2E2E2E0D0A55
:1075500000000000B0B5044641F26C102518284622
:107560008021F8F7D4FE41F2F010231803A2284638
:10757000802121F079F92846B0BD00BF41542B503D
:10758000494E473D222573220D0A0000B0B582B056
:10759000044641F26C10251828468021F8F7B7FE02
:1075A00041F2F01094F860310444B4F842C005A2EE
:1075B00028468021CDE9004C21F056F9284602B03A
:1075C000B0BD00BF41542B43495053544152543D28
:1075D00025642C22544350222C222573222C25640E
:1075E0000D0A0000B0B582B0044641F26C102518B7
:1075F00028468021F8F78BFE41F2F01094F86031B4
:107600000444B4F842C005A228468021CDE9004CCC
:1076100021F02AF9284602B0B0BD00BF41542B43E7
:10762000495053544152543D25642C225544502214
:107630002C222573222C25640D0A000070B58CB015
:10764000C469B926E07A8DF82F6080B1607AA17A9A
:10765000002201F0F5FD0DF12F012046012201F07D
:10766000B9FE607AA17A012201F0EAFD10E0002162
:107670006D46019105F11400CDE902111821F8F7CA
:1076800046FE0120049000962078294601F06FFE06
:107690000A2001F0AFFD00200CB070BD006C022983
:1076A0000CD0012910D0A1B99AB180B5D2E900124D
:1076B00083695A431EF010F8002080BD4AB1016969
:1076C0008069B1FBF0F001E01AB180691060002020
:1076D00070474FF0FF30704770B58CB0C469AB266F
:1076E000E07A8DF82F6080B1607AA17A002201F0F3
:1076F000A7FD0DF12F012046012201F06BFE607AFB
:10770000A17A012201F09CFD10E000216D4601915B
:1077100005F11400CDE902111821F8F7F8FD012058
:10772000049000962078294601F021FE0A2001F0FD
:1077300061FD00200CB070BD10B51C46006C1346F6
:1077400022461EF007F9204610BD10B51C46006CFD
:10775000134622461EF0F8FE204610BD01F0C8BDBB
:1077600001F0C8BD2DE9F0438BB000691D46C46926
:107770000E46174601B92FB9DDF848803DB9B8F17A
:10778000000F04D0022528460BB0BDE8F083E07A54
:10779000E0B1607AA17A002201F052FD2EB127B14A
:1077A000BAB22046314601F015FE45B1B8F1000FDE
:1077B00005D01FFA88F22046294601F0EBFD607AD9
:1077C000A17A012201F03CFD0025DCE73078022F90
:1077D00000904FF00100049010D3042F3CD3B178F7
:1077E0007078F278090241EA0040104401900220CA
:1077F0000890012005904FF0040905E000204FF0AB
:1078000001090190059008900021029106910991CB
:10781000B5B1A7EB0900C000039001200790CDF897
:1078200028802078694601F0A2FDB8F1000FCBD086
:107830002078294601F093FD032101EAE075A2E7D3
:10784000B7EB0900039109D1002507950A9020782C
:10785000694601F08CFD96E7032594E70121079125
:107860000A902078694601F082FD207806EB090134
:1078700001F085FD022101EA907584E770B582B0C0
:107880001C4615460E4601F082FD0190042D28BFCE
:10789000042501A930462A46F8F712FD002025608C
:1078A00002B070BD80B584B0DDF818C007A04FF6F7
:1078B000B9118DE80D00C0F6020107A2032088234C
:1078C000CDF80CC002F0B4FE04B080BD25733A259B
:1078D0003034643A202573005F6253534C50726910
:1078E0006E74000080B582B00023D0F8B405ADF806
:1078F000063092B20DF1060303F0A2FCBDF80610AB
:10790000002904BF49F20071CFF6FF71002848BF7B
:107910000021084602B080BD80B582B00023D0F8B7
:10792000B405ADF8063092B20DF1060304F02AF862
:10793000BDF80610002904BF49F28071CFF6FF712F
:10794000002848BF0021084602B080BD2DE9F04361
:1079500081B0036C022962D00446012969D0002954
:1079600040F0C280002A00F0BF8010889788D68837
:107970005188B842B846B14688BF804638BF0746EE
:10798000B14238BF8946188888BF0E46804580F0CE
:10799000AB805888864280F0A780158920462A212E
:1079A000FEF71DFF390A2046FEF765FF20463946DF
:1079B000FEF761FF4FEA18212046FEF75CFF2046E4
:1079C0004146FEF758FF20462B21FEF708FF4FEAFD
:1079D00019212046FEF74FFF20464946FEF74BFF90
:1079E000310A2046FEF747FF20463146FEF743FFA7
:1079F00020462C21FEF7F3FEA8EB0700A6EB0901B9
:107A00000130013101FB00F6012E10DB2046294632
:107A1000FEF77DFF013E4FF00000F7D166E0002A3F
:107A20004FF0FF3062D0002B60D01068186000204B
:107A30005CE0002A58D010889688D5885188B042DA
:107A4000B146A84688BF814638BF0646A94238BF1E
:107A50008846188888BF0D46814545D2588885429A
:107A600042D2976820462A21FEF7B9FE310A204605
:107A7000FEF701FF20463146FEF7FDFE4FEA1921D1
:107A80002046FEF7F8FE20464946FEF7F4FE204663
:107A90002B21FEF7A4FE4FEA18212046FEF7EBFE4D
:107AA00020464146FEF7E7FE290A2046FEF7E3FEA0
:107AB00020462946FEF7DFFE20462C21FEF78FFEEA
:107AC000A9EB0600A5EB08010130013101FB00F52F
:107AD000012DACDB37F8021B2046FEF718FF013DF5
:107AE0004FF00000F6D101E04FF0FF3001B0BDE8EB
:107AF000F0832DE9F04381B00446022B4FF0FF30B4
:107B000031D390467AB3236C1A885B8892B2B1FB6A
:107B1000F2F61FFA86F9994525D206FB1215204682
:107B20002A21AFB2FEF75BFE390A2046FEF7A3FE1C
:107B3000E9B22046FEF79FFE20462B21FEF74FFEBE
:107B40004FEA19212046FEF796FEF1B22046FEF7D5
:107B500092FE20462C21FEF742FEB8F80010204687
:107B6000FEF7D5FE022001B0BDE8F083B0B582B0CB
:107B7000044641F26C10251828468021F8F7C7FB0F
:107B800041F2F010231893F862C003F1210405A21A
:107B900028468021CDE9004C20F066FE284602B040
:107BA000B0BD00BF41542B43575341503D22257374
:107BB000222C222573222C352C25640D0A0000006E
:107BC00070B540F23004C1F200042568A54208BF38
:107BD00070BD41F61036C1F2000600BF55F81C2CEE
:107BE0005AB115F8140C012807D1A5F12000306016
:107BF00055F8181CA5F1100090472D68A542EDD14D
:107C000070BD0000B0B582B0044641F26C1025187A
:107C100028468021F8F77BFB41F2382094F8603148
:107C2000245A04A228468021009420F01DFE2846F4
:107C300002B0B0BD41542B43495053454E443D25FD
:107C4000642C25640D0A000070B540F23804C1F2BE
:107C500000042568A54208BF70BD002655F8180C21
:107C6000C0B115F8100C012814D101F0D2FA55E971
:107C70000312401A90420DD955E90610884715F8AD
:107C8000040C20B101F0C5FA45F80C0C02E005F82F
:107C9000106C00BF2D68A542E0D170BD2DE9F04FFA
:107CA000AFB040F25408C1F200080F4698F8051032
:107CB000054680A08DE823004FF686111E469346A8
:107CC000C0F602017FA20120F923039702F0B0FC65
:107CD000B5F1FF3F24DD0B2D51D1002F4FD0B7F868
:107CE0004840002C46D0D7F84490B9F1000F41D05D
:107CF00040F2C80AC1F2000A0496DAF8006000BF38
:107D0000564528D0A6F184003946F8F73AFB28B941
:107D1000B7F8420036F8861C88420AD03668EFE78A
:107D200098F80500002100222FB000F0D9B800F02B
:107D3000E1B8A6F194004946224601F02BF9012052
:107D400056E9282306F8980C032000219847D7F815
:107D50004490B7F84840D8E91B631EA907200022C9
:107D6000CDF87890ADF87C40B04798F80500002831
:107D700050D0049EBBF1000F01D03846D84798F888
:107D80000500052815D8DFE800F0031A2B303D4127
:107D9000022D40F08B801EAC20464221F8F7B7FA46
:107DA00040F29A21D8F80000ADF8BA100621224618
:107DB0000DE00A2D08BF062878D1062072E0032DB9
:107DC0006DD0002D72D1424652F8060B042100F00E
:107DD00065FCB0F1FF3F69DC98F80500002162E026
:107DE000072D63D12EB902205CE0082D5ED1002E54
:107DF00057D0D6E90023012000217072984798F8E7
:107E000005004FE0092D51D104204BE0042D4DD148
:107E1000052047E00DF1140A50466221F8F777FA81
:107E2000786C04F056FC0028A3D029A1814604F008
:107E300043FC064628A1484604F03EFC044676B1C1
:107E4000304604F03CFC50B136693046F8F792FAFF
:107E5000202804D8024605A83146F8F731FA7CB14B
:107E6000204604F02CFC58B124692046F8F782FA29
:107E7000402805D802460AF121002146F8F720FAE9
:107E8000484604F0DFFB9DF8140000283FF471AF72
:107E900098F8050005AA012100F02CF869E70120F7
:107EA00000E003200121002200F024F82FB000F0B0
:107EB0001CB800BF5B25645D6576743A2564202597
:107EC000700D0A005F62576966694472764362000A
:107ED000737369640000000070617373776400005D
:107EE00030BCBDE8C04FFFF722BF30BCBDE8C08F3B
:107EF00001F090B880B582B040F2540CC1F2000C91
:107F0000002301288DF807108CF804300CD0A0B99C
:107F1000DCE91BC3002000290CBF00211146002210
:107F200002B0BDE880406047DCE91BC30DF10701EA
:107F300001200022E04702B080BD9CF80500023815
:107F40000428F8D8DFE800F0031B090F1500DCE96E
:107F50001BC30DF107010220EBE7DCE91BC30DF1A8
:107F600007010420E5E7DCE91BC30DF1070105204B
:107F7000DFE7DCE91BC30DF107010620D9E7DCE9E7
:107F80001BC30DF107010320D3E7000040F25401A9
:107F9000C1F200010A79AAB180B582B091F805C09A
:107FA0004FF686110FF2280EC0F602010CA2022035
:107FB0004FF4BE73CDE900EC02F03AFB4FF0FF3016
:107FC00002B080BD024608680F2100F067BB00BF09
:107FD0006275737920636D643A25640D0A000000B0
:107FE0005F62576966695365744472764362417291
:107FF000670000002DE9F0410446B1F904000E4687
:10800000B2F90410154600FB03F25143B1F1FF3FF2
:108010001FFA80F807DD204631462A460DF01EFA89
:10802000E8B1BDE8F081304629460DF09FFA0028FE
:108030000CD40746204631462A460FF047FA00285E
:10804000EFD1002F08BF4FF0010808E02046294675
:1080500032460FF03BFA0028E3D1C8F100080020B7
:10806000A4F80480BDE8F08108F068BC10B50120D8
:108070004FF48C7109F048F8044610B1204608F01E
:1080800076FC204610BD10B5044608F069FC204679
:10809000BDE810400BF084B808F070BC08F0EEBCEE
:1080A0002DE9F04145680446A8681E4690460F46F3
:1080B00030B10120102109F027F8E860054638B1F9
:1080C0000020C5E90076C5F808806560BDE8F0814C
:1080D0006FF06900BDE8F081B0B582B00546006878
:1080E0001C460B1A012B26DB0378934226D1013064
:1080F000286001AA284608F09BFE08BB0199B9B187
:10810000286890F90020002A12D4D2B242B9013076
:108110000139286016D010F8012B002AF8D0013858
:10812000042905D8042910D152B2B2F1FF3F0CDC6A
:108130006FF0630004E06FF05F0001E06FF061003A
:1081400002B0B0BD00202060FAE70022431C22608C
:1081500013F8010C013940EA02222B6003F10103FC
:108160004FF000002260F3D1EAE70000F0B583B0E1
:1081700000284FF0FF3752D00D4600294FD004465B
:1081800028A01646CDE900024FF6F6114FF6EA1286
:10819000C0F60201C0F602020320C523029502F0D8
:1081A00047FA67682FB34FF6F6114FF6EA1220A68A
:1081B000C0F60201C0F602020320C823CDE9006721
:1081C00002F036FA61682846F8F7ACF84FF000077D
:1081D00028B34FF6F6114FF6EA1218A6C0F60201C0
:1081E000C0F602020320CB23009602F021FA67605A
:1081F00015E0304602F0B2FA78B129463246074619
:10820000F8F75EF8A368656945F21912C0F6000236
:1082100038463146A847002701E04FF0FF3738467F
:1082200003B0F0BD3E5B25645D25730D0A000000C0
:10823000726573705B25735D0D0A00006D61746378
:1082400068206F6B2E2E0D0A000000002DE9F04310
:1082500081B04FF0FF3540B30F4631B3164622B31D
:108260004FF6F61198460446DDF8209011A5C0F6A9
:10827000020113A203209B23009502F0D9F9201DCF
:108280004021F8F744F848F2E931002504F11C03D5
:108290000DA0C0F600012246C4E90476C4F8188097
:1082A0002560C4F8089003F083FC284601B0BDE8BF
:1082B000F08300BF617420696E69742E2E0D0A0070
:1082C000624174496E697400617400002DE9F041E7
:1082D00086B017460C464FF6F6114FF61C2298460C
:1082E00005462DA6C0F60201C0F602020320A8230F
:1082F000CDE9006402F09CF92869BDB1B4B1A0B128
:10830000696999B1A96989B157B3B8F1000F27D14B
:108310004FF6F6114FF61C2225A7C0F60201C0F653
:1083200002020220B123009713E00020D5E90517CF
:1083300025A2CDE9002504914FF6F6114FF61C2237
:10834000CDE90240C0F60201C0F602020220AC23D1
:10835000059702F06DF94FF0FF3006B0BDE8F081EF
:10836000286808B9686880B14FF6F6114FF61C22EC
:108370000CA7C0F60201C0F602020220B623009745
:1083800002F056F96FF00100E7E70020C5E9004769
:10839000A5F80C80E1E700BF6174636D643A2025A5
:1083A000730D0A00627573792E2E0D0A000000000D
:1083B0007265737020706172616D206572726F7288
:1083C0002E2E0D0A00000000706172616D20657232
:1083D000726F722E25702C25702C25702C25702C18
:1083E00025702E0D0A0000002DE9F04383B00446ED
:1083F00000880D4678284FF0000838D06E280BD042
:1084000040B100204FF003092080C4E9010020732F
:10841000E08156E06E2020802F684FF00009002F89
:108420004FD0AE693846F7F7A5FFAA6881B2384643
:10843000B0476868C5F80090E0B3AF894FF6F61111
:1084400022A6C0F6020126A203207723CDE9006709
:1084500002F0EEF8207B40B900F0DBFEA989C4E908
:108460000101012020730020E081782020806868CD
:1084700030B100F0CEFED4E90112401A90421ED372
:1084800000F0C7FED4E90112401A904224BF4FF613
:10849000FE70E081D5E9012100202B692073002ABC
:1084A00008BF4FF00108C5E90000A8815FFA88F015
:1084B0009847AFE7A9682A6901209047AAE74FF0DB
:1084C0000009484603B0BDE8F08300BF77616974D6
:1084D00020726573702025646D732E2E0D0A0000C6
:1084E0006241745461736B0070B582B04FF0FF3617
:1084F00078B30C4669B340F24026C1F20006054647
:10850000307858B945F28D2045F22131C0F600008F
:10851000C0F6000105F085FA0120307041F60C31FB
:10852000C1F20001086818B1C168E960C56002E0E5
:1085300000200D60E860286801A9019400F0CCFAE1
:10854000607A002640F0010060722046267205F035
:108550007DFA304602B070BD2DE9F04141F2D87687
:10856000C1F2000632780C460546A2B940F2000777
:10857000C2F2000707F108004BF2A8314BF2A8380D
:10858000F7F7C5FE552038700020F870786001209C
:10859000A7F8018030704FF000065DB154B16C4314
:1085A0002046FEF7FBF920B121460646F7F7AFFE5D
:1085B00000E000263046BDE8F081042884BF4FF07B
:1085C000FF30704710B540F2442100EB4000C1F28B
:1085D000000101EB8000044614F8011F39B1406826
:1085E00000F074F8207810B10020207010BD4FF01A
:1085F000FF3010BD70B584B01646044601280D4604
:1086000007DB35B12846F7F7B5FE813810F1810F49
:1086100011D81CA04FF686118DE83100C0F602017A
:108620001BA202204FF42773039602F001F84FF0CB
:10863000FF3004B070BD668304F11C063046812112
:10864000F7F765FE2846F7F795FE024630462946BD
:10865000F7F736FE2046FFF799FC002809D494F876
:108660009D00618B40B1304604B0BDE8704003F01E
:1086700034BD6FF00100DCE7304604B0BDE8704067
:1086800003F0EDBC25642025702025640D0A000050
:1086900062436F6E6E65637400000000042884BF3F
:1086A0004FF0FF30704780B540F2442300EB4000AC
:1086B000C1F2000303EB8000406800F041F801467E
:1086C0006FF0FD00081A18BF084680BD042884BF5B
:1086D0004FF0FF30704740F2802200EB0011C1F2F2
:1086E000000252F82130DBB180B582B04BF6342164
:1086F000C0F6020151F820C04EF64A5E4EF66351B4
:10870000C0F6020EC0F6020109A2022040F22B13AD
:10871000CDE900EC01F08CFF6FF0FE0002B080BDEF
:1087200002EB8100C16801B108476FF0FD0070479E
:1087300062446576696365436C6F73650000000091
:1087400080B582B0042802D94FF0FF3020E040F21B
:10875000802C00EB001EC1F2000C5CF82E30CBB177
:108760004BF63421C0F6020151F820C04EF64A5EA5
:108770004EF66351C0F6020EC0F602010BA20220B3
:1087800040F24113CDE900EC01F052FF6FF0FE0022
:1087900002B080BD0CEB8E0003691BB102B0BDE8D6
:1087A000804018476FF0FD00F2E700BF6244657635
:1087B00069636543746C00002DE9F04F85B040F2A9
:1087C0008028C1F2000840464FF4AA71F7F79FFDD8
:1087D00043F628444BF6482B4BF6342A43F63049EF
:1087E000C0F60304C0F6020BC0F6020AC0F6030985
:1087F00000204546002700BF1BF807102278914251
:1088000009D15AF827106268461CC5E908102846A5
:108810009047286030460137052F05F14405EBD11C
:1088200008344C45E4D143F6004540F2802843F635
:108830002849C0F60305C1F20008C0F6030900BFCD
:1088400000204446002700BF1BF807102A789142F9
:1088500009D15AF827106A68461CC4E90810204656
:108860009047206030460137052F04F14404EBD1D6
:1088700008354D45E4D14EF6635A4EF69555C0F68F
:10888000020AC0F6020522A722A6032051462A4664
:10889000B923CDE9006701F0CBFE4EF63C5408F158
:1088A000200600274FF0FF380FF28009C0F60204BF
:1088B000306858B156F8201C2A46CDE90201032041
:1088C0005146C2230094019708E000BF8DE8900252
:1088D000032051462A46BE23CDF80C8001F0A8FEA5
:1088E0000137052F06F14406E2D14EF663514EF6EC
:1088F000955211A7C0F60201C0F602020320C4235C
:10890000009701F095FE002005B000F017B800BFF9
:10891000646573000D0A6465765F6E6F0909253121
:1089200036730973746174650D0A00006E6F2064FC
:1089300072697665000000000D0A000030BCBDE8D9
:10894000C08F0000042884BF4FF0FF30704740F212
:10895000802200EB0011C1F2000252F82130D3B1A5
:1089600080B582B04BF63421C0F6020151F820C028
:108970004EF64A5E4EF66351C0F6020EC0F6020194
:1089800009A20220E723CDE900EC01F051FE6FF0CF
:10899000FE0002B080BD02EB8100816801B1084792
:1089A0006FF0FD00704700BF624465766963654FF4
:1089B00070656E0010B582B004284FF0FF3C20D8DF
:1089C000FAB140F2802E00EB001CC1F2000E5EF8FE
:1089D0002C40CCB14BF63421C0F6020151F82040B6
:1089E0004EF64A5C4EF66351C0F6020CC0F6020128
:1089F0000CA20220FE23CDE900C401F019FE6FF0A5
:108A0000FE0C604602B010BD0EEB8C00D0F818C012
:108A1000BCF1000F03D002B0BDE8104060476FF01A
:108A2000FD0CEEE76244657669636552656164003A
:108A3000024604284FF0FF300BD851B102EB021070
:108A400040F28022C1F2000202EB8000006C08605C
:108A50000020704710B582B004284FF0FF3C21D8A9
:108A600002B340F2802E00EB001CC1F2000E5EF853
:108A70002C40D4B14BF63421C0F6020151F820400D
:108A80004EF64A5C4EF66351C0F6020CC0F6020187
:108A90000DA2022040F21513CDE900C401F0C8FD7B
:108AA0006FF0FE0C604602B010BD0EEB8C00D0F8EB
:108AB00014C0BCF1000F03D002B0BDE81040604705
:108AC0006FF0FD0CEEE700BF6244657669636557A1
:108AD0007269746500000000024604284FF0FF3000
:108AE0000BD851B1086802EB021140F28022C1F2AA
:108AF000000202EB8101086400207047F0B581B0EC
:108B0000044648F6FD200025C0F60000C4E90050E8
:108B100004F108001421A5626563F7F7F8FB606AA9
:108B20004BF65831C0F60201014440F2D436E161FF
:108B300045F2A931C1F2000641F20437C0F6000146
:108B400000FB0760216141F204312064F7F7DFFB8D
:108B5000606A41F2D42100FB07602246431848F6C0
:108B6000DD311CA0C0F6000103F022F8606A41F27A
:108B7000542100FB076045F21D12084445F2C9016B
:108B800045F24F23C0F60001C0F60002C0F6000314
:108B90000094FFF75BFB606A41F2982100FB0760DD
:108BA000E26900F5B67301444FF48050C1E9063024
:108BB0003220088445F60520C0F60000C1E909040A
:108BC0008D85CD850D63107800F0A2FC002001B0EA
:108BD000F0BD00BF6573703132660000F0B581B042
:108BE0000D6C0E462978002900F02181044600888A
:108BF000B0F5F97F09DCA8B140F2D91188425DD007
:108C0000B0F5EE7F00F0818033E040F2F31188424E
:108C100000F0B98040F21221884200F0FE80B0F5E9
:108C2000087F26D195F86B01C1072AD1800700F192
:108C30008980D5F86401002800F01E8195F868113C
:108C4000002900F0198195F869218A4280F0148189
:108C5000002185F86A111101415841F2542300297D
:108C600005EB030700EB021000F0B98042680389AE
:108C7000C1E000202080C4E901002073E0810320CE
:108C8000FEE041F254204FF6AA32002728447DA18D
:108C9000C0F602024FF4967385F86A71FFF716FB6F
:108CA000207B40B900F0B5FA41F28831C4E90101F6
:108CB00001202073E78140F2D910208095F86A01E5
:108CC00038B900F0A6FAD4E90112401A9042C0F077
:108CD000AE8000F09EFAD4E901120027401A9042BB
:108CE00024BF6FF00100E08195F86A012773012825
:108CF00024D100F08EFA4FF47A61C4E90101012019
:108D000020734FF4EE70E781208000F082FAD4E9FE
:108D10000112401A9042C0F08A8000F07AFAD4E939
:108D20000112401A904224BF6FF00100E08195F8D3
:108D30006B110020207301F0FE004DE095F86101F9
:108D4000002196E095F8690151A10001095841F20E
:108D500054204FF6AA3200272844C0F602024FF4EE
:108D6000967385F86A71FFF7B1FA207B40B900F07D
:108D700050FA41F28831C4E9010101202073E781F2
:108D800040F2F310208095F86A0130B900F041FA02
:108D9000D4E90112401A904249D300F03AFAD4E9DA
:108DA0000112401A904224BF6FF00100E08195F853
:108DB0006A0100210128217359D195F86901013018
:108DC000C1B2022985F8690156D395F86B110020CC
:108DD00085F8690101F0FD0085F86B014CE0C16880
:108DE00028468847D5F8641195F8692101EB0211EE
:108DF0004A680B8901463846FFF768FA207B48B974
:108E000000F007FA41F28831C4E901010120207322
:108E10000020E08140F21220208095F86A0140B9DC
:108E200000F0F7F9D4E90112401A904201D2002073
:108E300026E000F0EEF9D4E90112401A904224BF76
:108E40006FF00100E08195F86A010021012821738B
:108E50000DD195F8690195F868110130C2B28A42C6
:108E600085F8690108D395F86101012101E095F8C1
:108E700061013246FCF768FC4FF408702080012045
:108E800001B0F0BD41542B5253540D0A00000000B4
:108E9000EFED0208AAFB02082C0100000000000010
:108EA000B0ED0208AAFB02082C010000000000003F
:108EB000B0B543F6E83443F60045C0F60304C0F607
:108EC000030500BF54F8040B8047AC42FAD10020E0
:108ED000B0BD30B10146002008608880C88008819C
:108EE00070474FF0FF307047034600284FF0FF30C7
:108EF00018BF002900D17047002AFCD0002019605B
:108F00009A80D880188170474FF0FF3260B159B114
:108F1000B0F808C0C38802899C453CBF83881A44C6
:108F2000C088101A00220880104670474FF0FF3C9E
:108F300070B369B303685BB310B5B0F808C0B0F89C
:108F400006E00489F4453CBF83881C44C388E31AC7
:108F50001FFA83FC624538BF9446BCF1000F13D062
:108F6000002200BF0468C388E35C8B54C388B0F858
:108F700004E00133B3FBFEF4013204FB1E3392B272
:108F80006245C380EED301E04FF0000CBDE8104015
:108F9000604670474FF0FF3CD0B3C9B30368BBB322
:108FA00010B5B0F808E0C388B0F808C09E4507D2F5
:108FB0008488B0F806E004EB0C03AEEB030C04E08D
:108FC000B0F806E08488AEEB0C0C04EB0C031FFA3F
:108FD00083FC624538BF9446BCF1000F14D00022D8
:108FE00011F802E003680489013203F804E0038900
:108FF000B0F804E00133B3FBFEF492B204FB1E337D
:1090000062450381ECD301E04FF0000CBDE8104055
:1090100060467047002844D041F2D871C1F2000187
:10902000097800293DD040F20001C2F200014BF264
:10903000A8320A44904234D80831884231D310B55E
:1090400010F8081CAA292AD140F2000C5521C2F2BE
:10905000000C00F8081C9CF80020DCF80400552ADD
:109060001AD1E0B10CF101020378552B14D190F81C
:1090700003E0B0F801109378148841EA0E4144EA05
:109080000343194408311180090C9170406800288D
:10909000CCF80400E8D102E000288446DBD1BDE82A
:1090A00010407047B0B582B030B3044680680228E3
:1090B00004D3606810B16FF0010551E0206802210F
:1090C00001F0D6FF0546013009D0E06801AA019001
:1090D00028460221FFF7E2FA2846FFF76EFA41F62A
:1090E0001831C1F20001086848B1D0F88810C4F8FE
:1090F0008810C0F8884006E04FF0FF3530E00020CF
:109100000C60C4F8880041F61430C1F2000004601D
:10911000012000252074A4F85C50B4F90C20B4F9A7
:109120000E301C3444F2AD51C0F600012046FAF76F
:109130007FFF2046FBF725F84FF6FF70FBF731F86D
:109140000020FBF726F844F2E141C0F600010120BF
:10915000FAF722FE49F21C40C0F60200FAF785FE3B
:10916000284602B0B0BD000070B541F2D874C1F21B
:1091700000042078A0B940F20005C2F2000505F114
:1091800008004BF2A8314BF2A836F7F7C0F855208B
:1091900028700020E87068600120A5F80160207048
:1091A00040F20001C2F20001002000BF0A78552AF7
:1091B00005D1CA78B1F8013043EA02421044496847
:1091C0000029F3D170BD4BF2B030704781B040F24E
:1091D0004001C1F20001096848434FF47A714843E5
:1091E000009000BF0098411E00280091FAD101B004
:1091F0007047000081B040F24001C1F200010968EF
:10920000484300900098411E00280091FAD101B017
:10921000704741F6D000C1F200000068704741F687
:10922000D400C1F20000016841F6D000C1F2000094
:109230000068704701F0BBBA01F012BB01F023BB1C
:1092400001F02CBB01F040BB41F6D000C1F20000A0
:10925000016801310160006800B1704741F6D40037
:10926000C1F2000001680131016070470000000098
:10927000F0B583B000F087F940F24007C1F2000773
:109280003C6848F2A060C0F20100604302900020F8
:109290000190009041F6D000C1F2000001680191F8
:1092A00002994A1E00290292FAD1006800900098A3
:1092B0000199401AF7F763FD9FED0B0B02460B4631
:1092C00051EC100BF7F7B6FC054620460E46F7F7B3
:1092D00056FD02460B4628463146F7F736FCF7F7AF
:1092E0008EFD386003B0F0BD000000000000594062
:1092F00001F0F3BA01F0F5BA10B540F2140CC1F266
:10930000000CDCF8004000BF64450ED034F80C3C83
:10931000834208D114F80A3C8B4204D154F808EC7B
:10932000BEF1000F04D12468EEE74FF0FF3010BD0E
:1093300054F8043CF047002010BD68B1416859B1B1
:1093400040F21401C1F200010A6840F80C2F50608D
:1093500041600860002070474FF0FF30704718B937
:1093600011B1002001F0C0BA4FF0FF30704718B9BA
:1093700011B1002001F0F6BA4FF0FF30704718B974
:1093800011B1002001F054BB4FF0FF30704701F0E5
:1093900089BB000070B5064600284FF0FF3010D0A2
:1093A0000D4671B13078144601280BD144B100BF8D
:1093B0003046FF2100F02CF8013C05F8010BF7D1F5
:1093C000002070BD304629462246BDE8704001F0BD
:1093D00073BB000070B5064600284FF0FF300FD079
:1093E0000D4669B13078144601280AD13CB100BF5E
:1093F00015F8011B304600F00BF8013CF8D10020B5
:1094000070BD304629462246BDE8704001F068BB79
:109410002DE9F04F85B078B30C46017801292DD1A4
:10942000B0F8019090F807A0B0F80510B0F80380EC
:1094300090F808B056464FEA1920BAF1000F18BF4D
:10944000012603904FEA18200D0ACFB20290384649
:1094500029463246FFF7F4FEBBF1000FCDF810B0FD
:10946000019611D0BAFA8AF04FEA501B38462946C5
:109470005A46FFF7E5FE08E000243DE0214605B02E
:1094800000F03EB801F058BBB3468BF001064FF038
:10949000000A5FFA88F85FFA89F900BF029904F0C0
:1094A00080024046FFF7CCFE384629463246FFF799
:1094B000C7FE03994846FFF7BFFE002818BF0120EA
:1094C000049940EA4404012908BFBAF1070F0AD001
:1094D000384629465A46FFF7B3FEBAF1070F0AF19C
:1094E000010ADBD35E460198864205D086F0010270
:1094F00038462946FFF7A4FEE0B205B000F005B8F3
:1095000030BCBDE8C04FFFF7BDBF30BCBDE8C08F69
:10951000B0B540F21C05C1F200050C46294600BF5B
:109520000968A94204D011F8342C8242F8D118E01D
:10953000BCB1A169A9B12070A07145F6311044F603
:1095400055122146C0F6000021F8042FC4E9020498
:109550000020A085E08520630846FFF7EEFE18B1E5
:10956000B0BD4FF0FF30B0BD286844F8340F446000
:10957000002065602C60B0BD11B10AB101F0FEBAE7
:109580004FF0FF307047704770B582B0A0B305460A
:109590004FF4B0700E4601F0E1F880B34FF4B071B3
:1095A0000446F6F7B4FE4FF0FF30C4F8D4000520AF
:1095B00045F68921607004F1D8030020C0F600014F
:1095C0002246C4E93256C4E9540002F0F1FAC4F864
:1095D0000001B0B940F26C510BA6C0F6030110A215
:1095E000022040F26E23009601F022F82046FFF799
:1095F00011FD6FF0020404E04FF0FF3401E06FF062
:109600000104204602B070BD7461736B2063726503
:10961000617465206661696C2E2E0D0A00000000E1
:109620006248747470496E69740000002DE9F04F4F
:1096300085B01546044601280F4620DB012F1ED8B1
:10964000EDB1D4F8C800D0B16078052830D104F16C
:1096500002094846C2219B46F6F759FE9FA12846BB
:1096600008220826F6F7BBFEA0B39FA128460722D2
:109670000726F6F7B4FE002861D100202BE040F267
:109680001650C0F6030040F26C5140F2E4528DE8EF
:109690009100C0F60301C0F60302022040F27D23D0
:1096A000039500F0C5FF4FF0FF3005B000F05AB948
:1096B00040F26C5140F2E45284A7C0F60301C0F6B8
:1096C0000302022040F28323009700F0B1FF6FF005
:1096D0000100EAE701202E44207030462F21F6F7E2
:1096E0003FFE824620B92846F6F744FE05EB000A05
:1096F000AAEB0605402D22DC484631462A4604F1F5
:109700004308F6F721FE002009F8050048463A21F3
:10971000F6F726FE18B10130F7F75BF905E021787E
:1097200040F2BB10002908BF5020A4F8C4009AF8EA
:109730000010C9B15046F6F71DFE802818D940F236
:109740006C5140F2E4524FF0FF3780A6C0F603019F
:10975000C0F60302022040F28B23CDE9006700F03F
:1097600067FF6FF00200A0E72F21A8F8001005E0C6
:1097700040465146F6F72AFEB4F8C40040F26C5554
:1097800040F2E45680B25AA1C0F60305C0F60306C3
:109790000091029003202946324640F28E23CDF8F4
:1097A000049000F045FF0FF25C1C0320294632466E
:1097B00040F28F23CDE900C800F03AFF012F1AD004
:1097C000002F48D14046F6F7D5FD05464846F6F746
:1097D000D1FD284400F12E06304600F0BFFFD0B383
:1097E00031460546F6F793FD40F2B942C0F6030252
:1097F000284631464CE0DDF838A04046F6F7BAFD81
:1098000005464846F6F7B6FD06465046F6F7B2FD61
:10981000A9190844BBF1000F00F1360703D05846E0
:10982000F6F7A8FD0744384600F098FF98B139468E
:109830000546F6F76CFD5046F6F79CFDBBF1000FB0
:109840001ED0CDE9009B029031A2284639464346FE
:10985000CDF80CA01FE040F2EB4740F26C5140F213
:10986000E452C0F60307C0F60301C0F6030202206B
:1098700040F29A23009700F0DBFE6FF0030014E73C
:1098800040F23452CDE9010AC0F6030228463946B7
:109890004346CDF800901EF0E7FF2078C4F8D05082
:1098A00038B148460021002501F0AEFDC4F858014A
:1098B00010B100206070F8E6D4F8D000FFF7AAFBE2
:1098C000C4F8D0506FF00400EFE600BF6874747005
:1098D00020627573792E2E2E0D0A00006874747044
:1098E000733A2F2F00000000687474703A2F2F0015
:1098F000686F73743A257320706F72742025640A40
:1099000000000000706174683A2573200A000000AE
:10991000504F5354202F257320485454502F312E2C
:10992000310D0A486F73743A2025730D0A2573436D
:109930006F6E74656E742D4C656E6774683A202581
:10994000640D0A0D0A25730D0A0000007061727320
:10995000652075726C206661696C2E2E2564200D61
:109960000A00000030BCBDE8C08F000070B58AB0AE
:10997000FFF77EFC4EF614544EF636554EF6E34C89
:10998000C0F60204C0F60205C0F6020C0320214610
:109990002A4640F25113CDF800C000F049FE4EF6C1
:1099A0001F4CC0F6020C032021462A464FF4A9732F
:1099B000CDF800C000F03CFE4EF6814CC0F6020C23
:1099C000032021462A4640F25313CDF800C000F090
:1099D0002FFE4EF6504CC0F6020C032021462A46BC
:1099E0004FF4AA73CDF800C000F022FE4EF6EE3C14
:1099F000C0F6020C032021462A4640F25513CDF84A
:109A000000C000F015FE4EF6B24CC0F6020C03206A
:109A100021462A464FF4AB73CDF800C000F008FE93
:109A20004EF6BD3CC0F6020C032021462A4640F209
:109A30005713CDF800C000F0FBFD0FF2700C0320AF
:109A400021462A464FF4AC73CDF800C000F0F0FD7B
:109A500023A00890012108220C23152026A60FF22E
:109A60008C0C4FF0060ECDE90060CDE90233CDE954
:109A70000421032021462A4640F25B13CDF818E06A
:109A8000CDF81CC000F0D4FD4FF0050C24A6032037
:109A900021462A464FF4AE73CDE9006C00F0C8FDB4
:109AA0000AB0BDE87040FEF787BE00BF202020202E
:109AB00020202020202020202020202020202020A6
:109AC00020285F202F202020202020202020202040
:109AD000202020202020202020200D0A000000002F
:109AE00030323A32313A303600000000417567209A
:109AF000203520323032340048573A25642E256410
:109B00002E25642046573A25642E25642E25642090
:109B1000434F4D50494C453A25732D25730D0A008E
:109B2000646576696365206E756D6265723A256459
:109B30000D0A000001464B6A4BF6593203EB430312
:109B4000C0F6020249F6353C1A4446F2B9730020C9
:109B5000C0F6000CC0F60003886248630864C1E9DF
:109B6000000CC1E90200C1E90400C1E906327047F6
:109B70002DE9F04F8BB005460020099085B10F46C6
:109B800071B1144662B11E4653B12878012819D12B
:109B90003846F6F7EFFBFF2828D96FF0020022E0E5
:109BA0004FF64B114FF672126EA7C0F60201C0F6C7
:109BB0000202032040F2D343009700F039FD4FF03A
:109BC000FF3010E04FF64B114FF672125CA7C0F653
:109BD0000201C0F6020203204FF49B63009700F0DD
:109BE00027FD6FF001000BB000F0C4B809AA2846A9
:109BF0003946FCF705FA0028E1D4DDF8249002AAE2
:109C000028464946FCF799FB07986FF3DF50B042AE
:109C100002D96FF00300E6E76868149F4FF6FF7AF9
:109C2000DDF81C800021C0F27F0A0A9101F020FAC1
:109C300000281CD406465FEA082038D4032000EB35
:109C4000186020F00300484400F11801304600F08D
:109C500073FD08EA0A023046214601F04FFA304609
:109C6000FEF7ABFC149F4FF6FF7AC0F27F0A07980D
:109C700000EA0A0207B13A60069D0D20214602F073
:109C8000D1FD854201D10020ADE74FF64B114FF6D3
:109C900072122FA7C0F60201C0F60202032040F2A2
:109CA000F143009700F0C4FC6FF004009BE70AEA60
:109CB000080AAAF111000190032000EB186020F0BF
:109CC0000300484400F118094FF000084FF0000B62
:109CD000286900B9E868019901441038B1FBF0F037
:109CE0008045BCD2DA45BAD33046494600F024FD5F
:109CF00030460AA9042201F001FA286900B9E8688F
:109D0000AAEB0B02A0F110070A98A968BA4238BF63
:109D100017468842A3D3EA68114488429FD200F1D3
:109D20001001304600F008FD04EB0B0130463A46C6
:109D300001F0E4F9BB4408F1010809F10409C7E79F
:109D40006E6F20696E69742E2E2E200D0A000000A1
:109D5000636865636B20637263206572726F722043
:109D60000D0A0000706172616D206572726F722061
:109D70000D0A000030BCBDE8C08F00002DE9F043A3
:109D800091B04FF64B114FF67E12044666A7C0F60F
:109D90000201C0F60202032040F27E43009700F069
:109DA00047FC002C00F0BB80E168002900F0B78080
:109DB00022694FF0FF30914240F2B3801023002619
:109DC000C4E90503A768002AE66114BFB1FBF2F0FD
:109DD00001205EA3CDE902124FF64B114FF67E1221
:109DE00046F6763800930490C0F60201C0F60202EF
:109DF000032040F28E43C6F25F28019700F018FC62
:109E000045F2796745F27869002506AEC1F234273C
:109E1000C1F23429206928B1E168B1FBF0F0854234
:109E200001D322E01DBB204629463246FCF79FFAAB
:109E3000002874D4069840450AD1089840F00800DC
:109E4000B84210D0079848450AD165610BE000BFC1
:109E500020462946FCF7AAF820462946FCF73AFC9A
:109E6000E0690130E0610135D4E7E069D0B36069B1
:109E700001210028217045D4266906B9E668112E13
:109E800045D310270AAD4FF0030900BFA068D4E9FD
:109E90000412384401FB020120462A46FCF74DFA21
:109EA000B0BB0A98404531D10F98014602026FF3CA
:109EB000DF5103D4033121F0030108E0226902B924
:109EC000E26811441139103AB1FBF2F1890009EB53
:109ED000106020F003003844084400F11807B7422E
:109EE000D4D314E06169481C14D02046FCF75EF816
:109EF00061692046FCF7EEFB01204FF0FF31E06185
:109F0000616120702046FCF75DFA0AE03E46A661DA
:109F1000002006E02046FBF7E9FF0028A7D54FF018
:109F2000FF3011B0BDE8F0833D3D3D3D3D3E426117
:109F300062794F53204B562056302E333D3D3D3DE8
:109F40003D3D3D3D3D3D0D0A00000000625F6B76EA
:109F50003A307825782025644220655F73697A65F8
:109F60002025644220736563746F722025640D0A96
:109F7000000000002DE9F04FA3B0044600284FF088
:109F8000FF3000F0CA820F46002900F0C6829346D7
:109F9000002A00F0C2821D46002B00F0BE8220780D
:109FA000012840F0ED80D4F810A03846BAF1000F37
:109FB00008BFD4F80CA0A669F6F7DCF981460020AA
:109FC0004FF0FF38109011AA20463946CDF8448052
:109FD000FCF716F8002857D0CDF8448009F10300AB
:109FE000E91C20F0030021F0030101442069AAEBE1
:109FF000060601F1180A4FF0000988B1A0F110011E
:10A00000A9420DD228441138B0FBF1F93846F6F7D1
:10A01000B1F9033020F0030000EB890000F1180AC9
:10A02000B24514D92046FCF7CDF9002800F175821D
:10A03000206900B9E068A169401A824500F2A08059
:10A0400011AA20463946FBF7DBFFDDF844804FF6C6
:10A05000FF76C0F27F06B9F1000F08F1010118BFC9
:10A06000002978D12069002940F08D80A168D4E9C9
:10A070000523B9F1000F02FB0010CDF824A000EB7E
:10A08000030940F0DC8083E1DDF84480A06880456E
:10A0900040F2B881E1680844804580F0B381002037
:10A0A0000A901AAA20464146FCF747F9002895D4A1
:10A0B0001F986FF3DF50A84290D16068002100F034
:10A0C000D7FF002809903FF589AF1F9808F1180CB9
:10A0D0000102069600F12482032101EB106020F0BA
:10A0E000030000EB0C01099800F026FB4FF0000C78
:10A0F000A5EB0C06CDF820C0202E28BF20260998FD
:10A1000012A9324600F0FAFFDDF820C0B64666B16B
:10A110000BEB0C0012A9724611F8013B10F8016B11
:10A12000B34240F06582013AF6D1F444AC45DFD346
:10A130000998FEF742FA4FF64B110FF2C046C0F6EF
:10A1400002010FF2D442032040F2F133CDE900675F
:10A1500000F06EFAE0E10AAA20464146FCF7EDF86D
:10A160000F9920693140024600B9E2681144113963
:10A17000103AB1FBF2F1E26911440139494502D2CA
:10A180006FF00100C9E178B1A1686269A8EB010133
:10A19000B1FBF0F090420FD1A36920464146002266
:10A1A000FCF752FA616914E0A36920464146002297
:10A1B000FCF74AFA064612E02046414600226FF0BC
:10A1C0007F43FCF741FAA1682269A8EB0101B1FBCA
:10A1D000F2F10646204602220023FCF7A9FA002EDF
:10A1E00000F1108104F11003A0680ECBB9F1000F4B
:10A1F00002FB0100CDF824A000EB030900F0C480AD
:10A200001AAA20464146CDF82090FCF796F81F99EF
:10A2100008020ED520694FF6FF72C0F27F0201EAF4
:10A22000020100B9E068014411391038884240F257
:10A23000EC804FF6FF76DDF82090C0F27F064FF0FD
:10A24000FF3000211A902290219146F67631179026
:10A2500012A8C6F25F2100F1080812913846414663
:10A26000FCF750F80D2059462A4602F0DBFA16900A
:10A270003846F6F77FF8179901F4000141EA0060CB
:10A2800005EA0601014460681791022100F0F0FE22
:10A29000002800F13D814946064600F04DFA12A91A
:10A2A0003046042202F0C4F809F10801304600F0FB
:10A2B00043FA30464146102202F0BAF83846F6F723
:10A2C00059F802463046394602F0B2F83046FEF7F9
:10A2D00074F909F118094FF000080DF1880A00BF60
:10A2E00020461AA952460023FBF790FF229E2046E3
:10A2F000314601220123FCF71BFAD4E9010122694E
:10A3000002FB0611E2692191511EE161022100F078
:10A31000AFFE002800F1FC800746206900B9E06824
:10A320009DF85F101038033121F00301B8FBF0F005
:10A33000494401EB8001384600F0FEF9384621A976
:10A34000042202F075F8219800F11001384600F05F
:10A35000F3F9206900B9E0680BEB0801A5EB0803ED
:10A36000A0F110023846934238BF1A4602F060F856
:10A370003846FEF722F9206900B9E0684044A0F1B0
:10A380001008A845ACD3C3E04FF6FF76C0F27F06B5
:10A3900046F676300F99C6F25F200A9021F400004D
:10A3A0000F900AA800F1080838464146FBF7AAFFBB
:10A3B0000D2059462A4602F035FA0E903846F5F738
:10A3C000D9FF0F9901F4000141EA006005EA060196
:10A3D000014460680F91022100F04AFE002811D468
:10A3E0004946824600F0A8F90AA95046042202F024
:10A3F0001FF82069002866D009F10801504600F0D6
:10A400009BF965E04FF0FF3087E0B1FBF0F008F119
:10A41000180A4FF00009012898BF01200790204634
:10A42000414612AAFBF789FF002822903FF501AFB1
:10A43000206900B9E06817994FF6FF72C0F27F02F9
:10A440001140014411391038B1FBF0F048457FF656
:10A45000F0AE6068022100F00BFEB0F1FF3F7FF725
:10A46000E8AE06469DF85F00033020F003000AEBDB
:10A470000001304600F060F9304622A9042200F0C5
:10A480003DFE3046FEF799F8229E002E3FF5D1AEF4
:10A49000A0682169301AB0FBF1F12046FBF786FD78
:10A4A000A0682169301AB0FBF1F12046FCF712F9DF
:10A4B000E06909F101090130E06107980AF1040A35
:10A4C0004845ACD1B5E610A95046042201F0B0FFD2
:10A4D00050464146102201F0ABFF3846F5F74AFFDF
:10A4E00002465046394601F0A3FF9DF83F00033075
:10A4F00020F00300484400F11801504600F01CF918
:10A50000504659462A4601F093FF5046FEF755F84B
:10A51000A06909990844A061002023B000F084B824
:10A520004FF6FF72C0F27F0200234FF0030E0021AE
:10A530000891CDF80CC0216901B9E16802400A44D4
:10A54000113A1039B2FBF1F18B42BFF4F1AD0EEBD1
:10A550001060099E20F003000CEB8301014430469B
:10A56000049300F0E9F830460AA9042200F0C6FD81
:10A57000206900B9E0680899A0F110060A98691AE4
:10A58000B14238BF0E4600F11001099800F0D4F82E
:10A5900016B33146002205968E1A0792202E28BF48
:10A5A0002026099812A9324600F0A8FDB4465EB1F3
:10A5B000089812A95844624611F8013B10F8016B43
:10A5C000B34215D1013AF7D1079A05990898624428
:10A5D0008A4260440890DFD3049B1F98DDF80CC0CA
:10A5E0004FF6FF720133C0F27F024FF0030EA2E775
:10A5F0000998FDF7E2FF069EF0E400BF2573207383
:10A60000616D6520617320746865206F6C642076CD
:10A61000616C7565200D0A005F624B56416464569B
:10A62000616C75650000000030BCBDE8C08F0000A3
:10A63000032888BF70472DE9F04383B041F2D86802
:10A64000C1F2000804460F4640464FF48071994617
:10A650001646F5F75CFE032C01D100274AE033A033
:10A6600033A1095D055D88F800103A20690788F874
:10A67000010001D4022716E03846F5F77BFEC4B28C
:10A6800057FA80F00A2C88BFA0F10A0728BF0A24D5
:10A6900008F1020039462246F5F712FE04EB0800E5
:10A6A000E71C20218170A8070FD53046F5F762FE20
:10A6B000044608EB0700E2B23146F5F701FE57FA0F
:10A6C00084F0471C202108F80010E80712D019A1D7
:10A6D00001A84A461EF0E2F8002822D4044608EBFE
:10A6E000070001A92246F5F7EBFDE019471C2021E0
:10A6F00008F800100A9A0BAB08EB0700C7F1FF013E
:10A7000000931EF0DFF800280BD441F2D864C1F2A8
:10A7100000042046F5F72EFE82B200202146FEF707
:10A720002BFF03B0BDE8F043704700BF00030700F4
:10A73000495745002564000004280CD840F2442203
:10A7400000EB4000C1F2000202EB8000427812B13F
:10A750008160002070474FF0FF307047F0B581B046
:10A7600041F2D875C1F2000529780446A1B940F23A
:10A770000006C2F2000606F108004BF2A8314BF2C7
:10A78000A837F5F7C4FD552030700020F0707060D8
:10A790000120A6F8017028702CB1204601B0BDE858
:10A7A000F040FCF7FBB8002001B0F0BD70470B286B
:10A7B00018BF112900D1704770B5012410294FF03E
:10A7C000030C4FEA802008BF4FF0553408BF4FF00C
:10A7D000FF3C4FF0000E012A14BFF446A64600F1DC
:10A7E000904063B1012B03D14FF0000E234606E0E9
:10A7F0000223102908BF4FF0AA334FF0000E102992
:10A8000007D10021C0F800E04160C0F808C0C36073
:10A8100023E04A00032405689440A54305600668C8
:10A820000EFA02F52E4306600126456806FA01F18C
:10A8300025EA0101416041680CFA02F64160816835
:10A8400003FA02F2A1438160816831438160C168EB
:10A85000A143C160C1681143C160BDE87040704749
:10A8600002460B284FF000000CD001F0FE03102B25
:10A8700008BF704790021022C4F600021058C8406A
:10A8800000F0010070470B2801D1002004E01021E6
:10A890008002C4F60001085880B270470B2812D01D
:10A8A00001F0FE03102B08BF70470123002A40F27D
:10A8B00018024FEA802008BF4FF4803303FA01F1F9
:10A8C000C4F60002115070470B2808BF70471422CD
:10A8D0008002C4F6000211507047EFF3108072B688
:10A8E000704762B67047000010B14FF0FF307047FC
:10A8F00080B541F20800CAF20000D0F810C08268AA
:10A90000C36812F1010E4FF0010262F39B63C36052
:10A91000C0F810C012D34FF6FF720021C0F20F0230
:10A9200003689B0703D4914201F10101F8D3416808
:10A9300021F002014160002080BD00BF4FF4801370
:10A94000026812F0060F03D1013BF9D107E000BF06
:10A95000027EBEF1010E01F8012BEFD1DBE76FF0B3
:10A96000020080BD10B14FF0FF307047B0B541F22A
:10A9700008004FF48012CAF2000000BF03689B0673
:10A9800004D5013AFAD16FF00100B0BDD1F81CC076
:10A99000BCF1000F02D08A6A013A8260C2680023CB
:10A9A000CFF2800302EA030E8A690CF003034EEA39
:10A9B00003635AB14D6A4FF4403404EA0545D1F8B7
:10A9C00008E062F38F352B43C0F814E0D1F814E0AF
:10A9D000BEF1000F07D00A6A4FF4405404EA023275
:10A9E0006EF38B2213430A691AB10C7862F30924BF
:10A9F0002343CA68BEF1000F02F01F0243EA8242FD
:10AA0000C2601CBF49680161BCF1000F0ED14FF458
:10AA1000801100BF0268920704D40139FAD16FF0A7
:10AA20000200B0BD416821F0020141600020B0BDCC
:10AA300010B14FF0FF30704780B541F20800CAF204
:10AA40000000D0F810C08268C36812F1010E23F034
:10AA50004063C360C0F810C012D34FF6FF720021EC
:10AA6000C0F20F0203689B0703D4914201F1010178
:10AA7000F8D3416821F002014160002080BD00BF91
:10AA80004FF480130268520702D4013BFAD106E06A
:10AA900011F8012BBEF1010E0276F1D1DDE76FF066
:10AAA000020080BD80B5FEF7B4FBF5F701FCBDE800
:10AAB0008040F5F7F3BB000070B5064600284FF064
:10AAC000FF300CD00D4651B114463AB13046FF214B
:10AAD00000F032F8013C05F8010BF7D1002070BD01
:10AAE000034600284FF0FF3018BF002900D17047FF
:10AAF000587802281ED84BF6E013C0F6020353F82C
:10AB00002000436843F48053436003685B0603D42A
:10AB1000036843F04003036062B14FF0000C00BFD4
:10AB200083689B07FCD511F80C300CF1010C94459F
:10AB30000373F5D10020704710B14078022801D985
:10AB4000002070474BF6E012C0F6020252F82000D7
:10AB5000027B426842F4805242600268520603D48B
:10AB6000026842F04002026082689207FCD50173DD
:10AB70008168C907FCD0007B704700004FF0000CD3
:10AB8000032888BF4FF0010CB0F1080318BF012360
:10AB90001CEA030F4FF0FF3331D181B3082804D1F1
:10ABA00048F20000C4F2000005E04BF6F033C0F6B6
:10ABB000020353F8200010B5AAB140F2010C4FF087
:10ABC000000EC0F20B0C6346C469640604D4013B5A
:10ABD000022BF9D20FE000BF11F80E300EF1010E7A
:10ABE00096458362EFD14FF4302100BFC3695B0605
:10ABF00007D40139FAD86FF00103BDE810401846B8
:10AC0000704713460029D8BF6FF00103F5E7000035
:10AC1000F0B583B0022810D001283BD0002848D1DD
:10AC20004EF67D314EF6903236A6C0F60201C0F6E1
:10AC30000202002040F2B11338E088894EF67D37D9
:10AC40004EF690360C468D681FA1C0F60207C0F67E
:10AC50000206CDE9001003203946324640F2B71310
:10AC60000295FFF7E5FCD4E904501BA1CDE90010E3
:10AC70000320394632464FF4DC730295FFF7D8FCC7
:10AC800020690078302816D0312812D101200F21F8
:10AC9000012213E04EF67D314EF6903212A6C0F638
:10ACA0000201C0F6020200204FF4DA730096FFF7AB
:10ACB000BFFC03B0F0BD01200F21002203B0BDE8AE
:10ACC000F040FEF7BDBA00BF746F7069633A252E7D
:10ACD0002A730D0A000000007061796C6F61643A9C
:10ACE000252E2A730D0A0000624D71747445766535
:10ACF0006E745F446973636F6E6E65637465640D33
:10AD00000A000000624D7174744576656E745F438D
:10AD10006F6E6E65637465640D0A00002DE9F04F77
:10AD200087B0064600284FF0FF3000F0588141F60A
:10AD30002448C1F200080D46D8F80010002940F060
:10AD40004E8101203C214FF001093C27FDF704FC16
:10AD5000002800F042810446A0F838908783A1A023
:10AD6000C4E9086500F00DFF40F2D165C0F60305A7
:10AD70006060284600F005FF2061284600F001FFD2
:10AD80006061284600F0FDFE6568A061002D00F0BE
:10AD900008816169002900F00481002800F0018128
:10ADA0002069002800F0FD8094A12846072207268C
:10ADB000F5F715FB814650B192A1284608220826D6
:10ADC000F5F70DFB002840F0EC80012700E000279C
:10ADD000354428463A21F5F7C3FA834628462F2101
:10ADE000F5F7BEFABBF1000F8246039702D0ABEB3A
:10ADF000050609E0BAF1000F02D0AAEB050603E050
:10AE00002846F5F7B7FA06462846F5F7B3FA86421C
:10AE100000F2C780701CFFF7A1FC002800F0C18081
:10AE2000294632460746F5F78FFA0020BBF1000F9E
:10AE3000B8550AD00BF10105BAF1000FADF81800B2
:10AE400005900AD0AAEB05020BE042F2B320B9F15B
:10AE5000000F08BF40F25B7016E02846F5F78AFA4B
:10AE60000246062A80F0838005A82946F5F76CFA89
:10AE7000F5F7AFFD42F2B321B9F1000F08BF40F280
:10AE80005B71421C08BF0846E081039846F6B12179
:10AE900041F2DC7320735EA0C0F60001C1F2000332
:10AEA0002246A76000F084FE0028A06279D047F215
:10AEB0003F1041F60403C0F60000C1F20003012177
:10AEC000224600F0C1FEE062002004900C20FFF753
:10AED00045FC002865D005464FA040F2756140F260
:10AEE000AE622860262754A6C0F60301C0F603020E
:10AEF00003204FF4EB73CDE90067FFF799FB2620A1
:10AF0000FFF72CFCA8B38146208F0121013086B2C7
:10AF1000864204A818BF0126268700910290484661
:10AF20002621002233460195F8F78CF907460028C0
:10AF300021DD2846FEF76EF81820FFF70FFC68B3F6
:10AF4000014601228A8040F22802C1F20002136801
:10AF5000C1E902970F46002047F8103F08704E8065
:10AF60005F604A6117602070C8F8004037E03846DB
:10AF700015E0284613E040F2756140F2AE6233A658
:10AF8000C0F60301C0F60302012040F2E113CDE94F
:10AF90000067FFF74DFB2846FEF73CF84846FEF7F2
:10AFA00039F8A06A08B100F037FEE06A08B100F095
:10AFB00073FEA06808B1FEF72DF8206908B1FEF70E
:10AFC00029F8A06908B1FEF725F8606908B1FEF715
:10AFD00021F8606808B1FEF71DF84FF0FF3007B0A8
:10AFE00000F042B86D7174743A2F2F626162796F0C
:10AFF000732E636E3A313838330000006D7174740B
:10B000003A2F2F006D717474733A2F2F00000000D7
:10B010006D717474000000006F6775674F307A714E
:10B020005F5169374F334878516E3947345832721F
:10B0300068485A5500000000737562206D616C6CA1
:10B040006F63206C656E3A25640D0A007365726942
:10B05000616C697A6520737562206572722E2E2587
:10B06000642E0D0A0000000030BCBDE8C08F000057
:10B07000B0B502293ED840F22423C1F200031A7869
:10B08000002A40F24422C1F2000207D10125002427
:10B0900054550C353D2DFBD101251D70002300BFFB
:10B0A000D5186C78012C02D16D68854222D00C3302
:10B0B0003C2BF5D1151D002415F8032C2AB10134C1
:10B0C000052C05F10C05F7D114E005F8041C01214D
:10B0D00005F8031C0021C5E90001FDF733FCB0F1C0
:10B0E000FF3F09DCFE3007D015F8030C10B100203B
:10B0F00005F8030C4FF0FF342046B0BD13460A4656
:10B10000014604284FF0FF3027D832B310B501EBC9
:10B11000410040F24421C1F2000111F8204044F006
:10B120000204022C15D101EB8004607888B154F838
:10B13000081F54F8040CFDF73DFC6FF0FD01411AA7
:10B1400018BF0146002906D420680844206008463C
:10B1500001E04FF0FF30BDE8104070472DE9F041AD
:10B1600000280C4644D00546002C62D041F2D87627
:10B17000C1F20006307840F20007C2F2000780B941
:10B1800007F108004BF2A8314BF2A838F5F7BFF8E9
:10B19000552038700020F87078600120A7F80180F1
:10B1A00030702046FBF7FAFB002845D006464BF2EC
:10B1B000A830384485424FF000000DD807F108014F
:10B1C0008D4209D3294611F8082DAA2A02BFC87852
:10B1D000B1F8011041EA0040A04238BF04463046B1
:10B1E00029462246F5F76CF82846FDF713FF24E0C0
:10B1F00041F2D875C1F200052878A0B940F20006E6
:10B20000C2F2000606F108004BF2A8314BF2A83753
:10B21000F5F77DF8552030700020F0707060012047
:10B22000A6F8017028703CB12046BDE8F041FBF75C
:10B23000B5BB2846FDF7EEFE00263046BDE8F0819E
:10B2400070B582B004460020ADF80600002C4FF027
:10B25000FF301AD4C9B1C2B104F10C0630461D4604
:10B26000FDF764FE00280ED405B128800DF106011B
:10B270003046FDF749FEBDF8060000284FF00000FB
:10B2800008BF207201E06FF0010002B070BD2DE92F
:10B29000F041D0E908124BF65F35002602EB42037D
:10B2A000C0F6020504468662466305EB830347F257
:10B2B000D96547F23D60C0F60005C0F6000047F2D0
:10B2C0003978C0F60008C4E9025041F65C00C4E9D0
:10B2D0000683C1F20000742302FB03054BF28F2C9E
:10B2E00047F29D6E47F24B775343C0F6000CC0F611
:10B2F000000EC0F600072564C1502046C4E9006C6A
:10B30000C4E904E76A602C63FCF7E6F947F265706C
:10B31000C0F6000047F25D7147F2617205F1240347
:10B32000C0F60001C0F6000207C34FF0FF30C5E9C8
:10B330000E60284619F0F8FE05460028204618BF82
:10B340004FF0FF35FCF77AF92846BDE8F08110B5DB
:10B35000044600284FF0FF3008BF10BDC4F8B40504
:10B3600004F5846016F032FB04F56E700EF08CFE6E
:10B3700004F539700FF01AFF04F5A07007F06AFEAB
:10B38000204606F0FFF82046FDF744FE002010BDE1
:10B3900010B582B04FF0FF3418B3012921DBD0F88B
:10B3A000B4258A4218BFC0F8B41500F5397010F002
:10B3B000A1F9044620F0800010F5D24F01D10124FC
:10B3C0000FE04FF6B911C4F1000C0FF21C0EC0F6DD
:10B3D000020109A2022040F24113CDE900ECFFF77F
:10B3E00027F9204602B010BD6661696C202D3078C7
:10B3F00025780D0A000000006253534C48616E64CA
:10B400007368616B650000002DE9F04F85B000287E
:10B4100000F0D08005468A4601204FF4B76101272D
:10B42000FDF79AF8002800F0B780044606F0BEF851
:10B4300004F5A076304607F0A7FE47F67D01C0F67A
:10B440000001304600228023009707F0EBFD43F215
:10B4500081010627C0F601015CA320463246009711
:10B4600006F08EF904F53976304613F01BFA04F530
:10B470006E7B58460EF018FE04F58460039016F0BB
:10B480002EFD47F6A501C0F60001584600220EF039
:10B4900046FD012006F020FD584600210022002331
:10B4A0000EF044FD41F2CF51C0F60101584622464C
:10B4B0000EF038FD30462946049614F0D7FE13F0FE
:10B4C000F6F9054643A01DF0B5FE2868D8B105F190
:10B4D00004084FF6B9154FF6E1170FF21019C0F630
:10B4E0000205C0F6020700BF0FF0CAFE06460320A1
:10B4F00029463A46F023CDE90096FFF799F858F827
:10B50000040B0028F0D1049D4FF0FF3047F61912CC
:10B5100047F6E503C4F8B405C0F60002C0F6000320
:10B52000284621460027009714F084FEBAF1000F48
:10B530001AD0DAF80010B9B1DAF80420A2B1039EEB
:10B54000304616F0D2FCD0B3474229A64FF6B911C7
:10B550004FF6E112C0F60201C0F60202022040F2EC
:10B560000D13CDE900670CE04FF6B9114FF6E1126B
:10B5700026A7C0F60201C0F60202012040F2131312
:10B580000097FFF755F8002158460EF0C3FC2846F7
:10B59000594614F0C7FE0EE04FF6B9114FF6E1120E
:10B5A00020A7C0F60201C0F602020220DC230097A9
:10B5B000FFF73EF80024204605B000F03BB858469F
:10B5C000314600220EF0A8FC0221DDE762616279BB
:10B5D0006F730000537570706F72746564206369D7
:10B5E000706865727375697465733A0025730A0033
:10B5F00063657274207061727365206572726F7218
:10B600002E2E2D307825780D0A0000006E6F2076E2
:10B61000616C69642063657274202E2E2E2E0D0AD3
:10B62000000000006D656D206572726F722E2E0D28
:10B630000A00000030BCBDE8C08F30B110B51C4618
:10B6400031B92AB14FF0FF3010BD4FF0FF307047D5
:10B6500000F5397014F0A8F849F20072014620F0A4
:10B660008000CFF6FF72801A18BF0846002CEBD07E
:10B67000002848BF10BD208010BD30B110B51C4659
:10B6800031B92AB14FF0FF3010BD4FF0FF30704795
:10B6900000F5397015F0FCF849F20072014620F00F
:10B6A0008000CFF6FF72801A18BF0846002CEBD03E
:10B6B000002848BF10BD208010BDB0B504464BF235
:10B6C000BB600021C0F60000C4E9001004F10800CE
:10B6D000A16261631421F4F71AFE606A4BF66C32C2
:10B6E00000EB8001C0F6020202EB8101E16147F646
:10B6F000F32147F64D12C0F60001C0F60002C4E97E
:10B70000042141F65801C1F2000101EB80022264DC
:10B71000F022C0F2401241F820200220072100222E
:10B72000FDF78EFD6420FDF751FDE1690122087CE3
:10B73000497CFDF785FD6420FDF748FDE569A87C9F
:10B7400038BB2878697800220023FDF773FDA878BC
:10B75000E9780122FDF774FD287969790022FDF767
:10B760006FFD287A697A0022FDF76AFD28796979E8
:10B770000122FDF765FD2878FDF760FD287A697ADA
:10B780000122FDF75DFD2878697801220023FDF78D
:10B7900051FD0C20FDF71AFD20461121FBF71FF883
:10B7A0000C20FDF713FD20463621FBF718F8204644
:10B7B0000021FBF760F820463A21FBF710F82046FD
:10B7C0006521FBF758F82046B221FBF708F8204620
:10B7D0000C21FBF750F820460C21FBF74CF82046D3
:10B7E0000021FBF748F820463321FBF744F82046B8
:10B7F0003321FBF740F82046B721FAF7F0FF204647
:10B800007221FBF738F82046BB21FAF7E8FF204603
:10B810003D21FBF730F82046C021FAF7E0FF204633
:10B820002C21FBF728F82046C221FAF7D8FF204642
:10B830000121FBF720F82046C321FAF7D0FF20466C
:10B840001921FBF718F82046C421FAF7C8FF204653
:10B850002021FBF710F82046C621FAF7C0FF20464A
:10B860000F21FBF708F82046D021FAF7B8FF204651
:10B87000A421FBF700F82046A121FAF7FCFF20469F
:10B88000E021FAF7ACFF2046D021FAF7F4FF20467A
:10B890000421FAF7F0FF20460D21FAF7ECFF2046CD
:10B8A0001121FAF7E8FF20461321FAF7E4FF2046BA
:10B8B0002B21FAF7E0FF20463F21FAF7DCFF204674
:10B8C0005421FAF7D8FF20464C21FAF7D4FF20463E
:10B8D0001821FAF7D0FF20460D21FAF7CCFF2046B9
:10B8E0000B21FAF7C8FF20461F21FAF7C4FF2046B4
:10B8F0002321FAF7C0FF2046E121FAF770FF204626
:10B90000D021FAF7B8FF20460421FAF7B4FF204609
:10B910000C21FAF7B0FF20461121FAF7ACFF2046C0
:10B920001321FAF7A8FF20462C21FAF7A4FF20469E
:10B930003F21FAF7A0FF20464421FAF79CFF20465A
:10B940005121FAF798FF20462F21FAF794FF20465D
:10B950001F21FAF790FF20461F21FAF78CFF20469F
:10B960002021FAF788FF20462321FAF784FF20469A
:10B970002121FAF734FF20462921FAF730FF002071
:10B98000B0BD0000F0B583B0074600284FF0FF308F
:10B9900026D40E4621B3154612B338461C46FCF792
:10B9A000F5FA00281AD4798B07F11C0032462B4691
:10B9B00000F0B4FC002811D44FF68611074609A602
:10B9C000C0F602010AA203204FF43A73CDE90067E2
:10B9D000FEF72EFE04B12580002001E06FF001008B
:10B9E00003B0F0BD73656E64202564200D0A00006D
:10B9F0006253656E64000000B0B582B0B0F1FF3FE5
:10BA00001CDD0446D0E92801416008600020FCF7F5
:10BA1000BDFAB0F1FF3F23DD618B04F11C0000F0A3
:10BA20009BFB254655F80C0FFDF7F4FA2846FDF769
:10BA300050FA2046FDF7EEFA002024E04FF686117A
:10BA40004FF6AF1216A5C0F60201C0F602020220A0
:10BA500040F209330095FEF7EBFD4FF0FF3012E0A6
:10BA60004FF686114FF6AF12844608A5C0F60201C4
:10BA7000C0F6020202204FF44473CDE9005CFEF7E9
:10BA8000D7FD6FF0010002B0B0BD00BF7365742038
:10BA9000617267206572726F722E2E25640D0A0026
:10BAA000736F636B6664203D3D202D310D0A0000ED
:10BAB000B0B541F62405C1F200052968044699B9DC
:10BAC00000204FF0FF314FF4616285E8070047F234
:10BAD000A51141F6300308A0C0F60001C1F2000331
:10BAE000002200F065F82860002C0EBF4FF0FF30F8
:10BAF000AC600020B0BD00BF6E747000002854BF61
:10BB0000007A00207047002854BF407A0020704718
:10BB1000F0B581B001284FF0FF342FD80E4669B33D
:10BB20000746A8201546FEF719FE28B3A8210446AB
:10BB3000F4F7EDFB4FF48050FEF710FEC8B101465C
:10BB400004F10C004FF48052FDF7CEF90020208163
:10BB500040F2C800C1F200000168224642F8A01F6E
:10BB600084F89D70C4E900564A60C4F8A4000260DD
:10BB700004E02046FDF74EFA6FF00104204601B0C4
:10BB8000F0BDB0B588B10446F4F7F4FB411C0120C8
:10BB9000FCF7E2FC48B105462046F4F7EBFB024611
:10BBA00028462146F4F78CFB00E000252846B0BD6E
:10BBB0004FF0000C51B34BB310B540F2300CC1F252
:10BBC000000CE646DEF800E0E64504D0AEF12004C5
:10BBD0009C42F7D117E00EA4002818BF04460120AC
:10BBE000187300201882C3E90500D861DCF8000052
:10BBF000C3E90041194641F8200F9A604160C3F83B
:10BC000024C0CCF800109C46BDE810406046704748
:10BC10004E554C4C0000000098B140F23001C1F28A
:10BC200000010A4612688A420BD0A2F12003834227
:10BC3000F8D1D0E908124A60116000210173C0E90F
:10BC400001117047002070474FF0000C08B303B398
:10BC500010B540F2380CC1F2000CE646DEF800E008
:10BC6000E64504D0AEF118049C42F7D10EE0C3E9DA
:10BC7000000200201872DCF800001975194641F81E
:10BC8000180F4160C3F81CC0CCF800109C46BDE8FA
:10BC9000104060467047000088B140F23801C1F2A0
:10BCA00000010A4612688A4209D0A2F118038342B1
:10BCB000F8D1D0E9060141600860002070474FF0DC
:10BCC000FF30704710B5044600284FF0FF3018BF12
:10BCD000002900D110BD40F23800C1F20000024638
:10BCE000126882420BD0A2F11803A342F8D121615D
:10BCF000FDF78FFAE06001202072002010BD4FF0A8
:10BD0000FF3010BD70B140F23801C1F200010A46A7
:10BD100012688A4206D0A2F118038342F8D10021AA
:10BD2000017201E04FF0FF3108467047000000004B
:10BD30002DE9F0412DED028BB0EE408A1946804688
:10BD40001046F0EE608AF5F727F89FED7F0B054669
:10BD500054EC107B0E4651EC180B3A462346F4F790
:10BD6000F4FE3A462346F4F7F0FE2A463346F4F74B
:10BD70003DFEF5F75DF845F28015C0F201052A4653
:10BD800000230446F4F752FA00FB154148F68902F5
:10BD9000C8F68802A1FB02234BF2C532C9F2A212F7
:10BDA000A1FB022744F62512C2F29242A0FB022612
:10BDB0005A091201A2EB5312FB0A4FF46167A1EB7F
:10BDC000820203FB171188F8072089B248F689021E
:10BDD0005143490D88F80610811B06EB5101890873
:10BDE000A1EBC1010144032288F80530032988BF73
:10BDF000FC22114401314FF6926E88F8041040F293
:10BE0000B27140F63E224FF4C873CFF6FF7E45F67E
:10BE1000294C00BF8DB22C095443240C04FB13148D
:10BE2000260411D001FB0CF6B7B2BF0847EA8636EC
:10BE3000B7B2B7F5247F05F0030609D346B9B0F5CC
:10BE4000B77F08D211E000BFB0F5B77F09D20CE090
:10BE5000B0F5B67F09D9B7F5247F6FF4B67401D376
:10BE600006B9744620440131D4E745F62947A8F8BD
:10BE7000001079438FB2BF0847EA813105F0030310
:10BE800089B2B3FA83F309090027A2B25B09282912
:10BE900088BF0127B2FA82F203EA070149F2383774
:10BEA00052094FF01C0C6FF01B040123C0F602076F
:10BEB000114318BF4FF01D0C18BF6FF01C0400BFDA
:10BEC000A3F10D02D5B2F42D02D2002206E000BF8C
:10BED000DEB2022E06D1604522462BD31044013338
:10BEE000EEE700BF002200BFB95CB14203D00132CF
:10BEF000072AF9D102E0D1B2072901D31E2200E0BE
:10BF00001F22904216D3F42DDFD3022E2246E5D015
:10BF1000002200BFB95CB14203D00132072AF9D137
:10BF200002E0D1B2072902D36FF01D02D6E76FF00D
:10BF30001E02D3E7013088F8023088F80300BDEC18
:10BF4000028BBDE8F08100BF0000000000004E4001
:10BF5000B0B540F23820C1F20000D0E90045FDF74D
:10BF60005EF940F23022C1F20002D2E90023801AC9
:10BF700099414FF47A720023F4F724F900196941CA
:10BF8000B0BD80B540F23822C1F20002C2E9000122
:10BF9000FDF745F940F23022C1F20002C2E900018A
:10BFA00080BD2DE9F0479AB0054600284FF0FF30DC
:10BFB00052D040F2540AC1F2000A0E469AF8041018
:10BFC000002949D1DAF80040002C45D42846F4F77E
:10BFD000D1F9202806D807461EB33046F4F7CAF92F
:10BFE000402802D94FF0FF3036E08046C8B10DF14D
:10BFF0000409C7F1630109EB0700622F88BF002124
:10C00000F4F785F9484629463A46F4F759F90320EA
:10C010008DF8660009F1210031464246F4F750F9E7
:10C0200010E001AEC7F16301F019622F88BF002153
:10C03000F4F76DF9304629463A46F4F741F9002005
:10C040008DF8660001AA20460321FCF727FB002893
:10C0500002D40121AAF804101AB0BDE8F0872DE936
:10C06000F04391B0054600284FF0FF3032D040F247
:10C070005409C1F200090C4699F8041051BBD9F8D3
:10C080000060002E26D42846F4F774F9074641389C
:10C0900010F1400F02D24FF0FF301BE0E846C7F12D
:10C0A000440108EB0700432F88BF0021F4F72FF964
:10C0B000404629463A46F4F703F9304608214246FD
:10C0C000ADF84240FCF7EAFA002803D440F201211F
:10C0D000A9F8041011B0BDE8F0832DE9F04391B048
:10C0E000054600284FF0FF3032D040F25409C1F22B
:10C0F00000090C4699F8041051BBD9F80060002ED5
:10C1000026D42846F4F736F90746413810F1400F97
:10C1100002D24FF0FF301BE0E846C7F1440108EBC4
:10C120000700432F88BF0021F4F7F1F84046294665
:10C130003A46F4F7C5F8304609214246ADF8424088
:10C14000FCF7ACFA002803D440F20131A9F804103E
:10C1500011B0BDE8F08300002DE9F04798B040F23F
:10C160005409C1F2000999F80460D9F80040054665
:10C1700058B156B9002C08D428468A46F4F7FAF884
:10C180000746413810F1410F19D82846F4F7F2F864
:10C1900007461AA04FF68611CDE90006C0F6020147
:10C1A0001CA2022040F23323CDE9024505950497F5
:10C1B000FEF73EFA4FF0FF3018B0BDE8F0870DF102
:10C1C0001C08C7F1440108EB0700432F88BF00217A
:10C1D000F4F79DF8404629463A46F4F771F82046B0
:10C1E0000A214246ADF85EA0FCF758FA0028E3D4D5
:10C1F00040F20141A9F80410DEE700BF6572723A0F
:10C200002025642025642025702025642025730DB9
:10C210000A0000006257696669446973636F6E6E55
:10C2200000000000F0B583B04FF0FF34F9B140F2E8
:10C230005407C1F200070E463968B1F1FF3F16DC22
:10C2400002211546FEF714FF00280ED447F69D4143
:10C25000C0F600010191002401AA00213860C7E95D
:10C260001B650294FCF71AFA01E04FF0FF342046F8
:10C2700003B0F0BD2DE9F041064600284FF0FF3035
:10C280004AD040F25408C1F200080D4698F8041054
:10C29000002941D1D8F80040002C3DD43046F4F7B5
:10C2A00069F8202805D845B12846F4F763F84028F6
:10C2B00005D94FF0FF30BDE8F081002502E00028ED
:10C2C00008BF054608F1060738466321F4F71FF852
:10C2D0003046F4F74FF8024638463146F3F7F0FFA0
:10C2E00065B1032088F868002846F4F743F8024651
:10C2F00008F127002946F3F7E3FF02E0002088F861
:10C300006800204601210022FCF7C8F9002803D468
:10C3100040F20111A8F80410BDE8F0812DE9F047C2
:10C3200094B000284FF0FF3653D040F2540AC1F2C7
:10C33000000A05469AF8040000284AD1DAF80000FD
:10C34000002846D428461C4690468946F4F712F841
:10C35000402802D94FF0FF363BE04FF0FF36C4B320
:10C36000B8F1000F35D0074698B36E46C7F15001BB
:10C37000F0194F2F88BF0021F3F7C9FF3046294637
:10C380003A46F3F79DFF2046ADF84290FEF7E6F9F6
:10C390001190C0B141462246F3F792FF47F6F16192
:10C3A000C0F60001DAF8000013916A460B21ADF8DF
:10C3B0004840FCF773F90646002807D440F20160B4
:10C3C000AAF8040005E06FF0010602E01198FCF7FE
:10C3D00021FE304614B0BDE8F087000010B540F2F1
:10C3E000C014C1F200042078022809D0A0B90BA023
:10C3F0000CA1FFF7D6FDB0F1FF3F0DDD01200AE0F3
:10C4000041F62840C1F2000000F12101FFF732FFA0
:10C41000002801D40320207010BD00BF4261627962
:10C420004F530000313233343536373800000000C6
:10C4300013460A46014604284FF0FF3026D82AB397
:10C4400010B501EB410040F24421C1F2000111F8A6
:10C450002040013C012C15D801EB8004607888B1A4
:10C4600054F8081F54F8040CFCF7F4FA6FF0FD01BF
:10C47000411A18BF0146002906D4206808442060EC
:10C48000084601E04FF0FF30BDE810407047000063
:10C490002DE9F04FADF5477DB2F5C07F02D96FF0C1
:10C4A0003705ACE05FAF0D46804638464FF4D0719B
:10C4B0001646F3F72CFF30BA6390183730208DF80A
:10C4C0009301384629463246F3F7FAFE8020B855E4
:10C4D00000204BA9085401302028FBD101AD28468B
:10C4E00004F045FA4BA928464FF4807204F0C6FACE
:10C4F0000546002868D106F1190A00240DF5BE7B17
:10C5000047AE01AF4FF00009CDF80080D046CDE92D
:10C510004944CDE9474400BFBAF1000F18D00020CC
:10C5200031585BF800205140315004300D28F7D3CA
:10C53000BAF1100A38464FF00101324633460BF18A
:10C54000100B38BFA24604F0F9F90028E4D038E017
:10C550000DF5A67C0CEB090047AD04302ECD2CC0A8
:10C560009DF87F014CF809100130B9F1200F09F155
:10C5700010090DF5BE7BC2468DF87F01C6D353AEC0
:10C5800001A831464FF4807204F078FADDF800809B
:10C590000546C8B92036002401AF3846012132468D
:10C5A000334604F0CBF970B908EB04003146102291
:10C5B000F3F786FE202C04F110044FF00005ECD3B5
:10C5C00002E0DDF80080054601A804F0C9F95FA883
:10C5D0004FF4D0710BF0F0FB53A830210BF0ECFBC3
:10C5E0004BA820210BF0E8FB47A810210BF0E4FB3F
:10C5F00025B1404630210BF0DFFB00E00025284646
:10C600000DF5477D00F000B830BCBDE8C08F0000DC
:10C6100070B1026862B1D0E901C3634509D200BFBD
:10C62000D15C202906D801339C458360F8D104E011
:10C63000002070479C4518BF7047ACF10101816034
:10C640007047000020B370B540F2F0060446C1F216
:10C65000000600BFE16825462468C80504D4A86820
:10C6600010B1FFF7EFFFE968C80504D4286910B1DD
:10C6700071688847E968880503D4286A08B1716839
:10C680008847716828468847002CE3D1BDE8704090
:10C6900070470000024600284FF000000BD0002930
:10C6A00009D402F1080000220068013942F10003B8
:10C6B00008B1002BF8D17047002201F0ADBC002872
:10C6C0000FBF0020007B1038B0FA80F018BF40097F
:10C6D00070470021002200F081B800002DE9F047EA
:10C6E00088B00C46054601A81C211F469046F3F76A
:10C6F0000EFE41F6341941F6381AC1F20009002045
:10C70000C1F2000A002DC9F80000CAF8000042D0AA
:10C71000002C40D040F2F000C1F20000D0E900123D
:10C720008068CDE9015407902820CDE9051288479B
:10C7300020B328210646F3F7EAFD052C07D326A1EE
:10C74000284603220324F3F74AFE00B9039401A804
:10C75000FFF75EFF0146304617F02EFEC0B197B3DB
:10C76000DDE90102039978B191420DD2435C202B9F
:10C7700006D801318A420391F8D103E000200DE090
:10C780008A4201D1511E0391914201D2405CD0B145
:10C790003046FFF757FF8DB1DDE90240611E38BF1B
:10C7A0000021A04238BF0146B8F1000F1CBF681835
:10C7B000C8F80000C9F80050CAF80010002630463A
:10C7C00008B0BDE8F087B8F1000FF8D001980399E0
:10C7D0000844C8F80000F2E7EFBBBF0068B170B5CD
:10C7E000144606460D46F3F7C5FD411C30462A4661
:10C7F0002346BDE87040FFF771BF0020704770B559
:10C800001C4615460E4608F0ACFD30B131462A46AE
:10C810002346BDE8704008F02FBC4BF68070CFF681
:10C82000FF7070BD4FF00003B9B3B2B310B500F0A4
:10C83000FB03093BDBB2022B02D24FF0FF3E0DE0BF
:10C84000A0F1020C5FFA8CF3052B05D84FFA8CFC93
:10C8500013A353F82CE001E04FF0000E0D2819D17E
:10C8600048F2203CCEF6B85C08788EEA000E002034
:10C8700073468CEA5E0EDC0708BF4FEA530E0728AA
:10C8800000F10100F4D3013A01F10101ECD16FEAAA
:10C890000E0300E00023BDE810401846704700BFBB
:10C8A000FFFFFFFF0000000000000000000000008C
:10C8B000FFFFFFFFFFFFFFFF2DE9F04F8DB00DF1F0
:10C8C00004098846044648463021F3F720FD04F168
:10C8D000200A00274FF0000B4E4600BF0C2000BF7F
:10C8E000215809BA4A1C47F1000112BA225018B166
:10C8F0000029A0F10400F3D150460121224633461D
:10C9000004F01CF8E8B91036BBF1200F0BF1100B46
:10C91000E4D3002059F8001058F80020514049F89D
:10C92000001004302D28F5D301A950464FF4807231
:10C9300004F0A4F8054628B909AB0FCB00250FC4B5
:10C9400000E0054601A830210BF036FA28460DB06C
:10C9500000F000B830BCBDE8C08F70B50546006C73
:10C960001E4607300C46B3EBD00F88BFC6080846FA
:10C97000114632460AF0B2FC00B170BD286CB0EB33
:10C98000C60F06D2F100091A20460AF051FD002810
:10C99000F3D134352046294608F032FE002806D46B
:10C9A000204621462A46BDE870400AF01ABE002003
:10C9B00070BD0438B0FA80F04009704770B5DDF8FA
:10C9C00020C0DDE9064EDDE904654068CDE9046577
:10C9D000CDE9064ECDF820C0BDE8704005F0F4BDAD
:10C9E00080B582B09C46DDE9043E4068114662464F
:10C9F000CDF800E005F011FC4BF20041CFF6FF71DD
:10CA000010F5984F08BF01F5985002B080BD10B5E1
:10CA10000120802104F078FB044610B1204606F086
:10CA200048F8204610BD00F0FE0102390438B1FA82
:10CA300081F1B0FA80F04909400908437047406825
:10CA4000496805F060BE0000406802220A7002A238
:10CA50006830C1E90120704765636B65792E51002C
:10CA600010B5044606F00DF82046BDE8104006F06B
:10CA700097BB4068C06B704700F0FE000238B0FA08
:10CA800080F0400970472DE9F04F81B01C4689467F
:10CA900054F8101F4BF280060029CFF6FF764CD0D9
:10CAA00002F110058246DDF828B02846002198469C
:10CAB000174608F090FD002843D02046002108F0DA
:10CAC0008AFD002840D02046012108F084FDA0BB4B
:10CAD000504659462A462B460AF0F8FA064660BBED
:10CAE0000BF10804504621465A462B460AF0EEFA4E
:10CAF000064610BB504659465A4643460AF0E6FAE7
:10CB00000646D0B908F108035046214622460AF0ED
:10CB1000DDFA064688B9504659465A463B460AF061
:10CB20003BFD064648B907F1080850462146224613
:10CB300043460AF031FD064668B1304601B000F0C8
:10CB40009DB84846414601E04846394601B000F0EC
:10CB500098B805F09DBE5846002108F03CFD00281D
:10CB600078D009F1100150462A465B460AF0AEFA29
:10CB700006460028E1D10BF11005504629465A46D9
:10CB80005B460AF0A3FA06460028D6D10BF118013D
:10CB900050462A465B4600910AF098FA064600285D
:10CBA000CBD1504629462A463B460AF08FFA064624
:10CBB0000028C2D15846294608F06EFD06460028D6
:10CBC000BBD1504659460AF019FC06460028B4D19C
:10CBD00050464946224623460AF078FA064600287F
:10CBE000ABD1504649464A465B460AF0D5FC06465C
:10CBF0000028A2D1009B504649464A460AF0CCFC88
:10CC00000646002899D1504629462A464B460AF046
:10CC1000C3FC0646002890D1504629462A462346A2
:10CC20000AF054FA064600287FF487AF0099504670
:10CC30000A4643460AF04AFA064600287FF47DAFCA
:10CC400009F1080150462A465DF8043B00F01EB881
:10CC50000AF0A2BC2046002108F0BDFC28B14846DD
:10CC600001B000F018B806F00DB9504649463A46F2
:10CC70005B4601B000F014B800F018B830BCBDE855
:10CC8000C08F30BCBDE8C04FFFF763BF30BCBDE80C
:10CC9000C04FFFF7DDBF30BCBDE8C04FFFF7E3BFBB
:10CCA00030BCBDE8C04FFFF7E7BF00002DE9F04FF3
:10CCB00081B00646834656F80C0F1C461746884638
:10CCC00003F1080900B3584649463A463B460AF084
:10CCD000FDF9002840F002812046494603220AF06F
:10CCE000A5F9002840F0FA800BF1040520462946FA
:10CCF00008F086FC00282BD4204621462A460AF05C
:10CD0000E5FB0028F2D0E9E007F110025846494659
:10CD100013460AF0DBF9002840F0E08004F1100629
:10CD2000304639464A4608F019FC002840F0D680C3
:10CD30000BF104053046294608F062FC002832D485
:10CD4000304631462A460AF0C1FB0028F2D0C5E041
:10CD50003046002108F03FFC00284DD007F11002BA
:10CD60005846494613460AF0B1F9002840F0B6800B
:10CD700004F11005584629464A464B460AF0A6F9E2
:10CD8000002840F0AB80584649462A4633460AF010
:10CD90009DF9002840F0A2805846214622464B4685
:10CDA00008F0C2FB26E004F1180A504639464A460C
:10CDB0000AF017FC002840F09180B4F91C00B0F193
:10CDC000FF3F0ADC5046002108F005FC28B1504620
:10CDD00051462A4608F0C2FBECE75846494632461F
:10CDE00053460AF073F9002878D1584621464A463E
:10CDF0000AF052F9002871D104F1100507F1080A70
:10CE000058462946524653460AF060F9002865D133
:10CE1000584629460AF0F2FA00285FD1584649469A
:10CE20003A462B460AF052F9002857D1584649464F
:10CE30000AF0E4FA002851D104F1180658463146A8
:10CE40002A462B460AF042F9002847D15846314677
:10CE50000AF0D4FA002841D15846294622462346F2
:10CE60000AF034F9D0BB584629462A464B460AF008
:10CE700093FB98BB584629462A464B460AF08CFB42
:10CE800060BB584649464A462B460AF085FB28BBFC
:10CE9000584649464A4623460AF018F9F0B958461A
:10CEA00049464A4633460AF077FBB8B907F1100302
:10CEB0005846314652460AF009F978B95846314683
:10CEC0000AF09CFA50B94046294608F0E5FB28B91B
:10CED00008F10800494608F0DFFB10B101B000F08E
:10CEE00008B808F11000314601B000F005B808F0AC
:10CEF000D3BB30BCBDE8C08F30BCBDE8C04FFFF72E
:10CF0000F6BF00002DE9F04FBBB0884611461E4623
:10CF10009346044605F0DAFB824628B9204631469E
:10CF200005F056FC824618B150463BB000F0A5BA59
:10CF3000254655F81C0F4BF2800A0028CFF6FF7AE1
:10CF4000F2D0214651F8240F0028EDD006F1080058
:10CF500008F056FB68B1216CC809022818D9CD1C0D
:10CF6000A8080B900420002706904FF00309082022
:10CF70001FE03046294608F043FB216C0523CA090F
:10CF8000022A88BF0623002800F0E180022AE6D8A2
:10CF90000222042988BF0422A2F1010909EB01053C
:10CFA000A9B2B1FBF2F1012000FA09F006920B914F
:10CFB000002718210A9004F0A7F8B0B3CDE9035771
:10CFC0000A9FCDE9078400210025044601EB4100BA
:10CFD00004EBC00005F06DFE0135E9B28F42F5D8D3
:10CFE0002DA81C212746F3F792F900250DF13008F2
:10CFF00008EB050009F055FD0835202DF8D138461D
:10D00000314605F045FC089C064688B1002500BF66
:10D0100008EB050009F01EFC0835202DF8D1002E84
:10D0200000F08B80DDF81C80C4E10AF50076D7E1C2
:10D030000B9E09FB06F0099048B34FF00009B9FBBD
:10D04000F6F1012000FA01F2D0B2430001FB169183
:10D0500053FA82F207EBC20551B9400800EB4000D9
:10D0600007EBC001284605F013FC002840F08E8035
:10D07000204629462A460CABFFF718FE002840F050
:10D080008580099809F101090B9E8145D7D10A983D
:10D090005FFA80F9B9F1020F7AD3002201202DAB9B
:10D0A00000EB4001400007EBC101C0B243F8221081
:10D0B000484502F10102F3D32DA9204600F026FADB
:10D0C00006460028A2D1A7F118000121CDF804904E
:10D0D0000590029101EB410107EBC1000990C800E6
:10D0E0000901A0F1180919F1180210D0059A099B3D
:10D0F000A1F11805114402442046CDF80080FFF745
:10D10000C2FC0646002829464846EAD07EE7029837
:10D110004000C1B201988142DBD3DDF8049007F1F1
:10D120001800A9F1010100252DAA42F825000135BA
:10D13000A94200F11800F8D133E00498DDF81C8012
:10D14000002857D00A98C0B2C4E9167052E0A76D03
:10D1500017B1E06D00283ED00220042988BF0420CA
:10D160000690A0F10109012009EB01020123042925
:10D1700088BF022022FA00F103FA09F00392CDE9F8
:10D180000A01BFBB0A98039D012712E706463DE747
:10D1900020460021002500F073F9064600287FF4A0
:10D1A00035AF2DA920462A4600F0B0F906460028E2
:10D1B0007FF42CAF07F110050026B9F1010F98BFDD
:10D1C0004FF00109284609F045FBB9F1010905F1C5
:10D1D0001805F7D11AE71A46994298BF0222501E45
:10D1E00001440391B1FBF2F106920B91012101FA86
:10D1F00000F00A902DA809F054FC35A809F051FC64
:10D2000004F134063046002109F017FC0128099783
:10D2100040F0CE805846002109F00FFCB0FA80F0B3
:10D220004FEA50192DA8594608F036FA82460028D0
:10D2300061D135A831465A460AF0D3F98246002812
:10D2400059D12DA835A94A460AF07CF88246002813
:10D2500051D10B980DF1300A411C5046A346F3F70B
:10D2600056F8069C0398844203D94FF0000A5C46A6
:10D2700041E0CDF82090C14600250DF1B40800260C
:10D280002F4600BF4046394609F0D7FB0B9A1AF8E3
:10D290000510B04001360843B44217440AF80500AF
:10D2A000F0D101359542EAD19DF83070C846DDF8DD
:10D2B00020900AF1010000234FF0010C4FF0000A0A
:10D2C0000678013A06EA030586EA03062CEA060315
:10D2D00003FB07F16FEA060401EA060381EA06018F
:10D2E00047EAC41700F8011B43EA05035C4600F84F
:10D2F000027C0F46E4D135AF384609F0ABFA2DAECB
:10D30000304609F0A7FABAF1000F51D13846CDF8EE
:10D310002090A14609F0C5FB07F10800079009F02D
:10D32000C0FB07F11000059009F0BBFB0024301989
:10D3300009F0B7FB0834202CF9D10B980CA90D5C2F
:10D340000A98099AC7B2484641463B464C46C146F0
:10D35000009500F035FA8246002849D035A809F03A
:10D3600079FA079809F076FA059809F073FA00251A
:10D37000701909F06FFA0835202DF9D1089ABAF121
:10D38000000FC84614D12046414600F0F0F982460D
:10D3900070B9449838B1DDE944232046414600F095
:10D3A0009AF9824620B92046414600F069F8824643
:10D3B000099F5646A06D874211D00A980025C0B239
:10D3C000012898BF012000EB4000C400781905F047
:10D3D00060FC1835AC42F9D1384605F0E1FE26B1C3
:10D3E000404605F056FCB2469EE54FF0000A9BE52C
:10D3F000449A6AB1459B2046494600F06CF906996B
:10D40000039A82469142A9D8BAF1000F07D0A5E746
:10D4100006980399884202D94FF0000A9EE70B98BC
:10D420000DF1D40BA0F10108204649464A46334687
:10D43000FFF73CFCF8B90CA810F80850099A2046F0
:10D4400059463B46009500F0BBF9A0B92046494635
:10D450004A465B460096FFF716FB8246B8F1010884
:10D460004FF0000040F10000BAF1000F7FF476AFFA
:10D470000028D9D172E7824670E730BCBDE8C08F82
:10D480002DE9F04182B001F110040E460546204618
:10D490000021002708F09FF8A0B36F46384609F036
:10D4A00000FB2A1D3846214609F000FB074630BB29
:10D4B00006F108086B4628464146424609F006FE3A
:10D4C0000746E0B9694628460A460B4609F0FEFDC4
:10D4D0000746A0B96B4628463146324609F0F6FDAC
:10D4E000074660B96B4628464146424609F0EEFDC4
:10D4F000074620B92046012109F0F4FC074668469A
:10D5000009F0A8F9384602B0BDE8F0812DE9F04FE6
:10D5100085B08B46012A804607D8DBF800104046CC
:10D5200005B000F0D0B8FFF7ABBF10460821144695
:10D5300003F0EAFD002800F0AC80074603A809F0DC
:10D54000B0FA2546384600BF013D00F1080609F053
:10D55000A8FA002D3046F7D1DBF8000000F11001E9
:10D56000384608F099F80546002840F09980022CCA
:10D57000A4F1010A029715D3029A0BF10407D146D0
:10D58000386802F1080600F110034046314609F000
:10D590009DFD002840F08280B9F1010907F10407E0
:10D5A0003246EDD1029F08F1040207EBCA000146A2
:10D5B00009F07CFA0546002872D107EBC400A0F1FF
:10D5C000100903AEBAF1000FCDF8049015D0314622
:10D5D00009F10806404632464B4609F077FD00281F
:10D5E0005DD15BF82A00494600F1100340463246FF
:10D5F00009F06CFD03AE30B151E03046394608F019
:10D600004BF800284BD15BF82A00334600F10801A3
:10D6100040460A4609F05AFD002840D140463146AE
:10D620003246334609F052FDC8BB5BF82A1040462B
:10D630000A46334609F04AFD88BB5BF82A003346A8
:10D6400000F1080140460A4609F040FD38BB5BF88E
:10D650002A00B8F80A1009F0F9FE00BB5BF82A00AE
:10D66000B8F80A10083009F0F1FEC0B95BF82A00DA
:10D670000121103009F036FCBAF1000F05460FD039
:10D68000DDF80490AAF1010A002DA9F1080999D04A
:10D6900006E04BF28025CFF6FF7510E0029F0546AD
:10D6A00003A809F0D7F83846013C00F1080609F054
:10D6B000D1F8002C3046F7D1384605F071FD2846E8
:10D6C00005B000F005B830BCBDE8C04FFFF72BBF78
:10D6D00030BCBDE8C08F2DE9F04184B002AD0446F6
:10D6E00028461E461746884609F0DBF9221D2846C3
:10D6F00002213B46009609F0C2FD074648BB08F1EF
:10D70000100102AB20460A4609F0E0FC074600BBC8
:10D7100008F1080602AB20463146324609F0D6FC35
:10D720000746B0B902A920460A460B4609F0CEFCCE
:10D73000074670B902AB20464146424609F0C6FC96
:10D74000074630B902AB20463146324609F0BEFCEE
:10D75000074602A809F07EF817F10E0004BF4BF24D
:10D760000037CFF6FF77384604B0BDE8F0812DE9E9
:10D77000F04182B06C460746204690460D4609F0BF
:10D7800090F908352846002107F025FF0646391D87
:10D7900020462A4609F025FF074648B9002E18BF43
:10D7A000012606EA08026946284609F0CBFD07462D
:10D7B000684609F04FF8384602B0BDE8F081000035
:10D7C0002DE9F04F81B0DDF828A089468046D3B11D
:10D7D0001D461646CAF3450709F1080BB7FA87F04C
:10D7E000440948463146224609F0ACFD90B906F19D
:10D7F00008015846224609F0A5FD58B91836013DE2
:10D80000A7F10107EAD14FEADA1240464946FFF78D
:10D81000AEFF10B101B000F008B809F1100001210D
:10D8200001B000F005B809F05DBB30BCBDE8C08FA9
:10D8300030BCBDE8C04FFFF7F6BF0000F0B581B0C7
:10D84000134616460C46054609F040FC08B101B0E7
:10D85000F0BD2A4652F80C0FA0B12046214607F031
:10D860007DFE0028F3D12F1D2046394607F0C8FE63
:10D87000002821D4204621463A4609F027FE0028F8
:10D88000F2D0E4E720462146032209F06DFE00288D
:10D89000DDD12F1DB4F90400B0F1FF3F0CDC2046B0
:10D8A000002107F098FE38B1204621463A4607F09D
:10D8B00055FE0028EED0CAE72846214622463346C8
:10D8C00009F004FC0028C2D105F1140220462146CB
:10D8D00007F044FE0028BAD104352046294607F057
:10D8E0008FFE002807D4204621462A4609F0EEFD87
:10D8F0000028F2D0ABE70020A9E700002DE9F04FA7
:10D90000A1B08346006988B3012832DB0BF114060D
:10D910004FF000090DF1040AE8460025002400BF7D
:10D920003169D6E90070012908BF0D4651468022B1
:10D930004346CDF80090B847F0B9009B4BB1E1B237
:10D940005846524600F026F8F8B90098B1680844E5
:10D95000B060DBF810000134844206F11406DFDB0E
:10D960000027002D08BF6FF03C0706E06FF03F076F
:10D9700007E06FF03C0700E0074601A880210AF0AD
:10D980001BFA384621B000F002B80746F9E730BC70
:10D99000BDE8C08F2DE9F04391B01D4690460F467B
:10D9A000412B04460DD30B2007F0DBFC0DF10209DF
:10D9B00041462A464B4607F05FFB064628BB4025FA
:10D9C000C846E0688DF842708DF8435070B10DF193
:10D9D00042012046022207F02BFD0646A8B9204648
:10D9E00041462A4607F024FD06460EE00B2007F0CC
:10D9F000B8FC01462046002207F0C6FC064620B9C6
:10DA0000204607F0FAFC064640B10DF10200402125
:10DA10000AF0D2F9304611B0BDE8F0830120E06091
:10DA2000D5E7024600284FF0FF3018BF002900D18B
:10DA3000704741F6EC00C1F20000026041F6F000D0
:10DA4000C1F20000016000207047000070B541F68F
:10DA5000E80141F6D805C1F20001C1F200050A78DB
:10DA60002E6804467AB90120087041F61410C1F2FC
:10DA700000002021F2F74BFC41F6F400C1F2000057
:10DA80002021F2F744FC24B32EB13046A04220D02E
:10DA900000680028FAD1607A00F0010000F1160158
:10DAA00061720021C4E9006141F6E001C1F20001A8
:10DAB0000A782C6041F61415D608C1F2000502F070
:10DAC0000703AC5D98402043A855501C0870C0B2B5
:10DAD00070BD4FF0FF3070BD2DE9F04F89B00DF1F2
:10DAE000040B58462021F2F712FC41F6D809C1F286
:10DAF0000009D9F8005041F6E008C1F20008E5B18C
:10DB000041F6F00AC1F2000ADAF80010A9B198F85B
:10DB1000006000BF013EF0B2C7081BF8074028466E
:10DB2000884706F007012D68884020430BF807005E
:10DB30001DB1DAF800100029ECD141F6141141F6BC
:10DB4000F4050020C1F20001C1F200051BF800201D
:10DB50000B5C5A40D2432A5401302028F6D1D9F820
:10DB600000400026002C00F0D28098F8007041F6AA
:10DB7000EC09C1F200094FF0010A4FF6FF784FF0AF
:10DB8000000B00BF607A202806D3A18801318AB239
:10DB9000424508BFFA21A18041090229A7F10107E6
:10DBA0001AD0012926D0002940F08E80F9B2C90888
:10DBB000695C07F00702D140C90700F0E1003AD0E4
:10DBC000D9F800106660607211B120468847607A0B
:10DBD0006AF35F1077E000BFF9B2C908695C07F02B
:10DBE0000702D140C90728D06AF35F106072A6808F
:10DBF0006AE000BFF9B2C908695C07F00702D140CA
:10DC0000C90729D0E288A1887AB310295CD30321FF
:10DC1000032A28BF0A46D9F8001000F0E10040EAC4
:10DC20004200607211B120468847607A6AF35F1043
:10DC30006072666048E0163045E0A188102943D341
:10DC4000E2880321032A28BF0A4600F0E100D9F840
:10DC5000001040EA42002FE0A188FA2911D300F019
:10DC6000E100D9F80010123026E0FA2911D300F0B3
:10DC70001E01102928D000F0E100D9F80010103062
:10DC800037E0962911D300F0E100D9F800100E30EA
:10DC900012E0962922D300F01E010C2914D000F0C6
:10DCA000E100D9F800100C3023E0322927D300F02E
:10DCB000E100D9F800100A30607211B1204688479F
:10DCC000607A00F01F006072607A24681F2888BFA5
:10DCD0000BF1010B002C7FF455AF1AE000F01E028F
:10DCE000082AF1D03229EFD300F0E100D9F8001072
:10DCF000083000296072E7D020468847E4E7022117
:10DD000061F35F10E1886072481CE080DCE74FF04F
:10DD1000000B5FFA8BF009B000F000B830BCBDE832
:10DD2000C08F10B582B004468DF807000DF10701D1
:10DD300000200122FBF720FC204602B010BD134654
:10DD40000A46022105F01ABB10B501204FF4C0713C
:10DD500003F0DAF9044610B1204605F009FB20462D
:10DD600010BD10B5044605F0F6FA2046BDE8104097
:10DD700005F016BA2DE9F04383B00F468146002026
:10DD80001E469046029009F5AC7102AC484610223E
:10DD90003B46009403F0E5FA28B1044638461021CA
:10DDA0000AF00AF876E099F878010A9918BB042E6F
:10DDB00001D200230DE009EB080000F5B470002249
:10DDC00083588C5863408350131D0832B2421A4660
:10DDD000F6D99E420FD9F01ACA1843444B4403F5B2
:10DDE000B47300BF1C7812F8015B013885EA0405A2
:10DDF00003F8015BF6D10B98042E01D200240CE04D
:10DE000007EB0802002300BFD558CC586540C55029
:10DE10001C1D0833B3422346F6D9A64210D904EBA1
:10DE20000805321B031921442F4400BF17F8015B7A
:10DE300011F8014B013A85EA040503F8015BF5D1BD
:10DE400099F87811012924D1042E01D200220EE084
:10DE500009EB080101F5B471002300BFCA58C75887
:10DE60007A40CA501A1D0833B3421346F6D9964277
:10DE70000FD9B11A104442444A4402F5B47200BFAB
:10DE8000137810F8017B013983EA070302F8013B9C
:10DE9000F6D10024204603B0BDE8F08390F8793134
:10DEA00003B170472DE9F04F87B091F80FE00DF105
:10DEB000080C0EF00F0600EB0616D6E90E54D6E954
:10DEC00010360190370703F00F0847EA13132F07A6
:10DED00047EA1617CDE904374BF62047C0F602078C
:10DEE0002B0937F8185043EA04732D0485EA1414FB
:10DEF000CDE902340EF0F00300EB030E382500BF2D
:10DF00000CEB050757F8386C5EF80540744047F88D
:10DF1000384CA5F138040435092CF1D34FF00E0E1E
:10DF2000009200BFDDE9026BDDE90445084611F807
:10DF30000E8037074BF6204104F00F0A47EA151709
:10DF40002D07C0F6020145EA141431F81A50CDE944
:10DF5000044734092D04019908F00F0944EA0B74B1
:10DF600085EA1B15CDE9024501EB0915382600BFEE
:10DF70000CEB060454F8387CAB597B4044F8383C31
:10DF8000A6F138030436092BF2D302AE78CE05F0A1
:10DF90000F071A0742EA1612360746EA1515CDE9A9
:10DFA00004521A094BF62043C0F6020333F8173027
:10DFB00042EA04721B0483EA1413CDE9022308F039
:10DFC000F0028C18382500BF0CEB050252F8383CE3
:10DFD0006659734042F8383CA5F138020435092AE5
:10DFE000F2D3BEF1000FAEF1010E01469AD102ABA1
:10DFF0000FCB009F09BA00BA7860396018BA11BA1D
:10E00000F960B86007B000F001B8704730BCBDE8F7
:10E01000C04FFFF7FABF00002DE9F04789460146DF
:10E0200000284FF0000018BFB9F1000F01D1BDE882
:10E03000F087D1F808A0A2B1BAF1000FF7D000BF65
:10E04000DAF82050002D3ED048462946F2F799F9DB
:10E05000C8B3DAF800A0BAF1000FF1D10020BDE892
:10E06000F087BAF1000F08BFBDE8F08709F1010899
:10E07000DAF8204004B34C4528D099F800502846DF
:10E08000F2F705F9217806460846F2F700F98642CC
:10E0900010D10134474600BFC5B117F8015B2846CF
:10E0A000F2F7F5F814F8011B06460846F2F7EFF808
:10E0B0008642F1D0864209D0DAF800A00020BAF1F9
:10E0C000000FD5D1B3E7002D08BFAA465046BDE8E2
:10E0D000F0872DE9F04387B007460F980E460021E0
:10E0E00098469146CDE9041107F03BF970B301ADB4
:10E0F0000446284607F043F928462146002207F047
:10E1000043F90446F0B901A807F077F90446C8B905
:10E1100001A804A9082207F08BF9044690B901A8C8
:10E120003946324607F084F9044658B901A84946F1
:10E13000424607F07DF9044620B90E9901A806F081
:10E14000E4FF044601A806F0F5FF03E04BF68074F7
:10E15000CFF6FF74204607B0BDE8F08302680146A1
:10E16000900704BF00207047D0054FF0000020D476
:10E170008B8AB3F5987F1CD0CC2B1AD0643B642BD0
:10E1800017D30420C2F20000104000F16043B3FA3C
:10E1900083F3B0F1005F4FEA53100AD012F004028B
:10E1A00018BF7047D1E9020108400130B0FA80F091
:10E1B000400970472DE9F04F8BB08346C07D47067C
:10E1C00003D000200BB002F0D3B9DBE900650C46A8
:10E1D000B10A002B01F07F0101F07D8500272D2978
:10E1E00008BF1746039732294FF00009A1F1150720
:10E1F000C6F3862008BF91460B2F4FF00007099603
:10E2000081F0968511460193134404911946591ED5
:10E2100006974FF0FF370291002116460A930791A7
:10E220000592089496F80080C1B23B2908D240F2CA
:10E230009811C1F20001096801358D4201F2AD87E4
:10E240004A4657FA80F13F2901F2E6849146DFE819
:10E2500011F0A6049F03B204BF04E904F104F90419
:10E2600001050905180520052F0536054000550054
:10E27000430559056005AB0506061E041E041E0471
:10E280001E04080408040804080408040804080418
:10E290001A062C0634063C0642064A0652065A0660
:10E2A00069067106800689066D0091069D07AA071A
:10E2B0007600430992000102B207BA07D207DF07CE
:10E2C000EC07130200081E085B0885083002B2083C
:10E2D000BA08A8F13000C0B20A28C1F082805FFA03
:10E2E00088F10F200A294A463FF4ABAF4FFA88F174
:10E2F0000D294A463FF4A5AF01F08CB80699DBF82A
:10E300000000002908BF3146069120F0F8505FFA5E
:10E3100088F1CBF8000010200A294A463FF491AF5B
:10E320000D294A463FF48DAF01F0DABB5FFA88F160
:10E3300039200A294A463FF484AF00F0D4BB5FFA83
:10E3400088F109294FF02E0001F0CA83202901F03D
:10E35000C783DBF80010C1F34640A0F11702032A7F
:10E3600000F275820820DFE812F0040079027602DC
:10E370007802042072E2DBF800100A98C1F34643E9
:10E38000864201F03F8040F29810C1F20000D0F8C0
:10E3900000C0AE46B046B2469AF900501E46EFB2F3
:10E3A0000A2F00F012820D2F00F028830998002810
:10E3B00007D4092F05D0202FC1F0B4847F2F01F09E
:10E3C000B184F0B21A284FF0000300F2318147F017
:10E3D0002002DFE810F02C002D012D012D012D0170
:10E3E0002D012D012D012D01230C510056005B0044
:10E3F000230C2D016200690081008A009500AD00A8
:10E40000C500DF00E3001B001B001B00202F00F0F5
:10E41000CA802C2F40F0C0801A2800F0FF801928F5
:10E4200000F0FF80182808BF41F00801FBE00A98BF
:10E43000A0EB0A02624528BF6246002A00F0DF8096
:10E44000099C0AEB020375469AF800000D2800F0BB
:10E45000D4800A2800F0D180002C07D4092805D0E8
:10E460002028C1F096847F2801F09384013A0AF1B4
:10E47000010AE9D19A46C2E0202F40F096800A2393
:10E48000D6E0202F40F091800C23D1E0202F4FF0D8
:10E490000C0300F0CD8001F0F4BC202A23D0632AC5
:10E4A00040F0B4801023C3E001F1807000F0F85018
:10E4B00021F0F8510144B0F1E06FCBF8001000F208
:10E4C000AB80030E0FF67867FB5C9A4240F0A480A5
:10E4D0001023B0F1C06F63E02C2F40F09D8021F03D
:10E4E000F851CBF800100F23A2E06A2A00F37F80D6
:10E4F000202A00F09C80632A40F0A380142397E038
:10E5000001F1807000F0F85021F0F8510144B0F1B1
:10E51000206FCBF800103FD8030E0FF62C67FB5C82
:10E520009A4239D11323B0F1106F08BF18237FE04E
:10E5300001F1807000F0F85021F0F8510144B0F181
:10E54000A06FCBF8001027D8030E0FF60867FB5C0E
:10E550009A4221D11423B0F1806F08BF192367E0DC
:10E5600001F1807000F0F85021F0F8510144B0F151
:10E57000E06FCBF800100FD840F20407030EC0F68E
:10E580000307FB5C9A4207D11523B0F1C06F08BFA7
:10E590001A234DE02C2F46D0162349E01123202FBB
:10E5A00008BF172344E0334642E0A7F13A00C0B267
:10E5B000F52841F23286DBE90220B2F1993349F6BF
:10E5C0009913C1F6991370EB030381F026860A2391
:10E5D000A2FB032300EB800003EB4000A5F1300316
:10E5E000D21840EBE370CBE902200B2320E06B2A2A
:10E5F00025D0752A25D115231AE0AAF1010A0A9817
:10E600000023824508BFAAF1010A11E043F6B810C1
:10E61000C0F60300805C58B1112309E041F02001ED
:10E6200001E041F0100121F0F851CBF80010122365
:10E630000A980AF1010A82457FF4AEAEF4E1132391
:10E64000F6E743F6B810C0F60300805C002818BF58
:10E650001623EDE75FFA88F0202802D0092840F061
:10E66000A880DBF80010312001F47E02B2F5B01F63
:10E670004A467FF4E6ADA8E15FFA88F00A2841F047
:10E68000AC83DBF80010480671D440F20020C2F2DF
:10E69000000001EA0002DDF814A0824240F015817A
:10E6A000480700F10E810998002800F10E8101F061
:10E6B00001BCDBE90220511C40F10003D1F1010152
:10E6C0004FF0000171EB030381F0A4820A9B3446F2
:10E6D0009E1BAC464FEAE67E951B70EBE67538BF95
:10E6E00001217746334600291CBF07461346079988
:10E6F000002908BF2146D51A60EB07072344B21A48
:10E700007EEB0000A3F10106CBE90257C0F087863B
:10E710009BF81700400641F085820020089C654662
:10E720000790402000294A464FF0FF373FF489AD5B
:10E73000A269002007904020002A4A463FF481AD9C
:10E74000DBF8002060F39022CBF80020A369701A58
:10E75000421C584698479BF81710002840F0FF804D
:10E76000DBF800000022C0F3862007921EE09BF831
:10E770001700400641F05882626A4FF00A084020B4
:10E78000002A4A463FF45DAD60F39021CBF80010BB
:10E79000616A584688479BF81710002840F0E780C8
:10E7A000DBF800004FF00A08C0F3862049064A460D
:10E7B00082E0DBF800102C20C1F34642A2F11703DF
:10E7C000032B4A4640F206813BE5AAEB080075465A
:10E7D00000EB0E05654501F2A7859BF81720F0B206
:10E7E00021F47E01089C41EA404150064FF0FF377A
:10E7F000CBF8001041F01C824FF00A0800223420B0
:10E80000B9F1000F56463FF41CAD23695646002B64
:10E810003FF417AD60F39021CBF800102369AAEB09
:10E8200009025846494698479BF81710002840F0BF
:10E83000A780DBF80000089CC0F386204FF00A0890
:10E840000022490656463FF4FCAC01F0A4BD0A285C
:10E8500007D101F04DBB102000E020200143CBF890
:10E8600000109BF81700B9F1000F08BFB146400631
:10E8700041F0D6810022B9F1000F4FF02C003FF497
:10E88000E0AC206900284FF02C003FF4DAAC60F3D4
:10E890009021CBF800102369A6EB0902584649469F
:10E8A00098479BF81710002851D1DBF80000490663
:10E8B000C0F386204FF00002089C3FF4C2AC01F088
:10E8C000DCBA0998400041F1F58201F0A000A028CF
:10E8D00009D1880711D0BBF814109BF817006529DF
:10E8E0000DD000210CE09BF816209BF817000021AA
:10E8F000052A08BF6FF07F0102E09BF81700802116
:10E9000000F07F0008438BF817006169A1B15846F9
:10E910008847089C80B1012808D0022841F01B8359
:10E920009BF8170040F080008BF81700DBF8000020
:10E9300040F48070CBF800009BF817104FF00A08E5
:10E940003A2049064A463FF47CAC01F08EBA01F009
:10E950008000011DCBF804508BF81710A5E701F0DB
:10E960008000811DCBF804508BF81710F8E601F0F9
:10E97000800000F10A01CBF804508BF817100FE764
:10E9800001F08000011DCBF804508BF8171050E700
:10E990005FFA88F14FF603430A294FF00200CDF6E3
:10E9A000FF7301F09D800D2901F09A80DBF80000D3
:10E9B000482900EA0302CBF80020CBE9027700F0F7
:10E9C0003285D91E0140122014E00C2060F357411B
:10E9D00031200FE0DFE803F00205080B41F00401ED
:10E9E00007E041F0080104E041F0100101E041F0CE
:10E9F00020012C20CBF80010FFF722BC9BF8172039
:10EA0000F0B221F47E0141EA40415006CBF80010FB
:10EA100041F00C81B9F1000F40F0918000223420C8
:10EA200033464FF0000904E0DDF828A032204FF013
:10EA3000FF327546089C4746DBB221F47E0141EA6D
:10EA400043410AEB020640F29812CBF80010C1F2E3
:10EA50000002F11B12680D44954241F2418001F021
:10EA60003EBC5FFA88F20A2A28D04FFA88F10D29B5
:10EA700024D020291AD19BF817000499400641F0B0
:10EA8000DD80002940F0E884002004900AE24FFA7B
:10EA900088F1A1F10A02162A08D8012303FA02F22A
:10EAA0000923C0F240031A4241F0F981C0B215F0C7
:10EAB000B5FB012841F0138001F052BC0D2A9BF8F0
:10EAC00017204FF02C004FF4102108BF2B205206C6
:10EAD000CBF8101041F0AE800499002952D10021EA
:10EAE000049100F0FDBF0D2900F0FA87202901F004
:10EAF000808143F6B810C0F603004156002901F0AA
:10EB00007881039BDBF80000002B08BF334620F020
:10EB1000F8527329CBF80020039300F3668563292C
:10EB200000F06186702940F070864FF67F71CEF25A
:10EB300001018031084000F5202000F06CBE089CE7
:10EB40007546206900284FF0340001F0028060F320
:10EB50009021CBF800102369AAEB090258464946D8
:10EB600098479BF81710002840F0F987480641F0B5
:10EB70000C84DBF800100022C1F3862033464FF0EE
:10EB8000000957E76268002AA9D0DBF8002022F4C8
:10EB9000FE3242EA8020CBF8000000F069BC5FFA48
:10EBA00088F10A294FF0010000F09A870D2900F042
:10EBB000978701F010BB5FFA88F0542840F06B840F
:10EBC000DBF80000012161F30100CBF800002EE02A
:10EBD0005FFA88F14FF603420A294FF00400CDF6A0
:10EBE000FF7200F07D870D2900F07A87DBF80000C6
:10EBF000482902EA0002CBF800209BF81720CBE955
:10EC0000027741F02283510641F03E8021680029BD
:10EC100000F0DF870321CDF6FE71084000F5A0501B
:10EC200000F04DBF5FFA88F0542841F0CA810620F9
:10EC300000F056BF5FFA88F0542841F0CC810720DD
:10EC400000F04EBF5FFA88F0502841F0CE810820D6
:10EC500000F046BF5FFA88F02F2841F0D0810920EC
:10EC600000F03EBFA8F13A00C0B2F52841F2A483FB
:10EC70006FF02F0050FA88F0ABF810000A2000F077
:10EC80002FBF5FFA88F02E2841F0A2830B2000F0FE
:10EC900027BFA8F13A00C0B2F52841F2A5836FF072
:10ECA0002F0050FA88F0ABF812000C2000F018BFCB
:10ECB0005FFA88F0202800F0068401F0A1BBA8F1DB
:10ECC0003000C0B20A2880F0F9836FF02F0050FAAC
:10ECD00088F0ABF8140093E35FFA88F00A2800F09C
:10ECE0000C850D2840F016859BF817000699400604
:10ECF00040F0C487002940F0E485002006901120F0
:10ED000000F0EEBE5FFA88F00A2800F0308101F0D2
:10ED100082B95FFA88F14FF603420A294FF01200D8
:10ED2000CDF6FF7200F0DC860D2900F0D986DBF805
:10ED30000000CBE9027700EA0201CBF8001048F0AE
:10ED400020017B39C9B2E52941F22A8300228BF8E0
:10ED500016204FF603424FFA88F1CCF2FF02104022
:10ED6000A1F1410200F18070142ACBF8000001F2F9
:10ED700017831321DFE812F0920615007B06940634
:10ED8000140B140B7D067F06140B140B140B810659
:10ED90008306850687068906140B8B068D068F066B
:10EDA0009106102100F07ABE5FEA086001F041820E
:10EDB0009BF816004DF67871C0F60201DBF800C032
:10EDC00051F820705FFA88F3202BCCF3046207D14E
:10EDD00031462E46BD5C002D35460E4600F0DC84E3
:10EDE000BF5CBB4200F09B862D2B05D0A8F14103F0
:10EDF000DBB2192B01F21D8212024FFA88F342EAAC
:10EE0000004040F24E121843C0F20A02904240F312
:10EE1000C58440F25222C0F20F02904200F377857F
:10EE200040F24032C0F20A02904240F3D08540F2F4
:10EE30004132C0F20A02904200F05A8640F250423B
:10EE4000C0F20C02904200F0558640F24222C0F21D
:10EE50000F02904241F0ED81122000F05EBE5FFA99
:10EE600088F020284FF0140000F03A86049A9BF8AE
:10EE70001610002A08BF324605294FFA88F104927D
:10EE800008BF182013E65FFA88F020280AD04FFA4E
:10EE900088F0492800F04084482841F090812120E2
:10EEA00000F01EBE202000F01BBE5FFA88F0542840
:10EEB00041F0BD80222000F013BE5FFA88F0542894
:10EEC00041F0C180232000F00BBE5FFA88F050288B
:10EED00016D001F0C4B85FFA88F02F2841F0CB803B
:10EEE000272000F0FDBD5FFA88F0432841F0CF8075
:10EEF000262000F0F5BD5FFA88F0452841F0D38068
:10EF0000242000F0EDBDA8F13A00C0B2F52841F28E
:10EF100083826FF02F0050FA88F0ABF810002820A1
:10EF200000F0DEBD5FFA88F02E2841F081822920B2
:10EF300000F0D6BDA8F13A00C0B2F52841F28482B3
:10EF40006FF02F0050FA88F0ABF812002A2000F082
:10EF5000C7BD5FFA88F00D2800F0F4820A2806D0B9
:10EF600001F043B95FFA88F00A2841F079822C2039
:10EF700000F0B6BD40F29810C1F20000D0F800E0F9
:10EF80000A98DDF814A0B046864200F05C824FF685
:10EF90007F7CCEF2010C46463278202A00F096871C
:10EFA00043F6B817C0F603072C46BD56EBB2002B4C
:10EFB00000F0DA83DBF80020C2F346410E2900F2AC
:10EFC0005B86DFE811F019002D003900470055007D
:10EFD0006A0082009D00C0000F000F00590659060C
:10EFE0000F000F0022F47E022546CBF800200A987D
:10EFF00001368642D0D126E20A98801B704528BF90
:10F000007046321801363346964206D219782029C6
:10F0100003D0785C5E1C0028F5D15E1E2546E6E72D
:10F0200002F180700CF1800100F0F85011406F2B5C
:10F0300008BF41F480210AE00CF1800102F18070E8
:10F04000114000F0F8506E2B08BF41F4C02141EA96
:10F050000002C9E702F18070000E60F31C62742D9B
:10F06000CBF8002000F08E806E2DBBD104208AE00A
:10F0700002F1807000F0F85722F0F8503A18B7F11A
:10F08000206FCBF80020ADD8380E0FF60441085C95
:10F090008342A7D1B7F1106F13E002F1807000F046
:10F0A000F85722F0F8503A18B7F1805FCBF80020FB
:10F0B00098D8380E0FF6E431085C834292D1B7F14C
:10F0C000706F254693D1092059E002F1807000F05D
:10F0D000F85722F0F8503A18B7F1606FCBF80020DB
:10F0E0003FF680AF380E0FF6C831085C83427FF4DC
:10F0F00079AFB7F1506F25467FF479AF0A203EE033
:10F1000002F1807000F0F85722F0F8503A18B7F189
:10F11000885FCBF800203FF665AF380E0FF6A031C0
:10F12000085C83427FF45EAFB7F1805F25467FF4D1
:10F130005EAF4FF6FF70CDF60170104040F000500A
:10F1400040F4D01251E702F1807000F0F85722F03D
:10F15000F8503A18B7F1E06FCBF800203FF642AF15
:10F1600040F20401380EC0F60301085C83427FF4CC
:10F1700039AFB7F1C06F25467FF439AF0E2060F389
:10F18000574232E7062060F357422DE75FFA88F1D5
:10F190000C294FF02E0000F39881092900F0A0847B
:10F1A0000A2905D098E15FFA88F00A2840F087879D
:10F1B000302000F095BC5FFA88F00A2841F05C81AD
:10F1C000332000F08DBC012D40F03E859BF80000FF
:10F1D000400740F1458543F6B8215FFA88F0C0F654
:10F1E0000301085CFF2801F0538140B2C117CBE94D
:10F1F00002010125C4E19BF80000400740F122858F
:10F200005FFA88F10D2940F09F81382000F068BC3A
:10F210009BF80000400740F113855FFA88F1372022
:10F220000D2908BF382000F05BBCDBF80010480750
:10F2300040F10C855FFA88F00A2840F05887DBE936
:10F24000020200231043CBF8043000F033823B204D
:10F2500035E25FFA88F00A2840F03D87B046DBF8D7
:10F26000006000217007CBF8041000F18B81DBE90E
:10F2700002234FF0FF35013A63F100036F1E65F181
:10F280000005D21B73EB050238BF01217BE10A9A0E
:10F29000DBE90210B046961B8A1B4FEAE67770EB5B
:10F2A000E6724FF000023B46AE4638BF0122002A0C
:10F2B00018BF03469BF80050324618BF0A466D0738
:10F2C0004FF0000C40F1C4844C1C40F10005D4F117
:10F2D00001047CEB050580F0AF84079D002D08BF7D
:10F2E000454607958D1A60EB0303711A424477EB8C
:10F2F0000000A2F101024FF03C00CBE90253164698
:10F3000038BF3B207546EAE3DBF80030580740F190
:10F31000A584DBE90202104340F0A4845FFA88F080
:10F320000D2840F008879BF81700400640F0A284A3
:10F330000799002940F0FB81002007903D20CFE392
:10F340006368756E6B6564006B6565702D616C69D3
:10F3500076650000636C6F7365000000DBF80010D9
:10F36000480740F179845FFA88F00A2840F0CB869C
:10F370009BF8170000224006CBF8042040F074846C
:10F38000606A00284FF0350000F0F28360F39021AE
:10F39000CBF80010616A584688479BF81710002880
:10F3A00000F0A4810020CBF8040001F0800000F1FF
:10F3B0000A0100F0FEBB0798002818BF0646079612
:10F3C000029E3F208CE3584601F0F1F8002800F03F
:10F3D0001B819BF8000080074FF0040008BF12203B
:10F3E00013E1BBF8140000EB8000400050FA88F0F5
:10F3F000303881B2B1F57A7FABF8140080F0058522
:10F400000E206DE3DDF828A032204FF0FF32574682
:10F41000FFF712BB202900F0638300F0F6BC3E200A
:10F42000079165465BE39BF81710490640F020847E
:10F430002168002900F0C0830321CDF6FE71084049
:10F4400000F540603BE3029EA6EB080005447545CD
:10F4500001F22B802D2042E3606800284FF020004D
:10F460003FF43DABDBF8002060F39022CBF80020A6
:10F470006368721A584698479BF81710002840F0A6
:10F480007983480640F06987DBF800000021C0F36B
:10F490008620049123E3452841F013800221DBF804
:10F4A00000008BF816104FF6FC71CEF2FF010840F9
:10F4B00000F10070CBF80000132011E35FFA88F030
:10F4C000202840F09E860D200AE3202900F00883C2
:10F4D0000D2901D12F2003E3DBF80010B9F1000F53
:10F4E000C1F34642A2F1090208BFB14621F0F8502B
:10F4F000092ACBF8000000F2C48148F02003322032
:10F50000DFE812F00A00A401BF01EE02C601D50136
:10F51000EE02BF01BF01EE02D8B2632800F095826F
:10F52000752800F09B826B284FF67F70CEF20100A9
:10F5300000F1800000EA010014BF00F5301000F572
:10F540001810BAE12B20CBE243F6B820C0F6030036
:10F55000405CFF2800F06381DBE90212B1F1FF3368
:10F560006FF0704372EB030380F0BE87120140B26C
:10F5700042EA117210EB011142EBE070CBE902108C
:10F580003620ADE201219BF91720B2F1FF3F5FFA6F
:10F5900082FA62DDF1056DD5584601F008F80146A2
:10F5A000B0074FF0040008BF1220002908BF012057
:10F5B000BAF1000F40F06A83089CE169002900F06D
:10F5C000FD8226F4FE3141EA8020CBF80000E1699B
:10F5D000584688479BF81710002840F0F1824806EB
:10F5E000464600F0868000F0B8BE742900F0048121
:10F5F000752940F00A814FF67F71CEF2010180310A
:10F60000084000F5801006E101209BF81710059FC7
:10F61000089C4A0640F01E83E269BAB1DBF800108C
:10F6200021F4FE3141EA8020CBF80000E169584620
:10F6300088479BF81710002840F0AC82480640F03D
:10F640007885DBF80000089CC0F3862049B2B1F150
:10F65000FF3F00F3458200F062BD9BF81620052AAB
:10F6600000F09E8506F48072012383EA12220A428A
:10F6700000F09685002856D4B00000F1DA80DBE96E
:10F68000020100EA0102013200F09481084340F0D7
:10F690009B81584600F08BFF0146B0074FF00400F5
:10F6A00008BF1220002908BF01205FEA4A613FF429
:10F6B00083AF36E341F040012C20CBF800109BF8DB
:10F6C0001720520640F0D282226A002A00F05082AF
:10F6D00021F4FE3141EA8020CBF80000216A58462F
:10F6E00088479BF81710002840F05C82480640F0DD
:10F6F0003486DBF800000025EFE19BF8170006993F
:10F70000400640F0BD82002940F0E38000200690D2
:10F71000FFF72DBC1020E3E19BF81600212840F0F4
:10F720004E852520DCE1002535204646D8E1A0693C
:10F7300000284FF03D0000F04E8260F39023CBF89C
:10F740000030A369721A584698479BF81710002892
:10F7500040F04482480640F00086DBF800000021BB
:10F76000C0F386200791BAE1A6EB080025460519EB
:10F77000754500F2B086089C03993A2A40F0AC83A4
:10F780009BF81700400640F0A582002940F0F28067
:10F79000002003902E20A3E11420C1E140F2471283
:10F7A000C0F20502904240F3CF8040F24812C0F20E
:10F7B0000902904240F31B8140F24912C0F2090253
:10F7C000904200F0998140F22D12C0F20A0290425C
:10F7D00000F0948140F24512C0F20A02904240F0DB
:10F7E0002885172099E14FF67F71CEF20101803113
:10F7F000084000F500300EE04FF67F71CEF20101B7
:10F800008031084000F5602005E04FF67F71CEF2B0
:10F81000010180310840CBF800002D2060E1202953
:10F820004FF0370000F05C813B2900F0598100F077
:10F83000A0BDB0074FF000054FF03F007FF475AF5B
:10F84000099900293FF571AF00F052BDA8F13A00C7
:10F85000C0B2F52840F25986880500F159854FFA63
:10F8600088F03038C217CBE902024FF67F70CEF233
:10F870000100A0F5C070084040F4B01040F40070E2
:10F880001BE04FF67F70CEF201008030084014E09C
:10F890004FF67F72CEF20102D8B28032632801EABD
:10F8A00002000CBF40F4001040F4081005E04FF6D1
:10F8B0007F70CEF2010008408030CBF8000032208B
:10F8C0000EE1A06800284FF0110007D10021069139
:10F8D00006E1A06800284FF02C00F7D0DBF80020EC
:10F8E00060F39022CBF80020A368721A584698471C
:10F8F0009BF81710002840F07981480640F02D85CC
:10F90000DBF800000021C0F386200691E7E040F21A
:10F910004122C0F21402904279DD40F24222C0F24C
:10F920001402904200F0EC8040F24512C0F21A023C
:10F93000904200F0E78040F24F12C0F21A0290426B
:10F9400040F077842120E8E040F25412C0F2030234
:10F9500090426BDC40F24112C0F20302904200F090
:10F96000D38040F25212C0F20302904240F0618410
:10F970000C20D2E0E06800284FF02E0000F03F811C
:10F98000DBF8001060F39021CBF800100399E368D6
:10F99000721A584698479BF81710002840F0328199
:10F9A000480640F0DA84DBF800000021C0F386202E
:10F9B000039194E05846FEF7D1FB002800F0B88090
:10F9C00000253F2046468AE000253E20ADE640F275
:10F9D0004F12C0F20A02904200F0988040F2412299
:10F9E000C0F20A02904240F02484152095E040F2D3
:10F9F0004812C0F20502904200F08A8040F2502284
:10FA0000C0F20502904240F01484082085E040F2E4
:10FA10005322C0F20F0290427CD040F24932C0F231
:10FA20000F02904240F00584202076E040F255120B
:10FA3000C0F2030290426FD040F25222C0F20402A0
:10FA4000904240F0F6831D2067E04FF67F70CEF2C3
:10FA500001008030084000F520102EE74FF67F703F
:10FA6000CEF201008030084000F5281025E705217E
:10FA700014E0012112E0022110E009210EE00A2128
:10FA80000CE019210AE0062108E0032106E0142118
:10FA900004E01A2102E0072100E00F218BF8161084
:10FAA0009BF81710490640F0ED80216800293FF4CB
:10FAB00003AD0321CCF2FE11084000F59840CBF8CD
:10FAC00000002168584688479BF81710002859D134
:10FAD000480640F04284DBF80000C0F38620089C12
:10FAE0000A9901368E424FF0FF377EF49BAB27E137
:10FAF0001E2012E00D2010E01F200EE018200CE068
:10FB000011200AE00E2008E01C2006E00B2004E093
:10FB1000162002E01B2000E004208BF816001320C2
:10FB20000CF18072120E62F31C6CCBF800C0D7E7A8
:10FB3000584600F03CFD0146B0074FF0040008BFF6
:10FB40001220002908BF01205FEA4A613FF434AD6A
:10FB5000F5E0002233464FF00009FEF76CBF01F0DC
:10FB60008000011DCBF804508BF81710FEF7FEBF84
:10FB70000025B5E701F08000811CCBF804508BF81C
:10FB800017107EE401F08000411CCBF804508BF884
:10FB900017109DE701F08000C11DCBF804508BF8D1
:10FBA00017104BE50020CBF8040001F0800000F1B5
:10FBB00009018BF8171099E5032091E70025B4E5BA
:10FBC0000020CBF8040001F08000C11D8BF8171055
:10FBD00005E5052084E70021079181E701F0800019
:10FBE000811DCBF804508BF81710B3E501F08000AD
:10FBF00000F10801CBF804508BF817107DE60021C6
:10FC000003916DE701F08000C11CCBF804508BF824
:10FC10001710C5E6FEE700BFFEE700BFFEE700BF26
:10FC2000FEE700BFFEE700BFFEE700BFFEE700BF44
:10FC3000FEE700BFFEE700BFFEE700BFFEE700BF34
:10FC4000FEE700BFFEE700BFFEE700BFFEE700BF24
:10FC5000FEE700BFFEE700BFFEE700BFFEE700BF14
:10FC6000FEE700BFFEE700BFFEE700BFFEE700BF04
:10FC7000FEE700BFFEE700BFFEE700BFFEE700BFF4
:10FC8000FEE700BFFEE700BFFEE700BFFEE700BFE4
:10FC9000636F6E6E656374696F6E000070726F786B
:10FCA000792D636F6E6E656374696F6E000000007E
:10FCB000636F6E74656E742D6C656E67746800009A
:10FCC0007472616E736665722D656E636F64696EC2
:10FCD00067000000FEE7122907D8012216238A4098
:10FCE000C0F204031A427EF46CAA3F2949D1E069AC
:10FCF00000283EF466AA3F2060F39026CBF800600F
:10FD0000E1695846884700283EF45BAA9BF8170033
:10FD1000CBF8045000F0800007308BF81700FEF796
:10FD200050BAFEE79BF817007546CBF804E034E0C4
:10FD300010294FF0000108BF1746FEF764BAFEE72E
:10FD4000069E3146002E18BF0121DDF81C80B8F157
:10FD5000000F18BF0131049F002F18BF0131B9F106
:10FD6000000F18BF0131039B002B18BF013102297E
:10FD700006D29BF817104A0653D000BFFEE700BF1B
:10FD8000FEE700F080000B308BF817000120FEF733
:10FD900019BA9BF81700CBF8045000F0800000F16E
:10FDA00018028BF8172032205646DDF814A05106B1
:10FDB00004D102F0800120318BF81710DBF800101D
:10FDC000C0B221F4FE3141EA8020CBF80000A6EB5E
:10FDD0000A00CBF80450FEF7F5B99BF81700CBF8F2
:10FDE000045000F0800000F11E028BF8172039202B
:10FDF000DBE79BF81700CBF8045000F0800000F11F
:10FE000018028BF817202C20CFE79BF81700CBF8AF
:10FE1000045000F0800000F10F028BF817200E2034
:10FE2000C3E7F3B1E268E2B1DBF8001000F07F0055
:10FE300021F4FE3141EA8020CBF800000A980399B2
:10FE4000E368421A584698479BF81710002840F07C
:10FE50005483480640F07E82DBF80000089CC0F323
:10FE600086204A0650D000BFFEE7DBF80010CBF832
:10FE7000045060F39021CBF800100598301AFEF77B
:10FE8000A1B99BF8170063F3574100F0800000F11F
:10FE900019028BF817207546CBE9001583E79BF80C
:10FEA0001710CBF8045001F0800101F111028BF81A
:10FEB00017207AE79BF81700CBF8045000F0800079
:10FEC00000F11A028BF81720392070E7A6EB080022
:10FED0000544754500F2FF829BF81700CBF80450EB
:10FEE00000F0800000F118028BF817202D205EE74B
:10FEF0009BF81700CBF8045000F0800000F11902C5
:10FF00008BF81720302050E7B9F1000F1FD022697D
:10FF1000EAB1DBF8001000F07F0021F4FE3141EA85
:10FF20008020CBF800000A982369A0EB090258460C
:10FF3000494698479BF81710002840F0EF82480682
:10FF400040F00882DBF80000089CC0F386204A06D7
:10FF500012D000BFFEE79BF817003A2100F08000A6
:10FF600005308BF81700DBF80000CBF8045061F384
:10FF70009020CBF8000080E7F7B16268E2B1DBF8CF
:10FF8000001000F07F0021F4FE3141EA8020CBF820
:10FF900000000A986368C21B5846394698479BF888
:10FFA0001710002840F0C282480640F0D381DBF8E9
:10FFB0000000089CC0F386204A0600F0C88000BFFD
:10FFC000FEE79BF8170000F0800000F11E028BF89E
:10FFD00017200520E9E69BF8170000F0800000F1EB
:10FFE0001E028BF817200620DFE69BF8170000F0B2
:10FFF000800000F11E028BF817200720D5E69BF841
:020000040801F1
:100000001700CBF8045000F0800000F11E028BF8BE
:1000100017200820C9E69BF81700CBF8045000F021
:10002000800000F11E028BF817201120BDE69BF81E
:100030001700CBF8045000F0800000F11E028BF88E
:1000400017202120B1E69BF81700CBF8045000F0F0
:10005000800000F11E028BF817202220A5E69BF8F5
:100060001700CBF8045000F0800000F11E028BF85E
:100070001720232099E69BF81700CBF8045000F0D6
:10008000800000F11E028BF8172024208DE69BF8DB
:100090001700CBF8045000F0800000F11E028BF82E
:1000A0001720252081E69BF81700CBF8045000F0BC
:1000B000800000F11E028BF81720262075E69BF8C1
:1000C0001700CBF8045000F0800000F11E028BF8FE
:1000D00017202F2069E69BF81700CBF8045000F09A
:1000E000800000F11E028BF817203A205DE69BF895
:1000F0001700CBF8045000F0800000F11E028BF8CE
:100100001720382051E69BF81700CBF8045000F078
:10011000800000F11E028BF817203D2045E6DBF839
:100120000010CBF8045021F4FE3141EA8020CBF8D6
:100130000000F01B2CE19BF81700CBF8045000F0F6
:10014000800000F11E028BF817203C202DE6B8F14C
:10015000000F1ED0A269E2B1DBF8001000F07F00B2
:1001600021F4FE3141EA8020CBF800000A98A3690F
:10017000A0EB08025846414698479BF81710002804
:1001800040F0DC81480640F0E580DBF80000C0F379
:10019000862049065FD000BFFEE79BF81710A2E05B
:1001A000584600F004FAB1074FF0040108BF1221CD
:1001B000002808BF01215FEA4A606ED0FEE79BF885
:1001C0001700CBF8045000F0800000F11C028BF8FF
:1001D00017202020E9E59BF8170000F0800000F1CF
:1001E0000D028BF817200120DFE59BF81700CBF8F4
:1001F000045000F0800000F10E028BF817202A2036
:10020000D3E59BF81700CBF8045000F0800000F114
:100210000F028BF817200D20C7E59BF8170000F0A0
:10022000800000F119020B208BF8172060F3574172
:1002300031E69BF81700CBF8045000F0800000F185
:1002400010028BF817201320AFE502F0800000F1B8
:100250001C0204202BE6002E72D0089BDBF8001055
:100260009A68002A6ED000F07F0021F4FE3141EA46
:100270008020CBF800000A9806999B68421A5846DD
:1002800098479BF81710002840F06981480661D113
:10029000DBF80010C1F3862054E0089AD06998B1C9
:1002A00026F4FE3040EA8120CBF80000D1695846A0
:1002B00088479BF81710002840F0488148060AD16B
:1002C000DBF80060C6F3862126F4FE32002042EA05
:1002D0008121CBE900100598A8EB000058E09BF8BD
:1002E0001710CBF8045001F0800101F10C02DEE59B
:1002F0000AF0800021303A218BF81700002061F3CA
:100300009026CBE900600598A8EB0000FDF75ABFE6
:100310009BF81700CBF8045000F0800000F11A029F
:100320008BF81720322040E59BF81700CBF80450DB
:1003300000F0800000F10C028BF81720342033E528
:10034000DBF8001000F07F0021F4FE3141EA80204C
:10035000CBE900050198FDF735BF0598301A17E085
:100360009BF81700CBF8045000F0800000F1110258
:1003700037E79BF81700CBF8045000F0800000F13D
:100380001B028BF8172036200FE50598AAEB00001A
:100390000130FDF717BF0598AAEB0000FDF712BF6B
:1003A0009BF81700CBF8045000F0800000F1100219
:1003B0008BF817201220F8E49BF81700CBF80450B4
:1003C00000F0800000F10E028BF817200920ECE409
:1003D0009BF81700CBF8045000F0800000F10E02EB
:1003E0008BF817200A20E0E49BF81700CBF80450A4
:1003F00000F0800000F10E028BF817200B20D4E4EF
:100400009BF81700CBF8045000F0800000F10E02BA
:100410008BF817200C20C8E49BF81700CBF8045089
:1004200000F0800000F10E028BF817202720BCE4BA
:100430009BF81700CBF8045000F0800000F10E028A
:100440008BF817202820B0E49BF81700CBF8045055
:1004500000F0800000F10E028BF817202920A4E4A0
:100460009BF81700CBF8045000F0800000F1170251
:100470008BF817202B2098E49BF81700CBF804503A
:1004800000F0800000F117028BF8172034208CE474
:100490009BF81700012500F0800000F11B02CBF84B
:1004A00004508BF8172035207FE49BF81700CBF819
:1004B000045000F0800000F10C028BF817202D2072
:1004C00073E49BF8170000F0800000F11C028BF829
:1004D0001720032069E49BF81700CBF8045000F0C4
:1004E000800000F10C02FFE49BF81700CBF80450E9
:1004F00000F0800000F1190243E701F08000C11C08
:10050000CBF804508BF81710A3E49BF81700CBF836
:10051000045000F0800000F1190201E701F08000B2
:10052000011DCBF804508BF8171008E501F080008E
:10053000811CCBF804508BF8171035E501F08000D2
:10054000811DCBF804508BF817101BE60020CBF868
:10055000040001F08000C11D8BF81710AEE601F019
:10056000800000F10801CBF804508BF817108DE6DD
:1005700030BCBDE8C08F70B586690D4620210446A9
:10058000EFF7C5FE4FF40060A661012D08BF4FF4E0
:100590008050002D08BF4FF4904005F0030108443F
:1005A000206070BD80B52821EFF7B1FE80BD018AC3
:1005B00031B1418A21B10178C90604D500207047C4
:1005C00001780907FAD580B5FDF7C8FD80F0010074
:1005D00080BDF8F71FBDFAF7C1B8FAF7BFBD00003C
:1005E0009AB043F60008C4F20008F1F7BCFAF2F73B
:1005F000BDFF002741F24C000597C4F202000168DC
:1006000040F6000441F0040101600168C4F60004F2
:1006100001F00401119111990168002241F00201D9
:100620000160016801F0020111911199016841F026
:1006300001010160016801F0010111911199016846
:1006400041F00801016000684FF4015100F008001A
:10065000119011982046F1F76DFAA4F580652846AF
:100660004FF4004101224FF4004A4FF00109F1F725
:1006700061FA204680210122F1F75CFA4FF4005024
:1006800001AECDE9010920463146CDE90377F1F706
:100690007FF94FF00C0B28463146CDE901B7CDF874
:1006A0000C90F1F775F9CDE901A94FF0020A28463F
:1006B00031460397CDF810A0F1F76AF9C020CDE9D3
:1006C000010920463146CDE9037AF1F761F941F697
:1006D000742008F58031C1F200004FF4E13280E867
:1006E0008600C0E90377C0E905B7C0E9077747622C
:1006F000F2F74FFB18B1EFF3108072B6FEE741F648
:100700001020C1F200004FF482714FF4E0624FF408
:1007100000731024C0E900810721C0E90272C0E91A
:1007200004A9C0E90634C0E90877C0E90A71C0E944
:100730000C77F2F7F3F820B1EFF3108072B600BF38
:10074000FEE741F6C41041F20001C1F20000CAF216
:1007500000010025042216234FF44077C0E900155C
:10076000C0E90224C0E90437C0E906550562F1F783
:10077000E1FA20B1EFF3108072B600BFFEE741F658
:10078000401008F59041C1F200004FF4E13280E8DA
:10079000260030210C23C0E908514FF480514FF45A
:1007A0000052C0E90355C0E90535C0E90E12F2F761
:1007B000F0FA20B1EFF3108072B600BFFEE7F9F750
:1007C000D5F840F2FC00C1F20000F8F76BFC002005
:1007D0000027F3F734FB40F2D004C1F200042046B6
:1007E000F9F7CCFA4EF6A63141F62842C0F60201DE
:1007F000C1F20002204662230097F9F7B9F94EF6DC
:10080000B135C0F6020519AE20462946324604230A
:1008100019970097F9F7ACF9199A40A111A818F0A7
:100820003DF8199829460130199020463246042394
:10083000F9F7A0FB199A01AC3BA1204618F02EF85D
:10084000002000212246F3F72FFC45F20501C0F6F7
:10085000000101200022FBF7E5FC40F2881041F680
:10086000F821C1F20000C1F20001F7F73DFE41F6A8
:10087000401041F68A41C1F20000C1F2000101229C
:10088000F2F72EFBFBF7DEF940F2440441F2E1619E
:10089000C1F2000440F2C81326A0C0F60001C1F264
:1008A00000032246FBF784F94EF69E3044F277218E
:1008B00040F2F013C0F60200C0F60001C1F20003DE
:1008C0002246FBF775F944F2A130C0F6000021463C
:1008D000F8F75AFE40F22401C1F2000108604AF61E
:1008E0001140C0F600000021FAF718FA4FF46160D9
:1008F000FBF7DEF841F60434C1F20004F8F7D8FA49
:10090000F8F787FC2168401AB0F57A7FF6D9F8F736
:1009100080FC2060FBF762FDF0E700BF626F6F7440
:100920003A25303464000000626F6F743A25303429
:10093000640D0A00646973706C617900012984BFD9
:100940006FF02000704780B521B111461A4603F0C0
:1009500069F903E011461A4602F090FF002080BDBD
:10096000002814BF4FF48C71704707F025BA80B58A
:100970004FF48C71EFF7CBFC80BD00002DE9F04FF8
:10098000C7B001AE0F46054630464FF48C71144691
:10099000EFF7BDFC0020686030463946224600F083
:1009A0006DF8804600285DD1DDE901C005F1080E33
:1009B00006EB800000EB0C1101F108078CCF4E69AB
:1009C00005F118008EE88C00BCF1020FA1F10802BD
:1009D000C5F800C06E613FDB49F230434AF6E01EC5
:1009E0004AF6E0594BF2E01A4BF2E05BC0F6020324
:1009F000C0F6020EC0F60209C0F6020AC0F6020BEB
:100A00006FF00F0157183F694418FEB2C7F307256E
:100A10009E5D5D5D5EF8266059F82550043185EADB
:100A20000605C7F307469E5D4FEA1767DF5D5AF874
:100A300026605BF8277085EA060585EA07052561CB
:100A4000E0D10A440844BCF1020FACF1010CA2F160
:100A5000100200F11000D3DC92E88A00D26880E82E
:100A60008A00C26001A84FF48C7107F0A5F94046D6
:100A700047B000F000B830BCBDE8C08F2DE9F047AA
:100A8000802A0BD0B2F5807F0BD0C02A1CBF6FF03C
:100A90001F00BDE8F0874FF00C0E04E04FF00A0E87
:100AA00001E04FF00E0E00F1080C0024C0E900E454
:100AB0005209644651F8043B013A44F8043BF9D129
:100AC000BEF10A0F5BD0BEF10C0F00F08D80BEF1BD
:100AD0000E0F40F0C580DCF800204EF2B44C49F215
:100AE000304E0021C0F6020CC0F6020E00EBC1032E
:100AF0005CF801505C6A6A40C4F307251EF8055093
:100B0000C4F307461EF806606A40250E82EA0622F4
:100B10001EF80550E6B21EF8066082EA054203F1AF
:100B20000C0882EA066298E8E0019A625540DD62AC
:100B300075401D637D405D63EEB21EF80660C5F32F
:100B400007271EF8077086EA080686EA0726C5F317
:100B500007471EF807702D0E1EF8055086EA074657
:100B600086EA0565DE699D6375401E6ADD63754032
:100B700004316C401C291D645C64B7D170E0DCF862
:100B800000404EF2B44C49F2304E0021C0F6020C47
:100B9000C0F6020E00EB81035CF801205D69624043
:100BA000C5F307241EF804402F0E6240C5F3074426
:100BB0001EF804401EF8077082EA0422ECB21EF808
:100BC0000440DE6882EA07421F6982EA046484EA1C
:100BD000060287EA0206043175402829C3E9064265
:100BE0001E625D62D6D13BE0DCF800A04EF2B44953
:100BF00049F2304C0021C0F60209C0F6020C00BFD9
:100C00004318DE6959F8047BC6F307251CF8055024
:100C1000C6F3074487EA0A071CF804406F40350E04
:100C200087EA04271CF80550F4B21CF8044087EA50
:100C3000054787EA046AD3E90375D3E905E887EA3B
:100C40000A077D408EEA050288EA020418316640F0
:100C5000C029C3E908A7C3E90A521C635E63CFD168
:100C60000020BDE8F087000040B110B5846902F0B3
:100C700097FA002C2046F9D1BDE810407047F0B536
:100C800081B0054600680F46091A012940DB01784A
:100C9000302940D10130164628606A462846394638
:100CA0001C4600F0C5F8C0BB2868391A01292FDBA3
:100CB000037800993246012942F8043B28DB037887
:100CC000062B28D14718013028602846394600F005
:100CD000AFF810BB2868B060706829680844B84253
:100CE00028601CD010F8011B224642F8041B286023
:100CF0002846394600F09CF878B92868A0606068FA
:100D0000296808442860C01B18BF6FF0650004E024
:100D10006FF05F0001E06FF0610001B0F0BD2046B0
:100D20000C2107F049F80020F7E770B50446006889
:100D30000D46091A012925DB017803291CBF6FF034
:100D4000610070BD0130206020462946164600F043
:100D50006FF800B170BD3068A0B101382168306013
:100D60000A78072A327184BF6FF0630070BD0131C9
:100D70002160B160216808442060401B18BF6FF0FB
:100D8000650070BD6FF05F0070BDB0B504460068CF
:100D90000B1A012B0EDB15460278032A1CBF6FF0DD
:100DA0006100B0BD0130206020462A4600F040F8C6
:100DB00018B1B0BD6FF05F00B0BD286820B1411E12
:100DC00020682960017811B16FF06700B0BD013073
:100DD00020600020B0BDB0B582B0044600680B1A98
:100DE000012B17DB15460278012A16D1013020604D
:100DF00001AA204600F01CF888B90198012810D1FA
:100E0000206810F8011B002918BF01212060002074
:100E1000296004E06FF05F0001E06FF0610002B054
:100E2000B0BD6FF06300FAE713460222F7F754B93A
:100E3000B0B504680D1B012D31DB94F900C0BCF185
:100E4000000F06D4631C036094F800C0C2F800C011
:100E50001EE05FFA8CF303F07F0EAEF1050313F191
:100E6000040F3CBF6FF06300B0BD754517D94FF05C
:100E7000000C631CC2F800C0036000BF13F8014BF4
:100E8000BEF1010E44EA0C2CC2F800C00360F5D19B
:100E9000C91A00208C4588BF6FF05F00B0BD6FF0AD
:100EA0005F00B0BD70B582B0044600680B1A012B1C
:100EB00014DB15460278022A13D10130206001AA02
:100EC0002046FFF7B5FF70B9019E216828463246DB
:100ED00006F004FA21683144216004E06FF05F00FD
:100EE00001E06FF0610002B070BD80B586B04FF0D8
:100EF000000CCDE90432C2E900CCC2E902CC48F2D0
:100F0000A102C0F600020DF1100E0292DBB2FF2228
:100F1000CDE900CCCDF80CE000F028F806B080BD9B
:100F200080B5D0F800C0A1EB0C0EBEF1010F0DDBB7
:100F30009CF800E09E451CBF6FF0610080BD0CF185
:100F400001030360BDE88040FFF772BF6FF05F00F0
:100F500080BD000040B110B5C46802F021F9002C3A
:100F60002046F9D1BDE81040704700002DE9F04F50
:100F700081B0054600680E46091A012914DB017884
:100F800030293FD10130174628606A46284631464D
:100F90009A46FFF74DFFB8BB296800980844B04255
:100FA00005D06FF065002FE06FF05F002CE0B142DC
:100FB0002DD2DDF83080E946481C28600C7804EA20
:100FC000070050451ED1284631464A46FFF730FFFC
:100FD000D0B9DDF800B0B8F1000F0AD00A980B992B
:100FE0002040884205D12A680D9821465B46C047BB
:100FF00050B9286800EB0B01B1424FF000002960A6
:10100000DAD301E06FF0610001B000F002B8002017
:10101000FAE730BCBDE8C08F802A84464FF001005B
:1010200004D313461B0A00F10100FBD1DCF80030A9
:10103000591A884202DD6FF06B007047DCF800102F
:101040004B1ECCF8003001F8012C120AF6D1022810
:1010500038BF7047DCF8001000F17F024B1ECCF85F
:10106000003001F8012C7047F0B581B004461046FD
:1010700017460E4606F021FA05460128206898BF5B
:101080000125B04202D3811BA94203D26FF06B004D
:1010900001B0F0BD411B38462A46216006F0A5FA92
:1010A0000028F5D1B88801280ED1206890F90010E9
:1010B000B1F1FF3F08DC811B0129E7DB411E216004
:1010C0000021013500F8011C204631462A46FFF771
:1010D000A3FF0028DCD421688A1B012AD6DB4A1E24
:1010E000284422600222013001F8012CD0E7036875
:1010F000591A0129B1BF6FF06B00591E016003F846
:10110000012CA8BF0120704740F29C12C1F20002DE
:10111000126810472DE9F04387B09446149A109D49
:1011200049F600749542CFF6FF7426D3129E8E4680
:10113000A91AB14221D80668767906F0F006602E29
:101140001AD1DDE90E97139E3D44DDF84480AD1AB7
:10115000406B3160CDE90039CDE9025272466346F9
:101160000497CDF8148002F021F810F1120108BFA5
:10117000A4F50070044600E08034204607B0BDE8C6
:10118000F0832DE9F04387B09646149C109A8C4664
:1011900001461298A518854249F60070CFF6FF70F7
:1011A0001CD80D686E79139D06F0F006602E11D1E3
:1011B000119EDDE90E98486BB7182A60CDE900E36F
:1011C00001216346CDE9029804960697059402F042
:1011D00018F800E0803029682144296007B0BDE894
:1011E000F083A0B110B50446406B50B1216840F2C5
:1011F000A012C979C1F2000201F07C01515849697D
:10120000884720463821BDE8104006F0D5BD70471C
:101210004DF65062C0F60202516851B11378834214
:1012200008D00832516821B112F8083B8342F9D145
:1012300000E00021084670474DF65063C0F60203F7
:10124000D3F804C0BCF1000F23D0B0B540F2A01E0B
:101250000C33C1F2000E00BF9CF8074004F07C0480
:101260005EF804402478844209D19CF8054004F0DB
:101270000F05B1EB851F02D12409944206D053F823
:1012800008CBBCF1000FE7D14FF0000CBDE8B04037
:1012900001E04FF0000C6046704780B53821EFF751
:1012A00036F880BD80B5012B28D8D0F800C0BCF13D
:1012B000000F23D09CF807E05FEA8E7E06D49CF8EE
:1012C00005E00EF00F0EB2EB8E1F17D1012B42601E
:1012D000037207D09CF805E06FF0020303EB1E13C6
:1012E000022B10D89CF8073003F07C0C40F2A013BE
:1012F000C1F2000353F80C3008330FE049F60070D8
:10130000CFF6FF7080BD9CF8073003F07C0C40F2F4
:10131000A013C1F2000353F80C300C33406B1B6870
:10132000BDE88040184770B549F68064CFF6FF7479
:10133000A1B10D4638210646EEF7E9FFE87940F203
:10134000A01100F07C00C1F200010858006910B142
:101350008047706318B10024356000E08034204677
:1013600070BD70B582B00568864649F60070002DE4
:10137000CFF6FF703FD0069C8C4600212160297972
:1013800011F01F011BD06E793609062E1AD0012EDE
:1013900020D1914222D12260E87940F2A01100F0E0
:1013A0007C00C1F2000108589EF908104468DEF87C
:1013B00034006246A44602B0BDE870406047A0F524
:1013C000207018E0DEF834006146CDE9002402F018
:1013D00003F910E09C4504D080300CE0A0F5C0700B
:1013E00009E0DEF81C3033B9B2FBF1F303FB112145
:1013F000002908BF803002B070BD000082B180B506
:101400004FF0000E10F801CB11F8013B013A83EACE
:101410000C03DBB24EEA030EF4D11FFA8EF080BD4E
:101420000020704770B541F60835C1F200052D68FF
:10143000DDF810E04540002B08BF0B46BEF1040F5D
:101440006FEA050C01D200240CE0002554595E59C6
:10145000044006EA0C0634434C512C1D08357545F2
:101460002546F3D9A64598BF70BDAEEB040E2144C6
:101470002344224412F8014B13F8015B044005EAAF
:101480000C052C43BEF1010E01F8014BF2D170BDE9
:10149000002953D02DE9F04F41F6083BA1EB020C97
:1014A000A1F1010900F101084FF0000EC1F2000B9B
:1014B0004FF0000ADBF80030DBF8006083EA0A0333
:1014C00086EA0C06DBF8007086EA030287EAD2722D
:1014D0005242AEEB57073A43DBF800709B1B87EA9A
:1014E000E27706EAE272BB43DBF800601A4386EA61
:1014F000D2725242AEEB56031A43D617B9F1000F1F
:1015000047464B460FD000BF17F8012C17F8015B78
:10151000DBF800403240744025EA04042243013BDA
:1015200007F8022CF0D110F809200AF1010A324024
:101530008A4500F80920BDD100F001B8704730BCE1
:10154000BDE8C04FFFF7FABF042A6FEA000C01D2D2
:1015500000200AE0002300BFC85800EA0C00C85071
:10156000181D083393420346F6D9824298BF70474C
:10157000121A01440878013A00EA0C0001F8010B44
:10158000F8D1704788B110B504462030FFF7E8F96C
:1015900020464FF4A07106F00FFC42F21070E0619B
:1015A0004FF0FF302061BDE81040704710B54FF498
:1015B000A0710446EEF7ABFE04F12000FFF7D7F967
:1015C0004FF0FF30206142F21070E06110BD80B535
:1015D00082B04FF0000C0023CDF800C000F002F8FC
:1015E00002B080BD2DE9F04790B0B2F5806F02D90E
:1015F0006FF0350768E0DDF86090B9F5807F02D9BB
:101600006FF0370760E0E8468A46044640463021DE
:101610001F461546EEF77BFE2069E169884201DC32
:101620006069D8B3204639464A46002300F050F896
:101630000746002848D135B304F1200908F13008E5
:10164000002600BF0C2000BF215809BA4A1C46F1F1
:10165000000112BA225018B10029A0F10400F3D100
:101660004846012122464346FFF768F938BB2F461A
:10167000102D28BF1027504641463A46EEF720FE6F
:10168000ED1BBA44DED169462046FBF715F9074643
:10169000B0B9206900270130206111E0B9F1000FD5
:1016A000C9D0684639464A46FAF7F2FE074638B9C5
:1016B00069462046FBF700F9074608B9BBE707462D
:1016C0006846402106F078FB384610B0BDE8F08748
:1016D0002DE9F047E0B08569B5F5C07F02D96FF01C
:1016E000370649E00446C5F5C0701F4698426FF0C2
:1016F000370641D3C01B924690423DD36E46894681
:1017000030464FF4C071EEF702FED4E94E30314658
:101710002A46984710B16FF033062DE0D4F81880B0
:1017200047B1D4E94E3006EB08013A469847002805
:10173000F1D1B844B9F1000F18BFBAF1000F06D0CB
:1017400006EB080049465246EEF7BAFDD04468461B
:1017500001464246FAF79CFE064640B969462046D5
:10176000FBF7AAF8064610B901200026206168465A
:101770004FF4C07106F020FB304660B0BDE8F08742
:101780002DE9F04188B00F4605466846202198466D
:101790001646EEF7BCFDAC69C5E94E760CB93024AF
:1017A000AC612E6905F1200069464FF48072FFF7A5
:1017B00065F960B9601C0E9A43082F2C88BF00237E
:1017C00028464146002E58BF3346FFF781FF08B038
:1017D000BDE8F0812DE9F04FADF50B7D00280590B7
:1017E00000F0BC8005980068002800F0B780006910
:1017F000002800F0B38041F6E400C1F20000006868
:101800000F468842C0F2AA801C46DDF85882949B9D
:101810000DF12C09164653A248464FF40071CDF83D
:10182000008017F021F80598394600683246D0E963
:1018300004502346CDF80090A84706A811214D4634
:10184000EEF765FDB8F1000F00F088800494DDF834
:101850005492A8F1010040F6FF7142F60F24CDE941
:101860000276884238BF014601F1010B4FF00008B3
:10187000C0F603044FF0000A06AE01911AF00F07FC
:1018800027D1BAF1000F1BD040F2FC7205EB080023
:10189000C8F50071C0F60302334616F0E5FF05985F
:1018A00002AB00682646D0E904400ECB0095A04765
:1018B000344606AE30461121EEF729FD4FF0000800
:1018C00005EB0800C8F500712DA2534616F0CCFFB9
:1018D000804419F80A3005EB0800C8F5007122466B
:1018E00016F0C2FF19F80A108044A1F120005F2809
:1018F0000AF1010A28BF2E21D345F155BED1969891
:101900000499DDE9029A48B32C465FEA0B7010D0C7
:1019100001988B46861C1CA504EB0800C8F50071D5
:101920002A4616F0A1FF8044300706F10106F3D1E4
:1019300000E08B4640F2FC7204EB0800C8F5007131
:10194000C0F6030206AB16F08FFF05984946006803
:101950005246D0E904705B460094B8470DF50B7D04
:1019600000F014B864756D70696E672027257327C1
:1019700020282575206279746573290A000000000B
:10198000253034783A2000002020200030BCBDE80B
:10199000C08F00002DE9F04FADF62C0D0028069207
:1019A00000F0CE8082460068002800F0C980DDF893
:1019B0005458002D00F0C4800069002800F0C08059
:1019C00041F6E400C1F20000006888468842C0F297
:1019D000B78007AC601C1F4605900DF21C6B002001
:1019E000039000BF039E0DF21C49DDF8503801360C
:1019F00048464FF4007154A20396009616F034FF47
:101A0000DAF80000069AD0E9046041463B46CDF87A
:101A10000090B04740F2B842204640F2FF31C0F695
:101A200003022B46049510F009F80025214600BF5B
:101A3000605D0A2802D0E8B91EE000BF059828447E
:101A4000A0EB0109B9F5FF7F88BF40F2FF195846A6
:101A50004A46EEF735FCDAF8000000210BF80910D1
:101A6000D0E90460069A41463B46CDF800B0B04745
:101A70006019411C0135DBE70498242100F1CC09F1
:101A80005846EEF744FC4846594605F047FF58B122
:101A9000DAF80000069AD0E9046041463B462DA5DD
:101AA0000095B04746E000BF002500BF1BF80500C9
:101AB00000283FD00BEB0506B94677680DF61C00F1
:101AC000102129A22AA3009716F0CEFE1BF80500CC
:101AD000002102288DF82B180ED001281AD1B768E2
:101AE000069A504641464B460DF61C06CDE9006766
:101AF0004F4600F095F819E0B768069A50464146FF
:101B00004B460DF61C06CDE900674F4600F042F843
:101B10000CE000BFDAF80000069AD0E904C04146A4
:101B20004B4615A74E460097E0474F460C35242DEF
:101B3000BCD100BF049DD5F89051002D7FF452AF69
:101B40000DF62C0D00F022B82573202325643A0AE7
:101B500000000000696E76616C696420504B206360
:101B60006F6E746578740A00257325730000000099
:101B70006372742D3E00000073686F756C64206E94
:101B80006F742068617070656E0A000030BCBDE83B
:101B9000C08F0000D0B32DE9F047ADF5027D0646B9
:101BA000006878B3006968B341F6E400C1F2000050
:101BB00000680F46884225DBDDE98A9A0DF10808A6
:101BC0001C46154612A240464FF400714B4616F0D3
:101BD0004BFE304639462A462346CDE9008A00F0BE
:101BE0001FF80DA240464FF400714B4616F03CFE24
:101BF0000AF1080C304639462A462346CDE9008CC6
