Component: Arm Compiler for Embedded 6.21 Tool: armlink [5ec1fa00]

==============================================================================

Section Cross References

    startup_stm32l431xx.o(RESET) refers to startup_stm32l431xx.o(STACK) for __initial_sp
    startup_stm32l431xx.o(RESET) refers to startup_stm32l431xx.o(.text) for Reset_Handler
    startup_stm32l431xx.o(RESET) refers to stm32l4xx_it.o(.text.NMI_Handler) for NMI_Handler
    startup_stm32l431xx.o(RESET) refers to stm32l4xx_it.o(.text.HardFault_Handler) for HardFault_Handler
    startup_stm32l431xx.o(RESET) refers to stm32l4xx_it.o(.text.MemManage_Handler) for MemManage_Handler
    startup_stm32l431xx.o(RESET) refers to stm32l4xx_it.o(.text.BusFault_Handler) for BusFault_Handler
    startup_stm32l431xx.o(RESET) refers to stm32l4xx_it.o(.text.UsageFault_Handler) for UsageFault_Handler
    startup_stm32l431xx.o(RESET) refers to stm32l4xx_it.o(.text.SVC_Handler) for SVC_Handler
    startup_stm32l431xx.o(RESET) refers to stm32l4xx_it.o(.text.DebugMon_Handler) for DebugMon_Handler
    startup_stm32l431xx.o(RESET) refers to stm32l4xx_it.o(.text.PendSV_Handler) for PendSV_Handler
    startup_stm32l431xx.o(RESET) refers to stm32l4xx_it.o(.text.SysTick_Handler) for SysTick_Handler
    startup_stm32l431xx.o(RESET) refers to stm32l4xx_it.o(.text.USART1_IRQHandler) for USART1_IRQHandler
    startup_stm32l431xx.o(RESET) refers to stm32l4xx_it.o(.text.LPUART1_IRQHandler) for LPUART1_IRQHandler
    startup_stm32l431xx.o(.text) refers to system_stm32l4xx.o(.text.SystemInit) for SystemInit
    startup_stm32l431xx.o(.text) refers to entry.o(.ARM.Collect$$$$00000000) for __main
    main.o(.text.HAL_UART_RxCpltCallback) refers to main.o(.bss.hlpuart1) for hlpuart1
    main.o(.text.HAL_UART_RxCpltCallback) refers to main.o(.bss.sgUartData) for sgUartData
    main.o(.text.HAL_UART_RxCpltCallback) refers to b_hal_it.o(.text.bHalItInvoke) for bHalItInvoke
==============================================================================

Removing Unused input sections from the image.

    Removing startup_stm32l431xx.o(HEAP), (512 bytes).
    Removing main.o(.text), (0 bytes).
    Removing main.o(.ARM.exidx.text.HAL_UART_RxCpltCallback), (8 bytes).
    Removing main.o(.ARM.exidx.text.bWifiTest), (8 bytes).
    Removing main.o(.ARM.exidx.text.DisplayTask), (8 bytes).
    Removing main.o(.ARM.exidx.text.WeatherTask), (8 bytes).
    Removing main.o(.ARM.exidx.text.bMqttCallback), (8 bytes).
    Removing main.o(.ARM.exidx.text.main), (8 bytes).
    Removing main.o(.ARM.exidx.text.SystemClock_Config), (8 bytes).
    Removing main.o(.ARM.exidx.text._WifiEvtCb), (8 bytes).
    Removing main.o(.ARM.exidx.text._ButtonEventHandler), (8 bytes).
    Removing main.o(.ARM.exidx.text._HttpCb), (8 bytes).
    Removing main.o(.ARM.exidx.text.Error_Handler), (8 bytes).
    Removing main.o(.bss.hsd1), (132 bytes).
    Removing main.o(.ARM.use_no_argv), (4 bytes).
    Removing stm32l4xx_it.o(.text), (0 bytes).
    Removing stm32l4xx_it.o(.ARM.exidx.text.NMI_Handler), (8 bytes).
    Removing stm32l4xx_it.o(.ARM.exidx.text.HardFault_Handler), (8 bytes).
==============================================================================

Image Symbol Table

    Local Symbols

    Symbol Name                              Value     Ov Type        Size  Object(Section)

    ../clib/../cmprslib/zerorunl.c           0x00000000   Number         0  __dczerorl.o ABSOLUTE
    ../clib/division.s                       0x00000000   Number         0  aeabi_sdiv.o ABSOLUTE
    ../clib/microlib/ctype/ctype.c           0x00000000   Number         0  isspace_c.o ABSOLUTE
    ../clib/microlib/ctype/ctype.c           0x00000000   Number         0  ctype_o.o ABSOLUTE
    ../clib/microlib/ctype/ctype.c           0x00000000   Number         0  isalnum_o.o ABSOLUTE
    ../clib/microlib/ctype/ctype.c           0x00000000   Number         0  isalpha_o.o ABSOLUTE
    ../clib/microlib/ctype/ctype.c           0x00000000   Number         0  isblank_o.o ABSOLUTE
    ../clib/microlib/ctype/ctype.c           0x00000000   Number         0  iscntrl_o.o ABSOLUTE
    ../clib/microlib/ctype/ctype.c           0x00000000   Number         0  isdigit_o.o ABSOLUTE
    ../clib/microlib/ctype/ctype.c           0x00000000   Number         0  isgraph_o.o ABSOLUTE
    ../clib/microlib/ctype/ctype.c           0x00000000   Number         0  islower_o.o ABSOLUTE
    ../clib/microlib/ctype/ctype.c           0x00000000   Number         0  isprint_o.o ABSOLUTE
    ../clib/microlib/ctype/ctype.c           0x00000000   Number         0  ispunct_o.o ABSOLUTE
    ../clib/microlib/ctype/ctype.c           0x00000000   Number         0  isspace_o.o ABSOLUTE
    ../clib/microlib/ctype/ctype.c           0x00000000   Number         0  isupper_o.o ABSOLUTE
    ../clib/microlib/ctype/ctype.c           0x00000000   Number         0  isxdigit_o.o ABSOLUTE
    ../clib/microlib/ctype/ctype.c           0x00000000   Number         0  ctype_c.o ABSOLUTE
    ../clib/microlib/ctype/tolower.c         0x00000000   Number         0  tolower.o ABSOLUTE
    ../clib/microlib/division.c              0x00000000   Number         0  uldiv.o ABSOLUTE
    ../clib/microlib/division.c              0x00000000   Number         0  ldiv.o ABSOLUTE
    ../clib/microlib/division.c              0x00000000   Number         0  uidiv.o ABSOLUTE
    ../clib/microlib/errno.c                 0x00000000   Number         0  errno.o ABSOLUTE
    ../clib/microlib/init/entry.s            0x00000000   Number         0  entry.o ABSOLUTE
    ../clib/microlib/init/entry.s            0x00000000   Number         0  entry2.o ABSOLUTE
    ../clib/microlib/init/entry.s            0x00000000   Number         0  entry5.o ABSOLUTE
    ../clib/microlib/init/entry.s            0x00000000   Number         0  entry7a.o ABSOLUTE
    ../clib/microlib/init/entry.s            0x00000000   Number         0  entry7b.o ABSOLUTE
    ../clib/microlib/init/entry.s            0x00000000   Number         0  entry8a.o ABSOLUTE
    ../clib/microlib/init/entry.s            0x00000000   Number         0  entry8b.o ABSOLUTE
    ../clib/microlib/init/entry.s            0x00000000   Number         0  entry9a.o ABSOLUTE
    ../clib/microlib/init/entry.s            0x00000000   Number         0  entry9b.o ABSOLUTE
    ../clib/microlib/init/entry.s            0x00000000   Number         0  entry10a.o ABSOLUTE
    ../clib/microlib/init/entry.s            0x00000000   Number         0  entry10b.o ABSOLUTE
    ../clib/microlib/init/entry.s            0x00000000   Number         0  entry11a.o ABSOLUTE
    ../clib/microlib/init/entry.s            0x00000000   Number         0  entry11b.o ABSOLUTE
    ../clib/microlib/longlong.c              0x00000000   Number         0  llshl.o ABSOLUTE
    ../clib/microlib/longlong.c              0x00000000   Number         0  llushr.o ABSOLUTE
    ../clib/microlib/longlong.c              0x00000000   Number         0  llsshr.o ABSOLUTE
    ../clib/microlib/malloc/malloc.c         0x00000000   Number         0  malloc.o ABSOLUTE
    ../clib/microlib/malloc/malloc.c         0x00000000   Number         0  mallocr.o ABSOLUTE
    ../clib/microlib/malloc/malloc.c         0x00000000   Number         0  malloca.o ABSOLUTE
    ../clib/microlib/malloc/malloc.c         0x00000000   Number         0  mallocra.o ABSOLUTE
    ../clib/microlib/malloc/mvars.c          0x00000000   Number         0  mvars.o ABSOLUTE
    ../clib/microlib/printf/printf.c         0x00000000   Number         0  printfb.o ABSOLUTE
    ../clib/microlib/printf/printf.c         0x00000000   Number         0  printf0.o ABSOLUTE
    ../clib/microlib/printf/printf.c         0x00000000   Number         0  printf1.o ABSOLUTE
    ../clib/microlib/printf/printf.c         0x00000000   Number         0  printf2.o ABSOLUTE
    ../clib/microlib/printf/printf.c         0x00000000   Number         0  printf3.o ABSOLUTE
    ../clib/microlib/printf/printf.c         0x00000000   Number         0  printf4.o ABSOLUTE
    ../clib/microlib/printf/printf.c         0x00000000   Number         0  printf5.o ABSOLUTE
    ../clib/microlib/printf/printf.c         0x00000000   Number         0  printf6.o ABSOLUTE
    ../clib/microlib/printf/printf.c         0x00000000   Number         0  printf7.o ABSOLUTE
    ../clib/microlib/printf/printf.c         0x00000000   Number         0  printf8.o ABSOLUTE
    ../clib/microlib/printf/printf.c         0x00000000   Number         0  printfa.o ABSOLUTE
    ../clib/microlib/printf/stubs.s          0x00000000   Number         0  printfstubs.o ABSOLUTE
    ../clib/microlib/stdio/puts.c            0x00000000   Number         0  puts.o ABSOLUTE
    ../clib/microlib/stdio/puts.c            0x00000000   Number         0  puts_e.o ABSOLUTE
    ../clib/microlib/stdio/streams.c         0x00000000   Number         0  stdout.o ABSOLUTE
    ../clib/microlib/stdlib/rand.c           0x00000000   Number         0  rand.o ABSOLUTE
    ../clib/microlib/string/memchr.c         0x00000000   Number         0  memchr.o ABSOLUTE
    ../clib/microlib/string/memcmp.c         0x00000000   Number         0  memcmp.o ABSOLUTE
    ../clib/microlib/string/memcpy.c         0x00000000   Number         0  memcpya.o ABSOLUTE
    ../clib/microlib/string/memcpy.c         0x00000000   Number         0  memmovea.o ABSOLUTE
    ../clib/microlib/string/memcpy.c         0x00000000   Number         0  memcpyb.o ABSOLUTE
    ../clib/microlib/string/memcpy.c         0x00000000   Number         0  memmoveb.o ABSOLUTE
    ../clib/microlib/string/memset.c         0x00000000   Number         0  memset.o ABSOLUTE
    ../clib/microlib/string/memset.c         0x00000000   Number         0  memseta.o ABSOLUTE
    ../clib/microlib/string/strchr.c         0x00000000   Number         0  strchr.o ABSOLUTE
    ../clib/microlib/string/strcmp.c         0x00000000   Number         0  strcmp.o ABSOLUTE
    ../clib/microlib/string/strcpy.c         0x00000000   Number         0  strcpy.o ABSOLUTE
    ../clib/microlib/string/strlen.c         0x00000000   Number         0  strlen.o ABSOLUTE
    ../clib/microlib/string/strncmp.c        0x00000000   Number         0  strncmp.o ABSOLUTE
    ../clib/microlib/string/strncpy.c        0x00000000   Number         0  strncpy.o ABSOLUTE
    ../clib/microlib/string/strstr.c         0x00000000   Number         0  strstr.o ABSOLUTE
    ../clib/microlib/stubs.s                 0x00000000   Number         0  iusefp.o ABSOLUTE
    ../clib/scanf.c                          0x00000000   Number         0  __0sscanf.o ABSOLUTE
    ../clib/scanf.c                          0x00000000   Number         0  _scanf_int.o ABSOLUTE
    ../clib/scanf.c                          0x00000000   Number         0  _scanf_str.o ABSOLUTE
    ../clib/scanf.c                          0x00000000   Number         0  scanf_fp.o ABSOLUTE
    ../clib/scanf.c                          0x00000000   Number         0  atoi.o ABSOLUTE
    ../clib/scanf.c                          0x00000000   Number         0  _chval.o ABSOLUTE
    ../clib/scanf.c                          0x00000000   Number         0  scanf_char.o ABSOLUTE
    ../clib/scanf.c                          0x00000000   Number         0  _sgetc.o ABSOLUTE
    ../clib/scanf.c                          0x00000000   Number         0  strtod.o ABSOLUTE
    ../clib/scanf.c                          0x00000000   Number         0  strtol.o ABSOLUTE
    ../clib/scanf.c                          0x00000000   Number         0  _scanf.o ABSOLUTE
    ../clib/scanf.c                          0x00000000   Number         0  _strtoul.o ABSOLUTE
    ../fplib/microlib/d2f.c                  0x00000000   Number         0  d2f.o ABSOLUTE
    ../fplib/microlib/f2d.c                  0x00000000   Number         0  f2d.o ABSOLUTE
    ../fplib/microlib/fpadd.c                0x00000000   Number         0  dadd.o ABSOLUTE
    ../fplib/microlib/fpcmp.c                0x00000000   Number         0  dcmple.o ABSOLUTE
    ../fplib/microlib/fpcmp.c                0x00000000   Number         0  dcmpge.o ABSOLUTE
    ../fplib/microlib/fpcmp.c                0x00000000   Number         0  dcmpgt.o ABSOLUTE
    ../fplib/microlib/fpdiv.c                0x00000000   Number         0  ddiv.o ABSOLUTE
    ../fplib/microlib/fpepilogue.c           0x00000000   Number         0  depilogue.o ABSOLUTE
    ../fplib/microlib/fpepilogue.c           0x00000000   Number         0  fepilogue.o ABSOLUTE
    ../fplib/microlib/fpfix.c                0x00000000   Number         0  dfixi.o ABSOLUTE
    ../fplib/microlib/fpfix.c                0x00000000   Number         0  dfixui.o ABSOLUTE
    ../fplib/microlib/fpfix.c                0x00000000   Number         0  dfixl.o ABSOLUTE
    ../fplib/microlib/fpfix.c                0x00000000   Number         0  dfixul.o ABSOLUTE
    ../fplib/microlib/fpflt.c                0x00000000   Number         0  dflti.o ABSOLUTE
    ../fplib/microlib/fpflt.c                0x00000000   Number         0  dfltui.o ABSOLUTE
    ../fplib/microlib/fpflt.c                0x00000000   Number         0  dfltl.o ABSOLUTE
    ../fplib/microlib/fpflt.c                0x00000000   Number         0  dfltul.o ABSOLUTE
    ../fplib/microlib/fpmul.c                0x00000000   Number         0  dmul.o ABSOLUTE
    ../mathlib/strtod.c                      0x00000000   Number         0  strtod.o ABSOLUTE
    MQTTConnectClient.c                      0x00000000   Number         0  mqttconnectclient.o ABSOLUTE
    MQTTDeserializePublish.c                 0x00000000   Number         0  mqttdeserializepublish.o ABSOLUTE
    MQTTFormat.c                             0x00000000   Number         0  mqttformat.o ABSOLUTE
    MQTTPacket.c                             0x00000000   Number         0  mqttpacket.o ABSOLUTE
    MQTTSerializePublish.c                   0x00000000   Number         0  mqttserializepublish.o ABSOLUTE
    MQTTSubscribeClient.c                    0x00000000   Number         0  mqttsubscribeclient.o ABSOLUTE
    MQTTUnsubscribeClient.c                  0x00000000   Number         0  mqttunsubscribeclient.o ABSOLUTE
    aes.c                                    0x00000000   Number         0  aes.o ABSOLUTE
    aesce.c                                  0x00000000   Number         0  aesce.o ABSOLUTE
    aesni.c                                  0x00000000   Number         0  aesni.o ABSOLUTE
    algo_base64.c                            0x00000000   Number         0  algo_base64.o ABSOLUTE
    algo_crc.c                               0x00000000   Number         0  algo_crc.o ABSOLUTE
    algo_hmac_sha1.c                         0x00000000   Number         0  algo_hmac_sha1.o ABSOLUTE
    algo_md5.c                               0x00000000   Number         0  algo_md5.o ABSOLUTE
    algo_sort.c                              0x00000000   Number         0  algo_sort.o ABSOLUTE
    algo_utf8_unicode.c                      0x00000000   Number         0  algo_utf8_unicode.o ABSOLUTE
    aria.c                                   0x00000000   Number         0  aria.o ABSOLUTE
    asn1parse.c                              0x00000000   Number         0  asn1parse.o ABSOLUTE
    asn1write.c                              0x00000000   Number         0  asn1write.o ABSOLUTE
    b_core.c                                 0x00000000   Number         0  b_core.o ABSOLUTE
    b_device.c                               0x00000000   Number         0  b_device.o ABSOLUTE
    b_drv_esp12f.c                           0x00000000   Number         0  b_drv_esp12f.o ABSOLUTE
    b_drv_key.c                              0x00000000   Number         0  b_drv_key.o ABSOLUTE
    b_drv_spiflash.c                         0x00000000   Number         0  b_drv_spiflash.o ABSOLUTE
    b_drv_st7789.c                           0x00000000   Number         0  b_drv_st7789.o ABSOLUTE
    b_hal.c                                  0x00000000   Number         0  b_hal.o ABSOLUTE
    b_hal_flash.c                            0x00000000   Number         0  b_hal_flash.o ABSOLUTE
    b_hal_gpio.c                             0x00000000   Number         0  b_hal_gpio.o ABSOLUTE
    b_hal_i2c.c                              0x00000000   Number         0  b_hal_i2c.o ABSOLUTE
    b_hal_it.c                               0x00000000   Number         0  b_hal_it.o ABSOLUTE
    b_hal_qspi.c                             0x00000000   Number         0  b_hal_qspi.o ABSOLUTE
    b_hal_rng.c                              0x00000000   Number         0  b_hal_rng.o ABSOLUTE
    b_hal_sdio.c                             0x00000000   Number         0  b_hal_sdio.o ABSOLUTE
    b_hal_spi.c                              0x00000000   Number         0  b_hal_spi.o ABSOLUTE
    b_hal_uart.c                             0x00000000   Number         0  b_hal_uart.o ABSOLUTE
    b_mod_adchub.c                           0x00000000   Number         0  b_mod_adchub.o ABSOLUTE
    b_mod_button.c                           0x00000000   Number         0  b_mod_button.o ABSOLUTE
    b_mod_error.c                            0x00000000   Number         0  b_mod_error.o ABSOLUTE
    b_mod_fs.c                               0x00000000   Number         0  b_mod_fs.o ABSOLUTE
    b_mod_gui.c                              0x00000000   Number         0  b_mod_gui.o ABSOLUTE
    b_mod_iap.c                              0x00000000   Number         0  b_mod_iap.o ABSOLUTE
    b_mod_kv.c                               0x00000000   Number         0  b_mod_kv.o ABSOLUTE
    b_mod_link.c                             0x00000000   Number         0  b_mod_link.o ABSOLUTE
    b_mod_menu.c                             0x00000000   Number         0  b_mod_menu.o ABSOLUTE
    b_mod_modbus.c                           0x00000000   Number         0  b_mod_modbus.o ABSOLUTE
    b_mod_param.c                            0x00000000   Number         0  b_mod_param.o ABSOLUTE
    b_mod_protocol.c                         0x00000000   Number         0  b_mod_protocol.o ABSOLUTE
    b_mod_pwm.c                              0x00000000   Number         0  b_mod_pwm.o ABSOLUTE
    b_mod_shell.c                            0x00000000   Number         0  b_mod_shell.o ABSOLUTE
    b_mod_ssl.c                              0x00000000   Number         0  b_mod_ssl.o ABSOLUTE
    b_mod_state.c                            0x00000000   Number         0  b_mod_state.o ABSOLUTE
    b_mod_trace.c                            0x00000000   Number         0  b_mod_trace.o ABSOLUTE
    b_mod_trans.c                            0x00000000   Number         0  b_mod_trans.o ABSOLUTE
    b_mod_wifi.c                             0x00000000   Number         0  b_mod_wifi.o ABSOLUTE
    b_mod_xm128.c                            0x00000000   Number         0  b_mod_xm128.o ABSOLUTE
    b_mod_ymodem.c                           0x00000000   Number         0  b_mod_ymodem.o ABSOLUTE
    b_queue.c                                0x00000000   Number         0  b_queue.o ABSOLUTE
    b_sem.c                                  0x00000000   Number         0  b_sem.o ABSOLUTE
    b_srv_mqtt.c                             0x00000000   Number         0  b_srv_mqtt.o ABSOLUTE
    b_srv_tcpip.c                            0x00000000   Number         0  b_srv_tcpip.o ABSOLUTE
    b_task.c                                 0x00000000   Number         0  b_task.o ABSOLUTE
    b_timer.c                                0x00000000   Number         0  b_timer.o ABSOLUTE
    b_util_at.c                              0x00000000   Number         0  b_util_at.o ABSOLUTE
    b_util_fifo.c                            0x00000000   Number         0  b_util_fifo.o ABSOLUTE
    b_util_log.c                             0x00000000   Number         0  b_util_log.o ABSOLUTE
    b_util_lunar.c                           0x00000000   Number         0  b_util_lunar.o ABSOLUTE
    b_util_memp.c                            0x00000000   Number         0  b_util_memp.o ABSOLUTE
    b_util_utc.c                             0x00000000   Number         0  b_util_utc.o ABSOLUTE
    base64.c                                 0x00000000   Number         0  base64.o ABSOLUTE
    bignum.c                                 0x00000000   Number         0  bignum.o ABSOLUTE
    bignum_core.c                            0x00000000   Number         0  bignum_core.o ABSOLUTE
    bignum_mod.c                             0x00000000   Number         0  bignum_mod.o ABSOLUTE
    bignum_mod_raw.c                         0x00000000   Number         0  bignum_mod_raw.o ABSOLUTE
    block_cipher.c                           0x00000000   Number         0  block_cipher.o ABSOLUTE
    camellia.c                               0x00000000   Number         0  camellia.o ABSOLUTE
    ccm.c                                    0x00000000   Number         0  ccm.o ABSOLUTE
    cdrcmple.s                               0x00000000   Number         0  cdrcmple.o ABSOLUTE
    chacha20.c                               0x00000000   Number         0  chacha20.o ABSOLUTE
    chachapoly.c                             0x00000000   Number         0  chachapoly.o ABSOLUTE
    cipher.c                                 0x00000000   Number         0  cipher.o ABSOLUTE
    cipher_wrap.c                            0x00000000   Number         0  cipher_wrap.o ABSOLUTE
    cjson.c                                  0x00000000   Number         0  cjson.o ABSOLUTE
    cmac.c                                   0x00000000   Number         0  cmac.o ABSOLUTE
    constant_time.c                          0x00000000   Number         0  constant_time.o ABSOLUTE
    ctr_drbg.c                               0x00000000   Number         0  ctr_drbg.o ABSOLUTE
    dc.s                                     0x00000000   Number         0  dc.o ABSOLUTE
    debug.c                                  0x00000000   Number         0  debug.o ABSOLUTE
    des.c                                    0x00000000   Number         0  des.o ABSOLUTE
    dhm.c                                    0x00000000   Number         0  dhm.o ABSOLUTE
    ecdh.c                                   0x00000000   Number         0  ecdh.o ABSOLUTE
    ecdsa.c                                  0x00000000   Number         0  ecdsa.o ABSOLUTE
    ecjpake.c                                0x00000000   Number         0  ecjpake.o ABSOLUTE
    ecp.c                                    0x00000000   Number         0  ecp.o ABSOLUTE
    ecp_curves.c                             0x00000000   Number         0  ecp_curves.o ABSOLUTE
    ecp_curves_new.c                         0x00000000   Number         0  ecp_curves_new.o ABSOLUTE
    entropy.c                                0x00000000   Number         0  entropy.o ABSOLUTE
    entropy_poll.c                           0x00000000   Number         0  entropy_poll.o ABSOLUTE
    error.c                                  0x00000000   Number         0  error.o ABSOLUTE
    flexible_button.c                        0x00000000   Number         0  flexible_button.o ABSOLUTE
    gcm.c                                    0x00000000   Number         0  gcm.o ABSOLUTE
    handlers.s                               0x00000000   Number         0  handlers.o ABSOLUTE
    hkdf.c                                   0x00000000   Number         0  hkdf.o ABSOLUTE
    hmac_drbg.c                              0x00000000   Number         0  hmac_drbg.o ABSOLUTE
    http_parser.c                            0x00000000   Number         0  http_parser.o ABSOLUTE
    init.s                                   0x00000000   Number         0  init.o ABSOLUTE
    lmots.c                                  0x00000000   Number         0  lmots.o ABSOLUTE
    lms.c                                    0x00000000   Number         0  lms.o ABSOLUTE
    main.c                                   0x00000000   Number         0  main.o ABSOLUTE
    mcu_stm32l41x_flash.c                    0x00000000   Number         0  mcu_stm32l41x_flash.o ABSOLUTE
    mcu_stm32l41x_gpio.c                     0x00000000   Number         0  mcu_stm32l41x_gpio.o ABSOLUTE
    mcu_stm32l41x_i2c.c                      0x00000000   Number         0  mcu_stm32l41x_i2c.o ABSOLUTE
    mcu_stm32l41x_it.c                       0x00000000   Number         0  mcu_stm32l41x_it.o ABSOLUTE
    mcu_stm32l41x_qspi.c                     0x00000000   Number         0  mcu_stm32l41x_qspi.o ABSOLUTE
    mcu_stm32l41x_sdio.c                     0x00000000   Number         0  mcu_stm32l41x_sdio.o ABSOLUTE
    mcu_stm32l41x_spi.c                      0x00000000   Number         0  mcu_stm32l41x_spi.o ABSOLUTE
    mcu_stm32l41x_uart.c                     0x00000000   Number         0  mcu_stm32l41x_uart.o ABSOLUTE
    md.c                                     0x00000000   Number         0  md.o ABSOLUTE
    md5.c                                    0x00000000   Number         0  md5.o ABSOLUTE
    memory_buffer_alloc.c                    0x00000000   Number         0  memory_buffer_alloc.o ABSOLUTE
    mps_reader.c                             0x00000000   Number         0  mps_reader.o ABSOLUTE
    mps_trace.c                              0x00000000   Number         0  mps_trace.o ABSOLUTE
    net_sockets.c                            0x00000000   Number         0  net_sockets.o ABSOLUTE
    nist_kw.c                                0x00000000   Number         0  nist_kw.o ABSOLUTE
    oid.c                                    0x00000000   Number         0  oid.o ABSOLUTE
    padlock.c                                0x00000000   Number         0  padlock.o ABSOLUTE
    pem.c                                    0x00000000   Number         0  pem.o ABSOLUTE
    pk.c                                     0x00000000   Number         0  pk.o ABSOLUTE
    pk_ecc.c                                 0x00000000   Number         0  pk_ecc.o ABSOLUTE
    pk_wrap.c                                0x00000000   Number         0  pk_wrap.o ABSOLUTE
    pkcs12.c                                 0x00000000   Number         0  pkcs12.o ABSOLUTE
    pkcs5.c                                  0x00000000   Number         0  pkcs5.o ABSOLUTE
    pkcs7.c                                  0x00000000   Number         0  pkcs7.o ABSOLUTE
    pkparse.c                                0x00000000   Number         0  pkparse.o ABSOLUTE
    pkwrite.c                                0x00000000   Number         0  pkwrite.o ABSOLUTE
    platform.c                               0x00000000   Number         0  platform.o ABSOLUTE
    platform_util.c                          0x00000000   Number         0  platform_util.o ABSOLUTE
    poly1305.c                               0x00000000   Number         0  poly1305.o ABSOLUTE
    psa_crypto.c                             0x00000000   Number         0  psa_crypto.o ABSOLUTE
    psa_crypto_aead.c                        0x00000000   Number         0  psa_crypto_aead.o ABSOLUTE
    psa_crypto_cipher.c                      0x00000000   Number         0  psa_crypto_cipher.o ABSOLUTE
    psa_crypto_client.c                      0x00000000   Number         0  psa_crypto_client.o ABSOLUTE
    psa_crypto_driver_wrappers_no_static.c   0x00000000   Number         0  psa_crypto_driver_wrappers_no_static.o ABSOLUTE
    psa_crypto_ecp.c                         0x00000000   Number         0  psa_crypto_ecp.o ABSOLUTE
    psa_crypto_ffdh.c                        0x00000000   Number         0  psa_crypto_ffdh.o ABSOLUTE
    psa_crypto_hash.c                        0x00000000   Number         0  psa_crypto_hash.o ABSOLUTE
    psa_crypto_mac.c                         0x00000000   Number         0  psa_crypto_mac.o ABSOLUTE
    psa_crypto_pake.c                        0x00000000   Number         0  psa_crypto_pake.o ABSOLUTE
    psa_crypto_rsa.c                         0x00000000   Number         0  psa_crypto_rsa.o ABSOLUTE
    psa_crypto_se.c                          0x00000000   Number         0  psa_crypto_se.o ABSOLUTE
    psa_crypto_slot_management.c             0x00000000   Number         0  psa_crypto_slot_management.o ABSOLUTE
    psa_crypto_storage.c                     0x00000000   Number         0  psa_crypto_storage.o ABSOLUTE
    psa_its_file.c                           0x00000000   Number         0  psa_its_file.o ABSOLUTE
    psa_util.c                               0x00000000   Number         0  psa_util.o ABSOLUTE
    ripemd160.c                              0x00000000   Number         0  ripemd160.o ABSOLUTE
    rsa.c                                    0x00000000   Number         0  rsa.o ABSOLUTE
    rsa_alt_helpers.c                        0x00000000   Number         0  rsa_alt_helpers.o ABSOLUTE
    sfud.c                                   0x00000000   Number         0  sfud.o ABSOLUTE
    sfud_sfdp.c                              0x00000000   Number         0  sfud_sfdp.o ABSOLUTE
    sha1.c                                   0x00000000   Number         0  sha1.o ABSOLUTE
    sha256.c                                 0x00000000   Number         0  sha256.o ABSOLUTE
    sha3.c                                   0x00000000   Number         0  sha3.o ABSOLUTE
    sha512.c                                 0x00000000   Number         0  sha512.o ABSOLUTE
    ssl_cache.c                              0x00000000   Number         0  ssl_cache.o ABSOLUTE
    ssl_ciphersuites.c                       0x00000000   Number         0  ssl_ciphersuites.o ABSOLUTE
    ssl_client.c                             0x00000000   Number         0  ssl_client.o ABSOLUTE
    ssl_cookie.c                             0x00000000   Number         0  ssl_cookie.o ABSOLUTE
    ssl_debug_helpers_generated.c            0x00000000   Number         0  ssl_debug_helpers_generated.o ABSOLUTE
    ssl_msg.c                                0x00000000   Number         0  ssl_msg.o ABSOLUTE
    ssl_ticket.c                             0x00000000   Number         0  ssl_ticket.o ABSOLUTE
    ssl_tls.c                                0x00000000   Number         0  ssl_tls.o ABSOLUTE
    ssl_tls12_client.c                       0x00000000   Number         0  ssl_tls12_client.o ABSOLUTE
    ssl_tls12_server.c                       0x00000000   Number         0  ssl_tls12_server.o ABSOLUTE
    ssl_tls13_client.c                       0x00000000   Number         0  ssl_tls13_client.o ABSOLUTE
    ssl_tls13_generic.c                      0x00000000   Number         0  ssl_tls13_generic.o ABSOLUTE
    ssl_tls13_keys.c                         0x00000000   Number         0  ssl_tls13_keys.o ABSOLUTE
    ssl_tls13_server.c                       0x00000000   Number         0  ssl_tls13_server.o ABSOLUTE
    startup_stm32l431xx.s                    0x00000000   Number         0  startup_stm32l431xx.o ABSOLUTE
    stm32l4xx_hal.c                          0x00000000   Number         0  stm32l4xx_hal.o ABSOLUTE
    stm32l4xx_hal_adc.c                      0x00000000   Number         0  stm32l4xx_hal_adc.o ABSOLUTE
    stm32l4xx_hal_adc_ex.c                   0x00000000   Number         0  stm32l4xx_hal_adc_ex.o ABSOLUTE
    stm32l4xx_hal_cortex.c                   0x00000000   Number         0  stm32l4xx_hal_cortex.o ABSOLUTE
    stm32l4xx_hal_dma.c                      0x00000000   Number         0  stm32l4xx_hal_dma.o ABSOLUTE
    stm32l4xx_hal_dma_ex.c                   0x00000000   Number         0  stm32l4xx_hal_dma_ex.o ABSOLUTE
    stm32l4xx_hal_flash.c                    0x00000000   Number         0  stm32l4xx_hal_flash.o ABSOLUTE
    stm32l4xx_hal_flash_ex.c                 0x00000000   Number         0  stm32l4xx_hal_flash_ex.o ABSOLUTE
    stm32l4xx_hal_flash_ramfunc.c            0x00000000   Number         0  stm32l4xx_hal_flash_ramfunc.o ABSOLUTE
    stm32l4xx_hal_gpio.c                     0x00000000   Number         0  stm32l4xx_hal_gpio.o ABSOLUTE
    stm32l4xx_hal_i2c.c                      0x00000000   Number         0  stm32l4xx_hal_i2c.o ABSOLUTE
    stm32l4xx_hal_i2c_ex.c                   0x00000000   Number         0  stm32l4xx_hal_i2c_ex.o ABSOLUTE
    stm32l4xx_hal_iwdg.c                     0x00000000   Number         0  stm32l4xx_hal_iwdg.o ABSOLUTE
    stm32l4xx_hal_mmc.c                      0x00000000   Number         0  stm32l4xx_hal_mmc.o ABSOLUTE
    stm32l4xx_hal_mmc_ex.c                   0x00000000   Number         0  stm32l4xx_hal_mmc_ex.o ABSOLUTE
    stm32l4xx_hal_msp.c                      0x00000000   Number         0  stm32l4xx_hal_msp.o ABSOLUTE
    stm32l4xx_hal_pwr.c                      0x00000000   Number         0  stm32l4xx_hal_pwr.o ABSOLUTE
    stm32l4xx_hal_pwr_ex.c                   0x00000000   Number         0  stm32l4xx_hal_pwr_ex.o ABSOLUTE
    stm32l4xx_hal_qspi.c                     0x00000000   Number         0  stm32l4xx_hal_qspi.o ABSOLUTE
    stm32l4xx_hal_rcc.c                      0x00000000   Number         0  stm32l4xx_hal_rcc.o ABSOLUTE
    stm32l4xx_hal_rcc_ex.c                   0x00000000   Number         0  stm32l4xx_hal_rcc_ex.o ABSOLUTE
    stm32l4xx_hal_sd.c                       0x00000000   Number         0  stm32l4xx_hal_sd.o ABSOLUTE
    stm32l4xx_hal_sd_ex.c                    0x00000000   Number         0  stm32l4xx_hal_sd_ex.o ABSOLUTE
    stm32l4xx_hal_smartcard.c                0x00000000   Number         0  stm32l4xx_hal_smartcard.o ABSOLUTE
    stm32l4xx_hal_smartcard_ex.c             0x00000000   Number         0  stm32l4xx_hal_smartcard_ex.o ABSOLUTE
    stm32l4xx_hal_spi.c                      0x00000000   Number         0  stm32l4xx_hal_spi.o ABSOLUTE
    stm32l4xx_hal_spi_ex.c                   0x00000000   Number         0  stm32l4xx_hal_spi_ex.o ABSOLUTE
    stm32l4xx_hal_tim.c                      0x00000000   Number         0  stm32l4xx_hal_tim.o ABSOLUTE
    stm32l4xx_hal_tim_ex.c                   0x00000000   Number         0  stm32l4xx_hal_tim_ex.o ABSOLUTE
    stm32l4xx_hal_uart.c                     0x00000000   Number         0  stm32l4xx_hal_uart.o ABSOLUTE
    stm32l4xx_hal_uart_ex.c                  0x00000000   Number         0  stm32l4xx_hal_uart_ex.o ABSOLUTE
    stm32l4xx_hal_usart.c                    0x00000000   Number         0  stm32l4xx_hal_usart.o ABSOLUTE
    stm32l4xx_hal_usart_ex.c                 0x00000000   Number         0  stm32l4xx_hal_usart_ex.o ABSOLUTE
    stm32l4xx_hal_wwdg.c                     0x00000000   Number         0  stm32l4xx_hal_wwdg.o ABSOLUTE
    stm32l4xx_it.c                           0x00000000   Number         0  stm32l4xx_it.o ABSOLUTE
    stm32l4xx_ll_sdmmc.c                     0x00000000   Number         0  stm32l4xx_ll_sdmmc.o ABSOLUTE
    system_stm32l4xx.c                       0x00000000   Number         0  system_stm32l4xx.o ABSOLUTE
    threading.c                              0x00000000   Number         0  threading.o ABSOLUTE
    timing.c                                 0x00000000   Number         0  timing.o ABSOLUTE
    ugui.c                                   0x00000000   Number         0  ugui.o ABSOLUTE
    version.c                                0x00000000   Number         0  version.o ABSOLUTE
    version_features.c                       0x00000000   Number         0  version_features.o ABSOLUTE
    x509.c                                   0x00000000   Number         0  x509.o ABSOLUTE
    x509_create.c                            0x00000000   Number         0  x509_create.o ABSOLUTE
    x509_crl.c                               0x00000000   Number         0  x509_crl.o ABSOLUTE
    x509_crt.c                               0x00000000   Number         0  x509_crt.o ABSOLUTE
    x509_csr.c                               0x00000000   Number         0  x509_csr.o ABSOLUTE
    x509write.c                              0x00000000   Number         0  x509write.o ABSOLUTE
    x509write_crt.c                          0x00000000   Number         0  x509write_crt.o ABSOLUTE
    x509write_csr.c                          0x00000000   Number         0  x509write_csr.o ABSOLUTE
    RESET                                    0x08000000   Section      396  startup_stm32l431xx.o(RESET)
    .ARM.Collect$$$$00000000                 0x0800018c   Section        0  entry.o(.ARM.Collect$$$$00000000)
    .ARM.Collect$$$$00000001                 0x0800018c   Section        4  entry2.o(.ARM.Collect$$$$00000001)
    .ARM.Collect$$$$00000004                 0x08000190   Section        4  entry5.o(.ARM.Collect$$$$00000004)
    .ARM.Collect$$$$00000008                 0x08000194   Section        0  entry7b.o(.ARM.Collect$$$$00000008)
    .ARM.Collect$$$$0000000A                 0x08000194   Section        0  entry8b.o(.ARM.Collect$$$$0000000A)
    .ARM.Collect$$$$0000000B                 0x08000194   Section        8  entry9a.o(.ARM.Collect$$$$0000000B)
    __lit__00000000                          0x0800019c   Data           4  entry2.o(.ARM.Collect$$$$00002712)
    .ARM.Collect$$$$0000000D                 0x0800019c   Section        0  entry10a.o(.ARM.Collect$$$$0000000D)
    .ARM.Collect$$$$0000000F                 0x0800019c   Section        0  entry11a.o(.ARM.Collect$$$$0000000F)
    .ARM.Collect$$$$00002712                 0x0800019c   Section        4  entry2.o(.ARM.Collect$$$$00002712)
    $v0                                      0x080001a0   Number         0  startup_stm32l431xx.o(.text)
    .text                                    0x080001a0   Section       36  startup_stm32l431xx.o(.text)
    .text                                    0x080001c4   Section        0  uldiv.o(.text)
    .text                                    0x0800022c   Section        0  ldiv.o(.text)
    .text                                    0x0800028e   Section        0  tolower.o(.text)
    .text                                    0x0800029c   Section        0  rand.o(.text)
    .text                                    0x080002c0   Section        0  memmovea.o(.text)
    .text                                    0x08000300   Section        0  memseta.o(.text)
    .text                                    0x08000324   Section        0  strstr.o(.text)
    .text                                    0x08000348   Section        0  strncpy.o(.text)
    .text                                    0x08000360   Section        0  strchr.o(.text)
    .text                                    0x08000374   Section        0  strlen.o(.text)
    .text                                    0x08000382   Section        0  strcmp.o(.text)
    .text                                    0x0800039e   Section        0  memchr.o(.text)
    .text                                    0x080003b2   Section        0  memcmp.o(.text)
    .text                                    0x080003cc   Section        0  strcpy.o(.text)
    .text                                    0x080003de   Section        0  strncmp.o(.text)
    .text                                    0x080003fc   Section        0  __0sscanf.o(.text)
    .text                                    0x08000434   Section        0  _scanf_int.o(.text)
    .text                                    0x08000586   Section        0  _scanf_str.o(.text)
    _fp_value                                0x0800066d   Thumb Code   296  scanf_fp.o(.text)
    .text                                    0x0800066c   Section        0  scanf_fp.o(.text)
    .text                                    0x080009d2   Section        0  atoi.o(.text)
    .text                                    0x080009ec   Section        0  dadd.o(.text)
    .text                                    0x08000b4a   Section        0  dmul.o(.text)
    .text                                    0x08000c34   Section        0  ddiv.o(.text)
    .text                                    0x08000d12   Section        0  dcmple.o(.text)
    .text                                    0x08000d48   Section        0  dcmpge.o(.text)
    .text                                    0x08000d7e   Section        0  dfltui.o(.text)
    .text                                    0x08000d98   Section        0  dfltl.o(.text)
    .text                                    0x08000dc0   Section        0  dfixi.o(.text)
    .text                                    0x08000dfe   Section        0  dfixui.o(.text)
    .text                                    0x08000e30   Section        0  dfixl.o(.text)
    .text                                    0x08000e7a   Section        0  uidiv.o(.text)
    .text                                    0x08000ea6   Section        0  llshl.o(.text)
    .text                                    0x08000ec4   Section        0  llushr.o(.text)
    .text                                    0x08000ee4   Section        0  llsshr.o(.text)
    .text                                    0x08000f08   Section        0  _chval.o(.text)
    _scanf_char_input                        0x08000f25   Thumb Code    12  scanf_char.o(.text)
    .text                                    0x08000f24   Section        0  scanf_char.o(.text)
    .text                                    0x08000f4c   Section        0  _sgetc.o(.text)
    _local_sscanf                            0x08000f8d   Thumb Code    62  strtod.o(.text)
    .text                                    0x08000f8c   Section        0  strtod.o(.text)
    .text                                    0x08001034   Section        0  strtol.o(.text)
    .text                                    0x080010a4   Section        0  iusefp.o(.text)
    .text                                    0x080010a4   Section        0  depilogue.o(.text)
    .text                                    0x0800115e   Section        0  dfltul.o(.text)
    .text                                    0x08001176   Section        0  dfixul.o(.text)
    .text                                    0x080011a8   Section       48  cdrcmple.o(.text)
    .text                                    0x080011d8   Section        0  d2f.o(.text)
    .text                                    0x08001210   Section       48  init.o(.text)
    .text                                    0x08001240   Section        0  ctype_o.o(.text)
    .text                                    0x08001248   Section        0  isspace_o.o(.text)
    .text                                    0x0800125c   Section        0  _scanf.o(.text)
    .text                                    0x0800158e   Section        0  _strtoul.o(.text)
    .text                                    0x08001632   Section        0  fepilogue.o(.text)
    .text                                    0x080016a0   Section        0  __dczerorl.o(.text)
    [Anonymous Symbol]                       0x080016dc   Section        0  stm32l4xx_it.o(.text.BusFault_Handler)
    [Anonymous Symbol]                       0x080016de   Section        0  stm32l4xx_it.o(.text.DebugMon_Handler)
    [Anonymous Symbol]                       0x080016e0   Section        0  main.o(.text.DisplayTask)
    [Anonymous Symbol]                       0x080018e8   Section        0  main.o(.text.Error_Handler)
    [Anonymous Symbol]                       0x080018f2   Section        0  stm32l4xx_hal_dma.o(.text.HAL_DMA_Abort)
    [Anonymous Symbol]                       0x08001936   Section        0  stm32l4xx_hal_dma.o(.text.HAL_DMA_Abort_IT)
    [Anonymous Symbol]                       0x08001990   Section        0  stm32l4xx_hal_gpio.o(.text.HAL_GPIO_Init)
    [Anonymous Symbol]                       0x08001b34   Section        0  stm32l4xx_hal_gpio.o(.text.HAL_GPIO_WritePin)
    [Anonymous Symbol]                       0x08001b40   Section        0  stm32l4xx_hal.o(.text.HAL_GetTick)
    [Anonymous Symbol]                       0x08001b4c   Section        0  stm32l4xx_hal.o(.text.HAL_IncTick)
    [Anonymous Symbol]                       0x08001b66   Section        0  stm32l4xx_hal.o(.text.HAL_Init)
    [Anonymous Symbol]                       0x08001b82   Section        0  stm32l4xx_hal.o(.text.HAL_InitTick)
    [Anonymous Symbol]                       0x08001bd6   Section        0  stm32l4xx_hal_msp.o(.text.HAL_MspInit)
    [Anonymous Symbol]                       0x08001c08   Section        0  stm32l4xx_hal_cortex.o(.text.HAL_NVIC_EnableIRQ)
    [Anonymous Symbol]                       0x08001c28   Section        0  stm32l4xx_hal_cortex.o(.text.HAL_NVIC_SetPriority)
    [Anonymous Symbol]                       0x08001c7e   Section        0  stm32l4xx_hal_cortex.o(.text.HAL_NVIC_SetPriorityGrouping)
    [Anonymous Symbol]                       0x08001ca0   Section        0  stm32l4xx_hal_pwr_ex.o(.text.HAL_PWREx_ControlVoltageScaling)
    [Anonymous Symbol]                       0x08001d24   Section        0  stm32l4xx_hal_pwr_ex.o(.text.HAL_PWREx_GetVoltageRange)
    [Anonymous Symbol]                       0x08001d34   Section        0  stm32l4xx_hal_qspi.o(.text.HAL_QSPI_Init)
    [Anonymous Symbol]                       0x08001de8   Section        0  stm32l4xx_hal_msp.o(.text.HAL_QSPI_MspInit)
    [Anonymous Symbol]                       0x08001e54   Section        0  stm32l4xx_hal_rcc_ex.o(.text.HAL_RCCEx_PeriphCLKConfig)
    [Anonymous Symbol]                       0x080020bc   Section        0  stm32l4xx_hal_rcc.o(.text.HAL_RCC_ClockConfig)
    [Anonymous Symbol]                       0x0800221c   Section        0  stm32l4xx_hal_rcc.o(.text.HAL_RCC_GetPCLK1Freq)
    [Anonymous Symbol]                       0x08002246   Section        0  stm32l4xx_hal_rcc.o(.text.HAL_RCC_GetPCLK2Freq)
    [Anonymous Symbol]                       0x08002270   Section        0  stm32l4xx_hal_rcc.o(.text.HAL_RCC_GetSysClockFreq)
    [Anonymous Symbol]                       0x08002328   Section        0  stm32l4xx_hal_rcc.o(.text.HAL_RCC_OscConfig)
    [Anonymous Symbol]                       0x0800291c   Section        0  stm32l4xx_hal_spi.o(.text.HAL_SPI_Init)
    [Anonymous Symbol]                       0x080029f4   Section        0  stm32l4xx_hal_msp.o(.text.HAL_SPI_MspInit)
    [Anonymous Symbol]                       0x08002a94   Section        0  stm32l4xx_hal_cortex.o(.text.HAL_SYSTICK_Config)
    [Anonymous Symbol]                       0x08002ac0   Section        0  stm32l4xx_hal_uart.o(.text.HAL_UARTEx_RxEventCallback)
    [Anonymous Symbol]                       0x08002ac2   Section        0  stm32l4xx_hal_uart_ex.o(.text.HAL_UARTEx_WakeupCallback)
    [Anonymous Symbol]                       0x08002ac4   Section        0  stm32l4xx_hal_uart.o(.text.HAL_UART_ErrorCallback)
    [Anonymous Symbol]                       0x08002ac8   Section        0  stm32l4xx_hal_uart.o(.text.HAL_UART_IRQHandler)
    [Anonymous Symbol]                       0x08002d92   Section        0  stm32l4xx_hal_uart.o(.text.HAL_UART_Init)
    [Anonymous Symbol]                       0x08002df0   Section        0  stm32l4xx_hal_msp.o(.text.HAL_UART_MspInit)
    [Anonymous Symbol]                       0x08002ee0   Section        0  stm32l4xx_hal_uart.o(.text.HAL_UART_Receive_IT)
    [Anonymous Symbol]                       0x08002f44   Section        0  main.o(.text.HAL_UART_RxCpltCallback)
    [Anonymous Symbol]                       0x08002f8a   Section        0  stm32l4xx_hal_uart.o(.text.HAL_UART_TxCpltCallback)
    [Anonymous Symbol]                       0x08002f8c   Section        0  stm32l4xx_it.o(.text.HardFault_Handler)
    [Anonymous Symbol]                       0x08002f8e   Section        0  stm32l4xx_it.o(.text.LPUART1_IRQHandler)
    [Anonymous Symbol]                       0x08002f9a   Section        0  mqttdeserializepublish.o(.text.MQTTDeserialize_publish)
    [Anonymous Symbol]                       0x08003020   Section        0  mqttpacket.o(.text.MQTTPacket_decodeBuf)
    [Anonymous Symbol]                       0x08003068   Section        0  mqttpacket.o(.text.MQTTPacket_encode)
    [Anonymous Symbol]                       0x08003090   Section        0  mqttpacket.o(.text.MQTTPacket_len)
    [Anonymous Symbol]                       0x080030b8   Section        0  mqttconnectclient.o(.text.MQTTSerialize_connect)
    [Anonymous Symbol]                       0x080031cc   Section        0  mqttconnectclient.o(.text.MQTTSerialize_connectLength)
    [Anonymous Symbol]                       0x0800323e   Section        0  mqttconnectclient.o(.text.MQTTSerialize_pingreq)
    [Anonymous Symbol]                       0x08003244   Section        0  mqttsubscribeclient.o(.text.MQTTSerialize_subscribe)
    [Anonymous Symbol]                       0x080032cc   Section        0  mqttsubscribeclient.o(.text.MQTTSerialize_subscribeLength)
    [Anonymous Symbol]                       0x080032f4   Section        0  mqttconnectclient.o(.text.MQTTSerialize_zero)
    [Anonymous Symbol]                       0x08003322   Section        0  mqttpacket.o(.text.MQTTstrlen)
    [Anonymous Symbol]                       0x08003330   Section        0  stm32l4xx_it.o(.text.MemManage_Handler)
    [Anonymous Symbol]                       0x08003334   Section        0  stm32l4xx_it.o(.text.NMI_Handler)
    [Anonymous Symbol]                       0x08003336   Section        0  stm32l4xx_it.o(.text.PendSV_Handler)
    QSPI_WaitFlagStateUntilTimeout           0x08003339   Thumb Code    96  stm32l4xx_hal_qspi.o(.text.QSPI_WaitFlagStateUntilTimeout)
    [Anonymous Symbol]                       0x08003338   Section        0  stm32l4xx_hal_qspi.o(.text.QSPI_WaitFlagStateUntilTimeout)
    RCCEx_PLLSAI1_Config                     0x08003399   Thumb Code   314  stm32l4xx_hal_rcc_ex.o(.text.RCCEx_PLLSAI1_Config)
    [Anonymous Symbol]                       0x08003398   Section        0  stm32l4xx_hal_rcc_ex.o(.text.RCCEx_PLLSAI1_Config)
    RCC_SetFlashLatencyFromMSIRange          0x080034d3   Thumb Code   138  stm32l4xx_hal_rcc.o(.text.RCC_SetFlashLatencyFromMSIRange)
    [Anonymous Symbol]                       0x080034d2   Section        0  stm32l4xx_hal_rcc.o(.text.RCC_SetFlashLatencyFromMSIRange)
    [Anonymous Symbol]                       0x0800355c   Section        0  stm32l4xx_it.o(.text.SVC_Handler)
    [Anonymous Symbol]                       0x0800355e   Section        0  stm32l4xx_it.o(.text.SysTick_Handler)
    [Anonymous Symbol]                       0x0800356c   Section        0  main.o(.text.SystemClock_Config)
    [Anonymous Symbol]                       0x080035ea   Section        0  system_stm32l4xx.o(.text.SystemInit)
    [Anonymous Symbol]                       0x080035fc   Section        0  stm32l4xx_hal_uart.o(.text.UART_AdvFeatureConfig)
    [Anonymous Symbol]                       0x080036c8   Section        0  stm32l4xx_hal_uart.o(.text.UART_CheckIdleState)
    UART_DMAAbortOnError                     0x08003731   Thumb Code    16  stm32l4xx_hal_uart.o(.text.UART_DMAAbortOnError)
    [Anonymous Symbol]                       0x08003730   Section        0  stm32l4xx_hal_uart.o(.text.UART_DMAAbortOnError)
    UART_EndRxTransfer                       0x08003741   Thumb Code    80  stm32l4xx_hal_uart.o(.text.UART_EndRxTransfer)
    [Anonymous Symbol]                       0x08003740   Section        0  stm32l4xx_hal_uart.o(.text.UART_EndRxTransfer)
    UART_RxISR_16BIT                         0x08003791   Thumb Code   154  stm32l4xx_hal_uart.o(.text.UART_RxISR_16BIT)
    [Anonymous Symbol]                       0x08003790   Section        0  stm32l4xx_hal_uart.o(.text.UART_RxISR_16BIT)
    UART_RxISR_8BIT                          0x0800382d   Thumb Code   158  stm32l4xx_hal_uart.o(.text.UART_RxISR_8BIT)
    [Anonymous Symbol]                       0x0800382c   Section        0  stm32l4xx_hal_uart.o(.text.UART_RxISR_8BIT)
    [Anonymous Symbol]                       0x080038cc   Section        0  stm32l4xx_hal_uart.o(.text.UART_SetConfig)
    [Anonymous Symbol]                       0x08003acc   Section        0  stm32l4xx_hal_uart.o(.text.UART_Start_Receive_IT)
    [Anonymous Symbol]                       0x08003b9c   Section        0  stm32l4xx_hal_uart.o(.text.UART_WaitOnFlagUntilTimeout)
    [Anonymous Symbol]                       0x08003c78   Section        0  ugui.o(.text.UG_DrawLine)
    [Anonymous Symbol]                       0x08003d98   Section        0  ugui.o(.text.UG_DriverRegister)
    [Anonymous Symbol]                       0x08003db8   Section        0  ugui.o(.text.UG_FillFrame)
    [Anonymous Symbol]                       0x08003e3e   Section        0  ugui.o(.text.UG_FillScreen)
    [Anonymous Symbol]                       0x08003e6a   Section        0  ugui.o(.text.UG_FontSelect)
    [Anonymous Symbol]                       0x08003e88   Section        0  ugui.o(.text.UG_GetUnicode)
    [Anonymous Symbol]                       0x08004030   Section        0  ugui.o(.text.UG_Init)
    [Anonymous Symbol]                       0x080040a8   Section        0  ugui.o(.text.UG_PutString)
    [Anonymous Symbol]                       0x08004182   Section        0  ugui.o(.text.UG_SelectGUI)
    [Anonymous Symbol]                       0x08004192   Section        0  ugui.o(.text.UG_SetBackcolor)
    [Anonymous Symbol]                       0x080041a2   Section        0  ugui.o(.text.UG_SetForecolor)
    [Anonymous Symbol]                       0x080041b2   Section        0  ugui.o(.text.UG_TouchUpdate)
    [Anonymous Symbol]                       0x080041c4   Section        0  ugui.o(.text.UG_Update)
    [Anonymous Symbol]                       0x08004266   Section        0  stm32l4xx_it.o(.text.USART1_IRQHandler)
    [Anonymous Symbol]                       0x08004274   Section        0  stm32l4xx_it.o(.text.UsageFault_Handler)
    [Anonymous Symbol]                       0x08004276   Section        0  main.o(.text.WeatherTask)
    _ButtonEventHandler                      0x08004387   Thumb Code    24  main.o(.text._ButtonEventHandler)
    [Anonymous Symbol]                       0x08004386   Section        0  main.o(.text._ButtonEventHandler)
    _HttpCb                                  0x080043a1   Thumb Code   228  main.o(.text._HttpCb)
    [Anonymous Symbol]                       0x080043a0   Section        0  main.o(.text._HttpCb)
    _LCD_FillRect                            0x080044e1   Thumb Code   204  b_mod_gui.o(.text._LCD_FillRect)
    [Anonymous Symbol]                       0x080044e0   Section        0  b_mod_gui.o(.text._LCD_FillRect)
    _LCD_SetColorPixel                       0x080045ad   Thumb Code    98  b_mod_gui.o(.text._LCD_SetColorPixel)
    [Anonymous Symbol]                       0x080045ac   Section        0  b_mod_gui.o(.text._LCD_SetColorPixel)
    [Anonymous Symbol]                       0x0800460e   Section        0  ugui.o(.text._UG_DrawObjectFrame)
    [Anonymous Symbol]                       0x0800474c   Section        0  ugui.o(.text._UG_HandleEvents)
    [Anonymous Symbol]                       0x080047ac   Section        0  ugui.o(.text._UG_ProcessTouchData)
    [Anonymous Symbol]                       0x08004870   Section        0  ugui.o(.text._UG_PutChar)
    [Anonymous Symbol]                       0x08004c10   Section        0  ugui.o(.text._UG_PutText)
    [Anonymous Symbol]                       0x08004dec   Section        0  ugui.o(.text._UG_UpdateObjects)
    [Anonymous Symbol]                       0x08004e48   Section        0  ugui.o(.text._UG_WindowDrawTitle)
    [Anonymous Symbol]                       0x08004f30   Section        0  ugui.o(.text._UG_WindowUpdate)
    _WifiEvtCb                               0x08005005   Thumb Code   160  main.o(.text._WifiEvtCb)
    [Anonymous Symbol]                       0x08005004   Section        0  main.o(.text._WifiEvtCb)
    _bAtCmdCb                                0x080050c9   Thumb Code    52  b_drv_esp12f.o(.text._bAtCmdCb)
    [Anonymous Symbol]                       0x080050c8   Section        0  b_drv_esp12f.o(.text._bAtCmdCb)
    _bAtFree                                 0x08005119   Thumb Code     4  b_util_at.o(.text._bAtFree)
    [Anonymous Symbol]                       0x08005118   Section        0  b_util_at.o(.text._bAtFree)
    _bAtNewDataCb                            0x0800511d   Thumb Code   236  b_drv_esp12f.o(.text._bAtNewDataCb)
    [Anonymous Symbol]                       0x0800511c   Section        0  b_drv_esp12f.o(.text._bAtNewDataCb)
    _bAtSendData                             0x0800524f   Thumb Code    62  b_drv_esp12f.o(.text._bAtSendData)
    [Anonymous Symbol]                       0x0800524e   Section        0  b_drv_esp12f.o(.text._bAtSendData)
    _bButtonCallback                         0x0800528d   Thumb Code    52  b_mod_button.o(.text._bButtonCallback)
    [Anonymous Symbol]                       0x0800528c   Section        0  b_mod_button.o(.text._bButtonCallback)
    _bButtonCore                             0x080052c1   Thumb Code    38  b_mod_button.o(.text._bButtonCore)
    [Anonymous Symbol]                       0x080052c0   Section        0  b_mod_button.o(.text._bButtonCore)
    _bButtonFindInstance                     0x080052e9   Thumb Code    56  b_mod_button.o(.text._bButtonFindInstance)
    [Anonymous Symbol]                       0x080052e8   Section        0  b_mod_button.o(.text._bButtonFindInstance)
    _bButtonRead                             0x08005321   Thumb Code    70  b_mod_button.o(.text._bButtonRead)
    [Anonymous Symbol]                       0x08005320   Section        0  b_mod_button.o(.text._bButtonRead)
    _bCloseTcpUdp                            0x08005369   Thumb Code    36  b_drv_esp12f.o(.text._bCloseTcpUdp)
    [Anonymous Symbol]                       0x08005368   Section        0  b_drv_esp12f.o(.text._bCloseTcpUdp)
    _bCoreMonitor                            0x080053a1   Thumb Code     2  b_core.o(.text._bCoreMonitor)
    [Anonymous Symbol]                       0x080053a0   Section        0  b_core.o(.text._bCoreMonitor)
    _bDriverNullInit                         0x080053a3   Thumb Code     4  b_device.o(.text._bDriverNullInit)
    [Anonymous Symbol]                       0x080053a2   Section        0  b_device.o(.text._bDriverNullInit)
    _bESP12FCtl                              0x080053a9   Thumb Code   848  b_drv_esp12f.o(.text._bESP12FCtl)
    [Anonymous Symbol]                       0x080053a8   Section        0  b_drv_esp12f.o(.text._bESP12FCtl)
    _bEsp12fCtlResult                        0x08005749   Thumb Code   184  b_drv_esp12f.o(.text._bEsp12fCtlResult)
    [Anonymous Symbol]                       0x08005748   Section        0  b_drv_esp12f.o(.text._bEsp12fCtlResult)
    _bEsp12fGetConn                          0x08005825   Thumb Code    72  b_drv_esp12f.o(.text._bEsp12fGetConn)
    [Anonymous Symbol]                       0x08005824   Section        0  b_drv_esp12f.o(.text._bEsp12fGetConn)
    _bGUI_Core                               0x0800586d   Thumb Code   196  b_mod_gui.o(.text._bGUI_Core)
    [Anonymous Symbol]                       0x0800586c   Section        0  b_mod_gui.o(.text._bGUI_Core)
    _bHalItHandler                           0x08005931   Thumb Code    68  b_hal_uart.o(.text._bHalItHandler)
    [Anonymous Symbol]                       0x08005930   Section        0  b_hal_uart.o(.text._bHalItHandler)
    _bHalUartDetectIdle                      0x08005975   Thumb Code   144  b_hal_uart.o(.text._bHalUartDetectIdle)
    [Anonymous Symbol]                       0x08005974   Section        0  b_hal_uart.o(.text._bHalUartDetectIdle)
    _bHalUartIdleCb                          0x08005a05   Thumb Code    24  b_drv_esp12f.o(.text._bHalUartIdleCb)
    [Anonymous Symbol]                       0x08005a04   Section        0  b_drv_esp12f.o(.text._bHalUartIdleCb)
    _bHttpParseComplete                      0x08005a1d   Thumb Code    10  b_srv_tcpip.o(.text._bHttpParseComplete)
    [Anonymous Symbol]                       0x08005a1c   Section        0  b_srv_tcpip.o(.text._bHttpParseComplete)
    _bHttpResult                             0x08005a27   Thumb Code    98  b_srv_tcpip.o(.text._bHttpResult)
    [Anonymous Symbol]                       0x08005a26   Section        0  b_srv_tcpip.o(.text._bHttpResult)
    [Anonymous Symbol]                       0x08005a88   Section        0  b_srv_tcpip.o(.text._bHttpTaskFunc)
    _bHttpTransCb                            0x08005ea1   Thumb Code     2  b_srv_tcpip.o(.text._bHttpTransCb)
    [Anonymous Symbol]                       0x08005ea0   Section        0  b_srv_tcpip.o(.text._bHttpTransCb)
    _bJoinAp                                 0x08005ea5   Thumb Code    48  b_drv_esp12f.o(.text._bJoinAp)
    [Anonymous Symbol]                       0x08005ea4   Section        0  b_drv_esp12f.o(.text._bJoinAp)
    _bKVClearAll                             0x08005eed   Thumb Code    74  b_mod_kv.o(.text._bKVClearAll)
    [Anonymous Symbol]                       0x08005eec   Section        0  b_mod_kv.o(.text._bKVClearAll)
    _bKVCopyData                             0x08005f39   Thumb Code   116  b_mod_kv.o(.text._bKVCopyData)
    [Anonymous Symbol]                       0x08005f38   Section        0  b_mod_kv.o(.text._bKVCopyData)
    _bKVEraseSector                          0x08005fad   Thumb Code    84  b_mod_kv.o(.text._bKVEraseSector)
    [Anonymous Symbol]                       0x08005fac   Section        0  b_mod_kv.o(.text._bKVEraseSector)
    _bKVFindKey                              0x08006001   Thumb Code   516  b_mod_kv.o(.text._bKVFindKey)
    [Anonymous Symbol]                       0x08006000   Section        0  b_mod_kv.o(.text._bKVFindKey)
    _bKVFindMessyEmptySector                 0x0800620d   Thumb Code   242  b_mod_kv.o(.text._bKVFindMessyEmptySector)
    [Anonymous Symbol]                       0x0800620c   Section        0  b_mod_kv.o(.text._bKVFindMessyEmptySector)
    _bKVKey2hex8                             0x08006305   Thumb Code    54  b_mod_kv.o(.text._bKVKey2hex8)
    [Anonymous Symbol]                       0x08006304   Section        0  b_mod_kv.o(.text._bKVKey2hex8)
    _bKVReadDataHead                         0x0800633b   Thumb Code    52  b_mod_kv.o(.text._bKVReadDataHead)
    [Anonymous Symbol]                       0x0800633a   Section        0  b_mod_kv.o(.text._bKVReadDataHead)
    _bKVReadSectorHead                       0x0800636f   Thumb Code    84  b_mod_kv.o(.text._bKVReadSectorHead)
    [Anonymous Symbol]                       0x0800636e   Section        0  b_mod_kv.o(.text._bKVReadSectorHead)
    _bKVSectorDefrag                         0x080063c5   Thumb Code   628  b_mod_kv.o(.text._bKVSectorDefrag)
    [Anonymous Symbol]                       0x080063c4   Section        0  b_mod_kv.o(.text._bKVSectorDefrag)
    _bKVSetDataState                         0x08006649   Thumb Code   104  b_mod_kv.o(.text._bKVSetDataState)
    [Anonymous Symbol]                       0x08006648   Section        0  b_mod_kv.o(.text._bKVSetDataState)
    _bKVSetSectorFlag                        0x080066d5   Thumb Code    92  b_mod_kv.o(.text._bKVSetSectorFlag)
    [Anonymous Symbol]                       0x080066d4   Section        0  b_mod_kv.o(.text._bKVSetSectorFlag)
    _bKVSetSectorState                       0x08006731   Thumb Code   136  b_mod_kv.o(.text._bKVSetSectorState)
    [Anonymous Symbol]                       0x08006730   Section        0  b_mod_kv.o(.text._bKVSetSectorState)
    _bKeyRead                                0x080067b9   Thumb Code    38  b_drv_key.o(.text._bKeyRead)
    [Anonymous Symbol]                       0x080067b8   Section        0  b_drv_key.o(.text._bKeyRead)
    _bLcdWriteCmd                            0x080067df   Thumb Code   152  b_drv_st7789.o(.text._bLcdWriteCmd)
    [Anonymous Symbol]                       0x080067de   Section        0  b_drv_st7789.o(.text._bLcdWriteCmd)
    _bLcdWriteData                           0x08006877   Thumb Code   152  b_drv_st7789.o(.text._bLcdWriteData)
    [Anonymous Symbol]                       0x08006876   Section        0  b_drv_st7789.o(.text._bLcdWriteData)
    _bLcdWriteGRam                           0x0800690f   Thumb Code    80  b_drv_st7789.o(.text._bLcdWriteGRam)
    [Anonymous Symbol]                       0x0800690e   Section        0  b_drv_st7789.o(.text._bLcdWriteGRam)
    _bLocalTcpServer                         0x08006961   Thumb Code    40  b_drv_esp12f.o(.text._bLocalTcpServer)
    [Anonymous Symbol]                       0x08006960   Section        0  b_drv_esp12f.o(.text._bLocalTcpServer)
    _bMempAlloc                              0x0800699d   Thumb Code   156  b_util_memp.o(.text._bMempAlloc)
    [Anonymous Symbol]                       0x0800699c   Section        0  b_util_memp.o(.text._bMempAlloc)
    _bMqttRead                               0x08006a89   Thumb Code    40  b_srv_mqtt.o(.text._bMqttRead)
    [Anonymous Symbol]                       0x08006a88   Section        0  b_srv_mqtt.o(.text._bMqttRead)
    [Anonymous Symbol]                       0x08006ab0   Section        0  b_srv_mqtt.o(.text._bMqttTaskFunc)
    _bMqttTimerCb                            0x0800713f   Thumb Code    72  b_srv_mqtt.o(.text._bMqttTimerCb)
    [Anonymous Symbol]                       0x0800713e   Section        0  b_srv_mqtt.o(.text._bMqttTimerCb)
    _bMqttTransCb                            0x08007187   Thumb Code    28  b_srv_mqtt.o(.text._bMqttTransCb)
    [Anonymous Symbol]                       0x08007186   Section        0  b_srv_mqtt.o(.text._bMqttTransCb)
    _bNtpConnCallback                        0x080071a3   Thumb Code     2  b_srv_tcpip.o(.text._bNtpConnCallback)
    [Anonymous Symbol]                       0x080071a2   Section        0  b_srv_tcpip.o(.text._bNtpConnCallback)
    [Anonymous Symbol]                       0x080071a4   Section        0  b_srv_tcpip.o(.text._bNtpTaskFunc)
    bNtpServer                               0x08007508   Number         0  b_srv_tcpip.o(.text._bNtpTaskFunc)
    _bPing                                   0x08007555   Thumb Code    40  b_drv_esp12f.o(.text._bPing)
    [Anonymous Symbol]                       0x08007554   Section        0  b_drv_esp12f.o(.text._bPing)
    _bRemoteTcpServer                        0x0800758d   Thumb Code    56  b_drv_esp12f.o(.text._bRemoteTcpServer)
    [Anonymous Symbol]                       0x0800758c   Section        0  b_drv_esp12f.o(.text._bRemoteTcpServer)
    _bRemoteUdpServer                        0x080075e5   Thumb Code    56  b_drv_esp12f.o(.text._bRemoteUdpServer)
    [Anonymous Symbol]                       0x080075e4   Section        0  b_drv_esp12f.o(.text._bRemoteUdpServer)
    _bSPIFLASH_Close                         0x0800763d   Thumb Code    96  b_drv_spiflash.o(.text._bSPIFLASH_Close)
    [Anonymous Symbol]                       0x0800763c   Section        0  b_drv_spiflash.o(.text._bSPIFLASH_Close)
    _bSPIFLASH_Ctl                           0x0800769d   Thumb Code    60  b_drv_spiflash.o(.text._bSPIFLASH_Ctl)
    [Anonymous Symbol]                       0x0800769c   Section        0  b_drv_spiflash.o(.text._bSPIFLASH_Ctl)
    _bSPIFLASH_Open                          0x080076d9   Thumb Code    96  b_drv_spiflash.o(.text._bSPIFLASH_Open)
    [Anonymous Symbol]                       0x080076d8   Section        0  b_drv_spiflash.o(.text._bSPIFLASH_Open)
    _bSPIFLASH_ReadBuf                       0x08007739   Thumb Code    18  b_drv_spiflash.o(.text._bSPIFLASH_ReadBuf)
    [Anonymous Symbol]                       0x08007738   Section        0  b_drv_spiflash.o(.text._bSPIFLASH_ReadBuf)
    _bSPIFLASH_WriteBuf                      0x0800774b   Thumb Code    18  b_drv_spiflash.o(.text._bSPIFLASH_WriteBuf)
    [Anonymous Symbol]                       0x0800774a   Section        0  b_drv_spiflash.o(.text._bSPIFLASH_WriteBuf)
    _bSPIFlashSPI_Lock                       0x0800775d   Thumb Code     4  b_drv_spiflash.o(.text._bSPIFlashSPI_Lock)
    [Anonymous Symbol]                       0x0800775c   Section        0  b_drv_spiflash.o(.text._bSPIFlashSPI_Lock)
    _bSPIFlashSPI_Unlock                     0x08007761   Thumb Code     4  b_drv_spiflash.o(.text._bSPIFlashSPI_Unlock)
    [Anonymous Symbol]                       0x08007760   Section        0  b_drv_spiflash.o(.text._bSPIFlashSPI_Unlock)
    _bSPIFlashSPI_WR                         0x08007765   Thumb Code   280  b_drv_spiflash.o(.text._bSPIFlashSPI_WR)
    [Anonymous Symbol]                       0x08007764   Section        0  b_drv_spiflash.o(.text._bSPIFlashSPI_WR)
    _bSSLEntropySource                       0x0800787d   Thumb Code    40  b_mod_ssl.o(.text._bSSLEntropySource)
    [Anonymous Symbol]                       0x0800787c   Section        0  b_mod_ssl.o(.text._bSSLEntropySource)
    _bSSLPrint                               0x080078a5   Thumb Code    40  b_mod_ssl.o(.text._bSSLPrint)
    [Anonymous Symbol]                       0x080078a4   Section        0  b_mod_ssl.o(.text._bSSLPrint)
    _bSSLRecv                                0x080078e5   Thumb Code    52  b_mod_ssl.o(.text._bSSLRecv)
    [Anonymous Symbol]                       0x080078e4   Section        0  b_mod_ssl.o(.text._bSSLRecv)
    _bSSLSend                                0x08007919   Thumb Code    52  b_mod_ssl.o(.text._bSSLSend)
    [Anonymous Symbol]                       0x08007918   Section        0  b_mod_ssl.o(.text._bSSLSend)
    _bST7789Ctl                              0x0800794d   Thumb Code   422  b_drv_st7789.o(.text._bST7789Ctl)
    [Anonymous Symbol]                       0x0800794c   Section        0  b_drv_st7789.o(.text._bST7789Ctl)
    _bST7789Write                            0x08007af3   Thumb Code   122  b_drv_st7789.o(.text._bST7789Write)
    [Anonymous Symbol]                       0x08007af2   Section        0  b_drv_st7789.o(.text._bST7789Write)
    _bSetApInfo                              0x08007b6d   Thumb Code    56  b_drv_esp12f.o(.text._bSetApInfo)
    [Anonymous Symbol]                       0x08007b6c   Section        0  b_drv_esp12f.o(.text._bSetApInfo)
    _bTaskCore                               0x08007bc1   Thumb Code    66  b_task.o(.text._bTaskCore)
    [Anonymous Symbol]                       0x08007bc0   Section        0  b_task.o(.text._bTaskCore)
    _bTcpUdpSend                             0x08007c05   Thumb Code    48  b_drv_esp12f.o(.text._bTcpUdpSend)
    [Anonymous Symbol]                       0x08007c04   Section        0  b_drv_esp12f.o(.text._bTcpUdpSend)
    _bTimerCore                              0x08007c49   Thumb Code    84  b_timer.o(.text._bTimerCore)
    [Anonymous Symbol]                       0x08007c48   Section        0  b_timer.o(.text._bTimerCore)
    _bWifiDrvCb                              0x08007c9d   Thumb Code   536  b_mod_wifi.o(.text._bWifiDrvCb)
    [Anonymous Symbol]                       0x08007c9c   Section        0  b_mod_wifi.o(.text._bWifiDrvCb)
    _bWifiFree                               0x08007ef1   Thumb Code     4  b_mod_wifi.o(.text._bWifiFree)
    [Anonymous Symbol]                       0x08007ef0   Section        0  b_mod_wifi.o(.text._bWifiFree)
    _bWifiResult                             0x08007ef5   Thumb Code   150  b_mod_wifi.o(.text._bWifiResult)
    [Anonymous Symbol]                       0x08007ef4   Section        0  b_mod_wifi.o(.text._bWifiResult)
    _bWifiSetDrvCbArg                        0x08007f8d   Thumb Code    68  b_mod_wifi.o(.text._bWifiSetDrvCbArg)
    [Anonymous Symbol]                       0x08007f8c   Section        0  b_mod_wifi.o(.text._bWifiSetDrvCbArg)
    add_sub_mpi                              0x08007ff5   Thumb Code   116  bignum.o(.text.add_sub_mpi)
    [Anonymous Symbol]                       0x08007ff4   Section        0  bignum.o(.text.add_sub_mpi)
    aes_crypt_ecb_wrap                       0x08008069   Thumb Code     4  cipher_wrap.o(.text.aes_crypt_ecb_wrap)
    [Anonymous Symbol]                       0x08008068   Section        0  cipher_wrap.o(.text.aes_crypt_ecb_wrap)
    aes_ctx_alloc                            0x0800806d   Thumb Code    26  cipher_wrap.o(.text.aes_ctx_alloc)
    [Anonymous Symbol]                       0x0800806c   Section        0  cipher_wrap.o(.text.aes_ctx_alloc)
    aes_ctx_free                             0x08008087   Thumb Code    18  cipher_wrap.o(.text.aes_ctx_free)
    [Anonymous Symbol]                       0x08008086   Section        0  cipher_wrap.o(.text.aes_ctx_free)
    aes_setkey_dec_wrap                      0x08008099   Thumb Code     4  cipher_wrap.o(.text.aes_setkey_dec_wrap)
    [Anonymous Symbol]                       0x08008098   Section        0  cipher_wrap.o(.text.aes_setkey_dec_wrap)
    aes_setkey_enc_wrap                      0x0800809d   Thumb Code     4  cipher_wrap.o(.text.aes_setkey_enc_wrap)
    [Anonymous Symbol]                       0x0800809c   Section        0  cipher_wrap.o(.text.aes_setkey_enc_wrap)
    asn1_get_sequence_of_cb                  0x080080a1   Thumb Code    56  asn1parse.o(.text.asn1_get_sequence_of_cb)
    [Anonymous Symbol]                       0x080080a0   Section        0  asn1parse.o(.text.asn1_get_sequence_of_cb)
    asn1_get_tagged_int                      0x080080d9   Thumb Code   146  asn1parse.o(.text.asn1_get_tagged_int)
    [Anonymous Symbol]                       0x080080d8   Section        0  asn1parse.o(.text.asn1_get_tagged_int)
    [Anonymous Symbol]                       0x0800816c   Section        0  b_util_at.o(.text.bAtFeedData)
    [Anonymous Symbol]                       0x0800824c   Section        0  b_util_at.o(.text.bAtInit)
    [Anonymous Symbol]                       0x080082cc   Section        0  b_util_at.o(.text.bAtSendCmd)
    [Anonymous Symbol]                       0x080083e8   Section        0  b_util_at.o(.text.bAtTask)
    [Anonymous Symbol]                       0x080084e8   Section        0  b_mod_button.o(.text.bButtonAddKey)
    [Anonymous Symbol]                       0x08008558   Section        0  b_util_memp.o(.text.bCalloc)
    [Anonymous Symbol]                       0x080085ba   Section        0  b_core.o(.text.bClose)
    [Anonymous Symbol]                       0x080085f4   Section        0  b_mod_wifi.o(.text.bConnect)
    [Anonymous Symbol]                       0x0800869c   Section        0  b_core.o(.text.bCtl)
    [Anonymous Symbol]                       0x080086cc   Section        0  b_device.o(.text.bDeviceClose)
    [Anonymous Symbol]                       0x08008740   Section        0  b_device.o(.text.bDeviceCtl)
    [Anonymous Symbol]                       0x080087b8   Section        0  b_device.o(.text.bDeviceInit)
    [Anonymous Symbol]                       0x08008944   Section        0  b_device.o(.text.bDeviceOpen)
    [Anonymous Symbol]                       0x080089b4   Section        0  b_device.o(.text.bDeviceRead)
    [Anonymous Symbol]                       0x08008a30   Section        0  b_device.o(.text.bDeviceReadMessage)
    [Anonymous Symbol]                       0x08008a54   Section        0  b_device.o(.text.bDeviceWrite)
    [Anonymous Symbol]                       0x08008ad8   Section        0  b_device.o(.text.bDeviceWriteMessage)
    [Anonymous Symbol]                       0x08008afc   Section        0  b_drv_esp12f.o(.text.bESP12F_Init)
    [Anonymous Symbol]                       0x08008bdc   Section        0  b_drv_esp12f.o(.text.bEsp12fTask)
    bEspCmdInit                              0x08008e90   Number         0  b_drv_esp12f.o(.text.bEsp12fTask)
    [Anonymous Symbol]                       0x08008eb0   Section        0  b_core.o(.text.bExec)
    [Anonymous Symbol]                       0x08008ed2   Section        0  b_util_fifo.o(.text.bFIFO_Deinit)
    [Anonymous Symbol]                       0x08008ee8   Section        0  b_util_fifo.o(.text.bFIFO_Init)
    [Anonymous Symbol]                       0x08008f08   Section        0  b_util_fifo.o(.text.bFIFO_Length)
    [Anonymous Symbol]                       0x08008f2c   Section        0  b_util_fifo.o(.text.bFIFO_Read)
    [Anonymous Symbol]                       0x08008f94   Section        0  b_util_fifo.o(.text.bFIFO_Write)
    [Anonymous Symbol]                       0x08009014   Section        0  b_util_memp.o(.text.bFree)
    [Anonymous Symbol]                       0x080090a4   Section        0  b_mod_gui.o(.text.bGUIRegist)
    [Anonymous Symbol]                       0x08009168   Section        0  b_util_memp.o(.text.bGetFreeSize)
    [Anonymous Symbol]                       0x080091c6   Section        0  b_util_memp.o(.text.bGetTotalSize)
    [Anonymous Symbol]                       0x080091cc   Section        0  b_hal.o(.text.bHalDelayMs)
    [Anonymous Symbol]                       0x080091f4   Section        0  b_hal.o(.text.bHalDelayUs)
    [Anonymous Symbol]                       0x08009212   Section        0  b_hal.o(.text.bHalGetSysTick)
    [Anonymous Symbol]                       0x0800921e   Section        0  b_hal.o(.text.bHalGetSysTickPlus)
    [Anonymous Symbol]                       0x08009234   Section        0  b_hal_gpio.o(.text.bHalGpioConfig)
    [Anonymous Symbol]                       0x08009238   Section        0  b_hal_gpio.o(.text.bHalGpioReadPin)
    [Anonymous Symbol]                       0x0800923c   Section        0  b_hal_gpio.o(.text.bHalGpioReadPort)
    [Anonymous Symbol]                       0x08009240   Section        0  b_hal_gpio.o(.text.bHalGpioWritePin)
    [Anonymous Symbol]                       0x08009244   Section        0  b_hal_gpio.o(.text.bHalGpioWritePort)
    [Anonymous Symbol]                       0x08009248   Section        0  b_hal.o(.text.bHalIncSysTick)
    [Anonymous Symbol]                       0x08009270   Section        0  b_hal.o(.text.bHalInit)
    [Anonymous Symbol]                       0x080092f0   Section        0  b_hal_it.o(.text.bHalIntDisable)
    [Anonymous Symbol]                       0x080092f4   Section        0  b_hal_it.o(.text.bHalIntEnable)
    [Anonymous Symbol]                       0x080092f8   Section        0  b_hal_it.o(.text.bHalItInvoke)
    [Anonymous Symbol]                       0x0800933a   Section        0  b_hal_it.o(.text.bHalItRegister)
    [Anonymous Symbol]                       0x0800935e   Section        0  b_hal_qspi.o(.text.bHalQSPIReceiveData)
    [Anonymous Symbol]                       0x0800936e   Section        0  b_hal_qspi.o(.text.bHalQSPISendCmd)
    [Anonymous Symbol]                       0x0800937e   Section        0  b_hal_qspi.o(.text.bHalQSPITransmitData)
    [Anonymous Symbol]                       0x0800938e   Section        0  b_hal_rng.o(.text.bHalRNGRead)
    [Anonymous Symbol]                       0x08009394   Section        0  b_hal_spi.o(.text.bHalSpiReceive)
    [Anonymous Symbol]                       0x080093d4   Section        0  b_hal_spi.o(.text.bHalSpiSend)
    [Anonymous Symbol]                       0x08009410   Section        0  b_hal_spi.o(.text.bHalSpiTransfer)
    [Anonymous Symbol]                       0x08009510   Section        0  b_hal_uart.o(.text.bHalUartReceiveIdle)
    [Anonymous Symbol]                       0x08009578   Section        0  b_hal_uart.o(.text.bHalUartSend)
    [Anonymous Symbol]                       0x08009586   Section        0  b_hal.o(.text.bHalUserInit)
    [Anonymous Symbol]                       0x08009588   Section        0  b_srv_tcpip.o(.text.bHttpInit)
    [Anonymous Symbol]                       0x0800962c   Section        0  b_srv_tcpip.o(.text.bHttpRequest)
    [Anonymous Symbol]                       0x0800996c   Section        0  b_core.o(.text.bInit)
    [Anonymous Symbol]                       0x08009b34   Section        0  b_drv_key.o(.text.bKEY_Init)
    [Anonymous Symbol]                       0x08009b70   Section        0  b_mod_kv.o(.text.bKVGetValue)
    [Anonymous Symbol]                       0x08009d7c   Section        0  b_mod_kv.o(.text.bKVInit)
    [Anonymous Symbol]                       0x08009f74   Section        0  b_mod_kv.o(.text.bKVSetValue)
    [Anonymous Symbol]                       0x0800a630   Section        0  b_util_log.o(.text.bLogOut)
    bLogParamTable                           0x0800a72c   Number         0  b_util_log.o(.text.bLogOut)
    bLogPrefix                               0x0800a730   Number         0  b_util_log.o(.text.bLogOut)
    [Anonymous Symbol]                       0x0800a738   Section        0  b_core.o(.text.bLseek)
    [Anonymous Symbol]                       0x0800a75c   Section        0  b_util_memp.o(.text.bMalloc)
    [Anonymous Symbol]                       0x0800a7ac   Section        0  b_util_memp.o(.text.bMallocFailedHook)
    [Anonymous Symbol]                       0x0800a7ae   Section        0  mcu_stm32l41x_gpio.o(.text.bMcuGpioConfig)
    [Anonymous Symbol]                       0x0800a860   Section        0  mcu_stm32l41x_gpio.o(.text.bMcuGpioReadPin)
    [Anonymous Symbol]                       0x0800a886   Section        0  mcu_stm32l41x_gpio.o(.text.bMcuGpioReadPort)
    [Anonymous Symbol]                       0x0800a89c   Section        0  mcu_stm32l41x_gpio.o(.text.bMcuGpioWritePin)
    [Anonymous Symbol]                       0x0800a8c8   Section        0  mcu_stm32l41x_gpio.o(.text.bMcuGpioWritePort)
    [Anonymous Symbol]                       0x0800a8da   Section        0  mcu_stm32l41x_it.o(.text.bMcuIntDisable)
    [Anonymous Symbol]                       0x0800a8e2   Section        0  mcu_stm32l41x_it.o(.text.bMcuIntEnable)
    [Anonymous Symbol]                       0x0800a8e8   Section        0  mcu_stm32l41x_qspi.o(.text.bMcuQSPIReceiveData)
    [Anonymous Symbol]                       0x0800a964   Section        0  mcu_stm32l41x_qspi.o(.text.bMcuQSPISendCmd)
    [Anonymous Symbol]                       0x0800aa30   Section        0  mcu_stm32l41x_qspi.o(.text.bMcuQSPITransmitData)
    [Anonymous Symbol]                       0x0800aaa4   Section        0  b_hal_rng.o(.text.bMcuRNGRead)
    [Anonymous Symbol]                       0x0800aab8   Section        0  mcu_stm32l41x_spi.o(.text.bMcuSpiReceive)
    [Anonymous Symbol]                       0x0800aae0   Section        0  mcu_stm32l41x_spi.o(.text.bMcuSpiSend)
    [Anonymous Symbol]                       0x0800ab38   Section        0  mcu_stm32l41x_spi.o(.text.bMcuSpiTransfer)
    [Anonymous Symbol]                       0x0800ab7c   Section        0  mcu_stm32l41x_uart.o(.text.bMcuUartSend)
    [Anonymous Symbol]                       0x0800ac10   Section        0  main.o(.text.bMqttCallback)
    [Anonymous Symbol]                       0x0800ad1c   Section        0  b_srv_mqtt.o(.text.bMqttSrvStartWithCfg)
    [Anonymous Symbol]                       0x0800b070   Section        0  b_core.o(.text.bOpen)
    [Anonymous Symbol]                       0x0800b0fc   Section        0  b_core.o(.text.bRead)
    [Anonymous Symbol]                       0x0800b15c   Section        0  b_util_memp.o(.text.bRealloc)
    [Anonymous Symbol]                       0x0800b240   Section        0  b_mod_wifi.o(.text.bRecv)
    [Anonymous Symbol]                       0x0800b28e   Section        0  b_drv_spiflash.o(.text.bSPIFLASH_Init)
    [Anonymous Symbol]                       0x0800b34e   Section        0  b_mod_ssl.o(.text.bSSLDeinit)
    [Anonymous Symbol]                       0x0800b390   Section        0  b_mod_ssl.o(.text.bSSLHandshake)
    [Anonymous Symbol]                       0x0800b408   Section        0  b_mod_ssl.o(.text.bSSLInit)
    [Anonymous Symbol]                       0x0800b63a   Section        0  b_mod_ssl.o(.text.bSSLRecv)
    [Anonymous Symbol]                       0x0800b67a   Section        0  b_mod_ssl.o(.text.bSSLSend)
    [Anonymous Symbol]                       0x0800b6ba   Section        0  b_drv_st7789.o(.text.bST7789_Init)
    [Anonymous Symbol]                       0x0800b984   Section        0  b_mod_wifi.o(.text.bSend)
    [Anonymous Symbol]                       0x0800b9f8   Section        0  b_mod_wifi.o(.text.bShutdown)
    [Anonymous Symbol]                       0x0800bab0   Section        0  b_srv_tcpip.o(.text.bSntpStart)
    [Anonymous Symbol]                       0x0800bafc   Section        0  b_mod_wifi.o(.text.bSockIsReadable)
    [Anonymous Symbol]                       0x0800bb06   Section        0  b_mod_wifi.o(.text.bSockIsWriteable)
    [Anonymous Symbol]                       0x0800bb10   Section        0  b_mod_wifi.o(.text.bSocket)
    [Anonymous Symbol]                       0x0800bb82   Section        0  b_util_memp.o(.text.bStrDup)
    [Anonymous Symbol]                       0x0800bbb0   Section        0  b_task.o(.text.bTaskCreate)
    [Anonymous Symbol]                       0x0800bc18   Section        0  b_task.o(.text.bTaskRemove)
    [Anonymous Symbol]                       0x0800bc44   Section        0  b_srv_tcpip.o(.text.bTcpipSrvInit)
    [Anonymous Symbol]                       0x0800bc48   Section        0  b_timer.o(.text.bTimerCreate)
    [Anonymous Symbol]                       0x0800bc98   Section        0  b_timer.o(.text.bTimerDelete)
    [Anonymous Symbol]                       0x0800bcc4   Section        0  b_timer.o(.text.bTimerStart)
    [Anonymous Symbol]                       0x0800bd04   Section        0  b_timer.o(.text.bTimerStop)
    [Anonymous Symbol]                       0x0800bd30   Section        0  b_util_utc.o(.text.bUTC2Struct)
    [Anonymous Symbol]                       0x0800bf50   Section        0  b_util_utc.o(.text.bUTC_GetTime)
    [Anonymous Symbol]                       0x0800bf82   Section        0  b_util_utc.o(.text.bUTC_SetTime)
    [Anonymous Symbol]                       0x0800bfa2   Section        0  b_mod_wifi.o(.text.bWifiApConfigNet)
    [Anonymous Symbol]                       0x0800c05e   Section        0  b_mod_wifi.o(.text.bWifiConnTcp)
    [Anonymous Symbol]                       0x0800c0da   Section        0  b_mod_wifi.o(.text.bWifiConnUdp)
    [Anonymous Symbol]                       0x0800c158   Section        0  b_mod_wifi.o(.text.bWifiDisconn)
    [Anonymous Symbol]                       0x0800c224   Section        0  b_mod_wifi.o(.text.bWifiInit)
    [Anonymous Symbol]                       0x0800c274   Section        0  b_mod_wifi.o(.text.bWifiJoinAp)
    [Anonymous Symbol]                       0x0800c31c   Section        0  b_mod_wifi.o(.text.bWifiSend)
    [Anonymous Symbol]                       0x0800c3dc   Section        0  main.o(.text.bWifiTest)
    [Anonymous Symbol]                       0x0800c430   Section        0  b_core.o(.text.bWrite)
    block_cipher_df                          0x0800c491   Thumb Code   376  ctr_drbg.o(.text.block_cipher_df)
    [Anonymous Symbol]                       0x0800c490   Section        0  ctr_drbg.o(.text.block_cipher_df)
    buffer_skip_whitespace                   0x0800c611   Thumb Code    50  cjson.o(.text.buffer_skip_whitespace)
    [Anonymous Symbol]                       0x0800c610   Section        0  cjson.o(.text.buffer_skip_whitespace)
    [Anonymous Symbol]                       0x0800c644   Section        0  cjson.o(.text.cJSON_Delete)
    [Anonymous Symbol]                       0x0800c694   Section        0  cjson.o(.text.cJSON_GetArrayItem)
    [Anonymous Symbol]                       0x0800c6b8   Section        0  cjson.o(.text.cJSON_GetObjectItem)
    [Anonymous Symbol]                       0x0800c6be   Section        0  cjson.o(.text.cJSON_IsString)
    [Anonymous Symbol]                       0x0800c6d2   Section        0  cjson.o(.text.cJSON_Parse)
    [Anonymous Symbol]                       0x0800c6dc   Section        0  cjson.o(.text.cJSON_ParseWithLengthOpts)
    [Anonymous Symbol]                       0x0800c7dc   Section        0  cjson.o(.text.cJSON_ParseWithOpts)
    compute_hash                             0x0800c7ff   Thumb Code    38  rsa.o(.text.compute_hash)
    [Anonymous Symbol]                       0x0800c7fe   Section        0  rsa.o(.text.compute_hash)
    [Anonymous Symbol]                       0x0800c824   Section        0  algo_crc.o(.text.crc_calculate)
    ctr_drbg_update_internal                 0x0800c8b9   Thumb Code   156  ctr_drbg.o(.text.ctr_drbg_update_internal)
    [Anonymous Symbol]                       0x0800c8b8   Section        0  ctr_drbg.o(.text.ctr_drbg_update_internal)
    derive_mpi                               0x0800c95b   Thumb Code    88  ecdsa.o(.text.derive_mpi)
    [Anonymous Symbol]                       0x0800c95a   Section        0  ecdsa.o(.text.derive_mpi)
    ecdsa_can_do                             0x0800c9b3   Thumb Code    10  pk_wrap.o(.text.ecdsa_can_do)
    [Anonymous Symbol]                       0x0800c9b2   Section        0  pk_wrap.o(.text.ecdsa_can_do)
    ecdsa_sign_wrap                          0x0800c9bd   Thumb Code    36  pk_wrap.o(.text.ecdsa_sign_wrap)
    [Anonymous Symbol]                       0x0800c9bc   Section        0  pk_wrap.o(.text.ecdsa_sign_wrap)
    ecdsa_verify_wrap                        0x0800c9e1   Thumb Code    46  pk_wrap.o(.text.ecdsa_verify_wrap)
    [Anonymous Symbol]                       0x0800c9e0   Section        0  pk_wrap.o(.text.ecdsa_verify_wrap)
    eckey_alloc_wrap                         0x0800ca0f   Thumb Code    24  pk_wrap.o(.text.eckey_alloc_wrap)
    [Anonymous Symbol]                       0x0800ca0e   Section        0  pk_wrap.o(.text.eckey_alloc_wrap)
    eckey_can_do                             0x0800ca27   Thumb Code    24  pk_wrap.o(.text.eckey_can_do)
    [Anonymous Symbol]                       0x0800ca26   Section        0  pk_wrap.o(.text.eckey_can_do)
    eckey_check_pair_wrap                    0x0800ca3f   Thumb Code     8  pk_wrap.o(.text.eckey_check_pair_wrap)
    [Anonymous Symbol]                       0x0800ca3e   Section        0  pk_wrap.o(.text.eckey_check_pair_wrap)
    eckey_debug                              0x0800ca49   Thumb Code    16  pk_wrap.o(.text.eckey_debug)
    [Anonymous Symbol]                       0x0800ca48   Section        0  pk_wrap.o(.text.eckey_debug)
    eckey_free_wrap                          0x0800ca61   Thumb Code    18  pk_wrap.o(.text.eckey_free_wrap)
    [Anonymous Symbol]                       0x0800ca60   Section        0  pk_wrap.o(.text.eckey_free_wrap)
    eckey_get_bitlen                         0x0800ca73   Thumb Code     6  pk_wrap.o(.text.eckey_get_bitlen)
    [Anonymous Symbol]                       0x0800ca72   Section        0  pk_wrap.o(.text.eckey_get_bitlen)
    eckeydh_can_do                           0x0800ca79   Thumb Code    14  pk_wrap.o(.text.eckeydh_can_do)
    [Anonymous Symbol]                       0x0800ca78   Section        0  pk_wrap.o(.text.eckeydh_can_do)
    ecp_add_mixed                            0x0800ca87   Thumb Code   502  ecp.o(.text.ecp_add_mixed)
    [Anonymous Symbol]                       0x0800ca86   Section        0  ecp.o(.text.ecp_add_mixed)
    ecp_double_jac                           0x0800ccad   Thumb Code   582  ecp.o(.text.ecp_double_jac)
    [Anonymous Symbol]                       0x0800ccac   Section        0  ecp.o(.text.ecp_double_jac)
    ecp_mul_restartable_internal             0x0800cf05   Thumb Code  1398  ecp.o(.text.ecp_mul_restartable_internal)
    [Anonymous Symbol]                       0x0800cf04   Section        0  ecp.o(.text.ecp_mul_restartable_internal)
    ecp_normalize_jac                        0x0800d481   Thumb Code   140  ecp.o(.text.ecp_normalize_jac)
    [Anonymous Symbol]                       0x0800d480   Section        0  ecp.o(.text.ecp_normalize_jac)
    ecp_normalize_jac_many                   0x0800d50d   Thumb Code   442  ecp.o(.text.ecp_normalize_jac_many)
    [Anonymous Symbol]                       0x0800d50c   Section        0  ecp.o(.text.ecp_normalize_jac_many)
    ecp_randomize_jac                        0x0800d6d7   Thumb Code   152  ecp.o(.text.ecp_randomize_jac)
    [Anonymous Symbol]                       0x0800d6d6   Section        0  ecp.o(.text.ecp_randomize_jac)
    ecp_safe_invert_jac                      0x0800d76f   Thumb Code    80  ecp.o(.text.ecp_safe_invert_jac)
    [Anonymous Symbol]                       0x0800d76e   Section        0  ecp.o(.text.ecp_safe_invert_jac)
    ecp_select_comb                          0x0800d7c1   Thumb Code   106  ecp.o(.text.ecp_select_comb)
    [Anonymous Symbol]                       0x0800d7c0   Section        0  ecp.o(.text.ecp_select_comb)
    ecp_sw_rhs                               0x0800d83d   Thumb Code   190  ecp.o(.text.ecp_sw_rhs)
    [Anonymous Symbol]                       0x0800d83c   Section        0  ecp.o(.text.ecp_sw_rhs)
    entropy_gather_internal                  0x0800d8fd   Thumb Code   146  entropy.o(.text.entropy_gather_internal)
    [Anonymous Symbol]                       0x0800d8fc   Section        0  entropy.o(.text.entropy_gather_internal)
    entropy_update                           0x0800d995   Thumb Code   142  entropy.o(.text.entropy_update)
    [Anonymous Symbol]                       0x0800d994   Section        0  entropy.o(.text.entropy_update)
    [Anonymous Symbol]                       0x0800da22   Section        0  flexible_button.o(.text.flex_button_reg_function)
    [Anonymous Symbol]                       0x0800da4c   Section        0  flexible_button.o(.text.flex_button_register)
    [Anonymous Symbol]                       0x0800dad8   Section        0  flexible_button.o(.text.flex_button_scan)
    [Anonymous Symbol]                       0x0800dd22   Section        0  b_util_log.o(.text.fputc)
    gcm_aes_setkey_wrap                      0x0800dd3f   Thumb Code    10  cipher_wrap.o(.text.gcm_aes_setkey_wrap)
    [Anonymous Symbol]                       0x0800dd3e   Section        0  cipher_wrap.o(.text.gcm_aes_setkey_wrap)
    gcm_ctx_alloc                            0x0800dd49   Thumb Code    26  cipher_wrap.o(.text.gcm_ctx_alloc)
    [Anonymous Symbol]                       0x0800dd48   Section        0  cipher_wrap.o(.text.gcm_ctx_alloc)
    gcm_ctx_free                             0x0800dd63   Thumb Code    18  cipher_wrap.o(.text.gcm_ctx_free)
    [Anonymous Symbol]                       0x0800dd62   Section        0  cipher_wrap.o(.text.gcm_ctx_free)
    gcm_mask                                 0x0800dd75   Thumb Code   296  gcm.o(.text.gcm_mask)
    [Anonymous Symbol]                       0x0800dd74   Section        0  gcm.o(.text.gcm_mask)
    gcm_mult                                 0x0800de9d   Thumb Code   368  gcm.o(.text.gcm_mult)
    [Anonymous Symbol]                       0x0800de9c   Section        0  gcm.o(.text.gcm_mult)
    get_object_item                          0x0800e019   Thumb Code   186  cjson.o(.text.get_object_item)
    [Anonymous Symbol]                       0x0800e018   Section        0  cjson.o(.text.get_object_item)
    hash_mprime                              0x0800e0d3   Thumb Code   138  rsa.o(.text.hash_mprime)
    [Anonymous Symbol]                       0x0800e0d2   Section        0  rsa.o(.text.hash_mprime)
    [Anonymous Symbol]                       0x0800e15c   Section        0  http_parser.o(.text.http_message_needs_eof)
    [Anonymous Symbol]                       0x0800e1b4   Section        0  http_parser.o(.text.http_parser_execute)
    [Anonymous Symbol]                       0x08010576   Section        0  http_parser.o(.text.http_parser_init)
    [Anonymous Symbol]                       0x080105a4   Section        0  http_parser.o(.text.http_parser_settings_init)
    [Anonymous Symbol]                       0x080105ae   Section        0  http_parser.o(.text.http_should_keep_alive)
    internal_free                            0x080105d3   Thumb Code     4  cjson.o(.text.internal_free)
    [Anonymous Symbol]                       0x080105d2   Section        0  cjson.o(.text.internal_free)
    internal_malloc                          0x080105d7   Thumb Code     4  cjson.o(.text.internal_malloc)
    [Anonymous Symbol]                       0x080105d6   Section        0  cjson.o(.text.internal_malloc)
    internal_realloc                         0x080105db   Thumb Code     4  cjson.o(.text.internal_realloc)
    [Anonymous Symbol]                       0x080105da   Section        0  cjson.o(.text.internal_realloc)
    [Anonymous Symbol]                       0x080105e0   Section        0  main.o(.text.main)
    [Anonymous Symbol]                       0x0801093c   Section        0  aes.o(.text.mbedtls_aes_crypt_ecb)
    [Anonymous Symbol]                       0x08010960   Section        0  aes.o(.text.mbedtls_aes_free)
    [Anonymous Symbol]                       0x0801096e   Section        0  aes.o(.text.mbedtls_aes_init)
    [Anonymous Symbol]                       0x0801097c   Section        0  aes.o(.text.mbedtls_aes_setkey_dec)
    [Anonymous Symbol]                       0x08010a7c   Section        0  aes.o(.text.mbedtls_aes_setkey_enc)
    [Anonymous Symbol]                       0x08010c68   Section        0  asn1parse.o(.text.mbedtls_asn1_free_named_data_list_shallow)
    [Anonymous Symbol]                       0x08010c7e   Section        0  asn1parse.o(.text.mbedtls_asn1_get_alg)
    [Anonymous Symbol]                       0x08010d2a   Section        0  asn1parse.o(.text.mbedtls_asn1_get_bitstring)
    [Anonymous Symbol]                       0x08010d8a   Section        0  asn1parse.o(.text.mbedtls_asn1_get_bitstring_null)
    [Anonymous Symbol]                       0x08010dd6   Section        0  asn1parse.o(.text.mbedtls_asn1_get_bool)
    [Anonymous Symbol]                       0x08010e28   Section        0  asn1parse.o(.text.mbedtls_asn1_get_int)
    [Anonymous Symbol]                       0x08010e30   Section        0  asn1parse.o(.text.mbedtls_asn1_get_len)
    [Anonymous Symbol]                       0x08010ea4   Section        0  asn1parse.o(.text.mbedtls_asn1_get_mpi)
    [Anonymous Symbol]                       0x08010eea   Section        0  asn1parse.o(.text.mbedtls_asn1_get_sequence_of)
    [Anonymous Symbol]                       0x08010f20   Section        0  asn1parse.o(.text.mbedtls_asn1_get_tag)
    [Anonymous Symbol]                       0x08010f54   Section        0  asn1parse.o(.text.mbedtls_asn1_sequence_free)
    [Anonymous Symbol]                       0x08010f6c   Section        0  asn1parse.o(.text.mbedtls_asn1_traverse_sequence_of)
    [Anonymous Symbol]                       0x08011018   Section        0  asn1write.o(.text.mbedtls_asn1_write_len)
    [Anonymous Symbol]                       0x08011068   Section        0  asn1write.o(.text.mbedtls_asn1_write_mpi)
    [Anonymous Symbol]                       0x080110ee   Section        0  asn1write.o(.text.mbedtls_asn1_write_tag)
    [Anonymous Symbol]                       0x08011108   Section        0  platform.o(.text.mbedtls_calloc)
    [Anonymous Symbol]                       0x08011114   Section        0  cipher.o(.text.mbedtls_cipher_auth_decrypt_ext)
    [Anonymous Symbol]                       0x08011182   Section        0  cipher.o(.text.mbedtls_cipher_auth_encrypt_ext)
    [Anonymous Symbol]                       0x080111e2   Section        0  cipher.o(.text.mbedtls_cipher_free)
    [Anonymous Symbol]                       0x08011210   Section        0  cipher.o(.text.mbedtls_cipher_info_from_type)
    [Anonymous Symbol]                       0x08011238   Section        0  cipher.o(.text.mbedtls_cipher_info_from_values)
    [Anonymous Symbol]                       0x0801129a   Section        0  cipher.o(.text.mbedtls_cipher_init)
    [Anonymous Symbol]                       0x080112a4   Section        0  cipher.o(.text.mbedtls_cipher_setkey)
    [Anonymous Symbol]                       0x08011326   Section        0  cipher.o(.text.mbedtls_cipher_setup)
    [Anonymous Symbol]                       0x08011362   Section        0  cipher.o(.text.mbedtls_cipher_update)
    [Anonymous Symbol]                       0x080113fc   Section        0  constant_time.o(.text.mbedtls_ct_memcmp)
    [Anonymous Symbol]                       0x08011424   Section        0  constant_time.o(.text.mbedtls_ct_memcpy_if)
    [Anonymous Symbol]                       0x08011490   Section        0  constant_time.o(.text.mbedtls_ct_memmove_left)
    [Anonymous Symbol]                       0x08011548   Section        0  constant_time.o(.text.mbedtls_ct_zeroize_if)
    [Anonymous Symbol]                       0x08011584   Section        0  ctr_drbg.o(.text.mbedtls_ctr_drbg_free)
    [Anonymous Symbol]                       0x080115ac   Section        0  ctr_drbg.o(.text.mbedtls_ctr_drbg_init)
    [Anonymous Symbol]                       0x080115ce   Section        0  ctr_drbg.o(.text.mbedtls_ctr_drbg_random)
    [Anonymous Symbol]                       0x080115e4   Section        0  ctr_drbg.o(.text.mbedtls_ctr_drbg_random_with_add)
    mbedtls_ctr_drbg_reseed_internal         0x080116d1   Thumb Code   176  ctr_drbg.o(.text.mbedtls_ctr_drbg_reseed_internal)
    [Anonymous Symbol]                       0x080116d0   Section        0  ctr_drbg.o(.text.mbedtls_ctr_drbg_reseed_internal)
    [Anonymous Symbol]                       0x08011780   Section        0  ctr_drbg.o(.text.mbedtls_ctr_drbg_seed)
    [Anonymous Symbol]                       0x080117d4   Section        0  debug.o(.text.mbedtls_debug_print_buf)
    [Anonymous Symbol]                       0x08011994   Section        0  debug.o(.text.mbedtls_debug_print_crt)
    [Anonymous Symbol]                       0x08011b94   Section        0  debug.o(.text.mbedtls_debug_print_ecp)
    [Anonymous Symbol]                       0x08011c20   Section        0  debug.o(.text.mbedtls_debug_print_mpi)
    [Anonymous Symbol]                       0x08011d7e   Section        0  debug.o(.text.mbedtls_debug_print_msg)
    [Anonymous Symbol]                       0x08011dec   Section        0  debug.o(.text.mbedtls_debug_print_ret)
    [Anonymous Symbol]                       0x08011e70   Section        0  debug.o(.text.mbedtls_debug_printf_ecdh)
    [Anonymous Symbol]                       0x08011ed8   Section        0  debug.o(.text.mbedtls_debug_set_threshold)
    [Anonymous Symbol]                       0x08011ee4   Section        0  ecdh.o(.text.mbedtls_ecdh_calc_secret)
    [Anonymous Symbol]                       0x08011f8e   Section        0  ecdh.o(.text.mbedtls_ecdh_compute_shared)
    [Anonymous Symbol]                       0x08011fee   Section        0  ecdh.o(.text.mbedtls_ecdh_free)
    [Anonymous Symbol]                       0x0801202c   Section        0  ecdh.o(.text.mbedtls_ecdh_gen_public)
    [Anonymous Symbol]                       0x08012066   Section        0  ecdh.o(.text.mbedtls_ecdh_init)
    [Anonymous Symbol]                       0x08012070   Section        0  ecdh.o(.text.mbedtls_ecdh_make_params)
    [Anonymous Symbol]                       0x080120e6   Section        0  ecdh.o(.text.mbedtls_ecdh_make_public)
    [Anonymous Symbol]                       0x08012142   Section        0  ecdh.o(.text.mbedtls_ecdh_read_params)
    [Anonymous Symbol]                       0x0801218c   Section        0  ecdh.o(.text.mbedtls_ecdh_read_public)
    [Anonymous Symbol]                       0x080121cc   Section        0  ecdh.o(.text.mbedtls_ecdh_setup)
    [Anonymous Symbol]                       0x0801221a   Section        0  ecdsa.o(.text.mbedtls_ecdsa_read_signature)
    [Anonymous Symbol]                       0x0801222e   Section        0  ecdsa.o(.text.mbedtls_ecdsa_read_signature_restartable)
    [Anonymous Symbol]                       0x080122d4   Section        0  ecdsa.o(.text.mbedtls_ecdsa_sign_restartable)
    [Anonymous Symbol]                       0x0801246c   Section        0  ecdsa.o(.text.mbedtls_ecdsa_verify_restartable)
    [Anonymous Symbol]                       0x080125c8   Section        0  ecdsa.o(.text.mbedtls_ecdsa_write_signature)
    [Anonymous Symbol]                       0x080125ea   Section        0  ecdsa.o(.text.mbedtls_ecdsa_write_signature_restartable)
    [Anonymous Symbol]                       0x080126cc   Section        0  ecp.o(.text.mbedtls_ecp_check_privkey)
    [Anonymous Symbol]                       0x08012706   Section        0  ecp.o(.text.mbedtls_ecp_check_pub_priv)
    [Anonymous Symbol]                       0x080127d0   Section        0  ecp.o(.text.mbedtls_ecp_check_pubkey)
    [Anonymous Symbol]                       0x08012890   Section        0  ecp.o(.text.mbedtls_ecp_copy)
    [Anonymous Symbol]                       0x080128bc   Section        0  ecp.o(.text.mbedtls_ecp_gen_privkey)
    [Anonymous Symbol]                       0x080128f6   Section        0  ecp.o(.text.mbedtls_ecp_get_type)
    [Anonymous Symbol]                       0x0801290c   Section        0  ecp.o(.text.mbedtls_ecp_group_free)
    [Anonymous Symbol]                       0x08012984   Section        0  ecp.o(.text.mbedtls_ecp_group_init)
    [Anonymous Symbol]                       0x080129d0   Section        0  ecp_curves.o(.text.mbedtls_ecp_group_load)
    [Anonymous Symbol]                       0x08012a70   Section        0  ecp.o(.text.mbedtls_ecp_is_zero)
    [Anonymous Symbol]                       0x08012a82   Section        0  ecp.o(.text.mbedtls_ecp_keypair_free)
    [Anonymous Symbol]                       0x08012ab2   Section        0  ecp.o(.text.mbedtls_ecp_keypair_init)
    [Anonymous Symbol]                       0x08012ade   Section        0  ecp.o(.text.mbedtls_ecp_mul_restartable)
    mbedtls_ecp_mul_shortcuts                0x08012b05   Thumb Code   204  ecp.o(.text.mbedtls_ecp_mul_shortcuts)
    [Anonymous Symbol]                       0x08012b04   Section        0  ecp.o(.text.mbedtls_ecp_mul_shortcuts)
    [Anonymous Symbol]                       0x08012bd0   Section        0  ecp.o(.text.mbedtls_ecp_muladd_restartable)
    [Anonymous Symbol]                       0x08012c92   Section        0  ecp.o(.text.mbedtls_ecp_point_free)
    [Anonymous Symbol]                       0x08012cb2   Section        0  ecp.o(.text.mbedtls_ecp_point_init)
    [Anonymous Symbol]                       0x08012cce   Section        0  ecp.o(.text.mbedtls_ecp_point_read_binary)
    [Anonymous Symbol]                       0x08012dac   Section        0  ecp.o(.text.mbedtls_ecp_point_write_binary)
    [Anonymous Symbol]                       0x08012e84   Section        0  ecp.o(.text.mbedtls_ecp_set_zero)
    mbedtls_ecp_sw_derive_y                  0x08012ead   Thumb Code   154  ecp.o(.text.mbedtls_ecp_sw_derive_y)
    [Anonymous Symbol]                       0x08012eac   Section        0  ecp.o(.text.mbedtls_ecp_sw_derive_y)
    [Anonymous Symbol]                       0x08012f46   Section        0  ecp.o(.text.mbedtls_ecp_tls_read_group_id)
    [Anonymous Symbol]                       0x08012f80   Section        0  ecp.o(.text.mbedtls_ecp_tls_read_point)
    [Anonymous Symbol]                       0x08012fb8   Section        0  ecp.o(.text.mbedtls_ecp_tls_write_group)
    [Anonymous Symbol]                       0x08012fe8   Section        0  ecp.o(.text.mbedtls_ecp_tls_write_point)
    [Anonymous Symbol]                       0x08013024   Section        0  entropy.o(.text.mbedtls_entropy_add_source)
    [Anonymous Symbol]                       0x08013054   Section        0  entropy.o(.text.mbedtls_entropy_free)
    [Anonymous Symbol]                       0x08013080   Section        0  entropy.o(.text.mbedtls_entropy_func)
    [Anonymous Symbol]                       0x08013188   Section        0  entropy.o(.text.mbedtls_entropy_init)
    [Anonymous Symbol]                       0x080131a0   Section        0  platform.o(.text.mbedtls_free)
    [Anonymous Symbol]                       0x080131ac   Section        0  gcm.o(.text.mbedtls_gcm_auth_decrypt)
    [Anonymous Symbol]                       0x08013202   Section        0  gcm.o(.text.mbedtls_gcm_crypt_and_tag)
    [Anonymous Symbol]                       0x0801324c   Section        0  gcm.o(.text.mbedtls_gcm_finish)
    [Anonymous Symbol]                       0x08013356   Section        0  gcm.o(.text.mbedtls_gcm_free)
    [Anonymous Symbol]                       0x08013370   Section        0  gcm.o(.text.mbedtls_gcm_init)
    [Anonymous Symbol]                       0x0801337c   Section        0  gcm.o(.text.mbedtls_gcm_setkey)
    [Anonymous Symbol]                       0x080134e0   Section        0  gcm.o(.text.mbedtls_gcm_starts)
    [Anonymous Symbol]                       0x080135d8   Section        0  gcm.o(.text.mbedtls_gcm_update)
    [Anonymous Symbol]                       0x08013734   Section        0  gcm.o(.text.mbedtls_gcm_update_ad)
    [Anonymous Symbol]                       0x0801387c   Section        0  aes.o(.text.mbedtls_internal_aes_decrypt)
    [Anonymous Symbol]                       0x08013c24   Section        0  aes.o(.text.mbedtls_internal_aes_encrypt)
    [Anonymous Symbol]                       0x08013fd4   Section        0  sha256.o(.text.mbedtls_internal_sha256_process)
    [Anonymous Symbol]                       0x08014738   Section        0  sha512.o(.text.mbedtls_internal_sha512_process)
    [Anonymous Symbol]                       0x08015078   Section        0  md.o(.text.mbedtls_md)
    [Anonymous Symbol]                       0x080150b6   Section        0  md.o(.text.mbedtls_md_clone)
    [Anonymous Symbol]                       0x0801510a   Section        0  md.o(.text.mbedtls_md_finish)
    [Anonymous Symbol]                       0x08015134   Section        0  md.o(.text.mbedtls_md_free)
    [Anonymous Symbol]                       0x0801517c   Section        0  md.o(.text.mbedtls_md_get_size)
    [Anonymous Symbol]                       0x08015186   Section        0  md.o(.text.mbedtls_md_hmac_finish)
    [Anonymous Symbol]                       0x080151de   Section        0  md.o(.text.mbedtls_md_hmac_reset)
    [Anonymous Symbol]                       0x08015210   Section        0  md.o(.text.mbedtls_md_hmac_starts)
    [Anonymous Symbol]                       0x08015340   Section        0  md.o(.text.mbedtls_md_hmac_update)
    [Anonymous Symbol]                       0x08015358   Section        0  md.o(.text.mbedtls_md_info_from_ctx)
    [Anonymous Symbol]                       0x08015362   Section        0  md.o(.text.mbedtls_md_info_from_type)
    [Anonymous Symbol]                       0x0801537e   Section        0  md.o(.text.mbedtls_md_init)
    [Anonymous Symbol]                       0x08015388   Section        0  md.o(.text.mbedtls_md_setup)
    [Anonymous Symbol]                       0x080153fa   Section        0  md.o(.text.mbedtls_md_starts)
    [Anonymous Symbol]                       0x08015430   Section        0  md.o(.text.mbedtls_md_update)
    [Anonymous Symbol]                       0x0801545c   Section        0  bignum.o(.text.mbedtls_mpi_add_abs)
    [Anonymous Symbol]                       0x080154fe   Section        0  bignum.o(.text.mbedtls_mpi_add_int)
    mbedtls_mpi_add_mod                      0x08015529   Thumb Code    52  ecp.o(.text.mbedtls_mpi_add_mod)
    [Anonymous Symbol]                       0x08015528   Section        0  ecp.o(.text.mbedtls_mpi_add_mod)
    [Anonymous Symbol]                       0x0801555c   Section        0  bignum.o(.text.mbedtls_mpi_add_mpi)
    [Anonymous Symbol]                       0x08015562   Section        0  bignum.o(.text.mbedtls_mpi_bitlen)
    [Anonymous Symbol]                       0x0801556c   Section        0  bignum.o(.text.mbedtls_mpi_cmp_abs)
    [Anonymous Symbol]                       0x080155d6   Section        0  bignum.o(.text.mbedtls_mpi_cmp_int)
    [Anonymous Symbol]                       0x08015600   Section        0  bignum.o(.text.mbedtls_mpi_cmp_mpi)
    [Anonymous Symbol]                       0x08015698   Section        0  bignum.o(.text.mbedtls_mpi_copy)
    [Anonymous Symbol]                       0x08015708   Section        0  bignum_core.o(.text.mbedtls_mpi_core_add)
    [Anonymous Symbol]                       0x0801573c   Section        0  bignum_core.o(.text.mbedtls_mpi_core_bitlen)
    [Anonymous Symbol]                       0x08015760   Section        0  bignum_core.o(.text.mbedtls_mpi_core_check_zero_ct)
    [Anonymous Symbol]                       0x08015790   Section        0  bignum_core.o(.text.mbedtls_mpi_core_cond_assign)
    [Anonymous Symbol]                       0x080157c8   Section        0  bignum_core.o(.text.mbedtls_mpi_core_exp_mod)
    [Anonymous Symbol]                       0x080159ba   Section        0  bignum_core.o(.text.mbedtls_mpi_core_exp_mod_working_limbs)
    [Anonymous Symbol]                       0x080159d4   Section        0  bignum_core.o(.text.mbedtls_mpi_core_fill_random)
    [Anonymous Symbol]                       0x08015a50   Section        0  bignum_core.o(.text.mbedtls_mpi_core_from_mont_rep)
    [Anonymous Symbol]                       0x08015a70   Section        0  bignum_core.o(.text.mbedtls_mpi_core_get_mont_r2_unsafe)
    [Anonymous Symbol]                       0x08015aa4   Section        0  bignum_core.o(.text.mbedtls_mpi_core_lt_ct)
    [Anonymous Symbol]                       0x08015b78   Section        0  bignum_core.o(.text.mbedtls_mpi_core_mla)
    [Anonymous Symbol]                       0x08015cbc   Section        0  bignum_core.o(.text.mbedtls_mpi_core_montmul)
    [Anonymous Symbol]                       0x08015db8   Section        0  bignum_core.o(.text.mbedtls_mpi_core_montmul_init)
    [Anonymous Symbol]                       0x08015de0   Section        0  bignum_core.o(.text.mbedtls_mpi_core_mul)
    [Anonymous Symbol]                       0x08015e20   Section        0  bignum_core.o(.text.mbedtls_mpi_core_random)
    [Anonymous Symbol]                       0x08015ed8   Section        0  bignum_core.o(.text.mbedtls_mpi_core_read_be)
    [Anonymous Symbol]                       0x08015f3c   Section        0  bignum_core.o(.text.mbedtls_mpi_core_shift_l)
    [Anonymous Symbol]                       0x08015fa8   Section        0  bignum_core.o(.text.mbedtls_mpi_core_shift_r)
    [Anonymous Symbol]                       0x08016024   Section        0  bignum_core.o(.text.mbedtls_mpi_core_sub)
    [Anonymous Symbol]                       0x08016068   Section        0  bignum_core.o(.text.mbedtls_mpi_core_sub_int)
    [Anonymous Symbol]                       0x0801608a   Section        0  bignum_core.o(.text.mbedtls_mpi_core_to_mont_rep)
    [Anonymous Symbol]                       0x080160a4   Section        0  bignum_core.o(.text.mbedtls_mpi_core_uint_le_mpi)
    [Anonymous Symbol]                       0x0801613c   Section        0  bignum_core.o(.text.mbedtls_mpi_core_write_be)
    [Anonymous Symbol]                       0x080161b0   Section        0  bignum_core.o(.text.mbedtls_mpi_core_write_le)
    [Anonymous Symbol]                       0x08016226   Section        0  bignum.o(.text.mbedtls_mpi_div_mpi)
    [Anonymous Symbol]                       0x08016616   Section        0  bignum.o(.text.mbedtls_mpi_exp_mod)
    [Anonymous Symbol]                       0x0801681c   Section        0  bignum.o(.text.mbedtls_mpi_fill_random)
    [Anonymous Symbol]                       0x08016854   Section        0  bignum.o(.text.mbedtls_mpi_free)
    [Anonymous Symbol]                       0x08016874   Section        0  bignum.o(.text.mbedtls_mpi_gcd)
    [Anonymous Symbol]                       0x08016a3a   Section        0  bignum.o(.text.mbedtls_mpi_get_bit)
    [Anonymous Symbol]                       0x08016a5a   Section        0  bignum.o(.text.mbedtls_mpi_grow)
    [Anonymous Symbol]                       0x08016aa2   Section        0  bignum.o(.text.mbedtls_mpi_init)
    [Anonymous Symbol]                       0x08016aac   Section        0  bignum.o(.text.mbedtls_mpi_inv_mod)
    [Anonymous Symbol]                       0x08016e38   Section        0  bignum.o(.text.mbedtls_mpi_is_prime_ext)
    [Anonymous Symbol]                       0x08016ebc   Section        0  bignum.o(.text.mbedtls_mpi_lsb)
    [Anonymous Symbol]                       0x08016ee4   Section        0  bignum.o(.text.mbedtls_mpi_lset)
    [Anonymous Symbol]                       0x08016f18   Section        0  bignum.o(.text.mbedtls_mpi_mod_int)
    [Anonymous Symbol]                       0x08016f9c   Section        0  bignum.o(.text.mbedtls_mpi_mod_mpi)
    [Anonymous Symbol]                       0x0801702c   Section        0  bignum.o(.text.mbedtls_mpi_mul_int)
    mbedtls_mpi_mul_int_mod                  0x08017099   Thumb Code    52  ecp.o(.text.mbedtls_mpi_mul_int_mod)
    [Anonymous Symbol]                       0x08017098   Section        0  ecp.o(.text.mbedtls_mpi_mul_int_mod)
    mbedtls_mpi_mul_mod                      0x080170cd   Thumb Code   172  ecp.o(.text.mbedtls_mpi_mul_mod)
    [Anonymous Symbol]                       0x080170cc   Section        0  ecp.o(.text.mbedtls_mpi_mul_mod)
    [Anonymous Symbol]                       0x08017178   Section        0  bignum.o(.text.mbedtls_mpi_mul_mpi)
    [Anonymous Symbol]                       0x0801727e   Section        0  bignum.o(.text.mbedtls_mpi_random)
    [Anonymous Symbol]                       0x080172dc   Section        0  bignum.o(.text.mbedtls_mpi_read_binary)
    mbedtls_mpi_resize_clear                 0x0801730b   Thumb Code    56  bignum.o(.text.mbedtls_mpi_resize_clear)
    [Anonymous Symbol]                       0x0801730a   Section        0  bignum.o(.text.mbedtls_mpi_resize_clear)
    [Anonymous Symbol]                       0x08017344   Section        0  bignum.o(.text.mbedtls_mpi_safe_cond_assign)
    [Anonymous Symbol]                       0x080173be   Section        0  bignum.o(.text.mbedtls_mpi_shift_l)
    mbedtls_mpi_shift_l_mod                  0x080173fd   Thumb Code    52  ecp.o(.text.mbedtls_mpi_shift_l_mod)
    [Anonymous Symbol]                       0x080173fc   Section        0  ecp.o(.text.mbedtls_mpi_shift_l_mod)
    [Anonymous Symbol]                       0x08017430   Section        0  bignum.o(.text.mbedtls_mpi_shift_r)
    [Anonymous Symbol]                       0x0801744c   Section        0  bignum.o(.text.mbedtls_mpi_shrink)
    [Anonymous Symbol]                       0x080174ba   Section        0  bignum.o(.text.mbedtls_mpi_size)
    [Anonymous Symbol]                       0x080174cc   Section        0  bignum.o(.text.mbedtls_mpi_sub_abs)
    [Anonymous Symbol]                       0x08017568   Section        0  bignum.o(.text.mbedtls_mpi_sub_int)
    mbedtls_mpi_sub_mod                      0x08017599   Thumb Code    74  ecp.o(.text.mbedtls_mpi_sub_mod)
    [Anonymous Symbol]                       0x08017598   Section        0  ecp.o(.text.mbedtls_mpi_sub_mod)
    [Anonymous Symbol]                       0x080175e2   Section        0  bignum.o(.text.mbedtls_mpi_sub_mpi)
    [Anonymous Symbol]                       0x080175ea   Section        0  bignum.o(.text.mbedtls_mpi_write_binary)
    [Anonymous Symbol]                       0x080175fa   Section        0  bignum.o(.text.mbedtls_mpi_write_binary_le)
    [Anonymous Symbol]                       0x0801760c   Section        0  oid.o(.text.mbedtls_oid_get_attr_short_name)
    [Anonymous Symbol]                       0x0801765c   Section        0  oid.o(.text.mbedtls_oid_get_certificate_policies)
    [Anonymous Symbol]                       0x08017690   Section        0  oid.o(.text.mbedtls_oid_get_ec_grp)
    [Anonymous Symbol]                       0x080176c2   Section        0  oid.o(.text.mbedtls_oid_get_ec_grp_algid)
    [Anonymous Symbol]                       0x080176c8   Section        0  oid.o(.text.mbedtls_oid_get_extended_key_usage)
    [Anonymous Symbol]                       0x08017718   Section        0  oid.o(.text.mbedtls_oid_get_numeric_string)
    [Anonymous Symbol]                       0x080177e8   Section        0  oid.o(.text.mbedtls_oid_get_oid_by_md)
    [Anonymous Symbol]                       0x08017834   Section        0  oid.o(.text.mbedtls_oid_get_pk_alg)
    [Anonymous Symbol]                       0x08017884   Section        0  oid.o(.text.mbedtls_oid_get_sig_alg)
    [Anonymous Symbol]                       0x080178a2   Section        0  oid.o(.text.mbedtls_oid_get_sig_alg_desc)
    [Anonymous Symbol]                       0x080178bc   Section        0  oid.o(.text.mbedtls_oid_get_x509_ext_type)
    [Anonymous Symbol]                       0x0801790c   Section        0  pk.o(.text.mbedtls_pk_can_do)
    [Anonymous Symbol]                       0x0801791c   Section        0  pk.o(.text.mbedtls_pk_debug)
    [Anonymous Symbol]                       0x08017944   Section        0  pk_ecc.o(.text.mbedtls_pk_ecc_set_group)
    [Anonymous Symbol]                       0x080179a4   Section        0  pk_ecc.o(.text.mbedtls_pk_ecc_set_pubkey)
    [Anonymous Symbol]                       0x080179c8   Section        0  pk.o(.text.mbedtls_pk_free)
    [Anonymous Symbol]                       0x080179e8   Section        0  pk.o(.text.mbedtls_pk_get_bitlen)
    [Anonymous Symbol]                       0x080179f6   Section        0  pk.o(.text.mbedtls_pk_get_name)
    [Anonymous Symbol]                       0x08017a0a   Section        0  pk.o(.text.mbedtls_pk_get_type)
    [Anonymous Symbol]                       0x08017a18   Section        0  pk.o(.text.mbedtls_pk_info_from_type)
    [Anonymous Symbol]                       0x08017a3c   Section        0  pk.o(.text.mbedtls_pk_init)
    [Anonymous Symbol]                       0x08017a44   Section        0  pkparse.o(.text.mbedtls_pk_parse_subpubkey)
    [Anonymous Symbol]                       0x08017b4e   Section        0  pk.o(.text.mbedtls_pk_setup)
    [Anonymous Symbol]                       0x08017b7a   Section        0  pk.o(.text.mbedtls_pk_sign)
    [Anonymous Symbol]                       0x08017b9a   Section        0  pk.o(.text.mbedtls_pk_sign_restartable)
    [Anonymous Symbol]                       0x08017c1e   Section        0  pk.o(.text.mbedtls_pk_verify)
    [Anonymous Symbol]                       0x08017c32   Section        0  pk.o(.text.mbedtls_pk_verify_ext)
    [Anonymous Symbol]                       0x08017d54   Section        0  pk.o(.text.mbedtls_pk_verify_restartable)
    [Anonymous Symbol]                       0x08017db8   Section        0  platform_util.o(.text.mbedtls_platform_zeroize)
    [Anonymous Symbol]                       0x08017dd4   Section        0  rsa.o(.text.mbedtls_rsa_check_privkey)
    [Anonymous Symbol]                       0x08017e42   Section        0  rsa.o(.text.mbedtls_rsa_check_pub_priv)
    [Anonymous Symbol]                       0x08017e82   Section        0  rsa.o(.text.mbedtls_rsa_check_pubkey)
    [Anonymous Symbol]                       0x08017ecc   Section        0  rsa.o(.text.mbedtls_rsa_complete)
    [Anonymous Symbol]                       0x0801808c   Section        0  rsa_alt_helpers.o(.text.mbedtls_rsa_deduce_crt)
    [Anonymous Symbol]                       0x0801810c   Section        0  rsa_alt_helpers.o(.text.mbedtls_rsa_deduce_primes)
    [Anonymous Symbol]                       0x080182fa   Section        0  rsa_alt_helpers.o(.text.mbedtls_rsa_deduce_private_exponent)
    [Anonymous Symbol]                       0x080183b6   Section        0  rsa.o(.text.mbedtls_rsa_free)
    [Anonymous Symbol]                       0x08018428   Section        0  rsa.o(.text.mbedtls_rsa_get_bitlen)
    [Anonymous Symbol]                       0x0801842e   Section        0  rsa.o(.text.mbedtls_rsa_get_len)
    [Anonymous Symbol]                       0x08018432   Section        0  rsa.o(.text.mbedtls_rsa_init)
    [Anonymous Symbol]                       0x0801843c   Section        0  rsa.o(.text.mbedtls_rsa_parse_pubkey)
    [Anonymous Symbol]                       0x080184f6   Section        0  rsa.o(.text.mbedtls_rsa_pkcs1_decrypt)
    [Anonymous Symbol]                       0x0801853e   Section        0  rsa.o(.text.mbedtls_rsa_pkcs1_encrypt)
    [Anonymous Symbol]                       0x08018582   Section        0  rsa.o(.text.mbedtls_rsa_pkcs1_sign)
    [Anonymous Symbol]                       0x080185d8   Section        0  rsa.o(.text.mbedtls_rsa_pkcs1_verify)
    [Anonymous Symbol]                       0x08018618   Section        0  rsa.o(.text.mbedtls_rsa_private)
    [Anonymous Symbol]                       0x080189d4   Section        0  rsa.o(.text.mbedtls_rsa_public)
    [Anonymous Symbol]                       0x08018a60   Section        0  rsa.o(.text.mbedtls_rsa_rsaes_oaep_decrypt)
    [Anonymous Symbol]                       0x08018c2a   Section        0  rsa.o(.text.mbedtls_rsa_rsaes_oaep_encrypt)
    [Anonymous Symbol]                       0x08018d40   Section        0  rsa.o(.text.mbedtls_rsa_rsaes_pkcs1_v15_decrypt)
    [Anonymous Symbol]                       0x08018f40   Section        0  rsa.o(.text.mbedtls_rsa_rsaes_pkcs1_v15_encrypt)
    [Anonymous Symbol]                       0x08018ff6   Section        0  rsa.o(.text.mbedtls_rsa_rsassa_pkcs1_v15_sign)
    [Anonymous Symbol]                       0x080190ca   Section        0  rsa.o(.text.mbedtls_rsa_rsassa_pkcs1_v15_verify)
    [Anonymous Symbol]                       0x0801916a   Section        0  rsa.o(.text.mbedtls_rsa_rsassa_pss_verify)
    [Anonymous Symbol]                       0x080191a4   Section        0  rsa.o(.text.mbedtls_rsa_rsassa_pss_verify_ext)
    [Anonymous Symbol]                       0x08019328   Section        0  rsa_alt_helpers.o(.text.mbedtls_rsa_validate_crt)
    [Anonymous Symbol]                       0x08019456   Section        0  rsa_alt_helpers.o(.text.mbedtls_rsa_validate_params)
    [Anonymous Symbol]                       0x08019642   Section        0  sha256.o(.text.mbedtls_sha256)
    [Anonymous Symbol]                       0x080196d8   Section        0  sha256.o(.text.mbedtls_sha256_clone)
    [Anonymous Symbol]                       0x080196e2   Section        0  sha256.o(.text.mbedtls_sha256_finish)
    [Anonymous Symbol]                       0x08019774   Section        0  sha256.o(.text.mbedtls_sha256_free)
    [Anonymous Symbol]                       0x08019780   Section        0  sha256.o(.text.mbedtls_sha256_init)
    [Anonymous Symbol]                       0x0801978a   Section        0  sha256.o(.text.mbedtls_sha256_starts)
    [Anonymous Symbol]                       0x080197f0   Section        0  sha256.o(.text.mbedtls_sha256_update)
    [Anonymous Symbol]                       0x0801988c   Section        0  sha512.o(.text.mbedtls_sha512)
    [Anonymous Symbol]                       0x08019a24   Section        0  sha512.o(.text.mbedtls_sha512_clone)
    [Anonymous Symbol]                       0x08019a2e   Section        0  sha512.o(.text.mbedtls_sha512_finish)
    [Anonymous Symbol]                       0x08019b1a   Section        0  sha512.o(.text.mbedtls_sha512_free)
    [Anonymous Symbol]                       0x08019b26   Section        0  sha512.o(.text.mbedtls_sha512_init)
    [Anonymous Symbol]                       0x08019b30   Section        0  sha512.o(.text.mbedtls_sha512_starts)
    [Anonymous Symbol]                       0x08019c9c   Section        0  sha512.o(.text.mbedtls_sha512_update)
    [Anonymous Symbol]                       0x08019d5a   Section        0  ssl_tls.o(.text.mbedtls_ssl_add_hs_hdr_to_checksum)
    [Anonymous Symbol]                       0x08019d80   Section        0  ssl_tls.o(.text.mbedtls_ssl_check_cert_usage)
    [Anonymous Symbol]                       0x08019e28   Section        0  ssl_tls.o(.text.mbedtls_ssl_check_curve)
    [Anonymous Symbol]                       0x08019e38   Section        0  ssl_tls.o(.text.mbedtls_ssl_check_curve_tls_id)
    [Anonymous Symbol]                       0x08019e64   Section        0  ssl_msg.o(.text.mbedtls_ssl_check_timer)
    [Anonymous Symbol]                       0x08019eb4   Section        0  ssl_ciphersuites.o(.text.mbedtls_ssl_ciphersuite_from_id)
    [Anonymous Symbol]                       0x08019ed8   Section        0  ssl_ciphersuites.o(.text.mbedtls_ssl_ciphersuite_uses_ec)
    [Anonymous Symbol]                       0x08019f14   Section        0  ssl_tls.o(.text.mbedtls_ssl_conf_authmode)
    [Anonymous Symbol]                       0x08019f18   Section        0  ssl_tls.o(.text.mbedtls_ssl_conf_ca_chain)
    [Anonymous Symbol]                       0x08019f1e   Section        0  ssl_tls.o(.text.mbedtls_ssl_conf_dbg)
    [Anonymous Symbol]                       0x08019f24   Section        0  ssl_tls.o(.text.mbedtls_ssl_conf_rng)
    [Anonymous Symbol]                       0x08019f2c   Section        0  ssl_tls.o(.text.mbedtls_ssl_config_defaults)
    [Anonymous Symbol]                       0x0801a088   Section        0  ssl_tls.o(.text.mbedtls_ssl_config_free)
    [Anonymous Symbol]                       0x0801a0a8   Section        0  ssl_tls.o(.text.mbedtls_ssl_config_init)
    [Anonymous Symbol]                       0x0801a0b4   Section        0  ssl_msg.o(.text.mbedtls_ssl_decrypt_buf)
    [Anonymous Symbol]                       0x0801a3b0   Section        0  ssl_tls.o(.text.mbedtls_ssl_derive_keys)
    [Anonymous Symbol]                       0x0801aa1c   Section        0  ssl_msg.o(.text.mbedtls_ssl_encrypt_buf)
    [Anonymous Symbol]                       0x0801adb8   Section        0  ssl_msg.o(.text.mbedtls_ssl_fetch_input)
    [Anonymous Symbol]                       0x0801afce   Section        0  ssl_msg.o(.text.mbedtls_ssl_finish_handshake_msg)
    [Anonymous Symbol]                       0x0801afdc   Section        0  ssl_msg.o(.text.mbedtls_ssl_flush_output)
    [Anonymous Symbol]                       0x0801b1ac   Section        0  ssl_tls.o(.text.mbedtls_ssl_free)
    [Anonymous Symbol]                       0x0801b280   Section        0  ssl_ciphersuites.o(.text.mbedtls_ssl_get_ciphersuite_name)
    [Anonymous Symbol]                       0x0801b2b4   Section        0  ssl_ciphersuites.o(.text.mbedtls_ssl_get_ciphersuite_sig_alg)
    [Anonymous Symbol]                       0x0801b2d4   Section        0  ssl_ciphersuites.o(.text.mbedtls_ssl_get_ciphersuite_sig_pk_alg)
    [Anonymous Symbol]                       0x0801b2f4   Section        0  ssl_tls.o(.text.mbedtls_ssl_get_curve_name_from_tls_id)
    [Anonymous Symbol]                       0x0801b31e   Section        0  ssl_tls.o(.text.mbedtls_ssl_get_ecp_group_id_from_tls_id)
    [Anonymous Symbol]                       0x0801b32c   Section        0  ssl_tls.o(.text.mbedtls_ssl_get_key_exchange_md_tls1_2)
    [Anonymous Symbol]                       0x0801b47c   Section        0  ssl_tls.o(.text.mbedtls_ssl_get_max_out_record_payload)
    [Anonymous Symbol]                       0x0801b492   Section        0  ssl_tls.o(.text.mbedtls_ssl_get_mode_from_transform)
    mbedtls_ssl_get_pk_type_and_md_alg_from_sig_alg 0x0801b4b5   Thumb Code    62  ssl_tls12_client.o(.text.mbedtls_ssl_get_pk_type_and_md_alg_from_sig_alg)
    [Anonymous Symbol]                       0x0801b4b4   Section        0  ssl_tls12_client.o(.text.mbedtls_ssl_get_pk_type_and_md_alg_from_sig_alg)
    [Anonymous Symbol]                       0x0801b4f2   Section        0  ssl_tls.o(.text.mbedtls_ssl_get_tls_id_from_ecp_group_id)
    [Anonymous Symbol]                       0x0801b500   Section        0  ssl_msg.o(.text.mbedtls_ssl_handle_message_type)
    [Anonymous Symbol]                       0x0801b6b8   Section        0  ssl_msg.o(.text.mbedtls_ssl_handle_pending_alert)
    [Anonymous Symbol]                       0x0801b6f4   Section        0  ssl_tls.o(.text.mbedtls_ssl_handshake)
    [Anonymous Symbol]                       0x0801b778   Section        0  ssl_tls12_client.o(.text.mbedtls_ssl_handshake_client_step)
    [Anonymous Symbol]                       0x0801cb78   Section        0  ssl_tls.o(.text.mbedtls_ssl_handshake_free)
    [Anonymous Symbol]                       0x0801cbd8   Section        0  ssl_tls12_server.o(.text.mbedtls_ssl_handshake_server_step)
    [Anonymous Symbol]                       0x0801e668   Section        0  ssl_tls.o(.text.mbedtls_ssl_handshake_step)
    [Anonymous Symbol]                       0x0801e728   Section        0  ssl_tls.o(.text.mbedtls_ssl_handshake_wrapup)
    [Anonymous Symbol]                       0x0801e7f8   Section        0  ssl_tls.o(.text.mbedtls_ssl_handshake_wrapup_free_hs_transform)
    [Anonymous Symbol]                       0x0801e894   Section        0  ssl_tls.o(.text.mbedtls_ssl_hash_from_md_alg)
    [Anonymous Symbol]                       0x0801e8a4   Section        0  ssl_tls.o(.text.mbedtls_ssl_init)
    [Anonymous Symbol]                       0x0801e8ae   Section        0  ssl_ciphersuites.o(.text.mbedtls_ssl_list_ciphersuites)
    [Anonymous Symbol]                       0x0801e8b8   Section        0  ssl_tls.o(.text.mbedtls_ssl_md_alg_from_hash)
    [Anonymous Symbol]                       0x0801e8c8   Section        0  ssl_debug_helpers_generated.o(.text.mbedtls_ssl_named_group_to_str)
    [Anonymous Symbol]                       0x0801ea10   Section        0  ssl_tls.o(.text.mbedtls_ssl_optimize_checksum)
    [Anonymous Symbol]                       0x0801ea30   Section        0  ssl_tls.o(.text.mbedtls_ssl_parse_certificate)
    [Anonymous Symbol]                       0x0801f0bc   Section        0  ssl_msg.o(.text.mbedtls_ssl_parse_change_cipher_spec)
    [Anonymous Symbol]                       0x0801f220   Section        0  ssl_tls.o(.text.mbedtls_ssl_parse_finished)
    [Anonymous Symbol]                       0x0801f3dc   Section        0  ssl_tls.o(.text.mbedtls_ssl_parse_sig_alg_ext)
    [Anonymous Symbol]                       0x0801f65e   Section        0  ssl_msg.o(.text.mbedtls_ssl_pend_fatal_alert)
    [Anonymous Symbol]                       0x0801f66e   Section        0  ssl_tls.o(.text.mbedtls_ssl_pk_alg_from_sig)
    [Anonymous Symbol]                       0x0801f680   Section        0  ssl_msg.o(.text.mbedtls_ssl_prepare_handshake_record)
    [Anonymous Symbol]                       0x0801f7a8   Section        0  ssl_msg.o(.text.mbedtls_ssl_read)
    [Anonymous Symbol]                       0x0801fac4   Section        0  ssl_msg.o(.text.mbedtls_ssl_read_record)
    [Anonymous Symbol]                       0x08020032   Section        0  ssl_msg.o(.text.mbedtls_ssl_read_version)
    [Anonymous Symbol]                       0x0802003a   Section        0  ssl_tls.o(.text.mbedtls_ssl_reset_checksum)
    [Anonymous Symbol]                       0x080200b2   Section        0  ssl_msg.o(.text.mbedtls_ssl_reset_in_out_pointers)
    [Anonymous Symbol]                       0x080200ec   Section        0  ssl_msg.o(.text.mbedtls_ssl_send_alert_message)
    [Anonymous Symbol]                       0x08020204   Section        0  ssl_tls.o(.text.mbedtls_ssl_session_free)
    [Anonymous Symbol]                       0x0802022a   Section        0  ssl_tls.o(.text.mbedtls_ssl_session_init)
    [Anonymous Symbol]                       0x08020234   Section        0  ssl_tls.o(.text.mbedtls_ssl_set_bio)
    [Anonymous Symbol]                       0x08020244   Section        0  ssl_tls.o(.text.mbedtls_ssl_set_calc_verify_md)
    [Anonymous Symbol]                       0x0802026c   Section        0  ssl_tls.o(.text.mbedtls_ssl_set_hostname)
    [Anonymous Symbol]                       0x080202d4   Section        0  ssl_msg.o(.text.mbedtls_ssl_set_timer)
    [Anonymous Symbol]                       0x08020324   Section        0  ssl_tls.o(.text.mbedtls_ssl_setup)
    mbedtls_ssl_sig_alg_is_offered           0x080204a5   Thumb Code    48  ssl_tls12_client.o(.text.mbedtls_ssl_sig_alg_is_offered)
    [Anonymous Symbol]                       0x080204a4   Section        0  ssl_tls12_client.o(.text.mbedtls_ssl_sig_alg_is_offered)
    [Anonymous Symbol]                       0x080204d4   Section        0  ssl_debug_helpers_generated.o(.text.mbedtls_ssl_sig_alg_to_str)
    [Anonymous Symbol]                       0x08020658   Section        0  ssl_tls.o(.text.mbedtls_ssl_sig_from_pk)
    [Anonymous Symbol]                       0x0802067a   Section        0  ssl_tls.o(.text.mbedtls_ssl_sig_from_pk_alg)
    [Anonymous Symbol]                       0x08020696   Section        0  ssl_msg.o(.text.mbedtls_ssl_start_handshake_msg)
    [Anonymous Symbol]                       0x080206b8   Section        0  ssl_debug_helpers_generated.o(.text.mbedtls_ssl_states_str)
    [Anonymous Symbol]                       0x080206d8   Section        0  ssl_tls.o(.text.mbedtls_ssl_tls12_get_preferred_hash_for_sig_alg)
    [Anonymous Symbol]                       0x08020708   Section        0  ssl_tls12_client.o(.text.mbedtls_ssl_tls12_write_client_hello_exts)
    [Anonymous Symbol]                       0x080207e0   Section        0  ssl_msg.o(.text.mbedtls_ssl_transform_free)
    [Anonymous Symbol]                       0x08020802   Section        0  ssl_msg.o(.text.mbedtls_ssl_update_handshake_status)
    [Anonymous Symbol]                       0x0802084e   Section        0  ssl_msg.o(.text.mbedtls_ssl_update_out_pointers)
    [Anonymous Symbol]                       0x08020872   Section        0  ssl_tls.o(.text.mbedtls_ssl_validate_ciphersuite)
    [Anonymous Symbol]                       0x08020890   Section        0  ssl_msg.o(.text.mbedtls_ssl_write)
    [Anonymous Symbol]                       0x080209f8   Section        0  ssl_tls.o(.text.mbedtls_ssl_write_certificate)
    [Anonymous Symbol]                       0x08020c44   Section        0  ssl_msg.o(.text.mbedtls_ssl_write_change_cipher_spec)
    [Anonymous Symbol]                       0x08020d18   Section        0  ssl_client.o(.text.mbedtls_ssl_write_client_hello)
    [Anonymous Symbol]                       0x08021180   Section        0  ssl_tls.o(.text.mbedtls_ssl_write_finished)
    [Anonymous Symbol]                       0x080212dc   Section        0  ssl_msg.o(.text.mbedtls_ssl_write_handshake_msg_ext)
    [Anonymous Symbol]                       0x080214b4   Section        0  ssl_msg.o(.text.mbedtls_ssl_write_record)
    [Anonymous Symbol]                       0x08021740   Section        0  ssl_tls.o(.text.mbedtls_ssl_write_sig_alg_ext)
    [Anonymous Symbol]                       0x08021932   Section        0  ssl_msg.o(.text.mbedtls_ssl_write_version)
    [Anonymous Symbol]                       0x08021938   Section        0  x509_crt.o(.text.mbedtls_x509_crt_check_extended_key_usage)
    [Anonymous Symbol]                       0x08021992   Section        0  x509_crt.o(.text.mbedtls_x509_crt_check_key_usage)
    [Anonymous Symbol]                       0x080219cc   Section        0  x509_crt.o(.text.mbedtls_x509_crt_free)
    [Anonymous Symbol]                       0x08021a3c   Section        0  x509_crt.o(.text.mbedtls_x509_crt_info)
    [Anonymous Symbol]                       0x08021ede   Section        0  x509_crt.o(.text.mbedtls_x509_crt_init)
    [Anonymous Symbol]                       0x08021eea   Section        0  x509_crt.o(.text.mbedtls_x509_crt_parse)
    [Anonymous Symbol]                       0x08021f14   Section        0  x509_crt.o(.text.mbedtls_x509_crt_parse_cn_inet_pton)
    mbedtls_x509_crt_parse_der_internal      0x0802208d   Thumb Code   930  x509_crt.o(.text.mbedtls_x509_crt_parse_der_internal)
    [Anonymous Symbol]                       0x0802208c   Section        0  x509_crt.o(.text.mbedtls_x509_crt_parse_der_internal)
    [Anonymous Symbol]                       0x08022434   Section        0  x509_crt.o(.text.mbedtls_x509_crt_parse_der_nocopy)
    [Anonymous Symbol]                       0x0802244e   Section        0  x509_crt.o(.text.mbedtls_x509_crt_verify_restartable)
    [Anonymous Symbol]                       0x0802246c   Section        0  x509.o(.text.mbedtls_x509_dn_gets)
    [Anonymous Symbol]                       0x08022782   Section        0  x509.o(.text.mbedtls_x509_get_alg)
    [Anonymous Symbol]                       0x08022792   Section        0  x509.o(.text.mbedtls_x509_get_ext)
    [Anonymous Symbol]                       0x080227e0   Section        0  x509.o(.text.mbedtls_x509_get_key_usage)
    [Anonymous Symbol]                       0x08022828   Section        0  x509.o(.text.mbedtls_x509_get_name)
    [Anonymous Symbol]                       0x08022974   Section        0  x509.o(.text.mbedtls_x509_get_ns_cert_type)
    [Anonymous Symbol]                       0x080229b4   Section        0  x509.o(.text.mbedtls_x509_get_serial)
    [Anonymous Symbol]                       0x08022a04   Section        0  x509.o(.text.mbedtls_x509_get_sig)
    [Anonymous Symbol]                       0x08022a46   Section        0  x509.o(.text.mbedtls_x509_get_sig_alg)
    [Anonymous Symbol]                       0x08022a82   Section        0  x509.o(.text.mbedtls_x509_get_subject_alt_name)
    [Anonymous Symbol]                       0x08022ac0   Section        0  x509.o(.text.mbedtls_x509_get_subject_alt_name_ext)
    [Anonymous Symbol]                       0x08022bae   Section        0  x509.o(.text.mbedtls_x509_get_time)
    [Anonymous Symbol]                       0x08022de8   Section        0  x509.o(.text.mbedtls_x509_info_cert_type)
    [Anonymous Symbol]                       0x08022fa8   Section        0  x509.o(.text.mbedtls_x509_info_key_usage)
    [Anonymous Symbol]                       0x080231b0   Section        0  x509.o(.text.mbedtls_x509_info_subject_alt_name)
    [Anonymous Symbol]                       0x08023608   Section        0  x509.o(.text.mbedtls_x509_key_size_helper)
    [Anonymous Symbol]                       0x0802363c   Section        0  x509.o(.text.mbedtls_x509_parse_subject_alt_name)
    [Anonymous Symbol]                       0x080237dc   Section        0  x509.o(.text.mbedtls_x509_serial_gets)
    [Anonymous Symbol]                       0x08023898   Section        0  x509.o(.text.mbedtls_x509_sig_alg_gets)
    [Anonymous Symbol]                       0x080238f0   Section        0  platform_util.o(.text.mbedtls_zeroize_and_free)
    mgf_mask                                 0x08023915   Thumb Code   214  rsa.o(.text.mgf_mask)
    [Anonymous Symbol]                       0x08023914   Section        0  rsa.o(.text.mgf_mask)
    mpi_check_small_factors                  0x080239f1   Thumb Code   122  bignum.o(.text.mpi_check_small_factors)
    [Anonymous Symbol]                       0x080239f0   Section        0  bignum.o(.text.mpi_check_small_factors)
    mpi_miller_rabin                         0x08023a6d   Thumb Code   616  bignum.o(.text.mpi_miller_rabin)
    [Anonymous Symbol]                       0x08023a6c   Section        0  bignum.o(.text.mpi_miller_rabin)
    oid_sig_alg_from_asn1                    0x08023cdd   Thumb Code    54  oid.o(.text.oid_sig_alg_from_asn1)
    [Anonymous Symbol]                       0x08023cdc   Section        0  oid.o(.text.oid_sig_alg_from_asn1)
    page256_or_1_byte_write                  0x08023d15   Thumb Code   676  sfud.o(.text.page256_or_1_byte_write)
    [Anonymous Symbol]                       0x08023d14   Section        0  sfud.o(.text.page256_or_1_byte_write)
    parse_hex4                               0x08023fe9   Thumb Code    82  cjson.o(.text.parse_hex4)
    [Anonymous Symbol]                       0x08023fe8   Section        0  cjson.o(.text.parse_hex4)
    parse_string                             0x0802403d   Thumb Code   474  cjson.o(.text.parse_string)
    [Anonymous Symbol]                       0x0802403c   Section        0  cjson.o(.text.parse_string)
    parse_url_char                           0x0802421d   Thumb Code   406  http_parser.o(.text.parse_url_char)
    [Anonymous Symbol]                       0x0802421c   Section        0  http_parser.o(.text.parse_url_char)
    parse_value                              0x080243b9   Thumb Code   872  cjson.o(.text.parse_value)
    [Anonymous Symbol]                       0x080243b8   Section        0  cjson.o(.text.parse_value)
    pk_get_pk_alg                            0x08024741   Thumb Code   108  pkparse.o(.text.pk_get_pk_alg)
    [Anonymous Symbol]                       0x08024740   Section        0  pkparse.o(.text.pk_get_pk_alg)
    pk_use_ecparams                          0x080247ad   Thumb Code    54  pkparse.o(.text.pk_use_ecparams)
    [Anonymous Symbol]                       0x080247ac   Section        0  pkparse.o(.text.pk_use_ecparams)
    [Anonymous Symbol]                       0x080247e2   Section        0  mqttpacket.o(.text.readChar)
    [Anonymous Symbol]                       0x080247ee   Section        0  mqttpacket.o(.text.readInt)
    [Anonymous Symbol]                       0x080247fc   Section        0  mqttpacket.o(.text.readMQTTLenString)
    read_sfdp_data                           0x0802483d   Thumb Code   296  sfud_sfdp.o(.text.read_sfdp_data)
    [Anonymous Symbol]                       0x0802483c   Section        0  sfud_sfdp.o(.text.read_sfdp_data)
    rsa_alloc_wrap                           0x08024991   Thumb Code    24  pk_wrap.o(.text.rsa_alloc_wrap)
    [Anonymous Symbol]                       0x08024990   Section        0  pk_wrap.o(.text.rsa_alloc_wrap)
    rsa_can_do                               0x080249a9   Thumb Code    20  pk_wrap.o(.text.rsa_can_do)
    [Anonymous Symbol]                       0x080249a8   Section        0  pk_wrap.o(.text.rsa_can_do)
    rsa_check_context                        0x080249bd   Thumb Code   188  rsa.o(.text.rsa_check_context)
    [Anonymous Symbol]                       0x080249bc   Section        0  rsa.o(.text.rsa_check_context)
    rsa_check_pair_wrap                      0x08024a79   Thumb Code     8  pk_wrap.o(.text.rsa_check_pair_wrap)
    [Anonymous Symbol]                       0x08024a78   Section        0  pk_wrap.o(.text.rsa_check_pair_wrap)
    rsa_debug                                0x08024a81   Thumb Code    32  pk_wrap.o(.text.rsa_debug)
    [Anonymous Symbol]                       0x08024a80   Section        0  pk_wrap.o(.text.rsa_debug)
    rsa_decrypt_wrap                         0x08024ab1   Thumb Code    58  pk_wrap.o(.text.rsa_decrypt_wrap)
    [Anonymous Symbol]                       0x08024ab0   Section        0  pk_wrap.o(.text.rsa_decrypt_wrap)
    rsa_encrypt_wrap                         0x08024aeb   Thumb Code    68  pk_wrap.o(.text.rsa_encrypt_wrap)
    [Anonymous Symbol]                       0x08024aea   Section        0  pk_wrap.o(.text.rsa_encrypt_wrap)
    rsa_free_wrap                            0x08024b2f   Thumb Code    18  pk_wrap.o(.text.rsa_free_wrap)
    [Anonymous Symbol]                       0x08024b2e   Section        0  pk_wrap.o(.text.rsa_free_wrap)
    rsa_get_bitlen                           0x08024b41   Thumb Code     6  pk_wrap.o(.text.rsa_get_bitlen)
    [Anonymous Symbol]                       0x08024b40   Section        0  pk_wrap.o(.text.rsa_get_bitlen)
    rsa_rsassa_pkcs1_v15_encode              0x08024b47   Thumb Code   256  rsa.o(.text.rsa_rsassa_pkcs1_v15_encode)
    [Anonymous Symbol]                       0x08024b46   Section        0  rsa.o(.text.rsa_rsassa_pkcs1_v15_encode)
    rsa_rsassa_pss_sign_no_mode_check        0x08024c4d   Thumb Code   348  rsa.o(.text.rsa_rsassa_pss_sign_no_mode_check)
    [Anonymous Symbol]                       0x08024c4c   Section        0  rsa.o(.text.rsa_rsassa_pss_sign_no_mode_check)
    rsa_sign_wrap                            0x08024daf   Thumb Code    76  pk_wrap.o(.text.rsa_sign_wrap)
    [Anonymous Symbol]                       0x08024dae   Section        0  pk_wrap.o(.text.rsa_sign_wrap)
    rsa_unblind                              0x08024dfb   Thumb Code   156  rsa.o(.text.rsa_unblind)
    [Anonymous Symbol]                       0x08024dfa   Section        0  rsa.o(.text.rsa_unblind)
    rsa_verify_wrap                          0x08024e97   Thumb Code    78  pk_wrap.o(.text.rsa_verify_wrap)
    [Anonymous Symbol]                       0x08024e96   Section        0  pk_wrap.o(.text.rsa_verify_wrap)
    set_write_enabled                        0x08024ee5   Thumb Code   144  sfud.o(.text.set_write_enabled)
    [Anonymous Symbol]                       0x08024ee4   Section        0  sfud.o(.text.set_write_enabled)
    [Anonymous Symbol]                       0x08024f98   Section        0  sfud.o(.text.sfud_chip_erase)
    [Anonymous Symbol]                       0x08025128   Section        0  sfud.o(.text.sfud_device_init)
    [Anonymous Symbol]                       0x080256d8   Section        0  sfud.o(.text.sfud_erase)
    [Anonymous Symbol]                       0x08025954   Section        0  sfud.o(.text.sfud_read)
    [Anonymous Symbol]                       0x08025b28   Section        0  sfud_sfdp.o(.text.sfud_read_sfdp)
    [Anonymous Symbol]                       0x080263d8   Section        0  sfud.o(.text.sfud_read_status)
    [Anonymous Symbol]                       0x080264a4   Section        0  sfud_sfdp.o(.text.sfud_sfdp_get_suitable_eraser)
    [Anonymous Symbol]                       0x08026548   Section        0  sfud.o(.text.sfud_write)
    [Anonymous Symbol]                       0x08026778   Section        0  sfud.o(.text.sfud_write_status)
    ssl_calc_finished_tls_generic            0x08026891   Thumb Code   248  ssl_tls.o(.text.ssl_calc_finished_tls_generic)
    [Anonymous Symbol]                       0x08026890   Section        0  ssl_tls.o(.text.ssl_calc_finished_tls_generic)
    ssl_calc_finished_tls_sha256             0x08026a03   Thumb Code    30  ssl_tls.o(.text.ssl_calc_finished_tls_sha256)
    [Anonymous Symbol]                       0x08026a02   Section        0  ssl_tls.o(.text.ssl_calc_finished_tls_sha256)
    ssl_calc_finished_tls_sha384             0x08026a21   Thumb Code    30  ssl_tls.o(.text.ssl_calc_finished_tls_sha384)
    [Anonymous Symbol]                       0x08026a20   Section        0  ssl_tls.o(.text.ssl_calc_finished_tls_sha384)
    ssl_calc_verify_tls_legacy               0x08026a41   Thumb Code   172  ssl_tls.o(.text.ssl_calc_verify_tls_legacy)
    [Anonymous Symbol]                       0x08026a40   Section        0  ssl_tls.o(.text.ssl_calc_verify_tls_legacy)
    ssl_calc_verify_tls_sha256               0x08026b29   Thumb Code    16  ssl_tls.o(.text.ssl_calc_verify_tls_sha256)
    [Anonymous Symbol]                       0x08026b28   Section        0  ssl_tls.o(.text.ssl_calc_verify_tls_sha256)
    ssl_calc_verify_tls_sha384               0x08026b39   Thumb Code    16  ssl_tls.o(.text.ssl_calc_verify_tls_sha384)
    [Anonymous Symbol]                       0x08026b38   Section        0  ssl_tls.o(.text.ssl_calc_verify_tls_sha384)
    ssl_check_no_sig_alg_duplication         0x08026b49   Thumb Code    80  ssl_tls.o(.text.ssl_check_no_sig_alg_duplication)
    [Anonymous Symbol]                       0x08026b48   Section        0  ssl_tls.o(.text.ssl_check_no_sig_alg_duplication)
    ssl_ciphersuite_match                    0x08026bc1   Thumb Code   628  ssl_tls12_server.o(.text.ssl_ciphersuite_match)
    [Anonymous Symbol]                       0x08026bc0   Section        0  ssl_tls12_server.o(.text.ssl_ciphersuite_match)
    ssl_handshake_init                       0x08026eb1   Thumb Code   544  ssl_tls.o(.text.ssl_handshake_init)
    [Anonymous Symbol]                       0x08026eb0   Section        0  ssl_tls.o(.text.ssl_handshake_init)
    ssl_parse_renegotiation_info             0x08027111   Thumb Code    76  ssl_tls12_client.o(.text.ssl_parse_renegotiation_info)
    [Anonymous Symbol]                       0x08027110   Section        0  ssl_tls12_client.o(.text.ssl_parse_renegotiation_info)
    ssl_parse_renegotiation_info             0x08027181   Thumb Code    72  ssl_tls12_server.o(.text.ssl_parse_renegotiation_info)
    [Anonymous Symbol]                       0x08027180   Section        0  ssl_tls12_server.o(.text.ssl_parse_renegotiation_info)
    ssl_parse_supported_groups_ext           0x080271ed   Thumb Code   300  ssl_tls12_server.o(.text.ssl_parse_supported_groups_ext)
    [Anonymous Symbol]                       0x080271ec   Section        0  ssl_tls12_server.o(.text.ssl_parse_supported_groups_ext)
    ssl_parse_supported_point_formats        0x08027321   Thumb Code   132  ssl_tls12_server.o(.text.ssl_parse_supported_point_formats)
    [Anonymous Symbol]                       0x08027320   Section        0  ssl_tls12_server.o(.text.ssl_parse_supported_point_formats)
    ssl_parse_supported_point_formats_ext    0x080273c1   Thumb Code   180  ssl_tls12_client.o(.text.ssl_parse_supported_point_formats_ext)
    [Anonymous Symbol]                       0x080273c0   Section        0  ssl_tls12_client.o(.text.ssl_parse_supported_point_formats_ext)
    ssl_remember_peer_crt_digest             0x080274ad   Thumb Code   116  ssl_tls.o(.text.ssl_remember_peer_crt_digest)
    [Anonymous Symbol]                       0x080274ac   Section        0  ssl_tls.o(.text.ssl_remember_peer_crt_digest)
    ssl_remember_peer_pubkey                 0x08027539   Thumb Code    48  ssl_tls.o(.text.ssl_remember_peer_pubkey)
    [Anonymous Symbol]                       0x08027538   Section        0  ssl_tls.o(.text.ssl_remember_peer_pubkey)
    ssl_update_checksum_sha256               0x08027569   Thumb Code    10  ssl_tls.o(.text.ssl_update_checksum_sha256)
    [Anonymous Symbol]                       0x08027568   Section        0  ssl_tls.o(.text.ssl_update_checksum_sha256)
    ssl_update_checksum_sha384               0x08027573   Thumb Code    10  ssl_tls.o(.text.ssl_update_checksum_sha384)
    [Anonymous Symbol]                       0x08027572   Section        0  ssl_tls.o(.text.ssl_update_checksum_sha384)
    ssl_update_checksum_start                0x0802757d   Thumb Code    40  ssl_tls.o(.text.ssl_update_checksum_start)
    [Anonymous Symbol]                       0x0802757c   Section        0  ssl_tls.o(.text.ssl_update_checksum_start)
    ssl_write_supported_groups_ext           0x080275a5   Thumb Code   352  ssl_client.o(.text.ssl_write_supported_groups_ext)
    [Anonymous Symbol]                       0x080275a4   Section        0  ssl_client.o(.text.ssl_write_supported_groups_ext)
    ssl_write_supported_point_formats_ext    0x0802778d   Thumb Code    68  ssl_tls12_server.o(.text.ssl_write_supported_point_formats_ext)
    [Anonymous Symbol]                       0x0802778c   Section        0  ssl_tls12_server.o(.text.ssl_write_supported_point_formats_ext)
    tls_prf_generic                          0x08027801   Thumb Code   378  ssl_tls.o(.text.tls_prf_generic)
    [Anonymous Symbol]                       0x08027800   Section        0  ssl_tls.o(.text.tls_prf_generic)
    tls_prf_sha256                           0x08027981   Thumb Code    36  ssl_tls.o(.text.tls_prf_sha256)
    [Anonymous Symbol]                       0x08027980   Section        0  ssl_tls.o(.text.tls_prf_sha256)
    tls_prf_sha384                           0x080279a5   Thumb Code    36  ssl_tls.o(.text.tls_prf_sha384)
    [Anonymous Symbol]                       0x080279a4   Section        0  ssl_tls.o(.text.tls_prf_sha384)
    wait_busy                                0x080279c9   Thumb Code   124  sfud.o(.text.wait_busy)
    [Anonymous Symbol]                       0x080279c8   Section        0  sfud.o(.text.wait_busy)
    [Anonymous Symbol]                       0x08027a70   Section        0  mqttpacket.o(.text.writeCString)
    [Anonymous Symbol]                       0x08027aa8   Section        0  mqttpacket.o(.text.writeChar)
    [Anonymous Symbol]                       0x08027ab4   Section        0  mqttpacket.o(.text.writeInt)
    [Anonymous Symbol]                       0x08027ad0   Section        0  mqttpacket.o(.text.writeMQTTString)
    x509_crt_check_cn                        0x08027b39   Thumb Code   166  x509_crt.o(.text.x509_crt_check_cn)
    [Anonymous Symbol]                       0x08027b38   Section        0  x509_crt.o(.text.x509_crt_check_cn)
    x509_crt_verify_restartable_ca_cb        0x08027be1   Thumb Code  1060  x509_crt.o(.text.x509_crt_verify_restartable_ca_cb)
    [Anonymous Symbol]                       0x08027be0   Section        0  x509_crt.o(.text.x509_crt_verify_restartable_ca_cb)
    x509_get_authority_key_id                0x0802800f   Thumb Code   180  x509_crt.o(.text.x509_get_authority_key_id)
    [Anonymous Symbol]                       0x0802800e   Section        0  x509_crt.o(.text.x509_get_authority_key_id)
    x509_get_basic_constraints               0x080280c3   Thumb Code   140  x509_crt.o(.text.x509_get_basic_constraints)
    [Anonymous Symbol]                       0x080280c2   Section        0  x509_crt.o(.text.x509_get_basic_constraints)
    x509_get_certificate_policies            0x08028151   Thumb Code   244  x509_crt.o(.text.x509_get_certificate_policies)
    [Anonymous Symbol]                       0x08028150   Section        0  x509_crt.o(.text.x509_get_certificate_policies)
    x509_get_crt_ext                         0x08028255   Thumb Code   652  x509_crt.o(.text.x509_get_crt_ext)
    [Anonymous Symbol]                       0x08028254   Section        0  x509_crt.o(.text.x509_get_crt_ext)
    x509_get_dates                           0x080284e7   Thumb Code    74  x509_crt.o(.text.x509_get_dates)
    [Anonymous Symbol]                       0x080284e6   Section        0  x509_crt.o(.text.x509_get_dates)
    x509_get_subject_key_id                  0x08028531   Thumb Code    66  x509_crt.o(.text.x509_get_subject_key_id)
    [Anonymous Symbol]                       0x08028530   Section        0  x509_crt.o(.text.x509_get_subject_key_id)
    x509_get_uid                             0x08028573   Thumb Code    58  x509_crt.o(.text.x509_get_uid)
    [Anonymous Symbol]                       0x08028572   Section        0  x509_crt.o(.text.x509_get_uid)
    x509_inet_pton_ipv4                      0x080285ad   Thumb Code   114  x509_crt.o(.text.x509_inet_pton_ipv4)
    [Anonymous Symbol]                       0x080285ac   Section        0  x509_crt.o(.text.x509_inet_pton_ipv4)
    x509_info_cert_policies                  0x08028621   Thumb Code   134  x509_crt.o(.text.x509_info_cert_policies)
    [Anonymous Symbol]                       0x08028620   Section        0  x509_crt.o(.text.x509_info_cert_policies)
    x509_info_ext_key_usage                  0x080286ad   Thumb Code   134  x509_crt.o(.text.x509_info_ext_key_usage)
    [Anonymous Symbol]                       0x080286ac   Section        0  x509_crt.o(.text.x509_info_ext_key_usage)
    x509_name_cmp                            0x08028739   Thumb Code   170  x509_crt.o(.text.x509_name_cmp)
    [Anonymous Symbol]                       0x08028738   Section        0  x509_crt.o(.text.x509_name_cmp)
    x509_profile_check_key                   0x080287e3   Thumb Code   100  x509_crt.o(.text.x509_profile_check_key)
    [Anonymous Symbol]                       0x080287e2   Section        0  x509_crt.o(.text.x509_profile_check_key)
    i.__0printf                              0x08028848   Section        0  printfa.o(i.__0printf)
    i.__0snprintf                            0x08028868   Section        0  printfa.o(i.__0snprintf)
    i.__0sprintf                             0x0802889c   Section        0  printfa.o(i.__0sprintf)
    i.__0vsnprintf                           0x080288c4   Section        0  printfa.o(i.__0vsnprintf)
    i.__aeabi_errno_addr                     0x080288f8   Section        0  errno.o(i.__aeabi_errno_addr)
    i.__hardfp_strtod                        0x08028900   Section        0  strtod.o(i.__hardfp_strtod)
    i.__scatterload_copy                     0x08028928   Section       14  handlers.o(i.__scatterload_copy)
    i.__scatterload_null                     0x08028936   Section        2  handlers.o(i.__scatterload_null)
    i.__scatterload_zeroinit                 0x08028938   Section       14  handlers.o(i.__scatterload_zeroinit)
    _fp_digits                               0x08028949   Thumb Code   366  printfa.o(i._fp_digits)
    i._fp_digits                             0x08028948   Section        0  printfa.o(i._fp_digits)
    i._is_digit                              0x08028ad2   Section        0  scanf_fp.o(i._is_digit)
    _printf_core                             0x08028ae1   Thumb Code  1744  printfa.o(i._printf_core)
    i._printf_core                           0x08028ae0   Section        0  printfa.o(i._printf_core)
    _printf_post_padding                     0x080291c3   Thumb Code    36  printfa.o(i._printf_post_padding)
    i._printf_post_padding                   0x080291c2   Section        0  printfa.o(i._printf_post_padding)
    _printf_pre_padding                      0x080291e7   Thumb Code    46  printfa.o(i._printf_pre_padding)
    i._printf_pre_padding                    0x080291e6   Section        0  printfa.o(i._printf_pre_padding)
    _snputc                                  0x08029215   Thumb Code    22  printfa.o(i._snputc)
    i._snputc                                0x08029214   Section        0  printfa.o(i._snputc)
    _sputc                                   0x0802922b   Thumb Code    10  printfa.o(i._sputc)
    i._sputc                                 0x0802922a   Section        0  printfa.o(i._sputc)
    i.puts                                   0x08029234   Section        0  puts.o(i.puts)
    .constdata                               0x08029258   Section      129  ctype_o.o(.constdata)
    table                                    0x080292dc   Data           4  ctype_o.o(.constdata)
    .constdata                               0x080292dc   Section        4  ctype_o.o(.constdata)
    .L__const._bMqttConnect.options          0x080292e0   Data          88  b_srv_mqtt.o(.rodata..L__const._bMqttConnect.options)
    .L__const._bUTC_CalendarMonthDays.table  0x08029338   Data           7  b_util_utc.o(.rodata..L__const._bUTC_CalendarMonthDays.table)
    .L__const.mbedtls_rsa_deduce_primes.primes 0x0802933f   Data          54  rsa_alt_helpers.o(.rodata..L__const.mbedtls_rsa_deduce_primes.primes)
    .Lswitch.table.mbedtls_md_info_from_string 0x08029378   Data          12  md.o(.rodata..Lswitch.table.mbedtls_md_info_from_string)
    .Lswitch.table.mbedtls_ssl_get_mode_from_ciphersuite 0x08029384   Data           6  ssl_tls.o(.rodata..Lswitch.table.mbedtls_ssl_get_mode_from_ciphersuite)
    .Lswitch.table.mbedtls_ssl_states_str    0x0802938c   Data         120  ssl_debug_helpers_generated.o(.rodata..Lswitch.table.mbedtls_ssl_states_str)
    FSb                                      0x08029430   Data         256  aes.o(.rodata.FSb)
    [Anonymous Symbol]                       0x08029430   Section        0  aes.o(.rodata.FSb)
    FT0                                      0x08029530   Data        1024  aes.o(.rodata.FT0)
    [Anonymous Symbol]                       0x08029530   Section        0  aes.o(.rodata.FT0)
    FT1                                      0x08029930   Data        1024  aes.o(.rodata.FT1)
    [Anonymous Symbol]                       0x08029930   Section        0  aes.o(.rodata.FT1)
    FT2                                      0x08029d30   Data        1024  aes.o(.rodata.FT2)
    [Anonymous Symbol]                       0x08029d30   Section        0  aes.o(.rodata.FT2)
    FT3                                      0x0802a130   Data        1024  aes.o(.rodata.FT3)
    [Anonymous Symbol]                       0x0802a130   Section        0  aes.o(.rodata.FT3)
    K                                        0x0802a530   Data         256  sha256.o(.rodata.K)
    [Anonymous Symbol]                       0x0802a530   Section        0  sha256.o(.rodata.K)
    K                                        0x0802a630   Data         640  sha512.o(.rodata.K)
    [Anonymous Symbol]                       0x0802a630   Section        0  sha512.o(.rodata.K)
    RSb                                      0x0802a8e0   Data         256  aes.o(.rodata.RSb)
    [Anonymous Symbol]                       0x0802a8e0   Section        0  aes.o(.rodata.RSb)
    RT0                                      0x0802a9e0   Data        1024  aes.o(.rodata.RT0)
    [Anonymous Symbol]                       0x0802a9e0   Section        0  aes.o(.rodata.RT0)
    RT1                                      0x0802ade0   Data        1024  aes.o(.rodata.RT1)
    [Anonymous Symbol]                       0x0802ade0   Section        0  aes.o(.rodata.RT1)
    RT2                                      0x0802b1e0   Data        1024  aes.o(.rodata.RT2)
    [Anonymous Symbol]                       0x0802b1e0   Section        0  aes.o(.rodata.RT2)
    RT3                                      0x0802b5e0   Data        1024  aes.o(.rodata.RT3)
    [Anonymous Symbol]                       0x0802b5e0   Section        0  aes.o(.rodata.RT3)
    SpiTable                                 0x0802b9e0   Data          12  mcu_stm32l41x_spi.o(.rodata.SpiTable)
    [Anonymous Symbol]                       0x0802b9e0   Section        0  mcu_stm32l41x_spi.o(.rodata.SpiTable)
    aes_128_ecb_info                         0x0802b9ec   Data           8  cipher_wrap.o(.rodata.aes_128_ecb_info)
    [Anonymous Symbol]                       0x0802b9ec   Section        0  cipher_wrap.o(.rodata.aes_128_ecb_info)
    aes_128_gcm_info                         0x0802b9f4   Data           8  cipher_wrap.o(.rodata.aes_128_gcm_info)
    [Anonymous Symbol]                       0x0802b9f4   Section        0  cipher_wrap.o(.rodata.aes_128_gcm_info)
    aes_192_ecb_info                         0x0802b9fc   Data           8  cipher_wrap.o(.rodata.aes_192_ecb_info)
    [Anonymous Symbol]                       0x0802b9fc   Section        0  cipher_wrap.o(.rodata.aes_192_ecb_info)
    aes_192_gcm_info                         0x0802ba04   Data           8  cipher_wrap.o(.rodata.aes_192_gcm_info)
    [Anonymous Symbol]                       0x0802ba04   Section        0  cipher_wrap.o(.rodata.aes_192_gcm_info)
    aes_256_ecb_info                         0x0802ba0c   Data           8  cipher_wrap.o(.rodata.aes_256_ecb_info)
    [Anonymous Symbol]                       0x0802ba0c   Section        0  cipher_wrap.o(.rodata.aes_256_ecb_info)
    aes_256_gcm_info                         0x0802ba14   Data           8  cipher_wrap.o(.rodata.aes_256_gcm_info)
    [Anonymous Symbol]                       0x0802ba14   Section        0  cipher_wrap.o(.rodata.aes_256_gcm_info)
    aes_info                                 0x0802ba1c   Data          24  cipher_wrap.o(.rodata.aes_info)
    [Anonymous Symbol]                       0x0802ba1c   Section        0  cipher_wrap.o(.rodata.aes_info)
    bDeviceDescTable                         0x0802ba34   Data          20  b_device.o(.rodata.bDeviceDescTable)
    [Anonymous Symbol]                       0x0802ba34   Section        0  b_device.o(.rodata.bDeviceDescTable)
    bDriverNumberTable                       0x0802ba48   Data           5  b_device.o(.rodata.bDriverNumberTable)
    [Anonymous Symbol]                       0x0802ba48   Section        0  b_device.o(.rodata.bDriverNumberTable)
    bEsp12fCtlEvent                          0x0802ba4d   Data          24  b_drv_esp12f.o(.rodata.bEsp12fCtlEvent)
    [Anonymous Symbol]                       0x0802ba4d   Section        0  b_drv_esp12f.o(.rodata.bEsp12fCtlEvent)
    bEspCmdApMode                            0x0802ba68   Data          48  b_drv_esp12f.o(.rodata.bEspCmdApMode)
    [Anonymous Symbol]                       0x0802ba68   Section        0  b_drv_esp12f.o(.rodata.bEspCmdApMode)
    bEspCmdApStaMode                         0x0802ba98   Data          48  b_drv_esp12f.o(.rodata.bEspCmdApStaMode)
    [Anonymous Symbol]                       0x0802ba98   Section        0  b_drv_esp12f.o(.rodata.bEspCmdApStaMode)
    bEspCmdCloseTcpUdp                       0x0802bac8   Data          16  b_drv_esp12f.o(.rodata.bEspCmdCloseTcpUdp)
    [Anonymous Symbol]                       0x0802bac8   Section        0  b_drv_esp12f.o(.rodata.bEspCmdCloseTcpUdp)
    bEspCmdJoinAp                            0x0802bad8   Data          16  b_drv_esp12f.o(.rodata.bEspCmdJoinAp)
    [Anonymous Symbol]                       0x0802bad8   Section        0  b_drv_esp12f.o(.rodata.bEspCmdJoinAp)
    bEspCmdLocalTcpServer                    0x0802bae8   Data          16  b_drv_esp12f.o(.rodata.bEspCmdLocalTcpServer)
    [Anonymous Symbol]                       0x0802bae8   Section        0  b_drv_esp12f.o(.rodata.bEspCmdLocalTcpServer)
    bEspCmdPing                              0x0802baf8   Data          16  b_drv_esp12f.o(.rodata.bEspCmdPing)
    [Anonymous Symbol]                       0x0802baf8   Section        0  b_drv_esp12f.o(.rodata.bEspCmdPing)
    bEspCmdRemotTcpServer                    0x0802bb08   Data          16  b_drv_esp12f.o(.rodata.bEspCmdRemotTcpServer)
    [Anonymous Symbol]                       0x0802bb08   Section        0  b_drv_esp12f.o(.rodata.bEspCmdRemotTcpServer)
    bEspCmdRemotUdpServer                    0x0802bb18   Data          16  b_drv_esp12f.o(.rodata.bEspCmdRemotUdpServer)
    [Anonymous Symbol]                       0x0802bb18   Section        0  b_drv_esp12f.o(.rodata.bEspCmdRemotUdpServer)
    bEspCmdSendData                          0x0802bb28   Data          16  b_drv_esp12f.o(.rodata.bEspCmdSendData)
    [Anonymous Symbol]                       0x0802bb28   Section        0  b_drv_esp12f.o(.rodata.bEspCmdSendData)
    bEspCmdStaMode                           0x0802bb38   Data          32  b_drv_esp12f.o(.rodata.bEspCmdStaMode)
    [Anonymous Symbol]                       0x0802bb38   Section        0  b_drv_esp12f.o(.rodata.bEspCmdStaMode)
    bHalIf_ESP12F                            0x0802bb58   Data           1  b_drv_esp12f.o(.rodata.bHalIf_ESP12F)
    [Anonymous Symbol]                       0x0802bb58   Section        0  b_drv_esp12f.o(.rodata.bHalIf_ESP12F)
    bHalIf_KEY                               0x0802bb59   Data           6  b_drv_key.o(.rodata.bHalIf_KEY)
    [Anonymous Symbol]                       0x0802bb59   Section        0  b_drv_key.o(.rodata.bHalIf_KEY)
    bHalIf_SPIFLASH                          0x0802bb5f   Data          12  b_drv_spiflash.o(.rodata.bHalIf_SPIFLASH)
    [Anonymous Symbol]                       0x0802bb5f   Section        0  b_drv_spiflash.o(.rodata.bHalIf_SPIFLASH)
    bHalIf_ST7789                            0x0802bb6c   Data          20  b_drv_st7789.o(.rodata.bHalIf_ST7789)
    [Anonymous Symbol]                       0x0802bb6c   Section        0  b_drv_st7789.o(.rodata.bHalIf_ST7789)
    ciphersuite_definitions                  0x0802bb80   Data          80  ssl_ciphersuites.o(.rodata.ciphersuite_definitions)
    [Anonymous Symbol]                       0x0802bb80   Section        0  ssl_ciphersuites.o(.rodata.ciphersuite_definitions)
    ciphersuite_preference                   0x0802bbd0   Data          16  ssl_ciphersuites.o(.rodata.ciphersuite_preference)
    [Anonymous Symbol]                       0x0802bbd0   Section        0  ssl_ciphersuites.o(.rodata.ciphersuite_preference)
    .Lswitch.table.UART_SetConfig.3          0x0802bbe0   Data          16  stm32l4xx_hal_uart.o(.rodata.cst16)
    UartTable                                0x0802bbf0   Data          16  mcu_stm32l41x_uart.o(.rodata.cst16)
    [Anonymous Symbol]                       0x0802bbf0   Section        0  mcu_stm32l41x_uart.o(.rodata.cst16)
    normal_url_char                          0x0802bc00   Data          32  http_parser.o(.rodata.cst32)
    [Anonymous Symbol]                       0x0802bc00   Section        0  http_parser.o(.rodata.cst32)
    last4                                    0x0802bc20   Data          32  gcm.o(.rodata.cst32)
    [Anonymous Symbol]                       0x0802bc20   Section        0  gcm.o(.rodata.cst32)
    flash_chip_table                         0x0802bc40   Data         504  sfud.o(.rodata.flash_chip_table)
    [Anonymous Symbol]                       0x0802bc40   Section        0  sfud.o(.rodata.flash_chip_table)
    gcm_aes_info                             0x0802de38   Data          24  cipher_wrap.o(.rodata.gcm_aes_info)
    [Anonymous Symbol]                       0x0802de38   Section        0  cipher_wrap.o(.rodata.gcm_aes_info)
    mbedtls_sha256_info                      0x0802df48   Data           3  md.o(.rodata.mbedtls_sha256_info)
    [Anonymous Symbol]                       0x0802df48   Section        0  md.o(.rodata.mbedtls_sha256_info)
    mbedtls_sha384_info                      0x0802df4b   Data           3  md.o(.rodata.mbedtls_sha384_info)
    [Anonymous Symbol]                       0x0802df4b   Section        0  md.o(.rodata.mbedtls_sha384_info)
    mbedtls_sha512_info                      0x0802df4e   Data           3  md.o(.rodata.mbedtls_sha512_info)
    [Anonymous Symbol]                       0x0802df4e   Section        0  md.o(.rodata.mbedtls_sha512_info)
    memset_func                              0x0802df74   Data           4  platform_util.o(.rodata.memset_func)
    [Anonymous Symbol]                       0x0802df74   Section        0  platform_util.o(.rodata.memset_func)
    method_strings                           0x0802df78   Data         136  http_parser.o(.rodata.method_strings)
    [Anonymous Symbol]                       0x0802df78   Section        0  http_parser.o(.rodata.method_strings)
    mf_table                                 0x0802e000   Data         128  sfud.o(.rodata.mf_table)
    [Anonymous Symbol]                       0x0802e000   Section        0  sfud.o(.rodata.mf_table)
    mpi_one                                  0x0802e080   Data           4  ecp_curves.o(.rodata.mpi_one)
    [Anonymous Symbol]                       0x0802e080   Section        0  ecp_curves.o(.rodata.mpi_one)
    oid_ext_key_usage                        0x0802e084   Data         128  oid.o(.rodata.oid_ext_key_usage)
    [Anonymous Symbol]                       0x0802e084   Section        0  oid.o(.rodata.oid_ext_key_usage)
    oid_md_alg                               0x0802e104   Data          80  oid.o(.rodata.oid_md_alg)
    [Anonymous Symbol]                       0x0802e104   Section        0  oid.o(.rodata.oid_md_alg)
    oid_pk_alg                               0x0802e154   Data          80  oid.o(.rodata.oid_pk_alg)
    [Anonymous Symbol]                       0x0802e154   Section        0  oid.o(.rodata.oid_pk_alg)
    oid_sig_alg                              0x0802e1a4   Data         160  oid.o(.rodata.oid_sig_alg)
    [Anonymous Symbol]                       0x0802e1a4   Section        0  oid.o(.rodata.oid_sig_alg)
    oid_x509_ext                             0x0802e244   Data         180  oid.o(.rodata.oid_x509_ext)
    [Anonymous Symbol]                       0x0802e244   Section        0  oid.o(.rodata.oid_x509_ext)
    oid_x520_attr_type                       0x0802e2f8   Data         420  oid.o(.rodata.oid_x520_attr_type)
    [Anonymous Symbol]                       0x0802e2f8   Section        0  oid.o(.rodata.oid_x520_attr_type)
    round_constants                          0x0802e4b4   Data          40  aes.o(.rodata.round_constants)
    [Anonymous Symbol]                       0x0802e4b4   Section        0  aes.o(.rodata.round_constants)
    secp256r1_T                              0x0802e4dc   Data         384  ecp_curves.o(.rodata.secp256r1_T)
    [Anonymous Symbol]                       0x0802e4dc   Section        0  ecp_curves.o(.rodata.secp256r1_T)
    secp256r1_T_0_X                          0x0802e65c   Data          32  ecp_curves.o(.rodata.secp256r1_T_0_X)
    [Anonymous Symbol]                       0x0802e65c   Section        0  ecp_curves.o(.rodata.secp256r1_T_0_X)
    secp256r1_T_0_Y                          0x0802e67c   Data          32  ecp_curves.o(.rodata.secp256r1_T_0_Y)
    [Anonymous Symbol]                       0x0802e67c   Section        0  ecp_curves.o(.rodata.secp256r1_T_0_Y)
    secp256r1_T_10_X                         0x0802e69c   Data          32  ecp_curves.o(.rodata.secp256r1_T_10_X)
    [Anonymous Symbol]                       0x0802e69c   Section        0  ecp_curves.o(.rodata.secp256r1_T_10_X)
    secp256r1_T_10_Y                         0x0802e6bc   Data          32  ecp_curves.o(.rodata.secp256r1_T_10_Y)
    [Anonymous Symbol]                       0x0802e6bc   Section        0  ecp_curves.o(.rodata.secp256r1_T_10_Y)
    secp256r1_T_11_X                         0x0802e6dc   Data          32  ecp_curves.o(.rodata.secp256r1_T_11_X)
    [Anonymous Symbol]                       0x0802e6dc   Section        0  ecp_curves.o(.rodata.secp256r1_T_11_X)
    secp256r1_T_11_Y                         0x0802e6fc   Data          32  ecp_curves.o(.rodata.secp256r1_T_11_Y)
    [Anonymous Symbol]                       0x0802e6fc   Section        0  ecp_curves.o(.rodata.secp256r1_T_11_Y)
    secp256r1_T_12_X                         0x0802e71c   Data          32  ecp_curves.o(.rodata.secp256r1_T_12_X)
    [Anonymous Symbol]                       0x0802e71c   Section        0  ecp_curves.o(.rodata.secp256r1_T_12_X)
    secp256r1_T_12_Y                         0x0802e73c   Data          32  ecp_curves.o(.rodata.secp256r1_T_12_Y)
    [Anonymous Symbol]                       0x0802e73c   Section        0  ecp_curves.o(.rodata.secp256r1_T_12_Y)
    secp256r1_T_13_X                         0x0802e75c   Data          32  ecp_curves.o(.rodata.secp256r1_T_13_X)
    [Anonymous Symbol]                       0x0802e75c   Section        0  ecp_curves.o(.rodata.secp256r1_T_13_X)
    secp256r1_T_13_Y                         0x0802e77c   Data          32  ecp_curves.o(.rodata.secp256r1_T_13_Y)
    [Anonymous Symbol]                       0x0802e77c   Section        0  ecp_curves.o(.rodata.secp256r1_T_13_Y)
    secp256r1_T_14_X                         0x0802e79c   Data          32  ecp_curves.o(.rodata.secp256r1_T_14_X)
    [Anonymous Symbol]                       0x0802e79c   Section        0  ecp_curves.o(.rodata.secp256r1_T_14_X)
    secp256r1_T_14_Y                         0x0802e7bc   Data          32  ecp_curves.o(.rodata.secp256r1_T_14_Y)
    [Anonymous Symbol]                       0x0802e7bc   Section        0  ecp_curves.o(.rodata.secp256r1_T_14_Y)
    secp256r1_T_15_X                         0x0802e7dc   Data          32  ecp_curves.o(.rodata.secp256r1_T_15_X)
    [Anonymous Symbol]                       0x0802e7dc   Section        0  ecp_curves.o(.rodata.secp256r1_T_15_X)
    secp256r1_T_15_Y                         0x0802e7fc   Data          32  ecp_curves.o(.rodata.secp256r1_T_15_Y)
    [Anonymous Symbol]                       0x0802e7fc   Section        0  ecp_curves.o(.rodata.secp256r1_T_15_Y)
    secp256r1_T_1_X                          0x0802e81c   Data          32  ecp_curves.o(.rodata.secp256r1_T_1_X)
    [Anonymous Symbol]                       0x0802e81c   Section        0  ecp_curves.o(.rodata.secp256r1_T_1_X)
    secp256r1_T_1_Y                          0x0802e83c   Data          32  ecp_curves.o(.rodata.secp256r1_T_1_Y)
    [Anonymous Symbol]                       0x0802e83c   Section        0  ecp_curves.o(.rodata.secp256r1_T_1_Y)
    secp256r1_T_2_X                          0x0802e85c   Data          32  ecp_curves.o(.rodata.secp256r1_T_2_X)
    [Anonymous Symbol]                       0x0802e85c   Section        0  ecp_curves.o(.rodata.secp256r1_T_2_X)
    secp256r1_T_2_Y                          0x0802e87c   Data          32  ecp_curves.o(.rodata.secp256r1_T_2_Y)
    [Anonymous Symbol]                       0x0802e87c   Section        0  ecp_curves.o(.rodata.secp256r1_T_2_Y)
    secp256r1_T_3_X                          0x0802e89c   Data          32  ecp_curves.o(.rodata.secp256r1_T_3_X)
    [Anonymous Symbol]                       0x0802e89c   Section        0  ecp_curves.o(.rodata.secp256r1_T_3_X)
    secp256r1_T_3_Y                          0x0802e8bc   Data          32  ecp_curves.o(.rodata.secp256r1_T_3_Y)
    [Anonymous Symbol]                       0x0802e8bc   Section        0  ecp_curves.o(.rodata.secp256r1_T_3_Y)
    secp256r1_T_4_X                          0x0802e8dc   Data          32  ecp_curves.o(.rodata.secp256r1_T_4_X)
    [Anonymous Symbol]                       0x0802e8dc   Section        0  ecp_curves.o(.rodata.secp256r1_T_4_X)
    secp256r1_T_4_Y                          0x0802e8fc   Data          32  ecp_curves.o(.rodata.secp256r1_T_4_Y)
    [Anonymous Symbol]                       0x0802e8fc   Section        0  ecp_curves.o(.rodata.secp256r1_T_4_Y)
    secp256r1_T_5_X                          0x0802e91c   Data          32  ecp_curves.o(.rodata.secp256r1_T_5_X)
    [Anonymous Symbol]                       0x0802e91c   Section        0  ecp_curves.o(.rodata.secp256r1_T_5_X)
    secp256r1_T_5_Y                          0x0802e93c   Data          32  ecp_curves.o(.rodata.secp256r1_T_5_Y)
    [Anonymous Symbol]                       0x0802e93c   Section        0  ecp_curves.o(.rodata.secp256r1_T_5_Y)
    secp256r1_T_6_X                          0x0802e95c   Data          32  ecp_curves.o(.rodata.secp256r1_T_6_X)
    [Anonymous Symbol]                       0x0802e95c   Section        0  ecp_curves.o(.rodata.secp256r1_T_6_X)
    secp256r1_T_6_Y                          0x0802e97c   Data          32  ecp_curves.o(.rodata.secp256r1_T_6_Y)
    [Anonymous Symbol]                       0x0802e97c   Section        0  ecp_curves.o(.rodata.secp256r1_T_6_Y)
    secp256r1_T_7_X                          0x0802e99c   Data          32  ecp_curves.o(.rodata.secp256r1_T_7_X)
    [Anonymous Symbol]                       0x0802e99c   Section        0  ecp_curves.o(.rodata.secp256r1_T_7_X)
    secp256r1_T_7_Y                          0x0802e9bc   Data          32  ecp_curves.o(.rodata.secp256r1_T_7_Y)
    [Anonymous Symbol]                       0x0802e9bc   Section        0  ecp_curves.o(.rodata.secp256r1_T_7_Y)
    secp256r1_T_8_X                          0x0802e9dc   Data          32  ecp_curves.o(.rodata.secp256r1_T_8_X)
    [Anonymous Symbol]                       0x0802e9dc   Section        0  ecp_curves.o(.rodata.secp256r1_T_8_X)
    secp256r1_T_8_Y                          0x0802e9fc   Data          32  ecp_curves.o(.rodata.secp256r1_T_8_Y)
    [Anonymous Symbol]                       0x0802e9fc   Section        0  ecp_curves.o(.rodata.secp256r1_T_8_Y)
    secp256r1_T_9_X                          0x0802ea1c   Data          32  ecp_curves.o(.rodata.secp256r1_T_9_X)
    [Anonymous Symbol]                       0x0802ea1c   Section        0  ecp_curves.o(.rodata.secp256r1_T_9_X)
    secp256r1_T_9_Y                          0x0802ea3c   Data          32  ecp_curves.o(.rodata.secp256r1_T_9_Y)
    [Anonymous Symbol]                       0x0802ea3c   Section        0  ecp_curves.o(.rodata.secp256r1_T_9_Y)
    secp256r1_b                              0x0802ea5c   Data          32  ecp_curves.o(.rodata.secp256r1_b)
    [Anonymous Symbol]                       0x0802ea5c   Section        0  ecp_curves.o(.rodata.secp256r1_b)
    secp256r1_gx                             0x0802ea7c   Data          32  ecp_curves.o(.rodata.secp256r1_gx)
    [Anonymous Symbol]                       0x0802ea7c   Section        0  ecp_curves.o(.rodata.secp256r1_gx)
    secp256r1_gy                             0x0802ea9c   Data          32  ecp_curves.o(.rodata.secp256r1_gy)
    [Anonymous Symbol]                       0x0802ea9c   Section        0  ecp_curves.o(.rodata.secp256r1_gy)
    secp256r1_n                              0x0802eabc   Data          32  ecp_curves.o(.rodata.secp256r1_n)
    [Anonymous Symbol]                       0x0802eabc   Section        0  ecp_curves.o(.rodata.secp256r1_n)
    secp256r1_p                              0x0802eadc   Data          32  ecp_curves.o(.rodata.secp256r1_p)
    [Anonymous Symbol]                       0x0802eadc   Section        0  ecp_curves.o(.rodata.secp256r1_p)
    ssl_preset_default_groups                0x0802eafc   Data           4  ssl_tls.o(.rodata.ssl_preset_default_groups)
    [Anonymous Symbol]                       0x0802eafc   Section        0  ssl_tls.o(.rodata.ssl_preset_default_groups)
    ssl_preset_default_sig_algs              0x0802eb00   Data           8  ssl_tls.o(.rodata.ssl_preset_default_sig_algs)
    [Anonymous Symbol]                       0x0802eb00   Section        0  ssl_tls.o(.rodata.ssl_preset_default_sig_algs)
    ssl_preset_suiteb_ciphersuites           0x0802eb08   Data          12  ssl_tls.o(.rodata.ssl_preset_suiteb_ciphersuites)
    [Anonymous Symbol]                       0x0802eb08   Section        0  ssl_tls.o(.rodata.ssl_preset_suiteb_ciphersuites)
    ssl_preset_suiteb_groups                 0x0802eb14   Data           4  ssl_tls.o(.rodata.ssl_preset_suiteb_groups)
    [Anonymous Symbol]                       0x0802eb14   Section        0  ssl_tls.o(.rodata.ssl_preset_suiteb_groups)
    ssl_preset_suiteb_sig_algs               0x0802eb18   Data           4  ssl_tls.o(.rodata.ssl_preset_suiteb_sig_algs)
    [Anonymous Symbol]                       0x0802eb18   Section        0  ssl_tls.o(.rodata.ssl_preset_suiteb_sig_algs)
    .L.str.8                                 0x0802eb1c   Data          97  main.o(.rodata.str1.1)
    [Anonymous Symbol]                       0x0802eb1c   Section        0  main.o(.rodata.str1.1)
    .L.str.9                                 0x0802eb7d   Data          19  main.o(.rodata.str1.1)
    .L__func__.bMqttCallback                 0x0802eb90   Data          14  main.o(.rodata.str1.1)
    .L.str.21                                0x0802eb9e   Data           8  main.o(.rodata.str1.1)
    .L.str.16                                0x0802eba6   Data          11  main.o(.rodata.str1.1)
    .L.str.17                                0x0802ebb1   Data           5  main.o(.rodata.str1.1)
    .L.str.27                                0x0802ebb6   Data           7  main.o(.rodata.str1.1)
    .L.str.7                                 0x0802ebbd   Data          49  b_core.o(.rodata.str1.1)
    [Anonymous Symbol]                       0x0802ebbd   Section        0  b_core.o(.rodata.str1.1)
    .L.str.5                                 0x0802ebee   Data          49  b_core.o(.rodata.str1.1)
    .L.str.2                                 0x0802ec1f   Data          49  b_core.o(.rodata.str1.1)
    .L.str.4                                 0x0802ec50   Data          49  b_core.o(.rodata.str1.1)
    .L.str.3                                 0x0802ec81   Data          49  b_core.o(.rodata.str1.1)
    .L.str.6                                 0x0802ecb2   Data          49  b_core.o(.rodata.str1.1)
    .L.str.1                                 0x0802ece3   Data          49  b_core.o(.rodata.str1.1)
    .L.str                                   0x0802ed14   Data          34  b_core.o(.rodata.str1.1)
    .L__func__.bInit                         0x0802ed36   Data           6  b_core.o(.rodata.str1.1)
    .L.str.3                                 0x0802ed3c   Data          14  b_device.o(.rodata.str1.1)
    [Anonymous Symbol]                       0x0802ed3c   Section        0  b_device.o(.rodata.str1.1)
    .L.str.6                                 0x0802ed4a   Data           9  b_device.o(.rodata.str1.1)
    .L.str                                   0x0802ed63   Data          36  b_device.o(.rodata.str1.1)
    .L.str.2                                 0x0802ed8c   Data           5  b_device.o(.rodata.str1.1)
    .L__func__.bDeviceInit                   0x0802ed95   Data          12  b_device.o(.rodata.str1.1)
    .L.str.11                                0x0802eda1   Data          15  b_drv_esp12f.o(.rodata.str1.1)
    [Anonymous Symbol]                       0x0802eda1   Section        0  b_drv_esp12f.o(.rodata.str1.1)
    .L.str.31                                0x0802edf4   Data           7  b_drv_esp12f.o(.rodata.str1.1)
    .L__func__._bAtSendData                  0x0802edfb   Data          13  b_drv_esp12f.o(.rodata.str1.1)
    .L__func__._bAtNewDataCb                 0x0802ee08   Data          14  b_drv_esp12f.o(.rodata.str1.1)
    .L.str.3                                 0x0802ee16   Data          43  b_drv_esp12f.o(.rodata.str1.1)
    .L__func__._bESP12FCtl                   0x0802ee41   Data          12  b_drv_esp12f.o(.rodata.str1.1)
    .L.str.18                                0x0802ee4d   Data          93  sfud.o(.rodata.str1.1)
    [Anonymous Symbol]                       0x0802ee4d   Section        0  sfud.o(.rodata.str1.1)
    .L.str.62                                0x0802eeaa   Data          41  sfud.o(.rodata.str1.1)
    .L.str.57                                0x0802eed3   Data          34  sfud.o(.rodata.str1.1)
    .L.str.8                                 0x0802eef5   Data          38  sfud.o(.rodata.str1.1)
    .L.str.3                                 0x0802ef1b   Data          43  sfud.o(.rodata.str1.1)
    .L.str.64                                0x0802ef46   Data          42  sfud.o(.rodata.str1.1)
    .L.str.1                                 0x0802ef70   Data          30  sfud.o(.rodata.str1.1)
    .L.str.4                                 0x0802ef70   Data          30  sfud.o(.rodata.str1.1)
    .L.str.17                                0x0802ef8e   Data          38  sfud.o(.rodata.str1.1)
    .L.str.59                                0x0802efb4   Data          35  sfud.o(.rodata.str1.1)
    .L.str.1                                 0x0802efd7   Data          39  sfud.o(.rodata.str1.1)
    .L.str.58                                0x0802effe   Data          28  sfud.o(.rodata.str1.1)
    .L.str.14                                0x0802f01a   Data          56  sfud.o(.rodata.str1.1)
    .L.str                                   0x0802f12d   Data          40  sfud.o(.rodata.str1.1)
    .L__func__.sfud_read                     0x0802f155   Data          10  sfud.o(.rodata.str1.1)
    .L__func__.set_write_enabled             0x0802f15f   Data          18  sfud.o(.rodata.str1.1)
    .L__func__.read_jedec_id                 0x0802f171   Data          14  sfud.o(.rodata.str1.1)
    .L__func__.set_4_byte_address_mode       0x0802f192   Data          24  sfud.o(.rodata.str1.1)
    .L__func__.sfud_erase                    0x0802f1aa   Data          11  sfud.o(.rodata.str1.1)
    .L__func__.sfud_chip_erase               0x0802f1b5   Data          16  sfud.o(.rodata.str1.1)
    .L__func__.page256_or_1_byte_write       0x0802f1c5   Data          24  sfud.o(.rodata.str1.1)
    .L__func__.aai_write                     0x0802f1dd   Data          10  sfud.o(.rodata.str1.1)
    .L.str.5                                 0x0802f1e7   Data           6  sfud.o(.rodata.str1.1)
    .L.str.7                                 0x0802f1f5   Data          15  sfud.o(.rodata.str1.1)
    .L.str.60                                0x0802f223   Data           6  sfud.o(.rodata.str1.1)
    .L.str.13                                0x0802f229   Data          14  sfud.o(.rodata.str1.1)
    .L__func__.sfud_read_status              0x0802f23f   Data          17  sfud.o(.rodata.str1.1)
    .L__func__.sfud_write_status             0x0802f250   Data          18  sfud.o(.rodata.str1.1)
    .L__func__.reset                         0x0802f262   Data           6  sfud.o(.rodata.str1.1)
    .L__func__.sfud_device_init              0x0802f268   Data          17  sfud.o(.rodata.str1.1)
    .L__func__.hardware_init                 0x0802f279   Data          14  sfud.o(.rodata.str1.1)
    .L__func__.wait_busy                     0x0802f298   Data          10  sfud.o(.rodata.str1.1)
    .L.str.34                                0x0802f2a2   Data          33  sfud_sfdp.o(.rodata.str1.1)
    [Anonymous Symbol]                       0x0802f2a2   Section        0  sfud_sfdp.o(.rodata.str1.1)
    .L.str.7                                 0x0802f2c3   Data          76  sfud_sfdp.o(.rodata.str1.1)
    .L.str.4                                 0x0802f30f   Data          90  sfud_sfdp.o(.rodata.str1.1)
    .L.str.22                                0x0802f369   Data          66  sfud_sfdp.o(.rodata.str1.1)
    .L.str.37                                0x0802f3ab   Data          60  sfud_sfdp.o(.rodata.str1.1)
    .L.str.17                                0x0802f3e7   Data         139  sfud_sfdp.o(.rodata.str1.1)
    .L.str.35                                0x0802f472   Data          69  sfud_sfdp.o(.rodata.str1.1)
    .L.str.8                                 0x0802f4b7   Data          53  sfud_sfdp.o(.rodata.str1.1)
    .L.str.15                                0x0802f4ec   Data          83  sfud_sfdp.o(.rodata.str1.1)
    .L.str.23                                0x0802f53f   Data          51  sfud_sfdp.o(.rodata.str1.1)
    .L.str.18                                0x0802f572   Data          55  sfud_sfdp.o(.rodata.str1.1)
    .L.str.28                                0x0802f5a9   Data          68  sfud_sfdp.o(.rodata.str1.1)
    .L.str.27                                0x0802f5ed   Data          46  sfud_sfdp.o(.rodata.str1.1)
    .L.str.25                                0x0802f61b   Data          29  sfud_sfdp.o(.rodata.str1.1)
    .L.str.32                                0x0802f638   Data          25  sfud_sfdp.o(.rodata.str1.1)
    .L.str.31                                0x0802f651   Data          24  sfud_sfdp.o(.rodata.str1.1)
    .L.str.33                                0x0802f669   Data          24  sfud_sfdp.o(.rodata.str1.1)
    .L.str.14                                0x0802f681   Data          54  sfud_sfdp.o(.rodata.str1.1)
    .L.str.26                                0x0802f6b7   Data          41  sfud_sfdp.o(.rodata.str1.1)
    .L.str.29                                0x0802f6e0   Data         119  sfud_sfdp.o(.rodata.str1.1)
    .L.str.30                                0x0802f757   Data         119  sfud_sfdp.o(.rodata.str1.1)
    .L.str.16                                0x0802f7ce   Data          71  sfud_sfdp.o(.rodata.str1.1)
    .L.str.24                                0x0802f815   Data          55  sfud_sfdp.o(.rodata.str1.1)
    .L.str.36                                0x0802f84c   Data          23  sfud_sfdp.o(.rodata.str1.1)
    .L.str.19                                0x0802f863   Data          40  sfud_sfdp.o(.rodata.str1.1)
    .L.str.21                                0x0802f88b   Data          35  sfud_sfdp.o(.rodata.str1.1)
    .L__func__.read_sfdp_data                0x0802f8ae   Data          15  sfud_sfdp.o(.rodata.str1.1)
    .L.str                                   0x0802f8bd   Data          45  sfud_sfdp.o(.rodata.str1.1)
    .L__func__.read_basic_table              0x0802f8ea   Data          17  sfud_sfdp.o(.rodata.str1.1)
    .L__func__.sfud_read_sfdp                0x0802f8fb   Data          15  sfud_sfdp.o(.rodata.str1.1)
    .L__func__.read_basic_header             0x0802f90a   Data          18  sfud_sfdp.o(.rodata.str1.1)
    .L__func__.read_sfdp_header              0x0802f91c   Data          17  sfud_sfdp.o(.rodata.str1.1)
    .L__func__.sfud_sfdp_get_suitable_eraser 0x0802f92d   Data          30  sfud_sfdp.o(.rodata.str1.1)
    .L.str                                   0x0802f94b   Data          39  b_mod_kv.o(.rodata.str1.1)
    [Anonymous Symbol]                       0x0802f94b   Section        0  b_mod_kv.o(.rodata.str1.1)
    .L__func__.bKVGetValue                   0x0802f972   Data          12  b_mod_kv.o(.rodata.str1.1)
    .L__func__.bKVInit                       0x0802f97e   Data           8  b_mod_kv.o(.rodata.str1.1)
    .L.str                                   0x0802f986   Data          41  b_mod_wifi.o(.rodata.str1.1)
    [Anonymous Symbol]                       0x0802f986   Section        0  b_mod_wifi.o(.rodata.str1.1)
    .L__func__.bShutdown                     0x0802f9af   Data          10  b_mod_wifi.o(.rodata.str1.1)
    .L.str                                   0x0802f9b9   Data          40  b_mod_ssl.o(.rodata.str1.1)
    [Anonymous Symbol]                       0x0802f9b9   Section        0  b_mod_ssl.o(.rodata.str1.1)
    .L__func__.bSSLInit                      0x0802f9e1   Data           9  b_mod_ssl.o(.rodata.str1.1)
    .L__func__.bAtFeedData                   0x0802f9ea   Data          12  b_util_at.o(.rodata.str1.1)
    [Anonymous Symbol]                       0x0802f9ea   Section        0  b_util_at.o(.rodata.str1.1)
    .L.str                                   0x0802f9f6   Data          38  b_util_at.o(.rodata.str1.1)
    .L__func__.bAtSendCmd                    0x0802fa1c   Data          11  b_util_at.o(.rodata.str1.1)
    [Anonymous Symbol]                       0x0802fa27   Section        0  cjson.o(.rodata.str1.1)
    .L.str.11                                0x0802fa2a   Data           6  cjson.o(.rodata.str1.1)
    .L.str.3                                 0x0802fa2a   Data           6  cjson.o(.rodata.str1.1)
    .L.str.4                                 0x0802fa30   Data           5  cjson.o(.rodata.str1.1)
    [Anonymous Symbol]                       0x0802fa35   Section        0  http_parser.o(.rodata.str1.1)
    .L.str.8                                 0x0802fa3d   Data          10  http_parser.o(.rodata.str1.1)
    .L.str.10                                0x0802fa47   Data          20  http_parser.o(.rodata.str1.1)
    .L.str.11                                0x0802fa5b   Data          11  http_parser.o(.rodata.str1.1)
    .L.str.13                                0x0802fa66   Data           8  http_parser.o(.rodata.str1.1)
    .L.str.14                                0x0802fa6e   Data           9  http_parser.o(.rodata.str1.1)
    .L.str.15                                0x0802fa77   Data          32  http_parser.o(.rodata.str1.1)
    .L.str.16                                0x0802fa97   Data          11  http_parser.o(.rodata.str1.1)
    .L.str.17                                0x0802faa2   Data          14  http_parser.o(.rodata.str1.1)
    .L.str.18                                0x0802fab0   Data          16  http_parser.o(.rodata.str1.1)
    .L.str.19                                0x0802fac0   Data          15  http_parser.o(.rodata.str1.1)
    .L.str.20                                0x0802facf   Data          17  http_parser.o(.rodata.str1.1)
    .L.str.21                                0x0802fae0   Data           8  http_parser.o(.rodata.str1.1)
    .L.str.22                                0x0802fae8   Data          17  http_parser.o(.rodata.str1.1)
    .L.str.23                                0x0802faf9   Data          18  http_parser.o(.rodata.str1.1)
    .L.str.24                                0x0802fb0b   Data           6  http_parser.o(.rodata.str1.1)
    .L.str.25                                0x0802fb11   Data          10  http_parser.o(.rodata.str1.1)
    .L.str.26                                0x0802fb1b   Data          13  http_parser.o(.rodata.str1.1)
    .L.str.27                                0x0802fb28   Data          10  http_parser.o(.rodata.str1.1)
    .L.str.28                                0x0802fb32   Data          19  http_parser.o(.rodata.str1.1)
    .L.str.29                                0x0802fb45   Data          19  http_parser.o(.rodata.str1.1)
    .L.str.30                                0x0802fb58   Data          12  http_parser.o(.rodata.str1.1)
    .L.str.31                                0x0802fb64   Data          13  http_parser.o(.rodata.str1.1)
    .L.str.32                                0x0802fb71   Data          17  http_parser.o(.rodata.str1.1)
    .L.str.33                                0x0802fb82   Data          10  http_parser.o(.rodata.str1.1)
    .L.str.34                                0x0802fb8c   Data          10  http_parser.o(.rodata.str1.1)
    .L.str.35                                0x0802fb96   Data          19  http_parser.o(.rodata.str1.1)
    .L.str.36                                0x0802fba9   Data          15  http_parser.o(.rodata.str1.1)
    .L.str.2                                 0x0802fbaa   Data           3  http_parser.o(.rodata.str1.1)
    .L.str.37                                0x0802fbb8   Data          30  http_parser.o(.rodata.str1.1)
