Component: Arm Compiler for Embedded 6.21 Tool: armlink [5ec1fa00]

==============================================================================

Section Cross References

    startup_stm32l431xx.o(RESET) refers to startup_stm32l431xx.o(STACK) for __initial_sp
    startup_stm32l431xx.o(RESET) refers to startup_stm32l431xx.o(.text) for Reset_Handler
    startup_stm32l431xx.o(RESET) refers to stm32l4xx_it.o(.text.NMI_Handler) for NMI_Handler
    startup_stm32l431xx.o(RESET) refers to stm32l4xx_it.o(.text.HardFault_Handler) for HardFault_Handler
    startup_stm32l431xx.o(RESET) refers to stm32l4xx_it.o(.text.MemManage_Handler) for MemManage_Handler
    startup_stm32l431xx.o(RESET) refers to stm32l4xx_it.o(.text.BusFault_Handler) for BusFault_Handler
    startup_stm32l431xx.o(RESET) refers to stm32l4xx_it.o(.text.UsageFault_Handler) for UsageFault_Handler
    startup_stm32l431xx.o(RESET) refers to stm32l4xx_it.o(.text.SVC_Handler) for SVC_Handler
    startup_stm32l431xx.o(RESET) refers to stm32l4xx_it.o(.text.DebugMon_Handler) for DebugMon_Handler
    startup_stm32l431xx.o(RESET) refers to stm32l4xx_it.o(.text.PendSV_Handler) for PendSV_Handler
    startup_stm32l431xx.o(RESET) refers to stm32l4xx_it.o(.text.SysTick_Handler) for SysTick_Handler
    startup_stm32l431xx.o(RESET) refers to stm32l4xx_it.o(.text.USART1_IRQHandler) for USART1_IRQHandler
    startup_stm32l431xx.o(RESET) refers to stm32l4xx_it.o(.text.LPUART1_IRQHandler) for LPUART1_IRQHandler
    startup_stm32l431xx.o(.text) refers to system_stm32l4xx.o(.text.SystemInit) for SystemInit
    startup_stm32l431xx.o(.text) refers to entry.o(.ARM.Collect$$$$00000000) for __main
    main.o(.text.main) refers to stm32l4xx_hal.o(.text.HAL_Init) for HAL_Init
    main.o(.text.main) refers to main.o(.text.SystemClock_Config) for SystemClock_Config
    main.o(.text.main) refers to stm32l4xx_hal_gpio.o(.text.HAL_GPIO_WritePin) for HAL_GPIO_WritePin
==============================================================================

Removing Unused input sections from the image.

    Removing startup_stm32l431xx.o(HEAP), (512 bytes).
    Removing main.o(.text), (0 bytes).
    Removing main.o(.ARM.exidx.text.main), (8 bytes).
    Removing main.o(.ARM.exidx.text.SystemClock_Config), (8 bytes).
    Removing main.o(.ARM.exidx.text.Error_Handler), (8 bytes).
    Removing main.o(.bss.hqspi), (76 bytes).
    Removing main.o(.bss.hsd1), (132 bytes).
    Removing main.o(.ARM.use_no_argv), (4 bytes).
    Removing stm32l4xx_it.o(.text), (0 bytes).
    Removing stm32l4xx_it.o(.ARM.exidx.text.NMI_Handler), (8 bytes).
    Removing stm32l4xx_it.o(.ARM.exidx.text.HardFault_Handler), (8 bytes).
    Removing stm32l4xx_it.o(.ARM.exidx.text.MemManage_Handler), (8 bytes).
    Removing stm32l4xx_it.o(.ARM.exidx.text.BusFault_Handler), (8 bytes).
    Removing stm32l4xx_it.o(.ARM.exidx.text.UsageFault_Handler), (8 bytes).
    Removing stm32l4xx_it.o(.ARM.exidx.text.SVC_Handler), (8 bytes).
    Removing stm32l4xx_it.o(.ARM.exidx.text.DebugMon_Handler), (8 bytes).
    Removing stm32l4xx_it.o(.ARM.exidx.text.PendSV_Handler), (8 bytes).
    Removing stm32l4xx_it.o(.ARM.exidx.text.SysTick_Handler), (8 bytes).
==============================================================================

Image Symbol Table

    Local Symbols

    Symbol Name                              Value     Ov Type        Size  Object(Section)

    ../clib/../cmprslib/zerorunl2.c          0x00000000   Number         0  __dczerorl2.o ABSOLUTE
    ../clib/division.s                       0x00000000   Number         0  aeabi_sdiv.o ABSOLUTE
    ../clib/microlib/division.c              0x00000000   Number         0  uldiv.o ABSOLUTE
    ../clib/microlib/division.c              0x00000000   Number         0  ldiv.o ABSOLUTE
    ../clib/microlib/division.c              0x00000000   Number         0  uidiv.o ABSOLUTE
    ../clib/microlib/init/entry.s            0x00000000   Number         0  entry.o ABSOLUTE
    ../clib/microlib/init/entry.s            0x00000000   Number         0  entry2.o ABSOLUTE
    ../clib/microlib/init/entry.s            0x00000000   Number         0  entry5.o ABSOLUTE
    ../clib/microlib/init/entry.s            0x00000000   Number         0  entry7a.o ABSOLUTE
    ../clib/microlib/init/entry.s            0x00000000   Number         0  entry7b.o ABSOLUTE
    ../clib/microlib/init/entry.s            0x00000000   Number         0  entry8a.o ABSOLUTE
    ../clib/microlib/init/entry.s            0x00000000   Number         0  entry8b.o ABSOLUTE
    ../clib/microlib/init/entry.s            0x00000000   Number         0  entry9a.o ABSOLUTE
    ../clib/microlib/init/entry.s            0x00000000   Number         0  entry9b.o ABSOLUTE
    ../clib/microlib/init/entry.s            0x00000000   Number         0  entry10a.o ABSOLUTE
    ../clib/microlib/init/entry.s            0x00000000   Number         0  entry10b.o ABSOLUTE
    ../clib/microlib/init/entry.s            0x00000000   Number         0  entry11a.o ABSOLUTE
    ../clib/microlib/init/entry.s            0x00000000   Number         0  entry11b.o ABSOLUTE
    ../clib/microlib/longlong.c              0x00000000   Number         0  llshl.o ABSOLUTE
    ../clib/microlib/longlong.c              0x00000000   Number         0  llushr.o ABSOLUTE
    ../clib/microlib/longlong.c              0x00000000   Number         0  llsshr.o ABSOLUTE
    ../clib/microlib/printf/printf.c         0x00000000   Number         0  printfb.o ABSOLUTE
    ../clib/microlib/printf/printf.c         0x00000000   Number         0  printf0.o ABSOLUTE
    ../clib/microlib/printf/printf.c         0x00000000   Number         0  printf1.o ABSOLUTE
    ../clib/microlib/printf/printf.c         0x00000000   Number         0  printf2.o ABSOLUTE
    ../clib/microlib/printf/printf.c         0x00000000   Number         0  printf3.o ABSOLUTE
    ../clib/microlib/printf/printf.c         0x00000000   Number         0  printf4.o ABSOLUTE
    ../clib/microlib/printf/printf.c         0x00000000   Number         0  printf5.o ABSOLUTE
    ../clib/microlib/printf/printf.c         0x00000000   Number         0  printf6.o ABSOLUTE
    ../clib/microlib/printf/printf.c         0x00000000   Number         0  printf7.o ABSOLUTE
    ../clib/microlib/printf/printf.c         0x00000000   Number         0  printf8.o ABSOLUTE
    ../clib/microlib/printf/printf.c         0x00000000   Number         0  printfa.o ABSOLUTE
    ../clib/microlib/printf/stubs.s          0x00000000   Number         0  printfstubs.o ABSOLUTE
    ../clib/microlib/stdio/fputs.c           0x00000000   Number         0  fputs.o ABSOLUTE
    ../clib/microlib/stdio/fputs.c           0x00000000   Number         0  fputs_e.o ABSOLUTE
    ../clib/microlib/stdio/streams.c         0x00000000   Number         0  stderr.o ABSOLUTE
    ../clib/microlib/stdio/streams.c         0x00000000   Number         0  stdout.o ABSOLUTE
    ../clib/microlib/string/memcmp.c         0x00000000   Number         0  memcmp.o ABSOLUTE
    ../clib/microlib/string/memcpy.c         0x00000000   Number         0  memcpya.o ABSOLUTE
    ../clib/microlib/string/memcpy.c         0x00000000   Number         0  memcpyb.o ABSOLUTE
    ../clib/microlib/string/memset.c         0x00000000   Number         0  memset.o ABSOLUTE
    ../clib/microlib/string/memset.c         0x00000000   Number         0  memseta.o ABSOLUTE
    ../clib/microlib/string/strcmp.c         0x00000000   Number         0  strcmp.o ABSOLUTE
    ../clib/microlib/string/strcpy.c         0x00000000   Number         0  strcpy.o ABSOLUTE
    ../clib/microlib/string/strlen.c         0x00000000   Number         0  strlen.o ABSOLUTE
    ../clib/microlib/stubs.s                 0x00000000   Number         0  iusefp.o ABSOLUTE
    ../fplib/microlib/fpadd.c                0x00000000   Number         0  dadd.o ABSOLUTE
    ../fplib/microlib/fpdiv.c                0x00000000   Number         0  ddiv.o ABSOLUTE
    ../fplib/microlib/fpepilogue.c           0x00000000   Number         0  depilogue.o ABSOLUTE
    ../fplib/microlib/fpfix.c                0x00000000   Number         0  dfixui.o ABSOLUTE
    ../fplib/microlib/fpfix.c                0x00000000   Number         0  dfixl.o ABSOLUTE
    ../fplib/microlib/fpfix.c                0x00000000   Number         0  dfixul.o ABSOLUTE
    ../fplib/microlib/fpflt.c                0x00000000   Number         0  dfltui.o ABSOLUTE
    ../fplib/microlib/fpflt.c                0x00000000   Number         0  dfltl.o ABSOLUTE
    ../fplib/microlib/fpmul.c                0x00000000   Number         0  dmul.o ABSOLUTE
    _lv_cache_lru_rb.c                       0x00000000   Number         0  _lv_cache_lru_rb.o ABSOLUTE
    aes.c                                    0x00000000   Number         0  aes.o ABSOLUTE
    aesce.c                                  0x00000000   Number         0  aesce.o ABSOLUTE
    aesni.c                                  0x00000000   Number         0  aesni.o ABSOLUTE
    aria.c                                   0x00000000   Number         0  aria.o ABSOLUTE
    asn1parse.c                              0x00000000   Number         0  asn1parse.o ABSOLUTE
    asn1write.c                              0x00000000   Number         0  asn1write.o ABSOLUTE
    b_core.c                                 0x00000000   Number         0  b_core.o ABSOLUTE
    b_device.c                               0x00000000   Number         0  b_device.o ABSOLUTE
    b_drv_st7789.c                           0x00000000   Number         0  b_drv_st7789.o ABSOLUTE
    b_hal.c                                  0x00000000   Number         0  b_hal.o ABSOLUTE
    b_hal_flash.c                            0x00000000   Number         0  b_hal_flash.o ABSOLUTE
    b_hal_gpio.c                             0x00000000   Number         0  b_hal_gpio.o ABSOLUTE
    b_hal_i2c.c                              0x00000000   Number         0  b_hal_i2c.o ABSOLUTE
    b_hal_it.c                               0x00000000   Number         0  b_hal_it.o ABSOLUTE
    b_hal_qspi.c                             0x00000000   Number         0  b_hal_qspi.o ABSOLUTE
    b_hal_sdio.c                             0x00000000   Number         0  b_hal_sdio.o ABSOLUTE
    b_hal_spi.c                              0x00000000   Number         0  b_hal_spi.o ABSOLUTE
    b_hal_uart.c                             0x00000000   Number         0  b_hal_uart.o ABSOLUTE
    b_mod_adchub.c                           0x00000000   Number         0  b_mod_adchub.o ABSOLUTE
    b_mod_button.c                           0x00000000   Number         0  b_mod_button.o ABSOLUTE
    b_mod_error.c                            0x00000000   Number         0  b_mod_error.o ABSOLUTE
    b_mod_fs.c                               0x00000000   Number         0  b_mod_fs.o ABSOLUTE
    b_mod_gui.c                              0x00000000   Number         0  b_mod_gui.o ABSOLUTE
    b_mod_iap.c                              0x00000000   Number         0  b_mod_iap.o ABSOLUTE
    b_mod_kv.c                               0x00000000   Number         0  b_mod_kv.o ABSOLUTE
    b_mod_menu.c                             0x00000000   Number         0  b_mod_menu.o ABSOLUTE
    b_mod_modbus.c                           0x00000000   Number         0  b_mod_modbus.o ABSOLUTE
    b_mod_param.c                            0x00000000   Number         0  b_mod_param.o ABSOLUTE
    b_mod_protocol.c                         0x00000000   Number         0  b_mod_protocol.o ABSOLUTE
    b_mod_pwm.c                              0x00000000   Number         0  b_mod_pwm.o ABSOLUTE
    b_mod_qrcode.c                           0x00000000   Number         0  b_mod_qrcode.o ABSOLUTE
    b_mod_shell.c                            0x00000000   Number         0  b_mod_shell.o ABSOLUTE
    b_mod_state.c                            0x00000000   Number         0  b_mod_state.o ABSOLUTE
    b_mod_trace.c                            0x00000000   Number         0  b_mod_trace.o ABSOLUTE
    b_mod_xm128.c                            0x00000000   Number         0  b_mod_xm128.o ABSOLUTE
    b_mod_ymodem.c                           0x00000000   Number         0  b_mod_ymodem.o ABSOLUTE
    b_queue.c                                0x00000000   Number         0  b_queue.o ABSOLUTE
    b_sem.c                                  0x00000000   Number         0  b_sem.o ABSOLUTE
    b_task.c                                 0x00000000   Number         0  b_task.o ABSOLUTE
    b_timer.c                                0x00000000   Number         0  b_timer.o ABSOLUTE
    b_util_fifo.c                            0x00000000   Number         0  b_util_fifo.o ABSOLUTE
    b_util_log.c                             0x00000000   Number         0  b_util_log.o ABSOLUTE
    b_util_lunar.c                           0x00000000   Number         0  b_util_lunar.o ABSOLUTE
    b_util_memp.c                            0x00000000   Number         0  b_util_memp.o ABSOLUTE
    b_util_utc.c                             0x00000000   Number         0  b_util_utc.o ABSOLUTE
    base64.c                                 0x00000000   Number         0  base64.o ABSOLUTE
    bignum.c                                 0x00000000   Number         0  bignum.o ABSOLUTE
    bignum_core.c                            0x00000000   Number         0  bignum_core.o ABSOLUTE
    bignum_mod.c                             0x00000000   Number         0  bignum_mod.o ABSOLUTE
    bignum_mod_raw.c                         0x00000000   Number         0  bignum_mod_raw.o ABSOLUTE
    block_cipher.c                           0x00000000   Number         0  block_cipher.o ABSOLUTE
    camellia.c                               0x00000000   Number         0  camellia.o ABSOLUTE
    ccm.c                                    0x00000000   Number         0  ccm.o ABSOLUTE
    cdrcmple.s                               0x00000000   Number         0  cdrcmple.o ABSOLUTE
    chacha20.c                               0x00000000   Number         0  chacha20.o ABSOLUTE
    chachapoly.c                             0x00000000   Number         0  chachapoly.o ABSOLUTE
    cipher.c                                 0x00000000   Number         0  cipher.o ABSOLUTE
    cipher_wrap.c                            0x00000000   Number         0  cipher_wrap.o ABSOLUTE
    cmac.c                                   0x00000000   Number         0  cmac.o ABSOLUTE
    constant_time.c                          0x00000000   Number         0  constant_time.o ABSOLUTE
    ctr_drbg.c                               0x00000000   Number         0  ctr_drbg.o ABSOLUTE
    dc.s                                     0x00000000   Number         0  dc.o ABSOLUTE
    debug.c                                  0x00000000   Number         0  debug.o ABSOLUTE
    des.c                                    0x00000000   Number         0  des.o ABSOLUTE
    dhm.c                                    0x00000000   Number         0  dhm.o ABSOLUTE
    ecdh.c                                   0x00000000   Number         0  ecdh.o ABSOLUTE
    ecdsa.c                                  0x00000000   Number         0  ecdsa.o ABSOLUTE
    ecjpake.c                                0x00000000   Number         0  ecjpake.o ABSOLUTE
    ecp.c                                    0x00000000   Number         0  ecp.o ABSOLUTE
    ecp_curves.c                             0x00000000   Number         0  ecp_curves.o ABSOLUTE
    ecp_curves_new.c                         0x00000000   Number         0  ecp_curves_new.o ABSOLUTE
    entropy.c                                0x00000000   Number         0  entropy.o ABSOLUTE
    entropy_poll.c                           0x00000000   Number         0  entropy_poll.o ABSOLUTE
    error.c                                  0x00000000   Number         0  error.o ABSOLUTE
    gcm.c                                    0x00000000   Number         0  gcm.o ABSOLUTE
    handlers.s                               0x00000000   Number         0  handlers.o ABSOLUTE
    hkdf.c                                   0x00000000   Number         0  hkdf.o ABSOLUTE
    hmac_drbg.c                              0x00000000   Number         0  hmac_drbg.o ABSOLUTE
    init.s                                   0x00000000   Number         0  init.o ABSOLUTE
    lmots.c                                  0x00000000   Number         0  lmots.o ABSOLUTE
    lms.c                                    0x00000000   Number         0  lms.o ABSOLUTE
    lv_anim.c                                0x00000000   Number         0  lv_anim.o ABSOLUTE
    lv_anim_timeline.c                       0x00000000   Number         0  lv_anim_timeline.o ABSOLUTE
    lv_animimage.c                           0x00000000   Number         0  lv_animimage.o ABSOLUTE
    lv_arc.c                                 0x00000000   Number         0  lv_arc.o ABSOLUTE
    lv_area.c                                0x00000000   Number         0  lv_area.o ABSOLUTE
    lv_array.c                               0x00000000   Number         0  lv_array.o ABSOLUTE
    lv_async.c                               0x00000000   Number         0  lv_async.o ABSOLUTE
    lv_bar.c                                 0x00000000   Number         0  lv_bar.o ABSOLUTE
    lv_bidi.c                                0x00000000   Number         0  lv_bidi.o ABSOLUTE
    lv_bin_decoder.c                         0x00000000   Number         0  lv_bin_decoder.o ABSOLUTE
    lv_binfont_loader.c                      0x00000000   Number         0  lv_binfont_loader.o ABSOLUTE
    lv_button.c                              0x00000000   Number         0  lv_button.o ABSOLUTE
    lv_buttonmatrix.c                        0x00000000   Number         0  lv_buttonmatrix.o ABSOLUTE
    lv_cache.c                               0x00000000   Number         0  lv_cache.o ABSOLUTE
    lv_cache_entry.c                         0x00000000   Number         0  lv_cache_entry.o ABSOLUTE
    lv_calendar.c                            0x00000000   Number         0  lv_calendar.o ABSOLUTE
    lv_calendar_header_arrow.c               0x00000000   Number         0  lv_calendar_header_arrow.o ABSOLUTE
    lv_calendar_header_dropdown.c            0x00000000   Number         0  lv_calendar_header_dropdown.o ABSOLUTE
    lv_canvas.c                              0x00000000   Number         0  lv_canvas.o ABSOLUTE
    lv_chart.c                               0x00000000   Number         0  lv_chart.o ABSOLUTE
    lv_checkbox.c                            0x00000000   Number         0  lv_checkbox.o ABSOLUTE
    lv_color.c                               0x00000000   Number         0  lv_color.o ABSOLUTE
    lv_color_op.c                            0x00000000   Number         0  lv_color_op.o ABSOLUTE
    lv_display.c                             0x00000000   Number         0  lv_display.o ABSOLUTE
    lv_draw.c                                0x00000000   Number         0  lv_draw.o ABSOLUTE
    lv_draw_arc.c                            0x00000000   Number         0  lv_draw_arc.o ABSOLUTE
    lv_draw_buf.c                            0x00000000   Number         0  lv_draw_buf.o ABSOLUTE
    lv_draw_image.c                          0x00000000   Number         0  lv_draw_image.o ABSOLUTE
    lv_draw_label.c                          0x00000000   Number         0  lv_draw_label.o ABSOLUTE
    lv_draw_line.c                           0x00000000   Number         0  lv_draw_line.o ABSOLUTE
    lv_draw_mask.c                           0x00000000   Number         0  lv_draw_mask.o ABSOLUTE
    lv_draw_rect.c                           0x00000000   Number         0  lv_draw_rect.o ABSOLUTE
    lv_draw_sw.c                             0x00000000   Number         0  lv_draw_sw.o ABSOLUTE
    lv_draw_sw_arc.c                         0x00000000   Number         0  lv_draw_sw_arc.o ABSOLUTE
    lv_draw_sw_blend.c                       0x00000000   Number         0  lv_draw_sw_blend.o ABSOLUTE
    lv_draw_sw_blend_to_argb8888.c           0x00000000   Number         0  lv_draw_sw_blend_to_argb8888.o ABSOLUTE
    lv_draw_sw_blend_to_rgb565.c             0x00000000   Number         0  lv_draw_sw_blend_to_rgb565.o ABSOLUTE
    lv_draw_sw_blend_to_rgb888.c             0x00000000   Number         0  lv_draw_sw_blend_to_rgb888.o ABSOLUTE
    lv_draw_sw_border.c                      0x00000000   Number         0  lv_draw_sw_border.o ABSOLUTE
    lv_draw_sw_box_shadow.c                  0x00000000   Number         0  lv_draw_sw_box_shadow.o ABSOLUTE
    lv_draw_sw_fill.c                        0x00000000   Number         0  lv_draw_sw_fill.o ABSOLUTE
    lv_draw_sw_gradient.c                    0x00000000   Number         0  lv_draw_sw_gradient.o ABSOLUTE
    lv_draw_sw_img.c                         0x00000000   Number         0  lv_draw_sw_img.o ABSOLUTE
    lv_draw_sw_letter.c                      0x00000000   Number         0  lv_draw_sw_letter.o ABSOLUTE
    lv_draw_sw_line.c                        0x00000000   Number         0  lv_draw_sw_line.o ABSOLUTE
    lv_draw_sw_mask.c                        0x00000000   Number         0  lv_draw_sw_mask.o ABSOLUTE
    lv_draw_sw_mask_rect.c                   0x00000000   Number         0  lv_draw_sw_mask_rect.o ABSOLUTE
    lv_draw_sw_transform.c                   0x00000000   Number         0  lv_draw_sw_transform.o ABSOLUTE
    lv_draw_sw_triangle.c                    0x00000000   Number         0  lv_draw_sw_triangle.o ABSOLUTE
    lv_draw_sw_vector.c                      0x00000000   Number         0  lv_draw_sw_vector.o ABSOLUTE
    lv_draw_triangle.c                       0x00000000   Number         0  lv_draw_triangle.o ABSOLUTE
    lv_draw_vector.c                         0x00000000   Number         0  lv_draw_vector.o ABSOLUTE
    lv_dropdown.c                            0x00000000   Number         0  lv_dropdown.o ABSOLUTE
    lv_event.c                               0x00000000   Number         0  lv_event.o ABSOLUTE
    lv_flex.c                                0x00000000   Number         0  lv_flex.o ABSOLUTE
    lv_font.c                                0x00000000   Number         0  lv_font.o ABSOLUTE
    lv_font_fmt_txt.c                        0x00000000   Number         0  lv_font_fmt_txt.o ABSOLUTE
    lv_font_montserrat_14.c                  0x00000000   Number         0  lv_font_montserrat_14.o ABSOLUTE
    lv_fs.c                                  0x00000000   Number         0  lv_fs.o ABSOLUTE
    lv_grid.c                                0x00000000   Number         0  lv_grid.o ABSOLUTE
    lv_group.c                               0x00000000   Number         0  lv_group.o ABSOLUTE
    lv_image.c                               0x00000000   Number         0  lv_image.o ABSOLUTE
    lv_image_cache.c                         0x00000000   Number         0  lv_image_cache.o ABSOLUTE
    lv_image_decoder.c                       0x00000000   Number         0  lv_image_decoder.o ABSOLUTE
    lv_imagebutton.c                         0x00000000   Number         0  lv_imagebutton.o ABSOLUTE
    lv_indev.c                               0x00000000   Number         0  lv_indev.o ABSOLUTE
    lv_indev_scroll.c                        0x00000000   Number         0  lv_indev_scroll.o ABSOLUTE
    lv_init.c                                0x00000000   Number         0  lv_init.o ABSOLUTE
    lv_keyboard.c                            0x00000000   Number         0  lv_keyboard.o ABSOLUTE
    lv_label.c                               0x00000000   Number         0  lv_label.o ABSOLUTE
    lv_layout.c                              0x00000000   Number         0  lv_layout.o ABSOLUTE
    lv_led.c                                 0x00000000   Number         0  lv_led.o ABSOLUTE
    lv_line.c                                0x00000000   Number         0  lv_line.o ABSOLUTE
    lv_list.c                                0x00000000   Number         0  lv_list.o ABSOLUTE
    lv_ll.c                                  0x00000000   Number         0  lv_ll.o ABSOLUTE
    lv_log.c                                 0x00000000   Number         0  lv_log.o ABSOLUTE
    lv_lru.c                                 0x00000000   Number         0  lv_lru.o ABSOLUTE
    lv_math.c                                0x00000000   Number         0  lv_math.o ABSOLUTE
    lv_mem.c                                 0x00000000   Number         0  lv_mem.o ABSOLUTE
    lv_mem_core_babyos.c                     0x00000000   Number         0  lv_mem_core_babyos.o ABSOLUTE
    lv_mem_core_builtin.c                    0x00000000   Number         0  lv_mem_core_builtin.o ABSOLUTE
    lv_menu.c                                0x00000000   Number         0  lv_menu.o ABSOLUTE
    lv_msgbox.c                              0x00000000   Number         0  lv_msgbox.o ABSOLUTE
    lv_obj.c                                 0x00000000   Number         0  lv_obj.o ABSOLUTE
    lv_obj_class.c                           0x00000000   Number         0  lv_obj_class.o ABSOLUTE
    lv_obj_draw.c                            0x00000000   Number         0  lv_obj_draw.o ABSOLUTE
    lv_obj_event.c                           0x00000000   Number         0  lv_obj_event.o ABSOLUTE
    lv_obj_id_builtin.c                      0x00000000   Number         0  lv_obj_id_builtin.o ABSOLUTE
    lv_obj_pos.c                             0x00000000   Number         0  lv_obj_pos.o ABSOLUTE
    lv_obj_property.c                        0x00000000   Number         0  lv_obj_property.o ABSOLUTE
    lv_obj_scroll.c                          0x00000000   Number         0  lv_obj_scroll.o ABSOLUTE
    lv_obj_style.c                           0x00000000   Number         0  lv_obj_style.o ABSOLUTE
    lv_obj_style_gen.c                       0x00000000   Number         0  lv_obj_style_gen.o ABSOLUTE
    lv_obj_tree.c                            0x00000000   Number         0  lv_obj_tree.o ABSOLUTE
    lv_objx_templ.c                          0x00000000   Number         0  lv_objx_templ.o ABSOLUTE
    lv_os_none.c                             0x00000000   Number         0  lv_os_none.o ABSOLUTE
    lv_palette.c                             0x00000000   Number         0  lv_palette.o ABSOLUTE
    lv_profiler_builtin.c                    0x00000000   Number         0  lv_profiler_builtin.o ABSOLUTE
    lv_rb.c                                  0x00000000   Number         0  lv_rb.o ABSOLUTE
    lv_refr.c                                0x00000000   Number         0  lv_refr.o ABSOLUTE
    lv_roller.c                              0x00000000   Number         0  lv_roller.o ABSOLUTE
    lv_scale.c                               0x00000000   Number         0  lv_scale.o ABSOLUTE
    lv_slider.c                              0x00000000   Number         0  lv_slider.o ABSOLUTE
    lv_span.c                                0x00000000   Number         0  lv_span.o ABSOLUTE
    lv_spinbox.c                             0x00000000   Number         0  lv_spinbox.o ABSOLUTE
    lv_spinner.c                             0x00000000   Number         0  lv_spinner.o ABSOLUTE
    lv_sprintf_builtin.c                     0x00000000   Number         0  lv_sprintf_builtin.o ABSOLUTE
    lv_string_builtin.c                      0x00000000   Number         0  lv_string_builtin.o ABSOLUTE
    lv_style.c                               0x00000000   Number         0  lv_style.o ABSOLUTE
    lv_style_gen.c                           0x00000000   Number         0  lv_style_gen.o ABSOLUTE
    lv_switch.c                              0x00000000   Number         0  lv_switch.o ABSOLUTE
    lv_table.c                               0x00000000   Number         0  lv_table.o ABSOLUTE
    lv_tabview.c                             0x00000000   Number         0  lv_tabview.o ABSOLUTE
    lv_templ.c                               0x00000000   Number         0  lv_templ.o ABSOLUTE
    lv_text.c                                0x00000000   Number         0  lv_text.o ABSOLUTE
    lv_text_ap.c                             0x00000000   Number         0  lv_text_ap.o ABSOLUTE
    lv_textarea.c                            0x00000000   Number         0  lv_textarea.o ABSOLUTE
    lv_theme.c                               0x00000000   Number         0  lv_theme.o ABSOLUTE
    lv_theme_default.c                       0x00000000   Number         0  lv_theme_default.o ABSOLUTE
    lv_theme_mono.c                          0x00000000   Number         0  lv_theme_mono.o ABSOLUTE
    lv_theme_simple.c                        0x00000000   Number         0  lv_theme_simple.o ABSOLUTE
    lv_tick.c                                0x00000000   Number         0  lv_tick.o ABSOLUTE
    lv_tileview.c                            0x00000000   Number         0  lv_tileview.o ABSOLUTE
    lv_timer.c                               0x00000000   Number         0  lv_timer.o ABSOLUTE
    lv_tlsf.c                                0x00000000   Number         0  lv_tlsf.o ABSOLUTE
    lv_utils.c                               0x00000000   Number         0  lv_utils.o ABSOLUTE
    lv_win.c                                 0x00000000   Number         0  lv_win.o ABSOLUTE
    main.c                                   0x00000000   Number         0  main.o ABSOLUTE
    mcu_stm32l41x_flash.c                    0x00000000   Number         0  mcu_stm32l41x_flash.o ABSOLUTE
    mcu_stm32l41x_gpio.c                     0x00000000   Number         0  mcu_stm32l41x_gpio.o ABSOLUTE
    mcu_stm32l41x_i2c.c                      0x00000000   Number         0  mcu_stm32l41x_i2c.o ABSOLUTE
    mcu_stm32l41x_it.c                       0x00000000   Number         0  mcu_stm32l41x_it.o ABSOLUTE
    mcu_stm32l41x_qspi.c                     0x00000000   Number         0  mcu_stm32l41x_qspi.o ABSOLUTE
    mcu_stm32l41x_sdio.c                     0x00000000   Number         0  mcu_stm32l41x_sdio.o ABSOLUTE
    mcu_stm32l41x_spi.c                      0x00000000   Number         0  mcu_stm32l41x_spi.o ABSOLUTE
    mcu_stm32l41x_uart.c                     0x00000000   Number         0  mcu_stm32l41x_uart.o ABSOLUTE
    md.c                                     0x00000000   Number         0  md.o ABSOLUTE
    md5.c                                    0x00000000   Number         0  md5.o ABSOLUTE
    memory_buffer_alloc.c                    0x00000000   Number         0  memory_buffer_alloc.o ABSOLUTE
    mps_reader.c                             0x00000000   Number         0  mps_reader.o ABSOLUTE
    mps_trace.c                              0x00000000   Number         0  mps_trace.o ABSOLUTE
    net_sockets.c                            0x00000000   Number         0  net_sockets.o ABSOLUTE
    nist_kw.c                                0x00000000   Number         0  nist_kw.o ABSOLUTE
    oid.c                                    0x00000000   Number         0  oid.o ABSOLUTE
    padlock.c                                0x00000000   Number         0  padlock.o ABSOLUTE
    pem.c                                    0x00000000   Number         0  pem.o ABSOLUTE
    pk.c                                     0x00000000   Number         0  pk.o ABSOLUTE
    pk_ecc.c                                 0x00000000   Number         0  pk_ecc.o ABSOLUTE
    pk_wrap.c                                0x00000000   Number         0  pk_wrap.o ABSOLUTE
    pkcs12.c                                 0x00000000   Number         0  pkcs12.o ABSOLUTE
    pkcs5.c                                  0x00000000   Number         0  pkcs5.o ABSOLUTE
    pkcs7.c                                  0x00000000   Number         0  pkcs7.o ABSOLUTE
    pkparse.c                                0x00000000   Number         0  pkparse.o ABSOLUTE
    pkwrite.c                                0x00000000   Number         0  pkwrite.o ABSOLUTE
    platform.c                               0x00000000   Number         0  platform.o ABSOLUTE
    platform_util.c                          0x00000000   Number         0  platform_util.o ABSOLUTE
    poly1305.c                               0x00000000   Number         0  poly1305.o ABSOLUTE
    psa_crypto.c                             0x00000000   Number         0  psa_crypto.o ABSOLUTE
    psa_crypto_aead.c                        0x00000000   Number         0  psa_crypto_aead.o ABSOLUTE
    psa_crypto_cipher.c                      0x00000000   Number         0  psa_crypto_cipher.o ABSOLUTE
    psa_crypto_client.c                      0x00000000   Number         0  psa_crypto_client.o ABSOLUTE
    psa_crypto_driver_wrappers_no_static.c   0x00000000   Number         0  psa_crypto_driver_wrappers_no_static.o ABSOLUTE
    psa_crypto_ecp.c                         0x00000000   Number         0  psa_crypto_ecp.o ABSOLUTE
    psa_crypto_ffdh.c                        0x00000000   Number         0  psa_crypto_ffdh.o ABSOLUTE
    psa_crypto_hash.c                        0x00000000   Number         0  psa_crypto_hash.o ABSOLUTE
    psa_crypto_mac.c                         0x00000000   Number         0  psa_crypto_mac.o ABSOLUTE
    psa_crypto_pake.c                        0x00000000   Number         0  psa_crypto_pake.o ABSOLUTE
    psa_crypto_rsa.c                         0x00000000   Number         0  psa_crypto_rsa.o ABSOLUTE
    psa_crypto_se.c                          0x00000000   Number         0  psa_crypto_se.o ABSOLUTE
    psa_crypto_slot_management.c             0x00000000   Number         0  psa_crypto_slot_management.o ABSOLUTE
    psa_crypto_storage.c                     0x00000000   Number         0  psa_crypto_storage.o ABSOLUTE
    psa_its_file.c                           0x00000000   Number         0  psa_its_file.o ABSOLUTE
    psa_util.c                               0x00000000   Number         0  psa_util.o ABSOLUTE
    qrcode.c                                 0x00000000   Number         0  qrcode.o ABSOLUTE
    retarget_io.c                            0x00000000   Number         0  retarget_io.o ABSOLUTE
    ripemd160.c                              0x00000000   Number         0  ripemd160.o ABSOLUTE
    rsa.c                                    0x00000000   Number         0  rsa.o ABSOLUTE
    rsa_alt_helpers.c                        0x00000000   Number         0  rsa_alt_helpers.o ABSOLUTE
    sha1.c                                   0x00000000   Number         0  sha1.o ABSOLUTE
    sha256.c                                 0x00000000   Number         0  sha256.o ABSOLUTE
    sha3.c                                   0x00000000   Number         0  sha3.o ABSOLUTE
    sha512.c                                 0x00000000   Number         0  sha512.o ABSOLUTE
    ssl_cache.c                              0x00000000   Number         0  ssl_cache.o ABSOLUTE
    ssl_ciphersuites.c                       0x00000000   Number         0  ssl_ciphersuites.o ABSOLUTE
    ssl_client.c                             0x00000000   Number         0  ssl_client.o ABSOLUTE
    ssl_cookie.c                             0x00000000   Number         0  ssl_cookie.o ABSOLUTE
    ssl_debug_helpers_generated.c            0x00000000   Number         0  ssl_debug_helpers_generated.o ABSOLUTE
    ssl_msg.c                                0x00000000   Number         0  ssl_msg.o ABSOLUTE
    ssl_ticket.c                             0x00000000   Number         0  ssl_ticket.o ABSOLUTE
    ssl_tls.c                                0x00000000   Number         0  ssl_tls.o ABSOLUTE
    ssl_tls12_client.c                       0x00000000   Number         0  ssl_tls12_client.o ABSOLUTE
    ssl_tls12_server.c                       0x00000000   Number         0  ssl_tls12_server.o ABSOLUTE
    ssl_tls13_client.c                       0x00000000   Number         0  ssl_tls13_client.o ABSOLUTE
    ssl_tls13_generic.c                      0x00000000   Number         0  ssl_tls13_generic.o ABSOLUTE
    ssl_tls13_keys.c                         0x00000000   Number         0  ssl_tls13_keys.o ABSOLUTE
    ssl_tls13_server.c                       0x00000000   Number         0  ssl_tls13_server.o ABSOLUTE
    startup_stm32l431xx.s                    0x00000000   Number         0  startup_stm32l431xx.o ABSOLUTE
    stm32l4xx_hal.c                          0x00000000   Number         0  stm32l4xx_hal.o ABSOLUTE
    stm32l4xx_hal_adc.c                      0x00000000   Number         0  stm32l4xx_hal_adc.o ABSOLUTE
    stm32l4xx_hal_adc_ex.c                   0x00000000   Number         0  stm32l4xx_hal_adc_ex.o ABSOLUTE
    stm32l4xx_hal_cortex.c                   0x00000000   Number         0  stm32l4xx_hal_cortex.o ABSOLUTE
    stm32l4xx_hal_dma.c                      0x00000000   Number         0  stm32l4xx_hal_dma.o ABSOLUTE
    stm32l4xx_hal_dma_ex.c                   0x00000000   Number         0  stm32l4xx_hal_dma_ex.o ABSOLUTE
    stm32l4xx_hal_flash.c                    0x00000000   Number         0  stm32l4xx_hal_flash.o ABSOLUTE
    stm32l4xx_hal_flash_ex.c                 0x00000000   Number         0  stm32l4xx_hal_flash_ex.o ABSOLUTE
    stm32l4xx_hal_flash_ramfunc.c            0x00000000   Number         0  stm32l4xx_hal_flash_ramfunc.o ABSOLUTE
    stm32l4xx_hal_gpio.c                     0x00000000   Number         0  stm32l4xx_hal_gpio.o ABSOLUTE
    stm32l4xx_hal_i2c.c                      0x00000000   Number         0  stm32l4xx_hal_i2c.o ABSOLUTE
    stm32l4xx_hal_i2c_ex.c                   0x00000000   Number         0  stm32l4xx_hal_i2c_ex.o ABSOLUTE
    stm32l4xx_hal_iwdg.c                     0x00000000   Number         0  stm32l4xx_hal_iwdg.o ABSOLUTE
    stm32l4xx_hal_mmc.c                      0x00000000   Number         0  stm32l4xx_hal_mmc.o ABSOLUTE
    stm32l4xx_hal_mmc_ex.c                   0x00000000   Number         0  stm32l4xx_hal_mmc_ex.o ABSOLUTE
    stm32l4xx_hal_msp.c                      0x00000000   Number         0  stm32l4xx_hal_msp.o ABSOLUTE
    stm32l4xx_hal_pwr.c                      0x00000000   Number         0  stm32l4xx_hal_pwr.o ABSOLUTE
    stm32l4xx_hal_pwr_ex.c                   0x00000000   Number         0  stm32l4xx_hal_pwr_ex.o ABSOLUTE
    stm32l4xx_hal_qspi.c                     0x00000000   Number         0  stm32l4xx_hal_qspi.o ABSOLUTE
    stm32l4xx_hal_rcc.c                      0x00000000   Number         0  stm32l4xx_hal_rcc.o ABSOLUTE
    stm32l4xx_hal_rcc_ex.c                   0x00000000   Number         0  stm32l4xx_hal_rcc_ex.o ABSOLUTE
    stm32l4xx_hal_sd.c                       0x00000000   Number         0  stm32l4xx_hal_sd.o ABSOLUTE
    stm32l4xx_hal_sd_ex.c                    0x00000000   Number         0  stm32l4xx_hal_sd_ex.o ABSOLUTE
    stm32l4xx_hal_smartcard.c                0x00000000   Number         0  stm32l4xx_hal_smartcard.o ABSOLUTE
    stm32l4xx_hal_smartcard_ex.c             0x00000000   Number         0  stm32l4xx_hal_smartcard_ex.o ABSOLUTE
    stm32l4xx_hal_spi.c                      0x00000000   Number         0  stm32l4xx_hal_spi.o ABSOLUTE
    stm32l4xx_hal_spi_ex.c                   0x00000000   Number         0  stm32l4xx_hal_spi_ex.o ABSOLUTE
    stm32l4xx_hal_tim.c                      0x00000000   Number         0  stm32l4xx_hal_tim.o ABSOLUTE
    stm32l4xx_hal_tim_ex.c                   0x00000000   Number         0  stm32l4xx_hal_tim_ex.o ABSOLUTE
    stm32l4xx_hal_uart.c                     0x00000000   Number         0  stm32l4xx_hal_uart.o ABSOLUTE
    stm32l4xx_hal_uart_ex.c                  0x00000000   Number         0  stm32l4xx_hal_uart_ex.o ABSOLUTE
    stm32l4xx_hal_usart.c                    0x00000000   Number         0  stm32l4xx_hal_usart.o ABSOLUTE
    stm32l4xx_hal_usart_ex.c                 0x00000000   Number         0  stm32l4xx_hal_usart_ex.o ABSOLUTE
    stm32l4xx_hal_wwdg.c                     0x00000000   Number         0  stm32l4xx_hal_wwdg.o ABSOLUTE
    stm32l4xx_it.c                           0x00000000   Number         0  stm32l4xx_it.o ABSOLUTE
    stm32l4xx_ll_sdmmc.c                     0x00000000   Number         0  stm32l4xx_ll_sdmmc.o ABSOLUTE
    system_stm32l4xx.c                       0x00000000   Number         0  system_stm32l4xx.o ABSOLUTE
    threading.c                              0x00000000   Number         0  threading.o ABSOLUTE
    timing.c                                 0x00000000   Number         0  timing.o ABSOLUTE
    ugui.c                                   0x00000000   Number         0  ugui.o ABSOLUTE
    version.c                                0x00000000   Number         0  version.o ABSOLUTE
    version_features.c                       0x00000000   Number         0  version_features.o ABSOLUTE
    x509.c                                   0x00000000   Number         0  x509.o ABSOLUTE
    x509_create.c                            0x00000000   Number         0  x509_create.o ABSOLUTE
    x509_crl.c                               0x00000000   Number         0  x509_crl.o ABSOLUTE
    x509_crt.c                               0x00000000   Number         0  x509_crt.o ABSOLUTE
    x509_csr.c                               0x00000000   Number         0  x509_csr.o ABSOLUTE
    x509write.c                              0x00000000   Number         0  x509write.o ABSOLUTE
    x509write_crt.c                          0x00000000   Number         0  x509write_crt.o ABSOLUTE
    x509write_csr.c                          0x00000000   Number         0  x509write_csr.o ABSOLUTE
    RESET                                    0x08000000   Section      396  startup_stm32l431xx.o(RESET)
    .ARM.Collect$$$$00000000                 0x0800018c   Section        0  entry.o(.ARM.Collect$$$$00000000)
    .ARM.Collect$$$$00000001                 0x0800018c   Section        4  entry2.o(.ARM.Collect$$$$00000001)
    .ARM.Collect$$$$00000004                 0x08000190   Section        4  entry5.o(.ARM.Collect$$$$00000004)
    .ARM.Collect$$$$00000008                 0x08000194   Section        0  entry7b.o(.ARM.Collect$$$$00000008)
    .ARM.Collect$$$$0000000A                 0x08000194   Section        0  entry8b.o(.ARM.Collect$$$$0000000A)
    .ARM.Collect$$$$0000000B                 0x08000194   Section        8  entry9a.o(.ARM.Collect$$$$0000000B)
    __lit__00000000                          0x0800019c   Data           4  entry2.o(.ARM.Collect$$$$00002712)
    .ARM.Collect$$$$0000000D                 0x0800019c   Section        0  entry10a.o(.ARM.Collect$$$$0000000D)
    .ARM.Collect$$$$0000000F                 0x0800019c   Section        0  entry11a.o(.ARM.Collect$$$$0000000F)
    .ARM.Collect$$$$00002712                 0x0800019c   Section        4  entry2.o(.ARM.Collect$$$$00002712)
    $v0                                      0x080001a0   Number         0  startup_stm32l431xx.o(.text)
    .text                                    0x080001a0   Section       36  startup_stm32l431xx.o(.text)
    .text                                    0x080001c4   Section        0  uldiv.o(.text)
    .text                                    0x0800022c   Section        0  ldiv.o(.text)
    .text                                    0x0800028e   Section        0  memcpya.o(.text)
    .text                                    0x080002b2   Section        0  memseta.o(.text)
    .text                                    0x080002d6   Section        0  strlen.o(.text)
    .text                                    0x080002e4   Section        0  strcmp.o(.text)
    .text                                    0x08000300   Section        0  dadd.o(.text)
    .text                                    0x0800045e   Section        0  dmul.o(.text)
    .text                                    0x08000548   Section        0  ddiv.o(.text)
    .text                                    0x08000626   Section        0  dfltui.o(.text)
    .text                                    0x08000640   Section        0  dfixui.o(.text)
    .text                                    0x08000672   Section        0  uidiv.o(.text)
    .text                                    0x0800069e   Section        0  llshl.o(.text)
    .text                                    0x080006bc   Section        0  llushr.o(.text)
    .text                                    0x080006dc   Section        0  llsshr.o(.text)
    .text                                    0x08000700   Section        0  iusefp.o(.text)
    .text                                    0x08000700   Section        0  depilogue.o(.text)
    .text                                    0x080007ba   Section        0  dfixul.o(.text)
    .text                                    0x080007ec   Section       48  cdrcmple.o(.text)
    .text                                    0x0800081c   Section       48  init.o(.text)
    .text                                    0x0800084c   Section        0  __dczerorl2.o(.text)
    [Anonymous Symbol]                       0x080008a4   Section        0  stm32l4xx_it.o(.text.BusFault_Handler)
    [Anonymous Symbol]                       0x080008a6   Section        0  stm32l4xx_it.o(.text.DebugMon_Handler)
    [Anonymous Symbol]                       0x080008a8   Section        0  main.o(.text.Error_Handler)
    [Anonymous Symbol]                       0x080008b2   Section        0  stm32l4xx_hal_dma.o(.text.HAL_DMA_Abort)
    [Anonymous Symbol]                       0x080008f6   Section        0  stm32l4xx_hal_dma.o(.text.HAL_DMA_Abort_IT)
    [Anonymous Symbol]                       0x08000950   Section        0  stm32l4xx_hal_gpio.o(.text.HAL_GPIO_Init)
    [Anonymous Symbol]                       0x08000af4   Section        0  stm32l4xx_hal_gpio.o(.text.HAL_GPIO_WritePin)
    [Anonymous Symbol]                       0x08000b00   Section        0  stm32l4xx_hal.o(.text.HAL_GetTick)
    [Anonymous Symbol]                       0x08000b0c   Section        0  stm32l4xx_hal.o(.text.HAL_IncTick)
    [Anonymous Symbol]                       0x08000b26   Section        0  stm32l4xx_hal.o(.text.HAL_Init)
    [Anonymous Symbol]                       0x08000b42   Section        0  stm32l4xx_hal.o(.text.HAL_InitTick)
    [Anonymous Symbol]                       0x08000b96   Section        0  stm32l4xx_hal_msp.o(.text.HAL_MspInit)
    [Anonymous Symbol]                       0x08000bc8   Section        0  stm32l4xx_hal_cortex.o(.text.HAL_NVIC_EnableIRQ)
    [Anonymous Symbol]                       0x08000be8   Section        0  stm32l4xx_hal_cortex.o(.text.HAL_NVIC_SetPriority)
    [Anonymous Symbol]                       0x08000c3e   Section        0  stm32l4xx_hal_cortex.o(.text.HAL_NVIC_SetPriorityGrouping)
    [Anonymous Symbol]                       0x08000c60   Section        0  stm32l4xx_hal_pwr_ex.o(.text.HAL_PWREx_ControlVoltageScaling)
    [Anonymous Symbol]                       0x08000ce4   Section        0  stm32l4xx_hal_pwr_ex.o(.text.HAL_PWREx_GetVoltageRange)
    [Anonymous Symbol]                       0x08000cf4   Section        0  stm32l4xx_hal_rcc_ex.o(.text.HAL_RCCEx_PeriphCLKConfig)
    [Anonymous Symbol]                       0x08000f5c   Section        0  stm32l4xx_hal_rcc.o(.text.HAL_RCC_ClockConfig)
    [Anonymous Symbol]                       0x080010bc   Section        0  stm32l4xx_hal_rcc.o(.text.HAL_RCC_GetPCLK1Freq)
    [Anonymous Symbol]                       0x080010e6   Section        0  stm32l4xx_hal_rcc.o(.text.HAL_RCC_GetPCLK2Freq)
    [Anonymous Symbol]                       0x08001110   Section        0  stm32l4xx_hal_rcc.o(.text.HAL_RCC_GetSysClockFreq)
    [Anonymous Symbol]                       0x080011c8   Section        0  stm32l4xx_hal_rcc.o(.text.HAL_RCC_OscConfig)
    [Anonymous Symbol]                       0x080017bc   Section        0  stm32l4xx_hal_spi.o(.text.HAL_SPI_Init)
    [Anonymous Symbol]                       0x08001894   Section        0  stm32l4xx_hal_msp.o(.text.HAL_SPI_MspInit)
    [Anonymous Symbol]                       0x08001934   Section        0  stm32l4xx_hal_cortex.o(.text.HAL_SYSTICK_Config)
    [Anonymous Symbol]                       0x08001960   Section        0  stm32l4xx_hal_uart.o(.text.HAL_UARTEx_RxEventCallback)
    [Anonymous Symbol]                       0x08001962   Section        0  stm32l4xx_hal_uart_ex.o(.text.HAL_UARTEx_WakeupCallback)
    [Anonymous Symbol]                       0x08001964   Section        0  stm32l4xx_hal_uart.o(.text.HAL_UART_ErrorCallback)
    [Anonymous Symbol]                       0x08001968   Section        0  stm32l4xx_hal_uart.o(.text.HAL_UART_IRQHandler)
    [Anonymous Symbol]                       0x08001c32   Section        0  stm32l4xx_hal_uart.o(.text.HAL_UART_Init)
    [Anonymous Symbol]                       0x08001c90   Section        0  stm32l4xx_hal_msp.o(.text.HAL_UART_MspInit)
    [Anonymous Symbol]                       0x08001d7e   Section        0  stm32l4xx_hal_uart.o(.text.HAL_UART_TxCpltCallback)
    [Anonymous Symbol]                       0x08001d80   Section        0  stm32l4xx_it.o(.text.HardFault_Handler)
    [Anonymous Symbol]                       0x08001d82   Section        0  stm32l4xx_it.o(.text.LPUART1_IRQHandler)
    [Anonymous Symbol]                       0x08001d90   Section        0  stm32l4xx_it.o(.text.MemManage_Handler)
    [Anonymous Symbol]                       0x08001d94   Section        0  stm32l4xx_it.o(.text.NMI_Handler)
    [Anonymous Symbol]                       0x08001d96   Section        0  stm32l4xx_it.o(.text.PendSV_Handler)
    RCCEx_PLLSAI1_Config                     0x08001d99   Thumb Code   314  stm32l4xx_hal_rcc_ex.o(.text.RCCEx_PLLSAI1_Config)
    [Anonymous Symbol]                       0x08001d98   Section        0  stm32l4xx_hal_rcc_ex.o(.text.RCCEx_PLLSAI1_Config)
    RCC_SetFlashLatencyFromMSIRange          0x08001ed3   Thumb Code   138  stm32l4xx_hal_rcc.o(.text.RCC_SetFlashLatencyFromMSIRange)
    [Anonymous Symbol]                       0x08001ed2   Section        0  stm32l4xx_hal_rcc.o(.text.RCC_SetFlashLatencyFromMSIRange)
    [Anonymous Symbol]                       0x08001f5c   Section        0  stm32l4xx_it.o(.text.SVC_Handler)
    [Anonymous Symbol]                       0x08001f5e   Section        0  stm32l4xx_it.o(.text.SysTick_Handler)
    [Anonymous Symbol]                       0x08001f6c   Section        0  main.o(.text.SystemClock_Config)
    [Anonymous Symbol]                       0x08001fea   Section        0  system_stm32l4xx.o(.text.SystemInit)
    [Anonymous Symbol]                       0x08001ffc   Section        0  stm32l4xx_hal_uart.o(.text.UART_AdvFeatureConfig)
    [Anonymous Symbol]                       0x080020c8   Section        0  stm32l4xx_hal_uart.o(.text.UART_CheckIdleState)
    UART_DMAAbortOnError                     0x08002131   Thumb Code    16  stm32l4xx_hal_uart.o(.text.UART_DMAAbortOnError)
    [Anonymous Symbol]                       0x08002130   Section        0  stm32l4xx_hal_uart.o(.text.UART_DMAAbortOnError)
    UART_EndRxTransfer                       0x08002141   Thumb Code    80  stm32l4xx_hal_uart.o(.text.UART_EndRxTransfer)
    [Anonymous Symbol]                       0x08002140   Section        0  stm32l4xx_hal_uart.o(.text.UART_EndRxTransfer)
    [Anonymous Symbol]                       0x08002190   Section        0  stm32l4xx_hal_uart.o(.text.UART_SetConfig)
    [Anonymous Symbol]                       0x08002390   Section        0  stm32l4xx_hal_uart.o(.text.UART_WaitOnFlagUntilTimeout)
    [Anonymous Symbol]                       0x0800246c   Section        0  ugui.o(.text.UG_DrawLine)
    [Anonymous Symbol]                       0x0800258c   Section        0  ugui.o(.text.UG_DriverRegister)
    [Anonymous Symbol]                       0x080025ac   Section        0  ugui.o(.text.UG_FillFrame)
    [Anonymous Symbol]                       0x08002632   Section        0  ugui.o(.text.UG_FontSelect)
    [Anonymous Symbol]                       0x08002650   Section        0  ugui.o(.text.UG_GetUnicode)
    [Anonymous Symbol]                       0x080027f8   Section        0  ugui.o(.text.UG_Init)
    [Anonymous Symbol]                       0x08002870   Section        0  ugui.o(.text.UG_SelectGUI)
    [Anonymous Symbol]                       0x08002880   Section        0  ugui.o(.text.UG_SetBackcolor)
    [Anonymous Symbol]                       0x08002890   Section        0  ugui.o(.text.UG_SetForecolor)
    [Anonymous Symbol]                       0x080028a0   Section        0  ugui.o(.text.UG_TouchUpdate)
    [Anonymous Symbol]                       0x080028b2   Section        0  ugui.o(.text.UG_Update)
    [Anonymous Symbol]                       0x08002954   Section        0  stm32l4xx_it.o(.text.USART1_IRQHandler)
    [Anonymous Symbol]                       0x08002960   Section        0  stm32l4xx_it.o(.text.UsageFault_Handler)
    _LCD_FillRect                            0x08002965   Thumb Code   204  b_mod_gui.o(.text._LCD_FillRect)
    [Anonymous Symbol]                       0x08002964   Section        0  b_mod_gui.o(.text._LCD_FillRect)
    _LCD_SetColorPixel                       0x08002a31   Thumb Code    98  b_mod_gui.o(.text._LCD_SetColorPixel)
    [Anonymous Symbol]                       0x08002a30   Section        0  b_mod_gui.o(.text._LCD_SetColorPixel)
    [Anonymous Symbol]                       0x08002a92   Section        0  ugui.o(.text._UG_DrawObjectFrame)
    [Anonymous Symbol]                       0x08002bd0   Section        0  ugui.o(.text._UG_HandleEvents)
    [Anonymous Symbol]                       0x08002c30   Section        0  ugui.o(.text._UG_ProcessTouchData)
    [Anonymous Symbol]                       0x08002cf4   Section        0  ugui.o(.text._UG_PutChar)
    [Anonymous Symbol]                       0x08003094   Section        0  ugui.o(.text._UG_PutText)
    [Anonymous Symbol]                       0x08003270   Section        0  ugui.o(.text._UG_UpdateObjects)
    [Anonymous Symbol]                       0x080032cc   Section        0  ugui.o(.text._UG_WindowDrawTitle)
    [Anonymous Symbol]                       0x080033b4   Section        0  ugui.o(.text._UG_WindowUpdate)
    _bCoreMonitor                            0x08003487   Thumb Code     2  b_core.o(.text._bCoreMonitor)
    [Anonymous Symbol]                       0x08003486   Section        0  b_core.o(.text._bCoreMonitor)
    _bDriverNullInit                         0x08003489   Thumb Code     4  b_device.o(.text._bDriverNullInit)
    [Anonymous Symbol]                       0x08003488   Section        0  b_device.o(.text._bDriverNullInit)
    _bGUI_Core                               0x0800348d   Thumb Code    74  b_mod_gui.o(.text._bGUI_Core)
    [Anonymous Symbol]                       0x0800348c   Section        0  b_mod_gui.o(.text._bGUI_Core)
    _bGUI_TouchRead                          0x080034d7   Thumb Code   180  b_mod_gui.o(.text._bGUI_TouchRead)
    [Anonymous Symbol]                       0x080034d6   Section        0  b_mod_gui.o(.text._bGUI_TouchRead)
    _bHalUartDetectIdle                      0x0800358d   Thumb Code   144  b_hal_uart.o(.text._bHalUartDetectIdle)
    [Anonymous Symbol]                       0x0800358c   Section        0  b_hal_uart.o(.text._bHalUartDetectIdle)
    _bLcdWriteCmd                            0x0800361d   Thumb Code   152  b_drv_st7789.o(.text._bLcdWriteCmd)
    [Anonymous Symbol]                       0x0800361c   Section        0  b_drv_st7789.o(.text._bLcdWriteCmd)
    _bLcdWriteData                           0x080036b5   Thumb Code   152  b_drv_st7789.o(.text._bLcdWriteData)
    [Anonymous Symbol]                       0x080036b4   Section        0  b_drv_st7789.o(.text._bLcdWriteData)
    _bLcdWriteGRam                           0x0800374d   Thumb Code    80  b_drv_st7789.o(.text._bLcdWriteGRam)
    [Anonymous Symbol]                       0x0800374c   Section        0  b_drv_st7789.o(.text._bLcdWriteGRam)
    _bMempAlloc                              0x0800379d   Thumb Code   156  b_util_memp.o(.text._bMempAlloc)
    [Anonymous Symbol]                       0x0800379c   Section        0  b_util_memp.o(.text._bMempAlloc)
    _bST7789Ctl                              0x08003889   Thumb Code   422  b_drv_st7789.o(.text._bST7789Ctl)
    [Anonymous Symbol]                       0x08003888   Section        0  b_drv_st7789.o(.text._bST7789Ctl)
    _bST7789Write                            0x08003a2f   Thumb Code   122  b_drv_st7789.o(.text._bST7789Write)
    [Anonymous Symbol]                       0x08003a2e   Section        0  b_drv_st7789.o(.text._bST7789Write)
    _bTaskCore                               0x08003aa9   Thumb Code    66  b_task.o(.text._bTaskCore)
    [Anonymous Symbol]                       0x08003aa8   Section        0  b_task.o(.text._bTaskCore)
    _bTimerCore                              0x08003aed   Thumb Code    84  b_timer.o(.text._bTimerCore)
    [Anonymous Symbol]                       0x08003aec   Section        0  b_timer.o(.text._bTimerCore)
    _calculate_draw_buf_size                 0x08003b41   Thumb Code    86  lv_draw_buf.o(.text._calculate_draw_buf_size)
    [Anonymous Symbol]                       0x08003b40   Section        0  lv_draw_buf.o(.text._calculate_draw_buf_size)
    [Anonymous Symbol]                       0x08003b96   Section        0  lv_anim.o(.text._lv_anim_core_init)
    [Anonymous Symbol]                       0x08003bca   Section        0  lv_area.o(.text._lv_area_diff)
    [Anonymous Symbol]                       0x08003cc6   Section        0  lv_area.o(.text._lv_area_intersect)
    [Anonymous Symbol]                       0x08003d0a   Section        0  lv_area.o(.text._lv_area_is_in)
    [Anonymous Symbol]                       0x08003d86   Section        0  lv_area.o(.text._lv_area_is_on)
    [Anonymous Symbol]                       0x08003dae   Section        0  lv_area.o(.text._lv_area_is_out)
    [Anonymous Symbol]                       0x08003e2e   Section        0  lv_area.o(.text._lv_area_is_point_on)
    [Anonymous Symbol]                       0x08003f36   Section        0  lv_area.o(.text._lv_area_join)
    _lv_disp_flush                           0x08003f65   Thumb Code    50  b_mod_gui.o(.text._lv_disp_flush)
    [Anonymous Symbol]                       0x08003f64   Section        0  b_mod_gui.o(.text._lv_disp_flush)
    [Anonymous Symbol]                       0x08003f98   Section        0  lv_refr.o(.text._lv_display_refr_timer)
    [Anonymous Symbol]                       0x0800466a   Section        0  lv_draw_buf.o(.text._lv_draw_buf_init_handlers)
    [Anonymous Symbol]                       0x080046b0   Section        0  lv_draw_image.o(.text._lv_draw_image_normal_helper)
    [Anonymous Symbol]                       0x080047a4   Section        0  lv_draw_image.o(.text._lv_draw_image_tiled_helper)
    [Anonymous Symbol]                       0x080048e4   Section        0  lv_draw_sw_mask.o(.text._lv_draw_sw_mask_cleanup)
    [Anonymous Symbol]                       0x08004910   Section        0  lv_event.o(.text._lv_event_mark_deleted)
    [Anonymous Symbol]                       0x08004938   Section        0  lv_event.o(.text._lv_event_pop)
    [Anonymous Symbol]                       0x08004946   Section        0  lv_event.o(.text._lv_event_push)
    [Anonymous Symbol]                       0x08004956   Section        0  lv_fs.o(.text._lv_fs_init)
    [Anonymous Symbol]                       0x08004968   Section        0  lv_group.o(.text._lv_group_init)
    [Anonymous Symbol]                       0x08004978   Section        0  lv_draw_image.o(.text._lv_image_buf_get_transformed_area)
    [Anonymous Symbol]                       0x08004a7a   Section        0  lv_image_decoder.o(.text._lv_image_decoder_init)
    _lv_indev_read_cb                        0x08004a8b   Thumb Code    44  b_mod_gui.o(.text._lv_indev_read_cb)
    [Anonymous Symbol]                       0x08004a8a   Section        0  b_mod_gui.o(.text._lv_indev_read_cb)
    [Anonymous Symbol]                       0x08004ab8   Section        0  lv_indev_scroll.o(.text._lv_indev_scroll_handler)
    [Anonymous Symbol]                       0x08004dd8   Section        0  lv_indev_scroll.o(.text._lv_indev_scroll_throw_handler)
    [Anonymous Symbol]                       0x08005068   Section        0  lv_refr.o(.text._lv_inv_area)
    [Anonymous Symbol]                       0x080051ec   Section        0  lv_layout.o(.text._lv_layout_apply)
    [Anonymous Symbol]                       0x08005226   Section        0  lv_layout.o(.text._lv_layout_init)
    [Anonymous Symbol]                       0x08005248   Section        0  lv_ll.o(.text._lv_ll_clear_custom)
    [Anonymous Symbol]                       0x08005284   Section        0  lv_ll.o(.text._lv_ll_get_head)
    [Anonymous Symbol]                       0x08005290   Section        0  lv_ll.o(.text._lv_ll_get_len)
    [Anonymous Symbol]                       0x080052aa   Section        0  lv_ll.o(.text._lv_ll_get_next)
    [Anonymous Symbol]                       0x080052b2   Section        0  lv_ll.o(.text._lv_ll_get_prev)
    [Anonymous Symbol]                       0x080052b8   Section        0  lv_ll.o(.text._lv_ll_get_tail)
    [Anonymous Symbol]                       0x080052c2   Section        0  lv_ll.o(.text._lv_ll_init)
    [Anonymous Symbol]                       0x080052d2   Section        0  lv_ll.o(.text._lv_ll_ins_head)
    [Anonymous Symbol]                       0x080052fe   Section        0  lv_ll.o(.text._lv_ll_ins_prev)
    [Anonymous Symbol]                       0x0800533e   Section        0  lv_ll.o(.text._lv_ll_ins_tail)
    [Anonymous Symbol]                       0x0800536a   Section        0  lv_ll.o(.text._lv_ll_is_empty)
    [Anonymous Symbol]                       0x0800537c   Section        0  lv_ll.o(.text._lv_ll_remove)
    [Anonymous Symbol]                       0x080053d0   Section        0  lv_log.o(.text._lv_log_add)
    _lv_log_add.lvl_prefix                   0x08005488   Number         0  lv_log.o(.text._lv_log_add)
    [Anonymous Symbol]                       0x080054c6   Section        0  b_mod_gui.o(.text._lv_log_print_g_cb)
    [Anonymous Symbol]                       0x080054c8   Section        0  lv_obj_class.o(.text._lv_obj_destruct)
    [Anonymous Symbol]                       0x080054e4   Section        0  lv_obj_draw.o(.text._lv_obj_get_ext_draw_size)
    [Anonymous Symbol]                       0x080054f0   Section        0  lv_obj_draw.o(.text._lv_obj_get_layer_type)
    [Anonymous Symbol]                       0x08005500   Section        0  lv_obj_scroll.o(.text._lv_obj_scroll_by_raw)
    [Anonymous Symbol]                       0x08005544   Section        0  lv_obj_style.o(.text._lv_obj_style_apply_color_filter)
    [Anonymous Symbol]                       0x08005588   Section        0  lv_obj_style.o(.text._lv_obj_style_create_transition)
    [Anonymous Symbol]                       0x08005722   Section        0  lv_obj_style.o(.text._lv_obj_style_init)
    [Anonymous Symbol]                       0x08005734   Section        0  lv_obj_style.o(.text._lv_obj_style_state_compare)
    [Anonymous Symbol]                       0x0800596a   Section        0  lv_obj_style.o(.text._lv_obj_update_layer_type)
    [Anonymous Symbol]                       0x08005a02   Section        0  lv_refr.o(.text._lv_refr_get_disp_refreshing)
    [Anonymous Symbol]                       0x08005a0e   Section        0  lv_refr.o(.text._lv_refr_init)
    [Anonymous Symbol]                       0x08005a10   Section        0  lv_style.o(.text._lv_style_prop_lookup_flags)
    [Anonymous Symbol]                       0x08005a48   Section        0  lv_text.o(.text._lv_text_cut)
    [Anonymous Symbol]                       0x08005a90   Section        0  lv_text.o(.text._lv_text_encoded_letter_next_2)
    [Anonymous Symbol]                       0x08005ac8   Section        0  lv_text.o(.text._lv_text_get_next_line)
    [Anonymous Symbol]                       0x08005dd0   Section        0  lv_text.o(.text._lv_text_ins)
    [Anonymous Symbol]                       0x08005e30   Section        0  lv_text.o(.text._lv_text_set_text_vfmt)
    [Anonymous Symbol]                       0x08005ee0   Section        0  lv_timer.o(.text._lv_timer_core_init)
    [Anonymous Symbol]                       0x08005f14   Section        0  lv_utils.o(.text._lv_utils_bsearch)
    _lv_vsnprintf                            0x08005f5d   Thumb Code  1400  lv_sprintf_builtin.o(.text._lv_vsnprintf)
    [Anonymous Symbol]                       0x08005f5c   Section        0  lv_sprintf_builtin.o(.text._lv_vsnprintf)
    _ntoa_format                             0x080064dd   Thumb Code   436  lv_sprintf_builtin.o(.text._ntoa_format)
    [Anonymous Symbol]                       0x080064dc   Section        0  lv_sprintf_builtin.o(.text._ntoa_format)
    _ntoa_long                               0x08006699   Thumb Code   148  lv_sprintf_builtin.o(.text._ntoa_long)
    [Anonymous Symbol]                       0x08006698   Section        0  lv_sprintf_builtin.o(.text._ntoa_long)
    _ntoa_long_long                          0x08006735   Thumb Code   164  lv_sprintf_builtin.o(.text._ntoa_long_long)
    [Anonymous Symbol]                       0x08006734   Section        0  lv_sprintf_builtin.o(.text._ntoa_long_long)
    _out_buffer                              0x080067df   Thumb Code     8  lv_sprintf_builtin.o(.text._out_buffer)
    [Anonymous Symbol]                       0x080067de   Section        0  lv_sprintf_builtin.o(.text._out_buffer)
    _out_null                                0x080067e7   Thumb Code     2  lv_sprintf_builtin.o(.text._out_null)
    [Anonymous Symbol]                       0x080067e6   Section        0  lv_sprintf_builtin.o(.text._out_null)
    add_circle                               0x080067e9   Thumb Code    86  lv_draw_sw_arc.o(.text.add_circle)
    [Anonymous Symbol]                       0x080067e8   Section        0  lv_draw_sw_arc.o(.text.add_circle)
    anim_mark_list_change                    0x0800683f   Thumb Code    48  lv_anim.o(.text.anim_mark_list_change)
    [Anonymous Symbol]                       0x0800683e   Section        0  lv_anim.o(.text.anim_mark_list_change)
    anim_timer                               0x08006871   Thumb Code   398  lv_anim.o(.text.anim_timer)
    [Anonymous Symbol]                       0x08006870   Section        0  lv_anim.o(.text.anim_timer)
    apply_theme                              0x080069ff   Thumb Code    32  lv_theme.o(.text.apply_theme)
    [Anonymous Symbol]                       0x080069fe   Section        0  lv_theme.o(.text.apply_theme)
    apply_theme_recursion                    0x08006a1f   Thumb Code    44  lv_theme.o(.text.apply_theme_recursion)
    [Anonymous Symbol]                       0x08006a1e   Section        0  lv_theme.o(.text.apply_theme_recursion)
    arc_anim_end_angle                       0x08006a4b   Thumb Code     4  lv_spinner.o(.text.arc_anim_end_angle)
    [Anonymous Symbol]                       0x08006a4a   Section        0  lv_spinner.o(.text.arc_anim_end_angle)
    arc_anim_start_angle                     0x08006a4f   Thumb Code     4  lv_spinner.o(.text.arc_anim_start_angle)
    [Anonymous Symbol]                       0x08006a4e   Section        0  lv_spinner.o(.text.arc_anim_start_angle)
    auto_hide_characters                     0x08006a53   Thumb Code    90  lv_textarea.o(.text.auto_hide_characters)
    [Anonymous Symbol]                       0x08006a52   Section        0  lv_textarea.o(.text.auto_hide_characters)
    [Anonymous Symbol]                       0x08006aac   Section        0  b_util_memp.o(.text.bCalloc)
    [Anonymous Symbol]                       0x08006b0e   Section        0  b_core.o(.text.bClose)
    [Anonymous Symbol]                       0x08006b48   Section        0  b_core.o(.text.bCtl)
    [Anonymous Symbol]                       0x08006b68   Section        0  b_device.o(.text.bDeviceClose)
    [Anonymous Symbol]                       0x08006bdc   Section        0  b_device.o(.text.bDeviceCtl)
    [Anonymous Symbol]                       0x08006c54   Section        0  b_device.o(.text.bDeviceInit)
    [Anonymous Symbol]                       0x08006d28   Section        0  b_device.o(.text.bDeviceOpen)
    [Anonymous Symbol]                       0x08006d98   Section        0  b_device.o(.text.bDeviceRead)
    [Anonymous Symbol]                       0x08006e14   Section        0  b_device.o(.text.bDeviceWrite)
    [Anonymous Symbol]                       0x08006e98   Section        0  b_core.o(.text.bExec)
    [Anonymous Symbol]                       0x08006ebc   Section        0  b_util_memp.o(.text.bFree)
    [Anonymous Symbol]                       0x08006f4c   Section        0  b_mod_gui.o(.text.bGUIDrawBmp)
    [Anonymous Symbol]                       0x08007024   Section        0  b_mod_gui.o(.text.bGUIRegist)
    [Anonymous Symbol]                       0x08007160   Section        0  b_hal.o(.text.bHalDelayMs)
    [Anonymous Symbol]                       0x08007186   Section        0  b_hal.o(.text.bHalGetSysTick)
    [Anonymous Symbol]                       0x08007192   Section        0  b_hal_gpio.o(.text.bHalGpioConfig)
    [Anonymous Symbol]                       0x08007196   Section        0  b_hal_gpio.o(.text.bHalGpioReadPin)
    [Anonymous Symbol]                       0x0800719a   Section        0  b_hal_gpio.o(.text.bHalGpioReadPort)
    [Anonymous Symbol]                       0x0800719e   Section        0  b_hal_gpio.o(.text.bHalGpioWritePin)
    [Anonymous Symbol]                       0x080071a2   Section        0  b_hal_gpio.o(.text.bHalGpioWritePort)
    [Anonymous Symbol]                       0x080071a6   Section        0  b_hal.o(.text.bHalIncSysTick)
    [Anonymous Symbol]                       0x080071d0   Section        0  b_hal.o(.text.bHalInit)
    [Anonymous Symbol]                       0x08007258   Section        0  b_hal_spi.o(.text.bHalSpiSend)
    [Anonymous Symbol]                       0x08007294   Section        0  b_hal_spi.o(.text.bHalSpiTransfer)
    [Anonymous Symbol]                       0x08007394   Section        0  b_hal_uart.o(.text.bHalUartSend)
    [Anonymous Symbol]                       0x08007398   Section        0  b_hal.o(.text.bHalUserInit)
    [Anonymous Symbol]                       0x0800739a   Section        0  b_core.o(.text.bInit)
    [Anonymous Symbol]                       0x080073a8   Section        0  b_util_log.o(.text.bLogOut)
    bLogParamTable                           0x080074a4   Number         0  b_util_log.o(.text.bLogOut)
    bLogPrefix                               0x080074a8   Number         0  b_util_log.o(.text.bLogOut)
    [Anonymous Symbol]                       0x080074b0   Section        0  b_core.o(.text.bLseek)
    [Anonymous Symbol]                       0x080074d4   Section        0  b_util_memp.o(.text.bMalloc)
    [Anonymous Symbol]                       0x08007524   Section        0  b_util_memp.o(.text.bMallocFailedHook)
    [Anonymous Symbol]                       0x08007526   Section        0  mcu_stm32l41x_gpio.o(.text.bMcuGpioConfig)
    [Anonymous Symbol]                       0x080075d8   Section        0  mcu_stm32l41x_gpio.o(.text.bMcuGpioReadPin)
    [Anonymous Symbol]                       0x080075fe   Section        0  mcu_stm32l41x_gpio.o(.text.bMcuGpioReadPort)
    [Anonymous Symbol]                       0x08007614   Section        0  mcu_stm32l41x_gpio.o(.text.bMcuGpioWritePin)
    [Anonymous Symbol]                       0x08007640   Section        0  mcu_stm32l41x_gpio.o(.text.bMcuGpioWritePort)
    [Anonymous Symbol]                       0x08007654   Section        0  mcu_stm32l41x_spi.o(.text.bMcuSpiSend)
    [Anonymous Symbol]                       0x080076ac   Section        0  mcu_stm32l41x_spi.o(.text.bMcuSpiTransfer)
    [Anonymous Symbol]                       0x080076f0   Section        0  mcu_stm32l41x_uart.o(.text.bMcuUartSend)
    [Anonymous Symbol]                       0x08007784   Section        0  b_core.o(.text.bOpen)
    [Anonymous Symbol]                       0x08007822   Section        0  b_core.o(.text.bRead)
    [Anonymous Symbol]                       0x08007874   Section        0  b_util_memp.o(.text.bRealloc)
    [Anonymous Symbol]                       0x08007958   Section        0  b_drv_st7789.o(.text.bST7789_Init)
    [Anonymous Symbol]                       0x08007c20   Section        0  b_core.o(.text.bWrite)
    blend_non_normal_pixel                   0x08007c71   Thumb Code   208  lv_draw_sw_blend_to_argb8888.o(.text.blend_non_normal_pixel)
    [Anonymous Symbol]                       0x08007c70   Section        0  lv_draw_sw_blend_to_argb8888.o(.text.blend_non_normal_pixel)
    blend_non_normal_pixel                   0x08007d79   Thumb Code   232  lv_draw_sw_blend_to_rgb888.o(.text.blend_non_normal_pixel)
    [Anonymous Symbol]                       0x08007d78   Section        0  lv_draw_sw_blend_to_rgb888.o(.text.blend_non_normal_pixel)
    btn_release_handler                      0x08007e99   Thumb Code   120  lv_dropdown.o(.text.btn_release_handler)
    [Anonymous Symbol]                       0x08007e98   Section        0  lv_dropdown.o(.text.btn_release_handler)
    buf_align                                0x08007f11   Thumb Code    12  lv_draw_buf.o(.text.buf_align)
    [Anonymous Symbol]                       0x08007f10   Section        0  lv_draw_buf.o(.text.buf_align)
    buf_free                                 0x08007f1d   Thumb Code     4  lv_draw_buf.o(.text.buf_free)
    [Anonymous Symbol]                       0x08007f1c   Section        0  lv_draw_buf.o(.text.buf_free)
    buf_malloc                               0x08007f21   Thumb Code     6  lv_draw_buf.o(.text.buf_malloc)
    [Anonymous Symbol]                       0x08007f20   Section        0  lv_draw_buf.o(.text.buf_malloc)
    calculate_x_coordinate                   0x08007f27   Thumb Code    90  lv_label.o(.text.calculate_x_coordinate)
    [Anonymous Symbol]                       0x08007f26   Section        0  lv_label.o(.text.calculate_x_coordinate)
    children_repos                           0x08007f81   Thumb Code  1160  lv_flex.o(.text.children_repos)
    [Anonymous Symbol]                       0x08007f80   Section        0  lv_flex.o(.text.children_repos)
    cont_scroll_end_event_cb                 0x0800844f   Thumb Code   188  lv_tabview.o(.text.cont_scroll_end_event_cb)
    [Anonymous Symbol]                       0x0800844e   Section        0  lv_tabview.o(.text.cont_scroll_end_event_cb)
    cursor_blink_anim_cb                     0x0800850b   Thumb Code    82  lv_textarea.o(.text.cursor_blink_anim_cb)
    [Anonymous Symbol]                       0x0800850a   Section        0  lv_textarea.o(.text.cursor_blink_anim_cb)
    dark_color_filter_cb                     0x0800855d   Thumb Code    18  lv_theme_default.o(.text.dark_color_filter_cb)
    [Anonymous Symbol]                       0x0800855c   Section        0  lv_theme_default.o(.text.dark_color_filter_cb)
    decode_alpha_only                        0x08008571   Thumb Code   356  lv_bin_decoder.o(.text.decode_alpha_only)
    [Anonymous Symbol]                       0x08008570   Section        0  lv_bin_decoder.o(.text.decode_alpha_only)
    decode_indexed                           0x080086f5   Thumb Code   268  lv_bin_decoder.o(.text.decode_indexed)
    [Anonymous Symbol]                       0x080086f4   Section        0  lv_bin_decoder.o(.text.decode_indexed)
    disp_event_cb                            0x08008829   Thumb Code    38  lv_display.o(.text.disp_event_cb)
    [Anonymous Symbol]                       0x08008828   Section        0  lv_display.o(.text.disp_event_cb)
    dispatch                                 0x08008851   Thumb Code   224  lv_draw_sw.o(.text.dispatch)
    [Anonymous Symbol]                       0x08008850   Section        0  lv_draw_sw.o(.text.dispatch)
    draw_box                                 0x08008931   Thumb Code   168  lv_dropdown.o(.text.draw_box)
    [Anonymous Symbol]                       0x08008930   Section        0  lv_dropdown.o(.text.draw_box)
    draw_box_label                           0x080089d9   Thumb Code   206  lv_dropdown.o(.text.draw_box_label)
    [Anonymous Symbol]                       0x080089d8   Section        0  lv_dropdown.o(.text.draw_box_label)
    draw_letter_cb                           0x08008aa7   Thumb Code   198  lv_draw_sw_letter.o(.text.draw_letter_cb)
    [Anonymous Symbol]                       0x08008aa6   Section        0  lv_draw_sw_letter.o(.text.draw_letter_cb)
    draw_main                                0x08008b6d   Thumb Code   782  lv_buttonmatrix.o(.text.draw_main)
    [Anonymous Symbol]                       0x08008b6c   Section        0  lv_buttonmatrix.o(.text.draw_main)
    draw_main                                0x08008e81   Thumb Code   582  lv_dropdown.o(.text.draw_main)
    [Anonymous Symbol]                       0x08008e80   Section        0  lv_dropdown.o(.text.draw_main)
    draw_main                                0x080090cd   Thumb Code  1152  lv_table.o(.text.draw_main)
    [Anonymous Symbol]                       0x080090cc   Section        0  lv_table.o(.text.draw_main)
    draw_series_bar                          0x08009555   Thumb Code   548  lv_chart.o(.text.draw_series_bar)
    [Anonymous Symbol]                       0x08009554   Section        0  lv_chart.o(.text.draw_series_bar)
    draw_series_line                         0x08009781   Thumb Code  1044  lv_chart.o(.text.draw_series_line)
    [Anonymous Symbol]                       0x08009780   Section        0  lv_chart.o(.text.draw_series_line)
    draw_series_scatter                      0x08009b9d   Thumb Code   854  lv_chart.o(.text.draw_series_scatter)
    [Anonymous Symbol]                       0x08009b9c   Section        0  lv_chart.o(.text.draw_series_scatter)
    draw_task_added_event_cb                 0x08009ef9   Thumb Code   210  lv_calendar.o(.text.draw_task_added_event_cb)
    [Anonymous Symbol]                       0x08009ef8   Section        0  lv_calendar.o(.text.draw_task_added_event_cb)
    elastic_diff                             0x08009fcb   Thumb Code   310  lv_indev_scroll.o(.text.elastic_diff)
    [Anonymous Symbol]                       0x08009fca   Section        0  lv_indev_scroll.o(.text.elastic_diff)
    evaluate                                 0x0800a107   Thumb Code   104  lv_draw_sw.o(.text.evaluate)
    [Anonymous Symbol]                       0x0800a106   Section        0  lv_draw_sw.o(.text.evaluate)
    find_snap_point_x                        0x0800a171   Thumb Code   288  lv_indev_scroll.o(.text.find_snap_point_x)
    [Anonymous Symbol]                       0x0800a170   Section        0  lv_indev_scroll.o(.text.find_snap_point_x)
    find_snap_point_y                        0x0800a299   Thumb Code   288  lv_indev_scroll.o(.text.find_snap_point_y)
    [Anonymous Symbol]                       0x0800a298   Section        0  lv_indev_scroll.o(.text.find_snap_point_y)
    find_track_end                           0x0800a3c1   Thumb Code   596  lv_flex.o(.text.find_track_end)
    [Anonymous Symbol]                       0x0800a3c0   Section        0  lv_flex.o(.text.find_track_end)
    flex_update                              0x0800a665   Thumb Code   884  lv_flex.o(.text.flex_update)
    [Anonymous Symbol]                       0x0800a664   Section        0  lv_flex.o(.text.flex_update)
    focus_next_core                          0x0800a9e5   Thumb Code   250  lv_group.o(.text.focus_next_core)
    [Anonymous Symbol]                       0x0800a9e4   Section        0  lv_group.o(.text.focus_next_core)
    free_decoder_data                        0x0800aae5   Thumb Code    56  lv_bin_decoder.o(.text.free_decoder_data)
    [Anonymous Symbol]                       0x0800aae4   Section        0  lv_bin_decoder.o(.text.free_decoder_data)
    fs_read_file_at                          0x0800ab1d   Thumb Code    50  lv_bin_decoder.o(.text.fs_read_file_at)
    [Anonymous Symbol]                       0x0800ab1c   Section        0  lv_bin_decoder.o(.text.fs_read_file_at)
    get_angle                                0x0800ab4f   Thumb Code    94  lv_arc.o(.text.get_angle)
    [Anonymous Symbol]                       0x0800ab4e   Section        0  lv_arc.o(.text.get_angle)
    get_button_from_point                    0x0800abad   Thumb Code   354  lv_buttonmatrix.o(.text.get_button_from_point)
    [Anonymous Symbol]                       0x0800abac   Section        0  lv_buttonmatrix.o(.text.get_button_from_point)
    get_cell_area                            0x0800ad15   Thumb Code   214  lv_table.o(.text.get_cell_area)
    [Anonymous Symbol]                       0x0800ad14   Section        0  lv_table.o(.text.get_cell_area)
    get_center                               0x0800adeb   Thumb Code   142  lv_arc.o(.text.get_center)
    [Anonymous Symbol]                       0x0800adea   Section        0  lv_arc.o(.text.get_center)
    get_decoder_data                         0x0800ae81   Thumb Code    72  lv_bin_decoder.o(.text.get_decoder_data)
    [Anonymous Symbol]                       0x0800ae80   Section        0  lv_bin_decoder.o(.text.get_decoder_data)
    get_glyph_dsc_id                         0x0800aeed   Thumb Code   182  lv_font_fmt_txt.o(.text.get_glyph_dsc_id)
    [Anonymous Symbol]                       0x0800aeec   Section        0  lv_font_fmt_txt.o(.text.get_glyph_dsc_id)
    get_id_on_point                          0x0800afa3   Thumb Code    82  lv_dropdown.o(.text.get_id_on_point)
    [Anonymous Symbol]                       0x0800afa2   Section        0  lv_dropdown.o(.text.get_id_on_point)
    get_indev                                0x0800aff5   Thumb Code    62  lv_group.o(.text.get_indev)
    [Anonymous Symbol]                       0x0800aff4   Section        0  lv_group.o(.text.get_indev)
    get_knob_area                            0x0800b033   Thumb Code   176  lv_arc.o(.text.get_knob_area)
    [Anonymous Symbol]                       0x0800b032   Section        0  lv_arc.o(.text.get_knob_area)
    get_label_flags                          0x0800b0e9   Thumb Code    64  lv_label.o(.text.get_label_flags)
    [Anonymous Symbol]                       0x0800b0e8   Section        0  lv_label.o(.text.get_label_flags)
    get_month_length                         0x0800b129   Thumb Code   136  lv_calendar.o(.text.get_month_length)
    [Anonymous Symbol]                       0x0800b128   Section        0  lv_calendar.o(.text.get_month_length)
    get_prop_core                            0x0800b1b1   Thumb Code   342  lv_obj_style.o(.text.get_prop_core)
    [Anonymous Symbol]                       0x0800b1b0   Section        0  lv_obj_style.o(.text.get_prop_core)
    get_rounded_area                         0x0800b30d   Thumb Code   162  lv_draw_sw_arc.o(.text.get_rounded_area)
    [Anonymous Symbol]                       0x0800b30c   Section        0  lv_draw_sw_arc.o(.text.get_rounded_area)
    get_row_height                           0x0800b3b5   Thumb Code   292  lv_table.o(.text.get_row_height)
    [Anonymous Symbol]                       0x0800b3b4   Section        0  lv_table.o(.text.get_row_height)
    get_sel_area                             0x0800b4df   Thumb Code   104  lv_roller.o(.text.get_sel_area)
    [Anonymous Symbol]                       0x0800b4de   Section        0  lv_roller.o(.text.get_sel_area)
    get_selected_label_width                 0x0800b547   Thumb Code    82  lv_roller.o(.text.get_selected_label_width)
    [Anonymous Symbol]                       0x0800b546   Section        0  lv_roller.o(.text.get_selected_label_width)
    get_selector_style_prop                  0x0800b599   Thumb Code   140  lv_obj_style.o(.text.get_selector_style_prop)
    [Anonymous Symbol]                       0x0800b598   Section        0  lv_obj_style.o(.text.get_selector_style_prop)
    get_trans_style                          0x0800b625   Thumb Code   224  lv_obj_style.o(.text.get_trans_style)
    [Anonymous Symbol]                       0x0800b624   Section        0  lv_obj_style.o(.text.get_trans_style)
    grey_filter_cb                           0x0800b715   Thumb Code   126  lv_theme_default.o(.text.grey_filter_cb)
    [Anonymous Symbol]                       0x0800b714   Section        0  lv_theme_default.o(.text.grey_filter_cb)
    grid_align                               0x0800b795   Thumb Code   212  lv_grid.o(.text.grid_align)
    [Anonymous Symbol]                       0x0800b794   Section        0  lv_grid.o(.text.grid_align)
    grid_update                              0x0800b869   Thumb Code  2612  lv_grid.o(.text.grid_update)
    [Anonymous Symbol]                       0x0800b868   Section        0  lv_grid.o(.text.grid_update)
    highlight_update                         0x0800c315   Thumb Code   226  lv_calendar.o(.text.highlight_update)
    [Anonymous Symbol]                       0x0800c314   Section        0  lv_calendar.o(.text.highlight_update)
    image_decoder_get_info                   0x0800c3f9   Thumb Code   130  lv_image_decoder.o(.text.image_decoder_get_info)
    [Anonymous Symbol]                       0x0800c3f8   Section        0  lv_image_decoder.o(.text.image_decoder_get_info)
    img_decode_and_draw                      0x0800c47d   Thumb Code   230  lv_draw_image.o(.text.img_decode_and_draw)
    [Anonymous Symbol]                       0x0800c47c   Section        0  lv_draw_image.o(.text.img_decode_and_draw)
    img_draw_core                            0x0800c569   Thumb Code  1332  lv_draw_sw_img.o(.text.img_draw_core)
    [Anonymous Symbol]                       0x0800c568   Section        0  lv_draw_sw_img.o(.text.img_draw_core)
    indev_proc_press                         0x0800caf3   Thumb Code   924  lv_indev.o(.text.indev_proc_press)
    [Anonymous Symbol]                       0x0800caf2   Section        0  lv_indev.o(.text.indev_proc_press)
    indev_proc_release                       0x0800ce91   Thumb Code   542  lv_indev.o(.text.indev_proc_release)
    [Anonymous Symbol]                       0x0800ce90   Section        0  lv_indev.o(.text.indev_proc_release)
    indev_proc_reset_query_handler           0x0800d0b5   Thumb Code    62  lv_indev.o(.text.indev_proc_reset_query_handler)
    [Anonymous Symbol]                       0x0800d0b4   Section        0  lv_indev.o(.text.indev_proc_reset_query_handler)
    indev_reset_core                         0x0800d0f3   Thumb Code   154  lv_indev.o(.text.indev_reset_core)
    [Anonymous Symbol]                       0x0800d0f2   Section        0  lv_indev.o(.text.indev_reset_core)
    indev_scroll_throw_anim_cb               0x0800d18d   Thumb Code   104  lv_indev.o(.text.indev_scroll_throw_anim_cb)
    [Anonymous Symbol]                       0x0800d18c   Section        0  lv_indev.o(.text.indev_scroll_throw_anim_cb)
    indev_scroll_throw_anim_completed_cb     0x0800d21d   Thumb Code    18  lv_indev.o(.text.indev_scroll_throw_anim_completed_cb)
    [Anonymous Symbol]                       0x0800d21c   Section        0  lv_indev.o(.text.indev_scroll_throw_anim_completed_cb)
    inf_normalize                            0x0800d22f   Thumb Code   132  lv_roller.o(.text.inf_normalize)
    [Anonymous Symbol]                       0x0800d22e   Section        0  lv_roller.o(.text.inf_normalize)
    insert_handler                           0x0800d2b3   Thumb Code    60  lv_textarea.o(.text.insert_handler)
    [Anonymous Symbol]                       0x0800d2b2   Section        0  lv_textarea.o(.text.insert_handler)
    inv_arc_area                             0x0800d2ef   Thumb Code   142  lv_arc.o(.text.inv_arc_area)
    [Anonymous Symbol]                       0x0800d2ee   Section        0  lv_arc.o(.text.inv_arc_area)
    inv_knob_area                            0x0800d37d   Thumb Code    60  lv_arc.o(.text.inv_knob_area)
    [Anonymous Symbol]                       0x0800d37c   Section        0  lv_arc.o(.text.inv_knob_area)
    invalidate_button_area                   0x0800d3b9   Thumb Code   184  lv_buttonmatrix.o(.text.invalidate_button_area)
    [Anonymous Symbol]                       0x0800d3b8   Section        0  lv_buttonmatrix.o(.text.invalidate_button_area)
    invalidate_point                         0x0800d477   Thumb Code   322  lv_chart.o(.text.invalidate_point)
    [Anonymous Symbol]                       0x0800d476   Section        0  lv_chart.o(.text.invalidate_point)
    kern_pair_16_compare                     0x0800d5c9   Thumb Code    20  lv_font_fmt_txt.o(.text.kern_pair_16_compare)
    [Anonymous Symbol]                       0x0800d5c8   Section        0  lv_font_fmt_txt.o(.text.kern_pair_16_compare)
    kern_pair_8_compare                      0x0800d5dd   Thumb Code    20  lv_font_fmt_txt.o(.text.kern_pair_8_compare)
    [Anonymous Symbol]                       0x0800d5dc   Section        0  lv_font_fmt_txt.o(.text.kern_pair_8_compare)
    knob_get_extra_size                      0x0800d5f1   Thumb Code   144  lv_arc.o(.text.knob_get_extra_size)
    [Anonymous Symbol]                       0x0800d5f0   Section        0  lv_arc.o(.text.knob_get_extra_size)
    label_event_cb                           0x0800d681   Thumb Code    58  lv_textarea.o(.text.label_event_cb)
    [Anonymous Symbol]                       0x0800d680   Section        0  lv_textarea.o(.text.label_event_cb)
    layer_reshape_draw_buf                   0x0800d6bd   Thumb Code    88  lv_refr.o(.text.layer_reshape_draw_buf)
    [Anonymous Symbol]                       0x0800d6bc   Section        0  lv_refr.o(.text.layer_reshape_draw_buf)
    layout_update_core                       0x0800d749   Thumb Code    92  lv_obj_pos.o(.text.layout_update_core)
    [Anonymous Symbol]                       0x0800d748   Section        0  lv_obj_pos.o(.text.layout_update_core)
    [Anonymous Symbol]                       0x0800d7a4   Section        0  lv_anim.o(.text.lv_anim_delete)
    [Anonymous Symbol]                       0x0800d81c   Section        0  lv_anim.o(.text.lv_anim_get)
    [Anonymous Symbol]                       0x0800d858   Section        0  lv_anim.o(.text.lv_anim_init)
    lv_anim_path_cubic_bezier                0x0800d891   Thumb Code    70  lv_anim.o(.text.lv_anim_path_cubic_bezier)
    [Anonymous Symbol]                       0x0800d890   Section        0  lv_anim.o(.text.lv_anim_path_cubic_bezier)
    [Anonymous Symbol]                       0x0800d8d6   Section        0  lv_anim.o(.text.lv_anim_path_custom_bezier3)
    [Anonymous Symbol]                       0x0800d8f6   Section        0  lv_anim.o(.text.lv_anim_path_ease_out)
    [Anonymous Symbol]                       0x0800d912   Section        0  lv_anim.o(.text.lv_anim_path_linear)
    [Anonymous Symbol]                       0x0800d93c   Section        0  lv_anim.o(.text.lv_anim_path_step)
    [Anonymous Symbol]                       0x0800d94c   Section        0  lv_anim.o(.text.lv_anim_speed_clamped)
    [Anonymous Symbol]                       0x0800da84   Section        0  lv_anim.o(.text.lv_anim_start)
    lv_arc_angle_within_bg_bounds            0x0800db8d   Thumb Code   194  lv_arc.o(.text.lv_arc_angle_within_bg_bounds)
    [Anonymous Symbol]                       0x0800db8c   Section        0  lv_arc.o(.text.lv_arc_angle_within_bg_bounds)
    lv_arc_constructor                       0x0800dc4f   Thumb Code   116  lv_arc.o(.text.lv_arc_constructor)
    [Anonymous Symbol]                       0x0800dc4e   Section        0  lv_arc.o(.text.lv_arc_constructor)
    lv_arc_event                             0x0800dcc5   Thumb Code  1404  lv_arc.o(.text.lv_arc_event)
    [Anonymous Symbol]                       0x0800dcc4   Section        0  lv_arc.o(.text.lv_arc_event)
    [Anonymous Symbol]                       0x0800e240   Section        0  lv_arc.o(.text.lv_arc_set_bg_angles)
    [Anonymous Symbol]                       0x0800e258   Section        0  lv_arc.o(.text.lv_arc_set_bg_end_angle)
    [Anonymous Symbol]                       0x0800e2b2   Section        0  lv_arc.o(.text.lv_arc_set_bg_start_angle)
    [Anonymous Symbol]                       0x0800e30c   Section        0  lv_arc.o(.text.lv_arc_set_end_angle)
    [Anonymous Symbol]                       0x0800e36e   Section        0  lv_arc.o(.text.lv_arc_set_rotation)
    [Anonymous Symbol]                       0x0800e374   Section        0  lv_arc.o(.text.lv_arc_set_start_angle)
    [Anonymous Symbol]                       0x0800e3d6   Section        0  lv_arc.o(.text.lv_arc_set_value)
    [Anonymous Symbol]                       0x0800e3fc   Section        0  lv_area.o(.text.lv_area_align)
    lv_area_get_height                       0x0800e6ab   Thumb Code    10  lv_flex.o(.text.lv_area_get_height)
    [Anonymous Symbol]                       0x0800e6aa   Section        0  lv_flex.o(.text.lv_area_get_height)
    lv_area_get_height                       0x0800e6b5   Thumb Code    10  lv_bar.o(.text.lv_area_get_height)
    [Anonymous Symbol]                       0x0800e6b4   Section        0  lv_bar.o(.text.lv_area_get_height)
    [Anonymous Symbol]                       0x0800e6be   Section        0  lv_area.o(.text.lv_area_get_size)
    lv_area_get_width                        0x0800e6d1   Thumb Code    10  lv_flex.o(.text.lv_area_get_width)
    [Anonymous Symbol]                       0x0800e6d0   Section        0  lv_flex.o(.text.lv_area_get_width)
    lv_area_get_width                        0x0800e6db   Thumb Code    10  lv_bar.o(.text.lv_area_get_width)
    [Anonymous Symbol]                       0x0800e6da   Section        0  lv_bar.o(.text.lv_area_get_width)
    [Anonymous Symbol]                       0x0800e6e4   Section        0  lv_area.o(.text.lv_area_increase)
    [Anonymous Symbol]                       0x0800e704   Section        0  lv_area.o(.text.lv_area_move)
    [Anonymous Symbol]                       0x0800e722   Section        0  lv_area.o(.text.lv_area_set)
    [Anonymous Symbol]                       0x0800e72c   Section        0  lv_area.o(.text.lv_area_set_height)
    [Anonymous Symbol]                       0x0800e736   Section        0  lv_area.o(.text.lv_area_set_width)
    [Anonymous Symbol]                       0x0800e740   Section        0  lv_array.o(.text.lv_array_at)
    [Anonymous Symbol]                       0x0800e7a4   Section        0  lv_array.o(.text.lv_array_deinit)
    [Anonymous Symbol]                       0x0800e7bc   Section        0  lv_array.o(.text.lv_array_init)
    [Anonymous Symbol]                       0x0800e828   Section        0  lv_array.o(.text.lv_array_push_back)
    [Anonymous Symbol]                       0x0800e8a8   Section        0  lv_array.o(.text.lv_array_resize)
    [Anonymous Symbol]                       0x0800e91c   Section        0  lv_async.o(.text.lv_async_call_cancel)
    lv_async_timer_cb                        0x0800e97b   Thumb Code    28  lv_async.o(.text.lv_async_timer_cb)
    [Anonymous Symbol]                       0x0800e97a   Section        0  lv_async.o(.text.lv_async_timer_cb)
    [Anonymous Symbol]                       0x0800e996   Section        0  lv_math.o(.text.lv_atan2)
    lv_bar_anim                              0x0800ea53   Thumb Code    10  lv_bar.o(.text.lv_bar_anim)
    [Anonymous Symbol]                       0x0800ea52   Section        0  lv_bar.o(.text.lv_bar_anim)
    lv_bar_anim_completed                    0x0800ea5d   Thumb Code    46  lv_bar.o(.text.lv_bar_anim_completed)
    [Anonymous Symbol]                       0x0800ea5c   Section        0  lv_bar.o(.text.lv_bar_anim_completed)
    lv_bar_constructor                       0x0800ea8b   Thumb Code    90  lv_bar.o(.text.lv_bar_constructor)
    [Anonymous Symbol]                       0x0800ea8a   Section        0  lv_bar.o(.text.lv_bar_constructor)
    lv_bar_destructor                        0x0800eae5   Thumb Code    28  lv_bar.o(.text.lv_bar_destructor)
    [Anonymous Symbol]                       0x0800eae4   Section        0  lv_bar.o(.text.lv_bar_destructor)
    lv_bar_event                             0x0800eb01   Thumb Code  1380  lv_bar.o(.text.lv_bar_event)
    [Anonymous Symbol]                       0x0800eb00   Section        0  lv_bar.o(.text.lv_bar_event)
    [Anonymous Symbol]                       0x0800f074   Section        0  lv_bar.o(.text.lv_bar_get_mode)
    [Anonymous Symbol]                       0x0800f07e   Section        0  lv_bar.o(.text.lv_bar_get_start_value)
    [Anonymous Symbol]                       0x0800f0a2   Section        0  lv_bar.o(.text.lv_bar_get_value)
    [Anonymous Symbol]                       0x0800f0b2   Section        0  lv_bar.o(.text.lv_bar_is_symmetrical)
    [Anonymous Symbol]                       0x0800f0dc   Section        0  lv_bar.o(.text.lv_bar_set_start_value)
    [Anonymous Symbol]                       0x0800f122   Section        0  lv_bar.o(.text.lv_bar_set_value)
    lv_bar_set_value_with_anim               0x0800f161   Thumb Code   158  lv_bar.o(.text.lv_bar_set_value_with_anim)
    [Anonymous Symbol]                       0x0800f160   Section        0  lv_bar.o(.text.lv_bar_set_value_with_anim)
    [Anonymous Symbol]                       0x0800f1fe   Section        0  lv_bin_decoder.o(.text.lv_bin_decoder_close)
    [Anonymous Symbol]                       0x0800f22c   Section        0  lv_bin_decoder.o(.text.lv_bin_decoder_get_area)
    [Anonymous Symbol]                       0x0800f598   Section        0  lv_bin_decoder.o(.text.lv_bin_decoder_info)
    [Anonymous Symbol]                       0x0800f6f4   Section        0  lv_bin_decoder.o(.text.lv_bin_decoder_init)
    [Anonymous Symbol]                       0x0800f798   Section        0  lv_bin_decoder.o(.text.lv_bin_decoder_open)
    lv_button_constructor                    0x0800f92d   Thumb Code    26  lv_button.o(.text.lv_button_constructor)
    [Anonymous Symbol]                       0x0800f92c   Section        0  lv_button.o(.text.lv_button_constructor)
    [Anonymous Symbol]                       0x0800f946   Section        0  lv_button.o(.text.lv_button_create)
    [Anonymous Symbol]                       0x0800f960   Section        0  lv_buttonmatrix.o(.text.lv_buttonmatrix_clear_button_ctrl)
    [Anonymous Symbol]                       0x0800f990   Section        0  lv_buttonmatrix.o(.text.lv_buttonmatrix_clear_button_ctrl_all)
    lv_buttonmatrix_constructor              0x0800f9b1   Thumb Code    44  lv_buttonmatrix.o(.text.lv_buttonmatrix_constructor)
    [Anonymous Symbol]                       0x0800f9b0   Section        0  lv_buttonmatrix.o(.text.lv_buttonmatrix_constructor)
    [Anonymous Symbol]                       0x0800f9dc   Section        0  lv_buttonmatrix.o(.text.lv_buttonmatrix_create)
    lv_buttonmatrix_destructor               0x0800f9f7   Thumb Code    24  lv_buttonmatrix.o(.text.lv_buttonmatrix_destructor)
    [Anonymous Symbol]                       0x0800f9f6   Section        0  lv_buttonmatrix.o(.text.lv_buttonmatrix_destructor)
    lv_buttonmatrix_event                    0x0800fa11   Thumb Code  1242  lv_buttonmatrix.o(.text.lv_buttonmatrix_event)
    [Anonymous Symbol]                       0x0800fa10   Section        0  lv_buttonmatrix.o(.text.lv_buttonmatrix_event)
    [Anonymous Symbol]                       0x0800feec   Section        0  lv_buttonmatrix.o(.text.lv_buttonmatrix_get_button_text)
    [Anonymous Symbol]                       0x0800ff54   Section        0  lv_buttonmatrix.o(.text.lv_buttonmatrix_get_selected_button)
    [Anonymous Symbol]                       0x0800ff58   Section        0  lv_buttonmatrix.o(.text.lv_buttonmatrix_has_button_ctrl)
    [Anonymous Symbol]                       0x0800ff74   Section        0  lv_buttonmatrix.o(.text.lv_buttonmatrix_set_button_ctrl)
    [Anonymous Symbol]                       0x0800ffe0   Section        0  lv_buttonmatrix.o(.text.lv_buttonmatrix_set_button_ctrl_all)
    [Anonymous Symbol]                       0x08010000   Section        0  lv_buttonmatrix.o(.text.lv_buttonmatrix_set_ctrl_map)
    [Anonymous Symbol]                       0x0801001c   Section        0  lv_buttonmatrix.o(.text.lv_buttonmatrix_set_map)
    [Anonymous Symbol]                       0x08010398   Section        0  lv_buttonmatrix.o(.text.lv_buttonmatrix_set_selected_button)
    [Anonymous Symbol]                       0x080103c4   Section        0  lv_cache_entry.o(.text.lv_cache_entry_dec_ref)
    [Anonymous Symbol]                       0x0801044c   Section        0  lv_cache_entry.o(.text.lv_cache_entry_delete)
    [Anonymous Symbol]                       0x080104b0   Section        0  lv_cache_entry.o(.text.lv_cache_entry_get_data)
    [Anonymous Symbol]                       0x08010510   Section        0  lv_cache_entry.o(.text.lv_cache_entry_get_ref)
    [Anonymous Symbol]                       0x08010570   Section        0  lv_cache_entry.o(.text.lv_cache_entry_is_invalid)
    [Anonymous Symbol]                       0x080105d4   Section        0  lv_cache_entry.o(.text.lv_cache_entry_release_data)
    [Anonymous Symbol]                       0x08010660   Section        0  lv_cache.o(.text.lv_cache_release)
    lv_calendar_constructor                  0x08010701   Thumb Code   232  lv_calendar.o(.text.lv_calendar_constructor)
    [Anonymous Symbol]                       0x08010700   Section        0  lv_calendar.o(.text.lv_calendar_constructor)
    day_names_def                            0x080107ec   Number         0  lv_calendar.o(.text.lv_calendar_constructor)
    [Anonymous Symbol]                       0x08010808   Section        0  lv_calendar.o(.text.lv_calendar_get_showed_date)
    [Anonymous Symbol]                       0x0801080c   Section        0  lv_calendar.o(.text.lv_calendar_set_showed_date)
    lv_chart_constructor                     0x08010a49   Thumb Code    78  lv_chart.o(.text.lv_chart_constructor)
    [Anonymous Symbol]                       0x08010a48   Section        0  lv_chart.o(.text.lv_chart_constructor)
    lv_chart_destructor                      0x08010a99   Thumb Code   124  lv_chart.o(.text.lv_chart_destructor)
    [Anonymous Symbol]                       0x08010a98   Section        0  lv_chart.o(.text.lv_chart_destructor)
    lv_chart_event                           0x08010b15   Thumb Code  1226  lv_chart.o(.text.lv_chart_event)
    [Anonymous Symbol]                       0x08010b14   Section        0  lv_chart.o(.text.lv_chart_event)
    [Anonymous Symbol]                       0x08010fe4   Section        0  lv_chart.o(.text.lv_chart_get_point_pos_by_id)
    lv_checkbox_constructor                  0x08011241   Thumb Code    60  lv_checkbox.o(.text.lv_checkbox_constructor)
    [Anonymous Symbol]                       0x08011240   Section        0  lv_checkbox.o(.text.lv_checkbox_constructor)
    lv_checkbox_destructor                   0x08011289   Thumb Code    30  lv_checkbox.o(.text.lv_checkbox_destructor)
    [Anonymous Symbol]                       0x08011288   Section        0  lv_checkbox.o(.text.lv_checkbox_destructor)
    lv_checkbox_event                        0x080112a7   Thumb Code   722  lv_checkbox.o(.text.lv_checkbox_event)
    [Anonymous Symbol]                       0x080112a6   Section        0  lv_checkbox.o(.text.lv_checkbox_event)
    [Anonymous Symbol]                       0x0801157e   Section        0  lv_obj_pos.o(.text.lv_clamp_height)
    [Anonymous Symbol]                       0x080115f6   Section        0  lv_obj_pos.o(.text.lv_clamp_width)
    lv_color_32_32_mix                       0x08011671   Thumb Code   360  lv_draw_sw_blend_to_argb8888.o(.text.lv_color_32_32_mix)
    [Anonymous Symbol]                       0x08011670   Section        0  lv_draw_sw_blend_to_argb8888.o(.text.lv_color_32_32_mix)
    [Anonymous Symbol]                       0x08011820   Section        0  lv_color.o(.text.lv_color_darken)
    [Anonymous Symbol]                       0x08011854   Section        0  lv_color.o(.text.lv_color_format_get_bpp)
    [Anonymous Symbol]                       0x08011878   Section        0  lv_color.o(.text.lv_color_format_has_alpha)
    lv_color_mix_with_alpha_cache_init       0x08011891   Thumb Code    42  lv_draw_sw_blend_to_argb8888.o(.text.lv_color_mix_with_alpha_cache_init)
    [Anonymous Symbol]                       0x08011890   Section        0  lv_draw_sw_blend_to_argb8888.o(.text.lv_color_mix_with_alpha_cache_init)
    [Anonymous Symbol]                       0x080118ba   Section        0  lv_color.o(.text.lv_color_to_32)
    [Anonymous Symbol]                       0x080118c4   Section        0  lv_color.o(.text.lv_color_to_u16)
    [Anonymous Symbol]                       0x080118de   Section        0  lv_color.o(.text.lv_color_to_u32)
    [Anonymous Symbol]                       0x080118e4   Section        0  lv_math.o(.text.lv_cubic_bezier)
    [Anonymous Symbol]                       0x08011a10   Section        0  lv_display.o(.text.lv_display_create)
    [Anonymous Symbol]                       0x08011c88   Section        0  lv_display.o(.text.lv_display_enable_invalidation)
    [Anonymous Symbol]                       0x08011cf4   Section        0  lv_display.o(.text.lv_display_flush_ready)
    [Anonymous Symbol]                       0x08011cfa   Section        0  lv_display.o(.text.lv_display_get_color_format)
    [Anonymous Symbol]                       0x08011d12   Section        0  lv_display.o(.text.lv_display_get_default)
    [Anonymous Symbol]                       0x08011d1e   Section        0  lv_display.o(.text.lv_display_get_dpi)
    [Anonymous Symbol]                       0x08011d34   Section        0  lv_display.o(.text.lv_display_get_horizontal_resolution)
    [Anonymous Symbol]                       0x08011d5c   Section        0  lv_display.o(.text.lv_display_get_layer_bottom)
    [Anonymous Symbol]                       0x08011df4   Section        0  lv_display.o(.text.lv_display_get_layer_sys)
    [Anonymous Symbol]                       0x08011e88   Section        0  lv_display.o(.text.lv_display_get_layer_top)
    [Anonymous Symbol]                       0x08011f1c   Section        0  lv_display.o(.text.lv_display_get_next)
    [Anonymous Symbol]                       0x08011f3c   Section        0  lv_display.o(.text.lv_display_get_screen_active)
    [Anonymous Symbol]                       0x08011fc8   Section        0  lv_display.o(.text.lv_display_get_screen_prev)
    [Anonymous Symbol]                       0x08012054   Section        0  lv_display.o(.text.lv_display_get_theme)
    [Anonymous Symbol]                       0x0801206a   Section        0  lv_display.o(.text.lv_display_get_vertical_resolution)
    [Anonymous Symbol]                       0x08012092   Section        0  lv_display.o(.text.lv_display_is_double_buffered)
    [Anonymous Symbol]                       0x0801209c   Section        0  lv_display.o(.text.lv_display_is_invalidation_enabled)
    [Anonymous Symbol]                       0x08012108   Section        0  lv_display.o(.text.lv_display_send_event)
    [Anonymous Symbol]                       0x08012148   Section        0  lv_display.o(.text.lv_display_set_buffers)
    [Anonymous Symbol]                       0x08012416   Section        0  lv_display.o(.text.lv_display_set_flush_cb)
    lv_dpx                                   0x08012429   Thumb Code    48  lv_arc.o(.text.lv_dpx)
    [Anonymous Symbol]                       0x08012428   Section        0  lv_arc.o(.text.lv_dpx)
    [Anonymous Symbol]                       0x08012458   Section        0  lv_draw.o(.text.lv_draw_add_task)
    [Anonymous Symbol]                       0x0801249c   Section        0  lv_draw_arc.o(.text.lv_draw_arc)
    [Anonymous Symbol]                       0x080124fa   Section        0  lv_draw_arc.o(.text.lv_draw_arc_dsc_init)
    [Anonymous Symbol]                       0x08012518   Section        0  lv_draw_arc.o(.text.lv_draw_arc_get_area)
    [Anonymous Symbol]                       0x080128dc   Section        0  lv_draw_rect.o(.text.lv_draw_border_dsc_init)
    [Anonymous Symbol]                       0x08012904   Section        0  lv_draw_buf.o(.text.lv_draw_buf_adjust_stride)
    [Anonymous Symbol]                       0x08012abc   Section        0  lv_draw_buf.o(.text.lv_draw_buf_align)
    [Anonymous Symbol]                       0x08012ad0   Section        0  lv_draw_buf.o(.text.lv_draw_buf_clear)
    [Anonymous Symbol]                       0x08012b94   Section        0  lv_draw_buf.o(.text.lv_draw_buf_copy)
    [Anonymous Symbol]                       0x08012d4c   Section        0  lv_draw_buf.o(.text.lv_draw_buf_create)
    [Anonymous Symbol]                       0x08012e7c   Section        0  lv_draw_buf.o(.text.lv_draw_buf_destroy)
    [Anonymous Symbol]                       0x08012f2c   Section        0  lv_draw_buf.o(.text.lv_draw_buf_dup)
    [Anonymous Symbol]                       0x08012f60   Section        0  lv_draw_buf.o(.text.lv_draw_buf_goto_xy)
    [Anonymous Symbol]                       0x08012ffc   Section        0  lv_draw_buf.o(.text.lv_draw_buf_init)
    [Anonymous Symbol]                       0x08013144   Section        0  lv_draw_buf.o(.text.lv_draw_buf_premultiply)
    [Anonymous Symbol]                       0x080133c2   Section        0  lv_draw_buf.o(.text.lv_draw_buf_reshape)
    [Anonymous Symbol]                       0x08013418   Section        0  lv_draw_buf.o(.text.lv_draw_buf_width_to_stride)
    [Anonymous Symbol]                       0x0801342c   Section        0  lv_draw.o(.text.lv_draw_create_unit)
    [Anonymous Symbol]                       0x08013448   Section        0  lv_draw.o(.text.lv_draw_dispatch)
    [Anonymous Symbol]                       0x08013494   Section        0  lv_draw.o(.text.lv_draw_dispatch_layer)
    [Anonymous Symbol]                       0x080135fa   Section        0  lv_draw.o(.text.lv_draw_dispatch_request)
    [Anonymous Symbol]                       0x0801360a   Section        0  lv_draw.o(.text.lv_draw_dispatch_wait_for_request)
    [Anonymous Symbol]                       0x0801361a   Section        0  lv_draw_rect.o(.text.lv_draw_fill_dsc_init)
    [Anonymous Symbol]                       0x08013634   Section        0  lv_draw.o(.text.lv_draw_finalize_task_creation)
    [Anonymous Symbol]                       0x080136b4   Section        0  lv_draw.o(.text.lv_draw_get_next_available_task)
    [Anonymous Symbol]                       0x08013760   Section        0  lv_draw_image.o(.text.lv_draw_image)
    [Anonymous Symbol]                       0x08013870   Section        0  lv_draw_image.o(.text.lv_draw_image_dsc_init)
    [Anonymous Symbol]                       0x080138ae   Section        0  lv_draw.o(.text.lv_draw_init)
    [Anonymous Symbol]                       0x080138b0   Section        0  lv_draw_label.o(.text.lv_draw_label)
    [Anonymous Symbol]                       0x0801393c   Section        0  lv_draw_label.o(.text.lv_draw_label_dsc_init)
    [Anonymous Symbol]                       0x08013988   Section        0  lv_draw_label.o(.text.lv_draw_label_iterate_characters)
    [Anonymous Symbol]                       0x0801405a   Section        0  lv_draw_image.o(.text.lv_draw_layer)
    [Anonymous Symbol]                       0x080140d4   Section        0  lv_draw.o(.text.lv_draw_layer_alloc_buf)
    [Anonymous Symbol]                       0x0801419c   Section        0  lv_draw.o(.text.lv_draw_layer_create)
    [Anonymous Symbol]                       0x08014270   Section        0  lv_draw.o(.text.lv_draw_layer_go_to_xy)
    [Anonymous Symbol]                       0x08014276   Section        0  lv_draw_line.o(.text.lv_draw_line)
    [Anonymous Symbol]                       0x080142de   Section        0  lv_draw_line.o(.text.lv_draw_line_dsc_init)
    lv_draw_mask_angle                       0x080142ff   Thumb Code   576  lv_draw_sw_mask.o(.text.lv_draw_mask_angle)
    [Anonymous Symbol]                       0x080142fe   Section        0  lv_draw_sw_mask.o(.text.lv_draw_mask_angle)
    lv_draw_mask_line                        0x08014541   Thumb Code  1138  lv_draw_sw_mask.o(.text.lv_draw_mask_line)
    [Anonymous Symbol]                       0x08014540   Section        0  lv_draw_sw_mask.o(.text.lv_draw_mask_line)
    lv_draw_mask_radius                      0x080149b5   Thumb Code   624  lv_draw_sw_mask.o(.text.lv_draw_mask_radius)
    [Anonymous Symbol]                       0x080149b4   Section        0  lv_draw_sw_mask.o(.text.lv_draw_mask_radius)
    [Anonymous Symbol]                       0x08014c2c   Section        0  lv_draw_mask.o(.text.lv_draw_mask_rect)
    [Anonymous Symbol]                       0x08014d2c   Section        0  lv_draw_mask.o(.text.lv_draw_mask_rect_dsc_init)
    [Anonymous Symbol]                       0x08014d34   Section        0  lv_draw_rect.o(.text.lv_draw_rect)
    [Anonymous Symbol]                       0x08015214   Section        0  lv_draw_rect.o(.text.lv_draw_rect_dsc_init)
    [Anonymous Symbol]                       0x08015284   Section        0  lv_draw_sw_arc.o(.text.lv_draw_sw_arc)
    [Anonymous Symbol]                       0x08015630   Section        0  lv_draw_sw_blend.o(.text.lv_draw_sw_blend)
    [Anonymous Symbol]                       0x08015800   Section        0  lv_draw_sw_blend_to_argb8888.o(.text.lv_draw_sw_blend_color_to_argb8888)
    [Anonymous Symbol]                       0x080159c4   Section        0  lv_draw_sw_blend_to_rgb565.o(.text.lv_draw_sw_blend_color_to_rgb565)
    [Anonymous Symbol]                       0x08015dac   Section        0  lv_draw_sw_blend_to_rgb888.o(.text.lv_draw_sw_blend_color_to_rgb888)
    [Anonymous Symbol]                       0x080160c8   Section        0  lv_draw_sw_blend_to_argb8888.o(.text.lv_draw_sw_blend_image_to_argb8888)
    [Anonymous Symbol]                       0x08016620   Section        0  lv_draw_sw_blend_to_rgb565.o(.text.lv_draw_sw_blend_image_to_rgb565)
    [Anonymous Symbol]                       0x08016f64   Section        0  lv_draw_sw_blend_to_rgb888.o(.text.lv_draw_sw_blend_image_to_rgb888)
    [Anonymous Symbol]                       0x0801772c   Section        0  lv_draw_sw_border.o(.text.lv_draw_sw_border)
    [Anonymous Symbol]                       0x08017c9c   Section        0  lv_draw_sw_box_shadow.o(.text.lv_draw_sw_box_shadow)
    [Anonymous Symbol]                       0x080187c8   Section        0  lv_draw_sw_fill.o(.text.lv_draw_sw_fill)
    [Anonymous Symbol]                       0x08018b80   Section        0  lv_draw_sw_img.o(.text.lv_draw_sw_image)
    [Anonymous Symbol]                       0x08018ba0   Section        0  lv_draw_sw.o(.text.lv_draw_sw_init)
    [Anonymous Symbol]                       0x08018bc6   Section        0  lv_draw_sw_letter.o(.text.lv_draw_sw_label)
    [Anonymous Symbol]                       0x08018bdc   Section        0  lv_draw_sw_img.o(.text.lv_draw_sw_layer)
    [Anonymous Symbol]                       0x08018c08   Section        0  lv_draw_sw_line.o(.text.lv_draw_sw_line)
    draw_line_skew.wcorr                     0x08019230   Number         0  lv_draw_sw_line.o(.text.lv_draw_sw_line)
    [Anonymous Symbol]                       0x0801925e   Section        0  lv_draw_sw_mask.o(.text.lv_draw_sw_mask_angle_init)
    [Anonymous Symbol]                       0x080192e8   Section        0  lv_draw_sw_mask.o(.text.lv_draw_sw_mask_apply)
    [Anonymous Symbol]                       0x08019342   Section        0  lv_draw_sw_mask.o(.text.lv_draw_sw_mask_free_param)
    [Anonymous Symbol]                       0x08019388   Section        0  lv_draw_sw_mask.o(.text.lv_draw_sw_mask_init)
    [Anonymous Symbol]                       0x08019396   Section        0  lv_draw_sw_mask.o(.text.lv_draw_sw_mask_line_angle_init)
    [Anonymous Symbol]                       0x080193dc   Section        0  lv_draw_sw_mask.o(.text.lv_draw_sw_mask_line_points_init)
    [Anonymous Symbol]                       0x08019528   Section        0  lv_draw_sw_mask.o(.text.lv_draw_sw_mask_radius_init)
    [Anonymous Symbol]                       0x080199f0   Section        0  lv_draw_sw_mask_rect.o(.text.lv_draw_sw_mask_rect)
    [Anonymous Symbol]                       0x08019b88   Section        0  lv_draw_sw_transform.o(.text.lv_draw_sw_transform)
    [Anonymous Symbol]                       0x0801a37c   Section        0  lv_draw_sw_triangle.o(.text.lv_draw_sw_triangle)
    [Anonymous Symbol]                       0x0801a684   Section        0  lv_draw_rect.o(.text.lv_draw_task_get_border_dsc)
    [Anonymous Symbol]                       0x0801a690   Section        0  lv_draw_rect.o(.text.lv_draw_task_get_fill_dsc)
    [Anonymous Symbol]                       0x0801a69c   Section        0  lv_draw_label.o(.text.lv_draw_task_get_label_dsc)
    [Anonymous Symbol]                       0x0801a6a8   Section        0  lv_dropdown.o(.text.lv_dropdown_close)
    lv_dropdown_constructor                  0x0801a6d1   Thumb Code    92  lv_dropdown.o(.text.lv_dropdown_constructor)
    [Anonymous Symbol]                       0x0801a6d0   Section        0  lv_dropdown.o(.text.lv_dropdown_constructor)
    [Anonymous Symbol]                       0x0801a74c   Section        0  lv_dropdown.o(.text.lv_dropdown_create)
    lv_dropdown_destructor                   0x0801a767   Thumb Code    38  lv_dropdown.o(.text.lv_dropdown_destructor)
    [Anonymous Symbol]                       0x0801a766   Section        0  lv_dropdown.o(.text.lv_dropdown_destructor)
    lv_dropdown_event                        0x0801a78d   Thumb Code   340  lv_dropdown.o(.text.lv_dropdown_event)
    [Anonymous Symbol]                       0x0801a78c   Section        0  lv_dropdown.o(.text.lv_dropdown_event)
    [Anonymous Symbol]                       0x0801a8e0   Section        0  lv_dropdown.o(.text.lv_dropdown_get_options)
    [Anonymous Symbol]                       0x0801a8f2   Section        0  lv_dropdown.o(.text.lv_dropdown_get_selected)
    [Anonymous Symbol]                       0x0801a8f8   Section        0  lv_dropdown.o(.text.lv_dropdown_get_selected_str)
    lv_dropdown_list_event                   0x0801a9b9   Thumb Code   468  lv_dropdown.o(.text.lv_dropdown_list_event)
    [Anonymous Symbol]                       0x0801a9b8   Section        0  lv_dropdown.o(.text.lv_dropdown_list_event)
    [Anonymous Symbol]                       0x0801ab8c   Section        0  lv_dropdown.o(.text.lv_dropdown_open)
    [Anonymous Symbol]                       0x0801ad98   Section        0  lv_dropdown.o(.text.lv_dropdown_set_options)
    [Anonymous Symbol]                       0x0801ae88   Section        0  lv_dropdown.o(.text.lv_dropdown_set_options_static)
    [Anonymous Symbol]                       0x0801af3c   Section        0  lv_dropdown.o(.text.lv_dropdown_set_selected)
    lv_dropdownlist_constructor              0x0801af69   Thumb Code    50  lv_dropdown.o(.text.lv_dropdownlist_constructor)
    [Anonymous Symbol]                       0x0801af68   Section        0  lv_dropdown.o(.text.lv_dropdownlist_constructor)
    lv_dropdownlist_destructor               0x0801af9b   Thumb Code     8  lv_dropdown.o(.text.lv_dropdownlist_destructor)
    [Anonymous Symbol]                       0x0801af9a   Section        0  lv_dropdown.o(.text.lv_dropdownlist_destructor)
    [Anonymous Symbol]                       0x0801afa4   Section        0  lv_event.o(.text.lv_event_add)
    [Anonymous Symbol]                       0x0801b024   Section        0  lv_event.o(.text.lv_event_get_code)
    [Anonymous Symbol]                       0x0801b02c   Section        0  lv_event.o(.text.lv_event_get_current_target)
    [Anonymous Symbol]                       0x0801b030   Section        0  lv_obj_event.o(.text.lv_event_get_indev)
    [Anonymous Symbol]                       0x0801b088   Section        0  lv_obj_event.o(.text.lv_event_get_key)
    [Anonymous Symbol]                       0x0801b0d4   Section        0  lv_obj_event.o(.text.lv_event_get_layer)
    [Anonymous Symbol]                       0x0801b11c   Section        0  lv_event.o(.text.lv_event_get_param)
    [Anonymous Symbol]                       0x0801b120   Section        0  lv_obj_event.o(.text.lv_event_get_rotary_diff)
    [Anonymous Symbol]                       0x0801b174   Section        0  lv_event.o(.text.lv_event_get_target)
    [Anonymous Symbol]                       0x0801b178   Section        0  lv_event.o(.text.lv_event_get_user_data)
    [Anonymous Symbol]                       0x0801b17c   Section        0  lv_event.o(.text.lv_event_remove_all)
    [Anonymous Symbol]                       0x0801b1f4   Section        0  lv_event.o(.text.lv_event_send)
    [Anonymous Symbol]                       0x0801b258   Section        0  lv_obj_event.o(.text.lv_event_set_ext_draw_size)
    [Anonymous Symbol]                       0x0801b2b4   Section        0  lv_flex.o(.text.lv_flex_init)
    [Anonymous Symbol]                       0x0801b2d0   Section        0  lv_font_fmt_txt.o(.text.lv_font_get_bitmap_fmt_txt)
    opa4_table                               0x0801b4f4   Number         0  lv_font_fmt_txt.o(.text.lv_font_get_bitmap_fmt_txt)
    [Anonymous Symbol]                       0x0801b504   Section        0  lv_font.o(.text.lv_font_get_glyph_bitmap)
    [Anonymous Symbol]                       0x0801b568   Section        0  lv_font.o(.text.lv_font_get_glyph_dsc)
    [Anonymous Symbol]                       0x0801b680   Section        0  lv_font_fmt_txt.o(.text.lv_font_get_glyph_dsc_fmt_txt)
    [Anonymous Symbol]                       0x0801b7c0   Section        0  lv_font.o(.text.lv_font_get_glyph_width)
    [Anonymous Symbol]                       0x0801b88c   Section        0  lv_mem.o(.text.lv_free)
    [Anonymous Symbol]                       0x0801b8a2   Section        0  lv_mem_core_babyos.o(.text.lv_free_core)
    [Anonymous Symbol]                       0x0801b8a6   Section        0  lv_fs.o(.text.lv_fs_close)
    [Anonymous Symbol]                       0x0801b8ec   Section        0  lv_fs.o(.text.lv_fs_get_drv)
    [Anonymous Symbol]                       0x0801b924   Section        0  lv_fs.o(.text.lv_fs_get_ext)
    [Anonymous Symbol]                       0x0801b960   Section        0  lv_fs.o(.text.lv_fs_open)
    [Anonymous Symbol]                       0x0801bb20   Section        0  lv_fs.o(.text.lv_fs_read)
    [Anonymous Symbol]                       0x0801bd2a   Section        0  lv_fs.o(.text.lv_fs_seek)
    [Anonymous Symbol]                       0x0801bdb2   Section        0  lv_draw_sw_gradient.o(.text.lv_gradient_cleanup)
    [Anonymous Symbol]                       0x0801bdb8   Section        0  lv_draw_sw_gradient.o(.text.lv_gradient_color_calculate)
    [Anonymous Symbol]                       0x0801bf1c   Section        0  lv_draw_sw_gradient.o(.text.lv_gradient_get)
    [Anonymous Symbol]                       0x0801c008   Section        0  lv_grid.o(.text.lv_grid_init)
    [Anonymous Symbol]                       0x0801c024   Section        0  lv_group.o(.text.lv_group_add_obj)
    [Anonymous Symbol]                       0x0801c0f4   Section        0  lv_group.o(.text.lv_group_focus_next)
    [Anonymous Symbol]                       0x0801c170   Section        0  lv_group.o(.text.lv_group_focus_obj)
    [Anonymous Symbol]                       0x0801c20c   Section        0  lv_group.o(.text.lv_group_focus_prev)
    [Anonymous Symbol]                       0x0801c288   Section        0  lv_group.o(.text.lv_group_get_default)
    [Anonymous Symbol]                       0x0801c294   Section        0  lv_group.o(.text.lv_group_get_editing)
    [Anonymous Symbol]                       0x0801c2a2   Section        0  lv_group.o(.text.lv_group_get_focused)
    [Anonymous Symbol]                       0x0801c2b0   Section        0  lv_group.o(.text.lv_group_get_obj_count)
    lv_group_refocus                         0x0801c311   Thumb Code    44  lv_group.o(.text.lv_group_refocus)
    [Anonymous Symbol]                       0x0801c310   Section        0  lv_group.o(.text.lv_group_refocus)
    [Anonymous Symbol]                       0x0801c33c   Section        0  lv_group.o(.text.lv_group_remove_obj)
    [Anonymous Symbol]                       0x0801c3d8   Section        0  lv_group.o(.text.lv_group_send_data)
    [Anonymous Symbol]                       0x0801c450   Section        0  lv_group.o(.text.lv_group_set_editing)
    lv_image_constructor                     0x0801c4e9   Thumb Code   110  lv_image.o(.text.lv_image_constructor)
    [Anonymous Symbol]                       0x0801c4e8   Section        0  lv_image.o(.text.lv_image_constructor)
    [Anonymous Symbol]                       0x0801c556   Section        0  lv_image.o(.text.lv_image_create)
    [Anonymous Symbol]                       0x0801c570   Section        0  lv_image_decoder.o(.text.lv_image_decoder_close)
    [Anonymous Symbol]                       0x0801c580   Section        0  lv_image_decoder.o(.text.lv_image_decoder_create)
    [Anonymous Symbol]                       0x0801c620   Section        0  lv_image_decoder.o(.text.lv_image_decoder_get_area)
    [Anonymous Symbol]                       0x0801c642   Section        0  lv_image_decoder.o(.text.lv_image_decoder_get_info)
    [Anonymous Symbol]                       0x0801c650   Section        0  lv_image_decoder.o(.text.lv_image_decoder_open)
    [Anonymous Symbol]                       0x0801c694   Section        0  lv_image_decoder.o(.text.lv_image_decoder_post_process)
    [Anonymous Symbol]                       0x0801c794   Section        0  lv_image_decoder.o(.text.lv_image_decoder_set_cache_free_cb)
    [Anonymous Symbol]                       0x0801c798   Section        0  lv_image_decoder.o(.text.lv_image_decoder_set_close_cb)
    [Anonymous Symbol]                       0x0801c79c   Section        0  lv_image_decoder.o(.text.lv_image_decoder_set_get_area_cb)
    [Anonymous Symbol]                       0x0801c7a0   Section        0  lv_image_decoder.o(.text.lv_image_decoder_set_info_cb)
    [Anonymous Symbol]                       0x0801c7a4   Section        0  lv_image_decoder.o(.text.lv_image_decoder_set_open_cb)
    lv_image_destructor                      0x0801c7a9   Thumb Code    48  lv_image.o(.text.lv_image_destructor)
    [Anonymous Symbol]                       0x0801c7a8   Section        0  lv_image.o(.text.lv_image_destructor)
    lv_image_event                           0x0801c7d9   Thumb Code  1092  lv_image.o(.text.lv_image_event)
    [Anonymous Symbol]                       0x0801c7d8   Section        0  lv_image.o(.text.lv_image_event)
    [Anonymous Symbol]                       0x0801cc54   Section        0  lv_image.o(.text.lv_image_get_pivot)
    [Anonymous Symbol]                       0x0801ccca   Section        0  lv_image.o(.text.lv_image_set_pivot)
    [Anonymous Symbol]                       0x0801cdcc   Section        0  lv_image.o(.text.lv_image_set_rotation)
    [Anonymous Symbol]                       0x0801cef8   Section        0  lv_image.o(.text.lv_image_set_src)
    [Anonymous Symbol]                       0x0801d124   Section        0  lv_draw_image.o(.text.lv_image_src_get_type)
    [Anonymous Symbol]                       0x0801d13c   Section        0  lv_indev.o(.text.lv_indev_active)
    [Anonymous Symbol]                       0x0801d148   Section        0  lv_indev.o(.text.lv_indev_create)
    [Anonymous Symbol]                       0x0801d238   Section        0  lv_indev_scroll.o(.text.lv_indev_find_scroll_obj)
    [Anonymous Symbol]                       0x0801d57e   Section        0  lv_indev.o(.text.lv_indev_get_active_obj)
    [Anonymous Symbol]                       0x0801d58a   Section        0  lv_indev.o(.text.lv_indev_get_group)
    [Anonymous Symbol]                       0x0801d596   Section        0  lv_indev.o(.text.lv_indev_get_next)
    [Anonymous Symbol]                       0x0801d5b6   Section        0  lv_indev.o(.text.lv_indev_get_point)
    [Anonymous Symbol]                       0x0801d5d8   Section        0  lv_indev.o(.text.lv_indev_get_scroll_dir)
    [Anonymous Symbol]                       0x0801d5f2   Section        0  lv_indev.o(.text.lv_indev_get_scroll_obj)
    [Anonymous Symbol]                       0x0801d606   Section        0  lv_indev.o(.text.lv_indev_get_type)
    [Anonymous Symbol]                       0x0801d610   Section        0  lv_indev.o(.text.lv_indev_get_vect)
    [Anonymous Symbol]                       0x0801d62c   Section        0  lv_indev.o(.text.lv_indev_read)
    [Anonymous Symbol]                       0x0801dfde   Section        0  lv_indev.o(.text.lv_indev_read_timer_cb)
    [Anonymous Symbol]                       0x0801dfe4   Section        0  lv_indev.o(.text.lv_indev_reset)
    [Anonymous Symbol]                       0x0801e030   Section        0  lv_indev.o(.text.lv_indev_search_obj)
    [Anonymous Symbol]                       0x0801e0ca   Section        0  lv_indev.o(.text.lv_indev_send_event)
    [Anonymous Symbol]                       0x0801e10a   Section        0  lv_indev.o(.text.lv_indev_set_read_cb)
    [Anonymous Symbol]                       0x0801e110   Section        0  lv_indev.o(.text.lv_indev_set_type)
    [Anonymous Symbol]                       0x0801e11e   Section        0  lv_indev.o(.text.lv_indev_wait_release)
    [Anonymous Symbol]                       0x0801e12c   Section        0  lv_init.o(.text.lv_init)
    lv_keyboard_constructor                  0x0801e205   Thumb Code   104  lv_keyboard.o(.text.lv_keyboard_constructor)
    [Anonymous Symbol]                       0x0801e204   Section        0  lv_keyboard.o(.text.lv_keyboard_constructor)
    [Anonymous Symbol]                       0x0801e26c   Section        0  lv_keyboard.o(.text.lv_keyboard_def_event_cb)
    lv_keyboard_update_ctrl_map              0x0801e489   Thumb Code   120  lv_keyboard.o(.text.lv_keyboard_update_ctrl_map)
    [Anonymous Symbol]                       0x0801e488   Section        0  lv_keyboard.o(.text.lv_keyboard_update_ctrl_map)
    lv_label_constructor                     0x0801e501   Thumb Code    76  lv_label.o(.text.lv_label_constructor)
    [Anonymous Symbol]                       0x0801e500   Section        0  lv_label.o(.text.lv_label_constructor)
    [Anonymous Symbol]                       0x0801e554   Section        0  lv_label.o(.text.lv_label_create)
    lv_label_destructor                      0x0801e56f   Thumb Code    30  lv_label.o(.text.lv_label_destructor)
    [Anonymous Symbol]                       0x0801e56e   Section        0  lv_label.o(.text.lv_label_destructor)
    lv_label_dot_tmp_free                    0x0801e58d   Thumb Code    38  lv_label.o(.text.lv_label_dot_tmp_free)
    [Anonymous Symbol]                       0x0801e58c   Section        0  lv_label.o(.text.lv_label_dot_tmp_free)
    lv_label_event                           0x0801e5b3   Thumb Code   838  lv_label.o(.text.lv_label_event)
    [Anonymous Symbol]                       0x0801e5b2   Section        0  lv_label.o(.text.lv_label_event)
    [Anonymous Symbol]                       0x0801e8f8   Section        0  lv_label.o(.text.lv_label_get_letter_on)
    [Anonymous Symbol]                       0x0801eb0c   Section        0  lv_label.o(.text.lv_label_get_letter_pos)
    [Anonymous Symbol]                       0x0801ed0a   Section        0  lv_label.o(.text.lv_label_get_text)
    [Anonymous Symbol]                       0x0801ed0e   Section        0  lv_label.o(.text.lv_label_get_text_selection_end)
    [Anonymous Symbol]                       0x0801ed12   Section        0  lv_label.o(.text.lv_label_get_text_selection_start)
    [Anonymous Symbol]                       0x0801ed18   Section        0  lv_label.o(.text.lv_label_ins_text)
    [Anonymous Symbol]                       0x0801ee08   Section        0  lv_label.o(.text.lv_label_is_char_under_pos)
    lv_label_refr_text                       0x0801f00d   Thumb Code  1406  lv_label.o(.text.lv_label_refr_text)
    [Anonymous Symbol]                       0x0801f00c   Section        0  lv_label.o(.text.lv_label_refr_text)
    lv_label_revert_dots                     0x0801f591   Thumb Code   116  lv_label.o(.text.lv_label_revert_dots)
    [Anonymous Symbol]                       0x0801f590   Section        0  lv_label.o(.text.lv_label_revert_dots)
    lv_label_set_dot_tmp                     0x0801f605   Thumb Code   116  lv_label.o(.text.lv_label_set_dot_tmp)
    [Anonymous Symbol]                       0x0801f604   Section        0  lv_label.o(.text.lv_label_set_dot_tmp)
    [Anonymous Symbol]                       0x0801f6bc   Section        0  lv_label.o(.text.lv_label_set_long_mode)
    [Anonymous Symbol]                       0x0801f728   Section        0  lv_label.o(.text.lv_label_set_text)
    [Anonymous Symbol]                       0x0801f808   Section        0  lv_label.o(.text.lv_label_set_text_fmt)
    [Anonymous Symbol]                       0x0801f8ac   Section        0  lv_label.o(.text.lv_label_set_text_selection_end)
    [Anonymous Symbol]                       0x0801f8b2   Section        0  lv_label.o(.text.lv_label_set_text_selection_start)
    [Anonymous Symbol]                       0x0801f8b8   Section        0  lv_label.o(.text.lv_label_set_text_static)
    lv_led_constructor                       0x0801f8ed   Thumb Code    26  lv_led.o(.text.lv_led_constructor)
    [Anonymous Symbol]                       0x0801f8ec   Section        0  lv_led.o(.text.lv_led_constructor)
    lv_led_event                             0x0801f907   Thumb Code   664  lv_led.o(.text.lv_led_event)
    [Anonymous Symbol]                       0x0801f906   Section        0  lv_led.o(.text.lv_led_event)
    lv_line_constructor                      0x0801fbaf   Thumb Code    26  lv_line.o(.text.lv_line_constructor)
    [Anonymous Symbol]                       0x0801fbae   Section        0  lv_line.o(.text.lv_line_constructor)
    lv_line_event                            0x0801fbc9   Thumb Code   660  lv_line.o(.text.lv_line_event)
    [Anonymous Symbol]                       0x0801fbc8   Section        0  lv_line.o(.text.lv_line_event)
    [Anonymous Symbol]                       0x0801fe62   Section        0  lv_log.o(.text.lv_log_register_print_cb)
    [Anonymous Symbol]                       0x0801fe70   Section        0  lv_mem.o(.text.lv_malloc)
    [Anonymous Symbol]                       0x0801fe82   Section        0  lv_mem_core_babyos.o(.text.lv_malloc_core)
    [Anonymous Symbol]                       0x0801fe86   Section        0  lv_mem.o(.text.lv_malloc_zeroed)
    [Anonymous Symbol]                       0x0801feb2   Section        0  lv_math.o(.text.lv_map)
    [Anonymous Symbol]                       0x0801fef4   Section        0  lv_mem_core_babyos.o(.text.lv_mem_init)
    [Anonymous Symbol]                       0x0801fef8   Section        0  lv_string_builtin.o(.text.lv_memcpy)
    [Anonymous Symbol]                       0x080200b8   Section        0  lv_string_builtin.o(.text.lv_memmove)
    [Anonymous Symbol]                       0x080200f8   Section        0  lv_string_builtin.o(.text.lv_memset)
    lv_menu_back_event_cb                    0x08020161   Thumb Code   160  lv_menu.o(.text.lv_menu_back_event_cb)
    [Anonymous Symbol]                       0x08020160   Section        0  lv_menu.o(.text.lv_menu_back_event_cb)
    lv_menu_constructor                      0x08020201   Thumb Code   326  lv_menu.o(.text.lv_menu_constructor)
    [Anonymous Symbol]                       0x08020200   Section        0  lv_menu.o(.text.lv_menu_constructor)
    lv_menu_cont_constructor                 0x08020347   Thumb Code    36  lv_menu.o(.text.lv_menu_cont_constructor)
    [Anonymous Symbol]                       0x08020346   Section        0  lv_menu.o(.text.lv_menu_cont_constructor)
    lv_menu_destructor                       0x0802036b   Thumb Code    10  lv_menu.o(.text.lv_menu_destructor)
    [Anonymous Symbol]                       0x0802036a   Section        0  lv_menu.o(.text.lv_menu_destructor)
    lv_menu_page_constructor                 0x08020375   Thumb Code    52  lv_menu.o(.text.lv_menu_page_constructor)
    [Anonymous Symbol]                       0x08020374   Section        0  lv_menu.o(.text.lv_menu_page_constructor)
    lv_menu_page_destructor                  0x080203a9   Thumb Code    28  lv_menu.o(.text.lv_menu_page_destructor)
    [Anonymous Symbol]                       0x080203a8   Section        0  lv_menu.o(.text.lv_menu_page_destructor)
    lv_menu_refr_main_header_mode            0x080203c5   Thumb Code   110  lv_menu.o(.text.lv_menu_refr_main_header_mode)
    [Anonymous Symbol]                       0x080203c4   Section        0  lv_menu.o(.text.lv_menu_refr_main_header_mode)
    lv_menu_section_constructor              0x08020433   Thumb Code    24  lv_menu.o(.text.lv_menu_section_constructor)
    [Anonymous Symbol]                       0x08020432   Section        0  lv_menu.o(.text.lv_menu_section_constructor)
    [Anonymous Symbol]                       0x0802044c   Section        0  lv_menu.o(.text.lv_menu_set_page)
    lv_menu_value_changed_event_cb           0x08020581   Thumb Code    80  lv_menu.o(.text.lv_menu_value_changed_event_cb)
    [Anonymous Symbol]                       0x08020580   Section        0  lv_menu.o(.text.lv_menu_value_changed_event_cb)
    [Anonymous Symbol]                       0x080205d0   Section        0  lv_os_none.o(.text.lv_mutex_init)
    [Anonymous Symbol]                       0x080205d4   Section        0  lv_os_none.o(.text.lv_mutex_lock)
    [Anonymous Symbol]                       0x080205d8   Section        0  lv_os_none.o(.text.lv_mutex_unlock)
    [Anonymous Symbol]                       0x080205dc   Section        0  lv_obj_event.o(.text.lv_obj_add_event_cb)
    [Anonymous Symbol]                       0x08020600   Section        0  lv_obj.o(.text.lv_obj_add_flag)
    [Anonymous Symbol]                       0x0802068e   Section        0  lv_obj.o(.text.lv_obj_add_state)
    [Anonymous Symbol]                       0x080206b8   Section        0  lv_obj_style.o(.text.lv_obj_add_style)
    [Anonymous Symbol]                       0x08020848   Section        0  lv_obj_pos.o(.text.lv_obj_align)
    [Anonymous Symbol]                       0x0802086c   Section        0  lv_obj_pos.o(.text.lv_obj_align_to)
    [Anonymous Symbol]                       0x08020d20   Section        0  lv_obj.o(.text.lv_obj_allocate_spec_attr)
    [Anonymous Symbol]                       0x08020dd4   Section        0  lv_obj_pos.o(.text.lv_obj_area_is_visible)
    [Anonymous Symbol]                       0x08020ece   Section        0  lv_obj_draw.o(.text.lv_obj_calculate_ext_draw_size)
    [Anonymous Symbol]                       0x08020f8e   Section        0  lv_obj_style.o(.text.lv_obj_calculate_style_text_align)
    [Anonymous Symbol]                       0x08020fb0   Section        0  lv_obj.o(.text.lv_obj_check_type)
    [Anonymous Symbol]                       0x08020fc4   Section        0  lv_obj_class.o(.text.lv_obj_class_create_obj)
    [Anonymous Symbol]                       0x080210ec   Section        0  lv_obj_class.o(.text.lv_obj_class_init_obj)
    lv_obj_construct                         0x08021167   Thumb Code    40  lv_obj_class.o(.text.lv_obj_construct)
    [Anonymous Symbol]                       0x08021166   Section        0  lv_obj_class.o(.text.lv_obj_construct)
    lv_obj_constructor                       0x0802118f   Thumb Code    88  lv_obj.o(.text.lv_obj_constructor)
    [Anonymous Symbol]                       0x0802118e   Section        0  lv_obj.o(.text.lv_obj_constructor)
    [Anonymous Symbol]                       0x080211e6   Section        0  lv_obj.o(.text.lv_obj_create)
    [Anonymous Symbol]                       0x08021200   Section        0  lv_obj_tree.o(.text.lv_obj_delete)
    lv_obj_delete_async_cb                   0x080212ad   Thumb Code     4  lv_obj_tree.o(.text.lv_obj_delete_async_cb)
    [Anonymous Symbol]                       0x080212ac   Section        0  lv_obj_tree.o(.text.lv_obj_delete_async_cb)
    lv_obj_destructor                        0x080212b1   Thumb Code    88  lv_obj.o(.text.lv_obj_destructor)
    [Anonymous Symbol]                       0x080212b0   Section        0  lv_obj.o(.text.lv_obj_destructor)
    [Anonymous Symbol]                       0x08021308   Section        0  lv_obj_style.o(.text.lv_obj_enable_style_refresh)
    lv_obj_event                             0x08021319   Thumb Code  1768  lv_obj.o(.text.lv_obj_event)
    [Anonymous Symbol]                       0x08021318   Section        0  lv_obj.o(.text.lv_obj_event)
    [Anonymous Symbol]                       0x08021a00   Section        0  lv_obj_event.o(.text.lv_obj_event_base)
    [Anonymous Symbol]                       0x08021a28   Section        0  lv_obj_tree.o(.text.lv_obj_get_child)
    [Anonymous Symbol]                       0x08021a48   Section        0  lv_obj_tree.o(.text.lv_obj_get_child_by_type)
    [Anonymous Symbol]                       0x08021aaa   Section        0  lv_obj_tree.o(.text.lv_obj_get_child_count)
    [Anonymous Symbol]                       0x08021ab8   Section        0  lv_obj_tree.o(.text.lv_obj_get_child_count_by_type)
    [Anonymous Symbol]                       0x08021ae4   Section        0  lv_obj_pos.o(.text.lv_obj_get_click_area)
    [Anonymous Symbol]                       0x08021b16   Section        0  lv_obj_pos.o(.text.lv_obj_get_content_coords)
    [Anonymous Symbol]                       0x08021be6   Section        0  lv_obj_pos.o(.text.lv_obj_get_content_height)
    [Anonymous Symbol]                       0x08021c52   Section        0  lv_obj_pos.o(.text.lv_obj_get_content_width)
    [Anonymous Symbol]                       0x08021cbe   Section        0  lv_obj_pos.o(.text.lv_obj_get_coords)
    [Anonymous Symbol]                       0x08021cd0   Section        0  lv_obj_tree.o(.text.lv_obj_get_display)
    [Anonymous Symbol]                       0x08021d64   Section        0  lv_obj.o(.text.lv_obj_get_group)
    [Anonymous Symbol]                       0x08021d70   Section        0  lv_obj_pos.o(.text.lv_obj_get_height)
    lv_obj_get_height_with_margin            0x08021d7b   Thumb Code    36  lv_flex.o(.text.lv_obj_get_height_with_margin)
    [Anonymous Symbol]                       0x08021d7a   Section        0  lv_flex.o(.text.lv_obj_get_height_with_margin)
    [Anonymous Symbol]                       0x08021da0   Section        0  lv_obj_tree.o(.text.lv_obj_get_index)
    [Anonymous Symbol]                       0x08021e14   Section        0  lv_obj_style.o(.text.lv_obj_get_local_style_prop)
    [Anonymous Symbol]                       0x08021e54   Section        0  lv_obj_tree.o(.text.lv_obj_get_parent)
    [Anonymous Symbol]                       0x08021e60   Section        0  lv_obj_tree.o(.text.lv_obj_get_screen)
    [Anonymous Symbol]                       0x08021e70   Section        0  lv_obj_scroll.o(.text.lv_obj_get_scroll_bottom)
    [Anonymous Symbol]                       0x08021f70   Section        0  lv_obj_scroll.o(.text.lv_obj_get_scroll_dir)
    [Anonymous Symbol]                       0x08021f80   Section        0  lv_obj_scroll.o(.text.lv_obj_get_scroll_end)
    [Anonymous Symbol]                       0x08021fd0   Section        0  lv_obj_scroll.o(.text.lv_obj_get_scroll_left)
    [Anonymous Symbol]                       0x080220f4   Section        0  lv_obj_scroll.o(.text.lv_obj_get_scroll_right)
    [Anonymous Symbol]                       0x08022204   Section        0  lv_obj_scroll.o(.text.lv_obj_get_scroll_snap_x)
    [Anonymous Symbol]                       0x08022216   Section        0  lv_obj_scroll.o(.text.lv_obj_get_scroll_snap_y)
    [Anonymous Symbol]                       0x08022228   Section        0  lv_obj_scroll.o(.text.lv_obj_get_scroll_top)
    [Anonymous Symbol]                       0x08022236   Section        0  lv_obj_scroll.o(.text.lv_obj_get_scroll_x)
    [Anonymous Symbol]                       0x08022244   Section        0  lv_obj_scroll.o(.text.lv_obj_get_scroll_y)
    [Anonymous Symbol]                       0x08022254   Section        0  lv_obj_scroll.o(.text.lv_obj_get_scrollbar_area)
    [Anonymous Symbol]                       0x08022916   Section        0  lv_obj_scroll.o(.text.lv_obj_get_scrollbar_mode)
    [Anonymous Symbol]                       0x08022926   Section        0  lv_obj_pos.o(.text.lv_obj_get_self_height)
    [Anonymous Symbol]                       0x08022944   Section        0  lv_obj_pos.o(.text.lv_obj_get_self_width)
    [Anonymous Symbol]                       0x08022962   Section        0  lv_obj.o(.text.lv_obj_get_state)
    lv_obj_get_style_margin_bottom           0x08022967   Thumb Code     6  lv_flex.o(.text.lv_obj_get_style_margin_bottom)
    [Anonymous Symbol]                       0x08022966   Section        0  lv_flex.o(.text.lv_obj_get_style_margin_bottom)
    lv_obj_get_style_margin_left             0x0802296d   Thumb Code     6  lv_flex.o(.text.lv_obj_get_style_margin_left)
    [Anonymous Symbol]                       0x0802296c   Section        0  lv_flex.o(.text.lv_obj_get_style_margin_left)
    lv_obj_get_style_margin_right            0x08022973   Thumb Code     6  lv_flex.o(.text.lv_obj_get_style_margin_right)
    [Anonymous Symbol]                       0x08022972   Section        0  lv_flex.o(.text.lv_obj_get_style_margin_right)
    lv_obj_get_style_margin_top              0x08022979   Thumb Code     6  lv_flex.o(.text.lv_obj_get_style_margin_top)
    [Anonymous Symbol]                       0x08022978   Section        0  lv_flex.o(.text.lv_obj_get_style_margin_top)
    [Anonymous Symbol]                       0x08022980   Section        0  lv_obj_style.o(.text.lv_obj_get_style_opa_recursive)
    [Anonymous Symbol]                       0x080229f0   Section        0  lv_obj_style.o(.text.lv_obj_get_style_prop)
    lv_obj_get_style_space_bottom            0x08022a6d   Thumb Code    46  lv_obj_pos.o(.text.lv_obj_get_style_space_bottom)
    [Anonymous Symbol]                       0x08022a6c   Section        0  lv_obj_pos.o(.text.lv_obj_get_style_space_bottom)
    lv_obj_get_style_space_left              0x08022a9b   Thumb Code    46  lv_obj_pos.o(.text.lv_obj_get_style_space_left)
    [Anonymous Symbol]                       0x08022a9a   Section        0  lv_obj_pos.o(.text.lv_obj_get_style_space_left)
    lv_obj_get_style_space_right             0x08022ac9   Thumb Code    46  lv_obj_pos.o(.text.lv_obj_get_style_space_right)
    [Anonymous Symbol]                       0x08022ac8   Section        0  lv_obj_pos.o(.text.lv_obj_get_style_space_right)
    lv_obj_get_style_space_top               0x08022af7   Thumb Code    46  lv_obj_pos.o(.text.lv_obj_get_style_space_top)
    [Anonymous Symbol]                       0x08022af6   Section        0  lv_obj_pos.o(.text.lv_obj_get_style_space_top)
    [Anonymous Symbol]                       0x08022b24   Section        0  lv_obj_pos.o(.text.lv_obj_get_transformed_area)
    [Anonymous Symbol]                       0x08022bc0   Section        0  lv_obj_pos.o(.text.lv_obj_get_width)
    lv_obj_get_width_with_margin             0x08022bcb   Thumb Code    36  lv_flex.o(.text.lv_obj_get_width_with_margin)
    [Anonymous Symbol]                       0x08022bca   Section        0  lv_flex.o(.text.lv_obj_get_width_with_margin)
    [Anonymous Symbol]                       0x08022bee   Section        0  lv_obj_pos.o(.text.lv_obj_get_x)
    [Anonymous Symbol]                       0x08022c44   Section        0  lv_obj_pos.o(.text.lv_obj_get_y)
    [Anonymous Symbol]                       0x08022c9a   Section        0  lv_obj_pos.o(.text.lv_obj_get_y2)
    [Anonymous Symbol]                       0x08022cae   Section        0  lv_obj.o(.text.lv_obj_has_flag)
    [Anonymous Symbol]                       0x08022cbc   Section        0  lv_obj.o(.text.lv_obj_has_flag_any)
    [Anonymous Symbol]                       0x08022cc6   Section        0  lv_obj.o(.text.lv_obj_has_state)
    [Anonymous Symbol]                       0x08022cd0   Section        0  lv_obj_pos.o(.text.lv_obj_hit_test)
    [Anonymous Symbol]                       0x08022d2c   Section        0  lv_obj_draw.o(.text.lv_obj_init_draw_arc_dsc)
    [Anonymous Symbol]                       0x08022dbe   Section        0  lv_obj_draw.o(.text.lv_obj_init_draw_image_dsc)
    [Anonymous Symbol]                       0x08022e76   Section        0  lv_obj_draw.o(.text.lv_obj_init_draw_label_dsc)
    [Anonymous Symbol]                       0x08022f3e   Section        0  lv_obj_draw.o(.text.lv_obj_init_draw_line_dsc)
    [Anonymous Symbol]                       0x08023008   Section        0  lv_obj_draw.o(.text.lv_obj_init_draw_rect_dsc)
    [Anonymous Symbol]                       0x08023364   Section        0  lv_obj_pos.o(.text.lv_obj_invalidate)
    [Anonymous Symbol]                       0x08023392   Section        0  lv_obj_pos.o(.text.lv_obj_invalidate_area)
    [Anonymous Symbol]                       0x080233e0   Section        0  lv_obj_class.o(.text.lv_obj_is_editable)
    [Anonymous Symbol]                       0x080233fa   Section        0  lv_obj_pos.o(.text.lv_obj_is_layout_positioned)
    [Anonymous Symbol]                       0x08023428   Section        0  lv_obj_pos.o(.text.lv_obj_is_visible)
    [Anonymous Symbol]                       0x08023456   Section        0  lv_obj_pos.o(.text.lv_obj_mark_layout_as_dirty)
    [Anonymous Symbol]                       0x0802347c   Section        0  lv_obj_pos.o(.text.lv_obj_move_children_by)
    [Anonymous Symbol]                       0x080234dc   Section        0  lv_obj_pos.o(.text.lv_obj_move_to)
    [Anonymous Symbol]                       0x08023638   Section        0  lv_obj_tree.o(.text.lv_obj_move_to_index)
    [Anonymous Symbol]                       0x08023730   Section        0  lv_obj_scroll.o(.text.lv_obj_readjust_scroll)
    [Anonymous Symbol]                       0x080237d0   Section        0  lv_refr.o(.text.lv_obj_redraw)
    [Anonymous Symbol]                       0x08023a64   Section        0  lv_obj_pos.o(.text.lv_obj_refr_pos)
    [Anonymous Symbol]                       0x08023c70   Section        0  lv_obj_pos.o(.text.lv_obj_refr_size)
    [Anonymous Symbol]                       0x080242f6   Section        0  lv_obj_draw.o(.text.lv_obj_refresh_ext_draw_size)
    [Anonymous Symbol]                       0x0802433a   Section        0  lv_obj_pos.o(.text.lv_obj_refresh_self_size)
    [Anonymous Symbol]                       0x0802437c   Section        0  lv_obj_style.o(.text.lv_obj_refresh_style)
    [Anonymous Symbol]                       0x08024494   Section        0  lv_obj.o(.text.lv_obj_remove_flag)
    [Anonymous Symbol]                       0x08024514   Section        0  lv_obj_style.o(.text.lv_obj_remove_local_style_prop)
    [Anonymous Symbol]                       0x0802456c   Section        0  lv_obj.o(.text.lv_obj_remove_state)
    [Anonymous Symbol]                       0x0802457c   Section        0  lv_obj_style.o(.text.lv_obj_remove_style)
    [Anonymous Symbol]                       0x080246d0   Section        0  lv_obj_style.o(.text.lv_obj_remove_style_all)
    [Anonymous Symbol]                       0x080246e0   Section        0  lv_obj_style.o(.text.lv_obj_report_style_change)
    [Anonymous Symbol]                       0x0802472e   Section        0  lv_obj_scroll.o(.text.lv_obj_scroll_by)
    [Anonymous Symbol]                       0x0802485c   Section        0  lv_obj_scroll.o(.text.lv_obj_scroll_by_bounded)
    [Anonymous Symbol]                       0x0802493c   Section        0  lv_obj_scroll.o(.text.lv_obj_scroll_to)
    [Anonymous Symbol]                       0x08024958   Section        0  lv_obj_scroll.o(.text.lv_obj_scroll_to_view_recursive)
    [Anonymous Symbol]                       0x0802499c   Section        0  lv_obj_scroll.o(.text.lv_obj_scroll_to_x)
    [Anonymous Symbol]                       0x080249cc   Section        0  lv_obj_scroll.o(.text.lv_obj_scroll_to_y)
    [Anonymous Symbol]                       0x080249fc   Section        0  lv_obj_scroll.o(.text.lv_obj_scrollbar_invalidate)
    [Anonymous Symbol]                       0x08024a40   Section        0  lv_obj_event.o(.text.lv_obj_send_event)
    [Anonymous Symbol]                       0x08024b1c   Section        0  lv_obj_pos.o(.text.lv_obj_set_ext_click_area)
    [Anonymous Symbol]                       0x08024b2c   Section        0  lv_flex.o(.text.lv_obj_set_flex_align)
    [Anonymous Symbol]                       0x08024b5c   Section        0  lv_flex.o(.text.lv_obj_set_flex_flow)
    [Anonymous Symbol]                       0x08024b74   Section        0  lv_flex.o(.text.lv_obj_set_flex_grow)
    [Anonymous Symbol]                       0x08024b8c   Section        0  lv_obj_pos.o(.text.lv_obj_set_height)
    [Anonymous Symbol]                       0x08024bb8   Section        0  lv_obj_pos.o(.text.lv_obj_set_layout)
    [Anonymous Symbol]                       0x08024bd0   Section        0  lv_obj_style.o(.text.lv_obj_set_local_style_prop)
    [Anonymous Symbol]                       0x08024d2c   Section        0  lv_obj_tree.o(.text.lv_obj_set_parent)
    [Anonymous Symbol]                       0x08024e78   Section        0  lv_obj_pos.o(.text.lv_obj_set_pos)
    [Anonymous Symbol]                       0x08024e8e   Section        0  lv_obj_scroll.o(.text.lv_obj_set_scroll_dir)
    [Anonymous Symbol]                       0x08024eb6   Section        0  lv_obj_scroll.o(.text.lv_obj_set_scroll_snap_x)
    [Anonymous Symbol]                       0x08024ed4   Section        0  lv_obj_scroll.o(.text.lv_obj_set_scroll_snap_y)
    [Anonymous Symbol]                       0x08024ef2   Section        0  lv_obj_scroll.o(.text.lv_obj_set_scrollbar_mode)
    [Anonymous Symbol]                       0x08024f1a   Section        0  lv_obj_pos.o(.text.lv_obj_set_size)
    [Anonymous Symbol]                       0x08024f30   Section        0  lv_obj.o(.text.lv_obj_set_state)
    [Anonymous Symbol]                       0x08024f46   Section        0  lv_obj_style_gen.o(.text.lv_obj_set_style_align)
    [Anonymous Symbol]                       0x08024f50   Section        0  lv_obj_style_gen.o(.text.lv_obj_set_style_base_dir)
    [Anonymous Symbol]                       0x08024f5a   Section        0  lv_obj_style_gen.o(.text.lv_obj_set_style_bg_image_src)
    [Anonymous Symbol]                       0x08024f64   Section        0  lv_obj_style_gen.o(.text.lv_obj_set_style_flex_cross_place)
    [Anonymous Symbol]                       0x08024f6e   Section        0  lv_obj_style_gen.o(.text.lv_obj_set_style_flex_flow)
    [Anonymous Symbol]                       0x08024f78   Section        0  lv_obj_style_gen.o(.text.lv_obj_set_style_flex_grow)
    [Anonymous Symbol]                       0x08024f82   Section        0  lv_obj_style_gen.o(.text.lv_obj_set_style_flex_main_place)
    [Anonymous Symbol]                       0x08024f8c   Section        0  lv_obj_style_gen.o(.text.lv_obj_set_style_flex_track_place)
    [Anonymous Symbol]                       0x08024f96   Section        0  lv_obj_style_gen.o(.text.lv_obj_set_style_height)
    [Anonymous Symbol]                       0x08024fa0   Section        0  lv_obj_style_gen.o(.text.lv_obj_set_style_layout)
    [Anonymous Symbol]                       0x08024faa   Section        0  lv_obj_style_gen.o(.text.lv_obj_set_style_min_width)
    [Anonymous Symbol]                       0x08024fb4   Section        0  lv_obj_style_gen.o(.text.lv_obj_set_style_text_align)
    [Anonymous Symbol]                       0x08024fbe   Section        0  lv_obj_style_gen.o(.text.lv_obj_set_style_width)
    [Anonymous Symbol]                       0x08024fc8   Section        0  lv_obj_style_gen.o(.text.lv_obj_set_style_x)
    [Anonymous Symbol]                       0x08024fd2   Section        0  lv_obj_style_gen.o(.text.lv_obj_set_style_y)
    [Anonymous Symbol]                       0x08024fdc   Section        0  lv_obj_pos.o(.text.lv_obj_set_width)
    [Anonymous Symbol]                       0x08025008   Section        0  lv_obj_pos.o(.text.lv_obj_set_x)
    [Anonymous Symbol]                       0x08025034   Section        0  lv_obj_pos.o(.text.lv_obj_set_y)
    [Anonymous Symbol]                       0x08025060   Section        0  lv_obj_pos.o(.text.lv_obj_transform_point)
    [Anonymous Symbol]                       0x08025068   Section        0  lv_obj_pos.o(.text.lv_obj_transform_point_array)
    [Anonymous Symbol]                       0x080250ec   Section        0  lv_obj_pos.o(.text.lv_obj_update_layout)
    [Anonymous Symbol]                       0x08025128   Section        0  lv_palette.o(.text.lv_palette_darken)
    [Anonymous Symbol]                       0x080251cc   Section        0  lv_palette.o(.text.lv_palette_lighten)
    [Anonymous Symbol]                       0x08025270   Section        0  lv_palette.o(.text.lv_palette_main)
    [Anonymous Symbol]                       0x080252c8   Section        0  lv_area.o(.text.lv_point_array_transform)
    [Anonymous Symbol]                       0x0802548a   Section        0  lv_area.o(.text.lv_point_transform)
    [Anonymous Symbol]                       0x080254ac   Section        0  lv_math.o(.text.lv_pow)
    [Anonymous Symbol]                       0x080254fe   Section        0  lv_math.o(.text.lv_rand_set_seed)
    [Anonymous Symbol]                       0x0802550c   Section        0  lv_mem.o(.text.lv_realloc)
    [Anonymous Symbol]                       0x08025594   Section        0  lv_mem_core_babyos.o(.text.lv_realloc_core)
    lv_refr_get_top_obj                      0x08025599   Thumb Code   136  lv_refr.o(.text.lv_refr_get_top_obj)
    [Anonymous Symbol]                       0x08025598   Section        0  lv_refr.o(.text.lv_refr_get_top_obj)
    lv_roller_constructor                    0x08025621   Thumb Code    76  lv_roller.o(.text.lv_roller_constructor)
    [Anonymous Symbol]                       0x08025620   Section        0  lv_roller.o(.text.lv_roller_constructor)
    lv_roller_event                          0x0802569d   Thumb Code  1276  lv_roller.o(.text.lv_roller_event)
    [Anonymous Symbol]                       0x0802569c   Section        0  lv_roller.o(.text.lv_roller_event)
    lv_roller_label_event                    0x08025bbd   Thumb Code   344  lv_roller.o(.text.lv_roller_label_event)
    [Anonymous Symbol]                       0x08025bbc   Section        0  lv_roller.o(.text.lv_roller_label_event)
    [Anonymous Symbol]                       0x08025d14   Section        0  lv_roller.o(.text.lv_roller_set_options)
    [Anonymous Symbol]                       0x08025eaa   Section        0  lv_roller.o(.text.lv_roller_set_selected)
    lv_scale_constructor                     0x08025f03   Thumb Code    60  lv_scale.o(.text.lv_scale_constructor)
    [Anonymous Symbol]                       0x08025f02   Section        0  lv_scale.o(.text.lv_scale_constructor)
    lv_scale_destructor                      0x08025f41   Thumb Code    52  lv_scale.o(.text.lv_scale_destructor)
    [Anonymous Symbol]                       0x08025f40   Section        0  lv_scale.o(.text.lv_scale_destructor)
    lv_scale_event                           0x08025f75   Thumb Code   104  lv_scale.o(.text.lv_scale_event)
    [Anonymous Symbol]                       0x08025f74   Section        0  lv_scale.o(.text.lv_scale_event)
    lv_slider_constructor                    0x08025fdd   Thumb Code   104  lv_slider.o(.text.lv_slider_constructor)
    [Anonymous Symbol]                       0x08025fdc   Section        0  lv_slider.o(.text.lv_slider_constructor)
    lv_slider_event                          0x08026045   Thumb Code  1212  lv_slider.o(.text.lv_slider_event)
    [Anonymous Symbol]                       0x08026044   Section        0  lv_slider.o(.text.lv_slider_event)
    [Anonymous Symbol]                       0x08026542   Section        0  lv_sprintf_builtin.o(.text.lv_snprintf)
    [Anonymous Symbol]                       0x08026574   Section        0  lv_span.o(.text.lv_span_stack_init)
    lv_spinbox_constructor                   0x080265e9   Thumb Code    80  lv_spinbox.o(.text.lv_spinbox_constructor)
    [Anonymous Symbol]                       0x080265e8   Section        0  lv_spinbox.o(.text.lv_spinbox_constructor)
    [Anonymous Symbol]                       0x08026638   Section        0  lv_spinbox.o(.text.lv_spinbox_decrement)
    lv_spinbox_event                         0x08026675   Thumb Code   446  lv_spinbox.o(.text.lv_spinbox_event)
    [Anonymous Symbol]                       0x08026674   Section        0  lv_spinbox.o(.text.lv_spinbox_event)
    [Anonymous Symbol]                       0x08026832   Section        0  lv_spinbox.o(.text.lv_spinbox_increment)
    [Anonymous Symbol]                       0x0802687a   Section        0  lv_spinbox.o(.text.lv_spinbox_step_prev)
    lv_spinbox_updatevalue                   0x080268a1   Thumb Code   272  lv_spinbox.o(.text.lv_spinbox_updatevalue)
    [Anonymous Symbol]                       0x080268a0   Section        0  lv_spinbox.o(.text.lv_spinbox_updatevalue)
    lv_spinner_constructor                   0x080269b5   Thumb Code    28  lv_spinner.o(.text.lv_spinner_constructor)
    [Anonymous Symbol]                       0x080269b4   Section        0  lv_spinner.o(.text.lv_spinner_constructor)
    [Anonymous Symbol]                       0x080269d0   Section        0  lv_spinner.o(.text.lv_spinner_set_anim_params)
    [Anonymous Symbol]                       0x08026a6c   Section        0  lv_string_builtin.o(.text.lv_strcmp)
    [Anonymous Symbol]                       0x08026a8c   Section        0  lv_string_builtin.o(.text.lv_strcpy)
    [Anonymous Symbol]                       0x08026aa0   Section        0  lv_string_builtin.o(.text.lv_strdup)
    [Anonymous Symbol]                       0x08026ac4   Section        0  lv_string_builtin.o(.text.lv_strlen)
    [Anonymous Symbol]                       0x08026ad4   Section        0  lv_style.o(.text.lv_style_get_prop)
    [Anonymous Symbol]                       0x08026b30   Section        0  lv_style.o(.text.lv_style_init)
    [Anonymous Symbol]                       0x08026b38   Section        0  lv_style.o(.text.lv_style_is_empty)
    [Anonymous Symbol]                       0x08026b44   Section        0  lv_style.o(.text.lv_style_prop_get_default)
    [Anonymous Symbol]                       0x08026bf8   Section        0  lv_style.o(.text.lv_style_remove_prop)
    [Anonymous Symbol]                       0x08026cdc   Section        0  lv_style.o(.text.lv_style_reset)
    [Anonymous Symbol]                       0x08026cfa   Section        0  lv_style_gen.o(.text.lv_style_set_anim_duration)
    [Anonymous Symbol]                       0x08026d02   Section        0  lv_style_gen.o(.text.lv_style_set_arc_color)
    [Anonymous Symbol]                       0x08026d0c   Section        0  lv_style_gen.o(.text.lv_style_set_arc_rounded)
    [Anonymous Symbol]                       0x08026d14   Section        0  lv_style_gen.o(.text.lv_style_set_arc_width)
    [Anonymous Symbol]                       0x08026d1c   Section        0  lv_style_gen.o(.text.lv_style_set_bg_color)
    [Anonymous Symbol]                       0x08026d26   Section        0  lv_style_gen.o(.text.lv_style_set_bg_grad_color)
    [Anonymous Symbol]                       0x08026d30   Section        0  lv_style_gen.o(.text.lv_style_set_bg_image_src)
    [Anonymous Symbol]                       0x08026d38   Section        0  lv_style_gen.o(.text.lv_style_set_bg_opa)
    [Anonymous Symbol]                       0x08026d40   Section        0  lv_style_gen.o(.text.lv_style_set_border_color)
    [Anonymous Symbol]                       0x08026d4a   Section        0  lv_style_gen.o(.text.lv_style_set_border_opa)
    [Anonymous Symbol]                       0x08026d52   Section        0  lv_style_gen.o(.text.lv_style_set_border_post)
    [Anonymous Symbol]                       0x08026d5a   Section        0  lv_style_gen.o(.text.lv_style_set_border_side)
    [Anonymous Symbol]                       0x08026d62   Section        0  lv_style_gen.o(.text.lv_style_set_border_width)
    [Anonymous Symbol]                       0x08026d6a   Section        0  lv_style_gen.o(.text.lv_style_set_clip_corner)
    [Anonymous Symbol]                       0x08026d72   Section        0  lv_style_gen.o(.text.lv_style_set_color_filter_dsc)
    [Anonymous Symbol]                       0x08026d7a   Section        0  lv_style_gen.o(.text.lv_style_set_color_filter_opa)
    [Anonymous Symbol]                       0x08026d82   Section        0  lv_style_gen.o(.text.lv_style_set_height)
    [Anonymous Symbol]                       0x08026d8a   Section        0  lv_style_gen.o(.text.lv_style_set_line_color)
    [Anonymous Symbol]                       0x08026d94   Section        0  lv_style_gen.o(.text.lv_style_set_line_width)
    [Anonymous Symbol]                       0x08026d9c   Section        0  lv_style_gen.o(.text.lv_style_set_max_height)
    [Anonymous Symbol]                       0x08026da4   Section        0  lv_style_gen.o(.text.lv_style_set_outline_color)
    [Anonymous Symbol]                       0x08026dae   Section        0  lv_style_gen.o(.text.lv_style_set_outline_opa)
    [Anonymous Symbol]                       0x08026db6   Section        0  lv_style_gen.o(.text.lv_style_set_outline_pad)
    [Anonymous Symbol]                       0x08026dbe   Section        0  lv_style_gen.o(.text.lv_style_set_outline_width)
    [Anonymous Symbol]                       0x08026dc6   Section        0  lv_style_gen.o(.text.lv_style_set_pad_bottom)
    [Anonymous Symbol]                       0x08026dce   Section        0  lv_style_gen.o(.text.lv_style_set_pad_column)
    [Anonymous Symbol]                       0x08026dd6   Section        0  lv_style_gen.o(.text.lv_style_set_pad_left)
    [Anonymous Symbol]                       0x08026dde   Section        0  lv_style_gen.o(.text.lv_style_set_pad_right)
    [Anonymous Symbol]                       0x08026de6   Section        0  lv_style_gen.o(.text.lv_style_set_pad_row)
    [Anonymous Symbol]                       0x08026dee   Section        0  lv_style_gen.o(.text.lv_style_set_pad_top)
    [Anonymous Symbol]                       0x08026df8   Section        0  lv_style.o(.text.lv_style_set_prop)
    [Anonymous Symbol]                       0x08026f40   Section        0  lv_style_gen.o(.text.lv_style_set_radius)
    [Anonymous Symbol]                       0x08026f48   Section        0  lv_style_gen.o(.text.lv_style_set_rotary_sensitivity)
    [Anonymous Symbol]                       0x08026f50   Section        0  lv_style_gen.o(.text.lv_style_set_shadow_color)
    [Anonymous Symbol]                       0x08026f5a   Section        0  lv_style_gen.o(.text.lv_style_set_shadow_offset_y)
    [Anonymous Symbol]                       0x08026f62   Section        0  lv_style_gen.o(.text.lv_style_set_shadow_opa)
    [Anonymous Symbol]                       0x08026f6a   Section        0  lv_style_gen.o(.text.lv_style_set_shadow_spread)
    [Anonymous Symbol]                       0x08026f72   Section        0  lv_style_gen.o(.text.lv_style_set_shadow_width)
    [Anonymous Symbol]                       0x08026f7a   Section        0  lv_style_gen.o(.text.lv_style_set_text_align)
    [Anonymous Symbol]                       0x08026f82   Section        0  lv_style_gen.o(.text.lv_style_set_text_color)
    [Anonymous Symbol]                       0x08026f8c   Section        0  lv_style_gen.o(.text.lv_style_set_text_font)
    [Anonymous Symbol]                       0x08026f94   Section        0  lv_style_gen.o(.text.lv_style_set_text_line_space)
    [Anonymous Symbol]                       0x08026f9c   Section        0  lv_style_gen.o(.text.lv_style_set_transform_height)
    [Anonymous Symbol]                       0x08026fa4   Section        0  lv_style_gen.o(.text.lv_style_set_transform_width)
    [Anonymous Symbol]                       0x08026fac   Section        0  lv_style_gen.o(.text.lv_style_set_transition)
    [Anonymous Symbol]                       0x08026fb4   Section        0  lv_style_gen.o(.text.lv_style_set_width)
    [Anonymous Symbol]                       0x08026fbc   Section        0  lv_style.o(.text.lv_style_transition_dsc_init)
    lv_switch_anim_completed                 0x08026ff7   Thumb Code    12  lv_switch.o(.text.lv_switch_anim_completed)
    [Anonymous Symbol]                       0x08026ff6   Section        0  lv_switch.o(.text.lv_switch_anim_completed)
    lv_switch_anim_exec_cb                   0x08027003   Thumb Code     6  lv_switch.o(.text.lv_switch_anim_exec_cb)
    [Anonymous Symbol]                       0x08027002   Section        0  lv_switch.o(.text.lv_switch_anim_exec_cb)
    lv_switch_constructor                    0x08027009   Thumb Code    40  lv_switch.o(.text.lv_switch_constructor)
    [Anonymous Symbol]                       0x08027008   Section        0  lv_switch.o(.text.lv_switch_constructor)
    lv_switch_destructor                     0x08027031   Thumb Code     8  lv_switch.o(.text.lv_switch_destructor)
    [Anonymous Symbol]                       0x08027030   Section        0  lv_switch.o(.text.lv_switch_destructor)
    lv_switch_event                          0x08027039   Thumb Code   570  lv_switch.o(.text.lv_switch_event)
    [Anonymous Symbol]                       0x08027038   Section        0  lv_switch.o(.text.lv_switch_event)
    lv_table_constructor                     0x08027279   Thumb Code    58  lv_table.o(.text.lv_table_constructor)
    [Anonymous Symbol]                       0x08027278   Section        0  lv_table.o(.text.lv_table_constructor)
    lv_table_destructor                      0x080272b5   Thumb Code   104  lv_table.o(.text.lv_table_destructor)
    [Anonymous Symbol]                       0x080272b4   Section        0  lv_table.o(.text.lv_table_destructor)
    lv_table_event                           0x0802731d   Thumb Code   648  lv_table.o(.text.lv_table_event)
    [Anonymous Symbol]                       0x0802731c   Section        0  lv_table.o(.text.lv_table_event)
    lv_tabview_constructor                   0x080275a5   Thumb Code   100  lv_tabview.o(.text.lv_tabview_constructor)
    [Anonymous Symbol]                       0x080275a4   Section        0  lv_tabview.o(.text.lv_tabview_constructor)
    lv_tabview_event                         0x08027609   Thumb Code    54  lv_tabview.o(.text.lv_tabview_event)
    [Anonymous Symbol]                       0x08027608   Section        0  lv_tabview.o(.text.lv_tabview_event)
    [Anonymous Symbol]                       0x08027640   Section        0  lv_tabview.o(.text.lv_tabview_set_active)
    [Anonymous Symbol]                       0x08027728   Section        0  lv_tabview.o(.text.lv_tabview_set_tab_bar_position)
    [Anonymous Symbol]                       0x08027840   Section        0  lv_text.o(.text.lv_text_get_size)
    [Anonymous Symbol]                       0x0802795c   Section        0  lv_text.o(.text.lv_text_get_width)
    lv_text_unicode_to_utf8                  0x080279d5   Thumb Code   114  lv_text.o(.text.lv_text_unicode_to_utf8)
    [Anonymous Symbol]                       0x080279d4   Section        0  lv_text.o(.text.lv_text_unicode_to_utf8)
    lv_text_utf8_get_byte_id                 0x08027a49   Thumb Code    52  lv_text.o(.text.lv_text_utf8_get_byte_id)
    [Anonymous Symbol]                       0x08027a48   Section        0  lv_text.o(.text.lv_text_utf8_get_byte_id)
    lv_text_utf8_get_char_id                 0x08027a7d   Thumb Code    54  lv_text.o(.text.lv_text_utf8_get_char_id)
    [Anonymous Symbol]                       0x08027a7c   Section        0  lv_text.o(.text.lv_text_utf8_get_char_id)
    lv_text_utf8_get_length                  0x08027ab5   Thumb Code    48  lv_text.o(.text.lv_text_utf8_get_length)
    [Anonymous Symbol]                       0x08027ab4   Section        0  lv_text.o(.text.lv_text_utf8_get_length)
    lv_text_utf8_next                        0x08027ae5   Thumb Code   318  lv_text.o(.text.lv_text_utf8_next)
    [Anonymous Symbol]                       0x08027ae4   Section        0  lv_text.o(.text.lv_text_utf8_next)
    lv_text_utf8_prev                        0x08027c25   Thumb Code    76  lv_text.o(.text.lv_text_utf8_prev)
    [Anonymous Symbol]                       0x08027c24   Section        0  lv_text.o(.text.lv_text_utf8_prev)
    lv_text_utf8_size                        0x08027c71   Thumb Code    56  lv_text.o(.text.lv_text_utf8_size)
    [Anonymous Symbol]                       0x08027c70   Section        0  lv_text.o(.text.lv_text_utf8_size)
    [Anonymous Symbol]                       0x08027ca8   Section        0  lv_textarea.o(.text.lv_textarea_add_char)
    [Anonymous Symbol]                       0x08027df8   Section        0  lv_textarea.o(.text.lv_textarea_add_text)
    [Anonymous Symbol]                       0x08027f66   Section        0  lv_textarea.o(.text.lv_textarea_clear_selection)
    lv_textarea_constructor                  0x08027f9d   Thumb Code   142  lv_textarea.o(.text.lv_textarea_constructor)
    [Anonymous Symbol]                       0x08027f9c   Section        0  lv_textarea.o(.text.lv_textarea_constructor)
    [Anonymous Symbol]                       0x0802802a   Section        0  lv_textarea.o(.text.lv_textarea_cursor_down)
    [Anonymous Symbol]                       0x08028084   Section        0  lv_textarea.o(.text.lv_textarea_cursor_left)
    [Anonymous Symbol]                       0x08028092   Section        0  lv_textarea.o(.text.lv_textarea_cursor_right)
    [Anonymous Symbol]                       0x0802809a   Section        0  lv_textarea.o(.text.lv_textarea_cursor_up)
    [Anonymous Symbol]                       0x080280ec   Section        0  lv_textarea.o(.text.lv_textarea_delete_char)
    [Anonymous Symbol]                       0x080281cc   Section        0  lv_textarea.o(.text.lv_textarea_delete_char_forward)
    lv_textarea_destructor                   0x080281eb   Thumb Code    42  lv_textarea.o(.text.lv_textarea_destructor)
    [Anonymous Symbol]                       0x080281ea   Section        0  lv_textarea.o(.text.lv_textarea_destructor)
    lv_textarea_event                        0x08028215   Thumb Code  1098  lv_textarea.o(.text.lv_textarea_event)
    [Anonymous Symbol]                       0x08028214   Section        0  lv_textarea.o(.text.lv_textarea_event)
    [Anonymous Symbol]                       0x0802865e   Section        0  lv_textarea.o(.text.lv_textarea_get_cursor_pos)
    [Anonymous Symbol]                       0x08028662   Section        0  lv_textarea.o(.text.lv_textarea_get_one_line)
    [Anonymous Symbol]                       0x0802866c   Section        0  lv_textarea.o(.text.lv_textarea_get_password_bullet)
    [Anonymous Symbol]                       0x080286ac   Section        0  lv_textarea.o(.text.lv_textarea_get_text)
    [Anonymous Symbol]                       0x080286be   Section        0  lv_textarea.o(.text.lv_textarea_set_cursor_click_pos)
    [Anonymous Symbol]                       0x080286d0   Section        0  lv_textarea.o(.text.lv_textarea_set_cursor_pos)
    [Anonymous Symbol]                       0x080287b6   Section        0  lv_textarea.o(.text.lv_textarea_set_one_line)
    [Anonymous Symbol]                       0x08028830   Section        0  lv_textarea.o(.text.lv_textarea_set_text)
    [Anonymous Symbol]                       0x0802896e   Section        0  lv_theme.o(.text.lv_theme_apply)
    [Anonymous Symbol]                       0x0802898e   Section        0  lv_theme_default.o(.text.lv_theme_default_get)
    [Anonymous Symbol]                       0x080289ac   Section        0  lv_theme_default.o(.text.lv_theme_default_init)
    [Anonymous Symbol]                       0x08028abc   Section        0  lv_theme_default.o(.text.lv_theme_default_is_inited)
    [Anonymous Symbol]                       0x08028ada   Section        0  lv_theme.o(.text.lv_theme_get_color_primary)
    [Anonymous Symbol]                       0x08028af8   Section        0  lv_theme.o(.text.lv_theme_get_from_obj)
    [Anonymous Symbol]                       0x08028b10   Section        0  lv_tick.o(.text.lv_tick_elaps)
    [Anonymous Symbol]                       0x08028b3c   Section        0  lv_tick.o(.text.lv_tick_get)
    [Anonymous Symbol]                       0x08028b62   Section        0  lv_tick.o(.text.lv_tick_set_cb)
    lv_tileview_constructor                  0x08028b71   Thumb Code    64  lv_tileview.o(.text.lv_tileview_constructor)
    [Anonymous Symbol]                       0x08028b70   Section        0  lv_tileview.o(.text.lv_tileview_constructor)
    lv_tileview_tile_constructor             0x08028bb1   Thumb Code    28  lv_tileview.o(.text.lv_tileview_tile_constructor)
    [Anonymous Symbol]                       0x08028bb0   Section        0  lv_tileview.o(.text.lv_tileview_tile_constructor)
    [Anonymous Symbol]                       0x08028bcc   Section        0  lv_timer.o(.text.lv_timer_create)
    [Anonymous Symbol]                       0x08028c8c   Section        0  lv_timer.o(.text.lv_timer_delete)
    [Anonymous Symbol]                       0x08028cb2   Section        0  lv_timer.o(.text.lv_timer_get_next)
    [Anonymous Symbol]                       0x08028cd4   Section        0  lv_timer.o(.text.lv_timer_handler)
    [Anonymous Symbol]                       0x08028ec0   Section        0  lv_timer.o(.text.lv_timer_pause)
    [Anonymous Symbol]                       0x08028f1c   Section        0  lv_timer.o(.text.lv_timer_ready)
    [Anonymous Symbol]                       0x08028f78   Section        0  lv_timer.o(.text.lv_timer_resume)
    [Anonymous Symbol]                       0x08028fec   Section        0  lv_math.o(.text.lv_trigo_sin)
    [Anonymous Symbol]                       0x08029092   Section        0  lv_sprintf_builtin.o(.text.lv_vsnprintf)
    lv_win_constructor                       0x080290b3   Thumb Code   126  lv_win.o(.text.lv_win_constructor)
    [Anonymous Symbol]                       0x080290b2   Section        0  lv_win.o(.text.lv_win_constructor)
    [Anonymous Symbol]                       0x08029130   Section        0  main.o(.text.main)
    make_one_button_checked                  0x080292ed   Thumb Code    94  lv_buttonmatrix.o(.text.make_one_button_checked)
    [Anonymous Symbol]                       0x080292ec   Section        0  lv_buttonmatrix.o(.text.make_one_button_checked)
    month_event_cb                           0x0802934d   Thumb Code   172  lv_calendar_header_arrow.o(.text.month_event_cb)
    [Anonymous Symbol]                       0x0802934c   Section        0  lv_calendar_header_arrow.o(.text.month_event_cb)
    month_event_cb                           0x08029441   Thumb Code    54  lv_calendar_header_dropdown.o(.text.month_event_cb)
    [Anonymous Symbol]                       0x08029440   Section        0  lv_calendar_header_dropdown.o(.text.month_event_cb)
    my_constructor                           0x08029479   Thumb Code   224  lv_calendar_header_arrow.o(.text.my_constructor)
    [Anonymous Symbol]                       0x08029478   Section        0  lv_calendar_header_arrow.o(.text.my_constructor)
    my_constructor                           0x08029561   Thumb Code   148  lv_calendar_header_dropdown.o(.text.my_constructor)
    [Anonymous Symbol]                       0x08029560   Section        0  lv_calendar_header_dropdown.o(.text.my_constructor)
    obj_delete_core                          0x08029619   Thumb Code   394  lv_obj_tree.o(.text.obj_delete_core)
    [Anonymous Symbol]                       0x08029618   Section        0  lv_obj_tree.o(.text.obj_delete_core)
    place_content                            0x080297a5   Thumb Code   146  lv_flex.o(.text.place_content)
    [Anonymous Symbol]                       0x080297a4   Section        0  lv_flex.o(.text.place_content)
    pointer_search_obj                       0x08029837   Thumb Code    82  lv_indev.o(.text.pointer_search_obj)
    [Anonymous Symbol]                       0x08029836   Section        0  lv_indev.o(.text.pointer_search_obj)
    position_knob                            0x08029889   Thumb Code   178  lv_slider.o(.text.position_knob)
    [Anonymous Symbol]                       0x08029888   Section        0  lv_slider.o(.text.position_knob)
    position_to_selected                     0x08029941   Thumb Code    82  lv_dropdown.o(.text.position_to_selected)
    [Anonymous Symbol]                       0x08029940   Section        0  lv_dropdown.o(.text.position_to_selected)
    pwd_char_hider                           0x08029995   Thumb Code   128  lv_textarea.o(.text.pwd_char_hider)
    [Anonymous Symbol]                       0x08029994   Section        0  lv_textarea.o(.text.pwd_char_hider)
    pwd_char_hider_anim                      0x08029a15   Thumb Code     2  lv_textarea.o(.text.pwd_char_hider_anim)
    [Anonymous Symbol]                       0x08029a14   Section        0  lv_textarea.o(.text.pwd_char_hider_anim)
    pwd_char_hider_anim_completed            0x08029a17   Thumb Code     6  lv_textarea.o(.text.pwd_char_hider_anim_completed)
    [Anonymous Symbol]                       0x08029a16   Section        0  lv_textarea.o(.text.pwd_char_hider_anim_completed)
    refr_area_part                           0x08029a1d   Thumb Code   442  lv_refr.o(.text.refr_area_part)
    [Anonymous Symbol]                       0x08029a1c   Section        0  lv_refr.o(.text.refr_area_part)
    refr_cursor_area                         0x08029bd7   Thumb Code   468  lv_textarea.o(.text.refr_cursor_area)
    [Anonymous Symbol]                       0x08029bd6   Section        0  lv_textarea.o(.text.refr_cursor_area)
    refr_obj                                 0x08029db1   Thumb Code   924  lv_refr.o(.text.refr_obj)
    [Anonymous Symbol]                       0x08029db0   Section        0  lv_refr.o(.text.refr_obj)
    refr_obj_and_children                    0x0802a185   Thumb Code   144  lv_refr.o(.text.refr_obj_and_children)
    [Anonymous Symbol]                       0x0802a184   Section        0  lv_refr.o(.text.refr_obj_and_children)
    refr_position                            0x0802a215   Thumb Code   292  lv_roller.o(.text.refr_position)
    [Anonymous Symbol]                       0x0802a214   Section        0  lv_roller.o(.text.refr_position)
    refr_size_form_row                       0x0802a349   Thumb Code   216  lv_table.o(.text.refr_size_form_row)
    [Anonymous Symbol]                       0x0802a348   Section        0  lv_table.o(.text.refr_size_form_row)
    refresh_children_style                   0x0802a42d   Thumb Code    62  lv_obj_style.o(.text.refresh_children_style)
    [Anonymous Symbol]                       0x0802a42c   Section        0  lv_obj_style.o(.text.refresh_children_style)
    remove_concurrent_anims                  0x0802a46d   Thumb Code   128  lv_anim.o(.text.remove_concurrent_anims)
    [Anonymous Symbol]                       0x0802a46c   Section        0  lv_anim.o(.text.remove_concurrent_anims)
    report_style_change_core                 0x0802a4ed   Thumb Code    84  lv_obj_style.o(.text.report_style_change_core)
    [Anonymous Symbol]                       0x0802a4ec   Section        0  lv_obj_style.o(.text.report_style_change_core)
    resolve_time                             0x0802a541   Thumb Code   258  lv_anim.o(.text.resolve_time)
    [Anonymous Symbol]                       0x0802a540   Section        0  lv_anim.o(.text.resolve_time)
    rgb888_image_blend                       0x0802a645   Thumb Code   750  lv_draw_sw_blend_to_argb8888.o(.text.rgb888_image_blend)
    [Anonymous Symbol]                       0x0802a644   Section        0  lv_draw_sw_blend_to_argb8888.o(.text.rgb888_image_blend)
    rgb888_image_blend                       0x0802a939   Thumb Code  1176  lv_draw_sw_blend_to_rgb565.o(.text.rgb888_image_blend)
    [Anonymous Symbol]                       0x0802a938   Section        0  lv_draw_sw_blend_to_rgb565.o(.text.rgb888_image_blend)
    rgb888_image_blend                       0x0802aded   Thumb Code   882  lv_draw_sw_blend_to_rgb888.o(.text.rgb888_image_blend)
    [Anonymous Symbol]                       0x0802adec   Section        0  lv_draw_sw_blend_to_rgb888.o(.text.rgb888_image_blend)
    scale_draw_indicator                     0x0802b165   Thumb Code  1400  lv_scale.o(.text.scale_draw_indicator)
    [Anonymous Symbol]                       0x0802b164   Section        0  lv_scale.o(.text.scale_draw_indicator)
    scale_draw_main                          0x0802b6e5   Thumb Code   822  lv_scale.o(.text.scale_draw_main)
    [Anonymous Symbol]                       0x0802b6e4   Section        0  lv_scale.o(.text.scale_draw_main)
    scale_find_section_tick_idx              0x0802ba21   Thumb Code   156  lv_scale.o(.text.scale_find_section_tick_idx)
    [Anonymous Symbol]                       0x0802ba20   Section        0  lv_scale.o(.text.scale_find_section_tick_idx)
    scale_get_center                         0x0802bac3   Thumb Code   138  lv_scale.o(.text.scale_get_center)
    [Anonymous Symbol]                       0x0802bac2   Section        0  lv_scale.o(.text.scale_get_center)
    scale_get_label_coords                   0x0802bb55   Thumb Code   260  lv_scale.o(.text.scale_get_label_coords)
    [Anonymous Symbol]                       0x0802bb54   Section        0  lv_scale.o(.text.scale_get_label_coords)
    scale_get_tick_points                    0x0802bc59   Thumb Code   728  lv_scale.o(.text.scale_get_tick_points)
    [Anonymous Symbol]                       0x0802bc58   Section        0  lv_scale.o(.text.scale_get_tick_points)
    scale_set_indicator_label_properties     0x0802bf37   Thumb Code   216  lv_scale.o(.text.scale_set_indicator_label_properties)
    [Anonymous Symbol]                       0x0802bf36   Section        0  lv_scale.o(.text.scale_set_indicator_label_properties)
    scale_set_line_properties                0x0802c00f   Thumb Code   178  lv_scale.o(.text.scale_set_line_properties)
    [Anonymous Symbol]                       0x0802c00e   Section        0  lv_scale.o(.text.scale_set_line_properties)
    scale_store_main_line_tick_width_compensation 0x0802c0c1   Thumb Code    74  lv_scale.o(.text.scale_store_main_line_tick_width_compensation)
    [Anonymous Symbol]                       0x0802c0c0   Section        0  lv_scale.o(.text.scale_store_main_line_tick_width_compensation)
    scale_update                             0x0802c10b   Thumb Code   220  lv_image.o(.text.scale_update)
    [Anonymous Symbol]                       0x0802c10a   Section        0  lv_image.o(.text.scale_update)
    scroll_anim_completed_cb                 0x0802c1ed   Thumb Code    16  lv_roller.o(.text.scroll_anim_completed_cb)
    [Anonymous Symbol]                       0x0802c1ec   Section        0  lv_roller.o(.text.scroll_anim_completed_cb)
    scroll_area_into_view                    0x0802c1fd   Thumb Code   812  lv_obj_scroll.o(.text.scroll_area_into_view)
    [Anonymous Symbol]                       0x0802c1fc   Section        0  lv_obj_scroll.o(.text.scroll_area_into_view)
    scroll_completed_completed_cb            0x0802c539   Thumb Code    10  lv_obj_scroll.o(.text.scroll_completed_completed_cb)
    [Anonymous Symbol]                       0x0802c538   Section        0  lv_obj_scroll.o(.text.scroll_completed_completed_cb)
    scroll_limit_diff                        0x0802c543   Thumb Code    92  lv_indev_scroll.o(.text.scroll_limit_diff)
    [Anonymous Symbol]                       0x0802c542   Section        0  lv_indev_scroll.o(.text.scroll_limit_diff)
    scroll_to_selected_cell                  0x0802c59f   Thumb Code   110  lv_table.o(.text.scroll_to_selected_cell)
    [Anonymous Symbol]                       0x0802c59e   Section        0  lv_table.o(.text.scroll_to_selected_cell)
    scroll_x_anim                            0x0802c60d   Thumb Code    20  lv_obj_scroll.o(.text.scroll_x_anim)
    [Anonymous Symbol]                       0x0802c60c   Section        0  lv_obj_scroll.o(.text.scroll_x_anim)
    scroll_y_anim                            0x0802c621   Thumb Code    20  lv_obj_scroll.o(.text.scroll_y_anim)
    [Anonymous Symbol]                       0x0802c620   Section        0  lv_obj_scroll.o(.text.scroll_y_anim)
    send_event                               0x0802c635   Thumb Code    94  lv_indev.o(.text.send_event)
    [Anonymous Symbol]                       0x0802c634   Section        0  lv_indev.o(.text.send_event)
    set_ofs_x_anim                           0x0802c693   Thumb Code     6  lv_label.o(.text.set_ofs_x_anim)
    [Anonymous Symbol]                       0x0802c692   Section        0  lv_label.o(.text.set_ofs_x_anim)
    set_ofs_y_anim                           0x0802c699   Thumb Code     6  lv_label.o(.text.set_ofs_y_anim)
    [Anonymous Symbol]                       0x0802c698   Section        0  lv_label.o(.text.set_ofs_y_anim)
    set_y_anim                               0x0802c69f   Thumb Code     4  lv_roller.o(.text.set_y_anim)
    [Anonymous Symbol]                       0x0802c69e   Section        0  lv_roller.o(.text.set_y_anim)
    shadow_blur_corner                       0x0802c6a5   Thumb Code   386  lv_draw_sw_box_shadow.o(.text.shadow_blur_corner)
    [Anonymous Symbol]                       0x0802c6a4   Section        0  lv_draw_sw_box_shadow.o(.text.shadow_blur_corner)
    start_cursor_blink                       0x0802c831   Thumb Code   114  lv_textarea.o(.text.start_cursor_blink)
    [Anonymous Symbol]                       0x0802c830   Section        0  lv_textarea.o(.text.start_cursor_blink)
    style_has_flag                           0x0802c8a5   Thumb Code    88  lv_obj_style.o(.text.style_has_flag)
    [Anonymous Symbol]                       0x0802c8a4   Section        0  lv_obj_style.o(.text.style_has_flag)
    style_init                               0x0802c8fd   Thumb Code  6628  lv_theme_default.o(.text.style_init)
    [Anonymous Symbol]                       0x0802c8fc   Section        0  lv_theme_default.o(.text.style_init)
    style_init_reset                         0x0802e2ef   Thumb Code    26  lv_theme_default.o(.text.style_init_reset)
    [Anonymous Symbol]                       0x0802e2ee   Section        0  lv_theme_default.o(.text.style_init_reset)
    theme_apply                              0x0802e309   Thumb Code  3714  lv_theme_default.o(.text.theme_apply)
    [Anonymous Symbol]                       0x0802e308   Section        0  lv_theme_default.o(.text.theme_apply)
    tileview_event_cb                        0x0802f18d   Thumb Code   184  lv_tileview.o(.text.tileview_event_cb)
    [Anonymous Symbol]                       0x0802f18c   Section        0  lv_tileview.o(.text.tileview_event_cb)
    trans_anim_cb                            0x0802f245   Thumb Code   408  lv_obj_style.o(.text.trans_anim_cb)
    [Anonymous Symbol]                       0x0802f244   Section        0  lv_obj_style.o(.text.trans_anim_cb)
    trans_anim_completed_cb                  0x0802f3dd   Thumb Code   188  lv_obj_style.o(.text.trans_anim_completed_cb)
    [Anonymous Symbol]                       0x0802f3dc   Section        0  lv_obj_style.o(.text.trans_anim_completed_cb)
    trans_anim_start_cb                      0x0802f499   Thumb Code    62  lv_obj_style.o(.text.trans_anim_start_cb)
    [Anonymous Symbol]                       0x0802f498   Section        0  lv_obj_style.o(.text.trans_anim_start_cb)
    trans_delete                             0x0802f4d9   Thumb Code   182  lv_obj_style.o(.text.trans_delete)
    [Anonymous Symbol]                       0x0802f4d8   Section        0  lv_obj_style.o(.text.trans_delete)
    transform_point_array                    0x0802f595   Thumb Code   314  lv_obj_pos.o(.text.transform_point_array)
    [Anonymous Symbol]                       0x0802f594   Section        0  lv_obj_pos.o(.text.transform_point_array)
    transform_point_upscaled                 0x0802f6d5   Thumb Code   190  lv_draw_sw_transform.o(.text.transform_point_upscaled)
    [Anonymous Symbol]                       0x0802f6d4   Section        0  lv_draw_sw_transform.o(.text.transform_point_upscaled)
    transform_rgb565a8                       0x0802f795   Thumb Code   714  lv_draw_sw_transform.o(.text.transform_rgb565a8)
    [Anonymous Symbol]                       0x0802f794   Section        0  lv_draw_sw_transform.o(.text.transform_rgb565a8)
    transform_rgb888                         0x0802fa65   Thumb Code   732  lv_draw_sw_transform.o(.text.transform_rgb888)
    [Anonymous Symbol]                       0x0802fa64   Section        0  lv_draw_sw_transform.o(.text.transform_rgb888)
    transform_vect_recursive                 0x0802fd49   Thumb Code   156  lv_roller.o(.text.transform_vect_recursive)
    [Anonymous Symbol]                       0x0802fd48   Section        0  lv_roller.o(.text.transform_vect_recursive)
    unicode_list_compare                     0x0802fde5   Thumb Code     8  lv_font_fmt_txt.o(.text.unicode_list_compare)
    [Anonymous Symbol]                       0x0802fde4   Section        0  lv_font_fmt_txt.o(.text.unicode_list_compare)
    update_align                             0x0802fded   Thumb Code   110  lv_image.o(.text.update_align)
    [Anonymous Symbol]                       0x0802fdec   Section        0  lv_image.o(.text.update_align)
    update_knob_pos                          0x0802fe5b   Thumb Code   728  lv_slider.o(.text.update_knob_pos)
    [Anonymous Symbol]                       0x0802fe5a   Section        0  lv_slider.o(.text.update_knob_pos)
    update_obj_state                         0x08030139   Thumb Code   502  lv_obj.o(.text.update_obj_state)
    [Anonymous Symbol]                       0x08030138   Section        0  lv_obj.o(.text.update_obj_state)
    value_changed_event_cb                   0x08030349   Thumb Code   128  lv_calendar_header_arrow.o(.text.value_changed_event_cb)
    [Anonymous Symbol]                       0x08030348   Section        0  lv_calendar_header_arrow.o(.text.value_changed_event_cb)
    value_changed_event_cb                   0x0803041d   Thumb Code   112  lv_calendar_header_dropdown.o(.text.value_changed_event_cb)
    [Anonymous Symbol]                       0x0803041c   Section        0  lv_calendar_header_dropdown.o(.text.value_changed_event_cb)
    value_update                             0x0803048d   Thumb Code   228  lv_arc.o(.text.value_update)
    [Anonymous Symbol]                       0x0803048c   Section        0  lv_arc.o(.text.value_update)
    wait_for_flushing                        0x08030595   Thumb Code    48  lv_refr.o(.text.wait_for_flushing)
    [Anonymous Symbol]                       0x08030594   Section        0  lv_refr.o(.text.wait_for_flushing)
    width_to_stride                          0x080305c5   Thumb Code    18  lv_draw_buf.o(.text.width_to_stride)
    [Anonymous Symbol]                       0x080305c4   Section        0  lv_draw_buf.o(.text.width_to_stride)
    year_event_cb                            0x080305d7   Thumb Code   106  lv_calendar_header_dropdown.o(.text.year_event_cb)
    [Anonymous Symbol]                       0x080305d6   Section        0  lv_calendar_header_dropdown.o(.text.year_event_cb)
    i.__0sprintf                             0x08030640   Section        0  printfa.o(i.__0sprintf)
    i.__0vsnprintf                           0x08030668   Section        0  printfa.o(i.__0vsnprintf)
    i.__scatterload_copy                     0x0803069c   Section       14  handlers.o(i.__scatterload_copy)
    i.__scatterload_null                     0x080306aa   Section        2  handlers.o(i.__scatterload_null)
    i.__scatterload_zeroinit                 0x080306ac   Section       14  handlers.o(i.__scatterload_zeroinit)
    _fp_digits                               0x080306bd   Thumb Code   366  printfa.o(i._fp_digits)
    i._fp_digits                             0x080306bc   Section        0  printfa.o(i._fp_digits)
    _printf_core                             0x08030849   Thumb Code  1744  printfa.o(i._printf_core)
    i._printf_core                           0x08030848   Section        0  printfa.o(i._printf_core)
    _printf_post_padding                     0x08030f2b   Thumb Code    36  printfa.o(i._printf_post_padding)
    i._printf_post_padding                   0x08030f2a   Section        0  printfa.o(i._printf_post_padding)
    _printf_pre_padding                      0x08030f4f   Thumb Code    46  printfa.o(i._printf_pre_padding)
    i._printf_pre_padding                    0x08030f4e   Section        0  printfa.o(i._printf_pre_padding)
    _snputc                                  0x08030f7d   Thumb Code    22  printfa.o(i._snputc)
    i._snputc                                0x08030f7c   Section        0  printfa.o(i._snputc)
    _sputc                                   0x08030f93   Thumb Code    10  printfa.o(i._sputc)
    i._sputc                                 0x08030f92   Section        0  printfa.o(i._sputc)
    .Lswitch.table.lv_draw_buf_adjust_stride 0x08030f9c   Data          12  lv_draw_buf.o(.rodata..Lswitch.table.lv_draw_buf_adjust_stride)
    .Lswitch.table.lv_menu_refr_sidebar_header_mode 0x08030fa8   Data          12  lv_menu.o(.rodata..Lswitch.table.lv_menu_refr_sidebar_header_mode)
    SpiTable                                 0x08031010   Data          12  mcu_stm32l41x_spi.o(.rodata.SpiTable)
    [Anonymous Symbol]                       0x08031010   Section        0  mcu_stm32l41x_spi.o(.rodata.SpiTable)
    bDeviceDescTable                         0x080310ac   Data           8  b_device.o(.rodata.bDeviceDescTable)
    [Anonymous Symbol]                       0x080310ac   Section        0  b_device.o(.rodata.bDeviceDescTable)
    bDriverNumberTable                       0x080310b4   Data           2  b_device.o(.rodata.bDriverNumberTable)
    [Anonymous Symbol]                       0x080310b4   Section        0  b_device.o(.rodata.bDriverNumberTable)
    bHalIf_ST7789                            0x080310b8   Data          20  b_drv_st7789.o(.rodata.bHalIf_ST7789)
    [Anonymous Symbol]                       0x080310b8   Section        0  b_drv_st7789.o(.rodata.bHalIf_ST7789)
    cmaps                                    0x080310cc   Data          40  lv_font_montserrat_14.o(.rodata.cmaps)
    [Anonymous Symbol]                       0x080310cc   Section        0  lv_font_montserrat_14.o(.rodata.cmaps)
    .Lswitch.table.UART_SetConfig.3          0x080310f4   Data          16  stm32l4xx_hal_uart.o(.rodata.cst16)
    UartTable                                0x08031104   Data          16  mcu_stm32l41x_uart.o(.rodata.cst16)
    [Anonymous Symbol]                       0x08031104   Section        0  mcu_stm32l41x_uart.o(.rodata.cst16)
    opa2_table                               0x08031114   Data           4  lv_font_fmt_txt.o(.rodata.cst4)
    [Anonymous Symbol]                       0x08031114   Section        0  lv_font_fmt_txt.o(.rodata.cst4)
