:020000040800F2
:1000000018160010A1010008951D0008811D0008A8
:10001000911D0008A50800086129000800000000E3
:100020000000000000000000000000005D1F00084C
:10003000A708000800000000971D00085F1F0008C7
:10004000BB010008BB010008BB010008BB010008A0
:10005000BB010008BB010008BB010008BB01000890
:10006000BB010008BB010008BB010008BB01000880
:10007000BB010008BB010008BB010008BB01000870
:10008000BB010008BB010008BB010008BB01000860
:10009000BB010008BB010008BB010008BB01000850
:1000A000BB010008BB010008BB010008BB01000840
:1000B000BB0100080000000000000000BB010008B8
:1000C000BB010008BB010008BB010008BB01000820
:1000D000BB01000855290008BB010008BB0100084E
:1000E000BB010008BB010008000000000000000088
:1000F0000000000000000000000000000000000000
:1001000000000000BB01000800000000BB01000867
:100110000000000000000000BB010008BB01000857
:10012000BB010008BB010008BB010008BB010008BF
:10013000BB010008000000000000000000000000FB
:10014000BB010008BB010008BB0100080000000063
:10015000BB010008BB010008831D0008BB010008AB
:10016000BB010008BB010008BB0100080000000043
:10017000BB010008BB0100080000000000000000F7
:10018000BB010008BB010008BB010008DFF80CD070
:1001900000F044FB00480047319102081816001097
:1001A0000648804706480047FEE7FEE7FEE7FEE711
:1001B000FEE7FEE7FEE7FEE7FEE7FEE7EB1F0008CF
:1001C0008D0100082DE9F05F0546002092469B4610
:1001D00088460646814640241BE02846414647465D
:1001E000224600F06BFA53465A46C01A914110D38A
:1001F00011461846224600F052FA2D1A67EB010804
:100200004F4622460120002100F049FA17EB000971
:100210004E41201EA4F10104DFDC484631462A4647
:10022000434600F000B830BCBDE8C09F2DE9F04166
:100230000024061B254671F1000605DA012400277B
:10024000D0EB070067EB0101161E73F1000605DA1B
:100250000027D2EB0702012567EB0303FFF7B2FF8C
:1002600086460E4617469C46AC4204D00025D0EB8D
:10027000050E65EB010624B10020D2EB000760EB10
:10028000030C704631463A466346BDE8F08140EAC9
:1002900001039B0703D009E008C9121F08C0042A04
:1002A000FAD203E011F8013B00F8013B521EF9D2EB
:1002B0007047D2B201E000F8012B491EFBD2704713
:1002C0000022F6E710B513460A4604461946FFF722
:1002D000F0FF204610BD421C10F8011B0029FBD185
:1002E000801A704710B5002200E0521C835C8C5CC1
:1002F000A34201D1002BF8D1D8B2E1B2401A10BD0F
:100300002DE9FE4F804681EA0300C00F0C460090A5
:1003100021F0004123F00045B8EB0200A94105D2CD
:100320004046214690461C460B46024623F00040BC
:10033000104347D0270DC7F30A00C3F30A510290B8
:10034000401A019040286BDAC3F3130040F4801B7D
:100350000098924620B10023D2EB030A63EB0B0B0B
:1003600001985946C0F14002504600F098F90646FF
:100370000D4650465946019A00F0B0F910EB0800BE
:100380006141002487EA115284EAE7731A4340D09E
:10039000009A62B3019A012A4FEA075215DC001B4A
:1003A00061EB02014FF0004202EA0752CDE9004240
:1003B000001C41F5801132462B4600F0B0F903B025
:1003C00000F045B840462146F9E7001B61EB020109
:1003D000001C41F5801300185B412018A2F500179E
:1003E00047EB030140EAD570B6196D4111E06D0885
:1003F0004FEA360645EAC0754FEA0752001B61EB2B
:100400000201001C41F5801149084FEA3000001933
:10041000514132462B4603B000F01CB800F070B9D1
:100420000098012240000023D0EB020263EBE0734E
:10043000009821464FEAE074B8EB000061EB04013C
:10044000E9E783F000435BE781F0004158E730BC07
:10045000BDE8C08F30BCBDE8C04FFFF7DFBF2DE95E
:10046000FE4F81EA030404F0004421F000410094AF
:100470004FF0000B23F0004350EA01045ED052EA33
:1004800003045BD0C3F30A54C1F30A552C44A4F20D
:10049000F3340194A0FB0254C1F3130141F4801121
:1004A000C3F3130343F4801301FB024400FB034E28
:1004B000840A970A44EA815447EA8357A4FB0768F1
:1004C00002958D0A05FB07854FEA932C04FB0C541B
:1004D0002705029D4FEA065847EA1637B5EB08058F
:1004E0006EEB070C870E920E47EA811742EA8312E1
:1004F000A7FB0201B6EB0B0164EB00042B0D43EAF2
:100500000C335E1844EB1C50DA465146E7FB0201FF
:10051000C5F313044FEA0B3343EA14534FEA043292
:10052000019C43EA0603A4F10C040294009CCDE96B
:1005300000B400F0F4F803B000F003B80020014666
:10054000F9E730BCBDE8C08F2DE9F04D81EA030426
:1005500004F0004B21F0004514464FF0000A23F050
:10056000004150EA050220D054EA01021DD0C5F333
:100570000A570246C5F31303C1F31300C1F30A5629
:1005800040F4801543F48013A7EB0608101BD646F1
:1005900008F2FD3873EB050002D308F1010801E011
:1005A00092185B41B8F1000F03DA00200146BDE864
:1005B000F08D00204FF48011064684460EE0171B94
:1005C00073EB050705D3121B63EB050306434CEAE7
:1005D000010C49084FEA300092185B4150EA0107CC
:1005E000EDD152EA030012D082EA040083EA050149
:1005F000084305D0101BAB4106D20122002306E0C0
:1006000000224FF0004302E06FF0010253101AEB9A
:1006100006004CEB085110EB0A0041EB0B01BDE862
:10062000F04D00F06DB80EB540F23341029100215B
:10063000CDE900110A460B4600F071F803B000BD89
:10064000C1F30A5210B5C1F3130140F2FF3341F474
:1006500080119A4201DA002010BD40F233439A42E1
:10066000A2F2334203DC524200F028F810BD904061
:1006700010BD30B50B46014600202022012409E0C0
:1006800021FA02F59D4205D303FA02F5491B04FA4B
:1006900002F52844151EA2F10102F1DC30BD202A2A
:1006A00004DB203A00FA02F1002070479140C2F1C9
:1006B000200320FA03F3194390407047202A04DBFB
:1006C000203A21FA02F00021704721FA02F3D040CB
:1006D000C2F120029140084319467047202A06DBE8
:1006E000CB17203A41FA02F043EAE07306E041FA00
:1006F00002F3D040C2F120029140084319467047EE
:1007000010B5141E73F1000408DA401C41F1000119
:1007100092185B411A4301D120F0010010BD2DE970
:10072000F04D92469B4611B1B1FA81F202E0B0FA67
:1007300080F220329046FFF7B2FF04460F4640EAAF
:100740000A0041EA0B0153465A46084313D01146AA
:1007500053EA010019D0C8F140025046FFF7AEFF3E
:1007600005460E46504659464246FFF798FF084355
:1007700005D0012004E020463946BDE8F08D002078
:10078000054346EAE0762C4337430A986305E40ABA
:10079000A0EB08000022FD0A44EA47540A3002D5C3
:1007A00000200146E9E7010510196941DDE9084526
:1007B00000196941BDE8F04DA2E7C1F30A52C1F347
:1007C000130140F2FF3341F480119A4202DA002013
:1007D0000146704740F233439A42A2F2334202DCB0
:1007E0005242FFF76BBFFFF75ABF000030B5041E3F
:1007F00071F1000404DB4FF00044404264EB01015E
:10080000141E73F1000405DB1C464FF000435242F6
:1008100063EB0403994208BF904230BD1CB5094800
:100820000090094801900546009C06E0E06840F011
:10083000010394E8070098471034AC42F6D3FFF761
:10084000A9FC00000C7C03083C7C030870B58C18E4
:1008500010F8015B15F0070301D110F8013B2A11D4
:1008600006D110F8012B03E010F8016B01F8016BC1
:100870005B1EF9D12B0705D40023521E0DD401F8BD
:10088000013BFAE710F8013BCB1A921C03E013F886
:10089000015B01F8015B521EF9D5A142D8D30020BB
:1008A00070BD0000FEE77047EFF3108072B600BF26
:1008B000FEE7014690F82500022815D10868D1E925
:1008C00010C3026822F00E020260026822F00102E8
:1008D000026003F01C00012202FA00F0CCF80400D0
:1008E00081F82520002002E00420C86301200022B6
:1008F00081F82420704790F82510022923D180B573
:100900000168D0F838E0D0E910C30A68BEF1000FE2
:1009100022F00E020A600A6822F001020A6003F067
:100920001C014FF0010202FA01F1CCF804104FF063
:10093000000180F8252080F8241001D0F047002124
:10094000BDE8804002E00421C163012108467047F0
:100950002DE9F04F82B00D68002D00F0C58000F148
:100960003847860546EA972741F20006C4F6000696
:10097000072240F2004EB04208BF0422C4F2010E2A
:10098000042F38BF3A464FF0000C01240027002600
:10099000009200BF04FA06FB15EA0B0800F09A80EB
:1009A000D1F804A003230AF003056A1EBB40012A04
:1009B0006FEA030910D88268CB6802EA0902BB40DB
:1009C0001A4382604268CAF3001322EA0B02B34062
:1009D0001A43426004E000BF032D01D103251FE04C
:1009E000C2688B6802EA0902BB401A43022DC2604A
:1009F00016D16FF0030202EA560202440CF01C0505
:100A00000F23D2F820A003FA05FB0B692AEA0B0A90
:100A1000AB4043EA0A031362D1F804A00AF00305CD
:100A2000026805FA07F302EA09021A431AF4403F82
:100A300002604FD041F26003C4F202031A684FF61D
:100A4000084A42F001021A601A68CFF6FF7A02F0F3
:100A500001020192019A26F00302724452F80A90B0
:100A60000CF00C050F23009CAB4029EA030304FAA9
:100A700005F52B4342F80A30DEF808204B6842EABD
:100A8000080540F20C49DC0258BF22EA0805CEF8FE
:100A90000850C4F20109D9F800209D0242EA080476
:100AA00058BF22EA0804C9F80040DEF804209D037C
:100AB00042EA080458BF22EA0804CEF80440DEF8EF
:100AC0000020DB0342EA080458BF22EA0804CEF8FB
:100AD000004001240D68013635FA06F207F10207DD
:100AE0000CF1040C7FF456AF02B000F000B830BC3B
:100AF000BDE8C08F1823002A08BF2823C1507047C3
:100B000040F21460C1F200000068704740F23410F7
:100B100040F21461C1F20000C1F2000100780A68DD
:100B200010440860704780B5032000F088F800206A
:100B300000F007F808B1012080BD00F02CF800207B
:100B400080BDB0B540F23411C1F200010978F9B1AD
:100B5000044640F20000C1F200004FF47A720068CF
:100B6000B2FBF1F1B0FBF1F000F0E4FE0F2C4FF01E
:100B700001050ED868B94FF0FF302146002200254C
:100B800000F032F840F23810C1F20000046000E0DA
:100B900001252846B0BD82B041F25800C4F20200DF
:100BA000816841F001018160816801F001010191DA
:100BB0000199016841F080510160006800F08050A7
:100BC0000090009802B0704700280CD400F01F017C
:100BD000012202FA01F11C2202EAD0004EF20012B8
:100BE000CEF200028150704710B54EF60C5CCEF28A
:100BF000000CDCF80030C3F3022E8EF00704042C46
:100C000028BF0424BEF103034FF0FF3E0EFA04F4A4
:100C100038BF0023A14399400EFA03F39A431143CE
:100C200000F00F0200F160430901043A03F5644348
:100C30006244002848BF02F10C03197010BD4EF643
:100C40000C51CEF200010A684FF6FF031A4060F320
:100C50000A2242F0806040F0FD700860704700009A
:100C600047F2000CC4F2000CDCF80020B0F5007F65
:100C700002F4C0602AD1B0F5007F31D0DCF800006A
:100C8000012262F34A20CCF8000040F20000C1F2D9
:100C900000000068322358434DF68363C4F21B33CF
:100CA000A0FB030302EB9340002200BFDCF814100A
:100CB000013842F10003490501D5002BF6D1DCF8DB
:100CC0001400400544BF0320704709E0B0F5806F71
:100CD00006D0DCF80000022161F34A20CCF80000C5
:100CE0000020704747F20000C4F20000006800F4E2
:100CF000C06070472DE9F04381B00446407841F26E
:100D00000C070007C4F202071BD5606C68B1B0F590
:100D1000400F11D0B0F5000F40F00A81386840F460
:100D2000803038604FF4000006E0201D002101F003
:100D300033F8814638B9606CF96F21F440010843FB
:100D4000F8674FF00009A078800753D5F86C5FEA88
:100D5000C00808D4F86C40F08050F864F86C00F0DB
:100D600080500090009847F20005C4F20005286802
:100D700040F480702860FFF7C3FE06462868C0056F
:100D800007D4FFF7BDFE801B0228F7D94FF00309F7
:100D900029E0B9F1000F26D1D7F8840010F4407093
:100DA00017D0A16D884211D0D7F88400D7F88410ED
:100DB00020F4407041F48031C7F88410D7F88410D3
:100DC00021F48031C7F88410C7F88400C00740F0D0
:100DD000B280D7F88400A16D20F4407008434FF032
:100DE0000009C7F88400B8F1000F03D4F86C20F0B4
:100DF0008050F8642168C80705D0F86F226A20F097
:100E000003001043F867880705D5F86F626A20F081
:100E10000C001043F867480705D5F86FA26A20F068
:100E200030001043F867880605D5F86FE26A20F4B1
:100E300040601043F867880505D5F86FE26B20F431
:100E400040201043F867480505D5F86F226C20F460
:100E500040101043F867480605D5F86F226B20F460
:100E600040501043F867080605D5F86F626B20F410
:100E700040401043F867C80505D5F86FA26B20F411
:100E800040301043F867080318D5FA6FA06C22F0C1
:100E900040620243B0F1806FFA6707D0B0F1006F93
:100EA0000CD1386840F48010386007E0201D012123
:100EB00000F072FF2168002818BF8146480318D54A
:100EC000FA6FE06C22F040620243B0F1806FFA6783
:100ED00007D0B0F1006F0CD1386840F48010386052
:100EE00007E0201D012100F057FF2168002818BFEE
:100EF0008146480410D5F86F226D20F04050104311
:100F0000B2F1805FF86707D1201D022100F044FF95
:100F10002168002818BF8146080405D5F86F616D67
:100F200020F080400843F867484601B0BDE8F083F0
:100F30004FF0010907E7FFF7E3FD064641F2883568
:100F40004FF00309D7F8840080073FF542AFFFF761
:100F5000D7FD801BA842F5D945E700002DE9F043F5
:100F600081B0002800F0A68042F20008C4F2020816
:100F70000446D8F800000D4600F0070088420DD264
:100F8000D8F8000020F007002843C8F80000D8F87F
:100F9000000000F00700A84240F08C80206841F279
:100FA0000809C107C4F2020934D0606840B10228C0
:100FB0000BD003280ED159F8081C89010ED479E012
:100FC00059F8081C890709D474E059F8081C8903EA
:100FD00004D46FE059F8081C49056BD5D9F8001006
:100FE00021F003010843C9F80000FFF789FD064618
:100FF00041F28837D9F80000616800F00C00B0EBCE
:10100000810F06D0FFF77CFD801BB842F2D9032088
:1010100051E02068810707D5D9F80010A26821F0B7
:10102000F0011143C9F80010D8F8001001F00701D1
:10103000A9420CD9D8F8001021F007012943C8F8BB
:101040000010D8F8001001F00701A94232D1410781
:1010500007D5D9F80010E26821F4E0611143C9F81E
:101060000010000708D5D9F80000216920F460506D
:1010700040EAC100C9F8000000F04AF8D9F80010B1
:1010800040F6B472C1F30311C0F60302515C40F2A2
:10109000000201F01F0120FA01F140F23810C1F204
:1010A00000000068C1F20002116001B0BDE8F04329
:1010B000FFF747BD012001B0BDE8F08340F200001A
:1010C00041F20801C1F20000C4F20201006809689F
:1010D00040F6C472C1F30221C0F60302515C01F074
:1010E0001F01C840704740F2000041F20801C1F200
:1010F0000000C4F202010068096840F6C472C1F33E
:10110000C221C0F60302515C01F01F01C8407047C4
:1011100041F20001C4F20201886810F00C02C868B4
:1011200005D00C2A27D100F00300012823D108683C
:10113000000703D4D1F89400000A01E00868000910
:1011400040F6E07300F00F00C0F6030353F82030C0
:10115000002A184618BF00200C2A18BF7047C8681C
:1011600000F0030002280FD0032804BF41F200233F
:10117000C0F27A030CE0042A1DD0082A20D141F2E3
:101180000020C0F27A00704742F20043C0F2F4033C
:10119000C868CA68C0F30210C2F30622C9680130E9
:1011A0005A43B2FBF0F0C1F34161022202EB41016C
:1011B000B0FBF1F0704742F20040C0F2F40070471B
:1011C00000200023C8E7000060B32DE9F04381B0A0
:1011D00041F200060446C4F20206B068F1682278C3
:1011E00000F00C08D00601F003071DD42078C007DA
:1011F00051D0B8F1080F47D0B8F10C0F08BF032F3A
:1012000042D06068B0F5803F07D0B0F5A02F40F025
:101210004182306840F480203060306840F4803093
:10122000306040E201207047B8F1000F1CD0B8F1E7
:101230000C0F08BF012F17D0A1693068002900F0FA
:101240008E8140F001003060FFF75AFC054600BF78
:101250003068800700F19681FFF752FC401B02289E
:101260004FF00300F4D9A6E23068800703D5A069E7
:10127000002800F00D82206A3168090700F10B8117
:10128000D6F89410090907E13068800303D5606837
:10129000002800F0FD81207880072CD5B8F1040FDC
:1012A0001BD0B8F10C0F08BF022F16D0E1683068D0
:1012B000002900F0078240F480703060FFF720FCC6
:1012C000054600BF306840050ED4FFF719FC401BEF
:1012D00002284FF00300F5D96DE23068400503D5D0
:1012E000E068002800F0D4817068216920F0F8508F
:1012F00040EA016070602078000760D420784007E1
:1013000074D42078800600F1AB80A06A002800F039
:101310005182022840F04881F068E16A00F003023F
:101320008A4240F06581226B6FF00F0300F070017C
:1013300003EB0212914240F05B81616B00F4FE42CC
:10134000B2EB012F40F05481A16B00F07842B2EB78
:10135000C16F40F04D81E26B0023CFF6E07303EAEA
:10136000025200F4C001A2F50012914240F0408107
:10137000216C4FF07E4202EA016100F0C06001F191
:101380007E41884240F034813068800100F1128251
:10139000306840F080703060F06840F08070F0603D
:1013A000FFF7AEFB04463068800100F10382FFF7CF
:1013B000A7FB001B02284FF00300F4D9FBE1616991
:1013C000D6F89400002900F0B58040F00100C6F87E
:1013D0009400FFF795FB0546D6F8940080078DD45E
:1013E000FFF78EFB401B0228F6D94AE1B06D5FEA99
:1013F000C00908D4B06D40F08050B065B06D00F009
:1014000080500090009847F20007C4F20007386847
:10141000C00512D4386840F480703860FFF770FB64
:10142000054600BF3868C00507D4FFF769FB401BBD
:1014300002284FF00300F5D9BDE1A068012808D0CB
:10144000052840F00281D6F8900040F00400C6F86C
:101450009000D6F8900040F00100C6F8900002E13C
:10146000616AD6F89800002900F0DB8040F00100A6
:10147000C6F89800FFF744FB054600BFD6F8980071
:1014800080073FF542AFFFF73BFB401B02284FF0C0
:101490000300F3D98FE1316801F0F001884216D9D9
:1014A00000F017FD002840F0F380306840F008009D
:1014B00030603068D4E9071220F0F000104330604B
:1014C000706820F47F4040EA0120706014E03168C9
:1014D000B8F1000F41F008013160316821F0F001EE
:1014E00041EA000131607168E26921F47F4141EA1B
:1014F0000221716000F0C780FFF70AFEB16840F674
:10150000B472C1F30311C0F60302515C40F2000251
:1015100001F01F0120FA01F140F23810C1F2000081
:101520000068C1F200021160FFF70BFB002840F0D9
:1015300042815BE620F00100C6F89400FFF7E0FA74
:10154000054600BFD6F8940080077FF5D7AEFFF7B9
:10155000D7FA401B02284FF00300F3D92BE120F00B
:1015600001003060FFF7CCFA054600BF3068800705
:101570007FF53CAEFFF7C4FA401B02284FF0030092
:10158000F4D918E1306840F0080030603068D4E9E0
:10159000071220F0F00010433060706820F47F40A4
:1015A00040EA0120706021E6B8F10C0F70D030687D
:1015B00020F0807030603068000103D4F06820F0C3
:1015C0000300F060F0684FF6FF71CFF6EE6108405F
:1015D000F060FFF795FA04463068800140F1EA8038
:1015E000FFF78EFA001B03284FF00300F4D3E2E06C
:1015F000B8F10C0F4CD03068400149D4306820F06D
:1016000080703060FFF77CFA05463068800140F159
:101610009480FFF775FA401B02284FF00300F4D9BD
:10162000C9E020F00100C6F89800FFF769FA054606
:10163000D6F8980080077FF568AEFFF761FA401B87
:1016400002284FF00300F3D9B5E0D6F89010002837
:1016500021F00101C6F89010D6F8901021F0040195
:10166000C6F8901040D0FFF74BFA054641F2883794
:10167000D6F89000800748D4FFF742FA401BB842E2
:10168000F6D9032097E000F024FC00283FF434AFA3
:10169000012090E0316821F480313160316821F41B
:1016A00080213160D0B3FFF72BFA05463068800304
:1016B0003FF5F1ADFFF724FA401B64284FF003001B
:1016C000F4D978E020F480703060FFF719FA05460D
:1016D000306840057FF50FAEFFF712FA401B022875
:1016E0004FF00300F4D966E0FFF70AFA054641F22D
:1016F0008837D6F89000800707D5FFF701FA401B1E
:10170000B8424FF00300F4D955E0B9F1000F3FF5AE
:10171000F8ADB06D20F08050B065F2E5FFF7F0F95C
:101720000546306880037FF5B6ADFFF7E9F9401B49
:1017300064284FF00300F4D93DE0F06848F28C01D2
:10174000C0F29D1104F12C0700EA010C8ECF6FF05E
:101750000F00D4E90F5400EB02100022CFF6E07224
:1017600041EA0C0102EA05520843A2F500124FF0CB
:101770007E4540EA032005EA0465104305F17E45F5
:1017800040EAC7602843F060306840F08070306005
:10179000F06840F08070F060FFF7B2F904463068FE
:1017A000800107D4FFF7ACF9001B02284FF00300BB
:1017B000F5D900E0002001B0BDE8F08340B1B0B53C
:1017C0000446406A30B10020206104F1140007E0B3
:1017D000012070476068B0F5827F03D004F11C00DF
:1017E000002101600025A56294F85D0020B9204623
:1017F00084F85C5000F04EF8022084F85D00206808
:10180000D4F80CE00268BEF5E06F22F040020260FE
:101810004EF4006298BF0125B2F5706F1CBF002323
:10182000A3624FEA053CD4E90135D4E9042103F46D
:10183000827305F404452B4402F002021A44A369A2
:1018400001F00101E569114403F40072114405F04F
:101850003802256A114405F08002A56A114405F496
:101860000052114301600421626A0EF4706501EABE
:101870001341636B45EA0C0502F01002294303F0A3
:10188000080311431943416000200121206684F8B8
:101890005D10B0BD006843F60001C4F2000188424B
:1018A00018BF70472DE9F04385B041F24C00C4F2F7
:1018B0000200C16840F2004441F48041C160C16847
:1018C000C4F6000401F480410091009901686D465E
:1018D00041F00401016001684FF0020801F00401C9
:1018E0000091009901684FF0000941F00201016088
:1018F0000068032600F00200009000980C20009081
:10190000052704F580602946CDF80480CDF80890BD
:1019100003960497FFF71CF84FF400508DE801037D
:1019200020462946CDE90367FFF712F805B0BDE868
:10193000F0437047411E0020B0EB116F1CBF012027
:1019400070474EF21002CEF2000251604EF6235163
:10195000CEF20001F0230B700721906011607047F8
:10196000704770477047000070B501680446C86949
:101970000E6840F62F028B680240202A06F0200EE7
:101980000AD1BEF1000F07D0616E002900F04B8133
:101990002046BDE87040084740F60F02104209D0CB
:1019A00040F22012C0F2004203F0010C324012EB70
:1019B0000C024FD1226EC5063DD5012A3BD116F04F
:1019C000100238D0102008628868400600F1A38019
:1019D000B4F85800B4F85A10B4F85A20002A00F0AD
:1019E0002281884200F01F81401A00BF216851E81F
:1019F000001F226821F4907142E80013002BF5D1FA
:101A0000216851E8021F226821F0010142E8021317
:101A1000002BF5D12021E16700212166616600BF1E
:101A2000216851E8001F226821F0100142E80013EC
:101A3000002BF5D1B4E0C20240F1B88013F480026B
:101A400000F0B4804FF4801220460A62BDE8704076
:101A5000FFF787BFC20718BF16F4807207D00122B4
:101A60000A62D4F8802042F00102C4F88020820784
:101A70000AD5BCF1000F07D002220A62D4F88020F8
:101A800042F00402C4F8802042070AD5BCF1000FDE
:101A900007D004220A62D4F8802042F00202C4F87F
:101AA000802002070AD55CEA0E0207D008220A62EB
:101AB000D4F8802042F00802C4F8802002050BD53B
:101AC00016F0806208D04FF400620A62D4F88020D9
:101AD00042F02002C4F88020D4F88020002A00F0D0
:101AE000A280800607D5BEF1000F04D0626E12B14D
:101AF000204690472168D4F88000896800F02800CB
:101B000001F04001401858D12046FFF72BFF00207C
:101B1000C4F8800087E0206F01684A6893B2002B08
:101B200000F08180B4F85800834280F07C80A4F8F3
:101B30005A200968890630D4206850E8000F2168CF
:101B400020F4807041E80002002AF5D1206850E8B6
:101B5000020F216820F0010041E80202002AF5D1BD
:101B6000206850E8020F216820F0400041E802029E
:101B7000002AF5D12020E06700202066206850E888
:101B8000000F216820F0100041E80002002AF5D182
:101B9000206FFEF78EFEB4F85800B4F85A10401AC1
:101BA00081B22046BDE87040FFF7DABE010622D5BB
:101BB00016F080011FD0A16EE7E6204600F0C0FAC3
:101BC0002068806840062FD5206850E8020F216801
:101BD00020F0400041E80202002AF5D1206F18B33E
:101BE00042F23111C0F600018163FEF784FED0B1EC
:101BF000206F816BCDE6400615D516F0400012D05F
:101C0000206850E8000F216820F0400041E8000201
:101C1000002AF5D120200021A0672046A166BDE85A
:101C2000704000F0ACB870BD2046BDE87040FFF7D2
:101C300099BE10B598B10446806F28B9002084F889
:101C40007400204600F024F82420A0672068016872
:101C500021F001010160204600F09AFA08B101204C
:101C600010BD606A10B1204600F0C8F921684868CC
:101C700020F490404860886820F02A008860086856
:101C800040F0010220460A60BDE8104000F01CBA96
:101C900010B59EB0044619A81421FEF711FB02A846
:101CA0005C21FEF70DFB206843F60001C4F2010140
:101CB00088422BD048F20001C4F2000188425CD176
:101CC0002020029002A8FFF715F808B1FEF7ECFDFE
:101CD00041F24C00C4F202000169462441F00101C6
:101CE00001610169032201F001010191019901687B
:101CF00041F0040101600068082100F00400019037
:101D0000019840F60000C4F6000023E00120029094
:101D100002A8FEF7EFFF08B1FEF7C6FD41F24C0046
:101D2000C4F202004169252441F4804141614169C6
:101D30004FF4C06201F4804101910199016841F0C2
:101D4000010101600068072100F001000190019885
:101D50004FF09040199202221A9200221B92032205
:101D6000CDE91C2119A9FEF7F3FD2046022100222E
:101D7000FEF73AFF2046FEF727FF1EB010BD704762
:101D8000FEE740F20430C1F20000FFF7EDBD0000B5
:101D9000FEE70000FEE77047F0B581B041F20007B2
:101DA000C4F20207FA680D469107044613D0F8689A
:101DB000216800F0030088424FF0010040F0878066
:101DC000002900F08480F8686168C0F302100130D7
:101DD00088420AD11DE02068032808D0022838D0A4
:101DE000012802D13968890708D401206FE03968D9
:101DF00089035CBF39685FEA4131F6D5F9686268EA
:101E00006FF00F0321F0730103EB0212114308433B
:101E1000F860386820F080603860FEF771FE064692
:101E20003868000105D5FEF76BFE801B0228F7D944
:101E300046E0012D11D015BB386948F2FF01C0F210
:101E4000FF71D4E90223084040EA022040EAC3605F
:101E500026E039684905C8D5D0E748F2FF0138695E
:101E6000CFF6FF112269002301F1B461CFF6E073D0
:101E70000840A16803EA0252A2F500120DE0386999
:101E800048F2FF016269CFF6FF114FF07E43084030
:101E9000A16803EA026202F17E4240EA0120104397
:101EA0003861386840F080603860FEF729FE0546EA
:101EB0003868000106D4FEF723FE401B0228F7D93C
:101EC000032004E0A069396908433861002001B0AB
:101ED000F0BDB0B582B041F25805C4F202052968E0
:101EE0000446C9000FD4286840F080502860286854
:101EF00000F0805001900198FEF7F4FE296821F06F
:101F00008051296001E0FEF7EDFEB0F5007F06D1BB
:101F1000812C08D30120A02C88BF02200DE0802C4A
:101F200003D9032009E0002007E0A4F17000B0FA13
:101F300080F04009802C08BF022042F20001C4F268
:101F400002010A6822F0070202440A60096801F0EF
:101F50000701081A18BF012002B0B0BD704780B554
:101F6000FEF7D4FDBDE8804005F01DB980B596B000
:101F700005A804302421FEF7A3F94FF40070FEF702
:101F80006FFE20B1EFF3108072B600BFFEE74FF492
:101F90008071089110210991012111910A210220DB
:101FA000129107210590CDE90F00CDE9131015908E
:101FB00005A8FFF709F920B1EFF3108072B600BF52
:101FC000FEE70F200090032001900020CDE90200E1
:101FD000049068460421FEF7C1FF20B1EFF31080A2
:101FE00072B600BFFEE716B080BD4EF68850CEF246
:101FF0000000016841F4700101607047416ACA073E
:1020000008D00268D0F828C0536823F4003343EAAC
:102010000C0353608A0708D50268D0F82CC05368B7
:1020200023F4803343EA0C0353604A0708D502685F
:10203000D0F830C0536823F4802343EA0C03536084
:102040000A0708D50268D0F834C0536823F4004367
:1020500043EA0C035360CA0608D50268D0F838C0BA
:10206000936823F4805343EA0C0393608A0608D5EF
:102070000268D0F83CC0936823F4005343EA0C0391
:10208000936080B54A0614D50268D0F840C0536802
:10209000BCF5801F23F4801343EA0C03536008D17E
:1020A000D2F804C0D0F844E02CF4C00343EA0E0395
:1020B0005360090658BF80BD0168806C4A6822F4ED
:1020C00000221043486080BDB0B582B004460020B5
:1020D000C4F88000FEF714FD216805460A6812075F
:1020E0000CD56FF07E4C20464FF4001100222B4699
:1020F000CDF800C000F04CF978B9216808684007B5
:102100000DD56FF07E4C20464FF4800100222B4607
:10211000CDF800C000F03CF908B1032006E0202013
:10212000A067E0670020206684F8740002B0B0BDAC
:10213000806A0021A0F85A10A0F85210FFF712BCD4
:10214000016851E8001F026821F4907142E8001311
:10215000002BF5D1016851E8021F026821F001014E
:1021600042E80213002BF5D1016E01290AD100BF0C
:10217000016851E8001F026821F0100142E80013D5
:10218000002BF5D12021C16700210166416670470F
:10219000B0B5054605F108041ECC0068194341EAB4
:1021A0000403D5F81CE0046846F6F311CEF6FF717F
:1021B0002140194341EA0E010160416848F2000CD8
:1021C00021F4405111434160AA69C4F2000C6045FA
:1021D0001CBF296A0A438168102321F4306111432E
:1021E000816047F6FF71C4F20001884212DC44F2BC
:1021F0000041C4F2000188421BD044F60001C4F241
:10220000000188422AD141F28801C4F20201096822
:102210000B091BE0604513D043F60001C4F2010135
:1022200088421BD141F28801C4F202010B6854A21A
:1022300010E041F28801C4F2020109688B0805E050
:1022400041F28801C4F2020109688B0A41F2F402EA
:10225000C0F6030203F0030152F82130604542F258
:102260000040C0F2F40011D0BEF5004F1DD1082B84
:102270004FF0010100F27E80DFE803F00547507C5B
:102280004A7C7C7C4E00FEF719FF43E0082B4FF0A0
:10229000010100F26F80DFE803F0056D1C6D166D23
:1022A0006D6D1A00FEF70AFF0FE0082B4FF00101D9
:1022B00060D8DFE803F005464F5F495F5F5F4D0080
:1022C000FEF7FCFE42E0FEF723FF10B94FE04FF4AB
:1022D00000406A6802EB420188424FF0010149D395
:1022E0001303984246D8010E000210EB520041F150
:1022F00000010023FDF766FF4FF60052A0F5407184
:10230000C0F20F02914230D333E0FEF7ECFE01E061
:10231000FEF7FEFE10B92AE04FF4004069684A0853
:1023200002EB4000B0FBF1F04FF6EF72A0F11001AC
:1023300091421ED84FF6F0710140C0F342000844AC
:1023400013E0FEF7D0FE01E0FEF7E2FE10B90EE06A
:102350004FF4004069684FF6EF7200EB5100B0FB9C
:10236000F1F0A0F11001914203D82968C860002162
:1023700000E00121002208466A66AA66B0BD00BFDF
:10238000010000000400000002000000080000003E
:102390002DE9F04381B0044600681546C2690E4637
:1023A0001140891BB1FA81F14909A9421ED1DDF81A
:1023B0002080994608F1010787B1FEF7A1FBB8F12B
:1023C000000F15D0A0EB0900404511D82068016826
:1023D000490744BFC1695FEA015122D4C169314054
:1023E000891BB1FA81F14909A942E5D000203AE000
:1023F000206850E8000F216820F4D07041E8000206
:10240000002AF5D1206850E8020F216820F0010071
:1024100041E80202002AF5D12020A06704F17C00E7
:102420001BE04FF400610162206850E8000F216852
:1024300020F4D07041E80002002AF5D1206850E86D
:10244000020F216820F0010041E80202002AF5D1C4
:102450002020A067E06704F18000202101600020B7
:1024600084F87400032001B0BDE8F0832DE9F04F3B
:1024700083B040F20035C1F2000514462A6889464F
:1024800092F85010DDF830A09846890706460AD524
:10249000D76C3046494622464346CDF800A0B8479F
:1024A00000286DD02A68A01B01B2A8EB090380EABE
:1024B000E1301FB2A0EBE13004B283EAE730A0EBD9
:1024C000E7300FFA80FB01200129B8BF4FF0FF3041
:1024D00013680190012F4FF00107304649465246DC
:1024E000B8BF4FF0FF3798475C45CDF808B024DA05
:1024F000C84545D00298B84680B2029F2946450893
:102500004FF0000B254428B2B842A8BFED1B01983C
:10251000A8BF06440868C144036830B20FFA89F1C5
:10252000524698470BF1010040F200310FFA80FB50
:10253000C1F20001BB45E5DB22E0012C20DBA0B2AB
:10254000A84652464FEA500A002500BF0298A3460B
:1025500082440FFA8AF0A042A4BFAAEB040AB9444D
:10256000D8F80000019B0FFA89F11E44036830B2CD
:1025700014469847681C05B222465C465D45E5DB7B
:1025800003B000F000B830BCBDE8C08F032888BF9E
:10259000704740F20032C1F20002126802EBC00044
:1025A000C164032180F85010704700002DE9F04FFE
:1025B00081B040F2003B8246824281460F46C1F222
:1025C000000BC8BF9146B8BF92468B42B8BF1F46AA
:1025D000DBF800008846C8BF984690F858100A9D5E
:1025E00089070AD5466D0FFA8AF039B20FFA89F2D7
:1025F0000FFA88F30095B047A8B10FFA89F40FFAE3
:1026000088F800BF564600BFDBF8000039B2036807
:1026100030B22A469847701C06B2A642F4DD781CF8
:1026200007B24745EEDD01B000F000B830BCBDE8B0
:10263000C08F80B540F20031C1F20001096890E816
:102640000C50006901F12C0787E80C50C86380BD6D
:10265000024690F90000030608605CBF0120704745
:1026600070B5C5B268B20023B0F1FF3F4FF0000073
:1026700013DCC02D01D2FF200FE0E02D01D202209B
:102680000BE0F02D01D2032007E0F82D01D2042049
:1026900003E00620FC2D38BF05200B6092F90030C6
:1026A000B3F1FF3FDBB201DD0B70A4E0C02BC0F043
:1026B000A280E02B0DD2527802F0E005802D40F090
:1026C0009A8002F03F0242EA83120A70C3F3820248
:1026D00016E0F02B16D2557805F0C004802C40F09F
:1026E0008A80927802F0C004802C40F0848002F04E
:1026F0003F0242EA85120A70C5F3830242EA0312DE
:102700004A7070BDF82B21D2557805F0C004802C9A
:1027100071D192F802C00CF0C004802C6BD1D27839
:1027200002F0C004802C66D102F03F0242EA8C1213
:102730000A70CCF3830242EA05124A7003F00702E2
:10274000C5F3011343EA82028A7070BD92F801C09A
:1027500092F803E014790CF0C005FC2B1FD2802DF9
:1027600049D1927802F0C005802D44D10EF0C00509
:10277000802D40D104F0C005802D3CD1CEF38305DF
:1027800045EA0215C2F3011204F03F0442EA8C024A
:1027900044EA8E148A709A010C704D7029E0802DE5
:1027A00029D1957805F0C006802E24D10EF0C00600
:1027B000802E20D104F0C006802E1CD1527902F068
:1027C000C006802E18BF70BD02F03F06C2F3830220
:1027D00042EA04124A70CEF3011242EA85028A707C
:1027E00003F001020CF03F0346EA841643EA82122A
:1027F0000E70CA7070BD70BD844601608280C38057
:102800004FF00410591FCCF82000501FACF82610D0
:10281000ACF81E1045F65D41ACF82400ACF81C0085
:1028200040F20110ACF846104FF6FF71ACF84000D2
:102830000020CCF842100021CCF82C00CCF83C0051
:10284000CCF83600CCF83200CCE90400CCF8180003
:102850000CEBC10201310429D06482F85000F7D199
:1028600040F20031C1F200010120C1F800C0704700
:1028700040F200320146C1F20002012011607047AF
:1028800040F20031C1F200010968A1F8440070472C
:1028900040F20031C1F200010968A1F8420070471E
:1028A00040F20033C1F200031B68588199811A720B
:1028B0007047B0B540F20035C1F20005296839B360
:1028C00091F84800C2071CBF00F0FE0081F84800E4
:1028D000D1E9040490B1A04210D0C1E9050434B19B
:1028E000A17D890744BF217A5FEA01711CD4017A76
:1028F000044601F097012831017200E044B1207ACA
:10290000810603D5204600F055FD207A000700D44B
:10291000B0BD204600F08CF9204600F0A9FC20460E
:10292000BDE8B04000F054B9E189C28991420BD1B1
:10293000618A428A914207D1218A028A914203D157
:10294000A18A828A9142D2D0204600F0BFFC28683A
:102950004069CCE740F2EC30C1F20000FFF704B868
:10296000FEE700002DE9F04383B0164640F208620E
:10297000C1F200021268002A57D007461068894643
:1029800001211D4604F0FEFE00284ED4804630464C
:10299000B74238BF3846ADF8020028460A9C88BFC7
:1029A0003E46ADF80660A94538BF4846ADF804007C
:1029B0000DF1020240464FF0000188BF4D46ADF8D0
:1029C0000850ADF80A4004F0BFF80546404604F050
:1029D0009EF8B5F1FF3F28DCBDF80200BDF80620E7
:1029E000904222D8BDF80410BDF808309FB28EB2D4
:1029F000BE4213D8BDF9020009B2224600F018F811
:102A0000BDF80400BDF80830411C88B29842ADF80A
:102A10000410EFD9BDF80200BDF80620013087B2DE
:102A200096B2B742ADF80200E0D903B0BDE8F0833A
:102A3000F0B581B040F20866C1F200060C4631687C
:102A4000ADF8022019B30A7C8B89E743002A04BF42
:102A50000446D81907B29F4219DAC889844216DAA7
:102A60000868012104F08EFE002810D40546306865
:102A7000808900FB0471284604F01AFD0DF1020163
:102A80002846022205F0CCF8284604F040F801B0B0
:102A9000F0BD2DE9F04F87B00C46109907460D8820
:102AA000501E994616468A4602B2384621462346AB
:102AB00006920095FFF7DAFC601CA9F10101BAF853
:102AC00002500FFA80FB0FFA81F8384659463A4611
:102AD00043460095FFF7CAFCBAF804503846494609
:102AE00032464B46CDF810900095FFF7BFFCBAF880
:102AF0000650304621463246434603940095FFF780
:102B0000B5FC781CBAF80850B11E0FFA80FA0AB268
:102B1000504659465B4605920095FFF7A7FC109971
:102B2000A9F10202A01C4C890FFA82F901B25046A9
:102B300052464B4602910094FFF798FC1098069D70
:102B40008489504641462A4643460094FFF78EFC4E
:102B5000DDF840802846B8F80E4059462A464B46D4
:102B60000094FFF783FCB81C029DB8F81070F11EAA
:102B700004B20AB2204629462B460097FFF776FC9E
:102B800004990398CA1E0330B8F8127016B201B245
:102B90002046224633460097FFF768FC2046059CF6
:102BA000B8F81470494622464B460097FFF75EFC82
:102BB000B8F8167020462946224633460097FFF79C
:102BC00055FC07B000F000B830BCBDE8C08F000075
:102BD0002DE9F04381B040F240150446C1F20005F2
:102BE0000220287020784FF00009C5F80490E0B169
:102BF0004701E846002600BF6068815D304401F06F
:102C00000301022900900DD1817E59B1C5F80480DD
:102C1000008B226BA5F801002846E97090470098C8
:102C200080F81A902036B742E6D101B0BDE8F083B3
:102C3000017800295DD0B0B540F20032C1F2000247
:102C4000126844685389B2F90CC0127A4FF6FF70CB
:102C5000002A18BF0122181A18BF0120104004F1E1
:102C600008020FFA83FE00BF12F8084C12F8073C66
:102C700004F04B040A2C35D110B35D06B2F90050B4
:102C800003F0620458BF631DAE4503F0DF0413DB9D
:102C9000B2F90450AE450FDCB2F90250AC450BDB83
:102CA000B2F90650AC4507DC5C0643F020045CBF7B
:102CB00004F0F9039C1C00BF44F0400312E000BF85
:102CC0005C060FD503F0FE0443EA841444F00804C4
:102CD0009D0658BF43F01004E3B244EA931323F077
:102CE000460300BF02F8073C20320139BCD1BDE8E1
:102CF000B04070472DE9F04F85B015460F9A5FFA46
:102D000080F81C46B8F1DB0F8E460BDCB8F1C30F20
:102D100014DCB8F1B00F23D0B8F1B50F08BF4FF0F5
:102D2000E60828E0B8F1F50F11DCB8F1DC0F1AD095
:102D3000B8F1E40F08BF4FF084081CE0B8F1C40FED
:102D400014D0B8F1D60F08BF4FF0990813E0B8F1CE
:102D5000FC0F0ED0B8F1F60F08BF4FF094080AE050
:102D60004FF0F80807E04FF09A0804E04FF08E08A3
:102D700001E04FF081085189414500F285810F98AB
:102D800080894045C0F080810F98B0F906C01FFAD5
:102D90008CF0002800F078810F9E420732694FEADC
:102DA000D0034FF0010718BF07EBD003834604930D
:102DB0001AB1A8EB010712F807B040F20032C1F2D5
:102DC00000021268DDF8389092F86070CDF80CB00F
:102DD000BF0759D43279CDF804E0012A00F0AA8067
:102DE000002A40F051810F98028910B20128C0F2E8
:102DF0004B81049FA8EB010179434A43002700BFA0
:102E00000499C9B34FF00008F24600975FEA0B40FF
:102E100002921FD00F9800260068875C40F20030B5
:102E2000C1F20000006822460368F8070FFA8AF032
:102E300029B208BF4A4698470AF1010A062EABF1AB
:102E4000010B09D87F085FEA0B4006F10106E5D1C6
:102E500002E000BF4FF0000B08F101080499029A4C
:102E60001FFA88F0884202F10102CFD30F98DDF8F3
:102E70000CB00089DDE9007E791C0FB201B28F42EF
:102E800005F10105BCDBFFE031890EEB0B002944A5
:102E9000D76D0138013902B20BB270462946B847E6
:102EA00031790546012900F0A480039F002940F0F4
:102EB000EB800F98018908B20128C0F2E5800F9AD3
:102EC000049B52895943A8EB020201FB02FA00223B
:102ED000049949B34FF0000B029200BF380415D09B
:102EE0000F984FF00008006810F80A60F0072046BD
:102EF00008BF4846A847B8F1060FA7F1010706D852
:102F00007608380408F10108F0D100E000270BF141
:102F1000010B04991FFA8BF088420AF1010ADDD3F4
:102F20000F98DDE902270089511C0AB201B28A42DA
:102F3000CEDBA9E037893AB2012AC0F2A580A8EB1E
:102F4000010101FB0CF101FB07F65FFA84FC5FFA5B
:102F500089FA24F0FF0829F0FF070024049700BF36
:102F6000BBF1000F39D0C146DDF83C800294002748
:102F7000744600BFD8F80000049B805D0136C0F5A0
:102F8000807101FB0AF21CFB002209FB00F001FB2F
:102F9000030040F20031C1F2000109684FF47F43A1
:102FA000C2F3072203EA10200B68024420B229B2C0
:102FB000D346E2469847D446DA46DDF80CB00137EE
:102FC000B8B2584504F10104D4D3B8F80600B8F8F3
:102FD0000820DDF804E0029CC846A6EB0B0101FACC
:102FE00080F6611C0CB211B28C4205F10105B7DB11
:102FF0004AE0308903990FFA80FCBCF1010F43DBF2
:103000000F9B5FFA89FB5A89B3F90630A8EB0202DD
:1030100042431FFA83FE02FB03F65FFA84F824F0B2
:10302000FF0429F0FF07002029B3DDF83CA04FF092
:1030300000090490DAF80000805D0136C0F5807167
:1030400001FB0BF218FB0022604301FB0700C2F3F7
:1030500007214FF47F4202EA10200844A847039951
:1030600009F101091FFA89F08842E3D3BAF806E0B2
:10307000BAF808C00498431C721A18B20FFA8CF3FD
:10308000984202FA8EF6CFDB05B000F000B830BCF3
:10309000BDE8C08F2DE9F04F8BB004460089237D39
:1030A00066680590B4F90A20B4F90E10A089069359
:1030B00000230A9396B3336883B3D4F80080B8F141
:1030C000000F2BD0B6F90870891AB94226DB1FFA17
:1030D00082FEF288B4F818900892E28A1FFA87FC00
:1030E00009920122454600BF2B780A2B02D013B962
:1030F00003E000BF01320135F6E7069B13F0300F05
:103100000FD0012392B2CFF6FF739B1A03FB09F392
:1031100002FB1732114401310A0403D50BB000F051
:10312000A3B80021069B09B2C3F3001211417144F8
:1031300007910599401A00F1010EC3F34000049075
:1031400009EB0C00CDE9020E0020414691F9003058
:10315000DAB28AB30A2A2FD07789BB4202DBB5895B
:10316000AB4201DD0131F1E73569DDF820C015B171
:10317000DB1B15F803C0099B184453B2B3F1FF3FA2
:103180006044EFDCC02A02D24FF0FF3210E0E02AA8
:1031900001D202220CE0F02A01D2032208E0F82A30
:1031A00001D2042204E0FC2A4FF0060238BF0522B7
:1031B00011444000CAE700BF0999081A704400B2E0
:1031C0000028ABD4049980B2C8400699DDF814A059
:1031D000C90708BF824400BF98F900905FFA89FBD5
:1031E000BBF1000F9AD0BBF10A0F34D040460AA9B8
:1031F000FFF72EFA40F20031C1F2000109680746DC
:10320000C96A69B1079A238A658A4FFA8BF00FFA67
:103210008AF112B2CDE90056FFF76CFD66680DE049
:103220005FEA09600AD53169089819B17089A9EB7C
:103230000000085C0999514401EB000A31690898C3
:1032400019B17089A9EB0000085C0999B844514490
:1032500001EB000AC0E707980299DDF80CE008448A
:1032600008F1010807906FE730BCBDE8C08F00008F
:103270002DE9F04381B00446007820B34FEA4018AE
:10328000002700BF6068C65D06F00301022917D160
:10329000C51995F80190B00603D56A6820462946FD
:1032A000904770B2B0F1FF3F0ADC16F0080018BF7B
:1032B00019F0410004D06A6820462946904700BFB3
:1032C0002037B845DED101B0BDE8F08340B12DE92B
:1032D000F04F89B00446007A800703D4FF205FE0F6
:1032E000FF2060E0A07DE68910F0010040F2003090
:1032F000278AC1F20000B4F812A094F82C101CBF69
:1033000003360337006818BFAAF1030A40692A226E
:10331000A0424FF0280008BF262208BF2420205AD0
:10332000A7F1010BA55AADF818000BEB01000FFA3D
:1033300086F80FFA8AF939B203B240464A46ADF828
:103340001A500095FFF732F9D4E90601ADF8127072
:10335000CDE90201F01CADF8100094F82C0094F8AF
:1033600022105844ADF8160094F920008DF81C1076
:1033700094F92110ADF81E0002A8ADF814A0ADF824
:103380002010FFF787FE94F82C004A46384401B21B
:1033900049F6135740460B460097FFF767F80020A1
:1033A00009B000F002B840B2704730BCBDE8C04F71
:1033B000FFF7F9BF2DE9F04381B00446C789B0F8A3
:1033C0001080B0F81290007AA68A00F0DF010007A2
:1033D00021720FD440F20030C1F2000000680FFAF1
:1033E00089F2B0F8465038B233B201460095FFF783
:1033F000DDF845E0A07D490617D410F0010114D096
:1034000045F6703CC0F6030C38B20FFA88F10FFA9B
:1034100089F233B2CDF800C0FFF73BFBA07D033744
:1034200008F10308A9F10309033E80070AD52046E5
:10343000FFF74CFF207A41061FD494F82C0040443B
:1034400000F10108A58938B20FFA88F10FFA89F264
:1034500033B20095FFF7AAF8207888B1616800BF01
:103460000A7802F00B030A2B04BF42F060020A70D4
:10347000013801F12001F3D102E000F0BF00207219
:1034800001B0BDE8F08370470020704710B582B0EE
:1034900003F079FE40F24C14C1F200042168401A96
:1034A0000B2812D303F06FFE20600DF1020000F034
:1034B00012F850B9BDF902009DF80620BDF90410BC
:1034C000002A18BF0122FFF7EBF9FFF7F2F925F008
:1034D00001FC02B010BD70B582B040F20866C1F2C6
:1034E0000006316800294CD0044600284FF0FF3018
:1034F00049D04968002946D00846002104F042F925
:1035000000283ED405463068806820B901A92846C5
:10351000042204F086F9284603F0F9FA002020601E
:10352000316820718A6872BBBDF80420488A8242E3
:1035300025D38B8A9A4222D2BDF80650CE8AB54254
:103540001DD3B1F818C0654519D2B1F80CE0121AB4
:1035500002FB0EF2181A92FBF0F0CA89AB1B5A4319
:10356000ACEB0603097C92FBF3F2C343002904BFD2
:1035700010460EEB030220800120628020710020A3
:1035800001E04FF0FF3002B070BD000070B540F2B6
:103590002004C1F200042568A54208BF70BD0026C2
:1035A00035F8080C40B335F8061C35F8080CE9B1BD
:1035B00035F8061C884217D103F0E5FD55F8041CC8
:1035C00035F8142C401A904216D955F8103C7BB1AE
:1035D00035F8081C55F81C0C55F80C2C9847002899
:1035E0000ED455F8181C11E035F8080C25F8060C17
:1035F00003F0C9FD45F8040C2D68A542D0D10CE0BC
:1036000035F8081C55F8180C8842F1D155F81C0CF7
:10361000FCF756FE25F8086CEAE770BDB0B582B03D
:10362000C5690C46A87CADF8061030B1022829D037
:1036300001283DD1286804803AE0A878E978002282
:1036400003F0ADFD28796979012203F0A8FD287AFD
:10365000697A002203F0A3FD2878214603F0A1FD3A
:10366000A879E979002203F09AFDA879E979012285
:1036700003F095FD287A697A012202B0BDE8B040D6
:1036800003F08DBD28786978002203F088FDE87A80
:10369000297B0022AC1C03F082FD0DF106012046BF
:1036A000012203F0D9FDE87A297B012203F077FD9E
:1036B00002B0B0BDB0B582B0C5690C46A87CADF80B
:1036C000061030B1022829D001283DD12868448055
:1036D0003AE0A878E978012203F061FD2879697958
:1036E000012203F05CFD287A697A002203F057FD7D
:1036F0002878214603F055FDA879E979002203F0E6
:103700004EFDA879E979012203F049FD287A697A0A
:10371000012202B0BDE8B04003F041BD28786978CD
:10372000012203F03CFDE87A297B0022AC1C03F067
:1037300036FD0DF106012046012203F08DFDE87AE9
:10374000297B012203F02BFD02B0B0BD10B582B081
:10375000C469A27C022A04D202B0BDE81040FFF77F
:10376000A9BF19D148BAADF8060014F8020B01221E
:1037700014F8011C03F013FD607AA17A002203F013
:103780000EFD0DF106012046022203F065FD607A70
:10379000A17A012203F003FD02B010BD10B582B082
:1037A000033020F0030C40F200000CF1080EC2F2CE
:1037B000000000BF0178AA2909D0014631F8013F75
:1037C0008A7843EA02439C4511D09E4513D940684C
:1037D0000028EFD118A41FA128A20220B223CDE90E
:1037E000004C03F0E1FD03F09DFE002021E0AA2142
:1037F00000F8081B1DE0AA22027000F10802552300
:1038000002F80C3091F802E00B8802EB0C0443EA5A
:103810000E43A3EB0C03083BA4F801301B0CE37030
:10382000436863604FEA1C438B70A1F800C044609A
:10383000104602B010BD00BF6D656D7020616C6CEC
:103840006F63206661696C2C2073697A653A256420
:10385000000000002E2E2F2E2E2F2E2E2F426162C2
:10386000794F532F626F732F7574696C732F625F7A
:103870007574696C5F6D656D702E63005F624D6578
:103880006D70416C6C6F63002DE9F04381B0036C87
:10389000022962D00446012969D0002940F0C28083
:1038A000002A00F0BF8010889788D6885188B842D7
:1038B000B846B14688BF804638BF0746B14238BFD8
:1038C0008946188888BF0E46804580F0AB805888AE
:1038D000864280F0A780158920462A21FFF79EFEA8
:1038E000390A2046FFF7E6FE20463946FFF7E2FE9A
:1038F0004FEA18212046FFF7DDFE20464146FFF73C
:10390000D9FE20462B21FFF789FE4FEA19212046D8
:10391000FFF7D0FE20464946FFF7CCFE310A20468D
:10392000FFF7C8FE20463146FFF7C4FE20462C2193
:10393000FFF774FEA8EB0700A6EB09010130013187
:1039400001FB00F6012E10DB20462946FFF7FEFEA4
:10395000013E4FF00000F7D166E0002A4FF0FF3043
:1039600062D0002B60D01068186000205CE0002A54
:1039700058D010889688D5885188B042B146A8465C
:1039800088BF814638BF0646A94238BF8846188896
:1039900088BF0D46814545D25888854242D29768F6
:1039A00020462A21FFF73AFE310A2046FFF782FE21
:1039B00020463146FFF77EFE4FEA19212046FFF7E9
:1039C00079FE20464946FFF775FE20462B21FFF77A
:1039D00025FE4FEA18212046FFF76CFE204641469F
:1039E000FFF768FE290A2046FFF764FE20462946B5
:1039F000FFF760FE20462C21FFF710FEA9EB060022
:103A0000A5EB08010130013101FB00F5012DACDB14
:103A100037F8021B2046FFF799FE013D4FF00000EA
:103A2000F6D101E04FF0FF3001B0BDE8F0832DE9A1
:103A3000F04381B00446022B4FF0FF3031D3904663
:103A40007AB3236C1A885B8892B2B1FBF2F61FFA44
:103A500086F9994525D206FB121520462A21AFB2D8
:103A6000FFF7DCFD390A2046FFF724FEE9B22046C5
:103A7000FFF720FE20462B21FFF7D0FD4FEA19214A
:103A80002046FFF717FEF1B22046FFF713FE20464F
:103A90002C21FFF7C3FDB8F800102046FFF756FEB3
:103AA000022001B0BDE8F08370B540F22804C1F2F5
:103AB00000042568A54208BF70BD40F20466C1F24B
:103AC000000600BF55F81C2C5AB115F8140C01283B
:103AD00007D1A5F12000306055F8181CA5F11000A1
:103AE00090472D68A542EDD170BD000070B540F241
:103AF0003004C1F200042568A54208BF70BD00264D
:103B000055F8180CC0B115F8100C012814D103F0A9
:103B10003AFB55E90312401A90420DD955E90610B7
:103B2000884715F8040C20B103F02DFB45F80C0C68
:103B300002E005F8106C00BF2D68A542E0D170BD11
:103B4000B0B515460C465BB940F27041C1F20001B8
:103B5000D1F8D8201AB129469047034600E0002347
:103B6000142D03D103EB53006043B0BDE91FCAB26B
:103B7000032A03FB04F088BFB0BD022A07D840F631
:103B80009C7249B2C0F6030252F8211001E04FF4D2
:103B900080610844B0BDB0B540F27044C1F2000489
:103BA00004F1AC00582101F08CFB46F67100C0F620
:103BB000000021210022002525F008F8C4F8A80003
:103BC00002F03DFEA4F8A450B0BD2DE9F04F0C6802
:103BD00093689C420EDC8D681668B5420ADBD1F80A
:103BE00004E0D2F80C90CE4504DCD1F80CC0576844
:103BF000BC4503DAFF2358B200F062B8B442A8BF54
:103C0000BE450FDA7745ACEB0E0811DDC0E9004E7A
:103C1000C0E90257D2F80C90D1F804E0D1F80CC0FA
:103C2000012306E09D42EDDCCC45EBDC0023E2E71E
:103C30000023A8EB09067644012E17DBE14515DACF
:103C4000D1F800B000EB03160EEB080C1F0106F1D3
:103C5000040ED1F808A040F807B08EE80016D1F89D
:103C600004E0D1F80CC0D2F80C90013356682C1B3C
:103C70007645C8BFB646E145B8BFCC460E68F445A8
:103C80000EDD1568B5420BDD00EB03174FEA031894
:103C900040F80860C7E901E5C7F80CC00E680133B9
:103CA0009168621A3244012AA5DB321900EB031431
:103CB0001D0101334151C4E901E2C4F80CC09AE787
:103CC00030BCBDE8C08F70B5034691E8015092E862
:103CD0007000C968A042D268C8BF0446AC45C8BFDE
:103CE0006546B645B8BF76469142B8BF0A46002041
:103CF000B4424FF0000183E87000D8BF0121954223
:103D0000D8BF01200840DA6070BD2DE9F04383B0D0
:103D10000C46076809688F422FDB466861688E424F
:103D20002BDBD0F80890A168894526DCD0F80C8000
:103D3000E068804521DC15461AB301A920462A46D1
:103D4000CDE9017600F073F8B8B101A920462A4602
:103D5000CDE9019600F06BF878B101A920462A461A
:103D6000CDE9017800F063F838B101A920462A4670
:103D7000CDE9019800F05BF800E0002003B0BDE859
:103D8000F0830120FAE702688B689A420DDC8268B2
:103D90000B689A4209DB4268CB689A4205DCC0682E
:103DA00049688842A4BF01207047002070472DE970
:103DB000F04383B00C46866809688E420DDBC76805
:103DC00061688F4209DBD0F80080A168884504DC77
:103DD000D0F80490E068814503DD012003B0BDE820
:103DE000F0831546BAB101A920462A46CDE90189DA
:103DF00000F01DF878B901A920462A46CDE90169ED
:103E000000F015F838B901A920462A46CDE9018706
:103E100000F00DF808B10020E0E701A920462A468D
:103E2000CDE9016700F003F880F00100D6E72DE945
:103E3000F0410B680568AB420BDBD0F808C0634566
:103E400007DC4968D0F804E0714502DBC468A14290
:103E500002DD0020BDE8F081012A3EDBACEB05006D
:103E6000013000EBD076A4EB0E00013000EBD077F0
:103E70004FEA66087810B8EB670FB8BF7010904231
:103E8000A8BF10464619B34200EB0E02D8BF9142BC
:103E900011DDB342A4EB00051BDCA94219DB014490
:103EA000091B9A1B00FB00F301FB01F002FB02015E
:103EB0000020994209E0891A9B1B00FB00F201FBDC
:103EC00001F003FB03010020914298BF0120BDE8EF
:103ED000F081ACEB0004A34202DA0120BDE8F081DE
:103EE000A94213DA9142F8DC201AACEB000202EB93
:103EF000D272571000EB62000EEB6202891A181A98
:103F0000494300FB001107FB07F2DCE7221AACEB88
:103F1000020707EBD777084405EB670102EB67025E
:103F2000401A9A1A40437E1002FB020206FB06F179
:103F300000208A42C9E770B591E8085092E8700005
:103F4000C968A342D268B8BF1C46AC45B8BF654635
:103F5000B645C8BF76469142C8BF0A4680E87000A1
:103F6000C26070BDB0B582B09446054691E80D00C0
:103F7000C9681B1A891A01334C1C80B291B29AB2DB
:103F8000A3B2CDF800C002F0E1FF284602B0BDE8C0
:103F9000B0400DF0AFBE00002DE9F04F9DB040F2F3
:103FA000704BC1F2000B38B1C168CBF8101024F08F
:103FB00087FFDBF8100003E00DF0ABFECBF810003C
:103FC000002800F06281416A002900F050810A69EE
:103FD000002A00F04C81C968002900F04881342192
:103FE00000220EF091F8DBF81000D0F8B00221F0BA
:103FF0007DF8DBF81010D1F8B40218B121F076F892
:10400000DBF81010D1F8BC0221F070F8DBF81000DA
:10401000D0F8C00221F06AF8DBF81000D0F8C40232
:1040200021F064F8DBF81000D0F8B012002900F09D
:104030003E81D0F85C12002956D000270DF13409DA
:104040004FF00108C11991F83C12002947D1002412
:104050003C2500BFA7423BD0011991F83C12B9BBE7
:1040600000EB071101F13C0241191046FFF78BFEEE
:104070000146DBF8100059B300EB07113C3142193F
:104080004846FFF758FF48460AF019FBDBF81010C6
:10409000824601EB07103C300AF011FBDBF81010F0
:1040A000064648190AF00BFB8119DBF810008A4517
:1040B0000ED20DF1340C00EB07119CE84C103C3192
:1040C000204481E84C1080F83C82DBF8100000BFEF
:1040D000D0F85C1201348C4205F11005BAD3D0F847
:1040E0005C1201378F42ADD390F83910012940F0AE
:1040F000AF800DF0CEFF0146DBF81000002900F084
:10410000A78000F5197001F030F90146DBF81000C6
:10411000002940F09D802CF03DFADBF81000C269C8
:10412000416A914208BF026ACDE907210DF002FE03
:10413000DBF81010069008460DF097FF05900DA8CB
:104140004021FCF7BDF8DBF81000D0F85C12002924
:104150004DD04FF000094FF0000800BF00EB0901FF
:1041600091F83C12C9BB00F5197001F08BF8A0B3AF
:10417000074600BFDBF81000394600F5197001F062
:1041800094F8DBF81010044601EB091000F13C0232
:104190000DA83946FFF719FD411C1BD001280FDB84
:1041A0005FFA80FA0DAE00BFDBF81000394600F56B
:1041B000197001F0A4F82ECEBAF1010A2EC0F3D185
:1041C000DBF81000394600F5197001F0D7F83846D1
:1041D00017F05CFB002C2746CCD1DBF8100008F16F
:1041E0000108D0F85C121FFA88F94945B6D80021B9
:1041F000CDE90911069900F5197001390B9105995E
:1042000001390C9101F03EF8DDE90775B8B10446BB
:1042100009AE00BF204621463246FFF754FD28462E
:1042200021463A4623460EF0B5FCDBF81000214645
:1042300000F5197001F039F804460028EAD1DBF8DE
:104240001000002100F5197000F0FEFFDBF81000EF
:10425000D0F85C12002900F0D48100BF4D1E39D483
:10426000014491F83B1200292946F7D133E046F288
:10427000A64146F2DD430FF2C437C0F60301C0F693
:104280000303022040F25D120BE046F2A64146F223
:10429000DD43EEA7C0F60301C0F60303022040F29F
:1042A0005712009701F094F81DB000F0DBB900211F
:1042B000C0F85C1246F2A64146F2DD43D8A7C0F62C
:1042C0000301C0F6030302204FF4B872009701F017
:1042D0007FF896E10025362100220DF015FFDBF86E
:1042E000100090F8381090F83A2001F0FE0180F8A4
:1042F000381090F8381042F0020201F0FD0180F809
:104300003810D0F85C1280F83A200129C0F22C81D4
:104310004FF00008029500BF00EB080191F83C1235
:10432000002940F01681A84505D190F8381041F0D9
:10433000010180F8381090F8381000EB081601F0F1
:10434000FD0180F83810D0F8A072416A06F13C09EE
:10435000396090F8391089B30021C7E901110DF0D7
:10436000E9FC0138F860DBF810000DF07EFE013842
:104370003861384609F0A2F9DBF810000DF0DAFCDC
:10438000DBF81010441E08460DF06FFE461E0DA807
:1043900000210022234600960AF0C3F9DBF8100042
:1043A00090F83910012921D0022940F0D28090F8EC
:1043B00038100DF1340941F0020121E056F8401F98
:1043C0000591314651F8042F35460791D9F8001070
:1043D00055F8084F049203910DF047FE8442CDF842
:1043E0002090069615DAD5F800A018E090F838105D
:1043F00090F8382001F0010102F0FD0242EA41018B
:1044000080F8381099E80F0007F1180C8CE80F00BD
:104410009CE0DBF810000DF028FEA0F1010ADBF8AB
:10442000106096F83B000DF027FA00280CBF96F8B4
:104430003B101021DDE90330059AC01A0130A21AA1
:1044400002F101090EF0E8FF716AC968B1FBF0F0F2
:104450004845B8BF814600204D460F90CDE90D007C
:10446000DBF810006C1E30210DAA10940DF04CFEEC
:1044700010980E99461C701A484503DD012D2546FB
:10448000EEDC01E0002D0FDC46F2A64146F2BA3622
:104490000220C0F6030140F2E9325EA3C0F6030633
:1044A000009600F095FF00260698006881190139F2
:1044B000514501DD00242AE0441EAAEB060900BF95
:1044C000DBF81010089A496A1268079B2546681C99
:1044D0001B68C7E9001207F10801344419C1C7E994
:1044E00006203846C7E9083409F0E8F8A94507D19D
:1044F000DBF8100090F8381041F0020180F8381015
:10450000384625F08BFA30195045D9DD601C029DE4
:10451000A2451ED0DBF81010089A496A1268079B62
:104520001B68C7E9001207F1080181E80904C7E91F
:1045300006203846C7E9083A09F0C0F8DBF8100051
:1045400090F8381041F0020180F83810384625F014
:1045500065FADBF8100008F10108D0F85C12884514
:10456000FFF6DAAE90F83A2002F0FD02002980F85A
:104570003A2046D03721002200240DF0C5FDDBF89B
:1045800010000DF086FD0146DBF8100039B390F8FD
:104590003910012923D12BF0FDFFDBF81000D0F8F2
:1045A0005C12E1B100253C26411991F83C1279B921
:1045B00000F5197000F0C3FEDBF810108A19D2E97B
:1045C00001378959D26880E88A00C260DBF81000A0
:1045D000D0F85C1201358D4206F11006E4D33C3070
:1045E00000214FF400721BF087FDDBF81000002162
:1045F00000F50F7020221BF07FFDDBF81000C0F8E3
:104600005C4200F06FF9DBF81000352100220DF05C
:104610007BFD49E66765745F6D61785F726F770057
:104620007468657265206973206E6F2061637469B8
:1046300076652073637265656E0000004E6F2064BE
:104640007261772062756666657200004E6F206445
:104650006973706C617920726567697374657265DE
:104660006400000030BCBDE8C08FB0B540F27044BB
:10467000C1F2000404F1C8000021142200251BF03F
:104680003BFD47F6217040F2C553C0F6000047F6E7
:104690001D7147F61172C0F6030304F1C80CC0F691
:1046A0000001C0F600028CE82700C4F8D830B0BD85
:1046B0002DE9F0479AB0002B51D00D469A46D5E926
:1046C0000B3417468146D2E90010D2E90262CDE9E7
:1046D00016101896199243B9B4F5807F05D16C6B0A
:1046E000B4F5807F1CD04FF48074101A421CA88E41
:1046F000711AA4B2013105F14006CDE9004016A8B7
:10470000029600F039F916AED7E900014CCE199C9B
:104710000244304416925A18189060181792199053
:10472000D9F808200DF1480816A94046FFF7CBFA42
:10473000A8B3E96903A8002217F08AFF01281DD158
:10474000CDE9007803AF484629463A460023CDF824
:1047500008A007F093FE384617F00AFF1FE045F661
:10476000536745F6686145F6E463C0F60307C0F693
:104770000301C0F60303022086220DE045F6A5677B
:1047800045F6686145F6E463C0F60307C0F6030129
:10479000C0F603030320A122009700F019FE1AB00F
:1047A000BDE8F0872DE9F04FA1B0002B6BD08A4611
:1047B000C9691446064612A80022994617F048FF18
:1047C00001286FD1BAF8247094E80F000DF1380C6D
:1047D0000EACBAF826508CE80F002046394609F096
:1047E000AAFF20462946059509F0A0FF37A1374AC0
:1047F000D1E90135C9680A92B2680D910F98D16864
:10480000DDF838C088420B930C9538DC07EB0C01BF
:10481000A1F1010E06AD0DF1480B0DF12808CDE90F
:1048200003EC00BF91688C451CDC00BF2846214684
:10483000FFF749FA48B1304651465A464346CDE95A
:104840000045CDF8089007F019FE1098B26838447A
:104850000E9910909068394481420E91E6DD0F98D0
:10486000DDE903EC059B1199184419441191D168B5
:104870000F908842CDF838C0CDF840E0D2DD12A8C4
:1048800017F076FE1FE045F6536745F6686145F67A
:10489000C863C0F60307C0F60301C0F60303022095
:1048A000AE220DE045F6A56745F6686145F6C8639A
:1048B000C0F60307C0F60301C0F603030320B522C8
:1048C000009700F085FD21B000F008B8010000E07D
:1048D000010000E0010000E0010000E030BCBDE8A4
:1048E000C08F000070B540F270460025C1F200068E
:1048F000741954F8FC0F08B116F0C8FF20460021C7
:104900001C221BF0F9FB1C35702D08BF70BDEFE7B2
:1049100040F27041C1F20001C96E00BF59B14A684E
:10492000824202D00A68824203D10A7E42F001022A
:104930000A764969F2E77047406940F27041C1F276
:104940000001C866704740F27041C1F20001CA6EB2
:10495000C8664261704740F27040C1F2000000F545
:10496000C070042100F0ADBC40F27040C1F2000004
:104970003430202100F0A5BC2DE9F04F8BB0DDE9EB
:1049800014761D468346002B4FF0000308BFB7F591
:10499000807F62D003A8169CCDE90333CDE90513CF
:1049A000CDE9073200F118030293CDE909124FF067
:1049B000010829463A46334600F1080900F1100A79
:1049C000CDE9004820F061FD484629463A46334685
:1049D000CDE9004820F059FD504629463A46334675
:1049E000CDE9004820F051FD029829463A46334669
:1049F000CDE9004820F049FDDDE9032CDDE905673C
:104A0000079C0999B2423546B8BF15468C420B4601
:104A1000B8BF23469D42B8BF2B46B242C8BF164618
:104A20008C42C8BF21468E42C8BF3146089D0A9AB3
:104A3000BC453846B8BF604695421646B8BF2E46BC
:104A4000B042B8BF0646BC45C8BF67469542C8BF1E
:104A50002A469742C8BF3A4603E0B6F5807F99D10F
:104A60000026501E0139CBE90036CBE902100BB00D
:104A700000F000B830BCBDE8C08F40F27040C1F219
:104A80000000DC30182100F01CBC10B582B00DF124
:104A900002000C46FEF71FFD58B9BDF80200BDF834
:104AA00004109DF80620C4E90001002A18BF012265
:104AB000A27402B010BD00002DE9F04F89B0044689
:104AC000054654F8480F18B9E86C002800F07E81BC
:104AD0002E6F002E7CD0029404954FF4807B4FF013
:104AE000000800254FF480743746039638460021AD
:104AF0006E221DF07DFF0544384600216C221DF01A
:104B000077FF06B2B8EB004F38464FF000014FF088
:104B10006D0208BF01261DF06BFF01B2B8EB004F1C
:104B20000FFA8BF006FB00FA20B208BF012101FB4F
:104B300000F938464FEA1A2B4FEA19241DF08AF97A
:104B400007460028D2D128040DD14FF60070C0F2DC
:104B5000FF000AEA0001B1F5803F04D100EA090034
:104B6000B0F5803F15D020B24FF480330FFA8BF1AF
:104B700093FBF0F093FBF1F76A4203B20298002630
:104B800011B23AB206AFCDE90666CDE9007620F063
:104B90007CFC049C002094F89410069001F00F0116
:104BA000032905903BD1039D28461DF0A3FA074633
:104BB00028461DF00DFA0299024609680326284688
:104BC0003B46009605F001FA07460690002639E0BC
:104BD000284618F031FB002800F0F8802F6F0646B9
:104BE00040F2010838468021CEF200081EF05FF83E
:104BF000002857D038461DF00EFB03285ED002284F
:104C000070D001287DD1B8696FF06042411C3846F0
:104C1000002305F041FBE867B869421E6BE0039D85
:104C200028461DF001FB064628461DF021F9E16CDF
:104C300003460C2728463246009705F0C6F906467B
:104C40000027059028461DF093F9C10701D1012FD7
:104C500004DA810704D4B7F1FF3F01DC002106919B
:104C6000410701D4012E04DA000704D4B6F1FF3F56
:104C700001DC0020059006A905AA204627F061FC6A
:104C8000DDE90521284600F03BFCA07A800700F111
:104C90009D800698D4E91412059B0844D118C4E9F4
:104CA000140193E005F178006FF0604741464246F9
:104CB0006FF06043009709F034FD64E0B869396A29
:104CC0006FF06042091A013101EBD17100EB61090B
:104CD00009F101013846002305F0DEFAE867A9F181
:104CE000010208E0396A38466FF06042002305F09F
:104CF000D3FAE8673A6A38464146002305F0CCFA11
:104D000003E06FF06040C5F87C80C5F88400384649
:104D10001DF078FA03280DD002281FD001282CD1CD
:104D2000796938466FF06042002305F021FAA867E0
:104D30007A691CE07869F9696FF06042091A0131FB
:104D400001EBD17100EB610909F101013846002343
:104D500005F00EFAA867A9F1010208E0F9693846E2
:104D60006FF06042002305F003FAA867FA6938463D
:104D70004146002305F0FCF903E06FF06040C5F800
:104D80007880C5F88000A86F08B9C5F87880D5F894
:104D9000800018B96FF06040C5F88000E86F08B96E
:104DA000C5F87C80D5F8840018B96FF06040C5F86C
:104DB0008400A86E20211FF0D9FB30460921002273
:104DC0001FF03EFEA87A80077FF585AE09B000F09F
:104DD00000B830BCBDE8C08F2DE9F04381B0056F4D
:104DE000002D00F03E81044690F89400000700F08A
:104DF000388194F82560284640211DF058FF10B9ED
:104E00000020C4E9160028461DF0FCF9804628461B
:104E10001DF001FA94F89410814601F00F01032966
:104E200021D00C2940F0C6800020B9F1000FA06508
:104E300037D0626E4FF0000C002A7AD094F825101B
:104E400048F21F53C1F164010026C5F2EB1300BF05
:104E500016444A4352FB03F047116332C62A07EB5C
:104E6000D072F5D866E00020B8F1000FE0653CD0C4
:104E7000226E4FF0000C002A79D094F8251048F2E9
:104E80001F53C1F164010026C5F2EB1316444A43D7
:104E900052FB03F778116332C62A00EBD772F5D8BC
:104EA00066E0E06DC6F16401484348F21F51C5F267
:104EB000EB1150FB01F0411101EBD070E065284689
:104EC0001CF0D6FF064628461DF0AEF9E16D0246FD
:104ED0004FF00C0C28463346CDF800C005F075F8AD
:104EE0000246E0652846002120E0A06DC6F164017D
:104EF000484348F21F51C5F2EB1150FB01F041113C
:104F000001EBD070A06528461DF062F806462846E1
:104F10001DF0F0F8A16D034603272846324600979E
:104F200005F053F80146A0652846002200F0E8FA93
:104F30003DE00026606DE16FD4F884208319C4F849
:104F40005CC08B42B8BF0E1AC8BF1946914240F2EE
:104F50000101C8BF161ACEF2000128466FF0604268
:104F6000334605F099F93218284600211CE0002646
:104F7000206DA16FD4F880208319C4F858C08B42EB
:104F8000B8BF0E1AC8BF1946914240F20101C8BF0E
:104F9000161ACEF2000128466FF06042334605F043
:104FA000E7F831182846002201231FF0C0FBA07A41
:104FB000800756D4A06D002853D1E06D002850D151
:104FC000B9F1000F1DD128461DF02EF906462846DE
:104FD0001CF04EFF002E01DC012812DBB6F1FF3F72
:104FE00006DDB0F1FF3F0CDC42422846002102E022
:104FF00028460021324601231FF099FBA07A800742
:105000002FD4B8F1000F1CD128461CF0E1FF064652
:1050100028461DF06FF8002E01DC012811DBB6F1E7
:10502000FF3F05DDB0F1FF3F0BDC4142284601E0C8
:1050300028463146002201231FF079FBA07A800721
:105040000FD428460B2122461FF0FAFCA07A8007D5
:1050500007D494F8940000F0F00084F89400002045
:10506000206701B0BDE8F08370B58CB004460D46F2
:1050700020B90CF04EFE0446002873D020460DF0F7
:105080000DF800286ED094F83A00800720D4002054
:105090007DB3CDE9080020460CF04CFE01380A90A3
:1050A00020460CF0E2FF01380B9004A808AA29461C
:1050B000FEF709FE002855D094F8390002281BD1CC
:1050C00008AB0FCB04F13C0C8CE80F00012042E050
:1050D00032A03AA1CDE9001046F2A64122A6C0F6C0
:1050E00003013EA3032040F20112029600F070F982
:1050F000FEE7C4F85C0235E004AA204630210DF03A
:1051000003F801282ED1D4F85C02A8B1002104AD27
:10511000002604EB011000F13C0128460022FEF7B6
:10512000F4FDF8B90136D4F85C02B1B28842F0D887
:10513000202804D308A900E004A9002000E004A965
:10514000D1E90036D1E9025104EB00120130C2E985
:105150000F36C2E91151C4F85C0220463321002207
:105160000CF0D2FF0CB070BD496E76616C69646161
:1051700074652061726561206973206E6F742061AF
:105180006C6C6F77656420647572696E67207265F8
:105190006E646572696E672E000000002164697399
:1051A000702D3E72656E646572696E675F696E5FD1
:1051B00070726F67726573730000000041737365EE
:1051C00072746564206174206578707265737369A8
:1051D0006F6E3A2025732028257329005F6C765F57
:1051E000696E765F617265610000000010B5002194
:1051F000162204461DF0FCFB40F27041C1F2000192
:105200008A6D4FF0FF3353FA80F3934228BF10BDED
:10521000CA6DC0B202EBC001496852F83020204686
:10522000BDE81040104710B540F27044C1F20004D0
:10523000A06DC0001AF01CFEE06516F03BF8BDE85A
:10524000104016F0E1BE0000D8B1F0B581B046685C
:1052500004469EB10D4600BF2068304447681DB12A
:105260003046A84707E000BF2046314600F086F8E8
:10527000304616F00BFB002F3E46EDD101B0BDE8E5
:10528000F0407047002814BF4068002070470000BD
:1052900048B1416839B10068021D002089580130C9
:1052A0000029FBD17047002070470068084440681F
:1052B0007047006808587047002814BF80680020B5
:1052C00070470331002221F00301C0E9001282601F
:1052D000704710B50446006808301AF0C9FD58B18F
:1052E000216800224250626843185A60626802B125
:1052F0005050A168606001B110BDA06010BDB0B594
:10530000054600284FF0000016D00C46A1B1686891
:10531000A0420DD0286808301AF0AAFD68B12968AB
:1053200062580B1D02B1D05042506050C450B0BD05
:105330002846FFF7CEFF00B1B0BD0020B0BD10B5CC
:105340000446006808301AF093FD58B12268002323
:10535000111D4350A3688350A26802B15050616888
:10536000A06001B110BD606010BD28B1416809B9ED
:10537000806808B1002070470120704780B598B15F
:1053800042688A4211D0D0F800E0826851F80E30AD
:105390008A4215D00EF1040C51F80C000BB143F801
:1053A0000C0008B140F80E3080BD02681144496815
:1053B0000029416007BF002181600020885080BD26
:1053C00083600BB10EEB03000021416080BD000043
:1053D0002DE9F04FADF5497D04460238C0B20328EF
:1053E0004DD8D3A8C89008469A4690460F4621F05B
:1053F00069FB30B1395C5C2906D02F2904D0013813
:10540000F8D14FF0000B01E000F1010B23F096FB07
:1054100040F27046C1F20006D6F86C11054661B341
:10542000D29AC89B0DF1200948464FF4807123F0B1
:1054300030FE44F6D350C1F26200A5FB000112A079
:10544000D6F8702150F8243088094FF47A715F44FF
:1054500000FB1151AA1ACDE9049748AF8DE8070463
:105460000EA238464FF40071CDF8188021F069F88B
:10547000D6F86C21204639469047C6F870510DF594
:10548000497D00F01DB800BFD5670308E067030839
:10549000DB670308EA670308E56703085B25735DBC
:1054A000092825752E253033752C202B25752909C3
:1054B0002025733A2025732025733A25640A0000BD
:1054C00030BCBDE8C08F704710B50446006800BF0F
:1054D000826812B1214690472068006808B12060B8
:1054E000F6E710BD8068002814BF406A00207047AE
:1054F000806800280EBF0020408DC0F381207047D7
:1055000070B50E4611431BD0154604461BF008FC2F
:10551000A0680123D0E9061231442A44C0E90612EA
:10552000204631462A461DF0A9FF20460C210022C4
:105530001FF086FA012818BF70BD20461DF012FF2B
:10554000012070BD2DE9F04114461546B0B161222D
:10555000884607461DF04CFA80B10646006868B1DF
:105560003846414662221DF043FA010606D03368F0
:1055700024F07F41C2B2304698470546200E60F3C2
:105580001F652846BDE8F0812DE9F04F99B004462B
:10559000408DDDF888B040F0080060852285164611
:1055A0009BF8082020461F468A461DF021FA2785D1
:1055B0009BF808200546204651461DF019FA618DDA
:1055C000814621F008004D45608500D174D02685C4
:1055D0009BF80820204651461DF00AFA80462046D6
:1055E0005146278506F01EF800689BF808104246D1
:1055F00021F002FC9BF808000C281DD147F6FF752E
:10560000A94518BFA84517D120461DF0D9FA00EBCF
:10561000D07620461CF0ACFB00EBD070012101EBF2
:10562000660201EB60008242B8BF1046A84508BF81
:105630008046A94508BF814640F27040C1F2000093
:105640001830FFF746FED0B3C0E903890460064670
:105650009BF8080003AC30712046C6F808A008F09B
:10566000FBF84FF24520C0F6020004904FF299403B
:10567000C0F6020006904FF2DD30C0F6020007903F
:1056800000200C904FF000400D90FF200E90BBF8D2
:105690000000BBF802100F9048421090DBE90301B4
:1056A0009DF85A200B9002F0FE008DF85A0020461B
:1056B00003960A9108F0E6F919B000F02FB845F604
:1056C00015510BA0C0F6030146F23B17CDE90010BF
:1056D00046F2B221C0F60307C0F6030107A3032078
:1056E00040F2BB120297FFF773FE00BFFEE700BF58
:1056F000747220213D204E554C4C00005F6C765F4B
:105700006F626A5F7374796C655F637265617465FB
:105710005F7472616E736974696F6E0030BCBDE84E
:10572000C08F40F27040C1F2000018301421FFF722
:10573000C8BD00002DE9F04F81B00446408D10F443
:105740007C7F00F00A816FEA01086FEA02090027F6
:105750006D464FF0020B4FF0000A00BFE16801EB0D
:10576000CA025268930100F1DF8092B212EA080384
:1057700002EA0902B2FA82F24FEA521218BF01237A
:10578000534040F0D18051F83A60102130462A460B
:1057900021F0A0F9002840F0DE80304611212A4691
:1057A00021F098F9002840F0D680304612212A4690
:1057B00021F090F9002840F0CE80304613212A468F
:1057C00021F088F9002840F0C680304615212A468D
:1057D00021F080F9002840F0BE80304614212A468E
:1057E00021F078F9002840F0B680304616212A468C
:1057F00021F070F9002840F0AE8030466A212A4638
:1058000021F068F9002840F0A68030466B212A4636
:1058100021F060F9002840F09E80304601212A46A0
:1058200021F058F9002840F09680304602212A469F
:1058300021F050F9002840F08E80304604212A469D
:1058400021F048F9002840F08680304605212A469C
:1058500021F040F900287ED1304606212A4621F069
:1058600039F9002877D1304607212A4621F032F94C
:10587000002870D1304630212A4621F02BF900282B
:1058800069D1304668212A4621F024F9002848D100
:10589000304669212A4621F01DF9002841D13046C1
:1058A0006E212A4621F016F9D8BB30466C212A46D3
:1058B00021F010F9A8BB30466D212A4621F00AF9E3
:1058C00078BB30463A212A4621F004F948BB3046DD
:1058D0003B212A4621F0FEF818BB304638212A46E3
:1058E00021F0F8F8E8B930463C212A4621F0F2F8D8
:1058F000B8B930463E212A4621F0ECF888B9304646
:1059000040212A4621F0E6F858B9304641212A467E
:1059100021F0E0F828B9304642212A4621F0DAF891
:1059200050B10227608D00BF0AF1010AC0F30511D2
:105930008A45FFF413AF11E0304648212A4621F092
:10594000C9F8FFB2012F4FF0010198BF0F460028A0
:1059500018BF5F46E6E7032700E00027F8B201B072
:1059600000F000B830BCBDE8C08FB0B500216E2299
:1059700004461DF03DF8D8B9204600216C221DF0E8
:1059800037F8B0F5807F13D1204600216D221DF03D
:105990002FF8B0F5807F0BD12046002171221DF039
:1059A00027F828B92046002172221DF021F870B195
:1059B0000225A06820B94DB120461BF0B1F9A068BE
:1059C000418D21F4406141EA85214185B0BD2046E9
:1059D000002160221DF00CF8C0B2FF2805D120463E
:1059E000002173221DF004F808B10125E1E72046EB
:1059F000002167221CF0FCFFC5B2002D18BF012555
:105A0000D7E740F27040C1F200000069704770476C
:105A1000FF2804BF3F20704708B9002070478C283A
:105A200004D841F21C01C0F603010BE040F27042C1
:105A3000C1F20002116B0029EFD07330926AC0B23C
:105A40008242EAD9085C704708B32DE9F041164656
:105A500004460D4621F036F840F20408C1F2000871
:105A6000D8F800200746204629469047D8F800205D
:105A70000546204431469047391A8D4205D82044C6
:105A8000425D625501358D42FAD9BDE8F04170475B
:105A90002DE9F04140F20C08C1F200081446D8F894
:105AA00000200F4619461D4606469047386030B123
:105AB0002868D8F8002030440021904700E00020FA
:105AC0002060BDE8F08100002DE9F04F8DB0169CFC
:105AD0001F468146079209910CB100202060B9F160
:105AE000000F1CD0099800284FF0000000F06181E1
:105AF00099F80010002900F05C81179882071AD0ED
:105B000009F101020020012342F201470D2903D8C7
:105B100003FA01F63E4204D1115C0130F6E70020A1
:105B200047E1002918BF0130002C00F042814FF0FE
:105B3000FF3121603DE10021012F0A91C0F2278150
:105B4000C00701900FF2742B49464FF00008002463
:105B5000CDF8009001980028384618BF6FF06040DB
:105B6000059040F20C00C1F20000026800200C9089
:105B7000069108460CA99047824619F804000C9932
:105B800000280B9100F0A9800698CDE902484FF05B
:105B9000FF350026002300244FF00008049700BFC3
:105BA00040F20C01C1F200010A680BA908962F46C9
:105BB0001D4690478146099851464A4615F000FE19
:105BC000079A002804EB020118BF0C180599A01AC7
:105BD000AE4688424546D8BF4FF0FF35791C18BF06
:105BE0003D46BAF10A0F7AD0BAF10D0F77D0494687
:105BF0000EF1010C002300BF1BF90320924503D0D6
:105C0000092B03F10103F7D1924568D0B9F1000FD8
:105C100028D04FF63062A9EB0202202A68D329F07F
:105C20000F024FF610639A4262D0A9F54152C02A82
:105C30005ED3A9F54752302A5AD329F07F02B2F534
:105C40003A5F55D029F03F02B2F5405F50D0A9F538
:105C50009C42B2F5A44F4BD34FF60172A9EB02025E
:105C60005E2A45D3BAF1000F27D040F6E172B2EBBD
:105C70001A1F3DD0AAF54152C02A39D3AAF547527E
:105C8000302A35D32AF07F02B2F53A5F30D02AF0BD
:105C90003F02B2F5405F2BD0AAF59C42B2F5A44F6B
:105CA00026D34FF60172AAEB02025E2A20D34FF6EA
:105CB0003062AAEB02021F2A1AD96A1C089E08BF8A
:105CC0002646DDE90B2806988A4610F808300C9223
:105CD000002B63467FF464AF12E0002631E0B8F198
:105CE000000F0AD1089E691C08D10025264613E042
:105CF000DDF830802646514602E0089E5146F446C3
:105D00006A1C06D0029CDDF80090DDE90387CCB167
:105D100052E08A46E6464546BEF1000F0CD0B9F186
:105D20000A0F27D1DDF80090049FDDE90248BAF19F
:105D30000D0F08BF0C9D05E0DDF80090049FDDE924
:105D400002480C9DB044EDB199F800102C440A298A
:105D50000A9417D00D2915D019F804000D280FD07A
:105D60000A280DD070B1BF1B012F09EB0401BFF64B
:105D7000F1AE07E0DDF80090049FDDE90248E1E7BD
:105D800001340A94002C169C01D07CB910E040F23A
:105D90000C00C1F2000002680AA9484690473CB1D5
:105DA00001460998002215F00BFD8046C4F80080DA
:105DB0000A980DB000F008B8169CE6E7202C2E3BA0
:105DC0003A2D5F295D7D000030BCBDE8C08F00002A
:105DD0002DE9F04381B038B314462AB3054688460E
:105DE00020F070FE0646204620F06CFEE0B107462B
:105DF00040F20400C1F2000002682846414607EB69
:105E000006099047C119894506D3EA19AB5D935538
:105E1000013EBB198B42F9D2284421463A4601B0D3
:105E2000BDE8F0431AF068B801B0BDE8F0830000A7
:105E300070B586B004460B46CDE904110020002160
:105E4000224623F026F9451C28461AF011F840B1E5
:105E5000059B29462246064623F01BF9304606B02C
:105E600070BD0DA010A1CDE9001046F6C40106A634
:105E7000C0F6030114A303204FF4DB720296FFF770
:105E8000A7FA00BFFEE700BF4F7574206F66206D54
:105E9000656D6F72790000007465787420213D2073
:105EA0004E554C4C0000000041737365727465647C
:105EB0002061742065787072657373696F6E3A2023
:105EC00025732028257329005F6C765F74657874CC
:105ED0005F7365745F746578745F76666D740000D7
:105EE00010B540F27044C1F2000404F174001821AE
:105EF000FFF7E7F9D4F89C10012084F88000002017
:105F0000C4F8840021B1D4F8A000BDE810400847CF
:105F100010BD00002DE9F047E2B1DDF820909A466F
:105F200014460F46804600BF660806FB0A754046C9
:105F30002946C847012807DB64F001003044441CAF
:105F400005EB0A0704E000BFB0F1FF3F344602DC76
:105F5000002CE9D100252846BDE8F0872DE9F04F57
:105F600091B0DDF868B046F2E7761C469146884667
:105F7000C0F600060025002918BF064604F1010AF4
:105F800020782F46002800F0988225280AD040B2B9
:105F900041463A464B467D1CB04701340AF1010A9E
:105FA000EEE700BF002500BF9AF900002A2807DDB0
:105FB0002B280BD030280BD02D2811D102200BE03C
:105FC000202807D023280BD1102005E0042003E06F
:105FD000012001E0082000BF05430AF1010AE3E7C0
:105FE000C1B2A1F13000C0B2092811D8002400BF0D
:105FF000084604EB84014A001AF8011F52FA80F0A7
:10600000A1F13002D2B20A2AA0F13004F0D30FE09D
:106010002A290CD15BF8040B0028044600D5444221
:10602000022101EA90701AF8011F054300E00024E4
:106030002E2921D1504610F8011F45F48065A1F1A9
:106040003002D2B2092A37D8CDF83CB00AF10200AA
:106050004FF0000B0BEB8B02520052FA81F210F85A
:10606000011BA2F1300BA1F13003DBB20A2BF1D3FB
:10607000A0F1010A04E000BFCDF83CB04FF0000BE6
:1060800048B26838CA0742EA5003CC46092B0E963C
:106090002ED801204FF48072DFE803F005191C2A86
:1060A0002A2A262A2A26504610F8011F682940F07D
:1060B0005E810220C02217E02A295FD15BF8040B21
:1060C0001AF8021FCDF83CB020EAE07BD8E74FF485
:1060D000007209E0504610F8011F6C2940F04A8117
:1060E00002204FF4407200BF1AF80010154382449A
:1060F00048B2A0F15002192AE14613D8012340F218
:1061000001169340C0F21426334218D1132A09D144
:10611000A8070C9040F15A810120DDE90E6B0B902D
:10612000B3E100BFA0F16F0E0E9EBEF1090F6FD854
:10613000012303FA0EF340F24322134224D06E29C6
:106140004FF0100008DC50290CD0582970D062297B
:106150006BD10220622165E06F2962D0782967D077
:10616000702962D1524612F8010F45F488755628FD
:106170004FF010005CD15621924653E0CDF83CB070
:106180004FF0000B82467BE7BEF1040F40D10F9821
:1061900050F804CB0F909CF80000614678B1594646
:1061A000BBF1000F08BF4FF0FF314A1E614600BF30
:1061B00011F8013F1BB1002AA2F10102F8D1A1EBB5
:1061C0000C025A45594638BF11466B050C9358BF0F
:1061D0001146AA070B92CDF8348000F10D818C4254
:1061E00040F20981601CA4EB01080025CDF824C011
:1061F0000A9000BF0D997A1920204B46B04701350F
:10620000A845F7D1DDF824C02F449CF80000F4E045
:1062100041463A464B467D1C252808BF2520B047FD
:1062200017E1082025F00C050EE025F010050A20E6
:1062300041F00802582A08BF45F02005642903D020
:10624000692918BF25F00C056A0548BF25F001052E
:10625000562910D0692901D0642920D1A9052ED44E
:10626000E9054ED4690600F189800F992A0609686C
:1062700048BF09B285E0DDF83CB0ACEB07025BF843
:10628000040BE14641680E6808EB070110960368AD
:106290000E9800960646FFF761FEC519EEE0A905C7
:1062A00048D4E90500F180800E9E6906E14600F1C0
:1062B000D3800F9B2A06196848BF89B2CEE00F9998
:1062C000E146073121F007010E464A6856F8081BDF
:1062D000049081EAE271002082EAE273B1EBE2719C
:1062E000CDE9050B0E9863EBE273B346D60FCDE90B
:1062F0000745CDE9001341463A46634602960646F5
:1063000032E00F9A52F8041B0F9200290A4600D57A
:106310004A420E9EC90FCDE90021CDE9020B30465D
:1063200041463A4663460494E146059500F0B4F9C7
:1063300005468EE00F990E9E073121F007010B46AE
:106340004A6853F8081B4FF0000E0490CDE905EBA6
:106350009B46CDE90012304641463A46E146634647
:10636000CDE90745CDF808E000F0E4F985E045F017
:10637000800501E045F480758246B9E60F9991F9F0
:1063800000100E9EE14600290A4600D54A420F9BA6
:10639000C90F0433CDE90021CDE9020B9B460494DB
:1063A000304641463A4664E00F9A0E9E52F8041B6E
:1063B000CDF80CB000910021CDE901109346049472
:1063C000304641463A46E146634653E00E9E022C73
:1063D00057D3601CC346A4F1010800250B9000BFF1
:1063E0007A19202059464B46B0470135A845F7D1C8
:1063F0002F44D84647E001310A91A8B10CF10108B9
:106400000C99002904D5BBF1000F0DD0ABF1010BA5
:106410000D9940B23A464B467D1CB04718F8010B27
:106420002F460028ECD100E03D460B9800280ED501
:106430000A9884420BD9DDF83480241A2A46202099
:1064400041464B460135B047013CF7D101E0DDF84C
:106450003480DDF83CB011E00F9B197804330091D3
:106460000021CDE90110CDE903B4304641463A465A
:106470009B464B46059500F00FF905460AF10104CD
:106480007CE502200B90DDF83CB01BF9040B414683
:106490003A464B467D1CB0470C980028EED50B9829
:1064A0008442EBD9241A00BF2A46202041464B469D
:1064B0000135B047013CF7D1E0E73A4600204146BC
:1064C0004B46B94598BFA9F10102B047384611B013
:1064D00000F000B830BCBDE8C08F00002DE9F04FDF
:1064E00083B01E46129B0DF1300C8146DDE910E0B1
:1064F0009CE800198A469F07CDE901200BD460B1C2
:10650000D8070CD013F00C0018BF0120119940EAF5
:106510000C00081A02E015462BE000200290BEF1A4
:10652000200F4FF0200538BF75465D454FF0200421
:106530000DD908EB0B00A5EB0B0130229B46F9F7B8
:10654000B8FEDDF840E0DDF838C05B46AB46DDE97B
:106550000150202838BF0446D8070AD0A34508D2E6
:10656000302000BF59460BF1010BA34508F801008C
:10657000F8D3D80636D50F98590511D4BBF1000FC2
:106580000ED0F34502D002998B4509D1BBF1010130
:106590000A4618BFABF10202102818BF0A469346FC
:1065A000102806D198060BD4BBF1200F08D2782012
:1065B0000CE002280ED1BBF11F0F0BD8622005E0C2
:1065C000002807D5BBF1200F04D2582008F80B0093
:1065D0000BF1010BBBF11F0F17D8302008F80B008F
:1065E0000BF1010BBBF11F0F0FD8BCF1000F01D055
:1065F0002D2006E0580703D4180706D5202000E018
:106600002B2008F80B000BF1010B2C4600977FB9EB
:1066100002982C4658450BD902982A46A0EB0B0746
:10662000202051463346541CC847013F2246F7D12B
:10663000BBF1000F10D0A8F1010800BF18F90B0042
:10664000514622463346ABF10105671CC847002D71
:106650003C46AB46F2D100E027460098002812D510
:106660000199DDF80880781A40450CD24D4200BFF0
:10667000202051463A4633467C1CC84728194045DD
:106680002746F5D300E03C46204603B000F000B8B2
:1066900030BCBDE8C08F00002DE9F04F91B0164628
:1066A000DDE91AC21F46DDE91CB3DDF87C90BCF1C0
:1066B000000F08BF29F01009BCF1000FCDE90767F2
:1066C00004D119F4806401D000241EE009F02004F4
:1066D00084F0610404F1F60800250DF1240A00BFDE
:1066E000BCFBFBF7464607FB1BC404F0FE0EBEF1E5
:1066F0000A0F38BF302626446C1CDC450AF80560BA
:1067000003D31F2D2546BC46EAD309AFCDE900745B
:10671000CDE9022B0493DDE907231E9FCDF81890E5
:106720000597FFF7DBFE11B000F000B830BCBDE804
:10673000C08F00002DE9F04F93B0DDE91C65DDF856
:10674000908056EA0507209C08BF28F010080DF13C
:106750001C0C8CE80F0027B918F4806701D00022C8
:1067600027E008F02000219F80F0610000F1F60989
:106770004FF0000A0DF12C0B3046294622463B46CD
:10678000F9F720FD00FB146202F0FE030A2B4B46D2
:1067900038BF3023361B13440AF1010275EB07069C
:1067A0000BF80A3005D3BAF11F0F924606460D4684
:1067B000E2D30BA8CDE900021E9807ABCDE9020495
:1067C0002298239F04900FCBCDF818800597FFF7F0
:1067D00085FE13B000F000B830BCBDE8C08F9A420F
:1067E00038BF885470477047F0B585B00D461746DE
:1067F000064601A811462A461C46FDF764FAE0B198
:10680000019A0398801A013017D0D7E90013029F2C
:10681000DDF828C0FB1A03FB0C63511A19442B68DE
:106820002244D21A137811F8017B3B44FF2B28BF76
:10683000FF23013802F8013BF4D105B0F0BD10B5DB
:1068400040F27044C1F20004012084F8A40004F175
:10685000AC00FEF717FD0146D4F8A80019B1BDE859
:10686000104022F089BBBDE8104022F029BB000097
:106870002DE9F04381B040F27047C1F2000797F86C
:10688000A50007F1AC0480F0010087F8A5002046C0
:10689000FEF7F8FC002800F0AF8005464FF0000836
:1068A0004FF6FF79286D22F033F9696B084468636D
:1068B00022F044F987F8A48095F8541097F8A520A1
:1068C000C1F340039342286500F0868001F0FD008B
:1068D00040EA4200490785F8540020D4686B00283C
:1068E0007AD495F84E00C00709D1A96939B1284674
:1068F0008847696AEA6A014410446962E862284686
:1069000023F01EFEE96809B12846884795F854002F
:1069100040F0040085F85400284623F0A7FD686B7A
:10692000002859D4296B8842C8BF6963296A284660
:106930008847A96A88421CD197F8A40000284ED144
:10694000D5E90C01814247DB95F85410B5F8443085
:10695000CA0705D123B14B451CBF013BA5F8443004
:106960001B0417D0D5E90F3676426E63A3B3A2B1EC
:1069700016E06A680646A86212B128683146904758
:1069800097F8A40058BBAA68002AD5D028463146FB
:106990009047D1E77AB9EB6B6BB1AA6B52426A634D
:1069A00081F0010185F85410E96A6A6A6962C5E9F3
:1069B0000B23E86310E020462946FEF7DFFCFFF7D3
:1069C0003EFF296909B128468847696909B1284607
:1069D0008847284614F05AFF97F8A40020B12046B3
:1069E000FEF750FC04E000BF20462946FEF75DFCA0
:1069F000054600287FF456AF01B0BDE8F083B0B57E
:106A0000044640680D4610B12946FFF7F8FF22689A
:106A100022B120462946BDE8B0401047B0BD70B550
:106A20000E680C463168054641B196F82200C00652
:106A300004D5216028462146FFF7F1FF284621466C
:106A40002660BDE87040FFF7DABF07F05FBC07F0D3
:106A500091BCB0B596B00446406C08B36D4628466C
:106A600006F0FAFE49F61520C0F60200019000205B
:106A700009904FF000400A9001200B904DF63D1018
:106A8000C0F60000089049F61720616CC0F60200BD
:106A90000490284600940C9106F0F4FF16B0B0BDA7
:106AA000204616B0BDE8B04022F074BF2DE9F04199
:106AB00040F2F026C1F2000632780C460546A2B933
:106AC00040F20007C2F2000707F1080049F6F8712A
:106AD00049F6F878F9F7F4FB552038700020F87083
:106AE00078600120A7F8018030704FF000065DB19A
:106AF00054B16C432046FCF751FE20B121460646B6
:106B0000F9F7DEFB00E000263046BDE8F081012801
:106B100084BF4FF0FF30704710B540F2501100EBCA
:106B20004000C1F2000101EB8000044614F8011F8F
:106B300039B1406800F018F8207810B100202070BA
:106B400010BD4FF0FF3010BD012884BF4FF0FF3063
:106B5000704740F2501300EB4000C1F2000303EB1A
:106B60008000406800F03AB8012884BF4FF0FF3041
:106B7000704740F2681200EB0011C1F2000252F8B7
:106B80002130DBB180B582B041F2AC01C0F6030127
:106B900051F820C045F63E4E45F64741C0F6030E7B
:106BA000C0F6030109A2022040F22B13CDE900EC4C
:106BB00000F0FAFB6FF0FE0002B080BD02EB810036
:106BC000C16801B108476FF0FD0070476244657607
:106BD000696365436C6F73650000000080B582B027
:106BE000012802D94FF0FF3020E040F2681C00EB92
:106BF000001EC1F2000C5CF82E30CBB141F2AC01AA
:106C0000C0F6030151F820C045F63E4E45F6474117
:106C1000C0F6030EC0F603010BA2022040F241139E
:106C2000CDE900EC00F0C0FB6FF0FE0002B080BDCB
:106C30000CEB8E0003691BB102B0BDE88040184721
:106C40006FF0FD00F2E700BF62446576696365435B
:106C5000746C00002DE9F04F81B040F2681AC1F267
:106C6000000A50468821F9F72BFB47F6604741F2AE
:106C7000B40B41F2AC0947F66848C0F60307C0F60A
:106C8000030BC0F60309C0F6030800BF012600216C
:106C9000002200BF1BF802003B7898420DD102EBA6
:106CA000021559F822207B680AEB85004C1CC0E9CC
:106CB0000821984721464AF825000122F0074FF0A5
:106CC0000006E7D108374745E0D147F6504747F679
:106CD0006048C0F60307C0F6030800BF0126002184
:106CE000002200BF1BF802003B7898420DD102EB56
:106CF000021559F822207B680AEB85004C1CC0E97C
:106D00000821984721464AF825000122F0074FF054
:106D10000006E7D108374745E0D1002001B000F078
:106D200000B830BCBDE8C08F012884BF4FF0FF30F1
:106D3000704740F2681200EB0011C1F2000252F8F5
:106D40002130D3B180B582B041F2AC01C0F603016D
:106D500051F820C045F63E4E45F64741C0F6030EB9
:106D6000C0F6030109A20220E723CDE900EC00F000
:106D70001BFB6FF0FE0002B080BD02EB810081685A
:106D800001B108476FF0FD00704700BF62446576AF
:106D90006963654F70656E0010B582B001284FF0D1
:106DA000FF3C20D8FAB140F2681E00EB001CC1F293
:106DB000000E5EF82C40CCB141F2AC01C0F60301EC
:106DC00051F8204045F63E4C45F64741C0F6030CCD
:106DD000C0F603010CA20220FE23CDE900C400F09E
:106DE000E3FA6FF0FE0C604602B010BD0EEB8C00B3
:106DF000D0F818C0BCF1000F03D002B0BDE81040BD
:106E000060476FF0FD0CEEE762446576696365529A
:106E10006561640010B582B001284FF0FF3C21D8B5
:106E200002B340F2681E00EB001CC1F2000E5EF8D7
:106E30002C40D4B141F2AC01C0F6030151F820401E
:106E400045F63E4C45F64741C0F6030CC0F603013B
:106E50000DA2022040F21513CDE900C400F0A4FAFF
:106E60006FF0FE0C604602B010BD0EEB8C00D0F847
:106E700014C0BCF1000F03D002B0BDE81040604761
:106E80006FF0FD0CEEE700BF6244657669636557FD
:106E90007269746500000000B0B547F63C4447F6DF
:106EA0005045C0F60304C0F6030500BF54F8040BB8
:106EB0008047AC42FAD10020B0BD0000002844D089
:106EC00040F2F021C1F20001097800293DD040F2E2
:106ED0000001C2F2000149F6F8720A44904234D827
:106EE0000831884231D310B510F8081CAA292AD1DC
:106EF00040F2000C5521C2F2000C00F8081C9CF86E
:106F00000020DCF80400552A1AD1E0B10CF101028E
:106F10000378552B14D190F803E0B0F80110937862
:106F2000148841EA0E4144EA0343194408311180B0
:106F3000090C917040680028CCF80400E8D102E008
:106F400000288446DBD1BDE8104070472DE9F043AE
:106F500083B08146002B4FF0FF3060D01646002AE8
:106F60005DD00A9F002F5AD0884640F20861C1F2D6
:106F700000010968002952D0086801211C4600F070
:106F800001FC002849D4054609EB06000138ADF89C
:106F9000040008EB04000138ADF806006A462846F4
:106FA0000121ADF80090ADF802800297FFF7CCFD0B
:106FB00004462846FFF7ABFDB4F1FF3F2BDCBDF8DC
:106FC0000000BDF80420904225D8BDF80210BDF89D
:106FD000063000249EB28DB2B54215D8BDF900002E
:106FE00037F8142009B20134FBF722FDBDF8020086
:106FF000BDF80630411C88B29842ADF80210EDD9B8
:10700000BDF80000BDF80420013086B295B2AE4252
:10701000ADF80000DED9002001E04FF0FF3003B0F2
:10702000BDE8F08370B582B030B3054680680228B1
:1070300004D3686810B16FF001048CE02868022165
:1070400000F0A0FB0446013009D0E86801AA0190D5
:1070500020460221FFF778FD2046FFF758FD40F259
:107060000C61C1F20001086848B1D0F88810C5F879
:107070008810C0F8885006E04FF0FF346BE0002025
:107080000D60C5F8880040F20866C1F200060120D4
:10709000002435602874A5F85C40B5F90C20B5F9DA
:1070A0000E301C3542F63121C0F600012846FBF7B0
:1070B000A3FB2846FBF7DCFB4FF6FF70FBF7E8FB72
:1070C0000020FBF7DDFB42F66511C0F60001012050
:1070D000FBF75CFA40F6CC70C0F60300FBF7A9FAA8
:1070E00045F2C740C0F6000018F0BBFE17F01EF8CE
:1070F00031688889C9890AF08BFC43F66571C0F64E
:10710000000105460BF087F930680321808900EB08
:1071100080004000FFF7CAFC00B30146306800223F
:1071200080890094C0EB0010430028460BF00CF857
:1071300016F00AF80121054616F0EAFF44F68B2105
:10714000C0F60001284616F0E0FF47F28710C0F6AF
:10715000000021F006FD204602B070BDFEE70000F1
:1071600081B040F23801C1F20001096848434FF490
:107170007A714843009000BF0098411E002800919A
:10718000FAD101B0704740F2F820C1F20000006867
:10719000704700F0C8B900F01FBA00F030BA00F034
:1071A00039BA00F04DBA40F2F820C1F2000001688F
:1071B00001310160006800B1704740F2FC20C1F26B
:1071C000000001680131016070470000000000000C
:1071D000F0B583B040F23807C1F200073C6848F2CE
:1071E000A060C0F201006043029000200190009076
:1071F00040F2F820C1F200000168019102994A1E94
:1072000000290292FAD10068009000980199401A72
:10721000F9F709FA9FED0E0B02460B4651EC100BE5
:10722000F9F792F9054620460E46F9F7FCF90246B1
:107230000B4628463146F9F712F9F9F701FA38609A
:1072400003B0BDE8F04000F0A7B800BF00BF00BF2A
:10725000000000000000594070B5064600284FF0BD
:10726000FF300FD00D4669B13078144601280AD19D
:107270003CB100BF15F8011B304600F00BF8013C93
:10728000F8D1002070BD304629462246BDE8704046
:1072900000F0E0B92DE9F04F85B078B30C460178E5
:1072A00001292DD1B0F8019090F807A0B0F8051091
:1072B000B0F8038090F808B056464FEA1920BAF1AA
:1072C000000F18BF012603904FEA18200D0ACFB215
:1072D0000290384629463246FFF761FFBBF1000FA6
:1072E000CDF810B0019611D0BAFA8AF04FEA501BCF
:1072F000384629465A46FFF752FF08E000243DE091
:10730000214605B000F03EB800F0D0B9B3468BF08E
:1073100001064FF0000A5FFA88F85FFA89F900BFAA
:10732000029904F080024046FFF739FF38462946AB
:107330003246FFF734FF03994846FFF72CFF002839
:1073400018BF0120049940EA4404012908BFBAF19A
:10735000070F0AD0384629465A46FFF720FFBAF1F0
:10736000070F0AF1010ADBD35E460198864205D079
:1073700086F0010238462946FFF711FFE0B205B05A
:1073800000F005B830BCBDE8C04FFFF7BDBF30BC52
:10739000BDE8C08F00F0ACB9704780B5FFF718FFAB
:1073A000BDE88040FFF756BC032888BF70472DE931
:1073B000F04383B040F2F018C1F2000804460F46D3
:1073C00040464FF4807199461646F8F779FF032C32
:1073D00001D100274AE033A033A1095D055D88F89B
:1073E00000103A20690788F8010001D4022716E04E
:1073F0003846F8F770FFC4B257FA80F00A2C88BFFD
:10740000A0F10A0728BF0A2408F1020039462246E3
:10741000F8F73DFF04EB0800E71C20218170A80766
:107420000FD53046F8F757FF044608EB0700E2B2E5
:107430003146F8F72CFF57FA84F0471C202108F852
:107440000010E80712D019A101A84A4629F0F8F85F
:10745000002822D4044608EB070001A92246F8F7C9
:1074600016FFE019471C202108F800100A9A0BAB00
:1074700008EB0700C7F1FF01009329F0F5F8002899
:107480000BD440F2F014C1F200042046F8F723FFB9
:1074900082B200202146FFF77DFF03B0BDE8F04334
:1074A000704700BF000307004957450025640000EE
:1074B00001280CD840F2501200EB4000C1F200024B
:1074C00002EB8000427812B18160002070474FF0DB
:1074D000FF307047F0B581B040F2F025C1F20005F1
:1074E00029780446A1B940F20006C2F2000606F16E
:1074F000080049F6F87149F6F877F8F7E1FE5520EB
:1075000030700020F07070600120A6F801702870C3
:107510002CB1204601B0BDE8F040FCF73FB9002097
:1075200001B0F0BD70470B2818BF112900D170477A
:1075300070B5012410294FF0030C4FEA802008BFDA
:107540004FF0553408BF4FF0FF3C4FF0000E012ABA
:1075500014BFF446A64600F1904063B1012B03D15D
:107560004FF0000E234606E00223102908BF4FF01B
:10757000AA334FF0000E102907D10021C0F800E017
:107580004160C0F808C0C36023E04A0003240568D6
:107590009440A543056006680EFA02F52E43066086
:1075A0000126456806FA01F125EA010141604168BA
:1075B0000CFA02F64160816803FA02F2A14381608D
:1075C000816831438160C168A143C160C1681143D2
:1075D000C160BDE87040704702460B284FF00000C4
:1075E0000CD001F0FE03102B08BF70479002102250
:1075F000C4F600021058C84000F0010070470B2884
:1076000001D1002004E010218002C4F600010858D6
:1076100080B270470B2812D001F0FE03102B08BF78
:1076200070470123002A40F218024FEA802008BF69
:107630004FF4803303FA01F1C4F600021150704791
:107640000B2808BF704714228002C4F600021150B4
:1076500070470000034600284FF0FF3018BF002994
:1076600000D17047587802281ED841F21003C0F6A6
:10767000030353F82000436843F4805343600368D6
:107680005B0603D4036843F04003036062B14FF02C
:10769000000C00BF83689B07FCD511F80C300CF17F
:1076A000010C94450373F5D10020704710B1407868
:1076B000022801D90020704741F21002C0F60302EF
:1076C00052F82000027B426842F480524260026815
:1076D000520603D4026842F04002026082689207B8
:1076E000FCD501738168C907FCD0007B704700009E
:1076F0004FF0000C032888BF4FF0010CB0F10803D5
:1077000018BF01231CEA030F4FF0FF3331D181B3BF
:10771000082804D148F20000C4F2000005E041F25C
:107720000413C0F6030353F8200010B5AAB140F2C9
:10773000010C4FF0000EC0F20B0C6346C4696406E6
:1077400004D4013B022BF9D20FE000BF11F80E3038
:107750000EF1010E96458362EFD14FF4302100BF48
:10776000C3695B0607D40139FAD86FF00103BDE89D
:1077700010401846704713460029D8BF6FF0010328
:10778000F5E70000F0B581B0022945D840F2481372
:10779000C1F200031A7840F2501CC1F2000C32B959
:1077A00000228CF801208CF80D2001221A7000258F
:1077B000012300BF05EB45020CEB82025678012E37
:1077C00002D15268824227D00125DA074FF0000328
:1077D000F0D10027012300BF07EB47040CEB840224
:1077E000154615F8016F2EB10127DA074FF0000397
:1077F000F2D111E00CF82410012129700021C2E916
:107800000101FFF791FAB0F1FF3F07DCFE3005D030
:10781000287808B1002028704FF0FF37384601B0B3
:10782000F0BDB0B514460A46014601284FF0FF30BE
:107830001CD8DAB101EB410040F25011C1F2000155
:1078400011F8203043F00203022B10D101EB800528
:10785000687860B155F8081F234655F8040CFFF707
:107860009BFA002802D4296821442960B0BD4FF05A
:10787000FF30B0BD2DE9F04100280C4644D005464C
:10788000002C62D040F2F026C1F20006307840F2BF
:107890000007C2F2000780B907F1080049F6F87145
:1078A00049F6F878F8F70CFD552038700020F8708C
:1078B00078600120A7F8018030702046FBF76EFF4A
:1078C000002845D0064649F6F870384485424FF006
:1078D00000000DD807F108018D4209D315F8081CE6
:1078E000AA2902BF15F8050C35F8071C41EA00402B
:1078F000A04238BF0446304629462246F8F7C7FC66
:107900002846FFF7DBFA24E040F2F025C1F200053B
:107910002878A0B940F20006C2F2000606F108007D
:1079200049F6F87149F6F877F8F7CAFC5520307037
:107930000020F07070600120A6F8017028703CB142
:107940002046BDE8F041FBF729BF2846FFF7B6FA0D
:1079500000263046BDE8F081B0B5044647F6591020
:107960000021C0F60000C4E9001004F10800A16283
:1079700061631421F8F7A4FC606A41F2B80200EBDD
:107980008001C0F6030202EB8101E16143F62F2181
:1079900043F68902C0F60001C0F60002C4E90421E2
:1079A00040F2F221C1F2000101EB80022264F022D8
:1079B000C0F2401241F82020002000210022FFF7F1
:1079C000EEFB6420FFF7CCFBE1690122087C497CD7
:1079D000FFF7E5FB6420FFF7C3FBE569A87C38BB34
:1079E0002878697800220023FFF7D3FBA878E9788C
:1079F0000122FFF7D4FB287969790022FFF7CFFB3A
:107A0000287A697A0022FFF7CAFB2879697901226E
:107A1000FFF7C5FB2878FFF7C0FB287A697A0122B7
:107A2000FFF7BDFB2878697801220023FFF7B1FB3F
:107A30000C20FFF795FB20461121FBF7EFFD0C20F2
:107A4000FFF78EFB20463621FBF7E8FD204600219C
:107A5000FBF730FE20463A21FBF7E0FD204665218A
:107A6000FBF728FE2046B221FBF7D8FD20460C216B
:107A7000FBF720FE20460C21FBF71CFE20460021D0
:107A8000FBF718FE20463321FBF714FE2046332176
:107A9000FBF710FE2046B721FBF7C0FD2046722100
:107AA000FBF708FE2046BB21FBF7B8FD20463D2131
:107AB000FBF700FE2046C021FBF7B0FD20462C213D
:107AC000FBF7F8FD2046C221FBF7A8FD2046012167
:107AD000FBF7F0FD2046C321FBF7A0FD204619214E
:107AE000FBF7E8FD2046C421FBF798FD2046202146
:107AF000FBF7E0FD2046C621FBF790FD20460F2155
:107B0000FBF7D8FD2046D021FBF788FD2046A421B5
:107B1000FBF7D0FD2046A121FBF7CCFD2046E0215C
:107B2000FBF77CFD2046D021FBF7C4FD2046042155
:107B3000FBF7C0FD20460D21FBF7BCFD20461121BF
:107B4000FBF7B8FD20461321FBF7B4FD20462B219F
:107B5000FBF7B0FD20463F21FBF7ACFD204654214A
:107B6000FBF7A8FD20464C21FBF7A4FD2046182179
:107B7000FBF7A0FD20460D21FBF79CFD20460B21C5
:107B8000FBF798FD20461F21FBF794FD204623219B
:107B9000FBF790FD2046E121FBF740FD2046D02178
:107BA000FBF788FD20460421FBF784FD20460C21CD
:107BB000FBF780FD20461121FBF77CFD20461321B9
:107BC000FBF778FD20462C21FBF774FD20463F2172
:107BD000FBF770FD20464421FBF76CFD2046512148
:107BE000FBF768FD20462F21FBF764FD20461F218F
:107BF000FBF760FD20461F21FBF75CFD204620219E
:107C0000FBF758FD20462321FBF754FD2046212198
:107C1000FBF704FD20462921FBF700FD0020B0BD45
:107C2000B0B514460A46014601284FF0FF301BD874
:107C3000D2B101EB410040F25011C1F2000111F844
:107C40002030013B012B10D801EB8005687860B132
:107C500055F8081F234655F8040CFFF7DBF80028F9
:107C600002D4296821442960B0BD4FF0FF30B0BD77
:107C7000B0B582B0144605460A0A032C4FEA1140FB
:107C80001BD0022C2AD0012C4AD1AC7895F801E007
:107C900095F800C054FA80F0FF285EFA82F24FF0A7
:107CA000FF0428BF2046FF2A5CFA81FC28BF224639
:107CB000BCF1FF0F38BF644623E0AC7895F800C0F4
:107CC00095F801E0C0B26043D2B2CCB202FB0EF232
:107CD00004FB0CF4000A120A240A12E0AC7895F8AE
:107CE00000C095F801E0C0B2201AD2B2CCB2AEEB1F
:107CF0000202ACEB040420EAE07022EAE27224EA19
:107D0000E47401F07F41120292B22143C0B20A43EF
:107D1000296842EA00401A4609F0AAFC28600CE0F3
:107D200047F2C97106A5C0F603010DA302204FF466
:107D30002172CDE90054FDF74BFB02B0B0BD00BF8E
:107D40004E6F7420737570706F7274656420626C0E
:107D5000656E64206D6F64653A2025640000000044
:107D6000626C656E645F6E6F6E5F6E6F726D616C7C
:107D70005F706978656C000070B582B00D0A032AE7
:107D80004FEA11461CD09446022A2AD0BCF1010FBA
:107D900042D1027890F801E090F802C052FA81F3E3
:107DA000FF2B5EFA85F54FF0FF0428BF2346FF2D19
:107DB0005CFA86F628BF2546FF2E38BF344623E0FE
:107DC00090F801E0ECB2027890F802C004FB0EF4E7
:107DD000CBB2250AF4B2534304FB0CF41B0A240A69
:107DE00012E090F801E0ECB2027890F802C0AEEB3D
:107DF0000404CBB224EAE475F4B2D31AACEB040465
:107E000023EAE37324EAE474090E26D0FD2911D392
:107E100003704570847020E047F68E0110A6C0F60E
:107E2000030117A302204FF41172CDE9006CFDF796
:107E3000CFFA12E081F0FF06724313FB0122120A0F
:107E4000027006FB0EF215FB0122120A427006FBBD
:107E50000CF214FB0121090A817002B070BD00BF51
:107E60004E6F7420737570706F7274656420626CED
:107E7000656E64206D6F64653A2025640000000023
:107E8000626C656E645F6E6F6E5F6E6F726D616C5B
:107E90005F706978656C0000B0B582B0044615F07B
:107EA0004DF9054615F0A5FB38B1616C20462164FB
:107EB00002B0BDE8B0401BF055BAE06A01211AF0EB
:107EC000F6FE28B1204602B0BDE8B04012F05EBE1A
:107ED000204612F0E9FBD4E9100181420BD0606426
:107EE000019001AA20461E211CF0AAFD01280DD1F7
:107EF00020461BF037FA284615F085FB042805D1EB
:107F0000204619F02FFF002114F0A2FA02B0B0BDF4
:107F1000C11C002818BF21F00300704713F0B6BC45
:107F2000033017F0A5BFB0B5069DDDE904EC0329C9
:107F3000044616D0022918BFB0BD10461946724635
:107F400063461FF00BFD2968AA6800EBD070511A38
:107F50002268013101EBD171A2EB600000EB6100FE
:107F60000CE010461946724663461FF0F7FC29687C
:107F7000AA6823680844101A184401302060B0BD74
:107F80002DE9F04F95B0CDE90C3209900E91C878EB
:107F90004EF22D714EF23772C0F60001C0F60002AB
:107FA00010F0010008BF0A464EF2D16104924EF271
:107FB000AB62C0F60001C0F600020B4608BF1346D4
:107FC0000B93002808BF0A4642F66D11C0F6020165
:107FD000089242F679120B46C0F6020208BF134619
:107FE000002842F67310229FC0F602000A9342F660
:107FF000671308BF0A460146C0F60203079208BF8E
:108000001946D7F814E0059108BF03460693BEF160
:10801000000F4AD0D7E90101D7F81090BB46A0EB7A
:10802000010A09F10C070022704600BF3E7AF607EC
:1080300002D17E68324402E03E68AAEB060A0138AB
:1080400007F11807F2D1002700264FF0000C00BFFF
:1080500009EB0704257DE8071ED1002A00F0C38143
:108060009AFBF2F32169D4E9018059438142B8BFF8
:1080700008468045C8BF4046884206D045F0010109
:108080002175DBE9049E4FF0010C09EB07010B6938
:10809000AAEB000AD21AC8600136764507F1180724
:1080A000D6D35FEACC705F46B1D1099D0021284646
:1080B000272200241AF09CFCDDF83880C0B203901F
:1080C00098F800007A68FB6820991494139413AC14
:1080D00014AECDE9006421F065FB98F80300C007F9
:1080E00008D00398012805D1284619F0B2FD14994B
:1080F00008441490DDF834B02846594619F094FC31
:10810000002800F06D8104460C98834500F06881DA
:108110000126C0F2060600BF204631461AF0CEFD09
:1081200060B198F80300400700F14C81A8680BF19A
:10813000010B018D8B45C0F24B8151E1204600219E
:1081400081221AF055FC0006CDF834B00ED07869C3
:1081500050B139690C3100BF51F80C2CA2420AD041
:10816000013801F11801F7D1002505E0608D20F4F8
:108170004060608531E00D6898F80310608DC90794
:108180004FF4006120F4406008BF4FF48061084460
:1081900004F114060B9960853046884785421CD04F
:1081A00020461BF0DFF804F114030FCB0DF13C0C5B
:1081B0008CE80F00049A30462946904720462C212F
:1081C0000FAA1CF03DFC204619F044FE2521224652
:1081D0001CF036FC20461BF0C5F898F80100012879
:1081E0001CD0022828D138680899013020F00105F8
:1081F00004F114008847281A079A00EBD07520462E
:1082000000219047069A0646204600219047301AE2
:1082100000EBD070401000EB650B12E008993D6850
:1082200004F114008847069A06462046002190472C
:108230003044A5EB000B04E0079A2046002190474C
:10824000834698F80300C00709D00398012806D197
:108250000B9904F1140088471499081A14902046C9
:1082600000216A221AF0C4FB8146204600216B22BD
:108270001AF0BEFB804620461AF0A2FC06462046B5
:1082800019F076FD09F0C041B1F1005F13D129F07A
:10829000C041B1F5FA6F0EDCB1F57A7FC8BFC1F508
:1082A0007A7148F21F527143C5F2EB1251FB02F191
:1082B0004A1102EBD17908F0C041B1F1005F13D14E
:1082C00028F0C041B1F5FA6F0EDCB1F57A7FC8BF76
:1082D000C1F57A71484348F21F51C5F2EB1150FBCA
:1082E00001F0411101EBD078A2460E985AF8146FB4
:1082F000C178DAF80450C8075F4607D00A9A149F7D
:108300002046002190470E990744C978C80706D136
:108310000A9ADDF850B020460021904783441E9809
:108320004844801BC6191F984044401B00EB0B07B4
:1083300056EA070016D020461BF014F804F1140387
:108340000FCB04F1140C3044324439443B448CE8E4
:108350000F0020461BF006F8204631463A4600231F
:108360001BF08CF8DDF8388098F80300C10709D0BD
:108370000399012906D1DDE91312219B1944511AF1
:1083800015E000BF0B9950468847219A1399104475
:108390000A9A4518204600219047059A0544204630
:1083A00000219047149A291898F803001144DDF829
:1083B00034B0099D229F0126C0F2060640071491A1
:1083C0007FF5B4AEBBF1000F0ADDA868ABF1010B7D
:1083D000006850F82B401CB10C9883457FF49CAE8C
:1083E00015B000F031B846F2CF5107A70BA6C0F682
:1083F000030111A303204FF4AF72CDE90067FCF72E
:10840000E7FF00BFFEE700BF67726F775F76616CC2
:1084100075655F73756D20213D2030004173736574
:108420007274656420617420657870726573736915
:108430006F6E3A20257300006368696C6472656E24
:108440005F7265706F73000030BCBDE8C08F70B59F
:1084500082B0044612F0EAFD0546204612F0E2FD25
:108460000646284619F0F6FC0B2E044609D02E2E9F
:1084700049D1E16A2046002202B0BDE870401FF0F9
:10848000DFB814F05BFE10B1007A01283BD06946DA
:10849000284619F075FD94F8300010F00C0F14D038
:1084A000284619F0D6FB05462046002127221AF05F
:1084B0009FFAC0B2009905EBD572012808BF494266
:1084C00001EB620090FBF5F009E0284619F08BFB08
:1084D000019900EBD07201EB620191FBF0F0E66ACA
:1084E00020EAE07514F02AFE0246002820462946BC
:1084F00018BF01221FF0A4F8B54204D020461E2167
:1085000000221CF09DFA02B070BD90F8642002F0C9
:1085100001038B4208BF704710B584B0002918BF13
:10852000012102F0FE02114480F86410C16AD0E912
:10853000142ED0F858C0D1E90513C46D0A44614423
:1085400002911919009203EB0E0203916946019200
:108550001AF01FFF04B0BDE81040704780B521F04D
:108560007F40114609F05CF920F07F4080BD00009B
:108570002DE9F04F85B08346866B407C09F06AF99F
:10858000BBF818408246E000B0FBFAF7BBF8165083
:10859000BBF8140029460E223B460AF0D7FB80B3F5
:1085A0008046BBF81200D8F81090000705FB04F4D1
:1085B0003BD49BF80C00D0B3012840D130680DF1BA
:1085C000100C0C214A462346CDF800C002F0A6FA52
:1085D000844610B90498A04231D047F6F90147F615
:1085E000D8133CA7C0F60301C0F60303022040F2F3
:1085F0004A32CDE9007CFCF7EBFE40460AF03EFC37
:1086000011E046F23B1747F6F90147F6D813C0F6DA
:108610000307C0F60301C0F60303032040F23D3216
:108620000097FCF7D5FE002051E0306A01E0DBF84E
:108630000800103001684846224617F05DFC9BF8A0
:10864000110003960E283CD007FB05FCBCF1000F7F
:1086500037D04FF0FF3000FA0AF009EB040209EBC3
:108660000C01013A6FEA000E0027002016785FFA2D
:1086700080F926FA09F010EA0E0013D0BAF1070FBC
:1086800010D85646044600BFF3B2C3F1080356445F
:1086900000FA03F3F5B2DBB2082D44EA0304F3D386
:1086A00001E000BF044609EB0A0010F0F80307F1EF
:1086B0000107A1F101011CBF013A002067450C70C0
:1086C000D4D10398CBF81C80C0F81C80012005B0E1
:1086D00000F00CB8526561642068656164657220C1
:1086E0006661696C65643A202564000030BCBDE8B1
:1086F000C08F00002DE9F04385B0866B457CD6F82D
:1087000000800446072D02D14FF0080910E0082D23
:1087100004D0092D05D14FF0400909E04FF01009B0
:1087200006E0A5F10A00B0FA80F040094FEA80297E
:10873000608A000719D4207BC8B101285CD1484663
:1087400017F096FB58B307460DF1100C40460C216C
:108750003A464B46CDF800C002F0E0F98446C0BB73
:108760000498484535D1776003E0306A00E0A0689E
:108770000769072D276201D102200DE0082D03D0E3
:10878000092D03D1102007E0042005E0A5F10A001F
:10879000B0FA80F040090002606201202DE045F649
:1087A00015511DA0C0F6030146F23B17CDE900109C
:1087B00047F6F90147F6B113C0F60307C0F6030107
:1087C000C0F6030303204FF40F720297FCF700FE7C
:1087D000FEE747F6F90147F6B11309A6C0F6030113
:1087E000C0F6030302204FF41172CDE9006CFCF7D0
:1087F000EFFD384613F04AF8002005B0BDE8F083DD
:10880000526561642070616C65747465206661698D
:108810006C65643A2025640070616C657474652031
:10882000213D204E554C4C00B0B5044612F0FAFBE9
:108830000546204612F09EFC332D18BFB0BDD0F87F
:10884000F00218B1BDE8B04020F096BBB0BD00000A
:1088500070B50446806908B1002070BD0E46084618
:10886000002101220AF026FFE0B1054630460BF058
:1088700031FCB8B10220A864287905F13801092833
:10888000C4E90161A5614AD8DFE800F0050F161DB3
:10889000242B32373E43E96C05F1080220460FF0E5
:1088A00093FF3CE04FF0FF3070BDE96C05F108022A
:1088B00020460EF03BFF32E0E96C05F1080220464D
:1088C0000FF0ECF92BE0E96C05F10802204610F0FE
:1088D0007AF924E0E96C05F10802204610F050F91D
:1088E0001DE0E96C05F10802204610F077F916E06A
:1088F000E96C204610F088F911E0E96C05F10802F6
:1089000020460CF0BFFC0AE0E96C204611F036FD71
:1089100005E0E96C05F10802204611F069F8A0694C
:10892000032181640020A0610AF067FE012070BD70
:108930002DE9F047A0B088464FF6FF718A4248D033
:10894000C46A1746B4F828900646994504D0608D4D
:10895000238540F00800608520464FF480215A228C
:108960001AF046F8054620464FF480215C221AF0A2
:108970003FF8F16AD5F80CA005460846002119F029
:1089800053F80AEB0501806901FB07F205EBD5738B
:10899000A2EB630210441D900844F16A01381F9055
:1089A0004869C9696D461C9028461E910CF032FC3E
:1089B00020464FF480212A461AF026FB1CAA404686
:1089C00029460CF0B7F9608DA4F8289020F0080033
:1089D000608520B0BDE8F0872DE9F043A1B088465E
:1089E0004FF6FF718A425BD0C46A1646B4F82890ED
:1089F0000746994504D0608D238540F008006085C6
:108A00000CAD28460AF09AFF20464FF480212A46F2
:108A10001AF031FA20464FF480215C2219F0E8FF69
:108A2000F96A1A90E1B30846002118F0FDFFB8B3C7
:108A3000074614981A99C068BA69084401EBD171C5
:108A4000A2EB610100FB061108F118060844013889
:108A500009910B906069E16908900A9104A808AA3D
:108A60003146FBF730F9A8B196E80F0007F114057D
:108A70008DE80F0004AB0FCB86E80F00384616F0E8
:108A800044F913900CA940462A460AF011FF9DE8CC
:108A90000F000FC6608DA4F8289020F008006085B4
:108AA00021B0BDE8F0832DE9F0438FB01C46154698
:108AB0000029814650D008790F4608284CD801215A
:108AC000814011F48B7F31D0B868D0E90061D0E9E2
:108AD0000220CDE90061CDE90220901B01300E217A
:108AE0000AF09AFC304401380DF11008029040461B
:108AF00000212C2217F000FBB87DB98A8DF82700E1
:108B0000F87DADF8251039688DF8240008690A90C1
:108B100068460C900889B9680D90022004918DF880
:108B20002C00484641460CF083FD15E0A0B90DF13C
:108B30001008404609F0D2FEF87DB97D8DF8380066
:108B4000B88AFA68ADF8300001208DF832100D9027
:108B5000484641460EF0EAFD2DB124B1484629466B
:108B600022460FF031FE0FB0BDE8F0832DE9F04F43
:108B7000F7B0054612F05AFA8046806B002800F0E4
:108B80007981284612F0A6FAB8F82A10824641F0F8
:108B90000800A8F82A0073A9404619F090F8B8F820
:108BA0002A0022AE40F00800B8F828404FF0000933
:108BB000A8F82A003046A8F828900CF02BFB0DAF3F
:108BC00038460AF0BBFE40464FF4A02132461AF068
:108BD0001BFA40464FF4A0213A461AF04CF9B8F877
:108BE0002A00002120F00800A8F82A0040461022A0
:108BF0000894A8F8284019F0FBFE06904046002192
:108C0000112219F0F5FE059040460021122219F0BC
:108C1000EFFE049040460021132219F0E9FED8F837
:108C200038700390002F00F01F8145F64546C0F6CE
:108C300003060020CDF81CA0D8F82C10A0F1010BE1
:108C400001EB800555F8040B3146F7F74BFB002884
:108C50000BF1010BF6D0D8F8340050F82900C1060A
:108C600000F1FB80410609D4D8F840100024894562
:108C7000089908BF01F02E0401E000BF8024D8F855
:108C80003010C0F300204FEA091350EA040C01EB46
:108C90000912C958DDE97370D2E90135D268394447
:108CA0006F9100EB0301709107EB05011044719186
:108CB000729025D0B8F82A0053AD40F00800A8F80B
:108CC0002A002846A8F828C00CF0A4FA3EAF38467F
:108CD0000AF034FE40464FF4A0212A461AF094F9D7
:108CE00040464FF4A0213A461AF0C5F8B8F82A00D9
:108CF000089920F00800A8F82810A8F82A0009E030
:108D000053A822A9702217F0F7F83EA80DA9542203
:108D100017F0F2F89DF89501CDF85491C10603D4EF
:108D20007099729A32E000BF00F0E00101F10F008B
:108D30008DF89501D8F81420049F6F9B3A44934214
:108D400004BF41F00B008DF89501D8F81C10039B6F
:108D5000719AC91A8A4204BF00F0F7008DF8950194
:108D6000D8F81820069B70991A44914204BF00F06D
:108D7000FD008DF89501D8F82030059F729ADB1B15
:108D80009A4204BF00F0FE008DF89501501AA20629
:108D90000A9200F1010208D5D8F8340000EB8900EE
:108DA0004078400744BF881A70900992504653A9F2
:108DB0006FAA0BF0BFFFD8F82C00759D50F82BA0C0
:108DC00073984C99281A469A4D9B9DF8435101304F
:108DD000CDE900100BA8514602951EF031FD6FAB96
:108DE0000FCBDDE90B574419121B013202EBD27293
:108DF00000EB6202C819181A013000EBD0706F92B4
:108E000001EB600051190A9A7191C119002A709002
:108E100072910FD5D8F8342002EB890252785207AC
:108E200008D5099A02EBD272A0EB62007090A1EB18
:108E3000620072909DF84401CDF814A1DDF81CA0E9
:108E400040F040008DF8440150463EA96FAACDF88D
:108E500000910AF02DFDD8F8387009F10109B945E3
:108E60000BF10100FFF4E8AEB8F82A0020F008008A
:108E7000A8F82A0077B000F000B830BCBDE8C08F79
:108E80002DE9F04FDDB0044612F0D0F8054620463B
:108E900012F020F9804628460021302219F0A8FD62
:108EA000074628460021122219F0A2FD82462846D4
:108EB0000021132219F09CFD834628460021102230
:108EC00019F096FD48AE044630460AF037FD2846B4
:108ED0004FF40031324619F0CEFFD5F83090B9F199
:108EE000000F06D10DF1A00928464946802211F055
:108EF00003FD0AEB070006900BEB0700079095F8BF
:108F00004C00E61900F00F000138B0FA80F0440977
:108F100028460021272219F06BFD4FF0FF3151FA4E
:108F200080F0B0FA80F1686B4909002841EA040B2F
:108F30007AD0CDE9048614F0F5F80746022811D15D
:108F40009DF86B01696B509ADDE956C36FF060467E
:108F5000CDE901600AA8CDF800C01EF071FCDDE982
:108F60000A8A0DE0686B0AA913F06BFBBDF82C8030
:108F7000BDF82EA04FF0FF3101281CBF88468A465D
:108F8000BBF1000F05D068690699084408EB0001A1
:108F900004E0E8690799411AA1EB0800AC690139BE
:108FA000022F249026910FD10598696B20442590BB
:108FB0005044DDF81080013827904F9148A924AA29
:108FC00040460AF075FC2EE0284618F0D1FEA0EBD2
:108FD0000A0000EBD07004EB60002590504401388B
:108FE0000AAC279020460AF043FC28464FF4003193
:108FF000224619F0E4FE08EBD8700AEBDA71401053
:109000004910CDE91A0128464FF400316E2219F0BB
:10901000EFFC696BDDF810801590119124AA404691
:1090200021460AF09DFB059E0AAC20460AF086FC0C
:1090300028460021224619F01EFF9DF87300129A5F
:10904000DDE918736FF06041CDE9011008A84946C9
:1090500000971EF0F5FBA869696B099A30442590CA
:109060001044279049B1BBF1000F13D00898079A1C
:10907000E9690244891A249111E06C69284619F0C3
:109080009FFD0899401A00EBD07004EB600024901B
:10909000084405E068690699084408992490084442
:1090A000296B2690CDF8449029B99DF8740040F0C2
:1090B00040008DF874000AA924AA40460AF0F8FB83
:1090C0005DB000F000B830BCBDE8C08F2DE9F04FB6
:1090D000ADF50F7D044611F0A9FF8246204611F040
:1090E000F9FF0AF1140600F1180405468BA8314671
:1090F0002246FAF7E8FD002800F0248294E80F00E9
:109100000DF5077C8CE80F008BAB0FCBCDE90D651F
:1091100084E807005046002130220794E3600024D1
:1091200019F066FC814650460021102219F060FCBF
:10913000064650460021112219F05AFC834650463B
:109140000021122219F054FC0C90504600211322E9
:1091500019F04EFC1290BAF82A0065AF40F00800F2
:10916000BAF82850AAF82A003846AAF828400CF085
:1091700051F850464FF4A0213A4619F045FF34AF5C
:1091800038460AF0DBFB50464FF4A0213A4619F06E
:1091900072FEBAF82A00069520F00800AAF82850B6
:1091A000DAF81850AAF82A00504619F04BF806EBE6
:1091B0000901C04329440844CDE9834050460B9639
:1091C000819419F038F8804650460021272219F082
:1091D0000FFCDAF83010002900F0B0810C9A5FFA29
:1091E00080FE6FEA08004A4410440590129800245B
:1091F000C24309EB0800101A04906FEA0B004FF00D
:10920000000B0A920990CDF83CE000BFDAF8380074
:10921000849A50F824008E9F531CBA4202448293D1
:10922000849280F28B81BEF1010F05D1DAF81C2007
:10923000049B1A44819204E00D9A059B12681A441B
:109240008392DAF82CC0DDF83890BCF1000F00F002
:10925000718100EBD07040104FF00008109408901E
:10926000DAF8343053F82B00002814BF00680020CF
:10927000BEF1010F119009D1819ADAF83C00511E1C
:10928000839150F82870D21B819208E08399DAF814
:109290003C004A1C819250F8287039448391ACF10B
:1092A0000107474524D900EB8800051DA8EB0C00F9
:1092B000A7EB080403EB8B0701300023464612940A
:1092C00057F82340CCB12678F60714D055F8236020
:1092D000BEF1010F03F1010319BF31448391921BC9
:1092E0008192C61803EB0806EAD1129F06E000BF80
:1092F0000027464602E008EB03061F46849B8C9835
:109300008342C0F20B819DF8DD011297829F4507D1
:10931000CDE91B271D911E930BD50D9D0C9C2D682F
:109320002544AA4205DD769D05EBD575A2EB6502C5
:109330001B9282070BD5DAF818200B9D2A4497421E
:1093400005DD769A02EBD272A7EB62021C9202074D
:109350000ED5DAF81C200A9F3A44914208DA769A30
:1093600002EBD27702F00102114401EB67011D917B
:10937000C0070ED0DAF8200009990844834208DAC1
:10938000769800EBD07100F00100184400EB61000A
:109390001E90DAF844001099129F814210D1DAF839
:1093A000400080450CD1BAF8281001F0600201F0AD
:1093B0000600202A08BF203009070ED470B900BF6C
:1093C00049AC204665A9702216F096FD1FA834A965
:1093D000542216F091FD214626E00830BAF82A10F2
:1093E000AAF8280041F0080049ACAAF82A00204653
:1093F0000BF010FF1FAD28460AF0A0FA50464FF4BC
:10940000A021224619F000FE50464FF4A0212A4622
:1094100019F031FDBAF82A00069920F00800AAF8E0
:1094200028102146AAF82A0010981BAACDE94B085B
:10943000CDE9210848460BF07DFCDAF8340050F8FD
:109440002B00002866D050464FF4A021122219F0BC
:10945000CFFA814650464FF4A021132219F0C8FAE2
:10946000044650464FF4A021102219F0C1FA80465C
:1094700050464FF4A021112219F0BAFA81AF8ECFD5
:109480001C1B01EB090502EB08011891381ADAF8E8
:109490003410179519941A9051F82B00119F00F170
:1094A0000801DDE92D03651B3C9A0135C7F3400C2B
:1094B000CDE9000585A8CDF808C01EF0C1F917F068
:1094C000020F0BD182988699089A01EBD171104452
:1094D000A0EB610200EB610018921A9013A88BA90F
:1094E00081AAFAF7F0FBDDF8389090B113AB0FCBFF
:1094F000079C84E80F00DAF834001FA950F82B000D
:1095000017AA0830269048460AF0D2F98BAB0FCB49
:109510000FC4129FDAF82CC0DDF83CE00BEB07001B
:1095200006F10108E04500F1010BFFF499AEDAF80D
:109530003010109C01348C42FFF468AE87AB0FCB27
:10954000079F0FC70DF50F7D00F000B830BCBDE8D8
:10955000C08F00002DE9F04FB1B000F1140701F108
:1095600018040D4682462DA839462246FAF7ABFB71
:10957000002800F0FE8094E80F000DF1A40C8CE8A8
:109580000F002DAB0FCBCDE9037584E807005046E3
:10959000002112220094E36019F02AFA0690504646
:1095A0000021102219F024FA0590504618F051FBC2
:1095B0000446504618F017FB0AF12C0B0890584649
:1095C000FBF766FE054650460021152219F010FAF9
:1095D000DAF8701027464A1E02FB10401522B0FB35
:1095E000F1F850464FF4A02119F002FA8146681EA6
:1095F00009FB10800021B0FBF5F650463022012E09
:10960000D8BF012619F0F4F90546504618F0E0FCE1
:109610000190504618F008FE09AC079020460BF068
:10962000F9FD50464FF4A021224619F0EDFC9DF8BB
:109630005300DAF8201000F0F8008DF85300FF20F6
:109640008DF844001098DAF870400844002C2890F7
:1096500000F08B80A7EB080002900698019928443F
:10966000401A019009A821300690089805992A46C9
:10967000084406EB090510444FF00008059000BFB0
:109680000398CDF83080076800200B905846FBF710
:10969000F9FD002863D081460298611E08FB00F0A6
:1096A000B0FBF1F001990844C41900BF99F810000B
:1096B000C0074DD19AF87400A119000754BFD9F81A
:1096C0000C0000202D9A4B1E9142259427933BDDE0
:1096D0002F998C4243DC99F80A10069FDAF8702023
:1096E000B970B9F808104044B0FBF2F3398003FBBD
:1096F000120099F810200427D9F8041007EA920202
:10970000524451F82030576CD2F84CC02A463546A6
:10971000089EDB1B73432E461546ACEB070293FBFA
:10972000F2F2079FDAF818303A44059FBA1A1A4441
:10973000269251F820006FF00041884204D004982E
:1097400009A925AA0BF0F6FA0B982C4401300B90CE
:1097500058464946FBF7A9FD81460028A6D1DAF80C
:10976000704008F10108A0458AD329AB0FCB009FB8
:109770000FC731B000F000B830BCBDE8C08F0000AA
:109780002DE9F04FD1B000F1140A01F118040D4693
:1097900006464DA851462246FAF795FA002800F0F1
:1097A000F6814DAB0FCBD5E906B8D5E908C784E8FB
:1097B0000F00306F0228C0F0EA81304600213022CD
:1097C00003976746CDF810C019F012F907463046E6
:1097D0000021122219F00CF91790304600211022B6
:1097E00019F006F91690304618F033FA1890304602
:1097F00018F0F9F971690E903046159118F0E8FBF0
:10980000D6F818901490304618F00EFD139049A821
:1098100051462246FAF757FA002800F0B88139ACD1
:109820002046BA460C950AF05AFD30464FF4A02166
:10983000224619F084FB1DAC20460BF0EBFC3046B1
:109840004FF40031224619F0DFFB30464FF400316F
:10985000012219F0CDF80D9000EBD07430464FF492
:109860000031022265100F9619F0C2F80B9000EB40
:10987000D0704110B5EB600F4598119500EBD07298
:109880001091B8BF6110B1EB620F05DD9DF8211199
:1098900041F010018DF821110128CDF804805F46B8
:1098A000CDF808B005D19DF8210140F010008DF8E9
:1098B00021010F98016F00F12C0420461291FBF753
:1098C000E7FC01383B901F902046FBF7F5FC002891
:1098D00000F0548106461798159A50441699104482
:1098E000149A5144801A179001EB09001399401AF9
:1098F000169039A800F108051DA92C30069001F139
:10990000210001F1080705900498119908440130DD
:109910001490C8430299084413900D98002102380E
:1099200010F1030F4FF0000038BF01200B9A023AEC
:1099300012F1030F38BF012108400D900994CDE9C1
:10994000077500BF307C2946C0073A4640F00881C1
:10995000B07A0699DDF83CE08870308900250880EF
:109960003089059904220880B07A3C9588709EF869
:1099700074002095000758BFF56817980E9C40901A
:109980004290317C706802EA9101714450F82500E0
:109990004A6CC96C801A6043891A90FBF1F0169AE0
:1099A000211ADEF8700011440028439100F0A580D0
:1099B0004FF00008AB464FF00009CDE90A111595AC
:1099C000DDE94213149ADA4691424091419300F343
:1099D0009980421EB8FBF2F2179FB4463A4405EB59
:1099E0000907B7FBF0F5429205FB107B377C7068E6
:1099F000042606EA9707774450F82B507E6CFF6CDC
:109A0000AD1B6543BF1B95FBF7F7169DE71B2F4466
:109A1000B9F1000F439739D0139DAA4236DB129D4E
:109A2000189EB54266463DDA119D4A1B1992109A5E
:109A300029441B91991A1A9199181C9150F82A10CF
:109A40006FF0004291426FF000410DD050F82B00B2
:109A5000884209D00C9839A9CDF8F0900AF00BFC97
:109A6000DDE90E4E6FF000410D9880B1706850F83E
:109A70002A0088420BD0A9F1010020900C981DA962
:109A800019AA0BF057F9DDE90E4E00E06646DEF844
:109A900070001899159D09F10109814588448FD3FB
:109AA00031E000BF50F82A306FF00045AB42EED0F5
:109AB00050F82B00A842EAD00B9BBB42D8BF3B46D4
:109AC0000A9DBD42A8BF3D46914202D1CDE90A534D
:109AD000DDE7501E4290CDE940059D4208BF0133AD
:109AE0000C9839A943930AF0C6FB4298DDE90E4E63
:109AF00001304290CDE90A77C9E74FF00009AB4643
:109B0000002000E0D3461299189A079F089D099CEF
:109B1000914239462A4623DA814539462A461FD1E1
:109B200070686FF0004150F82B002A468842394691
:109B300016D0DDE94201119BC21A1992109A1844FD
:109B40001B90881A1A9088181C90A9F10100209087
:109B50000C981DA919AA0BF0EDF839462A4600BF4A
:109B60000868136801380860581E106020463146A6
:109B7000FBF79FFB064600287FF4E4AE0C980299A1
:109B800081610199C161049901620399416251B0F7
:109B900000F000B830BCBDE8C08F00002DE9F04FE8
:109BA000C5B00A4602F11808834600F11401069276
:109BB00041A84246FAF787F8002800F0978198E814
:109BC0000F000DF1F40C8CE80F0041AB0FCB88E8CF
:109BD0000F0058460021302218F00AFF0290584624
:109BE0000021122218F004FF0C9058460021102288
:109BF00018F0FEFE0790584618F02BF808905846CB
:109C000017F0F1FFDBF814400990584618F0E0F91E
:109C1000DBF81810CDE90310584618F005FB2DAD00
:109C2000059028460AF05BFB58464FF4A0212A46CF
:109C300019F085F911AD28460BF0ECFA58464FF4AF
:109C400000312A4619F0E0F958464FF4003101225C
:109C500018F0CEFE824600EBD07758464FF4003124
:109C600002227D1018F0C4FE064600EBD0704110B1
:109C7000B5EB600F39980B9500EBD0720A91B8BF25
:109C80007910B1EB620F05DD9DF8F11041F0100184
:109C90008DF8F110012805D19DF8F10040F0100079
:109CA0008DF8F1000BF12C052846FBF705FB002889
:109CB00000F01C8181460C98029A079910441144C7
:109CC000049A2044841A0398B21E08440599401A45
:109CD0002DA92C31029111A9213101910999084432
:109CE0000790AAF1020010F1030F4FF000004FF0AF
:109CF000000138BF012012F1030F38BF01210840D5
:109D00004FF0040A0590CDE903580C9499F810001F
:109D1000C00740F0E38099F80A000299019A887020
:109D2000B9F808006FF000450880B9F80800108005
:109D300099F80A109BF874009170000754BFD9F885
:109D40000C70002734943694D9F8040050F827009A
:109D50000A2805D10120CEF20000369028E000BF8D
:109D600099F810104FF00408D9F8000008EA5101E2
:109D70000BEB010250F82700516DD26D089E0023B5
:109D8000009616F096F82044369099F81010D9F8FD
:109D9000040008EA91010BEB010250F82700516C16
:109DA000D26C099E0023009616F083F80799081AD2
:109DB000DBF870103790002900F084800026B84648
:109DC000DDE936023490B819B0FBF1F3359203FBAC
:109DD0001104D9F8040050F82400A84202D1A0468A
:109DE0006CE000BF99F81010099D0AEA91010BEB95
:109DF0000102516CD26C0023009516F05AF80799B5
:109E0000089D081A379099F81010D9F800000AEA4E
:109E100051010BEB010250F82400516DD26D00236B
:109E2000009516F046F80C990844369036B3DDE9F3
:109E300034010B9B6FF00045C21A18440A9B0F9027
:109E4000C81A0E90C8181090D9F804000D9250F856
:109E50002810A94210D050F82400A8420CD006982F
:109E60002DA930960AF007FA059828B1069811A98D
:109E70000DAA14960AF05EFFA04601E06FF00045BF
:109E8000DBF870108E4219D1D9F8040050F8240084
:109E9000A84217D0DDE936010B9B1496C21A0D9229
:109EA0000A9A18440F90881A0E90881810900698F5
:109EB00011A90DAA0AF03EFFDBF8701001368E42A0
:109EC000FFF47EAF2F98139901302F90481C3DABC3
:109ED00013900FCB049F039D0C9C0FC72846494647
:109EE000FBF7E7F9814600287FF410AF45B000F09A
:109EF00000B830BCBDE8C08FF0B581B0054611F0A8
:109F000095F80446284611F009F90746C06C4068E8
:109F1000B0F5A02F57D1384610F0BAFB06463846A8
:109F200010F0B0FB054630434DD0F86C8768062F23
:109F300005DD20463946402206F00EF838B116B14C
:109F4000002086F8200015B1002085F82800204662
:109F500039464FF4004205F0FFFFF8B135B1204615
:109F60001EF0BBFD2884000C85F822009EB16620FF
:109F700086F8200020461EF0B0FDA6F82100000C57
:109F800086F82300204605F0E5FFB84204BFB22062
:109F900086F8200002E0204605F0DCFF2046394626
:109FA0004FF4804205F0D8FF68B165B1FF2085F815
:109FB000280020461EF091FD696A2884000C85F86F
:109FC0002200481C686201B0F0BD2DE9F04F81B05D
:109FD0000C4620211E469046054618F068FE38B310
:109FE0000A9803282BD1284618F00CF9074613F0DD
:109FF000C6FA81462846002112224FF0000B18F0C5
:10A00000F7FC824628460021132218F0F1FC012FAC
:10A0100048D0022F4AD0032F42D16969EA695044DF
:10A020000844101A0130D9F81420D9F81C302AE05D
:10A03000301948BF74424445A8BF44465CE02846F6
:10A0400018F0E9F8074613F09AFA814628460021ED
:10A0500010224FF0000B18F0CBFC8246284600215E
:10A06000112218F0C5FC012F24D0022F28D0032F75
:10A0700016D1A9692A6A50440844101A0130D9F847
:10A080001820D9F8203000EBD070514401EB60006B
:10A09000991A013101EBD17102EB610B032714E036
:10A0A000002012E06869D9F814B006E0E969D9F82F
:10A0B0001CB008E0A869D9F818B05044012704E0A2
:10A0C000296AD9F820B0081A0227B6F1FF3F06DD49
:10A0D000B8F1FF3F10DC2FB183450DDB02E00FB17B
:10A0E000834509DC002C48BF023C002CC8BF023469
:10A0F000E01704EB90708410204601B000F000B827
:10A1000030BCBDE8C08F087900F0FE00042824D1DF
:10A11000C86C826B4ABBC26B3ABBC26A5AB9026B4B
:10A12000B2F5807F07D1426BA2F58072B2FA82F25B
:10A130004FEA521C01E04FF0000C436EB3FA83F279
:10A14000520942EA0C023BB132B190F821000E28CC
:10A150000BD0142809D000E03AB191F851006428DE
:10A1600024BF46F20140A1F85000002070470000D3
:10A170002DE9F04F85B0CDE903230C46074618F0D2
:10A1800041F800287ED08146384600211222A046A0
:10A1900018F02EFC054638460021132218F028FC42
:10A1A0000646384617F081FC00286BD00446284646
:10A1B00040F2010ACDE90165A8194FF0000B6FF0DC
:10A1C0006045C0F2040A4646009000BFB868514698
:10A1D000006850F82B80404618F070FD002849D1E7
:10A1E00040464FF4805118F062FD002842D0B9F18A
:10A1F000030F11D0B9F1020F08D0B9F1010F39D115
:10A200007969029AD8F81400114420E0F969019A9A
:10A21000D8F81C00891A1AE0D8F81400D8F81C10D5
:10A22000029B091A013101EBD17100EB61007969E0
:10A23000FA6901EB030C2B463546009E3144511A56
:10A24000013101EBD1712E461D460CEB6101049AE0
:10A250001044B0420EDB039A90420BDC401A0146D8
:10A2600048BF4142002D2A4600D56A42914238BF7C
:10A27000054600BF0BF1010B5C45A7D16FF06040B4
:10A28000854201D1002000E0684205B000F000B82E
:10A2900030BCBDE8C08F00002DE9F04F85B0CDE99E
:10A2A00003230C46074617F0B6FF00287ED08146F0
:10A2B000384600211022A04618F09AFB0546384681
:10A2C0000021112218F094FB0646384617F0EDFBEA
:10A2D00000286BD00446284640F2010ACDE901650A
:10A2E000A8194FF0000B6FF06045C0F2040A464613
:10A2F000009000BFB8685146006850F82B80404677
:10A3000018F0DCFC002849D140464FF4805118F089
:10A31000CEFC002842D0B9F1030F11D0B9F1020FE1
:10A3200008D0B9F1010F39D1B969029AD8F81800EB
:10A33000114420E0396A019AD8F82000891A1AE0FD
:10A34000D8F81800D8F82010029B091A013101EB47
:10A35000D17100EB6100B9693A6A01EB030C2B463D
:10A360003546009E3144511A013101EBD1712E4620
:10A370001D460CEB6101049A1044B0420EDB039AB7
:10A3800090420BDC401A014648BF4142002D2A464C
:10A3900000D56A42914238BF054600BF0BF1010B60
:10A3A0005C45A7D16FF06040854201D1002000E0FC
:10A3B000684205B000F000B830BCBDE8C08F0000B6
:10A3C0002DE9F04D88B090468B46119C002101226A
:10A3D0000593064618F00CFB054630460021022284
:10A3E000079618F005FB9BF803108A070ED540F27C
:10A3F000D172CB07C2F2000201D0954202D02BB934
:10A40000904203D101F0FD018BF8031011F001001F
:10A4100042F6CB30C0F6020041F67B520146C0F650
:10A42000020208BF1146049108BF024620461821C7
:10A430000692F5F745FF0798414617F0F5FA002810
:10A4400000F09E8001260746C0F206064546CDF87C
:10A450000C8000BF454507D038464FF4001118F076
:10A4600026FC002840F08F803846314618F026FC44
:10A47000002872D138460021812218F0B9FA5FFA1B
:10A4800080FABAF1000F4AD0207E6169C007A06847
:10A49000109A01F1010110446161A0604FD0206960
:10A4A00001EB4101C9001BF031F8002800F09F804A
:10A4B00080466069042200EB400008EBC00040F8D1
:10A4C000187C9BF803000021C007384608BF06220D
:10A4D00018F08EFA6169052201EB410108EBC10118
:10A4E00041F8140C9BF803000021C007384608BF50
:10A4F000072218F07DFA616901EB410108EBC10107
:10A5000011F8042C41F8100C02F0FE0001F8040CC4
:10A51000C4F81080DDF80C8041F808AC0FE0049915
:10A52000384688479BF80320A168920703D5059B0E
:10A530000A189A4259DC109A10440844A0600699FF
:10A54000384688472168884203DD0699384688479F
:10A550000146E06821600130E0609BF8030040079D
:10A560004FF0FF3058BF01202D180CD40798294612
:10A5700017F05AFA074600287FF46CAF002003E07A
:10A580000020454600E00120A168012902DB109A65
:10A59000891AA160626980F00100002A059A08BF4B
:10A5A0000A46B5EB080118BF01210843626018D1C3
:10A5B00007989BF803108068006850F828704807D7
:10A5C0004FF0FF3058BF012000EB08054FB106994E
:10A5D00038468847049920603846884760600120E3
:10A5E000E060284608B0BDE8F08D0120CDE70DA061
:10A5F00010A1CDE9001046F2CF5106A7C0F6030125
:10A6000014A303204FF486720297FAF7E1FE00BF0D
:10A61000FEE700BF4F7574206F66206D656D6F7229
:10A62000790000006E65775F64736320213D204EE2
:10A63000554C4C00417373657274656420617420DD
:10A6400065787072657373696F6E3A202573202880
:10A650002573290066696E645F747261636B5F6560
:10A660006E6400002DE9F04F99B000217D228146F3
:10A6700018F0BEF9062100F00105059001EA50002E
:10A68000284480F0010009908DF8630048460021BD
:10A690007E2218F0ADF98DF86000484600217F2237
:10A6A00018F0A6F98DF8610048460021802218F0C4
:10A6B0009FF90A908DF8620048460021272218F081
:10A6C00097F9064685F00100089048464FF00001D2
:10A6D0007DB9142218F08CF9044648460021152251
:10A6E00018F086F98346484617F0B3FA824617A851
:10A6F0000EE0152218F07CF9044648460021142289
:10A7000018F076F98346484617F06DFA824616A887
:10A710000B90F0B20C90D9F8188048460021102216
:10A7200018F066F9064648460021302218F060F914
:10A73000074648460021342218F05AF90546484693
:10A7400017F080FD06EB0801081AA90748BF384436
:10A75000D9F81480179048460021122218F048F9C1
:10A76000054648460021302218F042F90646484680
:10A770000021342218F03CF90746484617F05BFDEB
:10A7800005EB0801081A790748BF304440F2D1753B
:10A790001690484600210122C2F2000518F028F95F
:10A7A000064648460021022218F022F90899CDF801
:10A7B00034A0CDE9060649B1A84207D1B9F82A006C
:10A7C000DDF82C80099B40050AD51AE0099B51B998
:10A7D000DDF82C80AE4208D1B9F82A00000504D477
:10A7E00000200A9001E0DDF82C8051B90C98012876
:10A7F00007D10A98C0B250B101280AD10027159795
:10A8000055E00A9800270006159704D14FE0012073
:10A810000A9000201590D9F808000599008DC9B25A
:10A820000907421E02EAE172824226D200270DF198
:10A83000380818AE002500BF9DF85000314600F0E2
:10A84000FE008DF8500048465346CDE900B8FFF7AA
:10A85000B7FDD9F8081002460E98098D2B191D185E
:10A860008A42A7F10107E7D39DF86330DDF82C8019
:10A87000C7F1000A204627B902E04FF0000A002580
:10A880000020D907A5EB00071E46484602D117F065
:10A89000E0F901E017F0A7F901460A9815ADC0B23A
:10A8A0003A465346CDE900851EF07CFF33465807F3
:10A8B000DA4601D4002603E0D9F80800008D461ED0
:10A8C0000A940C98012808BF13F0010004D1D8F8AD
:10A8D00000003844C8F80000D9F80800008D86420E
:10A8E00065D2159A0A98099210440890DDF83480D0
:10A8F0000EAD18AC114600BF9DF85000214640F047
:10A9000001008DF85000484632464346D346CDE913
:10A9100000B5FFF755FD0C990746012920D19DF898
:10A920006300C00722D121462C460B9D0E982A6851
:10A930003B46101A2860DDE91602CDE900020D98A9
:10A940003246CDE9020A484604940C46FDF718FB4E
:10A95000129810F09BFF28680899401A1FE000BF6A
:10A96000DDE916018DE8030907E000BFDDE9160106
:10A97000CDE900010D98CDE9020A4846214632464C
:10A980003B460495FDF7FCFA12980B9D10F07EFFF4
:10A990000E980A9A29681044099A10440844D9F874
:10A9A00008102860098D3E468F420EADA4D340F2B8
:10A9B000D1700799C2F20000814202D0069981420B
:10A9C00002D1484619F054F948462E21002219B008
:10A9D00000F002B81AF034B830BCBDE8C04FFFF741
:10A9E000F9BF00002DE9F04F81B00446007FC00799
:10A9F00071D1E568924688464FF0010900264FF074
:10AA0000010B0DB1294616E0207F002E00F0080052
:10AA100089EAD000314618BF012108424FF00000FA
:10AA200004BF8BF001015FEAC17155D12046C047D8
:10AA300001464FF0000B16B900290E464BD02DB140
:10AA40002046D0470546B04201D144E00D46002DD6
:10AA5000D7D0286817F085FF0006D2D42F688FB1B1
:10AA60003846012118F023F930B9384617F0F2F9C9
:10AA700007460028F4D105E03846012118F017F9FF
:10AA80000028BED1E068854225D070B10668204616
:10AA900000F0B0FA02463046112119F0D1FF01282A
:10AAA00019D1E068006818F05DFCE5602D6820466B
:10AAB00000F0A0FA02462846102119F0C1FF012833
:10AAC00009D1E068006818F04DFC216909B1204601
:10AAD0008847012000E0002001B000F000B830BC41
:10AAE000BDE8C08FB0B5856BBDB10446286820B104
:10AAF00010F0D9FE286810F0C9FEE86908B108F026
:10AB0000BDF9286A08B108F0B9F9686810F0BEFE0E
:10AB1000284610F0BBFE0020A063B0BDF0B581B0A8
:10AB2000069E1C46154607460EB10020306038468A
:10AB3000002211F0FAF808B101B0F0BD38462946FC
:10AB40002246334601B0BDE8F04010F0E9BF90F86E
:10AB50004C200146C06AC2F34102022A06D0012AF3
:10AB600007D0002A18BF7047496B00E0096B084402
:10AB7000704780B5D1E90EC3D1E90CE16345B8BF98
:10AB800003F5B473634471450A4603EBD373B8BF4E
:10AB900002F5B472B2EB630FD8BF5910BEEB630F6E
:10ABA000B8BF71460844BDE8804070472DE9F04FBA
:10ABB00091B008910DA9054617F081F8284617F0C5
:10ABC000FFFF8346284617F0D3F80190284600215E
:10ABD00012224FF0000917F00BFF079028460021C2
:10ABE000132217F005FF824628460021102217F095
:10ABF000FFFE064628460021112217F0F9FE044602
:10AC000028460021142217F0F3FE074628460021AB
:10AC1000152217F0EDFE07EBD77107F0010202EBEA
:10AC2000610101F10108B8F10D0F4FF00D02A8BF4D
:10AC300090460D2EA8BF1646A96B0D2C06960595BD
:10AC4000A8BF1446002959D000EBD07100F00100D4
:10AC500000EB6100594600F1010B0D20BAF10D0F18
:10AC6000CDF810A0B8BF5046081A0238CDE902044A
:10AC70000198059D001B02384FF0000A0027019043
:10AC8000286B4FF00D0C00EB0A0150F80A20D1E9B7
:10AC90000136C86807998A42C8BF59460D9C0D29DC
:10ACA000A8BF6146611A1144099106990E9A8B4218
:10ACB000C8BF4146591A11440A9102998E4204991B
:10ACC000B8BF59460D29A8BF6146314421440B91B4
:10ACD000019988420399B8BF414608441044089935
:10ACE0000C9009A80022F9F7A2F8D5F8389030B9ED
:10ACF00001374F450AF1100AC2D300E000274F4543
:10AD000008BF4FF6FF77384611B000F000B830BCEE
:10AD1000BDE8C08F2DE9F04381B01C461746884638
:10AD20000646002018604AB1F06B00213A4600BF89
:10AD300050F8043B013A19442160F9D13046002112
:10AD4000272217F055FEC5B2304617F074FA216875
:10AD5000012D15D108442060304617F031FF2568D9
:10AD6000814630460021132217F042FE2844A9EB09
:10AD70000000F16BA06051F82710401A20600FE02E
:10AD8000081A206030460021122217F031FE216897
:10AD90000844F16B206051F8271008440138A06086
:10ADA0000020B8F1000F606008D0B06B002142466F
:10ADB00050F8043B013A19446160F9D13046002152
:10ADC000102217F015FE616808446060304617F0E5
:10ADD00039FA6168081AB16B606051F828100844AC
:10ADE0000138E06001B0BDE8F0832DE9F04F81B09B
:10ADF0009146884600211222064617F0F9FD824648
:10AE000030460021132217F0F3FD0446304600219E
:10AE1000102217F0EDFD834630460021112217F075
:10AE2000E7FD0746304617F0CBFE5444051B30467D
:10AE300016F09EFF5F44C01B854204DA304617F0CF
:10AE4000BFFE001B03E0304616F092FFC01B00EB74
:10AE5000D070D6E905120AEB600319440BEB6003CE
:10AE60001A44B9F1000FC8E900121CBF4010C9F81C
:10AE7000000001B000F000B830BCBDE8C08F000099
:10AE800010B584B00446806B20B9402014F0FBFF5D
:10AE900010B1A06304B010BD45F615510AA0C0F66C
:10AEA000030146F23B14CDE9001047F6F901C0F664
:10AEB0000304C0F6030108A303204FF402720294B6
:10AEC000FAF786FAFEE700BF6461746120213D2035
:10AED0004E554C4C000000006765745F6465636FFD
:10AEE0006465725F6461746100000000C1B1F0B517
:10AEF00083B08769788A6FF35F2070B1BA6800EB1E
:10AF000080008400002500BF501953598688CB1A51
:10AF1000B34207D31435AC42F6D1002003B0F0BDE4
:10AF200000207047817C0329F7D8DFE801F0020791
:10AF30001F22C168C088C95C0844EFE7ADF808303B
:10AF40008168028A4FF6E556C0F6020602A802237F
:10AF50000096FAF7DFFF0028DFD0B9682944D1E96D
:10AF60000223C988801A185A0844D7E7C0881844B1
:10AF7000D4E7ADF80A308168028A4FF6E556C0F68C
:10AF800002060DF10A0002230096FAF7C3FF00281B
:10AF9000C3D0B96829448A68C988801A01EB600067
:10AFA000BCE7F0B581B00446C06AF8B10F46002195
:10AFB000002516F039FDD0B10646806900213D1A02
:10AFC00030465A2217F014FDC768304600215C2233
:10AFD00017F00EFD00EBD07105EB6101384491FBD9
:10AFE000F0F5E06B854228BF451E00E000252846AD
:10AFF00001B0F0BD70B505460020002412F0CBFA78
:10B00000A8B10646002400BF304612F0FCFA012821
:10B010000CD0304612F0B9FAA842304608BF344688
:10B0200012F0B9FA06460028EED100E03446204678
:10B0300070BD2DE9F04F83B0174602914FF40031F7
:10B0400050229B46064617F0D3FC00EBD0753046E5
:10B05000A7EB6507FFF77BFDB6F85C100C1804F151
:10B060005A0000B21DF0C2FF7843019020B21DF0DB
:10B07000BDFF00FB07F830464FF44031122217F0B5
:10B08000B7FC814630464FF44031132217F0B0FC34
:10B09000824630464FF44031102217F0A9FC074693
:10B0A00030464FF44031112217F0A2FC0299019B67
:10B0B000D1E900120AEB650601EBE33109EB650308
:10B0C00002EBE83207EB650700EB6500CB1A314471
:10B0D000D71B1044CBE90037CBE9021003B000F0D6
:10B0E00000B830BCBDE8C08FB0B5054690F85C0034
:10B0F0000021C0F300142846012217F079FC40F229
:10B10000D171C2F2000188420CD1284600210522EB
:10B1100017F06EFC6FF06041884203D1688D000526
:10B1200058BF02342046B0BD4FF0FF320129B8BFEE
:10B130000138B8BF0B2211440B29C4BF01300C39B0
:10B14000012920D181074FF0000119D145F629428C
:10B15000CCF28F22504345F628434FEAB002C0F2AA
:10B160008F239A424DF20B734FF000024FEA3010DA
:10B17000C0F2A30388BF0122984238BF01211143C6
:10B1800001F11C0012E042F29340C9F2492050FB49
:10B190000110821002EBD070A0EBC0000844C1B2D5
:10B1A00000EBD11121F00101081A1F30C0B2704725
:10B1B0002DE9F04F81B097087B2A88BF1F27B0F890
:10B1C0002A900126C9F3051806FA07FCB8F1000F0A
:10B1D00001F47F0E3BD0D0F80CA04FF0000B00BF65
:10B1E0000AEBCB056D68AE011CD519F0080719D123
:10B1F00005F47F05754517D15AF83B506E6816EA7D
:10B200000C0F11D02E7A2D68FF2E12D12E685EB150
:10B21000083500BF367896426ED055F8086B002E80
:10B22000F8D101E0002E14D50BF1010BC345D7D1A5
:10B2300060E0002EF8D005EB860700BF17F8014B41
:10B2400094425AD0013E05F10405F7D1ECE74FF0E6
:10B25000000BC3454ED28CB24FF6FF71009484EAC6
:10B26000010A4FF0FF3400BFC56855F83B104E6827
:10B2700016EA0C0F32D005EBCB056D6805F47F069E
:10B2800076452BD1AFB217EA0A0F27D1BC4225DA97
:10B290000E7A0D68FF2E0BD12E68FEB105F1080164
:10B2A0003578954211D051F8086B002EF8D115E091
:10B2B000A6B105EB860100BF11F8018B904505D0C2
:10B2C000013E05F10405F7D108E00D1F009C296837
:10B2D000A742196013D0B0F82A903C460BF1010B3D
:10B2E000C9F305118B45BFD30020B4F1FF3FC8BFA0
:10B2F000012005E0002003E0043D286818600120DB
:10B3000001B000F000B830BCBDE8C08F2DE9F04FAF
:10B3100081B006465A3000B2984615464FEA520BA5
:10B3200002F00109A1EB52041DF060FE00FB04F7DE
:10B3300030464FEAE71A1DF059FE00FB04F1802F5A
:10B3400089F0010008DBAAF18003A0EB0B0202EBFD
:10B3500023220BEB232309E065F001070AF18003A8
:10B360005F44CBEB232207EB23230133CE1180294B
:10B37000C8F80020C8F8083008DBA6F18001A0EB6F
:10B380000B0000EB21200BEB212109E065F001020D
:10B3900006F180015A44CBEB212002EB212101313F
:10B3A000C8F80400C8F80C1001B000F000B830BCB8
:10B3B000BDE8C08F2DE9F04F8DB080469446DDE9A1
:10B3C0001902D8F82CE00693DCF80C3002440EFB8E
:10B3D00001E00EFB01F4844202EB03070A9277D2EC
:10B3E000DDE9171025460844002105900994CDF8A1
:10B3F00010C000BFD8F8340050F82520002A60D0D3
:10B40000D8F83C60AEF1010A56F821308A4527D9B8
:10B410000897AAEB0107079706EB810700EB850663
:10B42000A1EB0E00043701304FF000098B4600BF3E
:10B4300056F829C0BCF1000F16D09CF80040E40774
:10B4400014D057F8294009F10109234410EB0904ED
:10B4500009EB010BECD1DDF81C90D34606E000BFF0
:10B460004FF000098B4605E001EB090BDDF810C039
:10B47000DDE90874107880071CD4059802F10801F2
:10B48000169A181A069BCDE900200BA862460026E2
:10B49000029664461CF0D4F9A4460C98DDE90941F3
:10B4A0004D440844B842C8BF0746D8F82CE0594676
:10B4B00007E000BFDCF80C000A9A1044B842C8BF8D
:10B4C000074601350EEB0400854201F1010191D3DD
:10B4D00038460DB000F000B830BCBDE8C08FF0B504
:10B4E00085B00C4600215A22054617F081FA06461F
:10B4F00028464FF480215A2217F07AFAF668C76876
:10B50000284600215C2217F073FAB91901EBD171BA
:10B51000AE6900EB6107284616F02AFC00EBD070FC
:10B5200006EB600007EBD771A0EB61006060384468
:10B53000E06001A9284616F0C2FB0198039920603B
:10B54000A16005B0F0BDF0B585B00021054600242E
:10B5500016F06AFAE8B1064628464FF480215A22CE
:10B5600017F046FA074628464FF480215B2217F071
:10B570003FFA0546304613F0C8FB01466FF06040C5
:10B58000CDE9004003A83A462B4602941CF058F936
:10B59000039C204605B0F0BDF0B581B01C461546B1
:10B5A0000F460646FFF704FE012801D1012035E0D1
:10B5B0008C2D05D841F21C00C0F60300405D08E068
:10B5C00040F27040C1F20000006B20B1284410F836
:10B5D0008D0CC00712D117F47F0F1ED1681E0128F1
:10B5E0001BD83168C9B100BF012D14BFC869886973
:10B5F000B0B9096800200029F6D10FE017F47F0FD9
:10B6000008BF76684EB1318D30462A462346FFF793
:10B61000CFFD0128CAD07668F4E7002001B0F0BD64
:10B620002060C3E7F0B583B00446408D0F46C0F3F9
:10B6300005127AB1E1680B1D002100BF53F83150AB
:10B64000AE0103D525F07F46BE4204D001318A42C7
:10B65000F4D102E00021914239D100F1100111F43E
:10B660007C7120F47C700844608535D0E06849081E
:10B6700019F04CFF618DE060C1F30512511E0FD02F
:10B680006FF0070000EBC200E268013902EB000333
:10B6900053E902651650A0F108005D60F4D1E0683E
:10B6A0000021082214F028FD0C2014F0E1FBE168D1
:10B6B00008601BF03DFAE068416841F000714160AC
:10B6C000E068416867F317014160E06802E0E06804
:10B6D00000EBC10003B0F0BD46F28A2746F20F36F8
:10B6E00046F2B221C0F60307C0F60306C0F6030116
:10B6F00004A3032040F2A222CDE90067F9F768FE17
:10B70000FEE700BF6765745F7472616E735F737488
:10B71000796C6500B0B540F27040C1F20000D0F81D
:10B720007801144690F824000D46C0074FF012002F
:10B730004FF0020102D119F049FD01E019F0F4FCCB
:10B74000C0F3074284F0FF015FFA85FCC5F30723CD
:10B75000C5F30745624315FB012248F2810502FB50
:10B7600005FEC0F30722C0B26243604313FB01220F
:10B7700011FB0C006A4368434FF47F434FF47F0191
:10B7800003EAD232C0F3C75001EADE111044084484
:10B79000B0BD0000F0B5DDF81CC0DDE9054EF1B923
:10B7A000111FCDB2032D38BF0023012C214618BF35
:10B7B0001146032D28BF114600223CB1754626468E
:10B7C00055F8047B1A44013E3A44F9D106290ED8B3
:10B7D000D21ADFE801F004060A0C0F151C00002144
:10B7E0001AE0811A01EBD1710FE0811A14E0DCF844
:10B7F000001013E0811A621C91FBF2F10B460BE082
:10B80000811A91FBF4F303EBD371491004E000219A
:10B81000821A631E92FBF3F3CCF80010651E0DD064
:10B82000002200BF5EF82260194431440CEB82060E
:10B83000013295427160F5D1DCF800105CF82520EA
:10B840005EF825306CB1089D5DB100BFDCF800509A
:10B850005EF8046B013C3544A0EB05054CF8045B35
:10B86000F4D19818401AF0BD2DE9F04F9BB040F28A
:10B87000010900218346C0F2060916F0D5F8002818
:10B8800000F0B28058460021842217F0B1F8044637
:10B89000824650BB584616F0DDFA0021842217F08C
:10B8A000A7F8002800F0F1800546584600218922BB
:10B8B00017F09EF88146584600218A2217F098F822
:10B8C00007468600042000EB870014F0D1FA05EB50
:10B8D000890140F2010932468246C0F2060914F09D
:10B8E0000BFB6FF060404AF827004FF0FF36002056
:10B8F0006FF060415AF8002001368A4200F10400DE
:10B90000F8D1051F28460A94149614F0B1FA08904D
:10B910001090284614F0ACFA8046002E129069D0A0
:10B920004FF69A730024C1F6FF7300BF5AF8240043
:10B93000984238D1584616F0B8F860B30125002770
:10B94000CEF200055846394616F06EF849460646CE
:10B9500017F0B4F9B0B9304600218A2217F048F840
:10B9600001280FD130460021892217F041F8A0426A
:10B9700008D1304616F0FCF9854203DC304616F05B
:10B98000F7F905465846013716F08FF88742D9D3A4
:10B99000B5F1FF3F00DC002548F82450149E4FF617
:10B9A0009A73C1F6FF730134B442BFD340F2010968
:10B9B000CEF2000936B30020002500275AF82010E7
:10B9C000994205DD09EB0702114401F1640707E024
:10B9D00002D158F8201002E048F82010149E0D44BF
:10B9E0000130B042EAD310E00FA80021202214F069
:10B9F00083FBD7E140F20109002600270025CEF2A3
:10BA0000000902E0002600270025584600211422E4
:10BA100016F0EEFF0990584616F0E5F84FF69A74C6
:10BA2000C1F6FF745EB3099AC6F10101401B01FB28
:10BA30000200DDF8488020EAE0704FF0FF3200217C
:10BA4000002300BF5AF82350A5420ADD09EB050187
:10BA5000643101FB00F2B2FBF7F248F82320149E98
:10BA60001A460133B342EDD3002A08D4791A414370
:10BA7000B1FBF7F1DDF84880401A48F822000A9837
:10BA8000A8B950460FF002FF11E046F20E610FF622
:10BA90000C07C0F603010FF63003022040F27312C8
:10BAA0000097F9F795FC40F20109CEF200095846DB
:10BAB0000021852216F09CFF04460746CDF8288019
:10BAC00058BB584616F0C6F90021852216F090FFA3
:10BAD000002800F0E880054658460021862216F02E
:10BAE00087FF814658460021872216F081FF0646CF
:10BAF0004FEA800A042000EB860014F0B9F905EB48
:10BB0000890140F2010952460746CEF2000914F0BD
:10BB1000F3F96FF0604047F82600584616F099F8A0
:10BB200006904FF0FF3600206FF060413A58013622
:10BB30008A4200F10400F9D1051F284609941396A2
:10BB400014F096F907900F90284614F091F980466A
:10BB5000002E119066D04FF69A730024C1F6FF7341
:10BB600057F8240098423FD1584615F09EFF98B3ED
:10BB70004D464FF0000900BF5846494615F054FFA6
:10BB80000121C0F20601824617F098F8B0B950467C
:10BB90000021872216F02CFF01280FD150460021EA
:10BBA000862216F025FFA04208D1504617F008F86B
:10BBB000854203DC504617F003F80546584609F164
:10BBC000010915F072FF8145D6D340F20109B5F1A4
:10BBD000FF3FCEF2000900DC002548F82450139EF8
:10BBE0004FF69A73C1F6FF730134B442B8D3CEB1A5
:10BBF00000240025002000BF57F82010994205DDE1
:10BC000009EB0502114401F1640507E002D158F87F
:10BC1000201002E048F82010139E0C440130B0427E
:10BC2000EAD302E000260025002458460021152210
:10BC300016F0DEFE8EB3069AC6F10101121B01FB5F
:10BC40000020DDF8448020EAE07C4FF69A704FF047
:10BC5000FF3200210023C1F6FF7000BF57F82340D8
:10BC600084420ADD09EB0401643101FB0CF2B2FBF2
:10BC7000F5F248F82320139E1A460133B342EDD360
:10BC8000002A0AD4691A01FB0CF1B1FBF5F1DDF8C9
:10BC90004480ACEB010048F82200099888B9384686
:10BCA0000FF0F4FD0DE046F20E610FF22867C0F6CA
:10BCB00003010FF24C63022040F213120097F9F7D0
:10BCC00087FB584600211522002516F091FE82467A
:10BCD00058460021142216F08BFE09905846002188
:10BCE000272216F085FEC4B2584600210122012603
:10BCF00016F07EFE074658460021022216F078FE16
:10BD000040F2D171C2F200018F42074605D1BBF863
:10BD10002A0000F4006086EAD025601EB0FA80F0A8
:10BD20004609584615F095FF814658460021822263
:10BD3000002416F05DFE13990396079ECDE90018C6
:10BD4000C2B24846294653460296FFF723FD159096
:10BD500040F2D170C2F2000087424FF0000506D1D8
:10BD6000BBF82A00012100F4806081EA9025584642
:10BD700015F039FF064658460021832216F038FE9A
:10BD80001499DDE9087300910A99C2B20191304615
:10BD9000294603940297FFF7FDFC40F20109C0F227
:10BDA000060916900BA80021102214F0A5F9584698
:10BDB0000021122216F01CFE0546584600213022B2
:10BDC00016F016FE064658460021342216F010FEE4
:10BDD000400758464FF000014FF0100248BF35446D
:10BDE00016F006FE064658460021302216F000FEE8
:10BDF000074658460021342216F0FAFD8007DBF88A
:10BE0000140048BF3E442C18584616F014FA201A65
:10BE1000DBF818100D905846741816F013FADBF87A
:10BE20000810201A0A8D0E90002A00F00D824FF0A3
:10BE3000000800BF0868494650F82870384616F0D8
:10BE40003DFF38B1DBF8081008F10108088D804586
:10BE5000F0D3F9E138460021872216F0C9FD0646E5
:10BE6000384600218A2216F0C3FD0028EAD0002EB1
:10BE7000E8D0054638460021862216F0B9FD8146F5
:10BE800038460021892216F0B3FD8246384600214B
:10BE9000882216F0ADFD0A90384600218B2216F05C
:10BEA000A7FD0FAB07900FCB4E446FF0030C0CEBCC
:10BEB000860650F8294080599259001B141805EB4A
:10BEC0000A020CEB820251F82A0089589A58081A83
:10BED00009920890384600212722CDF81890D146C3
:10BEE00016F086FDC0B201280A98C0B20FD1022810
:10BEF00041D060B93E4656F8140FA246331D0ECB12
:10BF0000101A01300590581A0130049060E03E4646
:10BF100056F8141F012806F104052CCDA3EB0101EE
:10BF200001F10103A5EB020101F1010104912ED001
:10BF300002284BD0032862D10F980699A24650F8E8
:10BF40002140384600211A2216F052FD2044069066
:10BF5000384600211A2216F04BFD054638460021CE
:10BF60001B2216F045FD2844798DAAEB00000590B0
:10BF700041F4006041E03E4656F8140F331D0ECBED
:10BF8000101A01300590581A0130049038E00F98CB
:10BF900006991A2250F82100E11A01EBD17100EB49
:10BFA000610438460021059316F022FD0546384607
:10BFB00000211B2216F01CFD281A00EBD070798D91
:10BFC00004EB6000069021F4006016E0A2460593A1
:10BFD00006990F9850F82140384616F0F1FD0546B5
:10BFE000384600211B2216F003FD04EB0A01284409
:10BFF0007A8D081A069022F40060079D0FE00593E1
:10C00000DDE906150F981A2250F821403846002124
:10C0100016F0EEFC798D2044069021F400607885BE
:10C02000DDE908A1E8B2012801EB0A041FD00228CB
:10C030003FD0032852D11098002150F8295038469B
:10C04000182216F0D5FC28440A9038460021182200
:10C0500016F0CEFC054638460021192216F0C8FC21
:10C06000798D2844A4EB000941F480601EE010980B
:10C07000182250F82900DDF81090A4EB090101EB1B
:10C08000D17100EB61043846002116F0B1FC054681
:10C0900038460021192216F0ABFC281A00EBD070AC
:10C0A000798D04EB60000A9021F48060DDE9055A87
:10C0B00025E0109850F829A0384615F059FE05469D
:10C0C00038460021192216F093FC0AEB040128449B
:10C0D0007A8D081A0A9022F480600CE010980021F2
:10C0E00050F829403846182216F082FC798D2044F9
:10C0F0000A9021F48060DDF818A0DDE904957885C8
:10C10000384616F05DFDA84204D1384615F030FEE1
:10C11000484520D007F114030FCB0DF15C0C8CE8DF
:10C120000F00384617F01EF93046294602F003FB8F
:10C130003046494602F0FAFA384617F013F9384605
:10C140002C2117AA18F07CFC384615F083FE252117
:10C150003A4618F075FC384600216A2216F048FC71
:10C160000546384600216B2216F042FC064638464A
:10C1700016F026FD8146384615F0FAFD05F0C0415F
:10C18000B1F1005F14D125F0C041B1F5FA6F0FDCB9
:10C19000B1F57A7FC8BFC1F57A7148F21F5201FB31
:10C1A00009F1C5F2EB1251FB02F14A1102EBD17514
:10C1B00006F0C041B1F1005F19D126F0C04140F254
:10C1C00001090A9AB1F5FA6FC0F2060914DCB1F55B
:10C1D0007A7FC8BFC1F57A71484348F21F51C5F252
:10C1E000EB1150FB01F0411101EBD07604E040F27D
:10C1F00001090A9AC0F206090D9905EB0A00B31865
:10C200000844D7E905120E9E8842334408BF934282
:10C210003FF418AE461A38469D1A17F0A3F807F1F6
:10C2200014030FCB07F1140C3044324429442B443F
:10C230008CE80F00384617F095F8384631462A4604
:10C24000002317F01BF9FDE50F980FF01FFB109866
:10C250000FF01CFB11980FF019FB12980FF016FB52
:10C2600058460021012216F0C3FB0546584600211E
:10C27000022216F0BDFB40F2D171C2F200018D42E4
:10C2800018BF884202D1584617F0F2FC58462E21BA
:10C29000002218F0D5FB1BB000F038B84E6F2072AA
:10C2A0006F772064657363726970746F7220666F54
:10C2B000756E64206576656E206F6E2074686520EB
:10C2C000706172656E74000063616C635F726F779A
:10C2D000730000004E6F20636F6C2064657363729F
:10C2E0006970746F7220666F756E64206576656E16
:10C2F000206F6E2074686520706172656E74000036
:10C3000063616C635F636F6C7300000030BCBDE8F9
:10C31000C08F0000F0B581B00446C06A4FF44041C0
:10C3200003F036FB94F83610A08E4AB2032938BFCA
:10C330000C32C2EB42114AF6AB22A1F13E01CAF621
:10C34000AA22A1FB0212014648F21F5338BF01394D
:10C35000C5F2EB13A1FB033701EB9101A1EB5711E0
:10C3600001EBD71101EBD20144F625120131C2F2E3
:10C370009242A1FB0223CA1A03EB52029208A36B5A
:10C38000A2EBC20201EB0205F3B1E16BE1B1AE1D1C
:10C39000002700BFA06BA38E30F827209A420FD150
:10C3A00000EB8700827894F836309A4208D190F9F1
:10C3B0000310E06A31444FF4004203F0DBFDE16B0F
:10C3C00001378F42E6D3A08E218E884211D194F896
:10C3D000320094F8361081420BD194F93310E06AA0
:10C3E000294406314FF4804201B0BDE8F04003F02B
:10C3F000C1BD01B0F0BD0000F0B581B00C460646ED
:10C40000084600210C22002513F076FE16B33046B4
:10C4100010F088FE08B93069D8B140F27040C1F21E
:10C42000000000F1DC073846F8F72CFF88B105461C
:10C430002B683BB1686828B12846314622469847A8
:10C4400001280AD038462946F8F72FFF054600286C
:10C45000EED10025284601B0F0BD20890028F9D191
:10C460006078A688142801D1700004E005F0F2F984
:10C4700070430730C0082081ECE700002DE9F04F41
:10C4800097B0039091F84A0093468DF85200B1F8A6
:10C4900048000291D2E90712ADF85000BBF8240021
:10C4A000219E209C1D466FF35F201592ADF8580029
:10C4B00089B12DB128680121CEF2000188420AD14C
:10C4C000DDE90210229F14AB5A46CDE90046B84779
:10C4D00017B000F046B896E80F000DF1400C8CE85C
:10C4E0000700D4E9000213934142524210A802F01F
:10C4F00009F901200CAFCEF200000DF1200A0DF178
:10C500001009002D18BF2F46C7E90000C7E9020037
:10C51000584610A93A4610F083F8804697E80F0075
:10C520000DF1200C8CE80700D4E9001250460B9363
:10C5300002F0E8F8B8F1010FCAD148463146524638
:10C54000F7F7C1FB0028E3D0DDE9021025463446A9
:10C55000229E5A4614ABCDE900A9B04726462C4688
:10C56000D6E730BCBDE8C08F2DE9F04FABB08A46AE
:10C57000C96A80460B9361B9DAF83000B0F5807F64
:10C5800007D1DAF83400B0F5807B18BF4FF0010B0B
:10C5900001E04FF0010BD469DAF864502169B5FA73
:10C5A00085F01091278994F80190460920A8002170
:10C5B0002C2213F0A1FD9AF84C009AF84D108DF83A
:10C5C000940001F00F008DF8A80026EA0B00012866
:10C5D00039461797229708BFB9F10E0F63D0A9F11A
:10C5E0001401B1FA81F149090840012822D19AF8D1
:10C5F0004B0002281ED8349E179F96E80B00F26865
:10C60000181A109B249621932693511A0130A28860
:10C610007843B0FBF2F0013100FB01302096269008
:10C620007808CDE9286002208DF89C0012208DF852
:10C630008C0061E0002D18BF01255BEA050050D099
:10C640005BEA06005DD19AF84B00022859D85AF8E7
:10C65000540F1099349F2191DAF8101024970B6928
:10C660008DF88C902693DAF808300A89181A00267B
:10C67000299201301D9688882097A0F1010048BFBB
:10C68000BA461E90C8881CAC01381F9050462146FF
:10C69000092200231C96009601F0B0FE0220289487
:10C6A0008DF89C0028E0349CD8F808201CA821466E
:10C6B000F7F709FB002800F0EE8110989AF84A106D
:10C6C000269017982894299000202190BAF84800C5
:10C6D0008DF89710ADF8950002208DF89C002094FD
:10C6E0000AE09AF84B0002280BD83499109824914C
:10C6F000CDE920108DF88C9020A9404608F098FFD5
:10C70000C9E13598CDF83C80D0E90014D0E9023673
:10C710001CA8209034985D46D0E900B8D0E902709A
:10C72000CDE91C141690581A311B4C46CDE91E3623
:10C730000E9565B1B9F10F0F4FF0100418BFB9F1A4
:10C74000110F04D0B9F1120F14BF4C461424451C2C
:10C750002046CDF828904E1C05F07CF8142C15903E
:10C760001194079502D105EB450505E0204605F03B
:10C7700071F80730C0084543F9F743F905F0DAFAD4
:10C780000446F9F73EF905F0B8FA05F063F807300A
:10C79000C00860438000B0FBF5F0B042B8BF064669
:10C7A00006FB05F013F064FB18B3129747461D9F74
:10C7B000814621901198079D1F9CF119CDE9138A9C
:10C7C00001391CAA14284FEA45088DF88C001F91E6
:10C7D00024920D961FD106FB0891CDF888802691F2
:10C7E00002218DF89C101221CDE928258DF88C109E
:10C7F0002EE0AEA0B1A1CDE9001047F2DD61A7A700
:10C80000C0F60301B5A303204FF494720297F8F722
:10C81000DFFD00BFFEE70E2812D12892149A0221F4
:10C820008DF89C10B2F84810CDF89890ADF895109E
:10C8300092F84A1029958DF897100021219107E070
:10C8400005F008F80730C0081D9F00FB05F1229194
:10C85000DDE90E5AA74200F31B811298169AA0EB4D
:10C860000B01139818AE121A481C09901598013242
:10C87000C11D0798C9081391484317991290480899
:10C88000169021F001001099159002FB00101F99DD
:10C89000089206900C9400BF1C9A3498CDE9182792
:10C8A000D0E900021E9B1B914142524230461A932E
:10C8B00001F028FF002D57D00898109A0090179883
:10C8C000099B01901498314602900B98CDF8149072
:10C8D00003900A98049050460DF056F9149890F879
:10C8E0004B60032EC0F0B68011980E2800F0B28085
:10C8F000149886F0FF0490F8487090F849B090F8CA
:10C900004AA01198142801D012287BD11CA801F04C
:10C91000D6FE4FF4FC6E0128C0F29C80F9084FEA65
:10C920009B024FEADA0301FB06FC724373434D4658
:10C930002F8801384FEAD72616FB043606F4F8563E
:10C94000C7F3451107F01F074FEAC60611FB042184
:10C9500017FB04C70EEAD10146EA1727394425F828
:10C96000021BE5D176E000BF149890F84B00022836
:10C9700070D319981B99119A091A142A01F1010709
:10C9800025D1079D012FA9DB1699069A109B159EAC
:10C9900000FB0121189A00FB0630DDF898A001EB9E
:10C9A000020B00EB42064C4620463146424613F04D
:10C9B000A3FA504659462A4613F09EFA1598444465
:10C9C00006441698013F8344AA44EDD186E70E2A17
:10C9D0003FF484AF012FFFF681AF1099179A4E46AE
:10C9E00000FB02101899139A01FB0204129D3046B5
:10C9F00021462A4613F080FA17982E44013F04443A
:10CA0000F4D16BE71CA801F05AFE139900FB01FC5E
:10CA1000BCF1000F1ED007FB06F10BFB06F20AFB70
:10CA200006F3002719F8076009EB070516FB041643
:10CA3000360A09F807606E78A87816FB0426360ACD
:10CA40006E70139E10FB04303744000A6745A870CF
:10CA5000E8D300BFDDF83CA020A9504608F0E8FD6F
:10CA60001F9A0D980C9C1118571CA1421D971F91DD
:10CA700009DD1198214614281F9404D1A11A08FB3E
:10CA80000191269121460E9D944218AE3FF704AFC6
:10CA900048460EF0FBFE2BB000F028B84F7574200E
:10CAA0006F66206D656D6F7279000000746D705F48
:10CAB00062756620213D204E554C4C0041737365D4
:10CAC000727465642061742065787072657373692F
:10CAD0006F6E3A202573202825732900696D675FE2
:10CAE000647261775F636F726500000030BCBDE8FF
:10CAF000C08FF0B581B00446806E40F27047C1F23D
:10CB000000077865A17A090700F1BF81396DCD6909
:10CB100030B1216FF9B94FF4005116F0C8F8D0B90F
:10CB200004F1300128461CF086FE216F786591B132
:10CB3000D4F8BC0048B14DF28D11C0F6000120467A
:10CB400000F030FE0020C4F8BC002046F8F744F99D
:10CB5000A07A800765D4786DA16E884200F0AC8021
:10CB6000D4E90C23C4E90E23B1B13A6D0846032180
:10CB700017F066FFA07A800705D500207865A07AB7
:10CB8000800700F182812046002111F02BFAA07A63
:10CB900040F00800A07278E100284FF00005C4E9D9
:10CBA0001A0044D01BF0CAFFE060A07A94F89510F8
:10CBB00000F0FE00A07201F0FE0084F89500786D90
:10CBC0008021256784F89450C4E92255C4E91255A0
:10CBD0002565656516F077F830B9396D01201FF0CD
:10CBE00029FD002800F051813E6DB07A000700F168
:10CBF0004C81786D042116F05AF8002851D0786DD8
:10CC000015F0B0F8716F054699B1084615F0AAF80D
:10CC1000854211D00146706F89B1E8B13A6D122199
:10CC200010E000207865A17A890795D52DE10020D4
:10CC300042E015B9002015E09DB1786D0EE058B1C5
:10CC40003A6D112117F0FCFEB07A800704D5002060
:10CC50007865B07A800724D4786DA5B10FF088FA92
:10CC600015E0706F796D884219D03A6D112117F077
:10CC7000E7FEB07A800701D4786D04E00020786583
:10CC8000B17A89070DD43A6D102117F0D9FEB07A28
:10CC9000800704D500207865B07A800701D4786DCC
:10CCA0007067A07A800701D4786D05E00020786570
:10CCB000A17A890700F1E98004F130064ECE921B7B
:10CCC000C91AA36DC4E912121944E36D01EBD171C5
:10CCD0001A4402EBD272491052100028A165E26595
:10CCE0006266216600F0D180802115F0ECFF0546D8
:10CCF00030B9396D02201FF09DFC002800F0C5807E
:10CD0000386D807A000700F1C0802046F7F7D4FE26
:10CD1000A07A800705D500207865A07A800700F109
:10CD2000B480206F002872D194F89500C0076ED1AE
:10CD3000A66E002E6BD030464FF4004115F0B7FFC1
:10CD400030B1304615F086F806460028F3D15EE093
:10CD5000D4E9121000298C4601D5C1F1000C3A6DBE
:10CD6000002892F82630864601D5C0F1000E9C4579
:10CD700038BF9E4502D3D4E9223C02E04FF0000CBC
:10CD8000002313EB010E6044F446C4E922E048BFDF
:10CD9000CEF1000C92F827100028034600D543423C
:10CDA0008C4598BF8B4232D994F895109C4541F040
:10CDB000010184F8951009D994F89400BEF1010F8F
:10CDC00000F00F00B4BF1030203007E094F894104A
:10CDD000012801F00F00B4BF4030803084F8940087
:10CDE00030460D2117F02CFEA07A800704D50020D4
:10CDF0007865A07A80070AD4386D0521324611F093
:10CE000064F9386D807A800744BF00207865A07A85
:10CE1000800704D500207865A07A800735D4607A31
:10CE2000022806D1206A20B1017DC90718BF1CF075
:10CE3000A3F8206F48BBA07AC00712D1E0681BF0AE
:10CE400067FE396D0A8D90420BD91DB905201FF080
:10CE5000F1FBD0B1A07A40F00100A0721BF06EFE91
:10CE60002061206F88B9A07AC0070ED020691BF01E
:10CE70004FFE396D4A8D904207D91DB906201FF02B
:10CE8000D9FB10B11BF05AFE206101B0F0BD0000CB
:10CE90002DE9F04F9BB0817A8346806E40F270445A
:10CEA0000907C1F2000417D5226D032117F0C8FD50
:10CEB0009BF80A10880706D5002060659BF80A10C9
:10CEC000880700F1DB80002001F0F701CBE91A00B0
:10CED000CBE903008BF80A1060659BF80910DBF8BA
:10CEE0007050022909D1DBF8201031B10A7DD20738
:10CEF00003D108461BF0E4FF606D002800F091802C
:10CF0000802115F0E0FE40B10020CBF86800CBF89E
:10CF10000C00CBF81000B5B9B0E0216D08201FF06F
:10CF200089FB002800F0AA80002D00F0AA80216D66
:10CF30000A201FF07FFB002800F0A0800020CBF823
:10CF40006800CBE903004FF000094FF4807A002716
:10CF5000CDE90499039500BF284600216E2215F003
:10CF600047FD0744284600216C2215F041FD04B21C
:10CF7000B9EB004F28464FF000014FF06D0208BF9B
:10CF8000012415F035FD06460FFA8AF004FB00F87F
:10CF900028464FEA182A14F05DFF05460028DBD129
:10CFA00031B20024B4EB064F08BF01210FFA8AF01A
:10CFB000414309024FF6FF723B0421EA020108BF18
:10CFC000B1F1807F1FD009144FF480337A4293FB74
:10CFD000F0F793FBF1F115B23EB20FFA81F90BF1C4
:10CFE000580004AF294632464B46CDE9007418F08C
:10CFF0004CFA0BF16000294632464B46CDE90074ED
:10D0000018F043FA08E04FF60072C0F2FF0202EA9D
:10D010000802B2F5803FD6D140F27044039DC1F2C0
:10D0200000045DB3DBF8BC0010BB04AD284600F083
:10D0300013FC00214FF480600D914FF000411090DF
:10D04000CDE90E104DF28D10C0F6000005904DF2A6
:10D050001D20C0F60000CDE908004FF6FF70ADF8C6
:10D0600054002846CDF810B000F00CFDCBF8BC0001
:10D070009BF80A00800744BF002060651BB000F0E9
:10D0800016B89BF80A00C00705D1216D04201FF0D7
:10D09000D1FA0028F2D0216D07201FF0CBFA00282A
:10D0A000ECD00020CBF86800CBE90300E6E730BC09
:10D0B000BDE8C08F817A8A0758BF704790F89430D6
:10D0C000002203F0F00301F0FC01C260026180F86D
:10D0D0009430C0E91A220267C0E91422C0E916227E
:10D0E000C0E92222817240F27040C1F20000426524
:10D0F000704770B50446807A0D4640F00200A07279
:10D1000040F27040C1F20000026DA24204BF002153
:10D11000416520780138012837D84DB1606F2E461F
:10D12000A84204BF00206067A06EA84211D103E0AE
:10D13000A66E002060671EB30020A0663046142152
:10D14000224617F07DFC20461421324610F0BDFF28
:10D15000B5B1E06EA84204BF0020E066206FA8428F
:10D1600018BF70BD0020206728461421224617F002
:10D1700067FC204614210022BDE8704010F0A5BFD6
:10D18000256F0020002DE066ECD170BD10B584B095
:10D19000B8B10446F7F720FE94F89400000701D0D8
:10D1A000206F60B9D4F8BC0048B14DF28D11C0F6C3
:10D1B0000001204604B0BDE8104000F0F3BA04B00E
:10D1C00010BD45F615510BA0C0F6030145F6F85405
:10D1D000CDE9001046F20251C0F60304C0F6030187
:10D1E00007A3032040F243620294F8F7F1F800BF6E
:10D1F000FEE700BF76617220213D204E554C4C0069
:10D20000696E6465765F7363726F6C6C5F7468726D
:10D210006F775F616E696D5F6362000030B10068B7
:10D2200020B10021C0E91611C0F8BC107047F0B55C
:10D2300081B0044690F83C00C00704BF01B0F0BDC7
:10D24000D4E90B01A26BB0FBF2F05208B1FBF0F392
:10D2500003FB101102FB0011B1FBF0F303FB1013F1
:10D2600002FB00305A22C4E90C102046002115F0C0
:10D27000BFFB0546204600215C2215F0B9FBEF6894
:10D280000546204614F0AFFC06462046002114F067
:10D29000CBFB06EBD673216B7A195B1007EBD777C4
:10D2A000A3EB670301FB123101B0BDE8F04017F0BA
:10D2B000C1BE70B540F210660D460446C1F20006CC
:10D2C0000020306020461F212A4617F0B9FB306845
:10D2D00058B1017839B1294619F0C8FB28B1316835
:10D2E00020461AF089FD002070BD012070BD2DE997
:10D2F000F0418CB01D4616460F46044616F094F8D1
:10D30000B74218BF002836D0B7F5B470D8BF38463A
:10D31000E26AB6F5B471D8BF314610441144B0F595
:10D32000B476D8BF0646B1F5B477D8BF0F4609A981
:10D330000BAA2046FDF759FD20462946502215F03C
:10D3400057FB804620462946512215F051FBDDE966
:10D3500009310028BDF82C2018BF012005AD02902E
:10D3600018463346CDE90078039505F0D5F82046F8
:10D37000294616F00EF80CB0BDE8F081B0B588B0C3
:10D3800006AD05AA29460446FDF72FFD059A01AB17
:10D3900020462946FDF74DFE204600F029F90128D8
:10D3A00004DB014601A80A4601F09CF901A92046C8
:10D3B00015F0EFFF08B0B0BD2DE9F04F89B00D4674
:10D3C0004FF6FF718D4250D00446806BA8424CD975
:10D3D000206B2A0100EB051150F802B0D1E901A938
:10D3E000D1F80C8001A9204614F069FC20460021E8
:10D3F000142215F0FDFA064620460021152215F0EC
:10D40000F7FA0746204614F063FC04F088FC46F265
:10D410006761C6F2666150FB01F0811001EBD071CB
:10D420008E42D8BF0E468F42C8BF3946DDE9012380
:10D43000901B32444A4458440792226C0590581A73
:10D44000194450444144AA420690089109D1626BA4
:10D4500002EB85025278520742BFC94301EB4000FC
:10D46000069005A9204615F094FF09B000F000B819
:10D4700030BCBDE8C08F2DE9F04F85B00446006F89
:10D48000884240F2968020460D4614F0E2FB0646A4
:10D49000204614F09DFD94F874100A0756D50746EF
:10D4A00001F00700022857D001284FD12046002163
:10D4B000302215F09DFA804620460021122215F0F8
:10D4C00097FA6169A8EB0702104400EB01082046B7
:10D4D0004FF4A021482215F08BFA074620464FF45E
:10D4E0000031012215F084FA0744A069216A226FF5
:10D4F000C01B0290C8190490501EA84206FB05F9F3
:10D50000A8EB070A0FD9B9FBF0F151440191691C4E
:10D510007143B1FBF0F007EB08010844039001A947
:10D52000204615F036FF002D43D0216F681E704352
:10D530000139B0FBF1F050440190B9FBF1F007EB79
:10D5400008010844039001A9204630E0204605B0B8
:10D5500000F032B815F006BF20460021152215F064
:10D5600047FA8046206F08EB0601B1FBF0FB20462E
:10D570000021302215F03CFAD4F814A08146204650
:10D580000021122215F034FA064601A9204614F0B3
:10D5900096FBA9EB07000BFB05005044304400EB61
:10D5A0000B01A0EB080003910190204601A915F0A2
:10D5B000F0FE05B000F005B830BCBDE8C04FFFF785
:10D5C000C9BF30BCBDE8C08F02680B889A421CBF3F
:10D5D000D01A704740684988401A704702680B7833
:10D5E0009A421CBFD01A704740684978401A704769
:10D5F0002DE9F0414FF440313C22044615F0F8F992
:10D60000804620464FF44031422215F0F1F906469B
:10D6100020464FF44031402215F0EAF907462046F3
:10D620004FF44031402215F0E3F9054620464FF40F
:10D6300040314122002FD8BF6D4215F0D9F907467D
:10D6400020464FF44031412215F0D2F906EB080193
:10D65000002FD8BF404229440E1820464FF44031D5
:10D66000382215F0C5F9054620464FF440313B22DB
:10D6700015F0BEF928448642C8BF3046BDE8F081A7
:10D6800070B504460DF0CEFC064620460DF0CEFCEB
:10D69000054614F0DFFB26F001012C2918BF70BDF0
:10D6A00004462846002112F03FF820461CF093FA69
:10D6B0002046BDE870401FF0BBB8000080B582B0C6
:10D6C000017DD0E900C2D0E902E300699A1AA0EB1B
:10D6D0000E000132431C4FF0000E6046CDF800E012
:10D6E00005F06FFE08B102B080BD46F2154C46F25F
:10D6F000A641C0F6030C0FF21C0EC0F603010CA3EA
:10D70000032040F24A22CDE900ECF7F761FE00BFAA
:10D71000FEE700BF41737365727465642061742015
:10D7200065787072657373696F6E3A2025730000B7
:10D730006C617965725F726573686170655F647250
:10D7400061775F627566000070B5044614F0ADF94C
:10D75000054650B1002600BFA068006850F82600BA
:10D76000FFF7F2FF0136B542F6D1608DC1070CD04C
:10D7700020F001006085204616F07AFA204616F067
:10D7800071F915B12046F7F731FD608D810758BF5B
:10D7900070BD20F00202204600216285BDE8704085
:10D7A00015F0C6BF2DE9F041054640F27040C1F2C8
:10D7B000000000F1AC0630460C46F7F763FD38B3C5
:10D7C00007464FF0000800BF15B13868A84203D1E2
:10D7D00044B17868A04205D030463946F7F765FD78
:10D7E000074612E030463946F7F7C8FD796909B1B6
:10D7F0003846884738460EF049F8F9F720F83046A1
:10D80000F7F740FD07464FF00108002FDCD101E09B
:10D810004FF0000808F00100BDE8F08170B5054642
:10D8200040F27040C1F2000000F1AC0630460C46F8
:10D83000F7F728FD68B101460868A84203D14CB14A
:10D840004868A04206D03046F7F72FFD0146002871
:10D85000F2D10021084670BDB0B50021582204461F
:10D86000002512F049FC4FF4FA706421C4E90B1052
:10D870000120A4F844004DF6131094F84E10C0F6A1
:10D880000000C4E9080541F0010084F84E00B0BD75
:10D890002DE9F04182B015460646D0E90C201C4621
:10D8A000DDF820800F464FF4806C00210023CDF876
:10D8B00000C012F0FEFA39462A462346CDF8008011
:10D8C00004F010F8716AF26A521A504301EBA0207A
:10D8D00002B0BDE8F08180B582B0B0F94610B0F971
:10D8E0004820B0F94A30B0F94CC0CDF800C0FFF77D
:10D8F000CFFF02B080BD80B582B04FF4806C0021B4
:10D90000002240F25123CDF800C0FFF7C1FF02B062
:10D9100080BD10B582B00446D0E90C204FF4806C75
:10D9200000210023CDF800C012F0C3FA616AE26A58
:10D93000521A504301EBA02002B010BDD0E90C12E6
:10D940002C238A42B8BF2423C0587047F0B583B057
:10D9500042F2117714460646B8420D4611D346F2FC
:10D960004D6146F284630FF2A40CC0F60301C0F6C9
:10D9700003030220CD22CDE900C6F7F729FD42F2CC
:10D98000F676BD4210D346F24D6146F2846329A774
:10D99000C0F60301C0F603030220D122CDE90075D1
:10D9A000F7F716FD42F2F67542F21170844210D379
:10D9B00046F24D6146F2846328A7C0F60301C0F623
:10D9C00003030220D522CDE90074F7F701FD42F2EE
:10D9D000F674701D6A1D631D80B24CF6CD4192B283
:10D9E0009BB248434A4359430023CFF6F07303EAFE
:10D9F00041014FF60043C0F27F0303EA522202EBDB
:10DA0000D040084400F1004003B0F0BD737065657C
:10DA100064206973207472756E6361746564207428
:10DA20006F20313030303020287761732025752900
:10DA3000000000006D696E5F74696D652069732078
:10DA40007472756E636174656420746F2031303058
:10DA50003030202877617320257529006D61785F4B
:10DA600074696D65206973207472756E6361746585
:10DA70006420746F2031303030302028776173207B
:10DA80002575290070B584B040F27046C1F20006D9
:10DA9000054606F1AC00F7F71CFCE0B32946582216
:10DAA000044612F029FA2868A84208BF246094F8B6
:10DAB000540096F8A51000F0FD0040EA410084F8FB
:10DAC00054001BF03BF894F84E102065C9071DD098
:10DAD000A16939B120468847616AE26A014410446D
:10DAE0006162E06220461CF02BFD686808B9A868F6
:10DAF00010B120461CF0BAFC626812B12068616A5D
:10DB00009047A26812B1616A20469047F8F797FEE5
:10DB1000204604B070BD0CA010A1CDE9001046F263
:10DB20004D6105A6C0F6030114A303205B220296F3
:10DB3000F7F74EFCFEE700BF4F7574206F66206D4F
:10DB4000656D6F72790000006E65775F616E696D5B
:10DB500020213D204E554C4C000000004173736560
:10DB6000727465642061742065787072657373697E
:10DB70006F6E3A2025732028257329006C765F612B
:10DB80006E696D5F737461727400000010B5D0E946
:10DB90000E3CBCEB030EDCBF00230EF5B47C8B42C5
:10DBA00013DC8C4511DBACEB030202EBD272B1EB60
:10DBB000620F90F84C104FF0000301F0E701D8BF5E
:10DBC000012341EAC30110313CE0A3EB020EBEF198
:10DBD000000F09DC0EEB0C04B4F5B47F04D090F810
:10DBE0004C1041F018012DE0934205DAB1F5B47FF5
:10DBF0000FDC0EF5B47404E0B1F5B47F09DCC2F5B6
:10DC0000B4748C4205DC90F84C1001F0E701083147
:10DC100018E00CEB020EBEF5B47F07DC19448C450E
:10DC20004FF0000211DC714508DD0EE08C454FF02D
:10DC300000020ADAAEF5B4738B4206DB90F84C10A2
:10DC400001F0E701012280F84C10104610BDB0B57C
:10DC50000C4694F84C200020642504F12C07872101
:10DC60004FF487730BC7C4E9110502F0F0000830C8
:10DC700048F2000E04F1380384F84C004FF434707D
:10DC80004FF02D0CCFF6FF7E83E8025020651AF08E
:10DC900055FF616B94F84C20C4E9150102F0EF00C8
:10DCA00084F84C002046022112F0AAFC20464FF4D2
:10DCB000447116F0EFFB20460D21BDE8B04016F090
:10DCC0002DBF00002DE9F047B4B045F22020C0F68A
:10DCD00003000D4613F094FE012840F036822846DA
:10DCE0000DF0A0F9064628460DF0A0F90D2E81464C
:10DCF00027DDA6F10E000A2800F22782DFE810F0E7
:10DD00000B0047002502250225026100250225029D
:10DD1000A3002502F80028460DF0B6F9D9F84040D6
:10DD200020F00201112940F00482D9E91112601C8F
:10DD30008242B8BF10468842D8BF084684423AD1D2
:10DD4000FFE1022E00F05981032E02D0082E40F090
:10DD5000FC8199F84C0000F0FE0089F84C00484620
:10DD600014F000F804460EF095FA05460FF0E6F9B7
:10DD70000FF049FC042840F0E881002D00F0E58117
:10DD80002046002134B0BDE8F0470EF061BB2846C4
:10DD90000DF0C6F9002800F0D881D9E91041D9F872
:10DDA000482020448242B8BF10468842D8BF084667
:10DDB000844200F0CA81C9F84000484622F066FB60
:10DDC000BFE128460DF0AAF9804621A91DAA4846C0
:10DDD000FDF70BF8D9F808000021002814BFD0F88F
:10DDE00020A04FF0000A48465022002414F000FE04
:10DDF00006461D9806EB0A01DDE92137401A3A1A5A
:10DE00003D1801AF1D90191A03443846009500F0E3
:10DE100088FCD8F80010384647F6FF72F6F707F886
:10DE200070B906EB4A0101AC20460A4600F05AFCE4
:10DE3000D8F80010204647F6FF72F5F7F8FF0446C1
:10DE400088F8044081E148460021122214F0D0FDF8
:10DE5000804648460021132214F0CAFD0746484672
:10DE60000021102214F0C4FD04464846002111226E
:10DE700014F0BEFD0646B845C8BF47468442C8BF39
:10DE8000264648464FF440311222B742C8BF3E46AC
:10DE900014F0AEFD804648464FF44031132214F092
:10DEA000A7FD074648464FF44031102214F0A0FD6C
:10DEB000824648464FF44031112214F099FD044641
:10DEC000B845C8BF47468245C8BF54464846A742E2
:10DED000C8BF3C46FFF78CFB801B2044841C2846AF
:10DEE0000DF01CF90168A142C8BF0C4604602CE18A
:10DEF00028460DF09BF8044628460DF0EBF88046C6
:10DF000032A931AA2046FCF770FF319801281ADBAC
:10DF100021AE304604F0F1FA20460021324614F0DA
:10DF200005FFDDE93210CDE92C10E06AD4E90E12CC
:10DF300001442A91319910442B90ADF8B810404615
:10DF4000314604F0ABFA20464FF40031122214F0AF
:10DF50004FFD064620464FF40031132214F048FDD1
:10DF6000074620464FF40031102214F041FD0546CB
:10DF700020464FF40031112214F03AFD319ABE428E
:10DF8000C8BF37468542C8BF28468742C8BF384603
:10DF9000161A012E1BDB21AD284604F0AEFA2046EE
:10DFA0004FF400312A4614F0C1FEDDE9321004F1CD
:10DFB0002C02CDE92C1007CAADF8B860014410441A
:10DFC0002A912B904046294604F068FA319A1DADFB
:10DFD00032A920462B46FDF72CF801AE304607F05B
:10DFE00019F920464FF44031324615F00DF84046FD
:10DFF00031462A4606F09EFEA7E00FF09FF8002863
:10E0000000F0A38005460FF0FEFA012840F09D8045
:10E0100001A928460FF0CFFA21A91DAA4846FCF70E
:10E02000E4FEDDE92102DDE90113081A99F84C103C
:10E030000190981ACA07029034D148464FF4003133
:10E04000502214F0D5FC1D990546081A1D9048462B
:10E050004FF4803114F02BFE1D992B46CA1701EBAB
:10E060009272B5EBA20FB8BF9310002818BF2B46D1
:10E07000C81A0128D8BF0120DDE9011200FB00F316
:10E08000494302FB021299F84C109A421D9009D99B
:10E0900041F0010089F84C001AF050FD99F84C103D
:10E0A000C9F85400C8071CBFDDE9011051EA00029D
:10E0B0004BD0D9E90E259542B8BF05F5B47500F0EF
:10E0C0006AFC1D994FF41D72514348F21F52C5F26C
:10E0D000EB12A1FB0212D9F82C10D9F838305409F0
:10E0E0001944461A48BF06F5B47604F09DF94FF47A
:10E0F000B4714843B0FBF4F299F84C70484631468D
:10E10000FFF744FD08B3D9F83810D9F85800441A7D
:10E11000301B48BF404299F84C20B0F58C7FA5EBEE
:10E1200001011DD8D3061FD40E46130748BF7642FF
:10E130001AE0142801D0122803D1611E484600F0CD
:10E140004AF9D9F84000844202D134B0BDE8F087E2
:10E1500048461E21002234B0BDE8F04716F070BCDE
:10E160000E46130748BF00263B0702F0180204D4EE
:10E17000082A08BF0E46324606E0002A18BF32467B
:10E18000B0F58C7F98BF3246D9F85400161B1AF0B0
:10E19000BFFCD9F85010484344F6D351C1F2620194
:10E1A000A0FB01010020A0EB91108642C8BF3046C1
:10E1B000B6EB911FC8BF8809D9F83810D9E91137D3
:10E1C0006A1AD200FE1A92FBF6F2D9F840800432A5
:10E1D000D61702EB16720E19304400EB22102A46B5
:10E1E000009711F066FE99F84C10054601F0060103
:10E1F000042903D1D9E91101491B0D18D9F84000B0
:10E20000854210D01AF09AFCC9F8540048462946B5
:10E2100000F0E1F8454506D048461E21002216F0E0
:10E220000FFC012891D1D9F84400854203D0D9F8D8
:10E230004800854289D11AF081FCC9F8540084E76E
:10E24000B0B50C461146054600F006F828462146B2
:10E25000BDE8B04000F02DB8B0B5D0E90E32B1F550
:10E26000B4750446D8BF0D46D01AA5EB030148BFCC
:10E2700000F5B470002948BF01F5B4710B1A48BF0E
:10E280005B42B52B03D3204615F06CF80BE08142BE
:10E2900002DA2046294603E005DD204611462A46DB
:10E2A0000023FFF724F82046E563BDE8B04022F0E4
:10E2B000EDB8B0B5D0E90E23B1F5B4750446D8BFBA
:10E2C0000D46981AA3EB050148BF00F5B47000296C
:10E2D00048BF01F5B4710B1A48BF5B42B52B03D39D
:10E2E000204615F03FF80BE0814203DA2046114644
:10E2F0002A4602E004DD204629460023FEF7F7FF08
:10E300002046A563BDE8B04022F0C0B8B0B5D0E962
:10E310000C32B1F5B4750446D8BF0D46D01AA5EB42
:10E32000030148BF00F5B470002948BF01F5B4717E
:10E330000B1A48BF5B42B52B03D3204615F012F8E9
:10E340000CE0814202DA2046294603E006DD204641
:10E3500011462A464FF40033FEF7C9FF2046FFF767
:10E360000DF820466563BDE8B040FFF707B8C1620D
:10E3700014F0F8BFB0B5D0E90C23B1F5B47504467C
:10E38000D8BF0D46981AA3EB050148BF00F5B4703D
:10E39000002948BF01F5B4710B1A48BF5B42B52B89
:10E3A00003D3204614F0DEFF0CE0814203DA20465E
:10E3B00011462A4602E005DD204629464FF4003387
:10E3C000FEF795FF2046FEF7D9FF20462563BDE8FE
:10E3D000B040FEF7D3BF026C8A4208BF7047D0E955
:10E3E00011C38B42B8BF19466145D8BF61468A4206
:10E3F00000D17047016422F049B800002DE9F043D4
:10E40000DDF81CC0A2F1020EBEF1130F27D80FF2E7
:10E410000602DFE81EF014002700300039004D002E
:10E420005F006F0084009F00A700B900C500CB000B
:10E43000DD00EB00F30002010F0117012B01026860
:10E4400087688E68BA1A0F680132F71B02EBD27226
:10E450000137521007EBD777A2EB670ECBE04FF0F6
:10E4600000087CE0026887688D680E68BA1A521B43
:10E4700002EB060EBFE04268C768CD684E68BA1A64
:10E48000521B02EB06086AE0D0E90028D0E90279C5
:10E49000D1E90245BA1AD1E900760132E71B02EB55
:10E4A000D2720137521007EBD777A2EB670E0BE061
:10E4B000D0E90028D0E90279D1E90245BA1AD1E9B8
:10E4C0000076121B02EB070EA9EB0802521B02EBAF
:10E4D0000608D7E04268C768CE68BA1A4F680132AA
:10E4E000F71B02EBD2720137521007EBD777A2EB82
:10E4F000670834E0D0E90028D0E90275D1E9024686
:10E50000BA1AD1E90079121B02EB070EA5EB08023B
:10E51000013202EBD2725210A6EB0904A0E0D0E95E
:10E520000028D0E90249D1E90256A21AD1E90047F0
:10E5300001322D1B02EBD2720135521005EBD5755D
:10E54000A2EB650EA9EB0802013202EBD272521067
:10E55000F41B85E0CA684F68D24307EB02084FF00E
:10E56000000E8FE002688768D1E90265BA1AD1E926
:10E5700000740132F71B02EBD2720137521007EB25
:10E58000D777A2EB670E09E002688768D1E90265D8
:10E59000BA1AD1E90074921B02EB070EEA436FE04E
:10E5A0004268C7684FF0000EBA1A1CE090E8940069
:10E5B0008E68BA1A0F680132F71BC56802EBD27277
:10E5C0000137521007EBD777A2EB670E2A1B0AE040
:10E5D000D0E90064D0E902528F68D1F800E0AD1BA9
:10E5E000ED1B121BAE4402F101084BE08A680F6874
:10E5F000D24307EB020E4FF0000843E091E894008D
:10E60000FF4302EB070E4268C568CE68AA1A0132C2
:10E6100002EBD2725210341B22E091E89400FF43C7
:10E6200002EB070E4268C568CE68AA1A921B02EB7D
:10E63000040827E0026887684FF00008BA1A02F160
:10E64000010E1FE090E89400C568BA1A02F1010EAD
:10E650002A1B01324C68CD6802EBD27252102C1B7F
:10E66000013404EBD474A2EB64080BE090E894004E
:10E67000C568BA1ACE6802F1010E4A682C1BA41BA9
:10E6800004EB0208D0E900047344CA68184408EB9C
:10E690000C03234491E8E0001A440744921B7F1BBB
:10E6A00081E88900CA60BDE8F0834168C068401A0B
:10E6B000013070474168C068401A0130704790E8E7
:10E6C0000E00C068591A801A013101304843704762
:10E6D00001688068401A0130704701688068401AFC
:10E6E0000130704710B5D0E900ECD0E90234AEEB50
:10E6F000010E1944ACEB02032244C0E900E3C0E977
:10E70000021210BD10B5D0E900ECD0E902348E44FD
:10E7100019440CEB02032244C0E900E3C0E90212F1
:10E7200010BDDDF800C080E80E107047426811444B
:10E730000139C16070470268114401398160704736
:10E7400042688A429CBF0020704702681AB1C068C4
:10E7500000FB0120704780B584B046F29A6045F610
:10E760001551C0F60300C0F6030145F6F85CCDE98B
:10E77000001046F2AE61C0F6030CC0F6030106A31A
:10E780000320A122CDF808C0F6F722FE04B0BDE8B0
:10E79000804000BFFEE700BF6C765F6172726179F6
:10E7A0005F61740010B50446006818B10DF06EF892
:10E7B000002020600020C4E9010010BD10B584B025
:10E7C00004460020231D07C302FB01F011F050FB9B
:10E7D000206008B104B010BD46F29A6045F61551AC
:10E7E000C0F60300C0F60301CDE9001046F2AE61A9
:10E7F00005A4C0F6030108A303202D220294F6F716
:10E80000E7FD00BFFEE700BF4F7574206F66206D07
:10E81000656D6F72790000006C765F61727261796C
:10E820005F696E6974000000B0B584B0044600688A
:10E83000B0B10D46D4E90112914205D10131204613
:10E8400000F032F8D4E90001E26802FB0100294639
:10E8500011F052FB6068411C0120616004B0B0BD42
:10E8600046F29A6045F61551C0F60300C0F6030162
:10E8700045F6F855CDE9001046F2AE61C0F6030545
:10E88000C0F6030103A303208E220295F6F7A0FD34
:10E89000FEE700BF6C765F61727261795F707573BD
:10E8A000685F6261636B0000B0B584B00C46C168FC
:10E8B00005460068614316F029FE38B16968286092
:10E8C000A142AC6088BF6C6004B0B0BD45F6155184
:10E8D0000AA0C0F6030145F6F855CDE9001046F24E
:10E8E000AE61C0F60305C0F6030108A3032075223C
:10E8F0000295F6F76DFD00BFFEE700BF646174612D
:10E9000020213D204E554C4C000000006C765F618C
:10E91000727261795F726573697A65002DE9F047FB
:10E920008246002088464FF000091AF0C2F900B371
:10E930004EF67B1506464FF00009C0F6000500BFF5
:10E9400030461AF0B6F9B1680746A9420ED1F4680C
:10E95000206850450AD16068404507D130461AF01A
:10E9600095F920460CF092FF4FF00109002F3E462A
:10E97000E6D15FFA89F0BDE8F08770B5C468D4E9E4
:10E9800000651AF083F920460CF080FF28463146D6
:10E99000BDE87040084780B500284FEAD07E00D51A
:10E9A0004042002944BF0EF1020E49422D22884206
:10E9B00005D95143B1FBF0FC0EF1100E02E05043BB
:10E9C000B0FBF1FC5FFA8CF00021172814D32D283E
:10E9D0004FF000024FF0010338BF012238BF02237D
:10E9E0002A2828BF134626284FF0000238BF0122EC
:10E9F000212838BF012113E001284FF000024FF019
:10EA0000010388BF012288BF0223052898BF13464F
:10EA100009284FF0000288BF01220E2888BF01217B
:10EA20008818184460445FEACE6148BFC0F15A00BC
:10EA30005FEA8E7105D45FEACE7118BFC0F5B4707D
:10EA400005E05FEACE710CBFC0F1B400B43080B213
:10EA500080BD02460068D16014F084BC01684FF0AC
:10EA6000FF320868CA6000F15003994209D000F1F2
:10EA70006002914218BF14F075BC8968816314F07C
:10EA800071BC8968C16214F06DBCB0B50C466421DC
:10EA9000002504F1380061631421C4E90B55F1F736
:10EAA0000FFC94F87000082100F0FC0084F870005E
:10EAB0004FF0FF30C4E91650C4E91A50204684F8DC
:10EAC0004C50C4E91445C4E9184515F0E3FC204650
:10EAD000102115F0DFFC204600210022BDE8B040E7
:10EAE00000F01FBB10B50C4601F150000021FEF7ED
:10EAF00059FE04F160000021BDE81040FEF752BE4F
:10EB00002DE9F04FF9B045F24420C0F603000E465F
:10EB100012F076FF012840F0A28230460CF082FA13
:10EB2000054630460CF082FA152D04460CDC012D0A
:10EB300002D0082D40F0938204F13C01204679B0C8
:10EB400000F090BA14F025BC182D3CD0162D40F0E2
:10EB5000868220464FF4003112F0B9F9074630465C
:10EB60000CF0DCFA804600680021B842C8BF0746B6
:10EB700020461222C8F8007013F03AFF06462046DD
:10EB80000021132213F034FF0746204600211022F3
:10EB900013F02EFF054620460021112213F028FF16
:10EBA000BE42B8BF37468542B8BF28468742B8BF85
:10EBB0003846B0F1FF3F00F35282D8F80010081A2F
:10EBC000C8F800004BE230460CF030FA05463046FB
:10EBD0000CF080FA75AC07462846214613F06FF812
:10EBE0002846002168224FF0000A13F001FF064674
:10EBF00028460021692213F0FBFE024620463146DA
:10EC0000FFF770FDDDE97502DDE97713081A00F101
:10EC10000108D5E90C019A1A95F870300E1A03F024
:10EC2000030308BF0126012B02F1010B06970D9685
:10EC30000AD1B0F1FF3F07DC012905DBA96B081AF7
:10EC4000B0FA80F04FEA501A28460021122213F041
:10EC5000CFFE064628460021132213F0C9FE0746C0
:10EC600028460021102213F0C3FE04462846002146
:10EC7000112213F0BDFEDDE977C1DDE97532091A15
:10EC8000A94649F8481F0A961E440790484608942A
:10EC900022444C460997ACEB07034F4640F80C6DF5
:10ECA00044F8082DD84547F8043DCDF830A0CDE90B
:10ECB000047015DB8F1A0137032F08DCA9690BEBF1
:10ECC000DB7201EB62018A1E02312A64A9644EF2F2
:10ECD000DB67C0F6000703970B90DDF810A013E088
:10ECE0009F1B0137032F08DC686908EBD87300EB22
:10ECF00063039E1E0233EE636B644EF2B560C0F692
:10ED00000000CA4603900B949B1B881A0094D845B8
:10ED10000146CDE90103A8BF1846EA6E296B531CD2
:10ED200000F10100CDF838B012D0D5E919340D9EAC
:10ED30005B1A641A4343444393FBF6F394FBF6F4E3
:10ED4000E41A6243D41702EB146203EB222405E0B9
:10ED5000AA6B0D9E521A424392FBF6F4EA6DC3462B
:10ED6000531C11D0D5E915375B1A791A4343484330
:10ED700093FBF6F390FBF6F0C01A5043C11700EB7B
:10ED8000116003EB202804E0EA6A511A484390FB23
:10ED9000F6F80E980027834528464FF000014FF003
:10EDA0002702A8BF012713F023FE4FF0FF3151FACD
:10EDB00080F0B0FA80F0410995F84C003940884263
:10EDC00003D15246DDF82CA003E00B9AC8F10008ED
:10EDD00064420E9B9B451EDBDAF8007007EB0803CC
:10EDE00013603A190C9FCAF800209FB33446029E64
:10EDF0002F6BF643774397FBF4F68842A2EB0607A6
:10EE000007F1010708BFB718BB42D8462EDD0498AA
:10EE1000036005982DE01768A7EB08033C1B0C9FC7
:10EE20000133CAF800301460A7B1019F2A6BFF4379
:10EE30007A4392FBF6F7884207EB0402A4EB07073C
:10EE400008BF7A1C9342D84615DD0098C9F80030F7
:10EE5000026014E00598039988470128D8460EDC23
:10EE600028461D21002215F0EBFDF8E0059803600F
:10EE70000498076003E00098C9F80020036005F1DA
:10EE80003C030FCB0DF5E27C55AE8CE80F0030460D
:10EE900006F0C0F928464FF40031324614F0B4F8B9
:10EEA000284600210C2213F0A3FD0E9F064638468B
:10EEB000B845B8BF404605F13C03B6EB600FA8BFAC
:10EEC00046100FCB591A101ADDF870B1013001311C
:10EED0008842B8BF01469DF88301BBEB610FA8BF14
:10EEE0004FEA610B012100F00700B845A8BF0221DD
:10EEF000401A6199B0FA80F0002918BF01210A9ADE
:10EF00004009002A41EA00091ED4099800281BD4B0
:10EF10000898002818D40798002815D4B34513DAA8
:10EF200071A875A93246F4F7F0FE80F00101DDF812
:10EF300018A051EA090143D058B9002001258DF8E5
:10EF40009C018DF8AC0118E0DDF818A0B9F1000FB4
:10EF500036D039AC55A920467022F1F798F9002532
:10EF600071AA504621468DF82C518DF83C518DF8F0
:10EF700004518DF81F5105F0DDFE002439A855A974
:10EF800070228DF8C041F1F782F971AB0FCB0DF112
:10EF9000D40CB9F1000F8DF82C418DF83C418DF85F
:10EFA00050418CE80700389318D0B8450CDB7598B1
:10EFB0000A9A7799104435900998081A37900BE00F
:10EFC00055A971AA504648E07698089A7899104455
:10EFD00036900798081A3890002040900DF1D40818
:10EFE00050461021424605F0D9F839A94246044658
:10EFF00005F0A0FE29A805F099FE4DB175AB0FCB29
:10F000000DF1C00C8CE84F0029A9204605F00EFE3A
:10F01000B9F1000F09D071AB0FCB0DF1C00C8CE82A
:10F020000F0829A9204605F001FE0FAD284604F07F
:10F030001FFC35AA50462946169405F00EF839AC47
:10F0400055A920467022F1F722F900208DF804011D
:10F050008DF81F0171AA5046214605F06BFE79B06C
:10F0600000F005B830BCBDE8C04FFFF76BBD30BC49
:10F07000BDE8C08F90F8700000F00300704790F872
:10F08000701001F00301022907D1C26E00F168017E
:10F09000013208BF00F1380101E000F130010868D9
:10F0A0007047C16D01314FF0580108BF2C21405805
:10F0B000704790F8701001F00301012903D1016B32
:10F0C000B1F1FF3F01DD00207047426B012AFADBFE
:10F0D000806B401AB0FA80F040097047B0B582B03A
:10F0E00090F87030944603F00302022A17D10246CA
:10F0F00052F838EF52F8044C52E903358C42B8BF4D
:10F1000021468D42C8BF29469942A8BF19468E455F
:10F1100005D000F16003CDF800C000F021F802B086
:10F12000B0BDB0B582B086465EF82C3F8B4215D09C
:10F1300000F13005944634CD8C42B8BF21468A4256
:10F14000C8BF1146A942D8BF29468B4206D000F15C
:10F1500050037246CDF800C000F002F802B0B0BD16
:10F160002DE9F04397B016461E9A1D460F460446F9
:10F1700062B3E8680021013014BFA8683068686095
:10F180002846AF6037600027FEF70CFB01AE304623
:10F19000FEF762FB4EF65320C0F6000002904FF0DF
:10F1A00000400B904FF480700C904EF65D20C0F63E
:10F1B0000000059020460021642201950A9713F073
:10F1C00017FC0D903046FEF75DFC15E02846002147
:10F1D0004FF00008FEF7E6FA4FF0FF392046C5F879
:10F1E0000C90376014F0BEF828460021FEF7DAFADA
:10F1F000C5E90048C5E9028917B0BDE8F083B0B59C
:10F200008D6B0C462DB1E86B18B103F037FE002072
:10F21000E8632046FBF766FC616B29B1206B002296
:10F22000BDE8B04001F01CBAB0BD00002DE9F04FC0
:10F2300087B04C7C142C00F2C7800E46012048F2A7
:10F240008071A040C0F21F01084200F0BD80D6F8D6
:10F2500038A0BAF1000F47D0DAF800009B460590BD
:10F2600020461746E51F02F0F5FA3968BA68844669
:10F27000307B4FF00009511A0696012808BF4FF065
:10F280000C09DBF804000122CEF20002904201F1E9
:10F29000010637D1E8B2DAF83CE0042822460495AA
:10F2A00038BF1022BEF1000F03D0BEF80400864222
:10F2B0000CD03046012100234FF00008654603F0D2
:10F2C00045FDAC468646002800F09080D7E9001046
:10F2D000D7E90223049DCBE90010CBE90223CBF848
:10F2E0000C00CAF83CE017E09BA747F6F90147F687
:10F2F000E103C0F60301C0F60303032040F28912C4
:10F3000000976FE0DBF80C10DAF83CE001300131D7
:10F31000CBF80400CBF80C10F968884264DCDEF806
:10F320001070E9B2032932D8AA46DBF80050069CD7
:10F3300005FB0CF3616A228B09EBD30303EB81011C
:10F34000237BA14600FB0214012B53D106FB0CF0DA
:10F350000730012101EBD0094846CDF810E0E34623
:10F3600010F086FD002800F09080804605984FF050
:10F37000000C214642464B46CDF800C0FBF7CEFBC1
:10F38000002800F0D58040460CF080FA2CE0A4F173
:10F390000F0105294FF0000845D2069D06FB0CF130
:10F3A000CB08298BDBF8002000FB019002FB0CF15D
:10F3B00000EBD10105983A467446CDF80080FBF782
:10F3C000ADFB98B9EC61B0E047F6F90147F6E1030F
:10F3D00069A7C0F60301C0F6030302204FF4C1720F
:10F3E000CDE90074F5F7F4FF4FF00008404607B090
:10F3F00000F0CEB8D9F80800006900EB0408BAF1B3
:10F40000030F00F287800820B0FBFCF0B5FBF0F1A1
:10F4100001FB1051DFE80AF00251585E81F007014C
:10F42000012240465AE0069D142CDFD1298B4FF66D
:10F43000FE7200FB0190DBF80010C1F6FF72BEF80F
:10F44000084002EA4101014405983A462346F24643
:10F45000CDF80080FBF762FB0028C7D1E88A298B32
:10F46000DBE90023CDF8008001FB0020490801FB07
:10F4700003003A1900F10C0105983346FBF74EFBE7
:10F480000028B3D1C5F81CA04FE045F615512FA0B8
:10F49000C0F60301CDE9001047F6F90147F6E10394
:10F4A00026A7C0F60301C0F60303032040F2BF12F3
:10F4B0000297F5F78DFF00BFFEE7062208EB9100EB
:10F4C00022EA4101022209E0042208EB510022EA6B
:10F4D000810103E008EB010000210822012E19DB65
:10F4E0004FF0FF35D9F820C09540ED430478CBB2FA
:10F4F00024FA03F32B405CF82330891A47F8043BC5
:10F500004BB2CCB2002B48BFC2F10801013E00EB68
:10F51000D410EBD199F80C00012804D14046744670
:10F520000CF0B4F9A646C9F81CE04FF001085DE7FD
:10F53000DDF810E0DDF81890DC4660E74E554C4CE5
:10F5400020706F696E74657200000000627566203D
:10F55000213D204E554C4C00556E657870656374A6
:10F560006564206E756C6C206465636F64657220E1
:10F57000646174610000000043463A2025642069FC
:10F5800073206E6F7420737570706F727465640091
:10F5900030BCBDE8C08F0000F0B587B00846144607
:10F5A0000D460DF0BFFD022809D0012815D0002816
:10F5B0004FD1204629460C2210F09EFC04E04FF06B
:10F5C000011060600E2060702078192803D06088D8
:10F5D00020F00100608001204AE028460CF0A2F9EA
:10F5E00047F6C011C0F6030117F040FA00283ED1DB
:10F5F00004A8294602220CF0B3F90028E4D104AF94
:10F6000003AB384621460C220CF08AFA06463846EF
:10F610000CF049F976BB03980C282BD120781928D7
:10F6200012D047F6F90147F6C41320A7C0F603012C
:10F63000C0F6030302208922CDE90075F5F7C8FE64
:10F640002078607019202070608840F02000608071
:10F65000BAE71EA747F6F90147F6C413C0F603013F
:10F66000C0F6030302209C220097F5F7B1FE0020AC
:10F6700007B0F0BD47F6F90147F6C41304A7C0F67A
:10F680000301C0F6030302207F22CDE90076ECE7F8
:10F69000526561642066696C6520686561646572A5
:10F6A000206661696C65643A202564004C65676179
:10F6B00063792062696E20696D6167652064657495
:10F6C00065637465643A202573000000496D6167C5
:10F6D000652067657420696E666F20666F756E645D
:10F6E00020756E6B6E6F776E207372632074797005
:10F6F0006500000010B584B00CF042FF10B34FF26B
:10F700009951C0F6000104460DF04AF84FF2997184
:10F71000C0F6000120460DF045F84FF22D21C0F64D
:10F72000000120460DF03AF84FF2FF11C0F600013B
:10F7300020460DF031F82046002104B0BDE810400D
:10F740000DF028B845F615510AA0C0F6030146F29F
:10F750003B14CDE9001047F6F901C0F60304C0F6EA
:10F76000030108A303205E220294F5F731FE00BFD7
:10F77000FEE700BF6465636F64657220213D204E23
:10F78000554C4C006C765F62696E5F6465636F64B4
:10F7900065725F696E697400F0B583B0087B0C46D2
:10F7A00068B3012875D1A0680CF0BCF847F6C01109
:10F7B000C0F6030117F05AF900286DD12046FBF777
:10F7C0005FFB0646A0630C2010F052FB002860D0BF
:10F7D000A168022205460CF0C3F8E0B347F6F90130
:10F7E000844647A7C0F603014BA30220C922CDE9F6
:10F7F000007CF5F7EDFD28460CF048F849E0A568D7
:10F800002869002848D0608A000730D46878C11F72
:10F81000032915D82046FBF733FBE079002852D0A6
:10F8200047F66E1747F6F90147F6A413C0F603072B
:10F83000C0F60301C0F60303032040F2A22225E034
:10F84000A0F10B062046FBF71BFB032E27D8204612
:10F85000F8F78EFE3AE03560608A000707D4607CD6
:10F86000C11F0329D9D90B380328F0D930E047F656
:10F87000431747F6F90147F69213C0F60307C0F69F
:10F880000301C0F6030303204FF479720097F5F7E4
:10F890009FFD2046FBF726F9002003B0F0BD064689
:10F8A0006888C00609D406F124073846294618227C
:10F8B00010F022FB706B3D46B063E561288938B9D2
:10F8C000208B288104E02046F8F714FF0028E0D0C0
:10F8D000E66996B1204631460CF0DCFE0028D8D00F
:10F8E0000546B04208D02046FBF7FCF82046FBF75F
:10F8F000C7FAC561E56100E0E6610120CDE700BF20
:10F900004F70656E2066696C65206661696C656420
:10F910003A202564000000006C765F62696E5F64C7
:10F9200065636F6465725F6F70656E0010B50C463D
:10F930000846102114F0AEFD20464FF48061BDE86A
:10F94000104010F05DBE10B5014645F26820C0F6CB
:10F95000030011F037FB044611F0C8FB204610BD30
:10F96000B0B50446806B884298BFB0BD606B154649
:10F9700050F82120AA4340F821202046FDF71CFD25
:10F98000680500D4B0BD2046BDE8B04014F0B3BC5B
:10F9900070B50446806B50B10D46002620463146B6
:10F9A0002A46FFF7DDFFA06B01368642F6D370BD15
:10F9B00008460021C0E90B11C0E90D11C16390F8A0
:10F9C00044104FF6FF72026401F0FE0240F28C0117
:10F9D000C1F2000180F8442000F020BB10B50146C0
:10F9E00045F28C20C0F6030011F0ECFA044611F049
:10F9F0007DFB204610BD10B5086B0C460BF046FF92
:10FA0000606B0BF043FF0020C4E90C0010BD000048
:10FA10002DE9F04784B045F28C20C0F603000D4676
:10FA200011F0EEFF012840F08A8128460BF0FAFA27
:10FA3000064628460BF0FAFA0F2E82464DDC701E61
:10FA4000072800F24381DFE810F0080085009C00E1
:10FA500041014101A6004101BC0028460BF0E8FA33
:10FA6000DAF8401005465046FDF7A6FC0DF066FB9F
:10FA70000DF0C9FD00F0FD0001281CD102AE2846A2
:10FA800031460DF098FD50463146FBF78FF80146A0
:10FA90004FF6FF708142CAF8400000F05081DAF85A
:10FAA000340010F8210010F0500F04D15046CAF86D
:10FAB0004010FDF781FCDAF840004FF6FF718842F4
:10FAC00000F03D81DAF8341031F8201011F4CA6FDB
:10FAD00040F0358101AA01906EE02B2E2FDC102E14
:10FAE00000F08680162E40F0F180DAF83C00002805
:10FAF00000F02581DAF82C000768002F00F01F8144
:10FB000045F6454800F104090024C0F603083846CC
:10FB10004146F0F7E7FB002800F0D880387800284D
:10FB200000F0D480DAF8340020444078400700F137
:10FB3000C38059F804700434002FE8D1C6E02C2E9D
:10FB400002D02D2E40F0C280DAF82C10504600F082
:10FB500065FAF4E0DAF840004FF6FF71884200F0F1
:10FB6000EE8028460BF064FA02AD29460DF023FD25
:10FB700050462946FBF71AF8DAF84010884202D1BD
:10FB8000DDE0DAF840105046FDF716FC4FF6FF7046
:10FB9000CAF84000D3E0DAF840004FF6FF7188421F
:10FBA00000F0CD80DAF8341011F8201011F0700F49
:10FBB00040F0C580029002AA50461E2114F040FF7A
:10FBC000BDE0DAF840104FF6FF7291426FD0DAF8DC
:10FBD000340050F8212002F0C003802B53D1D3050C
:10FBE00040D59AF84430DB073CD122F480723BE0E8
:10FBF000DAF83800002800F0A28028460BF018FA46
:10FC000005460DF000FD25B900200DF0C4FC0DF0F7
:10FC1000FAFC0546504612F0A5F80CF03BFBDAF86A
:10FC200040104FF6FF72914240F08980022D03D0C0
:10FC3000042DABD10028A9D09AF84400DAF8381086
:10FC4000C00740F07F80002900F08D80DAF8342072
:10FC5000002012F8203013F0500F99D0013081426B
:10FC6000F7D17EE042F4807240F821209AF84420D7
:10FC7000DAF84010D20706D0504619F037FBDAF810
:10FC80003400DAF8401050F8210010F4C06F0DD0A5
:10FC900010F050000AD1029102AA50461E2114F021
:10FCA000CFFE01284BD1DAF8402000E00A4650464A
:10FCB0001146FDF781FB42E0504611F094FFDAF85F
:10FCC0003C10B0FBF1F128460BF0C6FAA6F111008A
:10FCD000022834D3182E2FD00E2E30D1DAF840104F
:10FCE0005046FDF769FB28460BF0CEF91138032882
:10FCF00000F28380DFE800F0023957765046002199
:10FD00001522002512F074FEDAF840104FF6FF724B
:10FD1000914275D1DAF83400CAF8405010F8251035
:10FD200011F0500F00F0DE80DAF8381001358D4206
:10FD3000CAF84050F2D3D1E02846F8F717FF04B0D4
:10FD4000BDE8F08779B1DAF83420002052F820308D
:10FD500003F4A873B3F5807F3FF41AAF01308142FA
:10FD6000F4D1084614E7002012E75046002115227E
:10FD7000002512F03DFEDAF840C04FF6FF729445C0
:10FD80006BD1DAF83400CAF8405010F8251011F0A1
:10FD9000500F00F0A780DAF8381001358D42CAF80C
:10FDA0004050F2D39AE0DAF840304FF6FF72DAE9C9
:10FDB0000D109A1A18BF5A1C0023824228BF1A46F7
:10FDC0001546CAF8402011F8257017F0500F00F0C2
:10FDD00089800135854228BF1D469542CAF84050AA
:10FDE000F1D17BE0DAF840004FF6FF71884260D035
:10FDF000002808BFDAF838005DE0DAF8405071E01A
:10FE00000A0428D4DAF830700B0107EB0112FB5812
:10FE1000D2E901260DB2F61A013607EB051703EBFE
:10FE20006603083757F8046C96420EDA57F8086CE8
:10FE3000361AB34209DB3E68B34206DCDAF83460B6
:10FE400016F8256016F0500F4AD0002DA5F10105D7
:10FE5000A7F11007E6DC0D4644E0DAF838209445B7
:10FE600025D2DAF830304FEA0C1703EB0C14DB59CB
:10FE7000A76854F8046FFF1A013703EB670765465C
:10FE8000234654F8101BB1420EDD53F8041C8F4278
:10FE90000ADB596801448F4206DCDAF8341011F8A5
:10FEA000251011F0500F1BD00135AA42E8D165464C
:10FEB00018E0DAF83800DAF83410451ECAF8405075
:10FEC00011F8252012F0500F0CD00DB9DAF8385087
:10FED0008542A5F10105CAF84050F1D14FF6FF75F2
:10FEE000CAF8405050462946E3E600002DE9F04F9D
:10FEF00081B08A464FF6FF718A451FD0D0F838800E
:10FF00008146D0451AD3BAF1000F14D0D9F82C503D
:10FF100045F6454B0026C0F6030B5446771C55F8B2
:10FF200027005946F0F7DEF9002808BFB71C013C4E
:10FF30003E46F3D100E00027D04503D1002001B0B8
:10FF400000F005B8D9F82C0050F82700F7E730BCCE
:10FF5000BDE8C08F006C7047836B8B429CBF002054
:10FF60007047406B50F821001040801AB0FA80F0C2
:10FF700040097047F0B581B00446806B884226D9AD
:10FF80000E461546D10516D594F8441011F001011E
:10FF900011D00027B8420BD9606B50F8271021F41C
:10FFA000807140F8271020463946FDF705FAA06B0E
:10FFB00001378742EED3606B50F82610294340F892
:10FFC000261020463146FDF7F7F9680501D401B047
:10FFD000F0BD204601B0BDE8F04014F08CB900003F
:10FFE00070B50446806B50B10D4600262046314660
:10FFF0002A46FFF7BFFFA06B01368642F6D370BDDD
:020000040801F1
:1000000010B50446D0E90D0292000FF075FFE16AC9
:100010002046BDE8104000F001B800002DE9F04F87
:1000200093B0E9B1824608680122CAF83C20D0B1F9
:1000300045F6454588460E1D00240127C0F60305F8
:10004000017891B12946F0F74DF9002806BF013734
:10005000CAF83C70013456F8040B0028F0D104E0D3
:1000600013B000F091B988460024DAF8380047460A
:1000700084422AD0DAF8300020B10BF007FC0020CF
:10008000CAF83000DAF8340020B10BF0FFFB002092
:10009000CAF8340020010FF0EBFE0028CAF8300047
:1000A00000F02381A0000FF0E3FE0028CAF834001E
:1000B00000F03581DAF83010002908BF0C46A200A4
:1000C000002110F019F8CAF83840504600212722C4
:1000D000CAF82C7012F08CFC834650460021122284
:1000E00012F086FC804650460021302212F080FC3F
:1000F000054650460021342212F07AFC4007504653
:100100004FF000014FF0100248BFA84412F070FCFD
:10011000064650460021302212F06AFC0546504641
:100120000021342212F064FC800750464FF0000199
:100130004FF0140248BF2E44089612F059FC079065
:1001400050460021152212F053FC1090504611F039
:1001500080FD0646504611F046FDDAF83C50002D71
:1001600000F0BA80079A691E01FB12005FFA8BFC4F
:10017000059008984FF0000B013800220490CDF84C
:100180001880CDE911C6CDF83CA000BF3C68002C1A
:1001900000F09C800D92A8464FEA8B050B97043720
:1001A00000264FF0000900BF45F645412046C0F645
:1001B0000301F0F797F8A8B120780123B0B1DAF87D
:1001C000340006F1010E284450F8260000F00F001C
:1001D000012898BF184657F826408144002C7646DF
:1001E000E2D104E0B646012301E000BFB6460B9F12
:1001F000DDE911C60D9ABEF1000F454666D0059F98
:10020000DDE9074102FB07F0B0FBF5F002FB04114A
:10021000F24608440E90501C099078430499B0FBB4
:10022000F5F7109802FB0411AEF1010202FB106217
:10023000394422EAE2700D910C90CDF828E0DDF807
:1002400018804FEA0B170025002400BF0F98D0E953
:100250000C0151F82B10384401F00F01012998BF0F
:1002600019460C9BBCF1010F04FB03F20C4404FB88
:1002700003F1B1FBF9F1B2FBF9F2109B05FB03119D
:1002800005FB0322A1F10103114604BFF11AB31AC1
:10029000DDE90D62414443440096FEF742FADDE990
:1002A00011C6012301350BF1010BBAF1010A07F167
:1002B0001007CBD1DDE90A10DDF83CA000EB81008E
:1002C000DAF83C50071D099802E000BF0437501CC3
:1002D000A8420246FFF45AAF504614F00CF85046BC
:1002E00013B000F054B813F03DB845F615511FA0F7
:1002F000C0F6030146F23B17CDE9001046F6A41103
:1003000046F6F313C0F60307C0F60301C0F6030375
:10031000032040F24B320297F5F75AF8FEE745F614
:1003200015510CA0C0F6030146F23B17CDE90010B1
:1003300046F6A41146F6F313C0F60307C0F6030110
:10034000C0F60303032040F24D320297F5F740F860
:10035000FEE700BF62746E6D2D3E6374726C5F6267
:1003600069747320213D204E554C4C0062746E6DB3
:100370002D3E627574746F6E5F61726561732021CA
:100380003D204E554C4C000030BCBDE8C08F30BC09
:10039000BDE8C04FFFF7A7BFB0B50C464FF6FF71E1
:1003A0008C42054603D0A86BA04298BFB0BD296C13
:1003B0002846FDF701F8284621462C64BDE8B040E8
:1003C000FCF7FABF10B584B0D8B104464068A0F17C
:1003D000010C0028C4F804C011DC47F6C32147F61D
:1003E00007330FF2580EC0F60301C0F603030220D4
:1003F0004022CDE900ECF4F7EBFF0020606004B090
:1004000010BD47F6992045F61551C0F60300C0F619
:10041000030145F6F854CDE9001047F6C32147F62D
:100420000733C0F60304C0F60301C0F6030303203C
:100430003D220294F4F7CCFFFEE700BF7265665FD1
:10044000636E7428257529203C20300018B181681E
:10045000401A0BF01BBA80B584B047F6992045F6D8
:100460001551C0F60300C0F6030145F6F85CCDE96E
:10047000001047F6C321C0F6030CC0F6030106A323
:100480000320A022CDF808C0F4F7A2FF04B0BDE815
:10049000804000BFFEE700BF6C765F636163686504
:1004A0005F656E7472795F64656C657465000000E9
:1004B00010B18168401A704780B584B047F6992022
:1004C00045F61551C0F60300C0F6030145F6F85C89
:1004D000CDE9001047F6C321C0F6030CC0F60301B6
:1004E00005A303205E22CDF808C0F4F771FF04B025
:1004F000BDE88040FEE700BF6C765F6361636865BE
:100500005F656E7472795F6765745F6461746100C2
:1005100008B14068704780B584B047F6992045F629
:100520001551C0F60300C0F6030145F6F85CCDE9AD
:10053000001047F6C321C0F6030CC0F6030106A362
:1005400003204622CDF808C0F4F742FF04B0BDE80E
:10055000804000BFFEE700BF6C765F636163686543
:100560005F656E7472795F6765745F7265660000BF
:1005700008B1007B704780B584B047F6992045F6F6
:100580001551C0F60300C0F6030145F6F85CCDE94D
:10059000001047F6C321C0F6030CC0F6030106A302
:1005A00003205922CDF808C0F4F712FF04B0BDE8CB
:1005B000804000BFFEE700BF6C765F6361636865E3
:1005C0005F656E7472795F69735F696E76616C697D
:1005D0006400000080B584B030B1416809B304B054
:1005E000BDE88040FFF7EEBE47F6992045F615516D
:1005F000C0F60300C0F6030145F6F85CCDE9001033
:1006000047F6C32147F6A723C0F6030CC0F6030143
:10061000C0F6030303206C22CDF808C0F4F7D8FE1F
:10062000FEE747F6C32147F6A7234FF0000C0FF271
:100630001C0EC0F60301C0F6030303206E22CDE9B1
:1006400000ECF4F7C5FE04B080BD00BF7265665FC4
:10065000636E7428257529203D3D20300000000080
:10066000F0B583B011B300F11C05074628461646C5
:100670000C460FF0AFFF20463146FFF7ABFF204698
:10068000FFF746FF60B92046FFF772FF40B1BF6930
:100690002046FFF70DFF3146B8472046FFF7D6FE4C
:1006A000284603B0BDE8F0400FF096BF45F615515F
:1006B0000AA0C0F6030145F6F857CDE9001047F649
:1006C0000421C0F60307C0F6030108A303205E223D
:1006D0000297F4F77DFE00BFFEE700BF656E7472FF
:1006E0007920213D204E554C4C0000006C765F6314
:1006F000616368655F72656C656173650000000029
:1007000070B540F2E870C0F2011000250C46C1E956
:100710000C00C1E90E5501F590700021A8220FF0E0
:10072000EBFC32A00FF2C00E4FF0780C002300BF9C
:1007300085B16A1C510715D0062D0CD9D9B204EB2E
:10074000810101F5907681F820C104EB8501013328
:100750000E640BE0012250F8251004EB8505296496
:1007600004E000BF04EB8501C1F840E0382A1546DB
:10077000DED147F20A10C0F60300C4F81C0120467F
:1007800004F14005FFF72AF92946E062FFF746FC2D
:10079000E06A4FF40871FFF723FCE06A49F6F9615B
:1007A000C0F600011D2200230FF018FFE06A64214B
:1007B000C2F2000114F012FCE06A4FF404210FF0C1
:1007C0001FFF2046012114F0C9F9E06A012114F04D
:1007D000D1F9A18E94F93620204600F017F8204672
:1007E000BDE87040FBF796BD0A0000007F6A030871
:1007F000706A0308826A03086A6A03086D6A03085C
:10080000736A0308206A0308343070472DE9F04FFB
:1008100089B004468186012084F83700E06A894661
:100820004021174684F83620FFF7B2F8002500BFB4
:10083000E06A29464022FFF79DFB0135072DF7D1DD
:100840001FFA89F64FFA87F8304641463D06FAF717
:100850006BFC0021B5F1407F38BF4FF0FF310791AD
:100860004FF0FF313246089638BF11FA89F24146FF
:10087000B5F1407F38BF0C31C1EB41114AF6AB23D3
:100880003E39CAF6AA23A1FB031348F21F51C5F251
:10089000EB11A2FB011702EB9201A1EB571101EB47
:1008A000D71101EBD30144F625160131C2F292466D
:1008B000A1FB06650646D8080290900803907809C7
:1008C0000690F8090190481B05EB50000590800840
:1008D0000490A0EBC00001EB000909EB060B0096A9
:1008E0004EB3DDE90110059A0844039946F6053533
:1008F00008440799012708440899C0F603050844ED
:1009000006998000A0EB81000499CA46C900A1EBBA
:100910009201A0EB8100204400F59276FBB23046B4
:1009200004212A4615F00DFE0AF1010A0137DA45C5
:1009300006F10406F2D3B9F1000F22D00898A8F10D
:100940000101FAF7F1FB46F60536A0EB090504F5BF
:1009500090774FF00008C0F6030600BF0135EBB2F8
:1009600038460421324615F0ECFDE06A08F1070133
:100970004022FFF7FFFA08F10108C84507F1040714
:10098000ECD3BBF1290F32D8DDE90110069B0844F6
:100990000399049A08440799059F08440099D200D6
:1009A00008440899A2EB97020844C11A8000A0EB02
:1009B0008300A0EB8200204446F605388F1A00F52C
:1009C00092750126C0F603082846042142463346A4
:1009D00015F0B7FDE06AB91907314022FFF7CAFAEE
:1009E0000136B8190138292805F10405ECD3204651
:1009F000FBF790FCE06AFFF7ADFA4FF6FF71884213
:100A000004D0E06A09F10701FFF7C6FC204612F0A6
:100A1000A9FC204611F049F880B10546002600BF28
:100A20002046314611F000F8E16A884203D01E21C9
:100A3000224614F005F80136B542F1D109B000F0B4
:100A400000B830BCBDE8C08F10B50C4601F12C00D9
:100A50001421F4F736FC04F138001821F4F731FCC6
:100A60000020C4E91100C4E9150003206FF0004321
:100A7000C4E9193094F87400642100F0F000C4E96E
:100A80001311C4E9171105210A220130E16622671A
:100A900084F8740010BD000070B5086B0C4601F1BD
:100AA0002C05D0B12846F4F7EDFB98B10646007C42
:100AB000410703D470680AF0E9FE307C800702D455
:100AC00030680AF0E3FE28463146F4F757FC30461A
:100AD0000AF0DCFE206B0028E4D128460021F4F760
:100AE000B3FBE06B04F1380570B100BF2846F4F7A2
:100AF000C9FB064628463146F4F740FC30460AF06A
:100B0000C5FEE06B0028F1D128460021BDE8704009
:100B1000F4F79ABB2DE9F04FEFB045F21C30C0F668
:100B200003000D4610F06CFF012840F05582284666
:100B30000AF078FA064628460AF078FA182E044693
:100B400025D0082E00F00182012E40F045820CF0E5
:100B5000F5FA3BA90CF02FFD60693B990D1A204670
:100B60003B9511F035FA4719204611F072F8064608
:100B7000204600211222002511F03AFF381A00F118
:100B80001A82B04240F3F981206F451E13E22846D5
:100B90000AF0A0FA04F1140600F1180581460FA826
:100BA00031462A46F3F78FF8002800F0DB8095E8FD
:100BB0000F000DF5AE7C8CE80F000FAB0FCB099644
:100BC00085E807002046002130220795EB6011F0F0
:100BD0000FFF069020460021122211F009FF049019
:100BE00020460021102211F003FF0290204611F050
:100BF00030F88346204610F0F6FF3BAD824628468B
:100C000003F06DFB204600212A4612F098F9204699
:100C10000021322211F0ECFEC0B20A9020460021E1
:100C2000302211F0E5FE089020460021342211F018
:100C3000DFFE0590204611F0CBF90390204611F01D
:100C4000F3FAA76E002F43D00546D4E90502E16907
:100C500042900A984FF00008032844911AD308984C
:100C6000012817DB059E0192B00708D52046002118
:100C7000102211F0BDFEB0FA80F04FEA5018F007D4
:100C800007D020460021112211F0B2FE002808BF33
:100C9000013F019A3EB246451ADD06980299084482
:100CA000401B87183BAD4046A16E00FB0AF201399C
:100CB000B2FBF1F13D9039444391459148462946B4
:100CC00003F0D9FA08F101080FFA88F08642EBDC4C
:100CD000E56E002D40D0D4E90580216A43900A9842
:100CE00000270328459117D30898012814DB059E97
:100CF000700707D520460021122211F079FEB0FAC4
:100D000080F04709300707D520460021132211F053
:100D10006FFE002808BF013D2EB2BE421CDD0698C2
:100D2000049908440399401A00EB08050DF1EC08FA
:100D3000384600BFE16E00FB0BF20139B2FBF1F166
:100D40003D902944429144914846414603F093FA2C
:100D5000013738B28642EDDC57AB0FCB079D099EB9
:100D600085E80F0004F12C00F4F7FFFA002800F0EA
:100D7000F48004F138000990F4F7F7FA002840F005
:100D80002B816BA829463246F2F79DFF002800F020
:100D9000238195E80F000DF5CE7C8CE80F006BAB3E
:100DA0000FCB079585E80700EB6057AD2846CDF8D7
:100DB000289003F094FA20464FF4C0212A4612F0FE
:100DC000BEF83BAD284604F025FA20464FF4C0217A
:100DD0002A4612F019F920464FF4C021012211F0E1
:100DE00007FE064620464FF4C021012211F000FE06
:100DF00007460998F4F760FA002800F0A18005463C
:100E000006EBD6704FEA600B07EBD7704FEA60092C
:100E10002BA800F12C0A0FA800F12108B01E10F138
:100E2000030F4FF00000A7F1020138BF012011F1BC
:100E3000030F4FF0000138BF01210840089000BFA8
:100E40002BA857A940220FF057F80FA83BA97022F2
:100E50000FF052F8A87B8AF80200A889AAF80000CF
:100E6000A87B88F80200A889A8F80000687DC00760
:100E70000CD1AA686FF00040824259D029692046FF
:100E80000BAB00F0AFF8DDE90B2101E0D5E9002163
:100E9000D4E9050386185F18A6EB0B010B9106EB4E
:100EA0000B012A7D0D91A7EB09010C9107EB0903BA
:100EB00091070E9318D0D20708BF3046CDE932070C
:100EC0000029304600D5E069CDE9340700202E9096
:100ED00012900A982BA903F0CEF9089820B10A982D
:100EE0000FA90BAA03F026FF287D10F00C0F19D0D4
:100EF00041073296394648BFA169000733913496BD
:100F00004FF0010048BF276A2E9012900A982BA933
:100F1000359703F0B0F9089820B10A980FA90BAAE9
:100F200003F008FF59983D9901305990481C3D90B5
:100F300009982946F4F7BDF9054600287FF480AFEB
:100F400067AB0FCB079F0FC746E0616E2046FCF7EB
:100F500092FA6FF0004060663EE094F8740000F092
:100F60000700032817D002281AD001287FF401AF08
:100F700020464946F8F704FCFBE694F8741001F0AB
:100F80000701022911D0012914D1216F01394843E9
:100F900000EB56000BE020464946F8F7FFFDE8E677
:100FA00020464946F8F7D6FAE3E6216F4843B0FBFE
:100FB000F6F500E00025606E85420DD020462946FA
:100FC000FCF759FA616E2046FCF755FA20461E21BF
:100FD0000022656613F034FD6FB000F000B830BC3D
:100FE000BDE8C08F2DE9F04F87B010B30F46D1B3E5
:100FF0000546006F1C469046904250D9284610F096
:1010000028FE8146284610F0EEFD95F874108246C1
:1010100001F00701032900F0A880022951D001291D
:1010200040F0B380286F09FB08F10138B1FBF0F004
:10103000AAE045F615517DA0C0F6030145F6F85724
:10104000CDE9001046F69A6146F6EC63C0F6030758
:10105000C0F60301C0F603030320D2220297F4F77F
:10106000B7F900BFFEE746F6376045F61551C0F602
:101070000300C0F6030145F6F857CDE9001046F627
:101080009A6146F6EC63C0F60307C0F60301C0F6AA
:1010900003030320D3220297F4F79AF9FEE746F6FA
:1010A0009A6146F6EC635CA7C0F60301C0F6030341
:1010B0000220D822CDE90078F4F78AF900202060D8
:1010C000A6E005F12C0B5846CDF818A0F4F7E0F88F
:1010D000049028464FF4A021152211F089FC0590B8
:1010E0002846002115224FF0000A11F081FC296FDB
:1010F00006464B1E03FB1092B2FBF1F10391A9EBE4
:10110000010101FB08F1B1FBF3F020605846F4F750
:10111000D3F870B10146B8420BD04FF0000A00BFBF
:1011200058460AF1010AF4F7C4F810B10146B84272
:10113000F6D106EB0900296F00FB08F0049EB0FB16
:10114000F1FC0398059B721E03FB12020AFB00F1DF
:10115000B1FBF6F1B2FBF6F201EB0C0002EBD2713F
:10116000DDF818A000EB61000EE0397C042238683D
:1011700002EA51016A1850F82800516DD26D00231F
:10118000CDF800900EF095FE206028460021302218
:10119000002611F02DFC814628460021122211F074
:1011A00027FC2168484408442060284610F010FFBE
:1011B0002168081A206095F87400000758BFFE687F
:1011C000286F06EB0801B1FBF0F202FB1010796802
:1011D000042251F82000397C02EA910129444A6C2A
:1011E000C96C801A00FB0AF0891A90FBF1F000210B
:1011F000AAEB000060602846102211F0F9FB61683C
:10120000484408446060284611F00EF86168081AE6
:10121000606007B000F010B8496E76616C696420B8
:10122000696E6465783A2025750000006F626A2057
:10123000213D204E554C4C0030BCBDE8C08F000015
:1012400010B50C4691F830100CA0E06241F001009E
:1012500084F83000204602210FF0D2F92046082100
:101260000FF0CEF920464FF480610FF0C9F9204607
:101270001021BDE8104013F00DB900BF436865634D
:101280006B20626F7800000091F83000C00718BF33
:10129000704710B5C86A0C460AF0F8FA0020E06200
:1012A000BDE8104070472DE9F04FC9B045F240301D
:1012B000C0F603000E4610F0A3FB012840F0598150
:1012C000304609F0AFFE0546304609F0AFFE162D58
:1012D00004465AD0182D67D02F2D40F04A81304651
:1012E00009F01CFF8046204600215A22002511F0FB
:1012F0007FFB0646D0F80CA0204600215C2211F0AE
:1013000077FB0746204600215B2211F071FBE16A62
:1013100003466FF06040CDE901052DA832460097E5
:1013200016F08EFA20460021152211F061FB81464D
:1013300020464FF40031122211F05AFB0746204696
:101340004FF40031132211F053FB054620464FF4B1
:101350000031102211F04CFB064620464FF40031BC
:10136000112211F045FB09EB0A022D9B3A442A4455
:101370001A44C8F8002006EB0A012E9A084490424D
:10138000C8BF0246C8F80420F3E0304609F0C6FEA4
:10139000054620464FF400310FF099FD296881423F
:1013A000C8BF08462860E4E0304609F03FFE054625
:1013B000304609F08FFE0C90284600215A2211F089
:1013C00017FB0A90C06800210D902846272211F0D3
:1013D0000FFBC7B228460021302211F009FB04465A
:1013E00028460021102211F003FB012F0790284608
:1013F0004FF0000104D1132211F0FAFA814604E003
:10140000122211F0F5FA00EB0409284600211522FA
:10141000089411F0EDFA099028464FF40031122299
:1014200011F0E6FA804628464FF40031132211F0FD
:10143000DFFA834628464FF40031102211F0D8FA23
:10144000069028464FF40031112211F0D1FA0446DB
:1014500028464FF40031682211F0CAFA0590284658
:101460004FF40031692211F0C3FA2DAE04903046DA
:1014700003F0D0FE28464FF40031324611F0C4FD8F
:10148000012F0B970AD1E869A0EB090A0D98404497
:101490005844AAEB000000F1010907E068698144A3
:1014A0000D98404458444844A0F1010ADDE9072161
:1014B000A8691144089147180D980699CDE9299714
:1014C0000844204400EB070BABF1010029ACDDE937
:1014D0000421CDE92BA02046FDF704F9DDF830808A
:1014E0002DA94046224603F025FC284600215C2217
:1014F000002611F07DFA0446284600215B2211F0F7
:1015000077FAE96A03466FF060400A9ACDE901066E
:1015100027A8009416F094F912AC204602F00EFAB7
:1015200028460021224611F0A6FCE86ADDE92712D0
:1015300019900998A9EB00060AEB00030B98012803
:10154000304614BFC818731A10900D980E93384483
:10155000ABEB0000089B00EBD070A96903EB6000C7
:1015600008440F90104411900EAA4046214602F004
:101570009FF949B000F000B830BCBDE8C08F01F061
:10158000C04CBCF1005F15D121F0C04CBCF5FA6F26
:1015900010DCBCF57A7FC8BFCCF57A7C48F21F51CD
:1015A0000CFB03FCC5F2EB115CFB01FC4FEA6C1178
:1015B00001EBDC7102F0C04CBCF1005F14D122F0F1
:1015C000C04CBCF5FA6F0FDCBCF57A7FC8BFCCF518
:1015D0007A7C0CFB03F248F21F53C5F2EB1352FB6B
:1015E00003F2531103EBD2728242B8BF104681421C
:1015F000C8BF0846704701F0C04CBCF1005F15D170
:1016000021F0C04CBCF5FA6F10DCBCF57A7FC8BF86
:10161000CCF57A7C48F21F510CFB03FCC5F2EB11B0
:101620005CFB01FC4FEA6C1101EBDC7102F0C04C79
:10163000BCF1005F14D122F0C04CBCF5FA6F0FDC96
:10164000BCF57A7FC8BFCCF57A7C0CFB03F248F27C
:101650001F53C5F2EB1352FB03F2531103EBD2728B
:101660008242B8BF10468142C8BF0846704700009A
:10167000F0B583B0030EFC2B00F2A880B1F1407FDF
:10168000C0F0A480B0F1407F4FEA116C02D208464E
:1016900063469BE0BCF1FF0F1FD1C1F3074683F007
:1016A000FF05C0F307426E43C1F30724C9B212FB22
:1016B0000362C0F307266C43C0B2694316FB0346BE
:1016C00010FB031002F47F4106F47F42C0F30720B1
:1016D000104440EA0120FF2378E0D679B44502D1D6
:1016E000D678B3420FD083F0FF068CF0FF056E432F
:1016F000557B6FEA162616738DB3C3EB0325F6B23E
:10170000B5FBF6F65673141D2668B1420AD1166869
:10171000B04207D102F1080081780088D37A40EA0C
:10172000014053E00D0C2180A570547BD37020F054
:101730007F4343EA0463060C82F807C04FEA132C88
:10174000FC2C4FEA134E1080967030D8B3F1407FD6
:101750004FEA112613D20B46B446AE4627E047F2B5
:10176000C9711DA622A5C0F6030128A3032040F2DB
:101770005622CDE90056F3F72BFE00BFFEE75FFAD5
:101780008EF36343EDB284F0FF0717FB05334FEA96
:10179000132E5FFA8CF36343F6B217FB06334FEA5E
:1017A000132CCBB2C0B27B4310FB0430030A01F010
:1017B0007F40DBB25FFA8CF718445FFA8EF140EAA3
:1017C0000720137B40EA01409060D37220F07F40F5
:1017D00040EA036003B0F0BD63616368652D3E724B
:1017E0006174696F5F736176656420213D2030000C
:1017F00041737365727465642061742065787072DA
:10180000657373696F6E3A20257300006C765F63B1
:101810006F6C6F725F33325F33325F6D69780000D7
:1018200081F0FF0148F28103C0F307425943C0F33E
:101830000723C0B24A434B4348434FF47F0101EAB8
:10184000D2114FF47F4202EAD33242EAD050084428
:10185000704700000638C1B20E298FBF002040B289
:1018600001A1085C704700BF0801020408010204DE
:10187000081820201018100047F68072C0F21102DC
:101880000021152822FA00F038BF012108407047D6
:1018900010B50021042204460EF02EFC201D00216C
:1018A00004220EF029FC04F10800002104220EF0AD
:1018B00023FC4FF6FF70A08110BD20F07F4040EA6E
:1018C000016070474FF478414FF4FC6201EA102147
:1018D00002EA50121144C0F3C4000844704740F0BB
:1018E0007F4070472DE9F04F83B006466FF480606B
:1018F000064262D00C9801EB4107A3EB410101EBDA
:1019000041057919A0EB4200C1F5806B02EB420161
:1019100000EB4000CDE901010844C0F580600BEB0D
:101920004B084FEA45094FF0080A3446009000BFC3
:1019300004FB0BF005EBA020604307EBA020604305
:10194000C6EBA0200028014600D54142022927D33A
:1019500008FB04F109EBA121614307EBA122002A56
:10196000114600D5514202290DD3C117890241EA1F
:1019700090518002D317EEF759FC20B1BAF1010A59
:10198000A4EB0004D4D1002E09D4DDF808C0DDE9B1
:10199000008EB6F5806F14D94FF4806404E0002403
:1019A000DDF808C0DDE9008E04FB08F00EEBA02096
:1019B00060430CEBA02060438612304603B000F079
:1019C00024B84FF480600021344600BF8142EBDA36
:1019D00004FB0BF205EBA222624307EBA222624357
:1019E000C6EBA223002B00D55B42022BDCD3921264
:1019F000B242B4BF21462046421A02EBD2730132F2
:101A0000022A01EB6304E1D8CEE730BCBDE8C08F09
:101A10002DE9F04184B040F27048C1F2000806465A
:101A200008F104000D46F3F754FC002854D00021BF
:101A30004FF44272044600270EF05EFB94F83A0021
:101A40004FF0FF3140F0010084F83A008220A0619D
:101A5000122084F83B003C20C4E90065C4E902116F
:101A6000C4E904770EF00FFA0028C4F8A00250D0A1
:101A7000D4F8A42201461AB120469047D4F8A01207
:101A80000020C1E9010094F83B00721E6B1E08752E
:101A90000120CA600B61C4F8600217F04FF8C4F867
:101AA000F40204F519701021F3F70BFC43F699705A
:101AB000D8F81460C0F6000021212246C8F814406E
:101AC00017F084F8C4F8F002E8B316F0F7FF002826
:101AD00053D016F05CFF64E046F2670045F61551FE
:101AE000C0F60300C0F6030146F23B17CDE9001033
:101AF00046F2740146F2C703C0F60307C0F60301BD
:101B0000C0F6030303203C220297F3F761FC00BFF9
:101B1000FEE745F6155155A0C0F6030146F23B1706
:101B2000CDE9001046F2740146F2C703C0F6030780
:101B3000C0F60301C0F6030303204C220297F3F71B
:101B400047FC00BFFEE745F6155141A0C0F6030172
:101B500046F23B17CDE9001046F2740146F2C70386
:101B6000C0F60307C0F60301C0F60303032060229A
:101B70000297F3F72DFC00BFFEE7052013F078FB7A
:101B80000546002013F074FB45F2AC3725F07F4189
:101B900020F07F42C0F6030720460023009716F08E
:101BA00005FFC4F8EC0200200FF01DFBC4F8BC02D6
:101BB00000200FF018FBC4F8B00200200FF013FB58
:101BC000C4F8C00200200FF00EFBD4F8BC12C4F819
:101BD000C402084612F07CFDD4F8C00212F078FD71
:101BE000D4F8C40212F074FDD4F8C002022112F03D
:101BF00051FCD4F8C402022112F04CFCD4F8BC020F
