Component: ARM Compiler 6.14 Tool: armlink [5db06800]

==============================================================================

Section Cross References

    startup_stm32l431xx.o(STACK) refers (Special) to heapauxi.o(.text) for __use_two_region_memory
    startup_stm32l431xx.o(HEAP) refers (Special) to heapauxi.o(.text) for __use_two_region_memory
    startup_stm32l431xx.o(RESET) refers (Special) to heapauxi.o(.text) for __use_two_region_memory
    startup_stm32l431xx.o(RESET) refers to startup_stm32l431xx.o(STACK) for __initial_sp
    startup_stm32l431xx.o(RESET) refers to startup_stm32l431xx.o(.text) for Reset_Handler
    startup_stm32l431xx.o(RESET) refers to stm32l4xx_it.o(.text.NMI_Handler) for NMI_Handler
    startup_stm32l431xx.o(RESET) refers to stm32l4xx_it.o(.text.HardFault_Handler) for HardFault_Handler
    startup_stm32l431xx.o(RESET) refers to stm32l4xx_it.o(.text.MemManage_Handler) for MemManage_Handler
    startup_stm32l431xx.o(RESET) refers to stm32l4xx_it.o(.text.BusFault_Handler) for BusFault_Handler
    startup_stm32l431xx.o(RESET) refers to stm32l4xx_it.o(.text.UsageFault_Handler) for UsageFault_Handler
    startup_stm32l431xx.o(RESET) refers to stm32l4xx_it.o(.text.SVC_Handler) for SVC_Handler
    startup_stm32l431xx.o(RESET) refers to stm32l4xx_it.o(.text.DebugMon_Handler) for DebugMon_Handler
    startup_stm32l431xx.o(RESET) refers to stm32l4xx_it.o(.text.PendSV_Handler) for PendSV_Handler
    startup_stm32l431xx.o(RESET) refers to stm32l4xx_it.o(.text.SysTick_Handler) for SysTick_Handler
    startup_stm32l431xx.o(RESET) refers to stm32l4xx_it.o(.text.USART1_IRQHandler) for USART1_IRQHandler
    startup_stm32l431xx.o(RESET) refers to stm32l4xx_it.o(.text.LPUART1_IRQHandler) for LPUART1_IRQHandler
    startup_stm32l431xx.o(.text) refers (Special) to heapauxi.o(.text) for __use_two_region_memory
    startup_stm32l431xx.o(.text) refers to system_stm32l4xx.o(.text.SystemInit) for SystemInit
==============================================================================

Removing Unused input sections from the image.

    Removing main.o(.text), (0 bytes).
    Removing main.o(.ARM.exidx.text.main), (8 bytes).
    Removing main.o(.ARM.exidx.text.SystemClock_Config), (8 bytes).
    Removing main.o(.ARM.exidx.text._KeyEventHandler), (8 bytes).
    Removing main.o(.ARM.exidx.text.Error_Handler), (8 bytes).
    Removing main.o(.bss.hqspi), (76 bytes).
    Removing main.o(.bss.hsd1), (132 bytes).
    Removing main.o(.bss.hspi2), (100 bytes).
    Removing main.o(.ARM.use_no_argv), (4 bytes).
    Removing stm32l4xx_it.o(.text), (0 bytes).
    Removing stm32l4xx_it.o(.ARM.exidx.text.NMI_Handler), (8 bytes).
    Removing stm32l4xx_it.o(.ARM.exidx.text.HardFault_Handler), (8 bytes).
    Removing stm32l4xx_it.o(.ARM.exidx.text.MemManage_Handler), (8 bytes).
    Removing stm32l4xx_it.o(.ARM.exidx.text.BusFault_Handler), (8 bytes).
    Removing stm32l4xx_it.o(.ARM.exidx.text.UsageFault_Handler), (8 bytes).
    Removing stm32l4xx_it.o(.ARM.exidx.text.SVC_Handler), (8 bytes).
    Removing stm32l4xx_it.o(.ARM.exidx.text.DebugMon_Handler), (8 bytes).
    Removing stm32l4xx_it.o(.ARM.exidx.text.PendSV_Handler), (8 bytes).
==============================================================================

Image Symbol Table

    Local Symbols

    Symbol Name                              Value     Ov Type        Size  Object(Section)

    ../clib/angel/boardlib.s                 0x00000000   Number         0  boardinit1.o ABSOLUTE
    ../clib/angel/boardlib.s                 0x00000000   Number         0  boardinit2.o ABSOLUTE
    ../clib/angel/boardlib.s                 0x00000000   Number         0  boardinit3.o ABSOLUTE
    ../clib/angel/boardlib.s                 0x00000000   Number         0  boardshut.o ABSOLUTE
    ../clib/angel/handlers.s                 0x00000000   Number         0  __scatter_copy.o ABSOLUTE
    ../clib/angel/handlers.s                 0x00000000   Number         0  __scatter_zi.o ABSOLUTE
    ../clib/angel/kernel.s                   0x00000000   Number         0  __rtentry.o ABSOLUTE
    ../clib/angel/kernel.s                   0x00000000   Number         0  __rtentry2.o ABSOLUTE
    ../clib/angel/kernel.s                   0x00000000   Number         0  __rtentry4.o ABSOLUTE
    ../clib/angel/kernel.s                   0x00000000   Number         0  rtexit.o ABSOLUTE
    ../clib/angel/kernel.s                   0x00000000   Number         0  rtexit2.o ABSOLUTE
    ../clib/angel/rt.s                       0x00000000   Number         0  aeabi_ldiv0.o ABSOLUTE
    ../clib/angel/rt.s                       0x00000000   Number         0  aeabi_ldiv0_sigfpe.o ABSOLUTE
    ../clib/angel/rt.s                       0x00000000   Number         0  rt_div0.o ABSOLUTE
    ../clib/angel/rt.s                       0x00000000   Number         0  rt_ctype_table.o ABSOLUTE
    ../clib/angel/rt.s                       0x00000000   Number         0  rt_locale.o ABSOLUTE
    ../clib/angel/rt.s                       0x00000000   Number         0  rt_locale_intlibspace.o ABSOLUTE
    ../clib/angel/rt.s                       0x00000000   Number         0  rt_raise.o ABSOLUTE
    ../clib/angel/scatter.s                  0x00000000   Number         0  __scatter.o ABSOLUTE
    ../clib/angel/startup.s                  0x00000000   Number         0  __main.o ABSOLUTE
    ../clib/angel/sys.s                      0x00000000   Number         0  sys_stackheap_outer.o ABSOLUTE
    ../clib/angel/sys.s                      0x00000000   Number         0  libspace.o ABSOLUTE
    ../clib/angel/sys.s                      0x00000000   Number         0  use_no_semi.o ABSOLUTE
    ../clib/angel/sys.s                      0x00000000   Number         0  indicate_semi.o ABSOLUTE
    ../clib/angel/sysapp.c                   0x00000000   Number         0  sys_exit.o ABSOLUTE
    ../clib/angel/sysapp.c                   0x00000000   Number         0  sys_exit_hlt.o ABSOLUTE
    ../clib/angel/sysapp.c                   0x00000000   Number         0  sys_wrch.o ABSOLUTE
    ../clib/angel/sysapp.c                   0x00000000   Number         0  sys_wrch_hlt.o ABSOLUTE
    ../clib/angel/sysapp.c                   0x00000000   Number         0  sys_command.o ABSOLUTE
    ../clib/angel/sysapp.c                   0x00000000   Number         0  sys_command_hlt.o ABSOLUTE
    ../clib/armsys.c                         0x00000000   Number         0  argv_veneer.o ABSOLUTE
    ../clib/armsys.c                         0x00000000   Number         0  argv_veneer.o ABSOLUTE
    ../clib/armsys.c                         0x00000000   Number         0  _get_argv_nomalloc.o ABSOLUTE
    ../clib/armsys.c                         0x00000000   Number         0  no_argv.o ABSOLUTE
    ../clib/bigflt.c                         0x00000000   Number         0  bigflt0.o ABSOLUTE
    ../clib/btod.s                           0x00000000   Number         0  btod.o ABSOLUTE
    ../clib/btod_accurate.c                  0x00000000   Number         0  btod_accurate.o ABSOLUTE
    ../clib/btod_accurate.c                  0x00000000   Number         0  btod_accurate_common.o ABSOLUTE
    ../clib/heapalloc.c                      0x00000000   Number         0  hrguard.o ABSOLUTE
    ../clib/heapaux.c                        0x00000000   Number         0  heapauxi.o ABSOLUTE
    ../clib/libinit.s                        0x00000000   Number         0  libinit.o ABSOLUTE
    ../clib/libinit.s                        0x00000000   Number         0  libinit2.o ABSOLUTE
    ../clib/libinit.s                        0x00000000   Number         0  libshutdown.o ABSOLUTE
    ../clib/libinit.s                        0x00000000   Number         0  libshutdown2.o ABSOLUTE
    ../clib/locale.c                         0x00000000   Number         0  _c16rtomb.o ABSOLUTE
    ../clib/locale.s                         0x00000000   Number         0  lc_numeric_c.o ABSOLUTE
    ../clib/locale.s                         0x00000000   Number         0  lc_ctype_c.o ABSOLUTE
    ../clib/longlong.s                       0x00000000   Number         0  lludivv7m.o ABSOLUTE
    ../clib/longlong.s                       0x00000000   Number         0  llsdiv.o ABSOLUTE
    ../clib/longlong.s                       0x00000000   Number         0  lludiv10.o ABSOLUTE
    ../clib/longlong.s                       0x00000000   Number         0  llushr.o ABSOLUTE
    ../clib/memcpset.s                       0x00000000   Number         0  rt_memcpy_v6.o ABSOLUTE
    ../clib/memcpset.s                       0x00000000   Number         0  rt_memclr.o ABSOLUTE
    ../clib/memcpset.s                       0x00000000   Number         0  rt_memclr_w.o ABSOLUTE
    ../clib/memcpset.s                       0x00000000   Number         0  rt_memcpy_w.o ABSOLUTE
    ../clib/memcpset.s                       0x00000000   Number         0  strcmpv7em.o ABSOLUTE
    ../clib/misc.s                           0x00000000   Number         0  printf_stubs.o ABSOLUTE
    ../clib/printf.c                         0x00000000   Number         0  vsnprintf.o ABSOLUTE
    ../clib/printf.c                         0x00000000   Number         0  __2sprintf.o ABSOLUTE
    ../clib/printf.c                         0x00000000   Number         0  noretval__2sprintf.o ABSOLUTE
    ../clib/printf.c                         0x00000000   Number         0  __printf.o ABSOLUTE
    ../clib/printf.c                         0x00000000   Number         0  _printf_dec.o ABSOLUTE
    ../clib/printf.c                         0x00000000   Number         0  __printf_flags.o ABSOLUTE
    ../clib/printf.c                         0x00000000   Number         0  __printf_ss.o ABSOLUTE
    ../clib/printf.c                         0x00000000   Number         0  __printf_flags_ss.o ABSOLUTE
    ../clib/printf.c                         0x00000000   Number         0  __printf_wp.o ABSOLUTE
    ../clib/printf.c                         0x00000000   Number         0  __printf_flags_wp.o ABSOLUTE
    ../clib/printf.c                         0x00000000   Number         0  __printf_ss_wp.o ABSOLUTE
    ../clib/printf.c                         0x00000000   Number         0  __printf_flags_ss_wp.o ABSOLUTE
    ../clib/printf.c                         0x00000000   Number         0  _printf_pad.o ABSOLUTE
    ../clib/printf.c                         0x00000000   Number         0  _printf_truncate.o ABSOLUTE
    ../clib/printf.c                         0x00000000   Number         0  _printf_str.o ABSOLUTE
    ../clib/printf.c                         0x00000000   Number         0  _printf_intcommon.o ABSOLUTE
    ../clib/printf.c                         0x00000000   Number         0  _printf_charcount.o ABSOLUTE
    ../clib/printf.c                         0x00000000   Number         0  _printf_char_common.o ABSOLUTE
    ../clib/printf.c                         0x00000000   Number         0  _sputc.o ABSOLUTE
    ../clib/printf.c                         0x00000000   Number         0  _snputc.o ABSOLUTE
    ../clib/printf.c                         0x00000000   Number         0  _printf_wctomb.o ABSOLUTE
    ../clib/printf.c                         0x00000000   Number         0  _printf_longlong_dec.o ABSOLUTE
    ../clib/printf.c                         0x00000000   Number         0  _printf_oct_ll.o ABSOLUTE
    ../clib/printf.c                         0x00000000   Number         0  _printf_oct_int.o ABSOLUTE
    ../clib/printf.c                         0x00000000   Number         0  _printf_oct_int_ll.o ABSOLUTE
    ../clib/printf.c                         0x00000000   Number         0  _printf_hex_ll.o ABSOLUTE
    ../clib/printf.c                         0x00000000   Number         0  _printf_hex_int.o ABSOLUTE
    ../clib/printf.c                         0x00000000   Number         0  _printf_hex_int_ll.o ABSOLUTE
    ../clib/printf.c                         0x00000000   Number         0  _printf_hex_ptr.o ABSOLUTE
    ../clib/printf.c                         0x00000000   Number         0  _printf_hex_int_ptr.o ABSOLUTE
    ../clib/printf.c                         0x00000000   Number         0  _printf_hex_ll_ptr.o ABSOLUTE
    ../clib/printf.c                         0x00000000   Number         0  _printf_hex_int_ll_ptr.o ABSOLUTE
    ../clib/printf.c                         0x00000000   Number         0  _printf_fp_dec.o ABSOLUTE
    ../clib/printf.c                         0x00000000   Number         0  _printf_fp_dec_accurate.o ABSOLUTE
    ../clib/printf.c                         0x00000000   Number         0  _printf_fp_hex.o ABSOLUTE
    ../clib/printf.c                         0x00000000   Number         0  __printf_nopercent.o ABSOLUTE
    ../clib/printf.c                         0x00000000   Number         0  _printf_char.o ABSOLUTE
    ../clib/printf.c                         0x00000000   Number         0  _printf_wchar.o ABSOLUTE
    ../clib/printf.c                         0x00000000   Number         0  _printf_fp_infnan.o ABSOLUTE
    ../clib/printf_percent.s                 0x00000000   Number         0  _printf_d.o ABSOLUTE
    ../clib/printf_percent.s                 0x00000000   Number         0  _printf_percent.o ABSOLUTE
    ../clib/printf_percent.s                 0x00000000   Number         0  _printf_c.o ABSOLUTE
    ../clib/printf_percent.s                 0x00000000   Number         0  _printf_s.o ABSOLUTE
    ../clib/printf_percent.s                 0x00000000   Number         0  _printf_n.o ABSOLUTE
    ../clib/printf_percent.s                 0x00000000   Number         0  _printf_x.o ABSOLUTE
    ../clib/printf_percent.s                 0x00000000   Number         0  _printf_p.o ABSOLUTE
    ../clib/printf_percent.s                 0x00000000   Number         0  _printf_o.o ABSOLUTE
    ../clib/printf_percent.s                 0x00000000   Number         0  _printf_i.o ABSOLUTE
    ../clib/printf_percent.s                 0x00000000   Number         0  _printf_u.o ABSOLUTE
    ../clib/printf_percent.s                 0x00000000   Number         0  _printf_f.o ABSOLUTE
    ../clib/printf_percent.s                 0x00000000   Number         0  _printf_e.o ABSOLUTE
    ../clib/printf_percent.s                 0x00000000   Number         0  _printf_g.o ABSOLUTE
    ../clib/printf_percent.s                 0x00000000   Number         0  _printf_a.o ABSOLUTE
    ../clib/printf_percent.s                 0x00000000   Number         0  _printf_percent_end.o ABSOLUTE
    ../clib/printf_percent.s                 0x00000000   Number         0  _printf_lli.o ABSOLUTE
    ../clib/printf_percent.s                 0x00000000   Number         0  _printf_lld.o ABSOLUTE
    ../clib/printf_percent.s                 0x00000000   Number         0  _printf_llu.o ABSOLUTE
    ../clib/printf_percent.s                 0x00000000   Number         0  _printf_ll.o ABSOLUTE
    ../clib/printf_percent.s                 0x00000000   Number         0  _printf_l.o ABSOLUTE
    ../clib/printf_percent.s                 0x00000000   Number         0  _printf_lc.o ABSOLUTE
    ../clib/printf_percent.s                 0x00000000   Number         0  _printf_ls.o ABSOLUTE
    ../clib/printf_percent.s                 0x00000000   Number         0  _printf_llo.o ABSOLUTE
    ../clib/printf_percent.s                 0x00000000   Number         0  _printf_llx.o ABSOLUTE
    ../clib/signal.c                         0x00000000   Number         0  defsig_fpe_outer.o ABSOLUTE
    ../clib/signal.c                         0x00000000   Number         0  defsig_fpe_formal.o ABSOLUTE
    ../clib/signal.c                         0x00000000   Number         0  defsig_exit.o ABSOLUTE
    ../clib/signal.c                         0x00000000   Number         0  defsig_fpe_inner.o ABSOLUTE
    ../clib/signal.c                         0x00000000   Number         0  __raise.o ABSOLUTE
    ../clib/signal.c                         0x00000000   Number         0  defsig_general.o ABSOLUTE
    ../clib/signal.c                         0x00000000   Number         0  defsig_abrt_inner.o ABSOLUTE
    ../clib/signal.c                         0x00000000   Number         0  defsig_rtred_inner.o ABSOLUTE
    ../clib/signal.c                         0x00000000   Number         0  defsig_rtmem_inner.o ABSOLUTE
    ../clib/signal.c                         0x00000000   Number         0  defsig_rtmem_outer.o ABSOLUTE
    ../clib/signal.c                         0x00000000   Number         0  defsig_rtmem_formal.o ABSOLUTE
    ../clib/signal.c                         0x00000000   Number         0  defsig_stak_inner.o ABSOLUTE
    ../clib/signal.c                         0x00000000   Number         0  defsig_pvfn_inner.o ABSOLUTE
    ../clib/signal.c                         0x00000000   Number         0  defsig_cppl_inner.o ABSOLUTE
    ../clib/signal.c                         0x00000000   Number         0  defsig_segv_inner.o ABSOLUTE
    ../clib/signal.c                         0x00000000   Number         0  defsig_other.o ABSOLUTE
    ../clib/signal.s                         0x00000000   Number         0  defsig.o ABSOLUTE
    ../clib/stdlib.c                         0x00000000   Number         0  exit.o ABSOLUTE
    ../clib/string.c                         0x00000000   Number         0  strlen.o ABSOLUTE
    ../fplib/ddiv.s                          0x00000000   Number         0  ddiv.o ABSOLUTE
    ../fplib/dfixu.s                         0x00000000   Number         0  dfixu.o ABSOLUTE
    ../fplib/dflt.s                          0x00000000   Number         0  dflt_clz.o ABSOLUTE
    ../fplib/dmul.s                          0x00000000   Number         0  dmul.o ABSOLUTE
    ../fplib/dnaninf.s                       0x00000000   Number         0  dnaninf.o ABSOLUTE
    ../fplib/dretinf.s                       0x00000000   Number         0  dretinf.o ABSOLUTE
    ../fplib/fpinit.s                        0x00000000   Number         0  fpinit.o ABSOLUTE
    ../fplib/istatus.s                       0x00000000   Number         0  istatus.o ABSOLUTE
    ../fplib/printf1.s                       0x00000000   Number         0  printf1.o ABSOLUTE
    ../fplib/printf2.s                       0x00000000   Number         0  printf2.o ABSOLUTE
    ../fplib/printf2a.s                      0x00000000   Number         0  printf2a.o ABSOLUTE
    ../fplib/printf2b.s                      0x00000000   Number         0  printf2b.o ABSOLUTE
    ../fplib/usenofp.s                       0x00000000   Number         0  usenofp.o ABSOLUTE
    ../mathlib/fpclassify.c                  0x00000000   Number         0  fpclassify.o ABSOLUTE
    b_core.c                                 0x00000000   Number         0  b_core_1.o ABSOLUTE
    b_device.c                               0x00000000   Number         0  b_device_1.o ABSOLUTE
    b_drv_key.c                              0x00000000   Number         0  b_drv_key.o ABSOLUTE
    b_hal.c                                  0x00000000   Number         0  b_hal.o ABSOLUTE
    b_hal_flash.c                            0x00000000   Number         0  b_hal_flash.o ABSOLUTE
    b_hal_gpio.c                             0x00000000   Number         0  b_hal_gpio.o ABSOLUTE
    b_hal_i2c.c                              0x00000000   Number         0  b_hal_i2c.o ABSOLUTE
    b_hal_it.c                               0x00000000   Number         0  b_hal_it.o ABSOLUTE
    b_hal_qspi.c                             0x00000000   Number         0  b_hal_qspi.o ABSOLUTE
    b_hal_sdio.c                             0x00000000   Number         0  b_hal_sdio.o ABSOLUTE
    b_hal_spi.c                              0x00000000   Number         0  b_hal_spi.o ABSOLUTE
    b_hal_uart.c                             0x00000000   Number         0  b_hal_uart.o ABSOLUTE
    b_mod_adchub.c                           0x00000000   Number         0  b_mod_adchub.o ABSOLUTE
    b_mod_button.c                           0x00000000   Number         0  b_mod_button.o ABSOLUTE
    b_mod_error.c                            0x00000000   Number         0  b_mod_error.o ABSOLUTE
    b_mod_fs.c                               0x00000000   Number         0  b_mod_fs.o ABSOLUTE
    b_mod_gui.c                              0x00000000   Number         0  b_mod_gui.o ABSOLUTE
    b_mod_iap.c                              0x00000000   Number         0  b_mod_iap.o ABSOLUTE
    b_mod_kv.c                               0x00000000   Number         0  b_mod_kv.o ABSOLUTE
    b_mod_menu.c                             0x00000000   Number         0  b_mod_menu.o ABSOLUTE
    b_mod_modbus.c                           0x00000000   Number         0  b_mod_modbus.o ABSOLUTE
    b_mod_param.c                            0x00000000   Number         0  b_mod_param.o ABSOLUTE
    b_mod_protocol.c                         0x00000000   Number         0  b_mod_protocol.o ABSOLUTE
    b_mod_pwm.c                              0x00000000   Number         0  b_mod_pwm.o ABSOLUTE
    b_mod_shell.c                            0x00000000   Number         0  b_mod_shell.o ABSOLUTE
    b_mod_state.c                            0x00000000   Number         0  b_mod_state.o ABSOLUTE
    b_mod_trace.c                            0x00000000   Number         0  b_mod_trace.o ABSOLUTE
    b_mod_xm128.c                            0x00000000   Number         0  b_mod_xm128.o ABSOLUTE
    b_mod_ymodem.c                           0x00000000   Number         0  b_mod_ymodem.o ABSOLUTE
    b_queue.c                                0x00000000   Number         0  b_queue.o ABSOLUTE
    b_sem.c                                  0x00000000   Number         0  b_sem.o ABSOLUTE
    b_task.c                                 0x00000000   Number         0  b_task.o ABSOLUTE
    b_timer.c                                0x00000000   Number         0  b_timer.o ABSOLUTE
    b_util_fifo.c                            0x00000000   Number         0  b_util_fifo.o ABSOLUTE
    b_util_log.c                             0x00000000   Number         0  b_util_log.o ABSOLUTE
    b_util_lunar.c                           0x00000000   Number         0  b_util_lunar.o ABSOLUTE
    b_util_memp.c                            0x00000000   Number         0  b_util_memp.o ABSOLUTE
    b_util_uart.c                            0x00000000   Number         0  b_util_uart.o ABSOLUTE
    b_util_utc.c                             0x00000000   Number         0  b_util_utc.o ABSOLUTE
    dc.s                                     0x00000000   Number         0  dc.o ABSOLUTE
    flexible_button.c                        0x00000000   Number         0  flexible_button.o ABSOLUTE
    main.c                                   0x00000000   Number         0  main.o ABSOLUTE
    mcu_stm32l41x_flash.c                    0x00000000   Number         0  mcu_stm32l41x_flash.o ABSOLUTE
    mcu_stm32l41x_gpio.c                     0x00000000   Number         0  mcu_stm32l41x_gpio.o ABSOLUTE
    mcu_stm32l41x_i2c.c                      0x00000000   Number         0  mcu_stm32l41x_i2c.o ABSOLUTE
    mcu_stm32l41x_it.c                       0x00000000   Number         0  mcu_stm32l41x_it.o ABSOLUTE
    mcu_stm32l41x_qspi.c                     0x00000000   Number         0  mcu_stm32l41x_qspi.o ABSOLUTE
    mcu_stm32l41x_sdio.c                     0x00000000   Number         0  mcu_stm32l41x_sdio.o ABSOLUTE
    mcu_stm32l41x_spi.c                      0x00000000   Number         0  mcu_stm32l41x_spi.o ABSOLUTE
    mcu_stm32l41x_uart.c                     0x00000000   Number         0  mcu_stm32l41x_uart.o ABSOLUTE
    startup_stm32l431xx.s                    0x00000000   Number         0  startup_stm32l431xx.o ABSOLUTE
    stm32l4xx_hal.c                          0x00000000   Number         0  stm32l4xx_hal.o ABSOLUTE
    stm32l4xx_hal_adc.c                      0x00000000   Number         0  stm32l4xx_hal_adc.o ABSOLUTE
    stm32l4xx_hal_adc_ex.c                   0x00000000   Number         0  stm32l4xx_hal_adc_ex.o ABSOLUTE
    stm32l4xx_hal_cortex.c                   0x00000000   Number         0  stm32l4xx_hal_cortex.o ABSOLUTE
    stm32l4xx_hal_dma.c                      0x00000000   Number         0  stm32l4xx_hal_dma.o ABSOLUTE
    stm32l4xx_hal_dma_ex.c                   0x00000000   Number         0  stm32l4xx_hal_dma_ex.o ABSOLUTE
    stm32l4xx_hal_flash.c                    0x00000000   Number         0  stm32l4xx_hal_flash.o ABSOLUTE
    stm32l4xx_hal_flash_ex.c                 0x00000000   Number         0  stm32l4xx_hal_flash_ex.o ABSOLUTE
    stm32l4xx_hal_flash_ramfunc.c            0x00000000   Number         0  stm32l4xx_hal_flash_ramfunc.o ABSOLUTE
    stm32l4xx_hal_gpio.c                     0x00000000   Number         0  stm32l4xx_hal_gpio.o ABSOLUTE
    stm32l4xx_hal_i2c.c                      0x00000000   Number         0  stm32l4xx_hal_i2c.o ABSOLUTE
    stm32l4xx_hal_i2c_ex.c                   0x00000000   Number         0  stm32l4xx_hal_i2c_ex.o ABSOLUTE
    stm32l4xx_hal_iwdg.c                     0x00000000   Number         0  stm32l4xx_hal_iwdg.o ABSOLUTE
    stm32l4xx_hal_mmc.c                      0x00000000   Number         0  stm32l4xx_hal_mmc.o ABSOLUTE
    stm32l4xx_hal_mmc_ex.c                   0x00000000   Number         0  stm32l4xx_hal_mmc_ex.o ABSOLUTE
    stm32l4xx_hal_msp.c                      0x00000000   Number         0  stm32l4xx_hal_msp.o ABSOLUTE
    stm32l4xx_hal_pwr.c                      0x00000000   Number         0  stm32l4xx_hal_pwr.o ABSOLUTE
    stm32l4xx_hal_pwr_ex.c                   0x00000000   Number         0  stm32l4xx_hal_pwr_ex.o ABSOLUTE
    stm32l4xx_hal_qspi.c                     0x00000000   Number         0  stm32l4xx_hal_qspi.o ABSOLUTE
    stm32l4xx_hal_rcc.c                      0x00000000   Number         0  stm32l4xx_hal_rcc.o ABSOLUTE
    stm32l4xx_hal_rcc_ex.c                   0x00000000   Number         0  stm32l4xx_hal_rcc_ex.o ABSOLUTE
    stm32l4xx_hal_sd.c                       0x00000000   Number         0  stm32l4xx_hal_sd.o ABSOLUTE
    stm32l4xx_hal_sd_ex.c                    0x00000000   Number         0  stm32l4xx_hal_sd_ex.o ABSOLUTE
    stm32l4xx_hal_smartcard.c                0x00000000   Number         0  stm32l4xx_hal_smartcard.o ABSOLUTE
    stm32l4xx_hal_smartcard_ex.c             0x00000000   Number         0  stm32l4xx_hal_smartcard_ex.o ABSOLUTE
    stm32l4xx_hal_spi.c                      0x00000000   Number         0  stm32l4xx_hal_spi.o ABSOLUTE
    stm32l4xx_hal_spi_ex.c                   0x00000000   Number         0  stm32l4xx_hal_spi_ex.o ABSOLUTE
    stm32l4xx_hal_tim.c                      0x00000000   Number         0  stm32l4xx_hal_tim.o ABSOLUTE
    stm32l4xx_hal_tim_ex.c                   0x00000000   Number         0  stm32l4xx_hal_tim_ex.o ABSOLUTE
    stm32l4xx_hal_uart.c                     0x00000000   Number         0  stm32l4xx_hal_uart.o ABSOLUTE
    stm32l4xx_hal_uart_ex.c                  0x00000000   Number         0  stm32l4xx_hal_uart_ex.o ABSOLUTE
    stm32l4xx_hal_usart.c                    0x00000000   Number         0  stm32l4xx_hal_usart.o ABSOLUTE
    stm32l4xx_hal_usart_ex.c                 0x00000000   Number         0  stm32l4xx_hal_usart_ex.o ABSOLUTE
    stm32l4xx_hal_wwdg.c                     0x00000000   Number         0  stm32l4xx_hal_wwdg.o ABSOLUTE
    stm32l4xx_it.c                           0x00000000   Number         0  stm32l4xx_it.o ABSOLUTE
    stm32l4xx_ll_sdmmc.c                     0x00000000   Number         0  stm32l4xx_ll_sdmmc.o ABSOLUTE
    system_stm32l4xx.c                       0x00000000   Number         0  system_stm32l4xx.o ABSOLUTE
    RESET                                    0x08000000   Section      396  startup_stm32l431xx.o(RESET)
    !!!main                                  0x0800018c   Section        8  __main.o(!!!main)
    !!!scatter                               0x08000194   Section       52  __scatter.o(!!!scatter)
    !!handler_copy                           0x080001c8   Section       26  __scatter_copy.o(!!handler_copy)
    !!handler_zi                             0x080001e4   Section       28  __scatter_zi.o(!!handler_zi)
    .ARM.Collect$$_printf_percent$$00000000  0x08000200   Section        0  _printf_percent.o(.ARM.Collect$$_printf_percent$$00000000)
    .ARM.Collect$$_printf_percent$$00000001  0x08000200   Section        6  _printf_n.o(.ARM.Collect$$_printf_percent$$00000001)
    .ARM.Collect$$_printf_percent$$00000002  0x08000206   Section        6  _printf_p.o(.ARM.Collect$$_printf_percent$$00000002)
    .ARM.Collect$$_printf_percent$$00000003  0x0800020c   Section        6  _printf_f.o(.ARM.Collect$$_printf_percent$$00000003)
    .ARM.Collect$$_printf_percent$$00000004  0x08000212   Section        6  _printf_e.o(.ARM.Collect$$_printf_percent$$00000004)
    .ARM.Collect$$_printf_percent$$00000005  0x08000218   Section        6  _printf_g.o(.ARM.Collect$$_printf_percent$$00000005)
    .ARM.Collect$$_printf_percent$$00000006  0x0800021e   Section        6  _printf_a.o(.ARM.Collect$$_printf_percent$$00000006)
    .ARM.Collect$$_printf_percent$$00000007  0x08000224   Section       10  _printf_ll.o(.ARM.Collect$$_printf_percent$$00000007)
    .ARM.Collect$$_printf_percent$$00000008  0x0800022e   Section        6  _printf_i.o(.ARM.Collect$$_printf_percent$$00000008)
    .ARM.Collect$$_printf_percent$$00000009  0x08000234   Section        6  _printf_d.o(.ARM.Collect$$_printf_percent$$00000009)
    .ARM.Collect$$_printf_percent$$0000000A  0x0800023a   Section        6  _printf_u.o(.ARM.Collect$$_printf_percent$$0000000A)
    .ARM.Collect$$_printf_percent$$0000000B  0x08000240   Section        6  _printf_o.o(.ARM.Collect$$_printf_percent$$0000000B)
    .ARM.Collect$$_printf_percent$$0000000C  0x08000246   Section        6  _printf_x.o(.ARM.Collect$$_printf_percent$$0000000C)
    .ARM.Collect$$_printf_percent$$0000000D  0x0800024c   Section        6  _printf_lli.o(.ARM.Collect$$_printf_percent$$0000000D)
    .ARM.Collect$$_printf_percent$$0000000E  0x08000252   Section        6  _printf_lld.o(.ARM.Collect$$_printf_percent$$0000000E)
    .ARM.Collect$$_printf_percent$$0000000F  0x08000258   Section        6  _printf_llu.o(.ARM.Collect$$_printf_percent$$0000000F)
    .ARM.Collect$$_printf_percent$$00000010  0x0800025e   Section        6  _printf_llo.o(.ARM.Collect$$_printf_percent$$00000010)
    .ARM.Collect$$_printf_percent$$00000011  0x08000264   Section        6  _printf_llx.o(.ARM.Collect$$_printf_percent$$00000011)
    .ARM.Collect$$_printf_percent$$00000012  0x0800026a   Section       10  _printf_l.o(.ARM.Collect$$_printf_percent$$00000012)
    .ARM.Collect$$_printf_percent$$00000013  0x08000274   Section        6  _printf_c.o(.ARM.Collect$$_printf_percent$$00000013)
    .ARM.Collect$$_printf_percent$$00000014  0x0800027a   Section        6  _printf_s.o(.ARM.Collect$$_printf_percent$$00000014)
    .ARM.Collect$$_printf_percent$$00000015  0x08000280   Section        6  _printf_lc.o(.ARM.Collect$$_printf_percent$$00000015)
    .ARM.Collect$$_printf_percent$$00000016  0x08000286   Section        6  _printf_ls.o(.ARM.Collect$$_printf_percent$$00000016)
    .ARM.Collect$$_printf_percent$$00000017  0x0800028c   Section        4  _printf_percent_end.o(.ARM.Collect$$_printf_percent$$00000017)
    .ARM.Collect$$libinit$$00000000          0x08000290   Section        2  libinit.o(.ARM.Collect$$libinit$$00000000)
    .ARM.Collect$$libinit$$00000001          0x08000292   Section        4  libinit2.o(.ARM.Collect$$libinit$$00000001)
    .ARM.Collect$$libinit$$00000004          0x08000296   Section        0  libinit2.o(.ARM.Collect$$libinit$$00000004)
    .ARM.Collect$$libinit$$0000000A          0x08000296   Section        0  libinit2.o(.ARM.Collect$$libinit$$0000000A)
    .ARM.Collect$$libinit$$0000000C          0x08000296   Section        0  libinit2.o(.ARM.Collect$$libinit$$0000000C)
    .ARM.Collect$$libinit$$0000000E          0x08000296   Section        0  libinit2.o(.ARM.Collect$$libinit$$0000000E)
    .ARM.Collect$$libinit$$0000000F          0x08000296   Section        6  libinit2.o(.ARM.Collect$$libinit$$0000000F)
    .ARM.Collect$$libinit$$00000011          0x0800029c   Section        0  libinit2.o(.ARM.Collect$$libinit$$00000011)
    .ARM.Collect$$libinit$$00000012          0x0800029c   Section       12  libinit2.o(.ARM.Collect$$libinit$$00000012)
    .ARM.Collect$$libinit$$00000013          0x080002a8   Section        0  libinit2.o(.ARM.Collect$$libinit$$00000013)
    .ARM.Collect$$libinit$$00000015          0x080002a8   Section        0  libinit2.o(.ARM.Collect$$libinit$$00000015)
    .ARM.Collect$$libinit$$00000016          0x080002a8   Section       10  libinit2.o(.ARM.Collect$$libinit$$00000016)
    .ARM.Collect$$libinit$$00000017          0x080002b2   Section        0  libinit2.o(.ARM.Collect$$libinit$$00000017)
    .ARM.Collect$$libinit$$00000019          0x080002b2   Section        0  libinit2.o(.ARM.Collect$$libinit$$00000019)
    .ARM.Collect$$libinit$$0000001B          0x080002b2   Section        0  libinit2.o(.ARM.Collect$$libinit$$0000001B)
    .ARM.Collect$$libinit$$0000001D          0x080002b2   Section        0  libinit2.o(.ARM.Collect$$libinit$$0000001D)
    .ARM.Collect$$libinit$$0000001F          0x080002b2   Section        0  libinit2.o(.ARM.Collect$$libinit$$0000001F)
    .ARM.Collect$$libinit$$00000021          0x080002b2   Section        0  libinit2.o(.ARM.Collect$$libinit$$00000021)
    .ARM.Collect$$libinit$$00000023          0x080002b2   Section        0  libinit2.o(.ARM.Collect$$libinit$$00000023)
    .ARM.Collect$$libinit$$00000025          0x080002b2   Section        0  libinit2.o(.ARM.Collect$$libinit$$00000025)
    .ARM.Collect$$libinit$$0000002C          0x080002b2   Section        0  libinit2.o(.ARM.Collect$$libinit$$0000002C)
    .ARM.Collect$$libinit$$0000002E          0x080002b2   Section        0  libinit2.o(.ARM.Collect$$libinit$$0000002E)
    .ARM.Collect$$libinit$$00000030          0x080002b2   Section        0  libinit2.o(.ARM.Collect$$libinit$$00000030)
    .ARM.Collect$$libinit$$00000032          0x080002b2   Section        0  libinit2.o(.ARM.Collect$$libinit$$00000032)
    .ARM.Collect$$libinit$$00000033          0x080002b2   Section        2  libinit2.o(.ARM.Collect$$libinit$$00000033)
    .ARM.Collect$$libshutdown$$00000000      0x080002b4   Section        2  libshutdown.o(.ARM.Collect$$libshutdown$$00000000)
    .ARM.Collect$$libshutdown$$00000002      0x080002b6   Section        0  libshutdown2.o(.ARM.Collect$$libshutdown$$00000002)
    .ARM.Collect$$libshutdown$$00000004      0x080002b6   Section        0  libshutdown2.o(.ARM.Collect$$libshutdown$$00000004)
    .ARM.Collect$$libshutdown$$00000007      0x080002b6   Section        0  libshutdown2.o(.ARM.Collect$$libshutdown$$00000007)
    .ARM.Collect$$libshutdown$$0000000A      0x080002b6   Section        0  libshutdown2.o(.ARM.Collect$$libshutdown$$0000000A)
    .ARM.Collect$$libshutdown$$0000000C      0x080002b6   Section        0  libshutdown2.o(.ARM.Collect$$libshutdown$$0000000C)
    .ARM.Collect$$libshutdown$$0000000F      0x080002b6   Section        0  libshutdown2.o(.ARM.Collect$$libshutdown$$0000000F)
    .ARM.Collect$$libshutdown$$00000010      0x080002b6   Section        2  libshutdown2.o(.ARM.Collect$$libshutdown$$00000010)
    .ARM.Collect$$rtentry$$00000000          0x080002b8   Section        0  __rtentry.o(.ARM.Collect$$rtentry$$00000000)
    .ARM.Collect$$rtentry$$00000002          0x080002b8   Section        0  __rtentry2.o(.ARM.Collect$$rtentry$$00000002)
    .ARM.Collect$$rtentry$$00000004          0x080002b8   Section        6  __rtentry4.o(.ARM.Collect$$rtentry$$00000004)
    .ARM.Collect$$rtentry$$00000009          0x080002be   Section        0  __rtentry2.o(.ARM.Collect$$rtentry$$00000009)
    .ARM.Collect$$rtentry$$0000000A          0x080002be   Section        4  __rtentry2.o(.ARM.Collect$$rtentry$$0000000A)
    .ARM.Collect$$rtentry$$0000000C          0x080002c2   Section        0  __rtentry2.o(.ARM.Collect$$rtentry$$0000000C)
    .ARM.Collect$$rtentry$$0000000D          0x080002c2   Section        8  __rtentry2.o(.ARM.Collect$$rtentry$$0000000D)
    .ARM.Collect$$rtexit$$00000000           0x080002ca   Section        2  rtexit.o(.ARM.Collect$$rtexit$$00000000)
    .ARM.Collect$$rtexit$$00000002           0x080002cc   Section        0  rtexit2.o(.ARM.Collect$$rtexit$$00000002)
    .ARM.Collect$$rtexit$$00000003           0x080002cc   Section        4  rtexit2.o(.ARM.Collect$$rtexit$$00000003)
    .ARM.Collect$$rtexit$$00000004           0x080002d0   Section        6  rtexit2.o(.ARM.Collect$$rtexit$$00000004)
    $v0                                      0x080002d8   Number         0  startup_stm32l431xx.o(.text)
    .text                                    0x080002d8   Section       64  startup_stm32l431xx.o(.text)
    .text                                    0x08000318   Section      240  lludivv7m.o(.text)
    .text                                    0x08000408   Section        0  vsnprintf.o(.text)
    .text                                    0x0800043c   Section        0  __2sprintf.o(.text)
    .text                                    0x08000468   Section        0  _printf_dec.o(.text)
    .text                                    0x080004e0   Section        0  __printf_flags_ss_wp.o(.text)
    .text                                    0x0800066e   Section        0  strlen.o(.text)
    .text                                    0x080006ac   Section      138  rt_memcpy_v6.o(.text)
    .text                                    0x08000736   Section       68  rt_memclr.o(.text)
    .text                                    0x0800077a   Section       78  rt_memclr_w.o(.text)
    .text                                    0x080007c8   Section        0  heapauxi.o(.text)
    .text                                    0x080007ce   Section        0  _printf_pad.o(.text)
    .text                                    0x0800081c   Section        0  _printf_truncate.o(.text)
    .text                                    0x08000840   Section        0  _printf_str.o(.text)
    .text                                    0x08000892   Section        0  _printf_intcommon.o(.text)
    .text                                    0x08000944   Section        0  _printf_charcount.o(.text)
    _printf_input_char                       0x0800096d   Thumb Code    10  _printf_char_common.o(.text)
    .text                                    0x0800096c   Section        0  _printf_char_common.o(.text)
    .text                                    0x0800099c   Section        0  _sputc.o(.text)
    .text                                    0x080009a6   Section        0  _snputc.o(.text)
    .text                                    0x080009b8   Section        0  _printf_wctomb.o(.text)
    .text                                    0x08000a7c   Section        0  _printf_longlong_dec.o(.text)
    _printf_longlong_oct_internal            0x08000af9   Thumb Code     0  _printf_oct_int_ll.o(.text)
    .text                                    0x08000af8   Section        0  _printf_oct_int_ll.o(.text)
    _printf_hex_common                       0x08000b69   Thumb Code     0  _printf_hex_int_ll_ptr.o(.text)
    .text                                    0x08000b68   Section        0  _printf_hex_int_ll_ptr.o(.text)
    .text                                    0x08000bfc   Section      100  rt_memcpy_w.o(.text)
    .text                                    0x08000c60   Section      138  lludiv10.o(.text)
    _fp_digits                               0x08000ceb   Thumb Code   432  _printf_fp_dec.o(.text)
    .text                                    0x08000cea   Section        0  _printf_fp_dec.o(.text)
    .text                                    0x0800110c   Section        0  _printf_fp_hex.o(.text)
    .text                                    0x0800140e   Section        0  _printf_char.o(.text)
    .text                                    0x0800143a   Section        0  _printf_wchar.o(.text)
    .text                                    0x08001466   Section        0  _c16rtomb.o(.text)
    .text                                    0x080014ae   Section       74  sys_stackheap_outer.o(.text)
    .text                                    0x080014f8   Section       16  rt_ctype_table.o(.text)
    .text                                    0x08001508   Section        8  rt_locale_intlibspace.o(.text)
    .text                                    0x08001510   Section        0  _printf_fp_infnan.o(.text)
    .text                                    0x08001590   Section        0  bigflt0.o(.text)
    .text                                    0x08001674   Section        0  exit.o(.text)
    .text                                    0x08001688   Section        8  libspace.o(.text)
    .text                                    0x08001690   Section      124  strcmpv7em.o(.text)
    .text                                    0x0800170c   Section        0  sys_exit.o(.text)
    .text                                    0x08001718   Section        2  use_no_semi.o(.text)
    .text                                    0x0800171a   Section        0  indicate_semi.o(.text)
    [Anonymous Symbol]                       0x0800171c   Section        0  stm32l4xx_it.o(.text.BusFault_Handler)
    [Anonymous Symbol]                       0x0800171e   Section        0  stm32l4xx_it.o(.text.DebugMon_Handler)
    [Anonymous Symbol]                       0x08001720   Section        0  main.o(.text.Error_Handler)
    [Anonymous Symbol]                       0x0800172a   Section        0  stm32l4xx_hal_dma.o(.text.HAL_DMA_Abort)
    [Anonymous Symbol]                       0x0800176e   Section        0  stm32l4xx_hal_dma.o(.text.HAL_DMA_Abort_IT)
    [Anonymous Symbol]                       0x080017c4   Section        0  stm32l4xx_hal_gpio.o(.text.HAL_GPIO_Init)
    [Anonymous Symbol]                       0x080019a2   Section        0  stm32l4xx_hal_gpio.o(.text.HAL_GPIO_WritePin)
    [Anonymous Symbol]                       0x080019ae   Section        0  stm32l4xx_hal.o(.text.HAL_GetTick)
    [Anonymous Symbol]                       0x080019ba   Section        0  stm32l4xx_hal.o(.text.HAL_IncTick)
    [Anonymous Symbol]                       0x080019d4   Section        0  stm32l4xx_hal.o(.text.HAL_Init)
    [Anonymous Symbol]                       0x080019f0   Section        0  stm32l4xx_hal.o(.text.HAL_InitTick)
    [Anonymous Symbol]                       0x08001a44   Section        0  stm32l4xx_hal_msp.o(.text.HAL_MspInit)
    [Anonymous Symbol]                       0x08001a76   Section        0  stm32l4xx_hal_cortex.o(.text.HAL_NVIC_EnableIRQ)
    [Anonymous Symbol]                       0x08001a94   Section        0  stm32l4xx_hal_cortex.o(.text.HAL_NVIC_SetPriority)
    [Anonymous Symbol]                       0x08001aea   Section        0  stm32l4xx_hal_cortex.o(.text.HAL_NVIC_SetPriorityGrouping)
    [Anonymous Symbol]                       0x08001b0c   Section        0  stm32l4xx_hal_pwr_ex.o(.text.HAL_PWREx_ControlVoltageScaling)
    [Anonymous Symbol]                       0x08001b80   Section        0  stm32l4xx_hal_pwr_ex.o(.text.HAL_PWREx_GetVoltageRange)
    [Anonymous Symbol]                       0x08001b90   Section        0  stm32l4xx_hal_rcc_ex.o(.text.HAL_RCCEx_PeriphCLKConfig)
    [Anonymous Symbol]                       0x08001e00   Section        0  stm32l4xx_hal_rcc.o(.text.HAL_RCC_ClockConfig)
    [Anonymous Symbol]                       0x08001f5c   Section        0  stm32l4xx_hal_rcc.o(.text.HAL_RCC_GetPCLK1Freq)
    [Anonymous Symbol]                       0x08001f86   Section        0  stm32l4xx_hal_rcc.o(.text.HAL_RCC_GetPCLK2Freq)
    [Anonymous Symbol]                       0x08001fb0   Section        0  stm32l4xx_hal_rcc.o(.text.HAL_RCC_GetSysClockFreq)
    [Anonymous Symbol]                       0x08002068   Section        0  stm32l4xx_hal_rcc.o(.text.HAL_RCC_OscConfig)
    [Anonymous Symbol]                       0x0800265a   Section        0  stm32l4xx_hal_cortex.o(.text.HAL_SYSTICK_Config)
    [Anonymous Symbol]                       0x08002686   Section        0  stm32l4xx_hal_uart.o(.text.HAL_UARTEx_RxEventCallback)
    [Anonymous Symbol]                       0x08002688   Section        0  stm32l4xx_hal_uart_ex.o(.text.HAL_UARTEx_WakeupCallback)
    [Anonymous Symbol]                       0x0800268a   Section        0  stm32l4xx_hal_uart.o(.text.HAL_UART_ErrorCallback)
    [Anonymous Symbol]                       0x0800268c   Section        0  stm32l4xx_hal_uart.o(.text.HAL_UART_IRQHandler)
    [Anonymous Symbol]                       0x08002956   Section        0  stm32l4xx_hal_uart.o(.text.HAL_UART_Init)
    [Anonymous Symbol]                       0x080029b6   Section        0  stm32l4xx_hal_msp.o(.text.HAL_UART_MspInit)
    [Anonymous Symbol]                       0x08002aae   Section        0  stm32l4xx_hal_uart.o(.text.HAL_UART_TxCpltCallback)
    [Anonymous Symbol]                       0x08002ab0   Section        0  stm32l4xx_it.o(.text.HardFault_Handler)
    [Anonymous Symbol]                       0x08002ab2   Section        0  stm32l4xx_it.o(.text.LPUART1_IRQHandler)
    [Anonymous Symbol]                       0x08002ac0   Section        0  stm32l4xx_it.o(.text.MemManage_Handler)
    [Anonymous Symbol]                       0x08002ac4   Section        0  stm32l4xx_it.o(.text.NMI_Handler)
    [Anonymous Symbol]                       0x08002ac6   Section        0  stm32l4xx_it.o(.text.PendSV_Handler)
    RCCEx_PLLSAI1_Config                     0x08002ac9   Thumb Code   298  stm32l4xx_hal_rcc_ex.o(.text.RCCEx_PLLSAI1_Config)
    [Anonymous Symbol]                       0x08002ac8   Section        0  stm32l4xx_hal_rcc_ex.o(.text.RCCEx_PLLSAI1_Config)
    RCC_SetFlashLatencyFromMSIRange          0x08002bf3   Thumb Code   138  stm32l4xx_hal_rcc.o(.text.RCC_SetFlashLatencyFromMSIRange)
    [Anonymous Symbol]                       0x08002bf2   Section        0  stm32l4xx_hal_rcc.o(.text.RCC_SetFlashLatencyFromMSIRange)
    [Anonymous Symbol]                       0x08002c7c   Section        0  stm32l4xx_it.o(.text.SVC_Handler)
    [Anonymous Symbol]                       0x08002c7e   Section        0  stm32l4xx_it.o(.text.SysTick_Handler)
    [Anonymous Symbol]                       0x08002c8c   Section        0  main.o(.text.SystemClock_Config)
    [Anonymous Symbol]                       0x08002d0e   Section        0  system_stm32l4xx.o(.text.SystemInit)
    [Anonymous Symbol]                       0x08002d20   Section        0  stm32l4xx_hal_uart.o(.text.UART_AdvFeatureConfig)
    [Anonymous Symbol]                       0x08002dec   Section        0  stm32l4xx_hal_uart.o(.text.UART_CheckIdleState)
    UART_DMAAbortOnError                     0x08002e55   Thumb Code    16  stm32l4xx_hal_uart.o(.text.UART_DMAAbortOnError)
    [Anonymous Symbol]                       0x08002e54   Section        0  stm32l4xx_hal_uart.o(.text.UART_DMAAbortOnError)
    UART_EndRxTransfer                       0x08002e65   Thumb Code    80  stm32l4xx_hal_uart.o(.text.UART_EndRxTransfer)
    [Anonymous Symbol]                       0x08002e64   Section        0  stm32l4xx_hal_uart.o(.text.UART_EndRxTransfer)
    [Anonymous Symbol]                       0x08002eb4   Section        0  stm32l4xx_hal_uart.o(.text.UART_SetConfig)
    [Anonymous Symbol]                       0x080030b4   Section        0  stm32l4xx_hal_uart.o(.text.UART_WaitOnFlagUntilTimeout)
    [Anonymous Symbol]                       0x0800318c   Section        0  stm32l4xx_it.o(.text.USART1_IRQHandler)
    [Anonymous Symbol]                       0x08003198   Section        0  stm32l4xx_it.o(.text.UsageFault_Handler)
    _KeyEventHandler                         0x0800319d   Thumb Code   156  main.o(.text._KeyEventHandler)
    [Anonymous Symbol]                       0x0800319c   Section        0  main.o(.text._KeyEventHandler)
    _bButtonCallback                         0x08003239   Thumb Code    54  b_mod_button.o(.text._bButtonCallback)
    [Anonymous Symbol]                       0x08003238   Section        0  b_mod_button.o(.text._bButtonCallback)
    _bButtonCore                             0x0800326f   Thumb Code    38  b_mod_button.o(.text._bButtonCore)
    [Anonymous Symbol]                       0x0800326e   Section        0  b_mod_button.o(.text._bButtonCore)
    _bButtonFindInstance                     0x08003295   Thumb Code    56  b_mod_button.o(.text._bButtonFindInstance)
    [Anonymous Symbol]                       0x08003294   Section        0  b_mod_button.o(.text._bButtonFindInstance)
    _bButtonRead                             0x080032cd   Thumb Code    70  b_mod_button.o(.text._bButtonRead)
    [Anonymous Symbol]                       0x080032cc   Section        0  b_mod_button.o(.text._bButtonRead)
    _bCoreMonitor                            0x08003313   Thumb Code     2  b_core_1.o(.text._bCoreMonitor)
    [Anonymous Symbol]                       0x08003312   Section        0  b_core_1.o(.text._bCoreMonitor)
    _bDriverNullInit                         0x08003315   Thumb Code     4  b_device_1.o(.text._bDriverNullInit)
    [Anonymous Symbol]                       0x08003314   Section        0  b_device_1.o(.text._bDriverNullInit)
    _bHalUartDetectIdle                      0x08003319   Thumb Code   144  b_hal_uart.o(.text._bHalUartDetectIdle)
    [Anonymous Symbol]                       0x08003318   Section        0  b_hal_uart.o(.text._bHalUartDetectIdle)
    _bKeyRead                                0x080033a9   Thumb Code    38  b_drv_key.o(.text._bKeyRead)
    [Anonymous Symbol]                       0x080033a8   Section        0  b_drv_key.o(.text._bKeyRead)
    _bTaskCore                               0x080033d1   Thumb Code    60  b_task.o(.text._bTaskCore)
    [Anonymous Symbol]                       0x080033d0   Section        0  b_task.o(.text._bTaskCore)
    _bTimerCore                              0x0800340d   Thumb Code    84  b_timer.o(.text._bTimerCore)
    [Anonymous Symbol]                       0x0800340c   Section        0  b_timer.o(.text._bTimerCore)
    [Anonymous Symbol]                       0x08003460   Section        0  b_mod_button.o(.text.bButtonAddKey)
    [Anonymous Symbol]                       0x080034d0   Section        0  b_core_1.o(.text.bClose)
    [Anonymous Symbol]                       0x08003504   Section        0  b_device_1.o(.text.bDeviceClose)
    [Anonymous Symbol]                       0x08003580   Section        0  b_device_1.o(.text.bDeviceInit)
    [Anonymous Symbol]                       0x08003730   Section        0  b_device_1.o(.text.bDeviceOpen)
    [Anonymous Symbol]                       0x080037a8   Section        0  b_device_1.o(.text.bDeviceRead)
    [Anonymous Symbol]                       0x08003824   Section        0  b_device_1.o(.text.bDeviceReadMessage)
    [Anonymous Symbol]                       0x08003848   Section        0  b_device_1.o(.text.bDeviceWriteMessage)
    [Anonymous Symbol]                       0x0800386c   Section        0  b_core_1.o(.text.bExec)
    [Anonymous Symbol]                       0x0800389a   Section        0  b_hal.o(.text.bHalGetSysTick)
    [Anonymous Symbol]                       0x080038a6   Section        0  b_hal_gpio.o(.text.bHalGpioReadPin)
    [Anonymous Symbol]                       0x080038aa   Section        0  b_hal.o(.text.bHalIncSysTick)
    [Anonymous Symbol]                       0x080038d0   Section        0  b_hal.o(.text.bHalInit)
    [Anonymous Symbol]                       0x08003958   Section        0  b_hal_uart.o(.text.bHalUartSend)
    [Anonymous Symbol]                       0x0800395c   Section        0  b_hal.o(.text.bHalUserInit)
    [Anonymous Symbol]                       0x08003960   Section        0  b_core_1.o(.text.bInit)
    [Anonymous Symbol]                       0x08003b14   Section        0  b_drv_key.o(.text.bKEY_Init)
    [Anonymous Symbol]                       0x08003b54   Section        0  b_util_log.o(.text.bLogOut)
    bLogParamTable                           0x08003c48   Number         0  b_util_log.o(.text.bLogOut)
    bLogPrefix                               0x08003c4c   Number         0  b_util_log.o(.text.bLogOut)
    [Anonymous Symbol]                       0x08003c54   Section        0  b_core_1.o(.text.bLseek)
    [Anonymous Symbol]                       0x08003c78   Section        0  mcu_stm32l41x_gpio.o(.text.bMcuGpioReadPin)
    [Anonymous Symbol]                       0x08003ca0   Section        0  mcu_stm32l41x_uart.o(.text.bMcuUartSend)
    [Anonymous Symbol]                       0x08003d20   Section        0  b_core_1.o(.text.bOpen)
    [Anonymous Symbol]                       0x08003dac   Section        0  b_core_1.o(.text.bRead)
    [Anonymous Symbol]                       0x08003dfe   Section        0  flexible_button.o(.text.flex_button_reg_function)
    [Anonymous Symbol]                       0x08003e28   Section        0  flexible_button.o(.text.flex_button_register)
    [Anonymous Symbol]                       0x08003eb4   Section        0  flexible_button.o(.text.flex_button_scan)
    [Anonymous Symbol]                       0x08004138   Section        0  main.o(.text.main)
    CL$$btod_d2e                             0x08004282   Section       62  btod.o(CL$$btod_d2e)
    CL$$btod_d2e_denorm_low                  0x080042c0   Section       70  btod.o(CL$$btod_d2e_denorm_low)
    CL$$btod_d2e_norm_op1                    0x08004306   Section       96  btod.o(CL$$btod_d2e_norm_op1)
    CL$$btod_div_common                      0x08004366   Section      824  btod.o(CL$$btod_div_common)
    CL$$btod_e2e                             0x0800469e   Section      220  btod.o(CL$$btod_e2e)
    CL$$btod_ediv                            0x0800477a   Section       42  btod.o(CL$$btod_ediv)
    CL$$btod_emul                            0x080047a4   Section       42  btod.o(CL$$btod_emul)
    CL$$btod_mult_common                     0x080047ce   Section      580  btod.o(CL$$btod_mult_common)
    i.__ARM_fpclassify                       0x08004a12   Section        0  fpclassify.o(i.__ARM_fpclassify)
    i._is_digit                              0x08004a42   Section        0  __printf_wp.o(i._is_digit)
    locale$$code                             0x08004a50   Section       44  lc_numeric_c.o(locale$$code)
    locale$$code                             0x08004a7c   Section       44  lc_ctype_c.o(locale$$code)
    $v0                                      0x08004aa8   Number         0  ddiv.o(x$fpl$ddiv)
    x$fpl$ddiv                               0x08004aa8   Section      688  ddiv.o(x$fpl$ddiv)
    ddiv_entry                               0x08004aaf   Thumb Code     0  ddiv.o(x$fpl$ddiv)
    $v0                                      0x08004d58   Number         0  dfixu.o(x$fpl$dfixu)
    x$fpl$dfixu                              0x08004d58   Section       90  dfixu.o(x$fpl$dfixu)
    $v0                                      0x08004db2   Number         0  dflt_clz.o(x$fpl$dfltu)
    x$fpl$dfltu                              0x08004db2   Section       38  dflt_clz.o(x$fpl$dfltu)
    $v0                                      0x08004dd8   Number         0  dmul.o(x$fpl$dmul)
    x$fpl$dmul                               0x08004dd8   Section      340  dmul.o(x$fpl$dmul)
    $v0                                      0x08004f2c   Number         0  dnaninf.o(x$fpl$dnaninf)
    x$fpl$dnaninf                            0x08004f2c   Section      156  dnaninf.o(x$fpl$dnaninf)
    $v0                                      0x08004fc8   Number         0  dretinf.o(x$fpl$dretinf)
    x$fpl$dretinf                            0x08004fc8   Section       12  dretinf.o(x$fpl$dretinf)
    $v0                                      0x08004fd4   Number         0  fpinit.o(x$fpl$fpinit)
    x$fpl$fpinit                             0x08004fd4   Section       26  fpinit.o(x$fpl$fpinit)
    $v0                                      0x08004fee   Number         0  printf1.o(x$fpl$printf1)
    x$fpl$printf1                            0x08004fee   Section        4  printf1.o(x$fpl$printf1)
    $v0                                      0x08004ff2   Number         0  printf2.o(x$fpl$printf2)
    x$fpl$printf2                            0x08004ff2   Section        4  printf2.o(x$fpl$printf2)
    maptable                                 0x08004ff6   Data          17  __printf_flags_ss_wp.o(.constdata)
    .constdata                               0x08004ff6   Section       17  __printf_flags_ss_wp.o(.constdata)
    x$fpl$usenofp                            0x08004ff6   Section        0  usenofp.o(x$fpl$usenofp)
    initial_mbstate                          0x08005008   Data           8  _printf_wctomb.o(.constdata)
    .constdata                               0x08005008   Section        8  _printf_wctomb.o(.constdata)
    uc_hextab                                0x08005010   Data          20  _printf_hex_int_ll_ptr.o(.constdata)
    .constdata                               0x08005010   Section       40  _printf_hex_int_ll_ptr.o(.constdata)
    lc_hextab                                0x08005024   Data          20  _printf_hex_int_ll_ptr.o(.constdata)
    lc_hextab                                0x08005038   Data          19  _printf_fp_hex.o(.constdata)
    .constdata                               0x08005038   Section       38  _printf_fp_hex.o(.constdata)
    uc_hextab                                0x0800504b   Data          19  _printf_fp_hex.o(.constdata)
    tenpwrs_x                                0x08005060   Data          60  bigflt0.o(.constdata)
    .constdata                               0x08005060   Section      148  bigflt0.o(.constdata)
    tenpwrs_i                                0x0800509c   Data          64  bigflt0.o(.constdata)
    bDeviceDescTable                         0x0800513c   Data          12  b_device_1.o(.rodata.bDeviceDescTable)
    [Anonymous Symbol]                       0x0800513c   Section        0  b_device_1.o(.rodata.bDeviceDescTable)
    bDriverNumberTable                       0x08005148   Data           3  b_device_1.o(.rodata.bDriverNumberTable)
    [Anonymous Symbol]                       0x08005148   Section        0  b_device_1.o(.rodata.bDriverNumberTable)
    bHalIf_KEY                               0x0800514b   Data           6  b_drv_key.o(.rodata.bHalIf_KEY)
    [Anonymous Symbol]                       0x0800514b   Section        0  b_drv_key.o(.rodata.bHalIf_KEY)
    .Lswitch.table.UART_SetConfig.3          0x08005154   Data          16  stm32l4xx_hal_uart.o(.rodata.cst16)
    UartTable                                0x08005164   Data          16  mcu_stm32l41x_uart.o(.rodata.cst16)
    .L.str                                   0x08005174   Data          19  main.o(.rodata.str1.1)
    [Anonymous Symbol]                       0x08005174   Section        0  main.o(.rodata.str1.1)
    .L__func__._KeyEventHandler              0x08005187   Data          17  main.o(.rodata.str1.1)
    .L.str.7                                 0x08005198   Data          49  b_core_1.o(.rodata.str1.1)
    [Anonymous Symbol]                       0x08005198   Section        0  b_core_1.o(.rodata.str1.1)
    .L.str.5                                 0x080051c9   Data          49  b_core_1.o(.rodata.str1.1)
    .L.str.2                                 0x080051fa   Data          49  b_core_1.o(.rodata.str1.1)
    .L.str.4                                 0x0800522b   Data          49  b_core_1.o(.rodata.str1.1)
    .L.str.3                                 0x0800525c   Data          49  b_core_1.o(.rodata.str1.1)
    .L.str.6                                 0x0800528d   Data          49  b_core_1.o(.rodata.str1.1)
    .L.str.1                                 0x080052be   Data          49  b_core_1.o(.rodata.str1.1)
    .L.str                                   0x080052ef   Data          34  b_core_1.o(.rodata.str1.1)
    .L__func__.bInit                         0x08005311   Data           6  b_core_1.o(.rodata.str1.1)
    .L.str.3                                 0x08005317   Data          14  b_device_1.o(.rodata.str1.1)
    [Anonymous Symbol]                       0x08005317   Section        0  b_device_1.o(.rodata.str1.1)
    .L.str.6                                 0x08005325   Data           9  b_device_1.o(.rodata.str1.1)
    .L.str.9                                 0x0800532e   Data           7  b_device_1.o(.rodata.str1.1)
    .L.str.10                                0x08005335   Data           7  b_device_1.o(.rodata.str1.1)
    .L.str                                   0x0800533c   Data          36  b_device_1.o(.rodata.str1.1)
    .L.str.8                                 0x08005360   Data           5  b_device_1.o(.rodata.str1.1)
    .L__func__.bDeviceInit                   0x08005365   Data          12  b_device_1.o(.rodata.str1.1)
    __tagsym$$used.0                         0x08005394   Number         0  b_core_1.o(bos_polling)
    __tagsym$$used.0                         0x08005398   Number         0  b_task.o(bos_polling)
    __tagsym$$used.0                         0x0800539c   Number         0  b_timer.o(bos_polling)
    __tagsym$$used.0                         0x080053a0   Number         0  b_mod_button.o(bos_polling)
    __tagsym$$used.0                         0x080053a4   Number         0  b_hal_uart.o(bos_polling)
    __tagsym$$used.1                         0x080053a8   Number         0  b_device_1.o(driver_init)
    __tagsym$$used.0                         0x080053b0   Number         0  b_drv_key.o(driver_init)
    __tagsym$$used.0                         0x080053b8   Number         0  b_device_1.o(driver_init_0)
    locale$$data                             0x080053c0   Section       28  lc_numeric_c.o(locale$$data)
    __lcnum_c_name                           0x080053c4   Data           2  lc_numeric_c.o(locale$$data)
    __lcnum_c_start                          0x080053cc   Data           0  lc_numeric_c.o(locale$$data)
    __lcnum_c_point                          0x080053d8   Data           0  lc_numeric_c.o(locale$$data)
    __lcnum_c_thousands                      0x080053da   Data           0  lc_numeric_c.o(locale$$data)
    __lcnum_c_grouping                       0x080053db   Data           0  lc_numeric_c.o(locale$$data)
    __lcnum_c_end                            0x080053dc   Data           0  lc_numeric_c.o(locale$$data)
    locale$$data                             0x080053dc   Section      272  lc_ctype_c.o(locale$$data)
    __lcctype_c_name                         0x080053e0   Data           2  lc_ctype_c.o(locale$$data)
    __lcctype_c_start                        0x080053e8   Data           0  lc_ctype_c.o(locale$$data)
    __lcctype_c_end                          0x080054ec   Data           0  lc_ctype_c.o(locale$$data)
    bHalUartListHead                         0x20000004   Data           8  b_hal_uart.o(.data.bHalUartListHead)
    [Anonymous Symbol]                       0x20000004   Section        0  b_hal_uart.o(.data.bHalUartListHead)
    bTaskListHead                            0x2000000c   Data           8  b_task.o(.data.bTaskListHead)
    [Anonymous Symbol]                       0x2000000c   Section        0  b_task.o(.data.bTaskListHead)
    bTimerListHead                           0x20000014   Data           8  b_timer.o(.data.bTimerListHead)
    [Anonymous Symbol]                       0x20000014   Section        0  b_timer.o(.data.bTimerListHead)
    bUsDelayParam                            0x2000001c   Data           4  b_hal.o(.data.bUsDelayParam)
    [Anonymous Symbol]                       0x2000001c   Section        0  b_hal.o(.data.bUsDelayParam)
    main.key_bKEYF1                          0x20000020   Data          16  main.o(.data.main.key_bKEYF1)
    [Anonymous Symbol]                       0x20000020   Section        0  main.o(.data.main.key_bKEYF1)
    main.key_bKEYF2                          0x20000030   Data          16  main.o(.data.main.key_bKEYF2)
    [Anonymous Symbol]                       0x20000030   Section        0  main.o(.data.main.key_bKEYF2)
    .bss                                     0x20000048   Section       96  libspace.o(.bss)
    _bButtonCore.tick                        0x200000a8   Data           4  b_mod_button.o(.bss._bButtonCore.tick)
    [Anonymous Symbol]                       0x200000a8   Section        0  b_mod_button.o(.bss._bButtonCore.tick)
    _bCoreCreateFd.init                      0x200000ac   Data           1  b_core_1.o(.bss._bCoreCreateFd.init)
    [Anonymous Symbol]                       0x200000ac   Section        0  b_core_1.o(.bss._bCoreCreateFd.init)
    bButtonInitFlag                          0x200000ad   Data           1  b_mod_button.o(.bss.bButtonInitFlag)
    [Anonymous Symbol]                       0x200000ad   Section        0  b_mod_button.o(.bss.bButtonInitFlag)
    bCoreFdTable                             0x200000b0   Data          36  b_core_1.o(.bss.bCoreFdTable)
    [Anonymous Symbol]                       0x200000b0   Section        0  b_core_1.o(.bss.bCoreFdTable)
    bDriverInterfaceTable                    0x200000d4   Data         204  b_device_1.o(.bss.bDriverInterfaceTable)
    [Anonymous Symbol]                       0x200000d4   Section        0  b_device_1.o(.bss.bDriverInterfaceTable)
    bLogBuff                                 0x200001a0   Data         256  b_util_log.o(.bss.bLogBuff)
    [Anonymous Symbol]                       0x200001a0   Section        0  b_util_log.o(.bss.bLogBuff)
    bSysTick                                 0x200002a0   Data           4  b_hal.o(.bss.bSysTick)
    [Anonymous Symbol]                       0x200002a0   Section        0  b_hal.o(.bss.bSysTick)
    bSysTickOvr                              0x200002a4   Data           4  b_hal.o(.bss.bSysTickOvr)
    [Anonymous Symbol]                       0x200002a4   Section        0  b_hal.o(.bss.bSysTickOvr)
    btn_head                                 0x200002a8   Data           4  flexible_button.o(.bss.btn_head)
    [Anonymous Symbol]                       0x200002a8   Section        0  flexible_button.o(.bss.btn_head)
    button_cnt                               0x200002ac   Data           1  flexible_button.o(.bss.button_cnt)
    [Anonymous Symbol]                       0x200002ac   Section        0  flexible_button.o(.bss.button_cnt)
    flex_button_register.init_flag           0x200002ad   Data           1  flexible_button.o(.bss.flex_button_register.init_flag)
    [Anonymous Symbol]                       0x200002ad   Section        0  flexible_button.o(.bss.flex_button_register.init_flag)
    flex_callback                            0x200002b0   Data           4  flexible_button.o(.bss.flex_callback)
    [Anonymous Symbol]                       0x200002b0   Section        0  flexible_button.o(.bss.flex_callback)
    flex_read_function                       0x200002b4   Data           4  flexible_button.o(.bss.flex_read_function)
    [Anonymous Symbol]                       0x200002b4   Section        0  flexible_button.o(.bss.flex_read_function)
    main.button_bKEYF1                       0x20000400   Data          12  main.o(.bss.main.button_bKEYF1)
    [Anonymous Symbol]                       0x20000400   Section        0  main.o(.bss.main.button_bKEYF1)
    main.button_bKEYF2                       0x2000040c   Data          12  main.o(.bss.main.button_bKEYF2)
    [Anonymous Symbol]                       0x2000040c   Section        0  main.o(.bss.main.button_bKEYF2)
    pButtonHead                              0x20000418   Data           4  b_mod_button.o(.bss.pButtonHead)
    [Anonymous Symbol]                       0x20000418   Section        0  b_mod_button.o(.bss.pButtonHead)
    pCurrentTaskAttr                         0x2000041c   Data           4  b_task.o(.bss.pCurrentTaskAttr)
    [Anonymous Symbol]                       0x2000041c   Section        0  b_task.o(.bss.pCurrentTaskAttr)
    Heap_Mem                                 0x20000428   Data         512  startup_stm32l431xx.o(HEAP)
    HEAP                                     0x20000428   Section      512  startup_stm32l431xx.o(HEAP)
    Stack_Mem                                0x20000628   Data        1024  startup_stm32l431xx.o(STACK)
    STACK                                    0x20000628   Section     1024  startup_stm32l431xx.o(STACK)
    __initial_sp                             0x20000a28   Data           0  startup_stm32l431xx.o(STACK)

    Global Symbols

    Symbol Name                              Value     Ov Type        Size  Object(Section)

    BuildAttributes$$THM_ISAv4$E$P$D$K$B$S$7EM$VFPi3$EXTD16$VFPS$VFMA$PE$A:L22UL41UL21$X:L11$S22US41US21$IEEE1$IW$~IW$USESV6$~STKCKD$USESV7$~SHL$OTIME$ROPI$IEEEJ$EBA8$UX$STANDARDLIB$REQ8$PRES8$EABIv2 0x00000000   Number         0  anon$$obj.o ABSOLUTE
    _printf_flags                            0x00000000   Number         0  printf_stubs.o ABSOLUTE
    _printf_return_value                     0x00000000   Number         0  printf_stubs.o ABSOLUTE
    _printf_sizespec                         0x00000000   Number         0  printf_stubs.o ABSOLUTE
    _printf_widthprec                        0x00000000   Number         0  printf_stubs.o ABSOLUTE
    __ARM_exceptions_init                     - Undefined Weak Reference
    __alloca_initialize                       - Undefined Weak Reference
    __arm_preinit_                            - Undefined Weak Reference
    __cpp_initialize__aeabi_                  - Undefined Weak Reference
    __cxa_finalize                            - Undefined Weak Reference
    __sigvec_lookup                           - Undefined Weak Reference
    _atexit_init                              - Undefined Weak Reference
    _call_atexit_fns                          - Undefined Weak Reference
    _clock_init                               - Undefined Weak Reference
    _fp_trap_init                             - Undefined Weak Reference
    _fp_trap_shutdown                         - Undefined Weak Reference
    _get_lc_collate                           - Undefined Weak Reference
    _get_lc_monetary                          - Undefined Weak Reference
    _get_lc_time                              - Undefined Weak Reference
    _getenv_init                              - Undefined Weak Reference
    _handle_redirection                       - Undefined Weak Reference
    _init_alloc                               - Undefined Weak Reference
    _init_user_alloc                          - Undefined Weak Reference
    _initio                                   - Undefined Weak Reference
    _printf_mbtowc                            - Undefined Weak Reference
    _printf_wc                                - Undefined Weak Reference
    _rand_init                                - Undefined Weak Reference
    _signal_finish                            - Undefined Weak Reference
    _signal_init                              - Undefined Weak Reference
    _terminate_alloc                          - Undefined Weak Reference
    _terminate_user_alloc                     - Undefined Weak Reference
    _terminateio                              - Undefined Weak Reference
    __Vectors_Size                           0x0000018c   Number         0  startup_stm32l431xx.o ABSOLUTE
    __Vectors                                0x08000000   Data           4  startup_stm32l431xx.o(RESET)
    __Vectors_End                            0x0800018c   Data           0  startup_stm32l431xx.o(RESET)
    __main                                   0x0800018d   Thumb Code     8  __main.o(!!!main)
    __scatterload                            0x08000195   Thumb Code     0  __scatter.o(!!!scatter)
    __scatterload_rt2                        0x08000195   Thumb Code    44  __scatter.o(!!!scatter)
    __scatterload_rt2_thumb_only             0x08000195   Thumb Code     0  __scatter.o(!!!scatter)
    __scatterload_null                       0x080001a3   Thumb Code     0  __scatter.o(!!!scatter)
    __scatterload_copy                       0x080001c9   Thumb Code    26  __scatter_copy.o(!!handler_copy)
    __scatterload_zeroinit                   0x080001e5   Thumb Code    28  __scatter_zi.o(!!handler_zi)
    _printf_n                                0x08000201   Thumb Code     0  _printf_n.o(.ARM.Collect$$_printf_percent$$00000001)
    _printf_percent                          0x08000201   Thumb Code     0  _printf_percent.o(.ARM.Collect$$_printf_percent$$00000000)
    _printf_p                                0x08000207   Thumb Code     0  _printf_p.o(.ARM.Collect$$_printf_percent$$00000002)
    _printf_f                                0x0800020d   Thumb Code     0  _printf_f.o(.ARM.Collect$$_printf_percent$$00000003)
    _printf_e                                0x08000213   Thumb Code     0  _printf_e.o(.ARM.Collect$$_printf_percent$$00000004)
    _printf_g                                0x08000219   Thumb Code     0  _printf_g.o(.ARM.Collect$$_printf_percent$$00000005)
    _printf_a                                0x0800021f   Thumb Code     0  _printf_a.o(.ARM.Collect$$_printf_percent$$00000006)
    _printf_ll                               0x08000225   Thumb Code     0  _printf_ll.o(.ARM.Collect$$_printf_percent$$00000007)
    _printf_i                                0x0800022f   Thumb Code     0  _printf_i.o(.ARM.Collect$$_printf_percent$$00000008)
    _printf_d                                0x08000235   Thumb Code     0  _printf_d.o(.ARM.Collect$$_printf_percent$$00000009)
    _printf_u                                0x0800023b   Thumb Code     0  _printf_u.o(.ARM.Collect$$_printf_percent$$0000000A)
    _printf_o                                0x08000241   Thumb Code     0  _printf_o.o(.ARM.Collect$$_printf_percent$$0000000B)
    _printf_x                                0x08000247   Thumb Code     0  _printf_x.o(.ARM.Collect$$_printf_percent$$0000000C)
    _printf_lli                              0x0800024d   Thumb Code     0  _printf_lli.o(.ARM.Collect$$_printf_percent$$0000000D)
    _printf_lld                              0x08000253   Thumb Code     0  _printf_lld.o(.ARM.Collect$$_printf_percent$$0000000E)
    _printf_llu                              0x08000259   Thumb Code     0  _printf_llu.o(.ARM.Collect$$_printf_percent$$0000000F)
    _printf_llo                              0x0800025f   Thumb Code     0  _printf_llo.o(.ARM.Collect$$_printf_percent$$00000010)
    _printf_llx                              0x08000265   Thumb Code     0  _printf_llx.o(.ARM.Collect$$_printf_percent$$00000011)
    _printf_l                                0x0800026b   Thumb Code     0  _printf_l.o(.ARM.Collect$$_printf_percent$$00000012)
    _printf_c                                0x08000275   Thumb Code     0  _printf_c.o(.ARM.Collect$$_printf_percent$$00000013)
    _printf_s                                0x0800027b   Thumb Code     0  _printf_s.o(.ARM.Collect$$_printf_percent$$00000014)
    _printf_lc                               0x08000281   Thumb Code     0  _printf_lc.o(.ARM.Collect$$_printf_percent$$00000015)
    _printf_ls                               0x08000287   Thumb Code     0  _printf_ls.o(.ARM.Collect$$_printf_percent$$00000016)
    _printf_percent_end                      0x0800028d   Thumb Code     0  _printf_percent_end.o(.ARM.Collect$$_printf_percent$$00000017)
    __rt_lib_init                            0x08000291   Thumb Code     0  libinit.o(.ARM.Collect$$libinit$$00000000)
    __rt_lib_init_fp_1                       0x08000293   Thumb Code     0  libinit2.o(.ARM.Collect$$libinit$$00000001)
    __rt_lib_init_heap_1                     0x08000297   Thumb Code     0  libinit2.o(.ARM.Collect$$libinit$$0000000A)
    __rt_lib_init_lc_common                  0x08000297   Thumb Code     0  libinit2.o(.ARM.Collect$$libinit$$0000000F)
    __rt_lib_init_preinit_1                  0x08000297   Thumb Code     0  libinit2.o(.ARM.Collect$$libinit$$00000004)
    __rt_lib_init_rand_1                     0x08000297   Thumb Code     0  libinit2.o(.ARM.Collect$$libinit$$0000000E)
    __rt_lib_init_user_alloc_1               0x08000297   Thumb Code     0  libinit2.o(.ARM.Collect$$libinit$$0000000C)
    __rt_lib_init_lc_collate_1               0x0800029d   Thumb Code     0  libinit2.o(.ARM.Collect$$libinit$$00000011)
    __rt_lib_init_lc_ctype_2                 0x0800029d   Thumb Code     0  libinit2.o(.ARM.Collect$$libinit$$00000012)
    __rt_lib_init_lc_ctype_1                 0x080002a9   Thumb Code     0  libinit2.o(.ARM.Collect$$libinit$$00000013)
    __rt_lib_init_lc_monetary_1              0x080002a9   Thumb Code     0  libinit2.o(.ARM.Collect$$libinit$$00000015)
    __rt_lib_init_lc_numeric_2               0x080002a9   Thumb Code     0  libinit2.o(.ARM.Collect$$libinit$$00000016)
    __rt_lib_init_alloca_1                   0x080002b3   Thumb Code     0  libinit2.o(.ARM.Collect$$libinit$$0000002E)
    __rt_lib_init_argv_1                     0x080002b3   Thumb Code     0  libinit2.o(.ARM.Collect$$libinit$$0000002C)
    __rt_lib_init_atexit_1                   0x080002b3   Thumb Code     0  libinit2.o(.ARM.Collect$$libinit$$0000001B)
    __rt_lib_init_clock_1                    0x080002b3   Thumb Code     0  libinit2.o(.ARM.Collect$$libinit$$00000021)
    __rt_lib_init_cpp_1                      0x080002b3   Thumb Code     0  libinit2.o(.ARM.Collect$$libinit$$00000032)
    __rt_lib_init_exceptions_1               0x080002b3   Thumb Code     0  libinit2.o(.ARM.Collect$$libinit$$00000030)
    __rt_lib_init_fp_trap_1                  0x080002b3   Thumb Code     0  libinit2.o(.ARM.Collect$$libinit$$0000001F)
    __rt_lib_init_getenv_1                   0x080002b3   Thumb Code     0  libinit2.o(.ARM.Collect$$libinit$$00000023)
    __rt_lib_init_lc_numeric_1               0x080002b3   Thumb Code     0  libinit2.o(.ARM.Collect$$libinit$$00000017)
    __rt_lib_init_lc_time_1                  0x080002b3   Thumb Code     0  libinit2.o(.ARM.Collect$$libinit$$00000019)
    __rt_lib_init_return                     0x080002b3   Thumb Code     0  libinit2.o(.ARM.Collect$$libinit$$00000033)
    __rt_lib_init_signal_1                   0x080002b3   Thumb Code     0  libinit2.o(.ARM.Collect$$libinit$$0000001D)
    __rt_lib_init_stdio_1                    0x080002b3   Thumb Code     0  libinit2.o(.ARM.Collect$$libinit$$00000025)
    __rt_lib_shutdown                        0x080002b5   Thumb Code     0  libshutdown.o(.ARM.Collect$$libshutdown$$00000000)
    __rt_lib_shutdown_cpp_1                  0x080002b7   Thumb Code     0  libshutdown2.o(.ARM.Collect$$libshutdown$$00000002)
    __rt_lib_shutdown_fp_trap_1              0x080002b7   Thumb Code     0  libshutdown2.o(.ARM.Collect$$libshutdown$$00000007)
    __rt_lib_shutdown_heap_1                 0x080002b7   Thumb Code     0  libshutdown2.o(.ARM.Collect$$libshutdown$$0000000F)
    __rt_lib_shutdown_return                 0x080002b7   Thumb Code     0  libshutdown2.o(.ARM.Collect$$libshutdown$$00000010)
    __rt_lib_shutdown_signal_1               0x080002b7   Thumb Code     0  libshutdown2.o(.ARM.Collect$$libshutdown$$0000000A)
    __rt_lib_shutdown_stdio_1                0x080002b7   Thumb Code     0  libshutdown2.o(.ARM.Collect$$libshutdown$$00000004)
    __rt_lib_shutdown_user_alloc_1           0x080002b7   Thumb Code     0  libshutdown2.o(.ARM.Collect$$libshutdown$$0000000C)
    __rt_entry                               0x080002b9   Thumb Code     0  __rtentry.o(.ARM.Collect$$rtentry$$00000000)
    __rt_entry_presh_1                       0x080002b9   Thumb Code     0  __rtentry2.o(.ARM.Collect$$rtentry$$00000002)
    __rt_entry_sh                            0x080002b9   Thumb Code     0  __rtentry4.o(.ARM.Collect$$rtentry$$00000004)
    __rt_entry_li                            0x080002bf   Thumb Code     0  __rtentry2.o(.ARM.Collect$$rtentry$$0000000A)
    __rt_entry_postsh_1                      0x080002bf   Thumb Code     0  __rtentry2.o(.ARM.Collect$$rtentry$$00000009)
    __rt_entry_main                          0x080002c3   Thumb Code     0  __rtentry2.o(.ARM.Collect$$rtentry$$0000000D)
    __rt_entry_postli_1                      0x080002c3   Thumb Code     0  __rtentry2.o(.ARM.Collect$$rtentry$$0000000C)
    __rt_exit                                0x080002cb   Thumb Code     0  rtexit.o(.ARM.Collect$$rtexit$$00000000)
    __rt_exit_ls                             0x080002cd   Thumb Code     0  rtexit2.o(.ARM.Collect$$rtexit$$00000003)
    __rt_exit_prels_1                        0x080002cd   Thumb Code     0  rtexit2.o(.ARM.Collect$$rtexit$$00000002)
    __rt_exit_exit                           0x080002d1   Thumb Code     0  rtexit2.o(.ARM.Collect$$rtexit$$00000004)
    Reset_Handler                            0x080002d9   Thumb Code     8  startup_stm32l431xx.o(.text)
    ADC1_IRQHandler                          0x080002f3   Thumb Code     0  startup_stm32l431xx.o(.text)
    CAN1_RX0_IRQHandler                      0x080002f3   Thumb Code     0  startup_stm32l431xx.o(.text)
    CAN1_RX1_IRQHandler                      0x080002f3   Thumb Code     0  startup_stm32l431xx.o(.text)
    CAN1_SCE_IRQHandler                      0x080002f3   Thumb Code     0  startup_stm32l431xx.o(.text)
    CAN1_TX_IRQHandler                       0x080002f3   Thumb Code     0  startup_stm32l431xx.o(.text)
    COMP_IRQHandler                          0x080002f3   Thumb Code     0  startup_stm32l431xx.o(.text)
    CRS_IRQHandler                           0x080002f3   Thumb Code     0  startup_stm32l431xx.o(.text)
    DMA1_Channel1_IRQHandler                 0x080002f3   Thumb Code     0  startup_stm32l431xx.o(.text)
    DMA1_Channel2_IRQHandler                 0x080002f3   Thumb Code     0  startup_stm32l431xx.o(.text)
    DMA1_Channel3_IRQHandler                 0x080002f3   Thumb Code     0  startup_stm32l431xx.o(.text)
    DMA1_Channel4_IRQHandler                 0x080002f3   Thumb Code     0  startup_stm32l431xx.o(.text)
    DMA1_Channel5_IRQHandler                 0x080002f3   Thumb Code     0  startup_stm32l431xx.o(.text)
    DMA1_Channel6_IRQHandler                 0x080002f3   Thumb Code     0  startup_stm32l431xx.o(.text)
    DMA1_Channel7_IRQHandler                 0x080002f3   Thumb Code     0  startup_stm32l431xx.o(.text)
    DMA2_Channel1_IRQHandler                 0x080002f3   Thumb Code     0  startup_stm32l431xx.o(.text)
    DMA2_Channel2_IRQHandler                 0x080002f3   Thumb Code     0  startup_stm32l431xx.o(.text)
    DMA2_Channel3_IRQHandler                 0x080002f3   Thumb Code     0  startup_stm32l431xx.o(.text)
    DMA2_Channel4_IRQHandler                 0x080002f3   Thumb Code     0  startup_stm32l431xx.o(.text)
    DMA2_Channel5_IRQHandler                 0x080002f3   Thumb Code     0  startup_stm32l431xx.o(.text)
    DMA2_Channel6_IRQHandler                 0x080002f3   Thumb Code     0  startup_stm32l431xx.o(.text)
    DMA2_Channel7_IRQHandler                 0x080002f3   Thumb Code     0  startup_stm32l431xx.o(.text)
    EXTI0_IRQHandler                         0x080002f3   Thumb Code     0  startup_stm32l431xx.o(.text)
    EXTI15_10_IRQHandler                     0x080002f3   Thumb Code     0  startup_stm32l431xx.o(.text)
    EXTI1_IRQHandler                         0x080002f3   Thumb Code     0  startup_stm32l431xx.o(.text)
    EXTI2_IRQHandler                         0x080002f3   Thumb Code     0  startup_stm32l431xx.o(.text)
    EXTI3_IRQHandler                         0x080002f3   Thumb Code     0  startup_stm32l431xx.o(.text)
    EXTI4_IRQHandler                         0x080002f3   Thumb Code     0  startup_stm32l431xx.o(.text)
    EXTI9_5_IRQHandler                       0x080002f3   Thumb Code     0  startup_stm32l431xx.o(.text)
    FLASH_IRQHandler                         0x080002f3   Thumb Code     0  startup_stm32l431xx.o(.text)
    FPU_IRQHandler                           0x080002f3   Thumb Code     0  startup_stm32l431xx.o(.text)
    I2C1_ER_IRQHandler                       0x080002f3   Thumb Code     0  startup_stm32l431xx.o(.text)
    I2C1_EV_IRQHandler                       0x080002f3   Thumb Code     0  startup_stm32l431xx.o(.text)
    I2C2_ER_IRQHandler                       0x080002f3   Thumb Code     0  startup_stm32l431xx.o(.text)
    I2C2_EV_IRQHandler                       0x080002f3   Thumb Code     0  startup_stm32l431xx.o(.text)
    I2C3_ER_IRQHandler                       0x080002f3   Thumb Code     0  startup_stm32l431xx.o(.text)
    I2C3_EV_IRQHandler                       0x080002f3   Thumb Code     0  startup_stm32l431xx.o(.text)
    LPTIM1_IRQHandler                        0x080002f3   Thumb Code     0  startup_stm32l431xx.o(.text)
    LPTIM2_IRQHandler                        0x080002f3   Thumb Code     0  startup_stm32l431xx.o(.text)
    PVD_PVM_IRQHandler                       0x080002f3   Thumb Code     0  startup_stm32l431xx.o(.text)
    QUADSPI_IRQHandler                       0x080002f3   Thumb Code     0  startup_stm32l431xx.o(.text)
    RCC_IRQHandler                           0x080002f3   Thumb Code     0  startup_stm32l431xx.o(.text)
    RNG_IRQHandler                           0x080002f3   Thumb Code     0  startup_stm32l431xx.o(.text)
    RTC_Alarm_IRQHandler                     0x080002f3   Thumb Code     0  startup_stm32l431xx.o(.text)
    RTC_WKUP_IRQHandler                      0x080002f3   Thumb Code     0  startup_stm32l431xx.o(.text)
    SAI1_IRQHandler                          0x080002f3   Thumb Code     0  startup_stm32l431xx.o(.text)
    SDMMC1_IRQHandler                        0x080002f3   Thumb Code     0  startup_stm32l431xx.o(.text)
    SPI1_IRQHandler                          0x080002f3   Thumb Code     0  startup_stm32l431xx.o(.text)
    SPI2_IRQHandler                          0x080002f3   Thumb Code     0  startup_stm32l431xx.o(.text)
    SPI3_IRQHandler                          0x080002f3   Thumb Code     0  startup_stm32l431xx.o(.text)
    SWPMI1_IRQHandler                        0x080002f3   Thumb Code     0  startup_stm32l431xx.o(.text)
    TAMP_STAMP_IRQHandler                    0x080002f3   Thumb Code     0  startup_stm32l431xx.o(.text)
    TIM1_BRK_TIM15_IRQHandler                0x080002f3   Thumb Code     0  startup_stm32l431xx.o(.text)
    TIM1_CC_IRQHandler                       0x080002f3   Thumb Code     0  startup_stm32l431xx.o(.text)
    TIM1_TRG_COM_IRQHandler                  0x080002f3   Thumb Code     0  startup_stm32l431xx.o(.text)
    TIM1_UP_TIM16_IRQHandler                 0x080002f3   Thumb Code     0  startup_stm32l431xx.o(.text)
    TIM2_IRQHandler                          0x080002f3   Thumb Code     0  startup_stm32l431xx.o(.text)
    TIM6_DAC_IRQHandler                      0x080002f3   Thumb Code     0  startup_stm32l431xx.o(.text)
    TIM7_IRQHandler                          0x080002f3   Thumb Code     0  startup_stm32l431xx.o(.text)
    TSC_IRQHandler                           0x080002f3   Thumb Code     0  startup_stm32l431xx.o(.text)
    USART2_IRQHandler                        0x080002f3   Thumb Code     0  startup_stm32l431xx.o(.text)
    USART3_IRQHandler                        0x080002f3   Thumb Code     0  startup_stm32l431xx.o(.text)
    WWDG_IRQHandler                          0x080002f3   Thumb Code     0  startup_stm32l431xx.o(.text)
    __user_initial_stackheap                 0x080002f5   Thumb Code     0  startup_stm32l431xx.o(.text)
    __aeabi_uldivmod                         0x08000319   Thumb Code     0  lludivv7m.o(.text)
    _ll_udiv                                 0x08000319   Thumb Code   240  lludivv7m.o(.text)
    vsnprintf                                0x08000409   Thumb Code    48  vsnprintf.o(.text)
    __2sprintf                               0x0800043d   Thumb Code    38  __2sprintf.o(.text)
    _printf_int_dec                          0x08000469   Thumb Code   104  _printf_dec.o(.text)
    __printf                                 0x080004e1   Thumb Code   388  __printf_flags_ss_wp.o(.text)
    strlen                                   0x0800066f   Thumb Code    62  strlen.o(.text)
    __aeabi_memcpy                           0x080006ad   Thumb Code     0  rt_memcpy_v6.o(.text)
    __rt_memcpy                              0x080006ad   Thumb Code   138  rt_memcpy_v6.o(.text)
    _memcpy_lastbytes                        0x08000713   Thumb Code     0  rt_memcpy_v6.o(.text)
    __aeabi_memclr                           0x08000737   Thumb Code     0  rt_memclr.o(.text)
    __rt_memclr                              0x08000737   Thumb Code    68  rt_memclr.o(.text)
    _memset                                  0x0800073b   Thumb Code     0  rt_memclr.o(.text)
    __aeabi_memclr4                          0x0800077b   Thumb Code     0  rt_memclr_w.o(.text)
    __aeabi_memclr8                          0x0800077b   Thumb Code     0  rt_memclr_w.o(.text)
    __rt_memclr_w                            0x0800077b   Thumb Code    78  rt_memclr_w.o(.text)
    _memset_w                                0x0800077f   Thumb Code     0  rt_memclr_w.o(.text)
    __use_two_region_memory                  0x080007c9   Thumb Code     2  heapauxi.o(.text)
    __rt_heap_escrow$2region                 0x080007cb   Thumb Code     2  heapauxi.o(.text)
    __rt_heap_expand$2region                 0x080007cd   Thumb Code     2  heapauxi.o(.text)
    _printf_pre_padding                      0x080007cf   Thumb Code    44  _printf_pad.o(.text)
    _printf_post_padding                     0x080007fb   Thumb Code    34  _printf_pad.o(.text)
    _printf_truncate_signed                  0x0800081d   Thumb Code    18  _printf_truncate.o(.text)
    _printf_truncate_unsigned                0x0800082f   Thumb Code    18  _printf_truncate.o(.text)
    _printf_str                              0x08000841   Thumb Code    82  _printf_str.o(.text)
    _printf_int_common                       0x08000893   Thumb Code   178  _printf_intcommon.o(.text)
    _printf_charcount                        0x08000945   Thumb Code    40  _printf_charcount.o(.text)
    _printf_char_common                      0x08000977   Thumb Code    32  _printf_char_common.o(.text)
    _sputc                                   0x0800099d   Thumb Code    10  _sputc.o(.text)
    _snputc                                  0x080009a7   Thumb Code    16  _snputc.o(.text)
    _printf_wctomb                           0x080009b9   Thumb Code   182  _printf_wctomb.o(.text)
    _printf_longlong_dec                     0x08000a7d   Thumb Code   108  _printf_longlong_dec.o(.text)
    _printf_longlong_oct                     0x08000af9   Thumb Code    68  _printf_oct_int_ll.o(.text)
    _printf_int_oct                          0x08000b3d   Thumb Code    24  _printf_oct_int_ll.o(.text)
    _printf_ll_oct                           0x08000b55   Thumb Code    12  _printf_oct_int_ll.o(.text)
    _printf_longlong_hex                     0x08000b69   Thumb Code    86  _printf_hex_int_ll_ptr.o(.text)
    _printf_int_hex                          0x08000bbf   Thumb Code    28  _printf_hex_int_ll_ptr.o(.text)
    _printf_ll_hex                           0x08000bdb   Thumb Code    12  _printf_hex_int_ll_ptr.o(.text)
    _printf_hex_ptr                          0x08000be7   Thumb Code    18  _printf_hex_int_ll_ptr.o(.text)
    __aeabi_memcpy4                          0x08000bfd   Thumb Code     0  rt_memcpy_w.o(.text)
    __aeabi_memcpy8                          0x08000bfd   Thumb Code     0  rt_memcpy_w.o(.text)
    __rt_memcpy_w                            0x08000bfd   Thumb Code   100  rt_memcpy_w.o(.text)
    _memcpy_lastbytes_aligned                0x08000c45   Thumb Code     0  rt_memcpy_w.o(.text)
    _ll_udiv10                               0x08000c61   Thumb Code   138  lludiv10.o(.text)
    _printf_fp_dec_real                      0x08000e9b   Thumb Code   620  _printf_fp_dec.o(.text)
    _printf_fp_hex_real                      0x0800110d   Thumb Code   756  _printf_fp_hex.o(.text)
    _printf_cs_common                        0x0800140f   Thumb Code    20  _printf_char.o(.text)
    _printf_char                             0x08001423   Thumb Code    16  _printf_char.o(.text)
    _printf_string                           0x08001433   Thumb Code     8  _printf_char.o(.text)
    _printf_lcs_common                       0x0800143b   Thumb Code    20  _printf_wchar.o(.text)
    _printf_wchar                            0x0800144f   Thumb Code    16  _printf_wchar.o(.text)
    _printf_wstring                          0x0800145f   Thumb Code     8  _printf_wchar.o(.text)
    _c16rtomb                                0x08001467   Thumb Code    72  _c16rtomb.o(.text)
    _wcrtomb                                 0x08001467   Thumb Code     0  _c16rtomb.o(.text)
    __user_setup_stackheap                   0x080014af   Thumb Code    74  sys_stackheap_outer.o(.text)
    __rt_ctype_table                         0x080014f9   Thumb Code    16  rt_ctype_table.o(.text)
    __rt_locale                              0x08001509   Thumb Code     8  rt_locale_intlibspace.o(.text)
    _printf_fp_infnan                        0x08001511   Thumb Code   112  _printf_fp_infnan.o(.text)
    _btod_etento                             0x08001591   Thumb Code   224  bigflt0.o(.text)
    exit                                     0x08001675   Thumb Code    18  exit.o(.text)
    __user_libspace                          0x08001689   Thumb Code     8  libspace.o(.text)
    __user_perproc_libspace                  0x08001689   Thumb Code     0  libspace.o(.text)
    __user_perthread_libspace                0x08001689   Thumb Code     0  libspace.o(.text)
    strcmp                                   0x08001691   Thumb Code   124  strcmpv7em.o(.text)
    _sys_exit                                0x0800170d   Thumb Code     8  sys_exit.o(.text)
    __I$use$semihosting                      0x08001719   Thumb Code     0  use_no_semi.o(.text)
    __use_no_semihosting_swi                 0x08001719   Thumb Code     2  use_no_semi.o(.text)
    __semihosting_library_function           0x0800171b   Thumb Code     0  indicate_semi.o(.text)
    BusFault_Handler                         0x0800171d   Thumb Code     2  stm32l4xx_it.o(.text.BusFault_Handler)
    DebugMon_Handler                         0x0800171f   Thumb Code     2  stm32l4xx_it.o(.text.DebugMon_Handler)
    Error_Handler                            0x08001721   Thumb Code    10  main.o(.text.Error_Handler)
    HAL_DMA_Abort                            0x0800172b   Thumb Code    68  stm32l4xx_hal_dma.o(.text.HAL_DMA_Abort)
    HAL_DMA_Abort_IT                         0x0800176f   Thumb Code    86  stm32l4xx_hal_dma.o(.text.HAL_DMA_Abort_IT)
    HAL_GPIO_Init                            0x080017c5   Thumb Code   472  stm32l4xx_hal_gpio.o(.text.HAL_GPIO_Init)
    HAL_GPIO_WritePin                        0x080019a3   Thumb Code    12  stm32l4xx_hal_gpio.o(.text.HAL_GPIO_WritePin)
    HAL_GetTick                              0x080019af   Thumb Code    12  stm32l4xx_hal.o(.text.HAL_GetTick)
    HAL_IncTick                              0x080019bb   Thumb Code    26  stm32l4xx_hal.o(.text.HAL_IncTick)
    HAL_Init                                 0x080019d5   Thumb Code    28  stm32l4xx_hal.o(.text.HAL_Init)
    HAL_InitTick                             0x080019f1   Thumb Code    84  stm32l4xx_hal.o(.text.HAL_InitTick)
    HAL_MspInit                              0x08001a45   Thumb Code    50  stm32l4xx_hal_msp.o(.text.HAL_MspInit)
    HAL_NVIC_EnableIRQ                       0x08001a77   Thumb Code    30  stm32l4xx_hal_cortex.o(.text.HAL_NVIC_EnableIRQ)
    HAL_NVIC_SetPriority                     0x08001a95   Thumb Code    86  stm32l4xx_hal_cortex.o(.text.HAL_NVIC_SetPriority)
    HAL_NVIC_SetPriorityGrouping             0x08001aeb   Thumb Code    32  stm32l4xx_hal_cortex.o(.text.HAL_NVIC_SetPriorityGrouping)
    HAL_PWREx_ControlVoltageScaling          0x08001b0d   Thumb Code   116  stm32l4xx_hal_pwr_ex.o(.text.HAL_PWREx_ControlVoltageScaling)
    HAL_PWREx_GetVoltageRange                0x08001b81   Thumb Code    16  stm32l4xx_hal_pwr_ex.o(.text.HAL_PWREx_GetVoltageRange)
    HAL_RCCEx_PeriphCLKConfig                0x08001b91   Thumb Code   622  stm32l4xx_hal_rcc_ex.o(.text.HAL_RCCEx_PeriphCLKConfig)
    HAL_RCC_ClockConfig                      0x08001e01   Thumb Code   348  stm32l4xx_hal_rcc.o(.text.HAL_RCC_ClockConfig)
    HAL_RCC_GetPCLK1Freq                     0x08001f5d   Thumb Code    42  stm32l4xx_hal_rcc.o(.text.HAL_RCC_GetPCLK1Freq)
    HAL_RCC_GetPCLK2Freq                     0x08001f87   Thumb Code    42  stm32l4xx_hal_rcc.o(.text.HAL_RCC_GetPCLK2Freq)
    HAL_RCC_GetSysClockFreq                  0x08001fb1   Thumb Code   182  stm32l4xx_hal_rcc.o(.text.HAL_RCC_GetSysClockFreq)
    HAL_RCC_OscConfig                        0x08002069   Thumb Code  1522  stm32l4xx_hal_rcc.o(.text.HAL_RCC_OscConfig)
    HAL_SYSTICK_Config                       0x0800265b   Thumb Code    44  stm32l4xx_hal_cortex.o(.text.HAL_SYSTICK_Config)
    HAL_UARTEx_RxEventCallback               0x08002687   Thumb Code     2  stm32l4xx_hal_uart.o(.text.HAL_UARTEx_RxEventCallback)
    HAL_UARTEx_WakeupCallback                0x08002689   Thumb Code     2  stm32l4xx_hal_uart_ex.o(.text.HAL_UARTEx_WakeupCallback)
    HAL_UART_ErrorCallback                   0x0800268b   Thumb Code     2  stm32l4xx_hal_uart.o(.text.HAL_UART_ErrorCallback)
    HAL_UART_IRQHandler                      0x0800268d   Thumb Code   714  stm32l4xx_hal_uart.o(.text.HAL_UART_IRQHandler)
    HAL_UART_Init                            0x08002957   Thumb Code    96  stm32l4xx_hal_uart.o(.text.HAL_UART_Init)
    HAL_UART_MspInit                         0x080029b7   Thumb Code   248  stm32l4xx_hal_msp.o(.text.HAL_UART_MspInit)
    HAL_UART_TxCpltCallback                  0x08002aaf   Thumb Code     2  stm32l4xx_hal_uart.o(.text.HAL_UART_TxCpltCallback)
    HardFault_Handler                        0x08002ab1   Thumb Code     2  stm32l4xx_it.o(.text.HardFault_Handler)
    LPUART1_IRQHandler                       0x08002ab3   Thumb Code    12  stm32l4xx_it.o(.text.LPUART1_IRQHandler)
    MemManage_Handler                        0x08002ac1   Thumb Code     2  stm32l4xx_it.o(.text.MemManage_Handler)
    NMI_Handler                              0x08002ac5   Thumb Code     2  stm32l4xx_it.o(.text.NMI_Handler)
    PendSV_Handler                           0x08002ac7   Thumb Code     2  stm32l4xx_it.o(.text.PendSV_Handler)
    SVC_Handler                              0x08002c7d   Thumb Code     2  stm32l4xx_it.o(.text.SVC_Handler)
    SysTick_Handler                          0x08002c7f   Thumb Code    14  stm32l4xx_it.o(.text.SysTick_Handler)
    SystemClock_Config                       0x08002c8d   Thumb Code   130  main.o(.text.SystemClock_Config)
    SystemInit                               0x08002d0f   Thumb Code    18  system_stm32l4xx.o(.text.SystemInit)
    UART_AdvFeatureConfig                    0x08002d21   Thumb Code   204  stm32l4xx_hal_uart.o(.text.UART_AdvFeatureConfig)
    UART_CheckIdleState                      0x08002ded   Thumb Code   104  stm32l4xx_hal_uart.o(.text.UART_CheckIdleState)
    UART_SetConfig                           0x08002eb5   Thumb Code   512  stm32l4xx_hal_uart.o(.text.UART_SetConfig)
    UART_WaitOnFlagUntilTimeout              0x080030b5   Thumb Code   216  stm32l4xx_hal_uart.o(.text.UART_WaitOnFlagUntilTimeout)
    USART1_IRQHandler                        0x0800318d   Thumb Code    12  stm32l4xx_it.o(.text.USART1_IRQHandler)
    UsageFault_Handler                       0x08003199   Thumb Code     2  stm32l4xx_it.o(.text.UsageFault_Handler)
    bButtonAddKey                            0x08003461   Thumb Code   112  b_mod_button.o(.text.bButtonAddKey)
    bClose                                   0x080034d1   Thumb Code    52  b_core_1.o(.text.bClose)
    bDeviceClose                             0x08003505   Thumb Code   124  b_device_1.o(.text.bDeviceClose)
    bDeviceInit                              0x08003581   Thumb Code   424  b_device_1.o(.text.bDeviceInit)
    bDeviceOpen                              0x08003731   Thumb Code   120  b_device_1.o(.text.bDeviceOpen)
    bDeviceRead                              0x080037a9   Thumb Code   124  b_device_1.o(.text.bDeviceRead)
    bDeviceReadMessage                       0x08003825   Thumb Code    36  b_device_1.o(.text.bDeviceReadMessage)
    bDeviceWriteMessage                      0x08003849   Thumb Code    36  b_device_1.o(.text.bDeviceWriteMessage)
    bExec                                    0x0800386d   Thumb Code    46  b_core_1.o(.text.bExec)
    bHalGetSysTick                           0x0800389b   Thumb Code    12  b_hal.o(.text.bHalGetSysTick)
    bHalGpioReadPin                          0x080038a7   Thumb Code     4  b_hal_gpio.o(.text.bHalGpioReadPin)
    bHalIncSysTick                           0x080038ab   Thumb Code    36  b_hal.o(.text.bHalIncSysTick)
    bHalInit                                 0x080038d1   Thumb Code   136  b_hal.o(.text.bHalInit)
    bHalUartSend                             0x08003959   Thumb Code     4  b_hal_uart.o(.text.bHalUartSend)
    bHalUserInit                             0x0800395d   Thumb Code     2  b_hal.o(.text.bHalUserInit)
    bInit                                    0x08003961   Thumb Code   436  b_core_1.o(.text.bInit)
    bKEY_Init                                0x08003b15   Thumb Code    62  b_drv_key.o(.text.bKEY_Init)
    bLogOut                                  0x08003b55   Thumb Code   256  b_util_log.o(.text.bLogOut)
    bLseek                                   0x08003c55   Thumb Code    36  b_core_1.o(.text.bLseek)
    bMcuGpioReadPin                          0x08003c79   Thumb Code    38  mcu_stm32l41x_gpio.o(.text.bMcuGpioReadPin)
    bMcuUartSend                             0x08003ca1   Thumb Code   128  mcu_stm32l41x_uart.o(.text.bMcuUartSend)
    bOpen                                    0x08003d21   Thumb Code   140  b_core_1.o(.text.bOpen)
    bRead                                    0x08003dad   Thumb Code    82  b_core_1.o(.text.bRead)
    flex_button_reg_function                 0x08003dff   Thumb Code    40  flexible_button.o(.text.flex_button_reg_function)
    flex_button_register                     0x08003e29   Thumb Code   140  flexible_button.o(.text.flex_button_register)
    flex_button_scan                         0x08003eb5   Thumb Code   636  flexible_button.o(.text.flex_button_scan)
    main                                     0x08004139   Thumb Code   330  main.o(.text.main)
    _btod_d2e                                0x08004283   Thumb Code    62  btod.o(CL$$btod_d2e)
    _d2e_denorm_low                          0x080042c1   Thumb Code    70  btod.o(CL$$btod_d2e_denorm_low)
    _d2e_norm_op1                            0x08004307   Thumb Code    96  btod.o(CL$$btod_d2e_norm_op1)
    __btod_div_common                        0x08004367   Thumb Code   696  btod.o(CL$$btod_div_common)
    _e2e                                     0x0800469f   Thumb Code   220  btod.o(CL$$btod_e2e)
    _btod_ediv                               0x0800477b   Thumb Code    42  btod.o(CL$$btod_ediv)
    _btod_emul                               0x080047a5   Thumb Code    42  btod.o(CL$$btod_emul)
    __btod_mult_common                       0x080047cf   Thumb Code   580  btod.o(CL$$btod_mult_common)
    __ARM_fpclassify                         0x08004a13   Thumb Code    48  fpclassify.o(i.__ARM_fpclassify)
    _is_digit                                0x08004a43   Thumb Code    14  __printf_wp.o(i._is_digit)
    _get_lc_numeric                          0x08004a51   Thumb Code    44  lc_numeric_c.o(locale$$code)
    _get_lc_ctype                            0x08004a7d   Thumb Code    44  lc_ctype_c.o(locale$$code)
    __aeabi_ddiv                             0x08004aa9   Thumb Code     0  ddiv.o(x$fpl$ddiv)
    _ddiv                                    0x08004aa9   Thumb Code   552  ddiv.o(x$fpl$ddiv)
    __aeabi_d2uiz                            0x08004d59   Thumb Code     0  dfixu.o(x$fpl$dfixu)
    _dfixu                                   0x08004d59   Thumb Code    90  dfixu.o(x$fpl$dfixu)
    __aeabi_ui2d                             0x08004db3   Thumb Code     0  dflt_clz.o(x$fpl$dfltu)
    _dfltu                                   0x08004db3   Thumb Code    38  dflt_clz.o(x$fpl$dfltu)
    __aeabi_dmul                             0x08004dd9   Thumb Code     0  dmul.o(x$fpl$dmul)
    _dmul                                    0x08004dd9   Thumb Code   332  dmul.o(x$fpl$dmul)
    __fpl_dnaninf                            0x08004f2d   Thumb Code   156  dnaninf.o(x$fpl$dnaninf)
    __fpl_dretinf                            0x08004fc9   Thumb Code    12  dretinf.o(x$fpl$dretinf)
    _fp_init                                 0x08004fd5   Thumb Code    26  fpinit.o(x$fpl$fpinit)
    __fplib_config_fpu_vfp                   0x08004fed   Thumb Code     0  fpinit.o(x$fpl$fpinit)
    __fplib_config_pureend_doubles           0x08004fed   Thumb Code     0  fpinit.o(x$fpl$fpinit)
    _printf_fp_dec                           0x08004fef   Thumb Code     4  printf1.o(x$fpl$printf1)
    _printf_fp_hex                           0x08004ff3   Thumb Code     4  printf2.o(x$fpl$printf2)
    __I$use$fp                               0x08004ff6   Number         0  usenofp.o(x$fpl$usenofp)
    AHBPrescTable                            0x080050f4   Data          16  system_stm32l4xx.o(.rodata.AHBPrescTable)
    APBPrescTable                            0x08005104   Data           8  system_stm32l4xx.o(.rodata.APBPrescTable)
    MSIRangeTable                            0x0800510c   Data          48  system_stm32l4xx.o(.rodata.MSIRangeTable)
    Region$$Table$$Base                      0x08005374   Number         0  anon$$obj.o(Region$$Table)
    Region$$Table$$Limit                     0x08005394   Number         0  anon$$obj.o(Region$$Table)
    bos_polling$$Base                        0x08005394   Number         0  b_core_1.o(bos_polling)
    polling_bCoreMonitor                     0x08005394   Data           4  b_core_1.o(bos_polling)
    polling_bTaskCore                        0x08005398   Data           4  b_task.o(bos_polling)
    polling_bTimerCore                       0x0800539c   Data           4  b_timer.o(bos_polling)
    polling_bButtonCore                      0x080053a0   Data           4  b_mod_button.o(bos_polling)
    polling_bHalUartDetectIdle               0x080053a4   Data           4  b_hal_uart.o(bos_polling)
    bos_polling$$Limit                       0x080053a8   Number         0  b_hal_uart.o(bos_polling)
    driver_init$$Base                        0x080053a8   Number         0  b_device_1.o(driver_init)
    init_bDriverNullInit                     0x080053a8   Data           8  b_device_1.o(driver_init)
    initbKEY_Init                            0x080053b0   Data           8  b_drv_key.o(driver_init)
    driver_init$$Limit                       0x080053b8   Number         0  b_drv_key.o(driver_init)
    driver_init_0$$Base                      0x080053b8   Number         0  b_device_1.o(driver_init_0)
    init0_bDriverNullInit                    0x080053b8   Data           8  b_device_1.o(driver_init_0)
    driver_init_0$$Limit                     0x080053c0   Number         0  b_device_1.o(driver_init_0)
    __ctype                                  0x080053e9   Data           0  lc_ctype_c.o(locale$$data)
    SystemCoreClock                          0x20000000   Data           4  system_stm32l4xx.o(.data.SystemCoreClock)
    uwTickFreq                               0x20000040   Data           1  stm32l4xx_hal.o(.data.uwTickFreq)
    uwTickPrio                               0x20000044   Data           4  stm32l4xx_hal.o(.data.uwTickPrio)
    __libspace_start                         0x20000048   Data          96  libspace.o(.bss)
    __temporary_stack_top$libspace           0x200000a8   Data           0  libspace.o(.bss)
    g_btn_status_reg                         0x200002b8   Data          32  flexible_button.o(.bss.g_btn_status_reg)
    g_logic_level                            0x200002d8   Data          32  flexible_button.o(.bss.g_logic_level)
    hlpuart1                                 0x200002f8   Data         132  main.o(.bss.hlpuart1)
    huart1                                   0x2000037c   Data         132  main.o(.bss.huart1)
    uwTick                                   0x20000420   Data           4  stm32l4xx_hal.o(.bss.uwTick)



==============================================================================

Memory Map of the image

  Image Entry point : 0x0800018d

  Load Region LR_IROM1 (Base: 0x08000000, Size: 0x00005538, Max: 0x00040000, ABSOLUTE)

    Execution Region ER_IROM1 (Exec base: 0x08000000, Load base: 0x08000000, Size: 0x000054ec, Max: 0x00040000, ABSOLUTE)

    Exec Addr    Load Addr    Size         Type   Attr      Idx    E Section Name        Object

    0x08000000   0x08000000   0x0000018c   Data   RO            3    RESET               startup_stm32l431xx.o
    0x0800018c   0x0800018c   0x00000008   Code   RO         2045  * !!!main             c_w.l(__main.o)
    0x08000194   0x08000194   0x00000034   Code   RO         2388    !!!scatter          c_w.l(__scatter.o)
    0x080001c8   0x080001c8   0x0000001a   Code   RO         2390    !!handler_copy      c_w.l(__scatter_copy.o)
    0x080001e2   0x080001e2   0x00000002   PAD
    0x080001e4   0x080001e4   0x0000001c   Code   RO         2392    !!handler_zi        c_w.l(__scatter_zi.o)
    0x08000200   0x08000200   0x00000000   Code   RO         2034    .ARM.Collect$$_printf_percent$$00000000  c_w.l(_printf_percent.o)
    0x08000200   0x08000200   0x00000006   Code   RO         2118    .ARM.Collect$$_printf_percent$$00000001  c_w.l(_printf_n.o)
    0x08000206   0x08000206   0x00000006   Code   RO         2120    .ARM.Collect$$_printf_percent$$00000002  c_w.l(_printf_p.o)
    0x0800020c   0x0800020c   0x00000006   Code   RO         2124    .ARM.Collect$$_printf_percent$$00000003  c_w.l(_printf_f.o)
    0x08000212   0x08000212   0x00000006   Code   RO         2125    .ARM.Collect$$_printf_percent$$00000004  c_w.l(_printf_e.o)
    0x08000218   0x08000218   0x00000006   Code   RO         2126    .ARM.Collect$$_printf_percent$$00000005  c_w.l(_printf_g.o)
    0x0800021e   0x0800021e   0x00000006   Code   RO         2127    .ARM.Collect$$_printf_percent$$00000006  c_w.l(_printf_a.o)
    0x08000224   0x08000224   0x0000000a   Code   RO         2132    .ARM.Collect$$_printf_percent$$00000007  c_w.l(_printf_ll.o)
    0x0800022e   0x0800022e   0x00000006   Code   RO         2122    .ARM.Collect$$_printf_percent$$00000008  c_w.l(_printf_i.o)
    0x08000234   0x08000234   0x00000006   Code   RO         2033    .ARM.Collect$$_printf_percent$$00000009  c_w.l(_printf_d.o)
    0x0800023a   0x0800023a   0x00000006   Code   RO         2123    .ARM.Collect$$_printf_percent$$0000000A  c_w.l(_printf_u.o)
    0x08000240   0x08000240   0x00000006   Code   RO         2121    .ARM.Collect$$_printf_percent$$0000000B  c_w.l(_printf_o.o)
    0x08000246   0x08000246   0x00000006   Code   RO         2119    .ARM.Collect$$_printf_percent$$0000000C  c_w.l(_printf_x.o)
    0x0800024c   0x0800024c   0x00000006   Code   RO         2129    .ARM.Collect$$_printf_percent$$0000000D  c_w.l(_printf_lli.o)
    0x08000252   0x08000252   0x00000006   Code   RO         2130    .ARM.Collect$$_printf_percent$$0000000E  c_w.l(_printf_lld.o)
    0x08000258   0x08000258   0x00000006   Code   RO         2131    .ARM.Collect$$_printf_percent$$0000000F  c_w.l(_printf_llu.o)
    0x0800025e   0x0800025e   0x00000006   Code   RO         2136    .ARM.Collect$$_printf_percent$$00000010  c_w.l(_printf_llo.o)
    0x08000264   0x08000264   0x00000006   Code   RO         2137    .ARM.Collect$$_printf_percent$$00000011  c_w.l(_printf_llx.o)
    0x0800026a   0x0800026a   0x0000000a   Code   RO         2133    .ARM.Collect$$_printf_percent$$00000012  c_w.l(_printf_l.o)
    0x08000274   0x08000274   0x00000006   Code   RO         2116    .ARM.Collect$$_printf_percent$$00000013  c_w.l(_printf_c.o)
    0x0800027a   0x0800027a   0x00000006   Code   RO         2117    .ARM.Collect$$_printf_percent$$00000014  c_w.l(_printf_s.o)
    0x08000280   0x08000280   0x00000006   Code   RO         2134    .ARM.Collect$$_printf_percent$$00000015  c_w.l(_printf_lc.o)
    0x08000286   0x08000286   0x00000006   Code   RO         2135    .ARM.Collect$$_printf_percent$$00000016  c_w.l(_printf_ls.o)
    0x0800028c   0x0800028c   0x00000004   Code   RO         2128    .ARM.Collect$$_printf_percent$$00000017  c_w.l(_printf_percent_end.o)
    0x08000290   0x08000290   0x00000002   Code   RO         2239    .ARM.Collect$$libinit$$00000000  c_w.l(libinit.o)
    0x08000292   0x08000292   0x00000004   Code   RO         2262    .ARM.Collect$$libinit$$00000001  c_w.l(libinit2.o)
    0x08000296   0x08000296   0x00000000   Code   RO         2265    .ARM.Collect$$libinit$$00000004  c_w.l(libinit2.o)
    0x08000296   0x08000296   0x00000000   Code   RO         2268    .ARM.Collect$$libinit$$0000000A  c_w.l(libinit2.o)
    0x08000296   0x08000296   0x00000000   Code   RO         2270    .ARM.Collect$$libinit$$0000000C  c_w.l(libinit2.o)
    0x08000296   0x08000296   0x00000000   Code   RO         2272    .ARM.Collect$$libinit$$0000000E  c_w.l(libinit2.o)
    0x08000296   0x08000296   0x00000006   Code   RO         2273    .ARM.Collect$$libinit$$0000000F  c_w.l(libinit2.o)
    0x0800029c   0x0800029c   0x00000000   Code   RO         2275    .ARM.Collect$$libinit$$00000011  c_w.l(libinit2.o)
    0x0800029c   0x0800029c   0x0000000c   Code   RO         2276    .ARM.Collect$$libinit$$00000012  c_w.l(libinit2.o)
    0x080002a8   0x080002a8   0x00000000   Code   RO         2277    .ARM.Collect$$libinit$$00000013  c_w.l(libinit2.o)
    0x080002a8   0x080002a8   0x00000000   Code   RO         2279    .ARM.Collect$$libinit$$00000015  c_w.l(libinit2.o)
    0x080002a8   0x080002a8   0x0000000a   Code   RO         2280    .ARM.Collect$$libinit$$00000016  c_w.l(libinit2.o)
    0x080002b2   0x080002b2   0x00000000   Code   RO         2281    .ARM.Collect$$libinit$$00000017  c_w.l(libinit2.o)
    0x080002b2   0x080002b2   0x00000000   Code   RO         2283    .ARM.Collect$$libinit$$00000019  c_w.l(libinit2.o)
    0x080002b2   0x080002b2   0x00000000   Code   RO         2285    .ARM.Collect$$libinit$$0000001B  c_w.l(libinit2.o)
    0x080002b2   0x080002b2   0x00000000   Code   RO         2287    .ARM.Collect$$libinit$$0000001D  c_w.l(libinit2.o)
    0x080002b2   0x080002b2   0x00000000   Code   RO         2289    .ARM.Collect$$libinit$$0000001F  c_w.l(libinit2.o)
    0x080002b2   0x080002b2   0x00000000   Code   RO         2291    .ARM.Collect$$libinit$$00000021  c_w.l(libinit2.o)
    0x080002b2   0x080002b2   0x00000000   Code   RO         2293    .ARM.Collect$$libinit$$00000023  c_w.l(libinit2.o)
    0x080002b2   0x080002b2   0x00000000   Code   RO         2295    .ARM.Collect$$libinit$$00000025  c_w.l(libinit2.o)
    0x080002b2   0x080002b2   0x00000000   Code   RO         2299    .ARM.Collect$$libinit$$0000002C  c_w.l(libinit2.o)
    0x080002b2   0x080002b2   0x00000000   Code   RO         2301    .ARM.Collect$$libinit$$0000002E  c_w.l(libinit2.o)
    0x080002b2   0x080002b2   0x00000000   Code   RO         2303    .ARM.Collect$$libinit$$00000030  c_w.l(libinit2.o)
    0x080002b2   0x080002b2   0x00000000   Code   RO         2305    .ARM.Collect$$libinit$$00000032  c_w.l(libinit2.o)
    0x080002b2   0x080002b2   0x00000002   Code   RO         2306    .ARM.Collect$$libinit$$00000033  c_w.l(libinit2.o)
    0x080002b4   0x080002b4   0x00000002   Code   RO         2343    .ARM.Collect$$libshutdown$$00000000  c_w.l(libshutdown.o)
    0x080002b6   0x080002b6   0x00000000   Code   RO         2371    .ARM.Collect$$libshutdown$$00000002  c_w.l(libshutdown2.o)
    0x080002b6   0x080002b6   0x00000000   Code   RO         2373    .ARM.Collect$$libshutdown$$00000004  c_w.l(libshutdown2.o)
    0x080002b6   0x080002b6   0x00000000   Code   RO         2376    .ARM.Collect$$libshutdown$$00000007  c_w.l(libshutdown2.o)
    0x080002b6   0x080002b6   0x00000000   Code   RO         2379    .ARM.Collect$$libshutdown$$0000000A  c_w.l(libshutdown2.o)
    0x080002b6   0x080002b6   0x00000000   Code   RO         2381    .ARM.Collect$$libshutdown$$0000000C  c_w.l(libshutdown2.o)
    0x080002b6   0x080002b6   0x00000000   Code   RO         2384    .ARM.Collect$$libshutdown$$0000000F  c_w.l(libshutdown2.o)
    0x080002b6   0x080002b6   0x00000002   Code   RO         2385    .ARM.Collect$$libshutdown$$00000010  c_w.l(libshutdown2.o)
    0x080002b8   0x080002b8   0x00000000   Code   RO         2063    .ARM.Collect$$rtentry$$00000000  c_w.l(__rtentry.o)
    0x080002b8   0x080002b8   0x00000000   Code   RO         2154    .ARM.Collect$$rtentry$$00000002  c_w.l(__rtentry2.o)
    0x080002b8   0x080002b8   0x00000006   Code   RO         2166    .ARM.Collect$$rtentry$$00000004  c_w.l(__rtentry4.o)
    0x080002be   0x080002be   0x00000000   Code   RO         2156    .ARM.Collect$$rtentry$$00000009  c_w.l(__rtentry2.o)
    0x080002be   0x080002be   0x00000004   Code   RO         2157    .ARM.Collect$$rtentry$$0000000A  c_w.l(__rtentry2.o)
    0x080002c2   0x080002c2   0x00000000   Code   RO         2159    .ARM.Collect$$rtentry$$0000000C  c_w.l(__rtentry2.o)
    0x080002c2   0x080002c2   0x00000008   Code   RO         2160    .ARM.Collect$$rtentry$$0000000D  c_w.l(__rtentry2.o)
    0x080002ca   0x080002ca   0x00000002   Code   RO         2247    .ARM.Collect$$rtexit$$00000000  c_w.l(rtexit.o)
    0x080002cc   0x080002cc   0x00000000   Code   RO         2312    .ARM.Collect$$rtexit$$00000002  c_w.l(rtexit2.o)
    0x080002cc   0x080002cc   0x00000004   Code   RO         2313    .ARM.Collect$$rtexit$$00000003  c_w.l(rtexit2.o)
    0x080002d0   0x080002d0   0x00000006   Code   RO         2314    .ARM.Collect$$rtexit$$00000004  c_w.l(rtexit2.o)
    0x080002d6   0x080002d6   0x00000002   PAD
    0x080002d8   0x080002d8   0x00000040   Code   RO            4    .text               startup_stm32l431xx.o
    0x08000318   0x08000318   0x000000f0   Code   RO         1999    .text               c_w.l(lludivv7m.o)
    0x08000408   0x08000408   0x00000034   Code   RO         2003    .text               c_w.l(vsnprintf.o)
    0x0800043c   0x0800043c   0x0000002c   Code   RO         2005    .text               c_w.l(__2sprintf.o)
    0x08000468   0x08000468   0x00000078   Code   RO         2011    .text               c_w.l(_printf_dec.o)
    0x080004e0   0x080004e0   0x0000018e   Code   RO         2030    .text               c_w.l(__printf_flags_ss_wp.o)
    0x0800066e   0x0800066e   0x0000003e   Code   RO         2035    .text               c_w.l(strlen.o)
    0x080006ac   0x080006ac   0x0000008a   Code   RO         2037    .text               c_w.l(rt_memcpy_v6.o)
    0x08000736   0x08000736   0x00000044   Code   RO         2039    .text               c_w.l(rt_memclr.o)
    0x0800077a   0x0800077a   0x0000004e   Code   RO         2041    .text               c_w.l(rt_memclr_w.o)
    0x080007c8   0x080007c8   0x00000006   Code   RO         2043    .text               c_w.l(heapauxi.o)
    0x080007ce   0x080007ce   0x0000004e   Code   RO         2068    .text               c_w.l(_printf_pad.o)
    0x0800081c   0x0800081c   0x00000024   Code   RO         2070    .text               c_w.l(_printf_truncate.o)
    0x08000840   0x08000840   0x00000052   Code   RO         2072    .text               c_w.l(_printf_str.o)
    0x08000892   0x08000892   0x000000b2   Code   RO         2074    .text               c_w.l(_printf_intcommon.o)
    0x08000944   0x08000944   0x00000028   Code   RO         2076    .text               c_w.l(_printf_charcount.o)
    0x0800096c   0x0800096c   0x00000030   Code   RO         2078    .text               c_w.l(_printf_char_common.o)
    0x0800099c   0x0800099c   0x0000000a   Code   RO         2080    .text               c_w.l(_sputc.o)
    0x080009a6   0x080009a6   0x00000010   Code   RO         2082    .text               c_w.l(_snputc.o)
    0x080009b6   0x080009b6   0x00000002   PAD
    0x080009b8   0x080009b8   0x000000c2   Code   RO         2084    .text               c_w.l(_printf_wctomb.o)
    0x08000a7a   0x08000a7a   0x00000002   PAD
    0x08000a7c   0x08000a7c   0x0000007c   Code   RO         2087    .text               c_w.l(_printf_longlong_dec.o)
    0x08000af8   0x08000af8   0x00000070   Code   RO         2093    .text               c_w.l(_printf_oct_int_ll.o)
    0x08000b68   0x08000b68   0x00000094   Code   RO         2113    .text               c_w.l(_printf_hex_int_ll_ptr.o)
    0x08000bfc   0x08000bfc   0x00000064   Code   RO         2138    .text               c_w.l(rt_memcpy_w.o)
    0x08000c60   0x08000c60   0x0000008a   Code   RO         2170    .text               c_w.l(lludiv10.o)
    0x08000cea   0x08000cea   0x00000422   Code   RO         2172    .text               c_w.l(_printf_fp_dec.o)
    0x0800110c   0x0800110c   0x00000302   Code   RO         2176    .text               c_w.l(_printf_fp_hex.o)
    0x0800140e   0x0800140e   0x0000002c   Code   RO         2181    .text               c_w.l(_printf_char.o)
    0x0800143a   0x0800143a   0x0000002c   Code   RO         2183    .text               c_w.l(_printf_wchar.o)
    0x08001466   0x08001466   0x00000048   Code   RO         2185    .text               c_w.l(_c16rtomb.o)
    0x080014ae   0x080014ae   0x0000004a   Code   RO         2187    .text               c_w.l(sys_stackheap_outer.o)
    0x080014f8   0x080014f8   0x00000010   Code   RO         2189    .text               c_w.l(rt_ctype_table.o)
    0x08001508   0x08001508   0x00000008   Code   RO         2194    .text               c_w.l(rt_locale_intlibspace.o)
    0x08001510   0x08001510   0x00000080   Code   RO         2196    .text               c_w.l(_printf_fp_infnan.o)
    0x08001590   0x08001590   0x000000e4   Code   RO         2198    .text               c_w.l(bigflt0.o)
    0x08001674   0x08001674   0x00000012   Code   RO         2228    .text               c_w.l(exit.o)
    0x08001686   0x08001686   0x00000002   PAD
    0x08001688   0x08001688   0x00000008   Code   RO         2244    .text               c_w.l(libspace.o)
    0x08001690   0x08001690   0x0000007c   Code   RO         2260    .text               c_w.l(strcmpv7em.o)
    0x0800170c   0x0800170c   0x0000000c   Code   RO         2307    .text               c_w.l(sys_exit.o)
    0x08001718   0x08001718   0x00000002   Code   RO         2332    .text               c_w.l(use_no_semi.o)
    0x0800171a   0x0800171a   0x00000000   Code   RO         2334    .text               c_w.l(indicate_semi.o)
    0x0800171a   0x0800171a   0x00000002   PAD
    0x0800171c   0x0800171c   0x00000002   Code   RO           44    .text.BusFault_Handler  stm32l4xx_it.o
    0x0800171e   0x0800171e   0x00000002   Code   RO           50    .text.DebugMon_Handler  stm32l4xx_it.o
    0x08001720   0x08001720   0x0000000a   Code   RO           17    .text.Error_Handler  main.o
    0x0800172a   0x0800172a   0x00000044   Code   RO         1172    .text.HAL_DMA_Abort  stm32l4xx_hal_dma.o
    0x0800176e   0x0800176e   0x00000056   Code   RO         1174    .text.HAL_DMA_Abort_IT  stm32l4xx_hal_dma.o
    0x080017c4   0x080017c4   0x000001de   Code   RO          286    .text.HAL_GPIO_Init  stm32l4xx_hal_gpio.o
    0x080019a2   0x080019a2   0x0000000c   Code   RO          292    .text.HAL_GPIO_WritePin  stm32l4xx_hal_gpio.o
    0x080019ae   0x080019ae   0x0000000c   Code   RO          105    .text.HAL_GetTick   stm32l4xx_hal.o
    0x080019ba   0x080019ba   0x0000001a   Code   RO          103    .text.HAL_IncTick   stm32l4xx_hal.o
    0x080019d4   0x080019d4   0x0000001c   Code   RO           93    .text.HAL_Init      stm32l4xx_hal.o
    0x080019f0   0x080019f0   0x00000054   Code   RO           95    .text.HAL_InitTick  stm32l4xx_hal.o
    0x08001a44   0x08001a44   0x00000032   Code   RO           67    .text.HAL_MspInit   stm32l4xx_hal_msp.o
    0x08001a76   0x08001a76   0x0000001e   Code   RO          180    .text.HAL_NVIC_EnableIRQ  stm32l4xx_hal_cortex.o
    0x08001a94   0x08001a94   0x00000056   Code   RO          178    .text.HAL_NVIC_SetPriority  stm32l4xx_hal_cortex.o
    0x08001aea   0x08001aea   0x00000020   Code   RO          176    .text.HAL_NVIC_SetPriorityGrouping  stm32l4xx_hal_cortex.o
    0x08001b0a   0x08001b0a   0x00000002   PAD
    0x08001b0c   0x08001b0c   0x00000074   Code   RO         1100    .text.HAL_PWREx_ControlVoltageScaling  stm32l4xx_hal_pwr_ex.o
    0x08001b80   0x08001b80   0x00000010   Code   RO         1098    .text.HAL_PWREx_GetVoltageRange  stm32l4xx_hal_pwr_ex.o
    0x08001b90   0x08001b90   0x0000026e   Code   RO          620    .text.HAL_RCCEx_PeriphCLKConfig  stm32l4xx_hal_rcc_ex.o
    0x08001dfe   0x08001dfe   0x00000002   PAD
    0x08001e00   0x08001e00   0x0000015c   Code   RO          590    .text.HAL_RCC_ClockConfig  stm32l4xx_hal_rcc.o
    0x08001f5c   0x08001f5c   0x0000002a   Code   RO          596    .text.HAL_RCC_GetPCLK1Freq  stm32l4xx_hal_rcc.o
    0x08001f86   0x08001f86   0x0000002a   Code   RO          598    .text.HAL_RCC_GetPCLK2Freq  stm32l4xx_hal_rcc.o
    0x08001fb0   0x08001fb0   0x000000b6   Code   RO          588    .text.HAL_RCC_GetSysClockFreq  stm32l4xx_hal_rcc.o
    0x08002066   0x08002066   0x00000002   PAD
    0x08002068   0x08002068   0x000005f2   Code   RO          584    .text.HAL_RCC_OscConfig  stm32l4xx_hal_rcc.o
    0x0800265a   0x0800265a   0x0000002c   Code   RO          188    .text.HAL_SYSTICK_Config  stm32l4xx_hal_cortex.o
    0x08002686   0x08002686   0x00000002   Code   RO          976    .text.HAL_UARTEx_RxEventCallback  stm32l4xx_hal_uart.o
    0x08002688   0x08002688   0x00000002   Code   RO         1027    .text.HAL_UARTEx_WakeupCallback  stm32l4xx_hal_uart_ex.o
    0x0800268a   0x0800268a   0x00000002   Code   RO          974    .text.HAL_UART_ErrorCallback  stm32l4xx_hal_uart.o
    0x0800268c   0x0800268c   0x000002ca   Code   RO          970    .text.HAL_UART_IRQHandler  stm32l4xx_hal_uart.o
    0x08002956   0x08002956   0x00000060   Code   RO          888    .text.HAL_UART_Init  stm32l4xx_hal_uart.o
    0x080029b6   0x080029b6   0x000000f8   Code   RO           69    .text.HAL_UART_MspInit  stm32l4xx_hal_msp.o
    0x08002aae   0x08002aae   0x00000002   Code   RO          978    .text.HAL_UART_TxCpltCallback  stm32l4xx_hal_uart.o
    0x08002ab0   0x08002ab0   0x00000002   Code   RO           40    .text.HardFault_Handler  stm32l4xx_it.o
    0x08002ab2   0x08002ab2   0x0000000c   Code   RO           58    .text.LPUART1_IRQHandler  stm32l4xx_it.o
    0x08002abe   0x08002abe   0x00000002   PAD
    0x08002ac0   0x08002ac0   0x00000002   Code   RO           42    .text.MemManage_Handler  stm32l4xx_it.o
    0x08002ac2   0x08002ac2   0x00000002   PAD
    0x08002ac4   0x08002ac4   0x00000002   Code   RO           38    .text.NMI_Handler   stm32l4xx_it.o
    0x08002ac6   0x08002ac6   0x00000002   Code   RO           52    .text.PendSV_Handler  stm32l4xx_it.o
    0x08002ac8   0x08002ac8   0x0000012a   Code   RO          622    .text.RCCEx_PLLSAI1_Config  stm32l4xx_hal_rcc_ex.o
    0x08002bf2   0x08002bf2   0x0000008a   Code   RO          586    .text.RCC_SetFlashLatencyFromMSIRange  stm32l4xx_hal_rcc.o
    0x08002c7c   0x08002c7c   0x00000002   Code   RO           48    .text.SVC_Handler   stm32l4xx_it.o
    0x08002c7e   0x08002c7e   0x0000000e   Code   RO           54    .text.SysTick_Handler  stm32l4xx_it.o
    0x08002c8c   0x08002c8c   0x00000082   Code   RO           13    .text.SystemClock_Config  main.o
    0x08002d0e   0x08002d0e   0x00000012   Code   RO         1297    .text.SystemInit    system_stm32l4xx.o
    0x08002d20   0x08002d20   0x000000cc   Code   RO          894    .text.UART_AdvFeatureConfig  stm32l4xx_hal_uart.o
    0x08002dec   0x08002dec   0x00000068   Code   RO          896    .text.UART_CheckIdleState  stm32l4xx_hal_uart.o
    0x08002e54   0x08002e54   0x00000010   Code   RO          972    .text.UART_DMAAbortOnError  stm32l4xx_hal_uart.o
    0x08002e64   0x08002e64   0x00000050   Code   RO          942    .text.UART_EndRxTransfer  stm32l4xx_hal_uart.o
    0x08002eb4   0x08002eb4   0x00000200   Code   RO          892    .text.UART_SetConfig  stm32l4xx_hal_uart.o
    0x080030b4   0x080030b4   0x000000d8   Code   RO          910    .text.UART_WaitOnFlagUntilTimeout  stm32l4xx_hal_uart.o
    0x0800318c   0x0800318c   0x0000000c   Code   RO           56    .text.USART1_IRQHandler  stm32l4xx_it.o
    0x08003198   0x08003198   0x00000002   Code   RO           46    .text.UsageFault_Handler  stm32l4xx_it.o
    0x0800319a   0x0800319a   0x00000002   PAD
    0x0800319c   0x0800319c   0x0000009c   Code   RO           15    .text._KeyEventHandler  main.o
    0x08003238   0x08003238   0x00000036   Code   RO         1507    .text._bButtonCallback  b_mod_button.o
    0x0800326e   0x0800326e   0x00000026   Code   RO         1513    .text._bButtonCore  b_mod_button.o
    0x08003294   0x08003294   0x00000038   Code   RO         1515    .text._bButtonFindInstance  b_mod_button.o
    0x080032cc   0x080032cc   0x00000046   Code   RO         1509    .text._bButtonRead  b_mod_button.o
    0x08003312   0x08003312   0x00000002   Code   RO         1313    .text._bCoreMonitor  b_core_1.o
    0x08003314   0x08003314   0x00000004   Code   RO         1355    .text._bDriverNullInit  b_device_1.o
    0x08003318   0x08003318   0x00000090   Code   RO         1860    .text._bHalUartDetectIdle  b_hal_uart.o
    0x080033a8   0x080033a8   0x00000026   Code   RO         1492    .text._bKeyRead     b_drv_key.o
    0x080033ce   0x080033ce   0x00000002   PAD
    0x080033d0   0x080033d0   0x0000003c   Code   RO         1455    .text._bTaskCore    b_task.o
    0x0800340c   0x0800340c   0x00000054   Code   RO         1478    .text._bTimerCore   b_timer.o
    0x08003460   0x08003460   0x00000070   Code   RO         1505    .text.bButtonAddKey  b_mod_button.o
    0x080034d0   0x080034d0   0x00000034   Code   RO         1325    .text.bClose        b_core_1.o
    0x08003504   0x08003504   0x0000007c   Code   RO         1367    .text.bDeviceClose  b_device_1.o
    0x08003580   0x08003580   0x000001ae   Code   RO         1357    .text.bDeviceInit   b_device_1.o
    0x0800372e   0x0800372e   0x00000002   PAD
    0x08003730   0x08003730   0x00000078   Code   RO         1361    .text.bDeviceOpen   b_device_1.o
    0x080037a8   0x080037a8   0x0000007c   Code   RO         1363    .text.bDeviceRead   b_device_1.o
    0x08003824   0x08003824   0x00000024   Code   RO         1375    .text.bDeviceReadMessage  b_device_1.o
    0x08003848   0x08003848   0x00000024   Code   RO         1377    .text.bDeviceWriteMessage  b_device_1.o
    0x0800386c   0x0800386c   0x0000002e   Code   RO         1333    .text.bExec         b_core_1.o
    0x0800389a   0x0800389a   0x0000000c   Code   RO         1641    .text.bHalGetSysTick  b_hal.o
    0x080038a6   0x080038a6   0x00000004   Code   RO         1716    .text.bHalGpioReadPin  b_hal_gpio.o
    0x080038aa   0x080038aa   0x00000024   Code   RO         1639    .text.bHalIncSysTick  b_hal.o
    0x080038ce   0x080038ce   0x00000002   PAD
    0x080038d0   0x080038d0   0x00000088   Code   RO         1637    .text.bHalInit      b_hal.o
    0x08003958   0x08003958   0x00000004   Code   RO         1852    .text.bHalUartSend  b_hal_uart.o
    0x0800395c   0x0800395c   0x00000002   Code   RO         1635    .text.bHalUserInit  b_hal.o
    0x0800395e   0x0800395e   0x00000002   PAD
    0x08003960   0x08003960   0x000001b4   Code   RO         1329    .text.bInit         b_core_1.o
    0x08003b14   0x08003b14   0x0000003e   Code   RO         1490    .text.bKEY_Init     b_drv_key.o
    0x08003b52   0x08003b52   0x00000002   PAD
    0x08003b54   0x08003b54   0x00000100   Code   RO         1570    .text.bLogOut       b_util_log.o
    0x08003c54   0x08003c54   0x00000024   Code   RO         1321    .text.bLseek        b_core_1.o
    0x08003c78   0x08003c78   0x00000026   Code   RO         1901    .text.bMcuGpioReadPin  mcu_stm32l41x_gpio.o
    0x08003c9e   0x08003c9e   0x00000002   PAD
    0x08003ca0   0x08003ca0   0x00000080   Code   RO         1985    .text.bMcuUartSend  mcu_stm32l41x_uart.o
    0x08003d20   0x08003d20   0x0000008c   Code   RO         1315    .text.bOpen         b_core_1.o
    0x08003dac   0x08003dac   0x00000052   Code   RO         1317    .text.bRead         b_core_1.o
    0x08003dfe   0x08003dfe   0x00000028   Code   RO         1618    .text.flex_button_reg_function  flexible_button.o
    0x08003e26   0x08003e26   0x00000002   PAD
    0x08003e28   0x08003e28   0x0000008c   Code   RO         1612    .text.flex_button_register  flexible_button.o
    0x08003eb4   0x08003eb4   0x00000282   Code   RO         1616    .text.flex_button_scan  flexible_button.o
    0x08004136   0x08004136   0x00000002   PAD
    0x08004138   0x08004138   0x0000014a   Code   RO           11    .text.main          main.o
    0x08004282   0x08004282   0x0000003e   Code   RO         2201    CL$$btod_d2e        c_w.l(btod.o)
    0x080042c0   0x080042c0   0x00000046   Code   RO         2203    CL$$btod_d2e_denorm_low  c_w.l(btod.o)
    0x08004306   0x08004306   0x00000060   Code   RO         2202    CL$$btod_d2e_norm_op1  c_w.l(btod.o)
    0x08004366   0x08004366   0x00000338   Code   RO         2211    CL$$btod_div_common  c_w.l(btod.o)
    0x0800469e   0x0800469e   0x000000dc   Code   RO         2208    CL$$btod_e2e        c_w.l(btod.o)
    0x0800477a   0x0800477a   0x0000002a   Code   RO         2205    CL$$btod_ediv       c_w.l(btod.o)
    0x080047a4   0x080047a4   0x0000002a   Code   RO         2204    CL$$btod_emul       c_w.l(btod.o)
    0x080047ce   0x080047ce   0x00000244   Code   RO         2210    CL$$btod_mult_common  c_w.l(btod.o)
    0x08004a12   0x08004a12   0x00000030   Code   RO         2242    i.__ARM_fpclassify  m_wm.l(fpclassify.o)
    0x08004a42   0x08004a42   0x0000000e   Code   RO         2023    i._is_digit         c_w.l(__printf_wp.o)
    0x08004a50   0x08004a50   0x0000002c   Code   RO         2226    locale$$code        c_w.l(lc_numeric_c.o)
    0x08004a7c   0x08004a7c   0x0000002c   Code   RO         2254    locale$$code        c_w.l(lc_ctype_c.o)
    0x08004aa8   0x08004aa8   0x000002b0   Code   RO         2048    x$fpl$ddiv          fz_wm.l(ddiv.o)
    0x08004d58   0x08004d58   0x0000005a   Code   RO         2051    x$fpl$dfixu         fz_wm.l(dfixu.o)
    0x08004db2   0x08004db2   0x00000026   Code   RO         2055    x$fpl$dfltu         fz_wm.l(dflt_clz.o)
    0x08004dd8   0x08004dd8   0x00000154   Code   RO         2061    x$fpl$dmul          fz_wm.l(dmul.o)
    0x08004f2c   0x08004f2c   0x0000009c   Code   RO         2140    x$fpl$dnaninf       fz_wm.l(dnaninf.o)
    0x08004fc8   0x08004fc8   0x0000000c   Code   RO         2142    x$fpl$dretinf       fz_wm.l(dretinf.o)
    0x08004fd4   0x08004fd4   0x0000001a   Code   RO         2326    x$fpl$fpinit        fz_wm.l(fpinit.o)
    0x08004fee   0x08004fee   0x00000004   Code   RO         2144    x$fpl$printf1       fz_wm.l(printf1.o)
    0x08004ff2   0x08004ff2   0x00000004   Code   RO         2146    x$fpl$printf2       fz_wm.l(printf2.o)
    0x08004ff6   0x08004ff6   0x00000000   Code   RO         2152    x$fpl$usenofp       fz_wm.l(usenofp.o)
    0x08004ff6   0x08004ff6   0x00000011   Data   RO         2031    .constdata          c_w.l(__printf_flags_ss_wp.o)
    0x08005007   0x08005007   0x00000001   PAD
    0x08005008   0x08005008   0x00000008   Data   RO         2085    .constdata          c_w.l(_printf_wctomb.o)
    0x08005010   0x08005010   0x00000028   Data   RO         2114    .constdata          c_w.l(_printf_hex_int_ll_ptr.o)
    0x08005038   0x08005038   0x00000026   Data   RO         2177    .constdata          c_w.l(_printf_fp_hex.o)
    0x0800505e   0x0800505e   0x00000002   PAD
    0x08005060   0x08005060   0x00000094   Data   RO         2199    .constdata          c_w.l(bigflt0.o)
    0x080050f4   0x080050f4   0x00000010   Data   RO         1302    .rodata.AHBPrescTable  system_stm32l4xx.o
    0x08005104   0x08005104   0x00000008   Data   RO         1303    .rodata.APBPrescTable  system_stm32l4xx.o
    0x0800510c   0x0800510c   0x00000030   Data   RO         1304    .rodata.MSIRangeTable  system_stm32l4xx.o
    0x0800513c   0x0800513c   0x0000000c   Data   RO         1389    .rodata.bDeviceDescTable  b_device_1.o
    0x08005148   0x08005148   0x00000003   Data   RO         1388    .rodata.bDriverNumberTable  b_device_1.o
    0x0800514b   0x0800514b   0x00000006   Data   RO         1494    .rodata.bHalIf_KEY  b_drv_key.o
    0x08005151   0x08005151   0x00000003   PAD
    0x08005154   0x08005154   0x00000010   Data   RO         1016    .rodata.cst16       stm32l4xx_hal_uart.o
    0x08005164   0x08005164   0x00000010   Data   RO         1989    .rodata.cst16       mcu_stm32l41x_uart.o
    0x08005174   0x08005174   0x00000024   Data   RO           28    .rodata.str1.1      main.o
    0x08005198   0x08005198   0x0000017f   Data   RO         1345    .rodata.str1.1      b_core_1.o
    0x08005317   0x08005317   0x0000005a   Data   RO         1390    .rodata.str1.1      b_device_1.o
    0x08005371   0x08005371   0x00000003   PAD
    0x08005374   0x08005374   0x00000020   Data   RO         2387    Region$$Table       anon$$obj.o
    0x08005394   0x08005394   0x00000004   Data   RO         1343    bos_polling         b_core_1.o
    0x08005398   0x08005398   0x00000004   Data   RO         1457    bos_polling         b_task.o
    0x0800539c   0x0800539c   0x00000004   Data   RO         1480    bos_polling         b_timer.o
    0x080053a0   0x080053a0   0x00000004   Data   RO         1517    bos_polling         b_mod_button.o
    0x080053a4   0x080053a4   0x00000004   Data   RO         1862    bos_polling         b_hal_uart.o
    0x080053a8   0x080053a8   0x00000008   Data   RO         1386    driver_init         b_device_1.o
    0x080053b0   0x080053b0   0x00000008   Data   RO         1495    driver_init         b_drv_key.o
    0x080053b8   0x080053b8   0x00000008   Data   RO         1385    driver_init_0       b_device_1.o
    0x080053c0   0x080053c0   0x0000001c   Data   RO         2225    locale$$data        c_w.l(lc_numeric_c.o)
    0x080053dc   0x080053dc   0x00000110   Data   RO         2253    locale$$data        c_w.l(lc_ctype_c.o)


    Execution Region RW_IRAM2 (Exec base: 0x10000000, Load base: 0x08005538, Size: 0x00000000, Max: 0x00004000, ABSOLUTE)

    **** No section assigned to this execution region ****


    Execution Region RW_IRAM1 (Exec base: 0x20000000, Load base: 0x080054f0, Size: 0x00000a28, Max: 0x0000c000, ABSOLUTE)

    Exec Addr    Load Addr    Size         Type   Attr      Idx    E Section Name        Object

    0x20000000   0x080054f0   0x00000004   Data   RW         1301    .data.SystemCoreClock  system_stm32l4xx.o
    0x20000004   0x080054f4   0x00000008   Data   RW         1863    .data.bHalUartListHead  b_hal_uart.o
    0x2000000c   0x080054fc   0x00000008   Data   RW         1458    .data.bTaskListHead  b_task.o
    0x20000014   0x08005504   0x00000008   Data   RW         1481    .data.bTimerListHead  b_timer.o
    0x2000001c   0x0800550c   0x00000004   Data   RW         1651    .data.bUsDelayParam  b_hal.o
    0x20000020   0x08005510   0x00000010   Data   RW           20    .data.main.key_bKEYF1  main.o
    0x20000030   0x08005520   0x00000010   Data   RW           22    .data.main.key_bKEYF2  main.o
    0x20000040   0x08005530   0x00000001   Data   RW          164    .data.uwTickFreq    stm32l4xx_hal.o
    0x20000041   0x08005531   0x00000003   PAD
    0x20000044   0x08005534   0x00000004   Data   RW          163    .data.uwTickPrio    stm32l4xx_hal.o
    0x20000048        -       0x00000060   Zero   RW         2245    .bss                c_w.l(libspace.o)
    0x200000a8        -       0x00000004   Zero   RW         1520    .bss._bButtonCore.tick  b_mod_button.o
    0x200000ac        -       0x00000001   Zero   RW         1346    .bss._bCoreCreateFd.init  b_core_1.o
    0x200000ad        -       0x00000001   Zero   RW         1518    .bss.bButtonInitFlag  b_mod_button.o
    0x200000ae   0x08005538   0x00000002   PAD
    0x200000b0        -       0x00000024   Zero   RW         1344    .bss.bCoreFdTable   b_core_1.o
    0x200000d4        -       0x000000cc   Zero   RW         1387    .bss.bDriverInterfaceTable  b_device_1.o
    0x200001a0        -       0x00000100   Zero   RW         1572    .bss.bLogBuff       b_util_log.o
    0x200002a0        -       0x00000004   Zero   RW         1649    .bss.bSysTick       b_hal.o
    0x200002a4        -       0x00000004   Zero   RW         1650    .bss.bSysTickOvr    b_hal.o
    0x200002a8        -       0x00000004   Zero   RW         1621    .bss.btn_head       flexible_button.o
    0x200002ac        -       0x00000001   Zero   RW         1624    .bss.button_cnt     flexible_button.o
    0x200002ad        -       0x00000001   Zero   RW         1620    .bss.flex_button_register.init_flag  flexible_button.o
    0x200002ae   0x08005538   0x00000002   PAD
    0x200002b0        -       0x00000004   Zero   RW         1625    .bss.flex_callback  flexible_button.o
    0x200002b4        -       0x00000004   Zero   RW         1626    .bss.flex_read_function  flexible_button.o
    0x200002b8        -       0x00000020   Zero   RW         1623    .bss.g_btn_status_reg  flexible_button.o
    0x200002d8        -       0x00000020   Zero   RW         1622    .bss.g_logic_level  flexible_button.o
    0x200002f8        -       0x00000084   Zero   RW           23    .bss.hlpuart1       main.o
    0x2000037c        -       0x00000084   Zero   RW           24    .bss.huart1         main.o
    0x20000400        -       0x0000000c   Zero   RW           19    .bss.main.button_bKEYF1  main.o
    0x2000040c        -       0x0000000c   Zero   RW           21    .bss.main.button_bKEYF2  main.o
    0x20000418        -       0x00000004   Zero   RW         1519    .bss.pButtonHead    b_mod_button.o
    0x2000041c        -       0x00000004   Zero   RW         1459    .bss.pCurrentTaskAttr  b_task.o
    0x20000420        -       0x00000004   Zero   RW          165    .bss.uwTick         stm32l4xx_hal.o
    0x20000424   0x08005538   0x00000004   PAD
    0x20000428        -       0x00000200   Zero   RW            2    HEAP                startup_stm32l431xx.o
    0x20000628        -       0x00000400   Zero   RW            1    STACK               startup_stm32l431xx.o


==============================================================================

Image component sizes


      Code (inc. data)   RO Data    RW Data    ZI Data      Debug   Object Name

       794        136        387          0         37       5242   b_core_1.o
       874         84        121          0        204       7133   b_device_1.o
       100          0         14          0          0       3422   b_drv_key.o
       186          8          0          4          8       1949   b_hal.o
         4          0          0          0          0       4055   b_hal_gpio.o
       148          0          4          8          0       4671   b_hal_uart.o
       330          0          4          0          9       3646   b_mod_button.o
        60          0          4          8          4       4398   b_task.o
        84          0          4          8          0       4316   b_timer.o
       256         12          0          0        256       3405   b_util_log.o
       822          0          0          0         78       3963   flexible_button.o
       626         56         36         32        288      11141   main.o
        38          0          0          0          0       3770   mcu_stm32l41x_gpio.o
       128          0         16          0          0       2399   mcu_stm32l41x_uart.o
        64         26        396          0       1536        852   startup_stm32l431xx.o
       150          0          0          5          4       8507   stm32l4xx_hal.o
       192          0          0          0          0       9914   stm32l4xx_hal_cortex.o
       154          0          0          0          0       7243   stm32l4xx_hal_dma.o
       490          0          0          0          0       5361   stm32l4xx_hal_gpio.o
       298          0          0          0          0      12754   stm32l4xx_hal_msp.o
       132          0          0          0          0       8051   stm32l4xx_hal_pwr_ex.o
      2274          0          0          0          0       9761   stm32l4xx_hal_rcc.o
       920          0          0          0          0      13471   stm32l4xx_hal_rcc_ex.o
      1948         46         16          0          0      27938   stm32l4xx_hal_uart.o
         2          0          0          0          0       8090   stm32l4xx_hal_uart_ex.o
        54          0          0          0          0       4272   stm32l4xx_it.o
        18          0         72          4          0       2985   system_stm32l4xx.o

    ----------------------------------------------------------------------
     11174        368       1112         72       2432     182709   Object Totals
         0          0         32          0          0          0   (incl. Generated)
        28          0          6          3          8          0   (incl. Padding)

    ----------------------------------------------------------------------

      Code (inc. data)   RO Data    RW Data    ZI Data      Debug   Library Member Name

        44          6          0          0          0         84   __2sprintf.o
         8          0          0          0          0         68   __main.o
       398          4         17          0          0         92   __printf_flags_ss_wp.o
        14          0          0          0          0         68   __printf_wp.o
         0          0          0          0          0          0   __rtentry.o
        12          0          0          0          0          0   __rtentry2.o
         6          0          0          0          0          0   __rtentry4.o
        52          8          0          0          0          0   __scatter.o
        26          0          0          0          0          0   __scatter_copy.o
        28          0          0          0          0          0   __scatter_zi.o
        72          0          0          0          0         96   _c16rtomb.o
         6          0          0          0          0          0   _printf_a.o
         6          0          0          0          0          0   _printf_c.o
        44          0          0          0          0        108   _printf_char.o
        48          6          0          0          0         96   _printf_char_common.o
        40          0          0          0          0         68   _printf_charcount.o
         6          0          0          0          0          0   _printf_d.o
       120         16          0          0          0         92   _printf_dec.o
         6          0          0          0          0          0   _printf_e.o
         6          0          0          0          0          0   _printf_f.o
      1058          0          0          0          0        148   _printf_fp_dec.o
       770          8         38          0          0        100   _printf_fp_hex.o
       128         16          0          0          0         84   _printf_fp_infnan.o
         6          0          0          0          0          0   _printf_g.o
       148          4         40          0          0        160   _printf_hex_int_ll_ptr.o
         6          0          0          0          0          0   _printf_i.o
       178          0          0          0          0         88   _printf_intcommon.o
        10          0          0          0          0          0   _printf_l.o
         6          0          0          0          0          0   _printf_lc.o
        10          0          0          0          0          0   _printf_ll.o
         6          0          0          0          0          0   _printf_lld.o
         6          0          0          0          0          0   _printf_lli.o
         6          0          0          0          0          0   _printf_llo.o
         6          0          0          0          0          0   _printf_llu.o
         6          0          0          0          0          0   _printf_llx.o
       124         16          0          0          0         92   _printf_longlong_dec.o
         6          0          0          0          0          0   _printf_ls.o
         6          0          0          0          0          0   _printf_n.o
         6          0          0          0          0          0   _printf_o.o
       112          8          0          0          0        124   _printf_oct_int_ll.o
         6          0          0          0          0          0   _printf_p.o
        78          0          0          0          0        108   _printf_pad.o
         0          0          0          0          0          0   _printf_percent.o
         4          0          0          0          0          0   _printf_percent_end.o
         6          0          0          0          0          0   _printf_s.o
        82          0          0          0          0         80   _printf_str.o
        36          0          0          0          0         84   _printf_truncate.o
         6          0          0          0          0          0   _printf_u.o
        44          0          0          0          0        108   _printf_wchar.o
       194          6          8          0          0         92   _printf_wctomb.o
         6          0          0          0          0          0   _printf_x.o
        16          0          0          0          0         68   _snputc.o
        10          0          0          0          0         68   _sputc.o
       228          4        148          0          0         96   bigflt0.o
      1936        128          0          0          0        672   btod.o
        18          0          0          0          0         80   exit.o
         6          0          0          0          0        152   heapauxi.o
         0          0          0          0          0          0   indicate_semi.o
        44         10        272          0          0         76   lc_ctype_c.o
        44         10         28          0          0         76   lc_numeric_c.o
         2          0          0          0          0          0   libinit.o
        34          0          0          0          0          0   libinit2.o
         2          0          0          0          0          0   libshutdown.o
         2          0          0          0          0          0   libshutdown2.o
         8          4          0          0         96         68   libspace.o
       138          0          0          0          0         80   lludiv10.o
       240          0          0          0          0        100   lludivv7m.o
        16          4          0          0          0         76   rt_ctype_table.o
         8          4          0          0          0         68   rt_locale_intlibspace.o
        68          0          0          0          0         68   rt_memclr.o
        78          0          0          0          0         80   rt_memclr_w.o
       138          0          0          0          0         68   rt_memcpy_v6.o
       100          0          0          0          0         80   rt_memcpy_w.o
         2          0          0          0          0          0   rtexit.o
        10          0          0          0          0          0   rtexit2.o
       124          0          0          0          0         88   strcmpv7em.o
        62          0          0          0          0         76   strlen.o
        12          4          0          0          0         68   sys_exit.o
        74          0          0          0          0         80   sys_stackheap_outer.o
         2          0          0          0          0         68   use_no_semi.o
        52          4          0          0          0         80   vsnprintf.o
       688        140          0          0          0        264   ddiv.o
        90          4          0          0          0        140   dfixu.o
        38          0          0          0          0        116   dflt_clz.o
       340         12          0          0          0        152   dmul.o
       156          4          0          0          0        140   dnaninf.o
        12          0          0          0          0        116   dretinf.o
        26          0          0          0          0        116   fpinit.o
         4          0          0          0          0        116   printf1.o
         4          0          0          0          0        116   printf2.o
         0          0          0          0          0          0   usenofp.o
        48          0          0          0          0        124   fpclassify.o

    ----------------------------------------------------------------------
      8900        430        554          0         96       5876   Library Totals
        12          0          3          0          0          0   (incl. Padding)

    ----------------------------------------------------------------------

      Code (inc. data)   RO Data    RW Data    ZI Data      Debug   Library Name

      7482        270        551          0         96       4476   c_w.l
      1358        160          0          0          0       1276   fz_wm.l
        48          0          0          0          0        124   m_wm.l

    ----------------------------------------------------------------------
      8900        430        554          0         96       5876   Library Totals

    ----------------------------------------------------------------------

==============================================================================


      Code (inc. data)   RO Data    RW Data    ZI Data      Debug   

     20074        798       1666         72       2528     184841   Grand Totals
     20074        798       1666         72       2528     184841   ELF Image Totals
     20074        798       1666         72          0          0   ROM Totals

==============================================================================

    Total RO  Size (Code + RO Data)                21740 (  21.23kB)
    Total RW  Size (RW Data + ZI Data)              2600 (   2.54kB)
    Total ROM Size (Code + RO Data + RW Data)      21812 (  21.30kB)

==============================================================================

