:020000040800F2
:10000000280A0020D9020008C52A0008B12A0008E1
:10001000C12A00081D1700089931000800000000DF
:100020000000000000000000000000007D2C00081F
:100030001F17000800000000C72A00087F2C0008D6
:10004000F3020008F3020008F3020008F3020008BC
:10005000F3020008F3020008F3020008F3020008AC
:10006000F3020008F3020008F3020008F30200089C
:10007000F3020008F3020008F3020008F30200088C
:10008000F3020008F3020008F3020008F30200087C
:10009000F3020008F3020008F3020008F30200086C
:1000A000F3020008F3020008F3020008F30200085C
:1000B000F30200080000000000000000F302000846
:1000C000F3020008F3020008F3020008F30200083C
:1000D000F30200088D310008F3020008F302000863
:1000E000F3020008F3020008000000000000000016
:1000F0000000000000000000000000000000000000
:1001000000000000F302000800000000F3020008F5
:100110000000000000000000F3020008F3020008E5
:10012000F3020008F3020008F3020008F3020008DB
:10013000F3020008000000000000000000000000C2
:10014000F3020008F3020008F302000800000000B8
:10015000F3020008F3020008B32A0008F3020008C3
:10016000F3020008F3020008F30200080000000098
:10017000F3020008F3020008000000000000000085
:10018000F3020008F3020008F302000800F002F88E
:1001900000F092F80AA090E8000C82448344AAF18F
:1001A0000107DA4501D100F087F8AFF2090EBAE88D
:1001B0000F0013F0010F18BFFB1A43F0010318479B
:1001C000B4510000D4510000103A24BF78C878C15F
:1001D000FAD8520724BF30C830C144BF04680C604D
:1001E000704700000023002400250026103A28BF95
:1001F00078C1FBD8520728BF30C148BF0B60704799
:100200006E2900F09F83702900F0ED84662904F0C8
:10021000EE86652904F0EB86672904F0E8866129FB
:1002200004F0E78603681B0A28BF41F080016929B2
:1002300000F01A81642900F01781752900F01481FB
:100240006F2900F07B84782900F0B984E92900F057
:100250001584E42900F01284F52900F00F84EF29B9
:1002600000F07884F82900F0B8840368DB0928BF1F
:1002700041F08001632901F0D480732901F0D98015
:10028000E32901F0E480F32901F0E98000207047C0
:100290001FB504F09FFE01F037F904000020002193
:1002A00004F0ECFB401C60600020002104F0D0FB57
:1002B000E0601FBD10B510BD01F0F9F81146FFF761
:1002C000E7FF03F039FF01F0D5F903B4FFF7F2FFC0
:1002D00003BC01F01BFA00000948804709480047A9
:1002E000FEE7FEE7FEE7FEE7FEE7FEE7FEE7FEE7E6
:1002F000FEE7FEE704480549054A064B7047000043
:100300000F2D00088D01000828040020280A002075
:10031000280600202806002053EA020C00F069801D
:100320002DE9F04B4FF00006002B1FBFB3FA83F509
:1003300003FA05F424FA05F65E4012BF1643B2FA3A
:1003400082F502FA05F4C5F120051EBF22FA05FC6C
:1003500044EA0C04203556EA044C4FEA144418BF12
:10036000641C4FF000084FF00009904271EB030C41
:1003700039D3002919BFB1FA81F701FA07F6B0FAAB
:1003800080F700FA07F6C7F120071EBF20FA07FC26
:1003900046EA0C062037B6FBF4FCA7EB0507103F36
:1003A00007F01F0BCBF120062CFA06F60CFA0BFB1C
:1003B00044BFB3460026202FA4BF5E464FF0000B7B
:1003C0005BEA060C08BF4FF0010B19EB0B0948EB79
:1003D0000608ABFB027C06FB02CC0BFB03CCC01B6C
:1003E00071EB0C01C1E70B46024641464846BDE8A9
:1003F000F08B13B5084318BF4FF0FF300146AFF341
:100400000080BDE81C4070477CB51D4616460C00B8
:10041000009001D02044401E074B7B442A46694689
:100420000190304600F0A7FA05461CB1002069464D
:1004300000F0B4FA28467CBD890500000FB41CB555
:10044000084B06AA7B4469460090059800F093FA91
:1004500004460020694600F0A1FA20461CBC5DF865
:1004600014FB0000550500002DE9F041064600246C
:1004700010687529314616A510D000F0CFF9002874
:1004800002DA404213A507E031688A0701D512A5B8
:1004900002E0490704D511A5012401E000F0C7F9E5
:1004A00000210A2206F1240709E0B0FBF2FCB0FBB0
:1004B000F2F302FB1C00303078541846491C002827
:1004C000F3D123462A463046BDE8F04100F0E1B9B9
:1004D000000000002D0000002B00000020000000A4
:1004E0002DE9F05F894604464FF0000ADFF874B149
:1004F000FB44C0F820A02046E1688847002874D05B
:10050000252806D0D4E901219047206A401C2062AA
:10051000F1E700265F462046E16888472028054627
:1005200007DB312D05D2781910F8200C08B10643ED
:10053000F1E7B00701D526F00406C4F81CA0002797
:10054000C4F818A02A2D09D0284604F07AFA38B346
:1005500004EB8708303DC8F8185019E059F8041B1F
:10056000204604EB87029161E1688847012F054628
:1005700018D1E069002820DA26F020061DE0D8F81E
:10058000180000EB800005EB40003038C8F8180078
:100590002046E1688847054604F053FA0028EED16A
:1005A000012F0AD02E2D08D12046E16888477F1CF4
:1005B0000546022F46F02006C4DBA069002803DAB6
:1005C000404246F00106A061F00701D026F0100677
:1005D0006C2D0BD0682D09D04C2D39D06A2D35D01B
:1005E000742D35D07A2D33D016E038E0E1682F46EF
:1005F00020468847B842054609D16C2F26D04FF4D3
:100600008060E168064320468847054604E06C2F79
:100610001AD04FF4807006430DB3A5F1410019289C
:1006200002D8203546F400664A4629462046266010
:100630004E46FFF7E5FD80B101280BD0F61D26F0F0
:10064000070000F1080956E74020E4E78020D8E7DA
:100650000020D6E706F104094DE7284652E7206A54
:1006600000F002B8024B000030BCBDE8C09F10B5DE
:10067000431C02E010F8011B71B18107FAD14FF061
:10068000013202C88C1A8C4314EAC211F9D0C01A84
:100690000A0603D0C01E10BDC01A10BD0A0401D046
:1006A000801E10BD0902FCD0401E10BD032A40F27E
:1006B000308010F0030C00F0158011F8013BBCF104
:1006C000020F624498BF11F801CB00F8013B38BF1C
:1006D00011F8013BA2F1040298BF00F801CB38BF2A
:1006E00000F8013B11F0030300F08882083AC0F0E3
:1006F000088051F8043B083A51F804CBA0E80810F0
:10070000F5E7121D5CBF51F8043B40F8043BAFF322
:100710000080D20724BF11F8013B11F801CB48BF7C
:1007200011F8012B24BF00F8013B00F801CB48BFB2
:1007300000F8012B70474FF000020429C0F012802E
:1007400010F0030C00F01B80CCF1040CBCF1020F84
:1007500018BF00F8012BA8BF20F8022BA1EB0C0159
:1007600000F00DB85FEAC17C24BF00F8012B00F84F
:10077000012B48BF00F8012B70474FF0000200B575
:10078000134694469646203922BFA0E80C50A0E8B4
:100790000C50B1F12001BFF4F7AF090728BFA0E862
:1007A0000C5048BF0CC05DF804EB890028BF40F82E
:1007B000042B08BF704748BF20F8022B11F0804F70
:1007C00018BF00F8012B704770477047704770B52D
:1007D000044685690068C10601D5302600E0202660
:1007E000C00707D070BDD4E9012130469047206A88
:1007F000401C20626D1EF6D570BD70B5044685693B
:100800000078C00707D170BDD4E9012120209047AE
:10081000206A401C20626D1EF6D570BD09684A052D
:1008200001D540B27047C905FCD500B270470968D0
:100830004A0501D5C0B27047C905FCD580B27047E2
:1008400070B50C460546012A05D02878800600D5EB
:10085000EA69002302E0012305E05B1C934202D217
:10086000E05C0028F9D1A869E618C01AA861286AD6
:10087000184428622846FFF7AAFF04E0D5E90121C1
:1008800014F8010B9047B442F8D32846FFF7B5FFA0
:1008900070BD2DE9F0470D4699469246044600F199
:1008A00024080168880604D5E06921F01001216060
:1008B00000E00120A84201DD471B00E00027A169FC
:1008C0007A1902EB0900081AA0612078C00602D448
:1008D0002046FFF77CFF002608E0D4E901211AF842
:1008E00006009047206A401C761C20624E45F4DBCF
:1008F0002078C0060AD52046FFF769FF06E0D4E954
:10090000012130209047206A401C2062381EA7F148
:100910000107F4DC07E0D4E9012118F8050090474D
:10092000206A401C2062281EA5F10105F3DC204648
:10093000FFF763FF2078000602D50220BDE8F087AC
:100940000120FBE711680268006A530501D50870B1
:100950000AE0D30501D5088006E0130603D5C217C7
:10096000C1E9000200E008600120704701694A1CEB
:1009700002610878704700B58FB0CDE901310021E0
:10098000059105497944CDE9031011466846FFF702
:10099000A7FD0FB000BD0000E5FFFFFF0A6802F8E9
:1009A000010B0A607047D1E900239A4202D2531C1E
:1009B0000B601070704700002DE9FF5F15468A46F6
:1009C0000446DFF8AC80F8440027D8E900103E4622
:1009D000CDE9001010E03AF816106A4602A800F0BF
:1009E00042FD411C07D02178890603D5E2693918F8
:1009F00091420DD80744761C2078800602D5E06924
:100A0000B84205DDAE42E6DB3AF816000028E2D136
:100A1000A069C01BA0612046FFF7D9FED8E90010ED
:100A2000CDE90010002017E03AF818106A4602A835
:100A300000F019FDB0F1FF3F81460BD000250DF10C
:100A4000080B05E0D4E901211BF8050090476D1C57
:100A50004D45F7D308F10100B0428046E4DB206A3F
:100A6000384420622046FFF7C8FE00F003B80000BB
:100A70003E4600003FBCBDE8C09F00002DE9F041AC
:100A80008046D21D22F007020025D2E90002F52996
:100A900015A614D0011E72F1000106DA0023D0EB76
:100AA000030063EB020211A608E0D8F800108B07E0
:100AB00001D50FA602E0490701D50EA60125114672
:100AC000002408F1240704E000F0CAF830323A5557
:100AD000641C50EA0102F7D12B46324621464046BB
:100AE000BDE8F041FFF7D5BE000000002D0000007A
:100AF0002B0000002000000030B4002100F124048D
:100B000008E002F00705D208303542EA4372DB08FC
:100B10006554491C52EA0305F3D10468002310A26E
:100B2000250708D504F020040C4304D0C469012330
:100B30000CA2641EC46130BCFFF7ABBE10B5044606
:100B400021461068FFF773FE02462046BDE81040BC
:100B50000023D1E7D21D22F00701D1E90023CBE722
:100B60000000000030000000F0B40D4601880905C7
:100B700002D5214C7C4402E01F4C7C440E34002101
:100B800000F1240608E002F00F071209E75D42EACF
:100B900003721B097754491C52EA0307F3D1027808
:100BA0000023120704D5702D06D009B10223113499
:100BB0002246F0BCFFF76DBE01231034F8E770B594
:100BC00004460D4621461068FFF731FE02462946CD
:100BD0002046BDE870400023C6E7D21D22F007037F
:100BE000D3E90023C0E70368126843F020030360E1
:100BF0000823C3610023B7E79844000010B5203AEA
:100C0000C0F00B80B1E81850A0E81850B1E81850B7
:100C1000A0E81850203ABFF4F5AF5FEA027C24BF89
:100C2000B1E81850A0E8185044BF18C918C0BDE872
:100C300010405FEA827C24BF51F8043B40F8043B3B
:100C400008BF7047D20728BF31F8023B48BF11F8F0
:100C5000012B28BF20F8023B48BF00F8012B70474A
:100C600030B5B0F10A0271F100034FEA900E4EEA7E
:100C7000817EB0EB0E0061EB91014FEA101E4EEA4F
:100C8000017E10EB0E0041EB11114FEA102E4EEADF
:100C9000016E10EB0E0041EB11214FEA104E4EEAAF
:100CA000014E10EB0E0041EB1141401841F10001E3
:100CB0004FEAD00040EA41704FEAD1014FEA810487
:100CC00044EA907410EB800544EB01046D1944EB89
:100CD0000404521BA3414FF0000348BF0A3200D561
:100CE00030BD401C41F1000130BD2DE9FF4F0C46E5
:100CF0001E464FF0FF378BB0D2E90001DDF860806F
:100D00000A908A46C1F30A5505B93D4600210846B6
:100D10004FF00000BAF1000F00F4400005DA00EBDC
:100D200080004FF4400101EA50004FEA9059B9F1B8
:100D3000010F00DDB9460A9850EA4A000ED044F689
:100D40001050A5F2FF3545432F14B8F1000F1ED007
:100D50007542291E1EDDC9F100021CE0B8F1010F29
:100D60004FF0000001D0302103E0F24305E02154B0
:100D7000401CB042FBDB30460022002121540B997D
:100D8000C1F80880C1E900200FB000F0BCB9BD1B5C
:100D90006D1CDEE74A4600DA694206A800F0F8FB5F
:100DA00006AB93E8070003AB83E8070050460A99B7
:100DB00003F067FA8DE80700A0F500501F38009097
:100DC0000398002D0ADD42F21F014A460844002321
:100DD00003A90390684603F0D0FC09E0A0F5005099
:100DE0004A461F38002303A90390684603F0DAFC43
:100DF0008DE807000004000C03D04FF0FF304108DD
:100E000000E01046B8F1000F03D000220092154612
:100E10001EE0751E05D4FFF723FF303262556D1EAC
:100E2000F9D5B3460122084302D000227F1C04E01A
:100E30002078302801D100227F1E002A099784D013
:100E40001DE0112D07DAFFF70BFF303262556D1CE4
:100E500050EA0102F5D1084302D00098C8B10EE073
:100E60000021681E05E0235C625C63542254401E2E
:100E7000491C8142F7DBAB46A81B401E09900020AD
:100E800004F80B000B98099AC0F80880C0E9002B01
:100E90007AE711264FF0000857E72DE9F04F884612
:100EA0000446D21D22F0070191B0D1E90001CDE93D
:100EB0000A0103F0AEFD02460B98C00F01D02D20B1
:100EC00007E02068810701D52B2002E0202101EAFC
:100ED000C000032A099001D0072A05DB03464146DA
:100EE000204600F015FB0BE12078800601D5E06973
:100EF00000E00620B8F1650F814606D0B8F1660F14
:100F000018D0B8F1670F70D131E00020B9F1110F9E
:100F1000009001DB112301E009F101030AAA01A9F4
:100F20000CA8FFF7E2FEDDE90C70002609F10105CF
:100F3000834647E001204B4600904FF000470AAA45
:100F400001A90CA8FFF7D1FEDDE90DB00C995D46B3
:100F5000002610B909F101000D18B9EB050003D402
:100F6000C0F1FF3609F10105A5EB09002BE0B9F14D
:100F7000010F01DA4FF001090020B9F1110F0090C3
:100F8000484601DD112300E003460AAA01A90CA886
:100F9000FFF7ABFEDDE90C704D4600268346207856
:100FA00000070AD4AB4500DA5D4601A8012D04DD37
:100FB000411911F8011C302907D04F4502DA17F109
:100FC000040F04DA012082460FE06D1EEEE7002FC9
:100FD00002DCED1B3E4403E0781CA84200DD7D1CD2
:100FE000B81B00F1010A4FF000472078000703D436
:100FF000AA4501DB4FF0FF3A0021B7F1004F0DF198
:1010000043088DF8431024D002202B23002F01DA4F
:101010007F422D230A21021EA0F1010000DC5FB1F6
:1010200097FBF1FC97FBF1F201FB1C7C17460CF1DE
:10103000300C08F801CDEEE7A8F10100037021881B
:10104000090501D5452100E06521A0F1010800F85E
:10105000011C09980FA9A1EB0807FF1D00B1012091
:10106000411901EBEA70A1693844081A401EA061D9
:101070002078C00602D42046FFF7A9FB099828B1C2
:10108000D4E901219047206A401C20622078C006E4
:1010900022D52046FFF79BFB1EE0002E04DBB34564
:1010A00002DD01A8805D00E03020D4E901219047F5
:1010B000206A401C2062761CAAF101005FEA000A47
:1010C0000AD100F021FAC0680168405CD4E901212E
:1010D0009047206A401C2062281EA5F10105DCDC37
:1010E00007E0D4E9012118F8010B9047206A401C61
:1010F0002062381EA7F10107F3DC2046FFF77DFBD5
:10110000032011B041E630BCBDE8C08F2DE9F04F9F
:1011100004460D46D21D22F0070089B0D0E90097A1
:101120004846394603F075FC0246F80F01D02D23DE
:1011300007E02068810701D52B2302E0202101EA86
:10114000C0038DF820300BB1012000E00020032AFD
:10115000824601D0072A04DB2946204600F0D8F950
:101160003FE12078800601D40D2500E0E569C7F352
:101170000A560D2D49DA00214FEA175B08464FF059
:101180000000002F00F4400007DA00EB80004FF46D
:10119000400100EBD07001EA60008115012901DDFA
:1011A0004FF0FF3100224FEA850CBCF1180F06D337
:1011B0001346ACF118004FF08052C24003E04FF4E8
:1011C000801323FA0CF30CF10C0CBCF1200F04D3A8
:1011D000ACF1200C09FA0CF001E007FA0CF0002940
:1011E0004FF0004801DD18B90FE00ED140450CD397
:1011F00019EB02095F4121B9404502D19F4329EA19
:101200000209BBEB175F00D0761C2088000502D5D1
:101210007B48784402E07A487844193808AA302399
:1012200002F80A30037C0AF10101002E0AF1020AD9
:1012300053546A4602DC4FF0300101E04FF03101B7
:101240004FF001088DF8001002D0A6F2FF3603E03F
:1012500059EA470100D06B4E002D02DC21780907C6
:1012600004D54FF002082E218DF80110C44600214C
:101270000BE0C7F303433F01C35C491C6D1E02F83A
:101280000830052908F1010801DA002DF1DC002100
:101290000CE000EB1973491C1B786D1E082902F83D
:1012A00008304FEA091908F1010801DA002DF0DCD5
:1012B00021688B0602D516E0A8F10108E04505DD9E
:1012C00002EB080313F8013C302BF5D0B8F1000F06
:1012D00009DD02EB080313F8013C2E2B03D10907AB
:1012E00001D4A8F10108002D05DD3E2102F8081007
:1012F0006D1E08F10108407C002E02F8080008F17C
:10130000010804DA2D20764202F8080002E02B20C2
:1013100002F808000A214FF47A70864208F10108A9
:101320000BDB96FBF0F3303302F8083096FBF0F35A
:1013300008F1010800FB136601E0642E0CDB642059
:1013400096FBF0F3303302F8083096FBF0F308F127
:10135000010800FB136601E00A2E06DB96FBF1F0A4
:10136000303002F8080008F1010896FBF1F001FBAB
:101370001060303002F80800A16908F1010808EB9C
:10138000050202EB0A00081AA0612078C00602D408
:101390002046FFF71CFA216A08AE01EB0A00206222
:1013A00004E0D4E9012116F8010B9047BAF1010AD3
:1013B000F7D22078C00602D52046FFF708FA6E461D
:1013C00009E016F8010B3E280FD0D4E9012190471F
:1013D000206A401C2062B8F10108F2D22046FFF7D3
:1013E0000CFA09B0032000F00FB8206A28442062EC
:1013F00003E0D4E90121302090476D1EEBD3F8E7DC
:10140000353E000002FCFFFF30BCBDE8C08F10B5C8
:10141000436913B1AFF3008001E0FFF711FA012037
:1014200010BD127800F124010A7000224A700122D6
:10143000EDE711684FF0FF32E9E710B5436913B1EA
:10144000AFF3008001E0FFF7B7FA012010BD12886A
:1014500000F1240182840022C2840122EDE7116898
:101460004FF0FF32E9E72DE9F04116460C460546FC
:1014700000F042F8036893F80101012807D0FF2C1F
:1014800012D8185D80B101202C70BDE8F081D3F82E
:1014900007013246214603F20713C7182846BC4607
:1014A000BDE8F041002360474FF0FF30EDE775469F
:1014B00000F0EAF8AE4605006946534620F0070002
:1014C000854618B020B5FEF715FFBDE820404FF067
:1014D00000064FF000074FF000084FF0000BAC463D
:1014E000ACE8C009ACE8C009ACE8C009ACE8C00988
:1014F00021F007018D46704710B500F005F8001D7A
:1015000010BD00BF7935000000487047680000201A
:101510002DE9F0411F46044603260168072A01F41D
:10152000006004DB08B116A505E016A503E008B1CC
:1015300015A500E015A521F010002060A069C01ECF
:10154000A0610FB1401EA0612046FFF740F94FB1E6
:10155000D4E9012138469047206A401C2062C01C13
:10156000206206E0206AFAE7D4E9012115F8010BB0
:101570009047761EF8D22046FFF73FF9BDE8F0818C
:101580004E414E006E616E00494E4600696E660027
:101590002DE9F047814616468AB0354878440DC893
:1015A0008DE80D0032487844801C03AC0DC884E8F7
:1015B0000D0041F69B300844372190FBF1F290FB7F
:1015C000F1F5A5F1800501FB12041B3C02D5644234
:1015D000012000E00020DFF898A080460027FA44B0
:1015E000AAF1BE0A0EE0E0070AD03246684607EBD1
:1015F000470101230AEB810103F0D4F88DE80700CD
:1016000064107F1C002CEED1194F7F44AE3F19E0CF
:10161000E80715D007EB04100DF1180A90E80E004A
:101620008AE80E00C068F04201D19819089032464D
:10163000012306A903A803F0B5F803AB83E807006C
:101640006D10641C002DE3D14FF001033246694652
:10165000B8F1000F03A802D003F08FF801E003F007
:10166000A1F8C9E90001C9F808200AB0BDE8F0876F
:101670003C3B000010B50446AFF300802046BDE8B7
:101680001040FEF722BE00000048704748000020CE
:1016900030B44FF0013C50F8042B51F8043BCCFA25
:1016A00052F4D51A20D1FCB950F8042B51F8043B60
:1016B000CCFA52F4D51A17D1B4B950F8042B51F81A
:1016C000043BCCFA52F4D51A0ED16CB950F8042B65
:1016D00051F8043BCCFA52F4D51A05D1002CDAD0DB
:1016E00030BC4FF00000704729BAB1FA81F111F017
:1016F0001801D1F120008440F2D1CA40CB4012F051
:10170000FF0213F0FF0330BCD01A704701491820C4
:10171000ABBEFEE72600020070470000FEE7704700
:10172000EFF3108072B600BFFEE7014690F8250087
:10173000022815D10868D1E910C3026822F00E0210
:101740000260026822F00102026003F01C00012224
:1017500002FA00F0CCF80400002081F8252002E015
:101760000420C8630120002281F82420704780B53E
:1017700090F82510022920D10168D0F838E0D0E98E
:1017800010C30A68BEF1000F22F00E020A600A6858
:1017900022F001020A6003F01C014FF0010202FA7C
:1017A00001F1CCF804104FF0000180F8252080F8FA
:1017B000241005D0F047002102E00421C16301217B
:1017C000084680BD2DE9F04F84B00C680190002CD4
:1017D00000F0E180019841F2000600F13842C4F6C1
:1017E00000068E464FEAB2270721B04208BF042107
:1017F000042F4FF000054FF001074FF000064FF0A7
:10180000000838BF4FEAB2210091CDF808E000BFD0
:10181000A7F1010A012000FA0AF214EA020900F015
:10182000AC80DEF804C00CF0030BABF10104012C1A
:1018300016D80198744681680323E468B34099433D
:10184000B4402143816041684FEA480E9143CCF394
:10185000001202FA0AF20446D843114361600BE019
:101860000321B140019CC843BBF1030FB64603D12D
:10187000B6464FF0030B23E0E168029B01409A68F3
:10188000BBF1020F02FA0EF241EA0201E16017D148
:101890006FF0030101EA5A01214405F01C040F22F4
:1018A000D1F820C002FA04FB1A692CEA0B0CA24002
:1018B00042EA0C02019C0A62D3F804C00CF0030B4C
:1018C00021680BFA0EF2014011432160DDF808E0B7
:1018D0001CF4403F51D041F26000C4F202000168A4
:1018E00040F2004C41F0010101600168C4F2010CBA
:1018F00001F00101039103992AF003014FF6084A10
:101900006144CFF6FF7A05F00C030F2051F80A204E
:1019100000FA03F40098A24300FA03F31A4341F8D3
:101920000A20DCF80810DEF8042041EA090340F23E
:101930000C40D40258BF21EA0903CCF80830C4F2A5
:1019400001000168940241EA090358BF21EA090332
:101950000360DCF80410940341EA090358BF21EA4C
:101960000903CCF80430DCF80010D20341EA090383
:1019700058BF21EA0903CCF80030DEF8004008F136
:10198000010834FA07F106F1020607F1010705F133
:1019900004057FF43DAF04B000F000B830BCBDE8F2
:1019A000C08F1823002A08BF2823C150704740F277
:1019B0002040C2F200000068704740F2400040F250
:1019C0002041C2F20000C2F2000100780A6810440F
:1019D0000860704780B5032000F087F8002000F011
:1019E00007F808B1012080BD00F02CF8002080BD70
:1019F000B0B540F24001C2F200010978F9B10446E5
:101A000040F20000C2F200004FF47A720068B2FBAC
:101A1000F1F1B0FBF1F000F020FE0F2C4FF00105CA
:101A20000ED868B94FF0FF3021460022002500F0A3
:101A300031F840F24400C2F20000046000E00125E9
:101A40002846B0BD82B041F25800C4F2020081685D
:101A500041F001018160816801F00101019101996A
:101A6000016841F080510160006800F080500090F2
:101A7000009802B0704700280BD400F01F0101222B
:101A800002FA01F14EF200124009CEF2000242F8D1
:101A90002010704710B54EF60C5CCEF2000CDCF84E
:101AA0000030C3F3022E8EF00704042C28BF042458
:101AB000BEF103034FF0FF3E0EFA04F438BF0023DB
:101AC000A14399400EFA03F39A4300F00F03043B3D
:101AD0001143634409010C3300F16042B0F1FF3F50
:101AE000C8BF02F56443197010BD4EF60C51CEF21A
:101AF00000010A684FF6FF031A4060F30A2242F021
:101B0000806040F0FD7008607047000047F20001FF
:101B1000C4F200010A68B0F5007F02F4C06025D16C
:101B2000B0F5007F2AD00868012262F34A200860DD
:101B300040F20000C2F200000068322358434DF624
:101B40008363C4F21B33A0FB030302EB934000BF8B
:101B50004B69421E824203D213F480601046F7D1D3
:101B60004869400544BF0320704707E0B0F5806F27
:101B700004D00868022262F34A20086000207047FF
:101B800047F20000C4F20000006800F4C060704733
:101B90002DE9F04381B00446407841F20C0700077C
:101BA000C4F202071BD5606C68B1B0F5400F11D0CC
:101BB000B0F5000F40F00E81386840F48030386096
:101BC0004FF4000006E0201D002100F07DFF81465B
:101BD00038B9606CF96F21F440010843F8674FF0A1
:101BE0000009A078800757D5F86CC0000BD4F86CBA
:101BF0004FF0010840F08050F864F86C00F080501D
:101C00000090009801E04FF0000847F20005C4F290
:101C10000005286840F480702860FFF7C8FE06467B
:101C20002868C00507D4FFF7C2FE801B0228F7D939
:101C30004FF0030929E0B9F1000F26D1D7F884004D
:101C400010F4407017D0A16D884211D0D7F88400ED
:101C5000D7F8841020F4407041F48031C7F8841024
:101C6000D7F8841021F48031C7F88410C7F88400B5
:101C7000C00740F0B280D7F88400A16D20F4407016
:101C800008434FF00009C7F88400B8F1000F03D0F3
:101C9000F86C20F08050F8642168C80705D0F86F10
:101CA000226A20F003001043F867880705D5F86F13
:101CB000626A20F00C001043F867480705D5F86FFA
:101CC000A26A20F030001043F867880605D5F86F47
:101CD000E26A20F440601043F867880505D5F86F84
:101CE000E26B20F440201043F867480505D5F86FF3
:101CF000226C20F440101043F867480605D5F86FB1
:101D0000226B20F440501043F867080605D5F86FA1
:101D1000626B20F440401043F867C80505D5F86FA2
:101D2000A26B20F440301043F867080318D5FA6F0F
:101D3000A06C22F040620243B0F1806FFA6707D0D6
:101D4000B0F1006F0CD1386840F48010386007E0C3
:101D5000201D012100F0B8FE2168002818BF81462F
:101D6000480318D5FA6FE06C22F040620243B0F1EC
:101D7000806FFA6707D0B0F1006F0CD1386840F47B
:101D80008010386007E0201D012100F09DFE2168D1
:101D9000002818BF8146480410D5F86F226D20F046
:101DA00040501043B2F1805FF86707D1201D022137
:101DB00000F08AFE2168002818BF8146080405D576
:101DC000F86F616D20F080400843F867484601B025
:101DD000BDE8F0834FF0010903E7FFF7E8FD064691
:101DE00041F288354FF00309D7F8840080073FF5AA
:101DF00042AFFFF7DCFD801BA842F5D945E70000A4
:101E00002DE9F04381B0002800F0A48042F20008E0
:101E1000C4F202080446D8F800000D4600F007009E
:101E200088420DD2D8F8000020F007002843C8F8F7
:101E30000000D8F8000000F00700A84240F08A80B7
:101E4000206841F20809C107C4F2020932D0606873
:101E5000022806D0032809D159F8081C89010DD49D
:101E600078E059F8081C890308D473E059F8081C75
:101E700010B1490502D46DE089076BD5D9F800107F
:101E800021F003010843C9F80000FFF790FD064662
:101E900041F28837D9F80000616800F00C00B0EB1F
:101EA000810F06D0FFF783FD801BB842F2D90320D3
:101EB00051E02068810707D5D9F80010A26821F009
:101EC000F0011143C9F80010D8F8001001F0070123
:101ED000A9420CD9D8F8001021F007012943C8F80D
:101EE0000010D8F8001001F00701A94232D14107D3
:101EF00007D5D9F80010E26821F4E0611143C9F870
:101F00000010000708D5D9F80000216920F46050BE
:101F100040EAC100C9F8000000F04AF8D9F8001002
:101F200045F2F402C1F30311C0F60002515C40F225
:101F3000000201F01F0120FA01F140F24400C2F258
:101F400000000068C2F20002116001B0BDE8F04379
:101F5000FFF74EBD012001B0BDE8F08340F2000064
:101F600041F20801C2F20000C4F2020100680968EF
:101F700045F20412C1F30221C0F60002515C01F0E7
:101F80001F01C840704740F2000041F20801C2F250
:101F90000000C4F202010068096845F20412C1F3AE
:101FA000C221C0F60002515C01F01F01C840704719
:101FB00041F20001C4F20201886810F00C02C86806
:101FC00005D00C2A27D100F00300012823D108688E
:101FD000000703D4D1F89400000A01E00868000962
:101FE00045F20C1300F00F00C0F6000353F8203048
:101FF000002A184618BF00200C2A18BF7047C8686E
:1020000000F0030002280FD0032804BF41F2002390
:10201000C0F27A030CE0042A1DD0082A20D141F234
:102020000020C0F27A00704742F20043C0F2F4038D
:10203000C868C0F30210CA680130C2F30622C9683A
:102040005A43B2FBF0F0C1F34161022202EB4101BD
:10205000B0FBF1F0704742F20040C0F2F40070476C
:1020600000200023C8E700002DE9F04381B00028DC
:1020700000F05E8241F200060446C4F20206B06837
:10208000F168227800F00C08D00601F0030728D48C
:102090002078C0075BD0B8F1080F51D0B8F10C0F11
:1020A00008BF032F4CD06568B5F5803F07D0306876
:1020B000B5F5A02F40F0798240F480203060306880
:1020C00040F480303060FFF772FC054630688003D2
:1020D0003DD4FFF76CFC401B64284FF00300F5D99A
:1020E00027E2B8F1000F1BD0B8F10C0F08BF012F89
:1020F00016D0A1693068002900F09F8140F00100EE
:102100003060FFF754FC05463068800700F1A88175
:10211000FFF74DFC401B02284FF00300F4D908E202
:102120003068800703D5A069002800F00182206A8A
:102130003168090700F1DF80D6F894100909DBE067
:102140003068800303D56068002800F0F1812078B2
:1021500080072CD5B8F1040F1BD0B8F10C0F08BFC5
:10216000022F16D0E1683068002900F0E58140F4C4
:1021700080703060FFF71BFC054600BF30684005EB
:102180000ED4FFF714FC401B02284FF00300F5D9D2
:10219000CFE13068400503D5E068002800F0C88131
:1021A0007068216920F0F85040EA01607060207882
:1021B000000760D42078400774D42078800600F1AE
:1021C0008080A06A002800F04682022840F05A81F0
:1021D000F068E16A00F003028A4240F07781226BE6
:1021E0006FF00F0300F0700103EB0212914240F018
:1021F0006D81616B00F4FE42B2EB012F40F066810D
:10220000A16B00F07842B2EBC16F40F05F81E26BEE
:102210000023CFF6E07303EA025200F4C001A2F5F6
:102220000012914240F05281216C4FF07E4202EA4E
:10223000016100F0C06001F17E41884240F04681BA
:102240003068800100F10782306840F080703060B3
:10225000F06840F08070F060FFF7A9FB044630683A
:10226000800100F1F881FFF7A2FB001B02284FF06C
:102270000300F4D95DE16169D6F89400002900F00B
:10228000C78040F00100C6F89400FFF790FB0546B8
:10229000D6F8940080078DD4FFF789FB401B0228F5
:1022A000F6D9B3E0B06DC00074D4B06D4FF0010941
:1022B00040F08050B065B06D00F080500090009804
:1022C0006AE0616AD6F89800002900F0178140F0B2
:1022D0000100C6F89800FFF76AFB0546D6F898009B
:1022E00080073FF56EAFFFF762FB401B02284FF0FF
:1022F0000300F3D91DE1316801F0F001884216D9DD
:1023000000F077FC002840F01381306840F00800AE
:1023100030603068D4E9072120F0F00008433060D5
:10232000706820F47F4040EA0220706014E0316859
:10233000B8F1000F41F008013160316821F0F0017F
:1023400041EA000131607168E26921F47F4141EAAC
:102350000221716000F0E780FFF72AFEB16845F2C4
:10236000F402C1F30311C0F60002515C40F2000216
:1023700001F01F0120FA01F140F24400C2F2000016
:102380000068C2F200021160FFF732FB002840F043
:10239000D0807DE64FF0000947F20007C4F2000745
:1023A0003868C00511D4386840F480703860FFF791
:1023B000FEFA05463868C00507D4FFF7F8FA401B57
:1023C00002284FF00300F5D9B3E0A568012D08D02D
:1023D000D6F89000052D40F0C18040F00400C6F80A
:1023E0009000D6F8900040F00100C6F89000FFF78A
:1023F000DEFA054641F28837D6F89000800700F1F2
:10240000CB80FFF7D4FA401BB842F5D9032090E007
:1024100020F00100C6F89400FFF7C9FA054600BF96
:10242000D6F8940080077FF5C5AEFFF7C0FA401BD1
:1024300002284FF00300F3D97BE020F00100306068
:10244000FFF7B5FA054600BF306880077FF520AE7C
:10245000FFF7ADFA401B02284FF00300F4D968E003
:10246000306840F0080030603068D4E9072120F07F
:10247000F00008433060706820F47F4040EA02209A
:10248000706005E6B8F10C0F52D0306820F0807013
:1024900030603068000103D4F06820F00300F06081
:1024A000F0684FF6FF71CFF6EE610840F060FFF77D
:1024B0007EFA04463068800140F1CD80FFF777FA5C
:1024C000001B03284FF00300F4D332E0B8F10C0FE7
:1024D0002ED0306840012BD4306820F080703060FE
:1024E000FFF765FA05463068800177D5FFF75FFA98
:1024F000401B02284FF00300F5D91AE020F001003C
:10250000C6F89800FFF753FA054600BFD6F89800C2
:1025100080077FF556AEFFF74AFA401B02284FF0BE
:102520000300F3D905E000F064FB00283FF414AF8A
:10253000012001B0BDE8F08320F480703060FFF727
:1025400036FA0546306840057FF531AEFFF72FFAC1
:10255000401B02284FF00300F4D9EAE720F0010005
:10256000C6F89000D6F8900020F00400C6F890005D
:10257000FFF71DFA002D05467FF43CAF41F2883786
:10258000D6F89000800707D5FFF711FA401BB84234
:102590004FF00300F4D9CCE7B9F1000F3FF40DAED2
:1025A000B06D20F08050B06507E620F480303060D8
:1025B000306820F480203060FFF7F9F9002D0546DF
:1025C0007FF484AD06E0FFF7F2F9401B64284FF07A
:1025D0000300AED830688003F5D4B8E5F06848F25F
:1025E0008C01C0F29D1104F12C0700EA010C8ECF82
:1025F0006FF00F00D4E90F5400EB02100022CFF669
:10260000E07241EA0C0102EA05520843A2F5001209
:102610004FF07E4540EA032005EA0465104305F1CA
:102620007E4540EAC7602843F060306840F0807023
:102630003060F06840F08070F060FFF7B8F9044651
:102640003068800107D4FFF7B2F9001B02284FF071
:102650000300F5D96DE700206BE7411E0020B0EBC9
:10266000116F1CBF012070474EF21002CEF2000223
:1026700051604EF62351CEF20001F0230B7007217A
:1026800090601160704770477047704770B501687F
:102690000446C8690A6840F62F03D1F808E00340F1
:1026A000202B02F0200308D13BB1616E002900F01D
:1026B00035812046BDE87040084740F60F052842A6
:1026C0000BD040F220150EF0010CC0F200452A425A
:1026D0008CF001064ED1002E4CD0236E0240D6065F
:1026E00039D5012B37D1102008628868400600F1E7
:1026F000B280B4F85800B4F85A20B4F85A30002B1D
:1027000000F00C81801A020400F0088151E8001FDB
:10271000226821F4907142E800130BB12168F5E7BB
:10272000216851E8021F226821F0010142E80213EA
:10273000002BF5D12021E16700212166616600BFF1
:10274000216851E8001F226821F0100142E80013BF
:10275000002BF5D1C4E0C00240F1C8801EF4800017
:1027600000F0C4804FF4801220460A62BDE8704039
:10277000FFF78ABFC50718BF12F4807507D001257F
:102780000D62D4F8805045F00105C4F8805000F087
:1027900002054FF0010E8EEA5505354307D102259B
:1027A0000D62D4F8805045F00405C4F8805000F064
:1027B00004058EEA95052E4307D104260E62D4F84F
:1027C000806046F00206C4F8806053EA0C0318BF2C
:1027D0000123060708D53BB108230B62D4F88030EB
:1027E00043F00803C4F8803003050BD512F0806372
:1027F00008D04FF400630B62D4F8803043F020031C
:10280000C4F88030D4F88030002B00F0878010406E
:10281000800604D5626E12B1204690472168D4F834
:102820008000896800F0280001F0400140186FD056
:10283000204600F017FB20688168490640F17D8042
:1028400050E8020F216820F0400041E80202002A0F
:1028500065D02068F4E7206F026853689DB2002DB0
:102860005CD0B4F85800854258D2A4F85A301268A7
:10287000920632D451E8000F216820F4807041E8BC
:1028800000021AB1206850E8000FF5E7206850E810
:10289000020F216820F0010041E80202002AF5D170
:1028A000206850E8020F216820F0400041E8020251
:1028B000002AF5D12020E06700202066206850E83B
:1028C000000F216820F0100041E80002002AF5D135
:1028D000206FFEF72AFFB4F85800B4F85A10401AD7
:1028E00081B22046BDE87040FFF7CDBE10060DD482
:1028F000500613D551E8000F216820F0400041E850
:102900000002FAB1206850E8000FF5E7A16ECDE6AD
:102910002046FFF7BAFE0020C4F8800070BD206F8B
:1029200058B142F65561C0F600018163FEF71FFF02
:102930000028F3D0206F816BBCE62046BDE87040D4
:10294000FFF7A3BE20200021A0672046A166BDE8B6
:10295000704000F0ACB810B5A0B10446806F28B943
:10296000002084F87400204600F025F82420A06799
:102970002068016821F001010160204600F09AFA08
:10298000012801D1012010BD606A10B1204600F07D
:10299000C7F92168486820F490404860886820F0B2
:1029A0002A008860086840F0010220460A60BDE8FD
:1029B000104000F01BBA10B59EB0044619A81421AF
:1029C000FDF7DBFE02A85C21FDF7D7FE206843F689
:1029D0000001C4F2010188422ED048F20001C4F285
:1029E0000001884261D12020029000200D9002A8B1
:1029F000FFF7CEF808B1FEF793FE41F24C00C4F2A7
:102A000002000169462441F001010161016901F000
:102A1000010101910199016841F004010160006820
:102A2000082100F00400019001980320199040F65D
:102A30000000C4F6000026E00120029000200A9069
:102A400002A8FFF7A5F808B1FEF76AFE41F24C00B4
:102A5000C4F202004169252441F480414161416989
:102A600001F4804101910199016841F00101016087
:102A70000068072100F00100019001984FF4C06048
:102A800019904FF0904002221A9200221B920322CA
:102A9000CDE91C2119A9FEF795FE2046022100224E
:102AA000FEF7F8FF2046FEF7E6FF1EB010BD7047A8
:102AB000FEE740F2F820C2F20000FFF7E7BD000099
:102AC000FEE70000FEE77047F0B581B041F2000775
:102AD000C4F20207FA680D469107044612D0F8685E
:102AE000216800F0030088424FF0010040F07F8031
:102AF00000297CD0F868C0F3021061680130884278
:102B00000AD11DE02068032808D002283ED0012801
:102B100002D13968890708D4012068E0396889033F
:102B20005CBF39685FEA4131F6D5F968626821F027
:102B300073016FF00F0303EB021208431043F860B8
:102B4000386820F080603860FEF731FF064600BF2D
:102B50003868000105D5FEF72AFF801B0228F7D947
:102B60003EE0BDB1386948F2FF01CFF6FF11012DFB
:102B70001AD101F1B461014020690023CFF6E0735E
:102B8000A26803EA0050A0F5001016E03968490574
:102B9000C2D5CAE7386948F2FF01C0F2FF710140AF
:102BA000D4E90220C00608E0014060694FF07E438E
:102BB000A26803EA006000F17E4041EA0221084376
:102BC0003861386840F080603860FEF7F0FE0546F6
:102BD0003868000106D4FEF7EAFE401B0228F7D948
:102BE000032004E0A069396908433861002001B07E
:102BF000F0BDB0B582B041F25805C4F202052968B3
:102C00000446C9000FD4286840F080502860286826
:102C100000F0805001900198FEF7B2FF296821F082
:102C20008051296001E0FEF7ABFFB0F5007F06D1CF
:102C3000812C08D30120A02C88BF02200DE0802C1D
:102C400003D9032009E0002007E0A4F17000B0FAE6
:102C500080F04009802C08BF022042F20001C4F23B
:102C600002010A6822F0070202440A60096801F0C2
:102C70000701081A18BF012002B0B0BD704780B527
:102C8000FEF79BFEBDE8804000F00FBE80B596B019
:102C900005A84421FDF771FD68461421FDF76DFD7F
:102CA0004FF40070FEF732FF18B1EFF3108072B6E8
:102CB000FEE74FF480710891102102200991012153
:102CC0000590CDE90F0011910A2112910721CDE95C
:102CD0001310159005A8FFF7C7F920B1EFF3108086
:102CE00072B600BFFEE70F20009003200190002085
:102CF000CDE90200049068460421FFF781F820B175
:102D0000EFF3108072B600BFFEE716B080BD4EF63E
:102D10008850CEF20000016841F4700101607047F4
:102D200080B5416ACA0708D00268D0F828C0536845
:102D300023F4003343EA0C0353608A0708D5026882
:102D4000D0F82CC0536823F4803343EA0C0353605B
:102D50004A0708D50268D0F830C0536823F48023AE
:102D600043EA0C0353600A0708D50268D0F834C060
:102D7000536823F4004343EA0C035360CA0608D5A2
:102D80000268D0F838C0936823F4805343EA0C03F8
:102D900093608A0608D50268D0F83CC0936823F493
:102DA000005343EA0C0393604A0614D50268D0F836
:102DB00040C05368BCF5801F23F4801343EA0C0322
:102DC000536008D1D2F804C0D0F844E02CF4C0031A
:102DD00043EA0E035360090658BF80BD0168806C4A
:102DE0004A6822F400221043486080BDB0B582B02A
:102DF00004460020C4F88000FEF7D9FD216805468E
:102E00000A6812070CD56FF07E4C20464FF4001173
:102E100000222B46CDF800C000F04CF978B92168AB
:102E2000086840070DD56FF07E4C20464FF48001B6
:102E300000222B46CDF800C000F03CF908B1032079
:102E400006E02020A067E0670020206684F8740078
:102E500002B0B0BD806A0021A0F85A10A0F852104C
:102E6000FFF713BC016851E8001F026821F490715C
:102E700042E80013002BF5D1016851E8021F0268F7
:102E800021F0010142E80213002BF5D1016E012966
:102E90000AD100BF016851E8001F026821F010014B
:102EA00042E80013002BF5D12021C1670021016603
:102EB00041667047B0B505462A69D5E90213006836
:102EC0000A436969D5F81CE01143026846F6F31419
:102ED000CEF6FF7441EA0E012240114301604168C1
:102EE00048F2000C21F4405119434160AA69C4F230
:102EF000000C60451CBF296A0A438168102321F435
:102F000030611143816047F6FF71C4F200018842CD
:102F100012DC44F20041C4F2000188421BD044F6A6
:102F20000001C4F2000188422AD141F28801C4F2B2
:102F3000020109680B091BE0604513D043F600014C
:102F4000C4F2010188421BD141F28801C4F202019E
:102F50000B6854A210E041F28801C4F20201096832
:102F60008B0805E041F28801C4F2020109688B0A6E
:102F700045F25412C0F6000203F0030152F821306A
:102F8000604542F20040C0F2F40011D0BEF5004F9F
:102F90001DD1082B4FF0010100F27E80DFE803F025
:102FA00005454E7C487C7C7C4C00FEF7D7FF41E019
:102FB000082B4FF0010100F26F80DFE803F0056D90
:102FC0001C6D166D6D6D1A00FEF7C8FF0FE0082B23
:102FD0004FF0010160D8DFE803F005464F5F495F1D
:102FE0005F5F4D00FEF7BAFF42E0FEF7E1FF10B968
:102FF0004FE04FF400406A6802EB420188424FF014
:10300000010149D31303984246D8010E000210EB88
:10301000520041F100010023FDF77EF94FF6FF4217
:10302000A0F54071C0F20F022FE0FEF7ACFF01E007
:10303000FEF7BEFF10B92CE04FF4004069684A0863
:1030400002EB4000B0FBF1F04FF6EF72A0F110017F
:10305000914220D84FF6F0710140C0F342002A6837
:103060000844D06015E0FEF78EFF01E0FEF7A0FFF8
:1030700010B90EE04FF4004069684FF6EF7200EBB4
:103080005100B0FBF1F0A0F11001914203D8296882
:10309000C860002100E00121002208466A66AA6695
:1030A000B0BD00BF010000000400000002000000ED
:1030B000080000002DE9F04381B004460068154681
:1030C000C2690E461140891BB1FA81F14909A94232
:1030D0001ED1DDF82080994608F1010787B1FEF77F
:1030E00066FCB8F1000F15D0A0EB0900404511D8DF
:1030F00020680168490744BFC1695FEA015121D4D2
:10310000C1693140891BB1FA81F14909A942E5D071
:10311000002038E0206850E8000F216820F4D070CB
:1031200041E80002002AF5D1206850E8020F21682A
:1031300020F0010041E80202002AF5D12020A0671A
:10314000E0671CE04FF40061016200BF50E8000F2F
:10315000216820F4D07041E800020AB12068F5E748
:10316000206850E8020F216820F0010041E80202C7
:10317000002AF5D12020A067E067C4F88000002075
:1031800084F87400032001B0BDE8F08340F27C3085
:10319000C2F20000FFF77ABAFEE7000080B582B005
:1031A00001280CD145F2741145F287120FF2780C08
:1031B000C0F60001C0F60002032058231AE0022ADC
:1031C0000CD145F2741145F287120FF24C0CC0F687
:1031D0000001C0F6000203205E230BE045F27411EB
:1031E00045F287120FF2180CC0F60001C0F600027B
:1031F00003206223CDF800C000F0ACFC02B080BD1B
:1032000068656C6C6F20626162796F7320426561E2
:103210007250690D0A00000068656C6C6F20426591
:10322000617250690D0A000068656C6C6F20626104
:1032300062796F73200D0A0010B5017A044600F020
:1032400029F898B1617A8388C1F3430101228A4049
:103250001A420BD0D0F808C0BCF1000F06D00068AD
:10326000A379217A92B2BDE81040604710BD10B535
:1032700000F013FB40F2A804C2F200042168401AD7
:10328000152838BF10BD00F008FB2060BDE81040D5
:1032900000F010BE70B582B040F21842C2F20002D7
:1032A00014687CB1A1EB810100EB810601AD00BF88
:1032B0002068294600F0B6FA0198B04203D0E468CD
:1032C000002CF5D10024204602B070BD70B582B04C
:1032D000017A002405468DF80740FFF7DBFFA8B10F
:1032E00000680021002400F01BFD00280ED4297A7C
:1032F000064600F0AFFC0DF107013046012200F058
:1033000055FD304600F0E4F89DF80740204602B035
:1033100070BD70470020704770B540F20404C2F2DF
:1033200000042568A54208BF70BD002635F8080CCA
:1033300040B335F8061C35F8080CE9B135F8061C21
:10334000884217D100F0A9FA55F8041C35F8122C60
:10335000401A904216D955F8103C7BB135F8081C3C
:1033600055F8180C55F80C2C984700280ED435F851
:10337000141C11E035F8080C25F8060C00F08DFA45
:1033800045F8040C2D68A542D0D10CE035F8081C96
:1033900035F8140C8142F1D155F8180CFDF7CBF932
:1033A00025F8086CEAE770BD73B1B0B5C56914467D
:1033B0002878697800F077FAA978401AB0FA80F096
:1033C000400920700120B0BD4FF0FF307047000071
:1033D00070B540F20C04C2F200042568A54208BF93
:1033E00070BD40F21C46C2F2000600BF55F8202C0A
:1033F00042B1A5F12400017B012903D1306081682D
:10340000103090472D68A542F0D170BD70B540F2E4
:103410001404C2F200042568A54208BF70BD00264E
:1034200055F8180CC0B115F8100C012814D100F093
:1034300034FA55E90312401A90420DD955E90610A5
:10344000884715F8040C20B100F027FA45F80C0C59
:1034500002E005F8106C00BF2D68A542E0D170BDF8
:1034600070B582B04FF0FF3678B30C4669B340F2C6
:10347000AD06C2F200060546307858B943F239204D
:1034800043F2CD21C0F60000C0F6000100F0B7FC09
:103490000120307040F21841C2F20001086818B1F2
:1034A000C168E960C56002E000200D60E86028683E
:1034B00001A9019400F0C8F9607A002640F00100EB
:1034C00060722046267200F0AFFC304602B070BD3C
:1034D00010B5022813D840F2B00100EB4000C2F250
:1034E000000101EB8000044614F8011F39B1406867
:1034F00000F008F8207810B10020207010BD4FF0C7
:10350000FF3010BD80B582B0022802D94FF0FF30E5
:1035100021E040F2D40200EB0011C2F2000252F8A6
:103520002130D3B145F23C11C0F6000151F820C062
:1035300045F22530C0F6000045F23C310090C0F65F
:1035400000010BA2022040F21F13CDF804C000F0CE
:1035500001FB6FF0FE0002B080BD02EB8100C1688C
:1035600019B102B0BDE8804008476FF0FD00F2E7F6
:1035700062446576696365436C6F736500000000A3
:103580002DE9F04F85B040F2D400C2F20000CC210A
:10359000FDF7F3F845F2C03645F2B830C0F6000644
:1035A000C0F6000045F2481945F23C1BB042C0F697
:1035B0000009C0F6000B23D045F2B83440F2D40A1B
:1035C000C0F60004C2F2000A00205546002700BFE2
:1035D00019F80710227891420AD100F101086862B7
:1035E0005BF82700616828622846884728604046C3
:1035F0000137032F05F14405EAD10834B442E3D181
:1036000045F2B83845F2A830C0F60008C0F6000010
:10361000404522D045F2A83440F2D40AC0F6000456
:10362000C2F2000A00205546002700BF19F8071013
:103630002278914209D1461C68625BF827006168D4
:10364000286228468847286030460137032F05F155
:103650004405EBD108344445E4D145F23C3A45F207
:10366000653627A0C0F6000AC0F6000623A7009022
:10367000032051463246AD23019700F06BFA40F229
:10368000D400C2F2000045F2173500F120040027F3
:103690004FF0FF380FF28009C0F60005206858B1DE
:1036A00054F8201C0095CDE9020103205146324612
:1036B000B623019708E000BF8DE8A0020320514621
:1036C0003246B223CDF80C8000F044FA0137032FC4
:1036D00004F14404E2D145F23C3145F2653211A7D0
:1036E000C0F60001C0F600020320B823009700F0E6
:1036F00031FA002005B000F017B800BF6465730010
:103700000D0A6465765F6E6F09092531367309739A
:10371000746174650D0A00006E6F206472697665CD
:10372000000000000D0A000030BCBDE8C08F0000A2
:1037300080B582B0022802D94FF0FF3020E040F27D
:10374000D40200EB0011C2F2000252F82130CBB1DA
:1037500045F23C11C0F6000151F820C045F2253079
:10376000C0F6000045F23C310090C0F600010BA20B
:103770000220DB23CDF804C000F0ECF96FF0FE006E
:1037800002B080BD02EB8100816819B102B0BDE8D2
:10379000804008476FF0FD00F2E700BF62446576A5
:1037A0006963654F70656E0010B582B002284FF0F6
:1037B000FF3C20D8FAB140F2D40E00EB001CC2F25C
:1037C000000E5EF82C40CCB145F23C11C0F6000171
:1037D00051F8204045F22530C0F6000045F23C315A
:1037E0000090C0F600010CA20220F223019400F028
:1037F000B1F96FF0FE0C604602B010BD0EEB8C000C
:10380000D0F818C0BCF1000F03D002B0BDE81040E2
:1038100060476FF0FD0CEEE76244657669636552C0
:1038200065616400024602284FF0FF300BD851B1A9
:1038300002EB021040F2D402C2F2000202EB80005E
:10384000006C086000207047024602284FF0FF30ED
:103850000BD851B1086802EB021140F2D402C2F257
:10386000000202EB8101086400207047B0B545F208
:10387000A83445F29430C0F60004C0F60000A0421F
:1038800009D045F29435C0F6000500BF55F8040B89
:103890008047AC42FAD10020B0BD40F2A020C2F275
:1038A00000000068704700F0E7B940F2A020C2F2C3
:1038B0000000016801310160006800B1704740F20A
:1038C000A420C2F2000001680131016070470000CD
:1038D000F0B583B040F21C07C2F200073C6848F222
:1038E000A060C0F2010060430290002001900090AF
:1038F00040F2A020C2F200000168019102994A1E24
:1039000000290292FAD10068009000980199401AAB
:1039100001F04FFA9FED0E0B02460B4651EC100BD7
:1039200001F0C2F8054620460E4601F042FA024672
:103930000B462846314601F04FFA01F00DFA386087
:1039400003B0BDE8F04000F009B800BF00BF00BF01
:10395000000000000000594000F0A2B970470000CC
:103960002DE9F0418AB0FFF7B3FF45F2BE2045F2E2
:10397000EF2445F21135C0F60000C0F60004C0F691
:1039800000050090032021462A4640F239134FF0EB
:10399000030800F0DFF845F2FA16C0F6000603202F
:1039A00021462A464FF49D73009600F0D3F845F265
:1039B0005C26C0F60006032021462A4640F23B134F
:1039C000009600F0C7F845F22B26C0F6000603204B
:1039D00021462A464FF49E73009600F0BBF845F24C
:1039E000C916C0F60006032021462A4640F23D13C0
:1039F000009600F0AFF845F28D26C0F600060320D1
:103A000021462A464FF49F73009600F0A3F845F232
:103A10009816C0F60006032021462A4640F23F13BE
:103A2000009600F097F819A6032021462A464FF485
:103A3000A073009600F08EF821A0089006200121C6
:103A400008220C23152724A60FF2800CCDE900676D
:103A5000CDE90233CDE904210690032021462A4610
:103A600040F24313CDF81CC000F074F824A000907D
:103A7000032021462A464FF4A273CDF8048000F0BB
:103A800069F80AB0BDE8F041FFF77ABD2020202098
:103A90002020202020202020202020202020202026
:103AA00020285F202F2020202020202020202020C0
:103AB000202020202020202020200D0A00000000AF
:103AC00031393A34303A3339000000005365702000
:103AD000313620323032330048573A25642E25647F
:103AE0002E25642046573A25642E25642E25642011
:103AF000434F4D50494C453A25732D25730D0A000F
:103B0000646576696365206E756D6265723A2564D9
:103B10000D0A000001464B6A45F24B1243F6153C74
:103B200003EB4303C0F600020020C0F6000C1A4469
:103B300043F2A933886248630864C0F60003C1E910
:103B4000000CC1E90200C1E9040000208B61CA61D8
:103B5000704700002DE9F04383B0032871D840F28C
:103B6000A018C2F2000804460F4640464FF4807188
:103B700099461646FCF701FE032C01D1002749E0C7
:103B800031A032A1095D055D88F800103A2069076F
:103B900088F8010001D4022715E03846FCF767FDDC
:103BA000C4B257FA80F00A2C84BFA0F10A070A2495
:103BB00008F1020039462246FCF778FD04EB0800C4
:103BC000E71C20218170A8070FD53046FCF74FFD78
:103BD000044608EB0700E2B23146FCF767FD57FAEE
:103BE00084F0471C202108F80010E80712D018A123
:103BF00001A84A46FCF722FC002822D4044608EB20
:103C0000070001A92246FCF751FDE019471C2021BD
:103C100008F800100A9A0BAB08EB0700C7F1FF0188
:103C20000093FCF7F1FB00280BD440F2A014C2F281
:103C300000042046FCF71BFD82B200202146FFF75E
:103C40008BFE03B0BDE8F083000307004957450031
:103C50002564000002280CD840F2B00200EB4000BE
:103C6000C2F2000202EB8000427812B181600020B3
:103C700070474FF0FF307047024607284FF00000B2
:103C80000CD001F0FE03102B08BF704790021022E9
:103C9000C4F600021058C84000F001007047000050
:103CA00010B54FF0000E0428844638BF4FF0010EC7
:103CB0004FF0FF3071B3ACF10803B3FA83F35B0943
:103CC00053EA0E0308BF10BDBCF1080F04D148F23F
:103CD0000000C4F2000005E045F26410C0F60000E8
:103CE00050F82C00D2B140F2010C4FF0000EC0F29F
:103CF0000B0C6346C469640604D4013B022BF9D261
:103D000009E000BF11F80E300EF1010E96458362F6
:103D1000EFD1104610BD6FF0010010BD002010BDA6
:103D2000B0B502293ED840F2AC03C2F200031A78C3
:103D3000002A40F2B002C2F2000207D1012500249D
:103D400054550C35252DFBD101251D70002300BFD6
:103D5000D5186C78012C02D16D68854222D00C33C5
:103D6000242BF5D1151D002415F8032C2AB101349C
:103D7000032C05F10C05F7D114E005F8041C012112
:103D800005F8031C0021C5E90001FFF7D1FCB0F1E3
:103D9000FF3F09DCFE3007D015F8030C10B10020FE
:103DA00005F8030C4FF0FF342046B0BDB0B5144603
:103DB0000A46014602284FF0FF301CD8DAB101EB69
:103DC000410040F2B001C2F2000111F8203043F08E
:103DD0000203022B10D101EB8005687860B155F821
:103DE000081F234655F8040CFFF7DEFC002802D418
:103DF000296821442960B0BD4FF0FF30B0BD0246B4
:103E000000284FF0FF3018BF002900D1704740F262
:103E1000B020C2F20000026040F2B420C2F2000002
:103E2000016000207047000070B540F2AD2140F203
:103E3000A825C2F20001C2F200050A782E680446E5
:103E40007AB90120087040F2D820C2F20000202187
:103E5000FCF793FC40F2B820C2F200002021FCF7EE
:103E60008CFC24B32EB13046A04220D0006800283C
:103E7000FAD1607A00F0010000F1160161720021B0
:103E8000C4E9006140F2AC21C2F200010A782C6062
:103E900040F2D825D608C2F2000502F00703AC5D57
:103EA00098402043A855501C0870C0B270BD4FF018
:103EB000FF3070BD2DE9F04F89B00DF1040B58466D
:103EC0002021FCF75AFC40F2A828C2F20008D8F8DA
:103ED000005040F2AC29C2F20009E5B140F2B42A28
:103EE000C2F2000ADAF80010A9B199F8007000BF18
:103EF000013FF8B2C6081BF806402846884707F07D
:103F000007012D68884020430BF806001DB1DAF840
:103F100000100029ECD140F2D82140F2B825002051
:103F2000C2F20001C2F200051BF800200B5C5A40EF
:103F3000D2432A5401302028F6D1D8F800404FF05F
:103F40000008002C00F0ED8099F800704FF6FF7922
:103F500002264FF0010B4FF0000A00BF607A2028C4
:103F600006D3A18801318AB24A4508BFFA21A1804F
:103F7000B6EB501FA7F101071ED04109012929D036
:103F8000002940F0A980F9B2C908695C07F007026E
:103F9000D140C90743D040F2B021C2F20001096804
:103FA00000F0E100C4F80480607211B12046884737
:103FB000607A6BF35F108EE0F9B2C908695C07F0B4
:103FC0000702D140C9072ED06BF35F106072A4F8CE
:103FD000048081E0F9B2C908695C07F00702D140AA
:103FE000C90732D0E288A188DAB3102974D303213B
:103FF000032A28BF0A4640F2B021C2F20001096834
:1040000000F0E10062F34400607211B1204688477D
:10401000607A6BF35F106072C4F804805CE000F0BB
:10402000E100163057E0A188102955D3E28803211A
:10403000032A28BF0A4640F2B021C2F2000100F074
:10404000E100096862F344003EE0A188FA2917D331
:1040500040F2B021C2F2000100F0E1000968123024
:1040600032E0FA2917D300F01E01102934D040F2B3
:10407000B021C2F2000100F0E1000968103043E015
:10408000962917D340F2B021C2F2000100F0E100FE
:1040900009680E3018E0962928D300F01E010C297B
:1040A0001AD040F2B021C2F2000100F0E10009682C
:1040B0000C3029E032292DD340F2B021C2F20001A8
:1040C00000F0E10009680A30607211B120468847AB
:1040D000607A00F01F006072607A24681F2888BF31
:1040E0000AF1010A002C7FF439AF1CE000F01E0237
:1040F000082AF1D03229EFD340F2B021C2F20001F8
:1041000000F0E1000968083000296072E4D0204620
:104110008847E1E7E18866F35F106072481CE08041
:10412000DAE74FF0000A5FFA8AF009B000F000B851
:1041300030BCBDE8C08F000086B0FDF74BFCFEF739
:10414000A5FD002741F24C000597C4F2020001686A
:1041500040F6000841F0040101600168C4F600085F
:1041600001F00401009100990168002241F0020170
:104170000160016801F0020100910099016841F0BD
:1041800001010160016801F00101009100990168DD
:1041900041F00801016000684FF4015100F008008F
:1041A000009000984046FDF7FCFBA8F58065284686
:1041B0004FF4004101224FF4004A4FF0010BFDF78C
:1041C000F0FB404680210122FDF7EBFB4FF400504D
:1041D00001AECDE9010B40463146CDE90377FDF74D
:1041E000F1FA4FF00C0928463146CDE90197CDF898
:1041F0000CB0FDF7E7FA022428463146CDE901ABC1
:1042000003970494FDF7DEFAC020CDE9010B404688
:104210003146CDE90374FDF7D5FA40F27C3043F620
:104220000001C2F20000C4F201014FF4E13280E863
:104230008600C0E90377C0E90597C0E907774762C0
:10424000FEF789FB18B1EFF3108072B6FEE7FFF7B7
:1042500087FB40F2200040F20041C2F20000C2F2AF
:104260000001FFF7FDF840F2300040F20C41C2F2CD
:104270000000C2F20001FFF7F3F800BFFFF7F6FA03
:10428000FCE75FEA400C08BF91F0000F4FEA8C2377
:104290004FEAC12243EA51514FEA1C5018BF00F5C2
:1042A000F0404FEA300018BF41F000415FEA6C5C1B
:1042B00000F02980BCF1FF3F08BF40F0804070470C
:1042C000130C06BF12044FF0100C4FF0000C130E2D
:1042D00004BF12020CF1080C130F04BF12010CF101
:1042E000040C930F04BF92000CF1020CD30F04BF17
:1042F00052000CF1010C11464FF00002A0F11F001A
:10430000A0EB0C00704711F0004F08BF704731F070
:1043100000413FF4D5AF0B0C06BF09044FF0100C61
:104320004FF0000C0B0E04BF09020CF1080C0B0F30
:1043300004BF09010CF1040C8B0F04BF89000CF1C0
:10434000020CCB0F04BF49000CF1010CCCF120038F
:1043500022FA03F341EA030102FA0CF2A0EB0C008B
:1043600000F10100704723F07F4720F07F4C80EA86
:10437000030000F00040ACEB070303F57C5303F1AE
:10438000FF032DE9804909B44FEA144324EA0348A6
:104390004FEA154B25EA0B4E0FF2042606EB1327C6
:1043A0003E7803FB0667C7F5000707FB06F64FEAF2
:1043B000D64606F102064FEA543707FB066CCCF1ED
:1043C000005C4FEA1C472CEA074C0CFB06F507FB88
:1043D00006F404EB15464FEA961649085FEA3202E6
:1043E00034BF00204FF000404FEAD13706FB07FCF6
:1043F0004FEA1C4C0CFB0BF7D21B03FB0CF761EBD9
:1044000007010CFB0EF7B0EB074072EB17420CFBF9
:1044100008F734BFA2EB0742B2EB074261EB17414A
:104420004FEA0C444FEA910706FB07FC4FEA1C4C8D
:104430000CFB0BF7B0EBC74072EB573203FB0CF7EA
:1044400034BFA2EBC742B2EBC74261EB57310CFB62
:104450000EF7B0EBC70072EB57720CFB08F734BFD6
:10446000A2EBC702B2EBC70261EB57714FEA816161
:1044700041EA92114FEA826242EA90124FEA80606A
:1044800004EBCC04039F4FEAD13706FB07FC4FEA4D
:104490001C4C0CFB0BF7D21B03FB0CF761EB070169
:1044A0000CFB0EF7B0EB074072EB17420CFB08F762
:1044B00034BFA2EB0742B2EB074261EB17414FEA70
:1044C0008C5504EB9C244FEA910706FB07FC4FEA4E
:1044D0001C4C0CFB0BF7B0EBC74072EB573203FBE5
:1044E0000CF734BFA2EBC742B2EBC74261EB5731C6
:1044F0000CFB0EF7B0EBC70072EB57720CFB08F722
:1045000034BFA2EBC702B2EBC70261EB57714FEAAF
:10451000816141EA92114FEA826242EA90124FEAC7
:10452000806015EB4C2544F100044FEAD13706FBBF
:1045300007FC4FEA1C4C0CFB0BF7D21B03FB0CF7E0
:1045400061EB07010CFB0EF7B0EB074072EB174273
:104550000CFB08F734BFA2EB0742B2EB074261EB5A
:1045600017414FEA813141EA92414FEA823242EAF1
:1045700090424FEA80304FEA0C7615EB1C1544F15F
:10458000000448EA03434EEA0B484FF0000EB2EB3A
:10459000080C71EB030724BF624639464EEB0E0E42
:1045A0004FF0000B0018524149414BEB0B0BB2EBA3
:1045B000080C71EB03077BF1000B24BF6246394600
:1045C0004EEB0E0E4FF0000B0018524149414BEBE1
:1045D0000B0BB2EB080C71EB03077BF1000B24BF54
:1045E000624639464EEB0E0E51EA020718BF46F0FE
:1045F000010616EB0E7655F1000254F1000103D5C9
:10460000BDE88901BDE80088BDE88901BDE8004832
:10461000B619524141EB0101A3F1010370478080BB
:104620007F7E7D7C7B7A797877767675747372710C
:1046300071706F6E6E6D6C6C6B6A6A6968686766C4
:1046400066656464636362616160605F5F5E5E5D56
:104650005D5C5C5B5B5A5A595958585757565655CA
:1046600055555454535352525251515050504F4F2C
:104670004F4E4E4D4D4D4C4C4C4B4B4B4A4A4A497C
:1046800049494848484747474746464645454544BF
:1046900044444443434343424242424141419C4695
:1046A000002B30D477002BD04FEA37071CB503B46A
:1046B0004FF010004FF01001BAF1000F06D0BCF11E
:1046C000000FDCBF40F0080040F008014FF0000090
:1046D0000FBCBDE810400BF1010BBBF1010F08BF8F
:1046E0005FEA170722BF12F1010211F101014FF039
:1046F000004143F1000300F0004043EA000070472E
:10470000F9D35708D0E746EA06464FEA164613F1B2
:10471000400F1FDD13F1200FDFBF16430A460021B3
:1047200020335B42BED0C3F1200746EA06464FEA7B
:10473000164602FA07F746EA070622FA03F2C3F121
:10474000200701FA07F742EA070221FA03F14FF0C6
:104750000003A7E746EA020646EA06464FEA16467F
:1047600046EA0106BCBF46EA0646360C4FF0000397
:104770004FF000024FF0000194E72DE9804C70B437
:104780009A46934691E8380007C831EA400C48BF82
:1047900034EA430C03D5FFF7E6FDFFF780FFF0BCDA
:1047A000BDE8008C2DE9804C70B49A46934691E8A0
:1047B000380007C810F0804F08BF13F0804F03D1B6
:1047C00000F005F8FFF76BFFF0BCBDE8008C20F0AF
:1047D0007F4723F07F4C80EA030000F0004007EBA6
:1047E0000C03A3F57C53A3F1FE0392F0000F00F03D
:1047F000B38095F0000F00F077802DE901494FEA72
:10480000114021EA00484FEA144624EA064700FB1B
:1048100006FC08FB06F607FB08F818EB06484CEB0D
:10482000164C00FB07F718EB07484CEB17404FEA14
:10483000124B22EA0B4E4FEA154625EA06470BFBC0
:1048400006FC0EFB06F607FB0EFE1EEB064E4CEBBF
:10485000164C0BFB07F71EEB074E4CEB174B18EBF8
:104860000B0840F1000018EB0E0B58EB000840F16C
:1048700000008F1A4FF000014FF000063CBFC94303
:10488000661B14BFB5EB040C00213CBFC943F61BEB
:104890004FEA174427EA04454FEA1C472CEA074C25
:1048A00004FB076205FB07F70CFB05F616EB074652
:1048B00042EB174204FB0CFC16EB0C4642EB1C428D
:1048C0001BEB060658EB020241414EEA8E0E46EA09
:1048D0009E0601D5BDE80189B619524141EB01019F
:1048E000A3F10103BDE801894FEA144524EA054616
:1048F0004FEA114721EA074C05FB07F406FB07F7CF
:104900000CFB06F111EB074144EB174405FB0CFCD3
:1049100011EB0C4144EB1C444FEA124722EA074CCE
:1049200005FB07F206FB07F70CFB06F616EB07463E
:1049300042EB174205FB0CFC16EB0C4642EB1C4508
:104940006A1854F1000148BF7047B619524141EB53
:104950000101A3F10103704795F0000F37D04FEA32
:10496000114221EA02464FEA144724EA074C02FBAF
:1049700007F106FB07F70CFB06F414EB074441EBC9
:10498000174102FB0CFC14EB0C4441EB1C414FEAB9
:10499000154725EA074C02FB07F506FB07F70CFB5A
:1049A00006F616EB074645EB174502FB0CFC16EB2B
:1049B0000C4645EB1C42121951F1000148BF7047EB
:1049C000B619524141EB0101A3F1010370474FEACF
:1049D000144524EA05464FEA114721EA074C05FB36
:1049E00007F106FB07F70CFB06F212EB074241EB5F
:1049F000174105FB0CFC12EB0C4251EB1C414FF034
:104A0000000648BF7047921841EB0101A3F1010372
:104A1000704703B401984100009850EAC12018BFC4
:104A200004204A0D18BF40F0010040F2FF72B2EBC3
:104A3000515F08BF40F00200012808BF052002B006
:104A4000704730380A2801D2012070470020704793
:104A500010B500290AD00878002807D00548784406
:104A6000FCF716FE002801D0002010BD0248784453
:104A700010BD0000620900005A09000010B50029AD
:104A80000AD00878002807D005487844FCF700FED3
:104A9000002801D0002010BD0248784410BD00005D
:104AA000520900004A0900002DE9C04130B4DFF886
:104AB000A0C23CEA111418BF3CEA131400F0EC80C9
:104AC0001CEA111481EA030544EAD57418BF1CEAF4
:104AD000131500F0C780A4EB050404F17F7404F5FE
:104AE00000344FF0004545EAC12145EAC32341EABD
:104AF000505143EA52534FEAC0204FEAC222994232
:104B000008BF904200F09C804FEA13650FF24016F8
:104B1000765D4FEA134506FB05F7C7F1807706FB84
:104B200007F74FEAD737A7FB03687642A7FB06CE05
:104B3000C8F5803838BFA8F1010807FB08E6A6FBD6
:104B4000028C4FF0000EE6FB03CEDCF1000CCEF140
:104B5000004E38BFAEF1010EA6FB0C584FF0000717
:104B6000E6FB0E87A1FB08C6A0FB07CE16EB0E06E0
:104B70004FF0000545F10005E1FB076515F1E04E3A
:104B80007EBFA4F580345FEA46066D4116F18007CA
:104B900045F100054FEA172747EA05674FEA152553
:104BA0004FEA0666A6F1DE46B6F1805F1FD93846A9
:104BB00005EBC47124F0010C01EB0C11BCF1FE6F8C
:104BC00002D8F0BCBDE8008124425CBF01F5801E24
:104BD0009EEAC47F02D4F0BCBDE80081244238D4F0
:104BE000A1F1C041F0BCBDE8004100F0EDB94FEAD1
:104BF000D02040EA41504FEAD1214FEAD22242EA86
:104C000043524FEAD323A7FB028607FB036605FB4B
:104C100002661EEA0E0F58BFA6EB0056B6EB005612
:104C20004FEA520E4EEAC37E18EB0E0E56EB530EB1
:104C3000BDD518EB02085E417F1C55F10005B6E7B3
:104C40004FF480154FF000074FF000064FF00008BA
:104C5000ADE701F1C04101F000414FF00000F0BCB0
:104C6000BDE800810CEA131511EA0C1F00D00CE01E
:104C700013EA0C1F00F025804FF0000081EA0301C9
:104C800001F00041F0BCBDE80081F0BCBDE800418E
:104C900081EA030100F098B9F0BCBDE8004170B5AD
:104CA00000F044F9097EFC3E00F007B84FF0000028
:104CB00081EA030101F00041704781EA030100F03D
:104CC00083B9F0BCBDE8004122494FF000007047B5
:104CD000FFFDFBF9F7F5F4F2F0EEEDEBE9E8E6E4C1
:104CE000E3E1E0DEDDDBDAD8D7D5D4D3D1D0CFCD48
:104CF000CCCBCAC8C7C6C5C4C2C1C0BFBEBDBCBB81
:104D0000BAB9B8B7B6B5B4B3B2B1B0AFAEADACAB7B
:104D1000AAA9A8A8A7A6A5A4A3A3A2A1A09F9F9E55
:104D20009D9C9C9B9A999998979796959594939307
:104D3000929191908F8F8E8E8D8C8C8B8B8A89899E
:104D40008888878786858584848383828281818021
:104D50000000FF070000F87F4FEA1153A3F58063BE
:104D6000D3F11E03A8BFD3F1200C08DB4FF00042A3
:104D700042EAC12252EA505232FA03F07047094225
:104D80000BD4102BC4BF0020704703F5787CBCF116
:104D9000FF3F05D04FF0FF3070474FF000007047E5
:104DA00070B500F0C3F800BF49922480002070471E
:104DB000F0E7B0FA80F310FA03F10AD0C3F11D0353
:104DC00003F580634FEA03524FEA415002EBD121D1
:104DD00070474FF00000704770B5DFF848C11CEA1B
:104DE000111E1EBF1CEA13159EEA0C0F95EA0C0F4C
:104DF00000F06F8081EA03044EEAD47EAE4421EADB
:104E00004C1123EA4C1341F4801143F48013AEF1AA
:104E10007F7EA1FB024CA0FB0365361955EB0C0508
:104E2000A1FB034C4CF10003A0FB021C16EB0C068B
:104E3000654153F10003094218BF46F0010613F41F
:104E4000007F0BD14FEA03314FEA053041EA15519B
:104E500040EA165034036FF003020AE04FEAC32120
:104E60004FEAC52041EA555140EA5650F4026FF02E
:104E7000020202EB2E4201EB025585EACE710AD006
:104E80005FEA440C18BF24F0004450F1000041F1E7
:104E9000000120EAD47040F2FE7C624500D270BD71
:104EA000A84214BF4FF080444FF04044002E08BF8A
:104EB0000024BEF1806FA8BFA1F1C041BDE87040E1
:104EC00080F2828001F1C04101F000414FF000000A
:104ED00070470CEA13159EEA0C0F18BF95EA0C0FE9
:104EE00006D081EA030E4FF000000EF0004170BDC5
:104EF00000F01CF88900013E00F007B800F009B886
:104F00004FEA430C5FEA5C5C08D081EA030100F0E1
:104F10005BB84FEA410C5FEA5C5CF6D102494FF0A6
:104F2000000070470000FF070000F87F0EF1020E3E
:104F30002EF0030E5EF8046B364205D4012A43EBD3
:104F4000030515F5001F12D8012841EB010C1CF5D3
:104F5000001F0CD80ED14FEAD17C0CEB4C0C0CF19D
:104F6000020C15F5001F08BF4CEBD37C04E04FF09A
:104F7000080C01E04FEAD37C0CEB4C0526FA05F651
:104F800006F00706B6F1040C06D20EEB860CBDE85F
:104F900070404CF0010C6047DFE80CF0090B020296
:104FA0004FF00041A1F500214FF0000070BD1946FF
:104FB0001046012851EB010418BFD4F5001484BF3A
:104FC000002001F0004170BD0808A0F500114FEA73
:104FD00031017047F1EE100A4FF6FF71C0F2C03197
:104FE00020EA010040F04070E1EE100A7047FBF744
:104FF00054BFFCF78BB8040000080000000000005C
:10500000000200010000100000000000000000008D
:1050100030313233343536373839414243444546EE
:1050200040305800303132333435363738396162E8
:10503000636465664030780030313233343536375A
:1050400038396162636465667870003031323334B8
:105050003536373839414243444546585000000000
:1050600002400000000000A0000000000540000019
:10507000000000C8000000000C4000000000409C40
:1050800000000000194000000020BCBE000000002D
:1050900034400000BFC91B8E00000004B540000072
:1050A000504BCFD06607E2CF010000006C410000FA
:1050B0003E8251AADFEEA73401000000D942000071
:1050C000DCB5A0E23A301F97FFFFFFFFB4450000B8
:1050D000FD25A0C8E9A3C14FFFFFFFFFFF3F000070
:1050E0000000008000000000FF3F00000000008082
:1050F00000000000000000000000000001020304A6
:10510000060708090000000001020304A086010050
:10511000400D0300801A060000350C0040420F00CD
:1051200080841E0000093D0000127A000024F40073
:1051300000366E010048E801006CDC026053000894
:105140002E53000835530008000707010200010331
:105150000000000000000000040000000200000049
:1051600008000000003801400044004000480040B2
:10517000004C00402E2E2F436F72652F5372632F09
:105180006D61696E2E63005F4B65794576656E745F
:1051900048616E646C657200202020202020202051
:1051A00020202020202020202020202020202020FF
:1051B000202F2020202020202020202020202020E0
:1051C0002020202020200D0A0020202F2020202019
:1051D000292020202F20202029202F202020292096
:1051E0002F2020202F202F202020202F2020202083
:1051F00020205C202020200D0A00202020205F5F3E
:105200005F5F202020202020202020202020202020
:1052100020202020202020202020205F5F20202010
:10522000202020205F5F20200D0A002D2D2D2F5FD4
:105230005F202F2D2D2D2D2D5F5F2D2D2D2F5F5FAD
:105240002D2D2D2D2D2D2D2D2D2F2D2D2D2D2F2D8A
:105250002D2D2D5C2D2D2D2D2D0D0A0020202020F3
:105260002F20202029202020202020202020202F17
:1052700020202020202020202020202F202020201F
:10528000292020202F202020205C0D0A005F2F5F86
:105290005F5F5F2F5F5F5F285F5F5F285F285F5FF3
:1052A0005F2F5F285F5F5F2F5F285F5F5F5F2F5F0C
:1052B0005F5F285F5F5F5F2F5F5F5F0D0A005F5F6B
:1052C0005F5F5F5F5F5F5F5F5F5F5F5F5F5F5F5FEE
:1052D0005F5F5F5F5F5F5F5F5F5F5F5F5F5F5F5FDE
:1052E0005F5F5F5F5F5F5F5F5F5F5F5F0D0A002E05
:1052F0002E2F2E2E2F2E2E2F426162794F532F628A
:105300006F732F636F72652F625F636F72652E63B9
:105310000062496E697400256409092531367309F4
:1053200025640D0A002573206572720D0A004B4535
:10533000592D4631004B45592D4632002E2E2F2E29
:105340002E2F2E2E2F426162794F532F626F732FB3
:10535000636F72652F625F6465766963652E6300B3
:105360006E756C6C0062446576696365496E69743C
:1053700000000000F0540008000000204800000079
:10538000C80100083855000848000020E009000066
:10539000E401000813330008D13300080D3400087D
:1053A0006F320008193300080000000015330008B0
:1053B00007000000153B000800000000153300083E
:1053C0001C00000043000000F8FFFFFF0C0000007D
:1053D0000E0000000F0000002E0000001001000071
:1053E00043000000F8FFFFFF0040404040404040C5
:1053F00040404141414141404040404040404040A8
:10540000404040404040404040050202020202024B
:10541000020202020202020202202020202020209A
:1054200020202002020202020202909090909090AE
:10543000101010101010101010101010101010106C
:1054400010101010020202020202888888888888E0
:1054500008080808080808080808080808080808CC
:1054600008080808020202024000000000000000D4
:10547000000000000000000000000000000000002C
:10548000000000000000000000000000000000001C
:10549000000000000000000000000000000000000C
:1054A00000000000000000000000000000000000FC
:1054B00000000000000000000000000000000000EC
:1054C00000000000000000000000000000000000DC
:1054D00000000000000000000000000000000000CC
:1054E00000000000000000000000000000000000BC
:1054F00000093D0004000020040000200C000020F2
:105500000C00002014000020140000200A000000FD
:1055100001000000020000009D31000800000000B2
:1055200002000000060000009D310008000000009D
:08553000010000001000000062
:040000050800018D61
:00000001FF
