:020000040800F2
:10000000C80D0020A1010008591D0008451D000869
:10001000551D0008DD0700089D26000800000000AF
:10002000000000000000000000000000711F000838
:10003000DF070008000000005B1D0008731F0008B8
:10004000BB010008BB010008BB010008BB010008A0
:10005000BB010008BB010008BB010008BB01000890
:10006000BB010008BB010008BB010008BB01000880
:10007000BB010008BB010008BB010008BB01000870
:10008000BB010008BB010008BB010008BB01000860
:10009000BB010008BB010008BB010008BB01000850
:1000A000BB010008BB010008BB010008BB01000840
:1000B000BB0100080000000000000000BB010008B8
:1000C000BB010008BB010008BB010008BB01000820
:1000D000BB01000891260008BB010008BB01000815
:1000E000BB010008BB010008000000000000000088
:1000F0000000000000000000000000000000000000
:1001000000000000BB01000800000000BB01000867
:100110000000000000000000BB010008BB01000857
:10012000BB010008BB010008BB010008BB010008BF
:10013000BB010008000000000000000000000000FB
:10014000BB010008BB010008BB0100080000000063
:10015000BB010008BB010008471D0008BB010008E7
:10016000BB010008BB010008BB0100080000000043
:10017000BB010008BB0100080000000000000000F7
:10018000BB010008BB010008BB010008DFF80CD070
:1001900000F000FB00480047E1440008C80D0020C3
:1001A0000648804706480047FEE7FEE7FEE7FEE711
:1001B000FEE7FEE7FEE7FEE7FEE7FEE703200008B6
:1001C0008D0100082DE9F05F0546002092469B4610
:1001D00088460646814640241BE02846414647465D
:1001E000224600F08BF953465A46C01A914110D36B
:1001F00011461846224600F072F92D1A67EB0108E5
:100200004F4622460120002100F069F917EB000952
:100210004E41201EA4F10104DFDC484631462A4647
:10022000434600F000B830BCBDE8C09F40EA01037F
:100230009B0703D009E008C9121F08C0042AFAD29C
:1002400003E011F8013B00F8013B521EF9D2704760
:10025000D2B201E000F8012B491EFBD27047002208
:10026000F6E710B513460A4604461946FFF7F0FFB5
:10027000204610BD421C10F8011B0029FBD1801A3A
:10028000704710B5002200E0521C835C8C5CA342D6
:1002900001D1002BF8D1D8B2E1B2401A10BD2DE93E
:1002A000FE4F81EA030404F0004421F00041009471
:1002B0004FF0000B23F0004350EA01045ED052EAF5
:1002C00003045BD0C3F30A54C1F30A552C44A4F2CF
:1002D000F3340194A0FB0254C1F3130141F48011E3
:1002E000C3F3130343F4801301FB024400FB034EEA
:1002F000840A970A44EA815447EA8357A4FB0768B3
:1003000002958D0A05FB07854FEA932C04FB0C54DC
:100310002705029D4FEA065847EA1637B5EB080550
:100320006EEB070C870E920E47EA811742EA8312A2
:10033000A7FB0201B6EB0B0164EB00042B0D43EAB3
:100340000C335E1844EB1C50DA465146E7FB0201C1
:10035000C5F313044FEA0B3343EA14534FEA043254
:10036000019C43EA0603A4F10C040294009CCDE92D
:1003700000B400F0E2F803B000F003B8002001463A
:10038000F9E730BCBDE8C08F2DE9F04D81EA0304E8
:1003900004F0004B21F0004514464FF0000A23F012
:1003A000004150EA050220D054EA01021DD0C5F3F5
:1003B0000A570246C5F31303C1F31300C1F30A56EB
:1003C00040F4801543F48013A7EB0608101BD646B3
:1003D00008F2FD3873EB050002D308F1010801E0D3
:1003E00092185B41B8F1000F03DA00200146BDE826
:1003F000F08D00204FF48011064684460EE0171B56
:1004000073EB050705D3121B63EB050306434CEAA8
:10041000010C49084FEA300092185B4150EA01078D
:10042000EDD152EA030012D082EA040083EA05010A
:10043000084305D0101BAB4106D20122002306E081
:1004400000224FF0004302E06FF0010253101AEB5C
:1004500006004CEB085110EB0A0041EB0B01BDE824
:10046000F04D00F05BB80EB540F23341029100212F
:10047000CDE900110A460B4600F05FF803B000BD5D
:10048000C1F30A5210B5C1F3130140F2FF3341F436
:1004900080119A4201DA002010BD40F233439A42A3
:1004A000A2F2334203DC524200F028F810BD904023
:1004B00010BD30B50B46014600202022012409E082
:1004C00021FA02F59D4205D303FA02F5491B04FA0D
:1004D00002F52844151EA2F10102F1DC30BD202AEC
:1004E00004DB203A00FA02F1002070479140C2F18B
:1004F000200320FA03F3194390407047202A04DBBD
:10050000203A21FA02F00021704721FA02F3D0408C
:10051000C2F12002914008431946704710B5141EDD
:1005200073F1000408DA401C41F1000192185B41AC
:100530001A4301D120F0010010BD2DE9F04D924683
:100540009B4611B1B1FA81F202E0B0FA80F220329A
:100550009046FFF7C4FF04460F4640EA0A0041EA0E
:100560000B0153465A46084313D0114653EA010083
:1005700019D0C8F140025046FFF7C0FF05460E46AD
:10058000504659464246FFF7AAFF084305D00120CE
:1005900004E020463946BDE8F08D0020054346EAD8
:1005A000E0762C4337430A986305E40AA0EB080081
:1005B0000022FD0A44EA47540A3002D500200146D1
:1005C000E9E7010510196941DDE9084500196941AC
:1005D000BDE8F04DA2E72DE9FE4F804681EA030019
:1005E000C00F0C46009021F0004123F00045B8EB0D
:1005F0000200A94105D24046214690461C460B46C2
:10060000024623F00040104347D0270DC7F30A00ED
:10061000C3F30A510290401A019040286BDAC3F3E9
:10062000130040F4801B0098924620B10023D2EBC7
:10063000030A63EB0B0B01985946C0F14002504688
:10064000FFF74DFF06460D4650465946019A00F009
:10065000B3F810EB08006141002487EA115284EAE4
:10066000E7731A4340D0009A62B3019A012A4FEA15
:10067000075215DC001B61EB02014FF0004202EA59
:100680000752CDE90042001C41F5801132462B464D
:10069000FFF753FF03B000F045B840462146F9E7A5
:1006A000001B61EB0201001C41F5801300185B4147
:1006B0002018A2F5001747EB030140EAD570B619E0
:1006C0006D4111E06D084FEA360645EAC0754FEA04
:1006D0000752001B61EB0201001C41F58011490823
:1006E0004FEA30000019514132462B4603B000F06A
:1006F0001CB8FFF713BF0098012240000023D0EB85
:10070000020263EBE073009821464FEAE074B8EB15
:10071000000061EB0401E9E783F000435BE781F04F
:10072000004158E730BCBDE8C08F30BCBDE8C04FC9
:10073000FFF7DFBFC1F30A52C1F3130140F2FF33E9
:1007400041F480119A4202DA00200146704740F2DB
:1007500033439A42A2F2334202DC5242FFF7CEBE4A
:10076000FFF7BDBE30B5041E71F1000404DB4FF08D
:100770000044404264EB0101141E73F1000405DBE8
:100780001C464FF00043524263EB0403994208BFFA
:10079000904230BD064C074D06E0E06840F0010392
:1007A00094E8070098471034AC42F6D3FFF7F2FC08
:1007B000CC7E0008EC7E0008202A06DBCB17203A0E
:1007C00041FA02F043EAE07306E041FA02F3D04056
:1007D000C2F120029140084319467047FEE7704776
:1007E000EFF3108072B600BFFEE7014690F82500D7
:1007F000022815D10868D1E910C3026822F00E0260
:100800000260026822F00102026003F01C00012273
:1008100002FA00F0CCF80400002081F8252002E064
:100820000420C8630120002281F82420704780B58D
:1008300090F82510022920D10168D0F838E0D0E9DD
:1008400010C30A68BEF1000F22F00E020A600A68A7
:1008500022F001020A6003F01C014FF0010202FACB
:1008600001F1CCF804104FF0000180F8252080F849
:10087000241005D0F047002102E00421C1630121CA
:10088000084680BD2DE9F04F84B00C680190002C23
:1008900000F0E180019841F2000600F13842C4F610
:1008A00000068E464FEAB2270721B04208BF042156
:1008B000042F4FF000054FF001074FF000064FF0F6
:1008C000000838BF4FEAB2210091CDF808E000BF20
:1008D000A7F1010A012000FA0AF214EA020900F065
:1008E000AC80DEF804C00CF0030BABF10104012C6A
:1008F00016D80198744681680323E468B34099438D
:10090000B4402143816041684FEA480E9143CCF3E3
:10091000001202FA0AF20446D843114361600BE068
:100920000321B140019CC843BBF1030FB64603D17C
:10093000B6464FF0030B23E0E168029B01409A6842
:10094000BBF1020F02FA0EF241EA0201E16017D197
:100950006FF0030101EA5A01214405F01C040F2243
:10096000D1F820C002FA04FB1A692CEA0B0CA24051
:1009700042EA0C02019C0A62D3F804C00CF0030B9B
:1009800021680BFA0EF2014011432160DDF808E006
:100990001CF4403F51D041F26000C4F202000168F3
:1009A00040F2004C41F0010101600168C4F2010C09
:1009B00001F00101039103992AF003014FF6084A5F
:1009C0006144CFF6FF7A05F00C030F2051F80A209E
:1009D00000FA03F40098A24300FA03F31A4341F823
:1009E0000A20DCF80810DEF8042041EA090340F28E
:1009F0000C40D40258BF21EA0903CCF80830C4F2F5
:100A000001000168940241EA090358BF21EA090381
:100A10000360DCF80410940341EA090358BF21EA9B
:100A20000903CCF80430DCF80010D20341EA0903D2
:100A300058BF21EA0903CCF80030DEF8004008F185
:100A4000010834FA07F106F1020607F1010705F182
:100A500004057FF43DAF04B000F000B830BCBDE841
:100A6000C08F1823002A08BF2823C150704740F6C2
:100A7000C010C2F200000068704740F2840040F6E7
:100A8000C011C2F20000C2F2000100780A681044EE
:100A90000860704780B5032000F087F8002000F060
:100AA00007F808B1012080BD00F02CF8002080BDBF
:100AB000B0B540F28401C2F200010978F9B10446F0
:100AC00040F20000C2F200004FF47A720068B2FBFC
:100AD000F1F1B0FBF1F000F0B2FE0F2C4FF0010588
:100AE0000ED868B94FF0FF3021460022002500F0F3
:100AF00031F840F28800C2F20000046000E00125F5
:100B00002846B0BD82B041F25800C4F202008168AC
:100B100041F001018160816801F0010101910199B9
:100B2000016841F080510160006800F08050009041
:100B3000009802B0704700280BD400F01F0101227A
:100B400002FA01F14EF200124009CEF2000242F820
:100B50002010704710B54EF60C5CCEF2000CDCF89D
:100B60000030C3F3022E8EF00704042C28BF0424A7
:100B7000BEF103034FF0FF3E0EFA04F438BF00232A
:100B8000A14399400EFA03F39A4300F00F03043B8C
:100B90001143634409010C3300F16042B0F1FF3F9F
:100BA000C8BF02F56443197010BD4EF60C51CEF269
:100BB00000010A684FF6FF031A4060F30A2242F070
:100BC000806040F0FD7008607047000047F200014F
:100BD000C4F200010A68B0F5007F02F4C06025D1BC
:100BE000B0F5007F2AD00868012262F34A2008602D
:100BF00040F20000C2F200000068322358434DF674
:100C00008363C4F21B33A0FB030302EB934000BFDA
:100C10004B69421E824203D213F480601046F7D122
:100C20004869400544BF0320704707E0B0F5806F76
:100C300004D00868022262F34A200860002070474E
:100C400047F20000C4F20000006800F4C060704782
:100C50002DE9F04182B00446FFF709FF2CB10646AA
:100C600094F8410018B1A06C0AE0012047E0002090
:100C700084F84000204600F045F841F28830A06436
:100C80002168A2680B686FF0FF0523F4706305EB21
:100C900002221A430A600090204620210022334697
:100CA0004FF0000801F05AF838BBD4E90012D4E93B
:100CB000033C0E684FF62F75C0F2FF052E40D4E9B5
:100CC0000757334343EA02622A433A430A604A68B9
:100CD0004FF6FE03CFF6E0731A40D4E905371A4306
:100CE00042EA0C423A434A600A6842F001020A6052
:100CF0000121C4F8448084F8411084F8408002B097
:100D0000BDE8F08110B586B0044601A81421FFF7B4
:100D1000A6FA206841F20001CAF20001884227D1F8
:100D200041F24C00C4F20200416841F4807141601C
:100D3000416801F4807100910099016841F002015D
:100D40000160006801A900F002000090009840F6E0
:100D500003400190022002900020039003200490A1
:100D60000A20059040F20040C4F60000FFF78AFD1B
:100D700006B010BD2DE9F04381B00446407841F241
:100D80000C070007C4F202071BD5606C68B1B0F510
:100D9000400F11D0B0F5000F40F00E81386840F4DC
:100DA000803038604FF4000006E0201D002101F083
:100DB00005F8814638B9606CF96F21F440010843A9
:100DC000F8674FF00009A078800757D5F86CC0008D
:100DD0000BD4F86C4FF0010840F08050F864F86CC8
:100DE00000F080500090009801E04FF0000847F2BA
:100DF0000005C4F20005286840F480702860FFF701
:100E000036FE06462868C00507D4FFF730FE801B73
:100E10000228F7D94FF0030929E0B9F1000F26D1D4
:100E2000D7F8840010F4407017D0A16D884211D01B
:100E3000D7F88400D7F8841020F4407041F4803152
:100E4000C7F88410D7F8841021F48031C7F88410D3
:100E5000C7F88400C00740F0B280D7F88400A16DC5
:100E600020F4407008434FF00009C7F88400B8F13F
:100E7000000F03D0F86C20F08050F8642168C80798
:100E800005D0F86F226A20F003001043F867880746
:100E900005D5F86F626A20F00C001043F867480728
:100EA00005D5F86FA26A20F030001043F867880675
:100EB00005D5F86FE26A20F440601043F8678805B2
:100EC00005D5F86FE26B20F440201043F867480521
:100ED00005D5F86F226C20F440101043F8674806DF
:100EE00005D5F86F226B20F440501043F8670806D0
:100EF00005D5F86F626B20F440401043F867C805D1
:100F000005D5F86FA26B20F440301043F867080352
:100F100018D5FA6FA06C22F040620243B0F1806FE6
:100F2000FA6707D0B0F1006F0CD1386840F4801038
:100F3000386007E0201D012100F040FF21680028F3
:100F400018BF8146480318D5FA6FE06C22F0406262
:100F50000243B0F1806FFA6707D0B0F1006F0CD197
:100F6000386840F48010386007E0201D012100F04F
:100F700025FF2168002818BF8146480410D5F86F66
:100F8000226D20F040501043B2F1805FF86707D126
:100F9000201D022100F012FF2168002818BF8146A1
:100FA000080405D5F86F616D20F080400843F867AC
:100FB000484601B0BDE8F0834FF0010903E7FFF7B1
:100FC00056FD064641F288354FF00309D7F88400F4
:100FD00080073FF542AFFFF74AFD801BA842F5D9D5
:100FE00045E700002DE9F04381B0002800F0A4801F
:100FF00042F20008C4F202080446D8F800000D4688
:1010000000F0070088420DD2D8F8000020F0070059
:101010002843C8F80000D8F8000000F00700A842F4
:1010200040F08A80206841F20809C107C4F2020931
:1010300032D06068022806D0032809D159F8081C6C
:1010400089010DD478E059F8081C890308D473E0AD
:1010500059F8081C10B1490502D46DE089076BD519
:10106000D9F8001021F003010843C9F80000FFF788
:10107000FEFC064641F28837D9F80000616800F0AE
:101080000C00B0EB810F06D0FFF7F1FC801BB842DB
:10109000F2D9032051E02068810707D5D9F8001064
:1010A000A26821F0F0011143C9F80010D8F800102F
:1010B00001F00701A9420CD9D8F8001021F007016E
:1010C0002943C8F80010D8F8001001F00701A94220
:1010D00032D1410707D5D9F80010E26821F4E06168
:1010E0001143C9F80010000708D5D9F8000021699C
:1010F00020F4605040EAC100C9F8000000F04AF84E
:10110000D9F8001046F6F462C1F30311C0F60002EC
:10111000515C40F2000201F01F0120FA01F140F29F
:101120008800C2F200000068C2F20002116001B043
:10113000BDE8F043FFF7BCBC012001B0BDE8F0837F
:1011400040F2000041F20801C2F20000C4F20201C4
:101150000068096846F60472C1F30221C0F6000275
:10116000515C01F01F01C840704740F2000041F29D
:101170000801C2F20000C4F202010068096846F6E4
:101180000472C1F3C221C0F60002515C01F01F01DC
:10119000C840704741F20001C4F20201886810F0B3
:1011A0000C02C86805D00C2A27D100F003000128E2
:1011B00023D10868000703D4D1F89400000A01E0A5
:1011C0000868000946F60C7300F00F00C0F6000333
:1011D00053F82030002A184618BF00200C2A18BFE8
:1011E0007047C86800F0030002280FD0032804BF2E
:1011F00041F20023C0F27A030CE0042A1DD0082A31
:1012000020D141F20020C0F27A00704742F2004340
:10121000C0F2F403C868C0F30210CA680130C2F318
:101220000622C9685A43B2FBF0F0C1F341610222C1
:1012300002EB4101B0FBF1F0704742F20040C0F216
:10124000F400704700200023C8E700002DE9F043B8
:1012500081B0002800F05E8241F200060446C4F22C
:101260000206B068F168227800F00C08D00601F0A0
:10127000030728D42078C0075BD0B8F1080F51D0FD
:10128000B8F10C0F08BF032F4CD06568B5F5803F4F
:1012900007D03068B5F5A02F40F0798240F4802067
:1012A0003060306840F480303060FFF7E0FB054686
:1012B000306880033DD4FFF7DAFB401B64284FF011
:1012C0000300F5D927E2B8F1000F1BD0B8F10C0FDD
:1012D00008BF012F16D0A1693068002900F09F8156
:1012E00040F001003060FFF7C2FB05463068800720
:1012F00000F1A881FFF7BBFB401B02284FF0030061
:10130000F4D908E23068800703D5A069002800F00E
:101310000182206A3168090700F1DF80D6F8941055
:101320000909DBE03068800303D56068002800F01D
:10133000F181207880072CD5B8F1040F1BD0B8F1CB
:101340000C0F08BF022F16D0E1683068002900F0AA
:10135000E58140F480703060FFF789FB054600BFEF
:10136000306840050ED4FFF782FB401B02284FF087
:101370000300F5D9CFE13068400503D5E0680028C7
:1013800000F0C8817068216920F0F85040EA0160DF
:1013900070602078000760D42078400774D42078EB
:1013A000800600F18080A06A002800F046820228B2
:1013B00040F05A81F068E16A00F003028A4240F08E
:1013C0007781226B6FF00F0300F0700103EB0212C4
:1013D000914240F06D81616B00F4FE42B2EB012F4F
:1013E00040F06681A16B00F07842B2EBC16F40F033
:1013F0005F81E26B0023CFF6E07303EA025200F450
:10140000C001A2F50012914240F05281216C4FF0D0
:101410007E4202EA016100F0C06001F17E41884233
:1014200040F046813068800100F10782306840F06A
:1014300080703060F06840F08070F060FFF717FB5C
:1014400004463068800100F1F881FFF710FB001BB3
:1014500002284FF00300F4D95DE16169D6F89400E9
:10146000002900F0C78040F00100C6F89400FFF7A3
:10147000FEFA0546D6F8940080078DD4FFF7F7FAF8
:10148000401B0228F6D9B3E0B06DC00074D4B06D33
:101490004FF0010940F08050B065B06D00F0805011
:1014A000009000986AE0616AD6F89800002900F080
:1014B000178140F00100C6F89800FFF7D8FA0546FA
:1014C000D6F8980080073FF56EAFFFF7D0FA401BC3
:1014D00002284FF00300F3D91DE1316801F0F0015B
:1014E000884216D900F0FFFC002840F013813068D4
:1014F00040F0080030603068D4E9072120F0F000A7
:1015000008433060706820F47F4040EA0220706039
:1015100014E03168B8F1000F41F008013160316822
:1015200021F0F00141EA000131607168E26921F4C3
:101530007F4141EA0221716000F0E780FFF72AFE57
:10154000B16846F6F462C1F30311C0F60002515CC3
:1015500040F2000201F01F0120FA01F140F2880080
:10156000C2F200000068C2F200021160FFF7A0FAA8
:10157000002840F0D0807DE64FF0000947F20007D8
:10158000C4F200073868C00511D4386840F4807090
:101590003860FFF76CFA05463868C00507D4FFF7D6
:1015A00066FA401B02284FF00300F5D9B3E0A568A6
:1015B000012D08D0D6F89000052D40F0C18040F0F4
:1015C0000400C6F89000D6F8900040F00100C6F87C
:1015D0009000FFF74CFA054641F28837D6F89000A4
:1015E000800700F1CB80FFF742FA401BB842F5D9E3
:1015F000032090E020F00100C6F89400FFF737FACE
:10160000054600BFD6F8940080077FF5C5AEFFF70A
:101610002EFA401B02284FF00300F3D97BE020F0A4
:1016200001003060FFF723FA054600BF30688007ED
:101630007FF520AEFFF71BFA401B02284FF0030096
:10164000F4D968E0306840F0080030603068D4E9D0
:10165000072120F0F00008433060706820F47F40DC
:1016600040EA0220706005E6B8F10C0F52D03068F5
:1016700020F0807030603068000103D4F06820F002
:101680000300F060F0684FF6FF71CFF6EE6108409E
:10169000F060FFF7ECF904463068800140F1CD803E
:1016A000FFF7E5F9001B03284FF00300F4D332E005
:1016B000B8F10C0F2ED0306840012BD4306820F0E8
:1016C00080703060FFF7D3F905463068800177D528
:1016D000FFF7CDF9401B02284FF00300F5D91AE0BF
:1016E00020F00100C6F89800FFF7C1F9054600BFD9
:1016F000D6F8980080077FF556AEFFF7B8F9401B83
:1017000002284FF00300F3D905E000F0ECFB0028BD
:101710003FF414AF012001B0BDE8F08320F48070E5
:101720003060FFF7A4F90546306840057FF531AE1B
:10173000FFF79DF9401B02284FF00300F4D9EAE7B8
:1017400020F00100C6F89000D6F8900020F00400C8
:10175000C6F89000FFF78BF9002D05467FF43CAFEB
:1017600041F28837D6F89000800707D5FFF77FF958
:10177000401BB8424FF00300F4D9CCE7B9F1000F99
:101780003FF40DAEB06D20F08050B06507E620F458
:1017900080303060306820F480203060FFF767F9D7
:1017A000002D05467FF484AD06E0FFF760F9401B8D
:1017B00064284FF00300AED830688003F5D4B8E554
:1017C000F06848F28C01C0F29D1104F12C0700EA88
:1017D000010C8ECF6FF00F00D4E90F5400EB021014
:1017E0000022CFF6E07241EA0C0102EA05520843FA
:1017F000A2F500124FF07E4540EA032005EA046599
:10180000104305F17E4540EAC7602843F060306828
:1018100040F080703060F06840F08070F060FFF75A
:1018200026F904463068800107D4FFF720F9001B31
:1018300002284FF00300F5D96DE700206BE7411E49
:101840000020B0EB116F1CBF012070474EF2100258
:10185000CEF2000251604EF62351CEF20001F02389
:101860000B70072190601160704770477047704798
:1018700070B501680446C8690A6840F62F03D1F8BC
:1018800008E00340202B02F0200308D13BB1616E39
:10189000002900F035812046BDE87040084740F639
:1018A0000F0528420BD040F220150EF0010CC0F2BB
:1018B00000452A428CF001064ED1002E4CD0236EFA
:1018C0000240D60639D5012B37D11020086288682E
:1018D000400600F1B280B4F85800B4F85A20B4F8C9
:1018E0005A30002B00F00C81801A020400F00881AD
:1018F00051E8001F226821F4907142E800130BB1F7
:101900002168F5E7216851E8021F226821F00101F2
:1019100042E80213002BF5D12021E1670021216666
:10192000616600BF216851E8001F226821F01001A4
:1019300042E80013002BF5D1C4E0C00240F1C8809A
:101940001EF4800000F0C4804FF4801220460A622A
:10195000BDE87040FFF78ABFC50718BF12F4807555
:1019600007D001250D62D4F8805045F00105C4F878
:10197000805000F002054FF0010E8EEA5505354308
:1019800007D102250D62D4F8805045F00405C4F853
:10199000805000F004058EEA95052E4307D10426F9
:1019A0000E62D4F8806046F00206C4F8806053EA04
:1019B0000C0318BF0123060708D53BB108230B62AF
:1019C000D4F8803043F00803C4F8803003050BD509
:1019D00012F0806308D04FF400630B62D4F88030BB
:1019E00043F02003C4F88030D4F88030002B00F09E
:1019F00087801040800604D5626E12B12046904761
:101A00002168D4F88000896800F0280001F04001C6
:101A100040186FD0204600F09FFB2068816849067F
:101A200040F17D8050E8020F216820F0400041E83D
:101A30000202002A65D02068F4E7206F026853682C
:101A40009DB2002D5CD0B4F85800854258D2A4F85D
:101A50005A301268920632D451E8000F216820F4FF
:101A6000807041E800021AB1206850E8000FF5E7E5
:101A7000206850E8020F216820F0010041E80202CE
:101A8000002AF5D1206850E8020F216820F04000BC
:101A900041E80202002AF5D12020E06700202066FC
:101AA000206850E8000F216820F0100041E8000293
:101AB000002AF5D1206FFEF798FEB4F85800B4F86C
:101AC0005A10401A81B22046BDE87040FFF7CDBEE3
:101AD00010060DD4500613D551E8000F216820F0F0
:101AE000400041E80002FAB1206850E8000FF5E735
:101AF000A16ECDE62046FFF7BAFE0020C4F88000B4
:101B000070BD206F58B142F24911C0F600018163E7
:101B1000FEF78DFE0028F3D0206F816BBCE62046D7
:101B2000BDE87040FFF7A3BE20200021A06720463B
:101B3000A166BDE8704000F003B910B5A0B104463D
:101B4000806F28B9002084F87400204600F025F842
:101B50002420A0672068016821F00101016020466F
:101B600000F0C2FB012801D1012010BD606A10B154
:101B7000204600F04FFA2168486820F49040486001
:101B8000886820F02A008860086840F0010220463A
:101B90000A60BDE8104000F0A3BA10B59EB004463C
:101BA00019A81421FEF75BFB02A85C21FEF757FB86
:101BB000206843F60001C4F2010188422ED048F2A9
:101BC0000001C4F20001884261D12020029000206F
:101BD0000D9002A8FFF7CEF808B1FEF701FE41F222
:101BE0004C00C4F202000169462441F00101016188
:101BF000016901F0010101910199016841F00401BD
:101C000001600068082100F00400019001980320A1
:101C1000199040F60000C4F6000026E00120029072
:101C200000200A9002A8FFF7A5F808B1FEF7D8FD3A
:101C300041F24C00C4F202004169252441F4804184
:101C40004161416901F4804101910199016841F0CC
:101C5000010101600068072100F001000190019876
:101C60004FF4C06019904FF0904002221A92002267
:101C70001B920322CDE91C2119A9FEF703FE204681
:101C800002210022FEF766FF2046FEF754FF1EB039
:101C900010BD000080B5C36F202B07D14FF00103AA
:101CA00029B122B190F87430012B02D102231846D9
:101CB00080BD012380F8743000230366D0F800C093
:101CC00048F20003C4F200039C4503D0DCF8043062
:101CD0001B0203D400F008FC0023E8E75CE800CF17
:101CE000D0F800E04CF080634EE8003CBCF1000FFF
:101CF000F0D0036853E800CFF2E780B582B001214D
:101D000040F62002ADF8041040F6BC11C2F2000209
:101D1000C2F200019042009110D16A4644F655107B
:101D2000002101F0C5FA40F6200040F6BC11C2F2D5
:101D30000000C2F200010122FFF7ACFF02B080BD3B
:101D400070470000FEE740F25070C2F20000FFF75B
:101D50008FBD0000FEE70000FEE770472DE9F0436D
:101D600081B004460068154682680E46114018BFCF
:101D70000121A94215D0DDF82080994608F101071C
:101D80004FB1FEF774FEB8F1000F0CD0A0EB0900C4
:101D9000404508D820688168314018BF0121A94218
:101DA000EED1002007E0042084F84100606C40F090
:101DB00001006064012001B0BDE8F083F0B581B09E
:101DC00041F20007C4F20207FA680D469107044683
:101DD00012D0F868216800F0030088424FF001003B
:101DE00040F07F8000297CD0F868C0F30210616861
:101DF000013088420AD11DE02068032808D002285B
:101E00003ED0012802D13968890708D4012068E052
:101E1000396889035CBF39685FEA4131F6D5F968F2
:101E2000626821F073016FF00F0303EB02120843A5
:101E30001043F860386820F080603860FEF717FEC5
:101E4000064600BF3868000105D5FEF710FE801B6E
:101E50000228F7D93EE0BDB1386948F2FF01CFF65C
:101E6000FF11012D1AD101F1B46101402069002355
:101E7000CFF6E073A26803EA0050A0F5001016E068
:101E800039684905C2D5CAE7386948F2FF01C0F28E
:101E9000FF710140D4E90220C00608E001406069FA
:101EA0004FF07E43A26803EA006000F17E4041EA01
:101EB000022108433861386840F080603860FEF7DE
:101EC000D6FD05463868000106D4FEF7D0FD401B5C
:101ED0000228F7D9032004E0A06939690843386172
:101EE000002001B0F0BDB0B582B041F25805C4F297
:101EF000020529680446C9000FD4286840F08050C4
:101F00002860286800F0805001900198FEF798FE44
:101F1000296821F08051296001E0FEF791FEB0F5BB
:101F2000007F06D1812C08D30120A02C88BF02207D
:101F30000DE0802C03D9032009E0002007E0A4F184
:101F40007000B0FA80F04009802C08BF022042F2F5
:101F50000001C4F202010A6822F0070202440A608A
:101F6000096801F00701081A18BF012002B0B0BDCE
:101F7000704780B5FEF781FDBDE8804001F03BB9B8
:101F800080B596B005A84421FEF769F9684614218A
:101F9000FEF765F94FF40070FEF718FE18B1EFF385
:101FA000108072B6FEE74FF4807108911021022074
:101FB000099101210590CDE90F0011910A2112919B
:101FC0000721CDE91310159005A8FFF73FF920B1BF
:101FD000EFF3108072B600BFFEE70F2000900320E1
:101FE00001900020CDE90200049068460421FEF72C
:101FF000F9FF20B1EFF3108072B600BFFEE716B014
:1020000080BD4EF68850CEF20000016841F47001A8
:102010000160704780B5416ACA0708D00268D0F8ED
:1020200028C0536823F4003343EA0C0353608A0743
:1020300008D50268D0F82CC0536823F4803343EAF3
:102040000C0353604A0708D50268D0F830C05368C3
:1020500023F4802343EA0C0353600A0708D502687F
:10206000D0F834C0536823F4004343EA0C035360B0
:10207000CA0608D50268D0F838C0936823F48053A4
:1020800043EA0C0393608A0608D50268D0F83CC086
:10209000936823F4005343EA0C0393604A0614D573
:1020A0000268D0F840C05368BCF5801F23F4801349
:1020B00043EA0C03536008D1D2F804C0D0F844E0DE
:1020C0002CF4C00343EA0E035360090658BF80BDD9
:1020D0000168806C4A6822F400221043486080BD89
:1020E000B0B582B004460020C4F88000FEF7BFFC03
:1020F000216805460A6812070CD56FF07E4C204611
:102100004FF4001100222B46CDF800C000F054FA25
:1021100078B92168086840070DD56FF07E4C2046DD
:102120004FF4800100222B46CDF800C000F044FAA5
:1021300008B1032006E02020A067E06700202066A9
:1021400084F8740002B0B0BD806A0021A0F85A1073
:10215000A0F85210FFF78BBB016851E8001F02681E
:1021600021F4907142E80013002BF5D1016851E889
:10217000021F026821F0010142E80213002BF5D191
:10218000016E01290AD100BF016851E8001F0268F1
:1021900021F0100142E80013002BF5D12021C16786
:1021A0000021016641667047B0F85C200168C36F8A
:1021B000222B43D1B1F824C0436D02EA0C0223F86C
:1021C000022B4365B0F85A20013AA0F85A20B0F823
:1021D0005A20002A18BF704751E8001F026821F4F6
:1021E000907142E800130BB10168F5E7016851E80E
:1021F000021F026821F0010142E80213002BF5D111
:102200002021C16700214166026E012A18BFFFF735
:1022100074BD0166016851E8001F026821F01001D9
:1022200042E80013002BF5D10168CA69D20644BF09
:1022300010220A62B0F85810FFF717BB088B40F065
:102240000800088370470000B0F85C100268C36F94
:10225000222B43D1928C436D11401970416D013195
:102260004165B0F85A100139A0F85A10B0F85A1068
:10227000002918BF704700BF016851E8001F0268BD
:1022800021F4907142E80013002BF5D1016851E868
:10229000021F026821F0010142E80213002BF5D170
:1022A0002021C16700214166026E012A18BFFFF795
:1022B00024BD0166016851E8001F026821F0100189
:1022C00042E80013002BF5D10168CA69D20644BF69
:1022D00010220A62B0F85810FFF7C7BA108B40F00E
:1022E0000800108370470000B0B505462A69D5E99B
:1022F000021300680A436969D5F81CE011430268BB
:1023000046F6F314CEF6FF7441EA0E012240114363
:102310000160416848F2000C21F4405119434160CA
:10232000AA69C4F2000C60451CBF296A0A4381688F
:10233000102321F430611143816047F6FF71C4F22C
:102340000001884212DC44F20041C4F200018842DC
:102350001BD044F60001C4F2000188422AD141F2A8
:102360008801C4F2020109680B091BE0604513D023
:1023700043F60001C4F2010188421BD141F28801F9
:10238000C4F202010B6854A210E041F28801C4F2C9
:10239000020109688B0805E041F28801C4F20201DC
:1023A00009688B0A46F66872C0F6000203F0030162
:1023B00052F82130604542F20040C0F2F40011D0E2
:1023C000BEF5004F1DD1082B4FF0010100F27E80B9
:1023D000DFE803F005454E7C487C7C7C4C00FEF732
:1023E000AFFE41E0082B4FF0010100F26F80DFE803
:1023F00003F0056D1C6D166D6D6D1A00FEF7A0FEE5
:102400000FE0082B4FF0010160D8DFE803F005462C
:102410004F5F495F5F5F4D00FEF792FE42E0FEF7BF
:10242000B9FE10B94FE04FF400406A6802EB420178
:1024300088424FF0010149D31303984246D8010E58
:10244000000210EB520041F100010023FDF7BAFE3B
:102450004FF6FF42A0F54071C0F20F022FE0FEF7E9
:1024600084FE01E0FEF796FE10B92CE04FF4004028
:1024700069684A0802EB4000B0FBF1F04FF6EF72DA
:10248000A0F11001914220D84FF6F0710140C0F345
:1024900042002A680844D06015E0FEF766FE01E0BD
:1024A000FEF778FE10B90EE04FF4004069684FF671
:1024B000EF7200EB5100B0FBF1F0A0F1100191427E
:1024C00003D82968C860002100E0012100220846E5
:1024D0006A66AA66B0BD00BF0100000004000000EB
:1024E00002000000080000004165A0F85820A0F894
:1024F0005A2081680022426651B1B1F1805F0BD051
:10250000B1F5805F0CD1016921B940F2FF110AE0F9
:10251000016939B9FF2106E0016919B13F2102E0E3
:10252000002100E07F21A0F85C100021C0F880109D
:102530002221C167016851E8021F026841F00101D0
:1025400042E80213002BF5D182680169B2F5805F81
:1025500009D1E1B142F24921C0F6000141660021F2
:1025600080F8741008E042F24922C0F60002426688
:10257000002280F8742099B1016851E8001F0268B8
:1025800041F4907142E80013002BF5D112E042F2C1
:10259000A911C0F600014166002180F8741000BF47
:1025A000016851E8001F026841F0200142E8001371
:1025B000002BF5D1002070472DE9F04381B004468F
:1025C00000681546C2690E461140891BB1FA81F1B7
:1025D0004909A9421ED1DDF82080994608F101077A
:1025E00087B1FEF744FAB8F1000F15D0A0EB09004F
:1025F000404511D820680168490744BFC1695FEAB6
:10260000015121D4C1693140891BB1FA81F14909D5
:10261000A942E5D0002038E0206850E8000F21688A
:1026200020F4D07041E80002002AF5D1206850E87B
:10263000020F216820F0010041E80202002AF5D1D2
:102640002020A067E0671CE04FF40061016200BF3A
:1026500050E8000F216820F4D07041E800020AB170
:102660002068F5E7206850E8020F216820F001009B
:1026700041E80202002AF5D12020A067E067C4F8F3
:102680008000002084F87400032001B0BDE8F083CE
:1026900040F62000C2F20000FFF7EAB8FEE77047FC
:1026A0000020704780B5E3B19869D0B1B2F804C09A
:1026B000BCF1000F15D00020B3F828E0998B8E45AF
:1026C0000CD21168D3F818E011F800C0198D0EF87B
:1026D00001C0198D01311985B2F804C0013060457F
:1026E000EAD380BD70B540F20C04C2F20004256844
:1026F000A54208BF70BD002635F8080C40B335F878
:10270000061C35F8080CE9B135F8061C884217D1CB
:1027100000F067FD55F8041C35F8122C401A904261
:1027200016D955F8103C7BB135F8081C55F8180C33
:1027300055F80C2C984700280ED435F8141C11E0DD
:1027400035F8080C25F8060C00F04BFD45F8040C94
:102750002D68A542D0D10CE035F8081C35F8140CD2
:102760008142F1D155F8180CFDF779FD25F8086C78
:10277000EAE770BD00F02BBDB0B50229144608D0C1
:1027800001290FD0A1B99CB1D4E9000100F01BFDD3
:102790000CE06CB100F015FD054600F01CFDB5FB2A
:1027A000F0F002E024B100F016FD20600020B0BD82
:1027B0004FF0FF30B0BD00F010BD084611461A467C
:1027C00000F007BD084611461A4600F008BD80B566
:1027D00092B08C4640F6B811C2F200010968024678
:1027E0004FF0200E02AB084611466246CDF800E0DD
:1027F00001F069FB012804DB82B202A9002000F08D
:102800008FFE002012B080BD2DE9F04381B0DDF8CD
:1028100020800E4601460020B8F1000F00903ED007
:102820001C46154602B924B9099804F109028242EE
:1028300002D94FF0FF3032E0CB6833B16946002057
:1028400004229847DDF8009001E04FF00009FE27D0
:1028500088F80760661C08F108002946224688F8B7
:102860000070C8F80190A8F80560FDF7DFFC0721AB
:1028700011FA86F108208AB2022A10FA86F00CD3E7
:10288000022AA9F1020708D0023A08F1020300BFA8
:1028900013F8016B013A3744FAD108F8017001B01E
:1028A000BDE8F08380B58AB09C46092908D0072985
:1028B00012D111680223490AADF80810042104E07E
:1028C000117801238DF808100521009202AACDF895
:1028D00004C0FFF799FF00E000200AB080BD0000AF
:1028E000F0B599B004460020002918904FD0174643
:1028F000092A4CD31D46E3680E461BB118A90020D7
:10290000042298473078FE2841D1D6F80110189853
:10291000814218BF11F1010216D1B6F8050000F18D
:102920000802BA4233D8073082B2022A0FD3022AF1
:10293000A1F102010CD0023AB31C00BF13F8017BD5
:10294000013A3944FAD103E0013020D1E5E7FE2114
:10295000375CC8B2B84210D1F0791E9F04281AD053
:1029600006282FD12269B068F1681690179102B33A
:1029700006A90520904722691CE017A1CDE90010A7
:1029800019A125A20220F323029700F0A7FE4FF021
:10299000FF3019B0F0BD30892269400206904FF433
:1029A0000070079006F10A0008905AB106A90820A5
:1029B00007E00022306971690490059112B104A901
:1029C00006209047F17920460022002300950197C8
:1029D000FFF71AFFDDE700BF637263206572726F55
:1029E00072212564202564002E2E2F2E2E2F2E2EB0
:1029F0002F426162794F532F626F732F6D6F647531
:102A00006C65732F625F6D6F645F70726F746F635C
:102A10006F6C2E63000000005F6250726F746F6312
:102A20006F6C50617273650070B58CB0C469B92663
:102A3000E07A8DF82F6080B1607AA17A002200F0F0
:102A4000D8FB0DF12F012046012200F09DFC607A99
:102A5000A17A012200F0CDFB10E000216D4601912A
:102A600005F11400CDE902111821FDF7F8FB012052
:102A7000049000962078294600F055FC0A2000F0CA
:102A800091FB00200CB070BD80B5006C02290CD009
:102A9000012910D0A1B99AB1D2F804C08369116894
:102AA00003FB0CF202F04CFC08E04AB101698069BA
:102AB000B1FBF0F001E01AB180691060002080BD28
:102AC0004FF0FF3080BD70B58CB0C469AB26E07AA2
:102AD0008DF82F6080B1607AA17A002200F089FB26
:102AE0000DF12F012046012200F04EFC607AA17A00
:102AF000012200F07EFB10E000216D46019105F1FE
:102B00001400CDE902111821FDF7A9FB0120049062
:102B100000962078294600F006FC0A2000F042FBCF
:102B200000200CB070BD10B51C46006C1346224648
:102B300002F03EFD204610BD10B51C46006C134649
:102B4000224603F0CBFA204610BD00F0ADBB00F0EA
:102B5000ADBB2DE9F0478CB000699846C4690E46BC
:102B6000174601B93FB9DDF85090B8F1000F07D111
:102B7000B9F1000F04D0022528460CB0BDE8F0875B
:102B8000E07AF0B1607AA17A002200F032FB2EB137
:102B900027B1BAB22046314600F0F6FBB8F1000F7B
:102BA00018BFB9F1000F05D01FFA89F2204641463F
:102BB00000F0CAFB607AA17A012200F01AFB00251E
:102BC000DAE73078022F01904FF00100059010D322
:102BD000042F4DD3B1787078F278090241EA0040B1
:102BE0001044029002200990012006904FF0040A40
:102BF00005E000204FF0010A0290069009900025A0
:102C0000B8F1000F039507950A9519D0A7EB0A00B4
:102C1000B7EB0A0118BFC100012004910890CDF85C
:102C20002C90207801A900F07EFBB9F1000FC6D0EE
:102C30002078414600F06FFB032101EAE0759BE735
:102C4000B7EB0A073846049518BF012008900B9788
:102C5000207801A900F067FB002F3FF48DAF2078AA
:102C600006EB0A0100F067FB022101EA907583E799
:102C7000032581E770B540F26C04C2F200042568B8
:102C8000A54208BF70BD40F6A406C2F2000600BF10
:102C900055F8202C42B1A5F12400017B012903D174
:102CA00030608168103090472D68A542F0D170BD2A
:102CB00070B540F27404C2F200042568A54208BF52
:102CC00070BD002655F8180CC0B115F8100C01287D
:102CD00014D100F086FA55E90312401A90420DD93A
:102CE00055E90610884715F8040C20B100F079FA70
:102CF00045F80C0C02E005F8106C00BF2D68A542E9
:102D0000E0D170BD10B5022813D840F2944100EB19
:102D10004000C2F2000101EB8000044614F8011FDC
:102D200039B1406800F018F8207810B10020207008
:102D300010BD4FF0FF3010BD022884BF4FF0FF30B0
:102D4000704740F2944300EB4000C2F2000303EBF3
:102D50008000406800F03EB880B582B0022802D9F9
:102D60004FF0FF3021E040F2B84200EB0011C2F218
:102D7000000252F82130D3B146F64871C0F6000186
:102D800051F820C047F29130C0F6000047F29A3166
:102D90000090C0F600010BA2022040F21F13CDF8F4
:102DA00004C000F09BFC6FF0FE0002B080BD02EB9F
:102DB0008100C16819B102B0BDE8804008476FF0DA
:102DC000FD00F2E762446576696365436C6F736585
:102DD0000000000080B582B0022802D94FF0FF3019
:102DE00021E040F2B84C00EB001EC2F2000C5CF88F
:102DF0002E30D3B146F64871C0F6000151F820C01C
:102E000047F29130C0F6000047F29A310090C0F6C8
:102E100000010BA2022040F23513CDF804C000F0EF
:102E20005DFC6FF0FE0002B080BD0CEB8E0003690C
:102E30001BB102B0BDE8804018476FF0FD00F2E71B
:102E40006244657669636543746C00002DE9F04F58
:102E500085B040F2B840C2F20000CC21FDF7FFF986
:102E600047F6287647F62070C0F60006C0F6000048
:102E700046F6547946F6487BB042C0F60009C0F6E3
:102E8000000B23D047F6207440F2B84AC0F6000485
:102E9000C2F2000A00205546002700BF19F80710AB
:102EA000227891420AD100F1010868625BF827009C
:102EB0006168286228468847286040460137032F0A
:102EC00005F14405EAD10834B442E3D147F620784D
:102ED00047F60870C0F60008C0F60000404522D052
:102EE00047F6087440F2B84AC0F60004C2F2000A7D
:102EF00000205546002700BF19F80710227891429C
:102F000009D1461C68625BF8270061682862284680
:102F10008847286030460137032F05F14405EBD17F
:102F200008344445E4D147F29A3A47F2D53627A00F
:102F3000C0F6000AC0F6000623A700900320514601
:102F40003246AD23019700F0C9FB40F2B840C2F20F
:102F5000000047F2833500F1200400274FF0FF38CE
:102F60000FF28009C0F60005206858B154F8201C03
:102F70000095CDE90201032051463246B623019760
:102F800008E000BF8DE8A002032051463246B2237C
:102F9000CDF80C8000F0A2FB0137032F04F14404AC
:102FA000E2D147F29A3147F2D53211A7C0F60001BB
:102FB000C0F600020320B823009700F08FFB00202A
:102FC00005B000F017B800BF646573000D0A6465B2
:102FD000765F6E6F09092531367309737461746504
:102FE0000D0A00006E6F20647269766500000000B3
:102FF0000D0A000030BCBDE8C08F000080B582B073
:10300000022802D94FF0FF3020E040F2B84200EB36
:103010000011C2F2000252F82130CBB146F64871DD
:10302000C0F6000151F820C047F29130C0F6000010
:1030300047F29A310090C0F600010BA20220DB2378
:10304000CDF804C000F04AFB6FF0FE0002B080BD76
:1030500002EB8100816819B102B0BDE880400847E9
:103060006FF0FD00F2E700BF624465766963654F6B
:1030700070656E0010B582B002284FF0FF3C20D87A
:10308000FAB140F2B84E00EB001CC2F2000E5EF83E
:103090002C40CCB146F64871C0F6000151F82040F2
:1030A00047F29130C0F6000047F29A310090C0F626
:1030B00000010CA20220F223019400F00FFB6FF03C
:1030C000FE0C604602B010BD0EEB8C00D0F818C0AC
:1030D000BCF1000F03D002B0BDE8104060476FF0B4
:1030E000FD0CEEE7624465766963655265616400D4
:1030F00010B582B002284FF0FF3C21D802B340F255
:10310000B84E00EB001CC2F2000E5EF82C40D4B1A9
:1031100046F64871C0F6000151F8204047F2913060
:10312000C0F6000047F29A310090C0F600010DA2EF
:10313000022040F20913019400F0D0FA6FF0FE0C67
:10314000604602B010BD0EEB8C00D0F814C0BCF18C
:10315000000F03D002B0BDE8104060476FF0FD0CD7
:10316000EEE700BF6244657669636557726974650E
:1031700000000000B0B547F6087447F6F860C0F6E6
:103180000004C0F60000A04209D047F6F865C0F67A
:10319000000500BF55F8040B8047AC42FAD100206F
:1031A000B0BD000081B040F27C01C2F200010968AC
:1031B000484300900098411E00280091FAD101B0C8
:1031C000704700F04EBB00F053BB00F0A0BB00F016
:1031D000ABBB00F0B3BB00F0D2BB00F0D3BB00F040
:1031E000E1BB40F2F860C2F200000068704700F0F6
:1031F00050BC00F061BC40F2F860C2F2000001680F
:1032000001310160006800B1704740F2FC60C2F219
:1032100000000168013101607047000000000000FB
:10322000F0B583B040F27C07C2F200073C6848F278
:10323000A060C0F201006043029000200190009065
:1032400040F2F860C2F200000168019102994A1E42
:1032500000290292FAD10068009000980199401A62
:10326000FDF701F99FED0E0B02460B4651EC100BDA
:10327000FDF78AF8054620460E46FDF7F4F80246AB
:103280000B4628463146FDF70AF8FDF7F9F8386095
:1032900003B0BDE8F04000F045B900BF00BF00BF7B
:1032A000000000000000594000F01BBC00F01DBCF5
:1032B00010B540F2040CC2F2000CDCF8004000BF74
:1032C00064450ED034F80C3C834208D114F80A3C13
:1032D0008B4204D154F808ECBEF1000F04D12468ED
:1032E000EEE74FF0FF3010BD54F8043CF0470020EB
:1032F00010BD68B1416859B140F20401C2F2000149
:103300000A6840F80C2F5060416008600020704748
:103310004FF0FF30704718B911B1002000F0E8BB42
:103320004FF0FF30704718B911B1002000F01ABCFF
:103330004FF0FF30704718B911B1002000F07EBC8B
:103340004FF0FF307047000070B5064600284FF080
:10335000FF3010D00D4671B13078144601280BD1E2
:1033600044B100BF3046FF2100F02CF8013C05F8C5
:10337000010BF7D1002070BD304629462246BDE83A
:10338000704000F091BC000070B5064600284FF078
:10339000FF300FD00D4669B13078144601280AD1AC
:1033A0003CB100BF15F8011B304600F00BF8013CA2
:1033B000F8D1002070BD304629462246BDE8704055
:1033C00000F086BC2DE9F04F85B060B30C46017863
:1033D00001292AD1B0F8019090F807B0B0F8051093
:1033E000B0F8038090F808A05E464FEA1920BBF1C0
:1033F000000F18BF012601904FEA18200D0ACFB226
:103400000090384629463246FFF7F3FEBAF1000F26
:10341000029610D0BBFA8BF0420938462946049236
:10342000FFF7E7FE08E0002439E0214605B000F090
:103430003AB800F061BC049604984FF0000A80F09E
:1034400001000390DDE9006B5FFA88F85FFA89F903
:1034500004F0800240463146FFF7CBFE039A38461F
:103460002946FFF7C6FE48465946FFF7C0FE00282A
:1034700018BF0120049A40EA440438462946FFF761
:10348000B8FEBAF1070F0AF1010AE1D3DDE9020241
:103490000499814203D038462946FFF7AAFEE0B2DC
:1034A00005B000F005B830BCBDE8C04FFFF7C1BFA4
:1034B00030BCBDE8C08F0000B0B540F20C05C2F2D0
:1034C00000052A680C4600BFAA4205D012F8301C3D
:1034D00081421AD01268F7E7BCB1A169A9B1207086
:1034E000A07142F2A56044F655122146C0F60000D4
:1034F00021F8042FC4E90204002020856085E062E1
:103500000846FFF7F6FE18B1B0BD4FF0FF30B0BD72
:10351000286844F8300F4460002065602C60B0BD1E
:1035200000F00CBC704700002DE9F0418AB0FFF7B5
:1035300077FE47F22A3047F25B3447F27D35C0F61A
:103540000000C0F60004C0F60005009003202146EC
:103550002A4640F239134FF0030800F0BFF847F253
:103560006626C0F60006032021462A464FF49D73C6
:10357000009600F0B3F847F2C826C0F60006032014
:1035800021462A4640F23B13009600F0A7F847F286
:103590009726C0F60006032021462A464FF49E7364
:1035A000009600F09BF847F23526C0F6000603208F
:1035B00021462A4640F23D13009600F08FF847F26C
:1035C000F926C0F60006032021462A464FF49F73D1
:1035D000009600F083F847F20426C0F600060320A8
:1035E00021462A4640F23F13009600F077F819A6CC
:1035F000032021462A464FF4A073009600F06EF88F
:1036000021A008900620012108220C23152724A6BA
:103610000FF2800CCDE90067CDE90233CDE904213A
:103620000690032021462A4640F24313CDF81CC0E1
:1036300000F054F824A00090032021462A464FF4BD
:10364000A273CDF8048000F049F80AB0BDE8F0415B
:10365000FFF7FCBB2020202020202020202020203D
:10366000202020202020202020285F202F20202004
:10367000202020202020202020202020202020204A
:1036800020200D0A0000000030303A34303A323544
:103690000000000053657020313920323032330091
:1036A00048573A25642E25642E25642046573A252E
:1036B000642E25642E256420434F4D50494C453AD5
:1036C00025732D25730D0A00646576696365206E88
:1036D000756D6265723A25640D0A00002DE9F043AC
:1036E00083B0032871D840F28458C2F2000804461F
:1036F0000F4640464FF4807199461646FCF7AFFDE1
:10370000032C01D1002749E031A032A1095D055DFC
:1037100088F800103A20690788F8010001D40227D0
:1037200015E03846FCF7A6FDC4B257FA80F00A2C23
:1037300084BFA0F10A070A2408F102003946224694
:10374000FCF774FD04EB0800E71C20218170A8073A
:103750000FD53046FCF78EFD044608EB0700E2B2B9
:103760003146FCF763FD57FA84F0471C202108F826
:103770000010E80712D018A101A84A4602F0F2FE94
:10378000002822D4044608EB070001A92246FCF7D2
:103790004DFDE019471C202108F800100A9A0BABD8
:1037A00008EB0700C7F1FF01009302F0EFFE0028CD
:1037B0000BD440F28454C2F200042046FCF75AFDB8
:1037C00082B200202146FFF7ABFE03B0BDE8F083D4
:1037D00000030700495745002564000002280CD863
:1037E00040F2944200EB4000C2F2000202EB800083
:1037F000427812B18160002070474FF0FF3070476F
:1038000070B5436A46F6587243F6010CC0F60002E2
:103810000021C0F6000C02EB830242F2757342F203
:10382000797442F2B775816241630164C0F60003A6
:1038300042F2BB7EC0F60004C0F6000542F2C57637
:10384000C0E9001C00F11001C0F6000EC0F6000631
:10385000C0E9025381E85040C261FFF7B6FCC017CF
:1038600070BD40F6B010C2F2000000687047000062
:10387000F0B540F6B013C2F200031A6832B947F24D
:10388000E052C1F6FF72128892021A6040F2FF7392
:10389000984300EBC123934233D842F21002C4F2A2
:1038A00002021368DB032CD449B34FF6050E022441
:1038B000012500234CF2FF3CCFF6FE7EC0F201044E
:1038C000C0F20B05C2F800C0566806EA0E0646EACA
:1038D0001026264356602E461768013E18BF17F47F
:1038E0008037F9D1C2F800C05768012E27F00207CF
:1038F000576009DB01338B4200F50060E2D1002004
:10390000F0BD4FF0FF30F0BD6FF00100F0BD47F2A9
:10391000E050C1F6FF70008840F6B0128102C2F29A
:10392000000200201160704742F21401C4F202014B
:10393000086840F0004200200A60704710B5144645
:1039400040F6B012C2F20002136833B947F2E053F6
:10395000C1F6FF731B889B02136031B100F1006256
:10396000101903F10063984202D94FF0FF3404E0CC
:10397000084611462246FCF759FC204610BD4FF47C
:103980000060704742F2080140F22310C4F20201C5
:10399000C4F2675048F6AB120860CCF6EF52002034
:1039A0000A6070472DE9F04140F6B015C2F20005FB
:1039B0002C68034634B947F2E050C1F6FF70008826
:1039C00084022C6000294FF0FF3058D003F10063CF
:1039D00013F0070618BFBDE8F081981804F10066DF
:1039E000B0424ED842F21000C4F202000668F6035C
:1039F00047D402F1070C5FEADC0E3ED000224CF205
:103A0000FF3800BFD500AF1DEE1DCF5D8E5D6C1D74
:103A10003F040C5D47EA06662F1DCF5D46EA04248D
:103A20003C44AF1CEE1CCF5D8E5D01354D5D3F0407
:103A300047EA066646EA052511F83260C0F80080BC
:103A40004768354447F0010646601D6042F20105B3
:103A50005C6000BF013D066818BF16F48034F9D1E0
:103A6000C0F800804468012D24F0010444600CDBA0
:103A70000132724503F10803C4D12CF00700BDE800
:103A8000F0814FF0FF30BDE8F0816FF00100BDE83C
:103A9000F081024607284FF000000CD001F0FE0331
:103AA000102B08BF704790021022C4F60002105875
:103AB000C84000F001007047072811D041F0010311
:103AC000112B08BF70470123002A40F2180203FAA5
:103AD00001F14FEA8020C4F6000208BF090411502A
:103AE0007047EFF3108072B6704762B670470000FF
:103AF00080B510B14FF0FF3080BD41F20800CAF22E
:103B00000000D0F810C08268C36812F1010E4FF0B7
:103B1000010262F39B63C360C0F810C00ED34FF480
:103B2000801100BF0268920701D40139FAD14168BF
:103B300021F002014160002080BD00BF4FF48013DE
:103B4000026812F0060F03D1013BF9D107E000BF74
:103B5000027EBEF1010E01F8012BEFD1DFE76FF01D
:103B6000020080BD10B510B14FF0FF3010BD41F222
:103B700008004FF48012CAF2000000BF03689B06E1
:103B800004D5013AFAD16FF0010010BDD1F81CC084
:103B9000BCF1000F02D08A6A013A8260C268002339
:103BA000CFF2800313408A69BCF1000F0CF0030EC2
:103BB00018BF43EA0E635AB14C6A920392B2D1F82D
:103BC00008E01A4304F0030342EA0343C0F814E098
:103BD000D1F814E0BEF1000F08D00C6A0EF0030219
:103BE00043EA822204F0030342EA03330A6932B152
:103BF00002F003020C7843EA022242EA0403CA6894
:103C0000BEF1000F02F01F0243EA8242C2601CBFF5
:103C100049680161BCF1000F0ED14FF4801100BF63
:103C20000268920704D40139FAD16FF0020010BD86
:103C3000416821F002014160002010BD80B510B143
:103C40004FF0FF3080BD41F20800CAF20000D0F80A
:103C500010C08268C36812F1010E23F04063C36094
:103C6000C0F810C00ED34FF4801100BF0268920755
:103C700001D40139FAD1416821F0020141600020EC
:103C800080BD00BF4FF480130268520702D4013B8D
:103C9000FAD106E011F8012BBEF1010E0276F1D146
:103CA000E1E76FF0020080BD70B5064600284FF0D6
:103CB000FF300CD00D4651B114463AB13046FF21C9
:103CC00000F01AF8013C05F8010BF7D1002070BD97
:103CD00070B5064600284FF0FF300BD00D4649B1B5
:103CE000144632B115F8011B304600F005F8013CCE
:103CF000F8D1002070BD000010B14078022801D931
:103D00000020704746F63C72C0F6000252F82000D0
:103D1000426842F4805242600268520604D402684B
:103D200042F04002026000BF82689207FCD5017336
:103D30008168C907FCD0007B7047000010B54FF0C8
:103D4000000E0428844638BF4FF0010E4FF0FF30BC
:103D500071B3ACF10803B3FA83F35B0953EA0E03C2
:103D600008BF10BDBCF1080F04D148F20000C4F236
:103D7000000005E046F67870C0F6000050F82C0010
:103D8000D2B140F2010C4FF0000EC0F20B0C6346B2
:103D9000C469640604D4013B022BF9D209E000BFD8
:103DA00011F80E300EF1010E96458362EFD11046E8
:103DB00010BD6FF0010010BD002010BDB0B502298C
:103DC0003ED840F29003C2F200031A78002A40F273
:103DD0009442C2F2000207D10125002454550C354B
:103DE000252DFBD101251D70002300BFD5186C784F
:103DF000012C02D16D68854222D00C33242BF5D1E1
:103E0000151D002415F8032C2AB10134032C05F1EB
:103E10000C05F7D114E005F8041C012105F8031C7A
:103E20000021C5E90001FFF7E9F8B0F1FF3F09DC27
:103E3000FE3007D015F8030C10B1002005F8030C74
:103E40004FF0FF342046B0BD2DE9F04138B30446B1
:103E500047F6F86747F6EC60C0F60007C0F60000CA
:103E6000B84214D0266847F6EC658846C0F60005CF
:103E700028683146FCF705FA18B10C35AF42F7D186
:103E800005E0C4F81080D5E90110C4E90210A0686B
:103E900028B1E068002818BF2046BDE8F081002066
:103EA000BDE8F08109290BD850B14AB180B5D0F8EE
:103EB0000CE000F1040C6046F446BDE88040604729
:103EC0004FF0FF30704760B159B180B582B0DDF876
:103ED00010C0D0F808E00430CDF800C0F04702B0C0
:103EE00080BD4FF0FF30704770B508280C4617D0E2
:103EF00006280AD0052834D140F22C70216C626C5F
:103F0000C2F20000816002612BE040F22C70216857
:103F10006268C2F20000C0E900120021C16020E026
:103F200040F22C75C2F20005E9682068814218D180
:103F300040F28006C2F200066A6830681144FFF75A
:103F40004DFC30686268A16800F055FA6068E96865
:103F5000014440F6B410C2F200000068E96000F0CD
:103F6000B3F8002070BDB0B514460A4601460228D9
:103F70004FF0FF301CD8DAB101EB410040F2944120
:103F8000C2F2000111F8203043F00203022B10D1DD
:103F900001EB8005687860B155F8081F234655F895
:103FA000040CFFF767F8002802D42968214429602F
:103FB000B0BD4FF0FF30B0BD2DE9F0410446002008
:103FC000A0626063D4E9083246F65C7143F6B97CBE
:103FD00002EB4205C0F60001C0F6000C01EB8501C2
:103FE00042F6C72542F6292E42F68926C0F600057C
:103FF000C0F6000EC0F6000642F6273842F6393702
:10400000C4E9000C04F11000C0F60008C0F6000777
:10401000C4E9025E80E8C00140F28460E161C2F25E
:104020000000742102FB01055143256443502046E2
:104030006A602C63FEF747FD284600F09FFE0546A8
:104040000028204618BF4FF0FF35FEF7EDFC28464C
:10405000BDE8F08190B140F26401C2F200010A684B
:104060008A420BD0A2F10803834201D01268F7E71D
:10407000016819B101390160002070474FF0FF302D
:104080007047000010B5E2B140F2640EC2F2000EBB
:10409000DEF800C0F44508D0634600BFA3F1080471
:1040A00094420FD01B687345F8D1C2E90010104646
:1040B00040F808CFCCF80400C2F80CE0CEF80000BD
:1040C00000E00022104610BD60B140F26401C2F26F
:1040D00000010A688A4205D0A2F10803834204D095
:1040E0001268F7E74FF0FF307047D0E900129142B5
:1040F0003CBF01310160002070470000B0B54FF0B7
:10410000000C49B343B340F26C0CC2F2000CDCF873
:1041100000E0E64507D07446A4F124059D421AD07C
:1041200024686445F8D10DA4002818BF0446012076
:10413000C3E90041187300209A601882C3E90500A2
:10414000C3E90700184640F824EFCEF80400C3F88E
:1041500028C0CCF800009C466046B0BD4E554C4C83
:104160000000000080B540F21401C2F200010020FE
:10417000FFF7A2F940F24C00C2F200000021FFF765
:1041800063FE40F6B811C2F20001086044F2DD118E
:1041900040F200730EA0C0F60001C2F2000300223C
:1041A000FFF7ACFF40F24072C2F200020120002192
:1041B000FFF768FF40F6B411C2F20001086040F258
:1041C0002C70C2F200001421FCF749F8002080BDD9
:1041D0007472616E7366696C650000002DE9F04FC2
:1041E0009BB00446008840F6B4168B28C2F2000645
:1041F00000F09D80882876D038B100202080C4E966
:104200000100C4E903000320EFE040F22C79C2F280
:10421000000940F2800AD9F80010C2F2000ADAF868
:10422000000051B3421C28D1D9F808202AB308460F
:104230000221FFF7C3FD411CCAF800006AD04FF409
:10424000805100916A460121FEF776FD0098D9F869
:104250000410D9F80820B1FBF0F141430391811813
:104260000139B1FBF0F1DAF80000049103AA002152
:10427000FEF762FDDAF8000009E041B9411C06D002
:10428000FEF740FD4FF0FF30CAF8000042E0411C4D
:1042900040D0D9E9021240F6B81B8A42C2F2000BA4
:1042A00059D23068FFF7D6FED9F80C004FF40071F0
:1042B0000B90DBF800000BAD0C9107212A46402340
:1042C000FFF7F0FD82B2002029460025FFF728F90C
:1042D000E06830B9FEF785FF231D40F6B8310122B2
:1042E00027C3882020803068FFF7B4FE30B1FEF786
:1042F00078FFD4E90112401A904275D3FEF771FF9E
:10430000D4E90112401A904224BF6FF001002061ED
:104310000020E060E06840B9FEF763FF04F1040CA0
:10432000C821012200238CE80F008B202080FEF79B
:1043300058FFD4E90112401A904255D3FEF751FFBD
:10434000D4E90112401A904224BF6FF001002061AD
:104350000020E06059E700210191D9F804100D22F6
:104360000092FFF73BFAD9F80800C0B14FF00008FF
:1043700003AD6E46A0EB0807DAF80000202F28BF37
:10438000202729463A46FFF7EEFD304629463A46B1
:1043900000F07BF8D9F80800B8444045EAD8019805
:1043A000D9F81010411A18BF0121DAF800008DF871
:1043B0002C10FEF7A7FC4FF0FF30CAF80000DBF826
:1043C000000000210BADC9F8001009212A46402346
:1043D000FFF768FD82B200202946FFF7A1F840F6FA
:1043E000B416C2F2000695E700201BB000F000B83A
:1043F00030BCBDE8C08FB0B514460A46014602285D
:104400004FF0FF301BD8D2B101EB410040F2944194
:10441000C2F2000111F82030013B012B10D801EB52
:104420008005687860B155F8081F234655F8040CDC
:10443000FEF75EFE002802D4296821442960B0BD41
:104440004FF0FF30B0BD000010B5002B18BFC043C7
:10445000CAB148F2203CCEF6B85C00BF0B78013AF6
:1044600058404FF0000E00BF8CEA5003C40708BF4D
:1044700043081846BEF1070F0EF1010EF4D3002ACF
:1044800001F10101EAD1C04310BD40B339B332B3E9
:10449000B0B543780546002B18BF012303D06868E8
:1044A00095F800C013E095F800C0ACF1020E5FFA79
:1044B0008EF00C2808D846F6C0604FFA8EFEC0F683
:1044C000000050F82E0000E0002001246C70BCF1C8
:1044D0000D0F08BFFFF7B8FF6860BDE8B040704738
:1044E00086B0FCF7D7FAFDF74BFD002741F24C00F0
:1044F0000597C4F20200016840F6000841F004018B
:1045000001600168C4F6000801F0040100910099FF
:104510000168002241F002010160016801F002011E
:1045200000910099016841F001010160016801F00A
:10453000010100910099016841F0080101600068E3
:104540004FF4015100F00800009000984046FCF73D
:1045500088FAA8F5806528464FF4004101224FF4FF
:10456000004A4FF0010BFCF77CFA40468021012203
:10457000FCF777FA4FF4005001AECDE9010B40464D
:104580003146CDE90377FCF77DF94FF00C09284659
:104590003146CDE90197CDF80CB0FCF773F9022450
:1045A00028463146CDE901AB03970494FCF76AF93C
:1045B000C020CDE9010B40463146CDE90374FCF73C
:1045C00061F940F6200043F60001C2F20000C4F297
:1045D00001014FF4E13280E88600C0E90377C0E9C9
:1045E0000597C0E907774762FDF7A7FA18B1EFF31F
:1045F000108072B6FEE740F2D47041F20001C2F2C0
:104600000000CAF2000104224FF44075C0E900170F
:1046100000F10801102316264CC1C0E90557C0E976
:104620000777FCF715FB20B1EFF3108072B600BFDF
:10463000FEE7FEF779FF40F6200040F6BC11C2F21B
:104640000000C2F200010122FDF724FBFFF78AFD02
:10465000FEF790FDFCE700002DE9F04F85B0A8B310
:104660001F46934681460D46012B02D0B7F5807F49
:1046700053D199F83400002873D0D9F810000BEB0F
:104680000501814240F2958047F2C46447F25C75AF
:1046900047F28947C0F60004C0F60005C0F60007DF
:1046A000032021462A4640F296230097FFF716F88A
:1046B00047F29737C0F60007032021462A4640F20A
:1046C00096230097FFF70AF8052409E147F25C7486
:1046D00047F2CA3047F2045147F2C465C0F60004FD
:1046E000C0F60000C0F60001C0F60005CDE90010DC
:1046F00001202946224640F28E230294FEF7EEFF67
:1047000047F29737C0F6000703202946224640F2B9
:104710008E230097FEF7E2FFFEE747F25C7447F254
:10472000045147F2C465C0F600046FA0C0F6000152
:10473000C0F60005CDE900100120294622464FF4BD
:1047400024730294FEF7CAFF47F29737C0F60007BA
:104750000320294622464FF424730097FEF7BEFF3C
:10476000FEE747F25C7447F2867047F2045147F265
:10477000C465C0F60004C0F60000C0F60001C0F633
:104780000005CDE9001001202946224640F292237F
:104790000294FEF7A3FF47F29737C0F60007032005
:1047A0002946224640F292230097FEF797FF00BF6A
:1047B000FEE7D9F8281009F1200609B130468847EC
:1047C000BBF1000F4FF0000400F081800E9840F61E
:1047D000A804C2F200040490039600BF48460121D9
:1047E00000F070F9002871D199F83500022121708C
:1047F00000284FF004004FF000024FF0000108BF06
:10480000032000BFD34303440131DB00A618CAB222
:1048100025FA03F390427370F4D899F83500052611
:104820000028B5FBF7F008BF04267843401B07EBD0
:104830000008C34598BFD8460499A0194246BA4615
:10484000FBF7F4FCD9F824C0039808EB06022146D4
:10485000002300264F460096E04778B9384601F01D
:10486000F1FDB94688BB0498039EBBEB080B454499
:10487000404457460490B1D1002428E047F2C46474
:1048800047F25C7547F2DA4CC0F60004C0F600054A
:104890008146C0F6000C032021462A4640F2CB2375
:1048A000CDF800C0FEF71AFF47F2973CC0F6000CA7
:1048B000032021462A4640F2CB23CDF800C0FEF764
:1048C0000DFF039E4C46B94601E0039E0446484650
:1048D000002100F0F7F8D9F82C1009B130468847CC
:1048E000204605B000F014B877726974655F67728E
:1048F000616E203D3D2031207C7C2077726974659B
:104900005F6772616E203D3D203235360000000049
:1049100030BCBDE8C08F0000B0B586B09C461346E1
:104920005A228DF813200A0C8DF814200A0A8DF8EB
:104930001520FF228DF816108DF8172080B1B1F1E7
:10494000807F36D2002B5AD0456A002D7DD0203092
:104950000DF113010522CDF800C0A84706B0B0BD87
:1049600047F62E6447F2CA3047F2045147F63D65D8
:10497000C0F60004C0F60000C0F60001C0F6000555
:10498000CDE900100120294622464FF4C27302945B
:10499000FEF7A4FE47F2973CC0F6000C0320294620
:1049A00022464FF4C273CDF800C0FEF797FE00BF59
:1049B000FEE747F62E6447F2045147F63D65C0F620
:1049C000000435A0C0F60001C0F60005CDE90010D6
:1049D00001202946224640F285130294FEF77EFE0E
:1049E00047F2973CC0F6000C03202946224640F2CD
:1049F0008513CDF800C0FEF771FE00BFFEE747F655
:104A00002E6447F2045147F63D65C0F600042AA023
:104A1000C0F60001C0F60005CDE9001001202946CE
:104A200022464FF4C3730294FEF758FE47F2973CB8
:104A3000C0F6000C0320294622464FF4C373CDF87C
:104A400000C0FEF74BFE00BFFEE747F62E6447F2BC
:104A5000045147F63D65C0F6000413A0C0F60001FE
:104A6000C0F60005CDE9001001202946224640F29B
:104A700087130294FEF732FE47F2973CC0F6000C13
:104A800003202946224640F28713CDF800C0FEF7E6
:104A900025FE00BFFEE700BF61646472203C203148
:104AA0004C203C3C20323400666C6173682D3E73B0
:104AB00070692E7772000000726561645F627566CE
:104AC000000000002DE9F04184B0C0B10546062089
:104AD000002908BF04208DF80E006F6A05F120063A
:104AE00000200C4600900DF10E01304601220023FB
:104AF0004FF00108B84750B304B0BDE8F08147F269
:104B0000F66447F2CA3047F2045147F2C465C0F672
:104B10000004C0F60000C0F60001C0F60005CDE9B3
:104B2000001001202946224640F2D6330294FEF7B7
:104B3000D5FD47F29737C0F60007032029462246E5
:104B400040F2D6330097FEF7C9FD00BFFEE705200F
:104B50006F6A8DF80F000DF10F010DF10D03304656
:104B60000122CDF80080B847002CC5D00028C3D161
:104B70009DF80D0080071ED447F2C46447F2F66525
:104B8000C0F60004C0F600050CA7032021462A4603
:104B90004FF47B730097FEF7A1FD47F29737C0F6FD
:104BA0000007032021462A464FF47B730097FEF747
:104BB00095FD0220A0E700209EE700BF4572726FBE
:104BC000723A2043616E277420656E61626C6520C5
:104BD0007772697465207374617475732E000000B8
:104BE0002DE9F04184B0F0B1044690F8340000287B
:104BF00041D0A16A04F1200509B128468847204622
:104C00000121FFF75FFF0646002840F09280A08A4E
:104C1000C72100078DF80C1055D4676A002603A938
:104C2000284601225BE047F24C7447F2CA3047F253
:104C3000045147F2C465C0F60004C0F60000C0F697
:104C40000001C0F60005CDE90010012029462246EA
:104C50004FF4E7730294FEF741FD47F29737C0F631
:104C600000070320294622464FF4E7730097FEF71A
:104C700035FD00BFFEE747F24C7447F2867047F2FD
:104C8000045147F2C465C0F60004C0F60000C0F647
:104C90000001C0F60005CDE900100120294622469A
:104CA0004FF4E8730294FEF719FD47F29737C0F608
:104CB00000070320294622464FF4E8730097FEF7C9
:104CC0000DFD00BFFEE748F29400ADF80D009A20FC
:104CD000676A8DF80F00002603A9284604220023E6
:104CE0000096B847064600B347F2C46747F24C78CF
:104CF000C0F60007C0F600080FF2500C032039463A
:104D000042464FF4F773CDF800C0FEF7E7FC47F2D8
:104D1000973CC0F6000C0320394642464FF4F77327
:104D2000CDF800C0FEF7DAFC03E0204601F08AFB74
:104D3000064620460021FFF7C5FEE16A09B1284674
:104D40008847304604B0BDE8F08100BF4572726FFD
:104D5000723A20466C6173682063686970206572DE
:104D60006173652053504920636F6D6D756E696383
:104D7000617465206572726F722E00002DE9F04338
:104D800087B088B3044601F091F90546002850D059
:104D90000020216884F8340047F2AF40C0F60000DC
:104DA000CDE9000147F2C46147F2E872C0F60001A4
:104DB000C0F6000203206F236F24FEF78FFC47F23A
:104DC000973747F2C46147F2E872C0F60007C0F6B1
:104DD0000001C0F60002032023460097FEF77EFC88
:104DE000284607B0BDE8F08347F2F97447F2CA30AD
:104DF00047F2045147F2C465C0F60004C0F6000053
:104E0000C0F60001C0F60005CDE9001001202946DA
:104E10002246DF230294FEF761FC47F29737C0F683
:104E20000007032029462246DF230097FEF756FCA1
:104E3000FEE7676ACFB3206938B1A18A29B1A169B9
:104E400019B1217F002940F0CC809F2104F120007E
:104E50008DF81810032606A90DF1150301220096FE
:104E6000B847002847D047F2C46647F20877C0F633
:104E70000006C0F6000705460FF2444C03203146F9
:104E80003A4640F2C333CDF800C0FEF727FC47F2A4
:104E9000973CC0F6000C032031463A4640F2C3333B
:104EA000CDF800C0FEF71AFC72E747F2F97447F23A
:104EB000BA7047F2045147F2C465C0F60004C0F668
:104EC0000000C0F60001C0F60005CDE90010012089
:104ED00029462246ED230294FEF700FC47F297375D
:104EE000C0F60007032029462246ED230097FEF76F
:104EF000F5FB00BFFEE79DF815009DF816109DF824
:104F0000172047F2E13347F2C46547F20876C0F64E
:104F10000003C0F60005C0F6000620736173A2739B
:104F2000CDE90030CDE9021201202946324640F297
:104F3000BF330127FEF7D2FB47F2973CC0F6000CC7
:104F400003202946324640F2BF33CDF800C0FEF7B9
:104F5000C5FB204600F014FCE8B10021A160D4E9B3
:104F60001402B4F848302061012B08BF022794F8DE
:104F70005830A782A261237704EBC107FB6D33B1E0
:104F80009A4204D997F86020A36122771A4601312A
:104F90000329F1D122E0217B46F688720020C0F679
:104FA000000200BF13181F798F4207D15F79667B1B
:104FB000B74203D19F79A67BB74205D01830B0F530
:104FC000FC7FEFD1206909E010589A89A0609868A9
:104FD0001969A2821A7D2061A161227728B3A18A72
:104FE00019B3A16909B3217FF9B1227B47F280137C
:104FF0000021C0F6000300BF03EBC1073F799742D1
:1050000035D001311029F7D1B8A1CDE9001047F210
:10501000C46147F2F972C0F60001C0F60002032035
:105020004FF4A9734FF4A9754CE047F2C46547F2F9
:10503000F97647F2B157C0F60005C0F60006C0F693
:1050400000070320294632464FF49B730097FEF772
:1050500045FB47F29737C0F6000703202946324642
:105060004FF49B730097FEF739FB012590E6A26889
:1050700053F8311092B1A7A3CDE90031CDE9022058
:1050800047F2C46147F2F972C0F60001C0F60002AF
:10509000032040F2491340F2491513E047F222522F
:1050A000C0F60002CDE9002147F2C46147F2F9726F
:1050B0000290C0F60001C0F6000203204FF4A7736F
:1050C0004FF4A775FEF70AFB47F2973947F2C46120
:1050D00047F2F972C0F60009C0F60001C0F60002FE
:1050E00003202B46CDF80090FEF7F8FA04F12008D3
:1050F0006620656A0DF119078DF8190000264046F3
:105100003946012200230096A84718B1054640F20F
:10511000953614E0204601F095F9791C9920676ACC
:105120008DF81A004046012200230096B84718B9AE
:10513000204601F087F9E8B1054640F2A73647F26C
:10514000C46747F2E27847F2674CC0F60007C0F642
:105150000008C0F6000C0320394642463346CDF81D
:1051600000C0FEF7BBFA0320394642463346CDF86D
:10517000009097E647F2C46547F2E27747F295560A
:10518000C0F60005C0F60007C0F60006012029465B
:105190003A4640F2A3330096FEF7A0FA03202946D0
:1051A0003A4640F2A333CDF80090FEF797FAA08A72
:1051B000400708D520460121002201F0B7F8054636
:1051C00000287FF4E5AD2069B0F1807F36D9204614
:1051D0000121FFF777FC054600287FF4D9ADB72001
:1051E000676A8DF81B00002000900DF11B014046FE
:1051F000012200230126B847E0B3054647F23E40AE
:1052000047F2C46647F2297747F2B47CC0F6000043
:10521000C0F60006C0F60007C0F6000C00900320A0
:1052200031463A4640F22443CDF804C0FEF756FA20
:10523000032031463A4640F2244398E7002084F8A0
:1052400035000120216884F8340047F26E50C0F622
:105250000000CDE9000147F2C46147F2E872C0F6F0
:105260000001C0F6000203206A236A24FEF736FA22
:105270000025A4E584F8356047F24B5047F2C46539
:1052800047F2297647F2B477C0F60000C0F6000571
:10529000C0F60006C0F600070090012029463246FD
:1052A0004FF484630197FEF719FA0320294632462A
:1052B0004FF48463CDF80090FEF710FAC1E700BF09
:1052C0004572726F723A205265616420666C617338
:1052D0006820646576696365204A454445432049F2
:1052E00044206572726F722E0000000046696E6481
:1052F000206120666C61736820636869702E20539A
:10530000697A6520697320256C64206279746573FD
:105310002E00000046696E642061202573202573ED
:1053200020666C61736820636869702E2053697A07
:105330006520697320256C642062797465732E0082
:105340002DE9F04F87B068B3044690F83400002888
:105350004FD020690D4611441746814271D947F25A
:10536000C46447F2417547F28947C0F60004C0F6AD
:105370000005C0F60007032021462A4640F21A2302
:105380000097FEF7ABF947F29737C0F60007032006
:1053900021462A4640F21A230097FEF79FF94FF064
:1053A000050AE6E047F2417447F2CA3047F2045179
:1053B00047F2C465C0F60004C0F60000C0F6000164
:1053C000C0F60005CDE900100120294622464FF421
:1053D00005730294FEF782F947F29737C0F600078B
:1053E0000320294622464FF405730097FEF776F90D
:1053F000FEE747F2417447F2867047F2045147F2E4
:10540000C465C0F60004C0F60000C0F60001C0F696
:105410000005CDE9001001202946224640F216235E
:105420000294FEF75BF947F29737C0F600070320B6
:105430002946224640F216230097FEF74FF900BF97
:10544000FEE735B9B84204D12046FFF7C9FB8246D2
:105450008FE0A16A04F1200609B130468847002F89
:105460004FF0000A7DD004F11C0003900DF11700ED
:1054700004F1180900F10108049600BF94F84400F3
:1054800049460028039809D0204629463A4600F0AC
:10549000BBFD04EBC00101F158005431D1F800B05C
:1054A000067820460121FFF70DFBA8BB94F83500D4
:1054B0000421002200238DF81760002808BF032173
:1054C000D6430E44F60025FA06F6013308F80260CA
:1054D000DAB29142F4D805220028666A08BF042295
:1054E00004980DF117010023CDF800A0B047A8B92A
:1054F000204600F0A7FF78B9B5FBFBF000FB1B507E
:1055000008B1ABEB000B5F4503D9B7EB0B075D446C
:10551000B4D14FF0000A23E0824621E047F2C4658F
:1055200047F24177C0F60005C0F6000706460FF2C5
:105530004C0C032029463A4640F24B23CDF800C0DC
:10554000FEF7CCF847F2973CC0F6000C0320294642
:105550003A4640F24B23CDF800C0FEF7BFF8B24602
:10556000049E20460021FFF7ADFAE16A09B13046FA
:105570008847504607B000F017B800BF4572726FF9
:10558000723A20466C6173682065726173652053BE
:10559000504920636F6D6D756E6963617465206538
:1055A00072726F722E00000030BCBDE8C08F000028
:1055B0002DE9F04385B080B31D46002B55D004463D
:1055C00090F83400002874D020690F4611449146A9
:1055D000814240F2968047F2C46447F2EC6547F29C
:1055E0008947C0F60004C0F60005C0F60007032096
:1055F00021462A464FF4CE730097FEF76FF847F224
:105600009737C0F60007032021462A464FF4CE7391
:105610000097FEF763F80526AAE047F2EC6447F22C
:10562000CA3047F2045147F2C465C0F60004C0F620
:105630000000C0F60001C0F60005CDE90010012011
:105640002946224640F295130294FEF747F847F2A6
:105650009737C0F6000703202946224640F29513EB
:105660000097FEF73BF800BFFEE747F2EC6447F215
:10567000045147F2C465C0F600043FA0C0F6000123
:10568000C0F60005CDE900100120294622464FF45E
:10569000CB730294FEF722F847F29737C0F6000763
:1056A0000320294622464FF4CB730097FEF716F8E5
:1056B000FEE747F2EC6447F2867047F2045147F286
:1056C000C465C0F60004C0F60000C0F60001C0F6D4
:1056D0000005CDE900100120294622464FF4CC7385
:1056E0000294FDF7FBFF47F29737C0F6000703204F
:1056F000294622464FF4CC730097FDF7EFFF00BF19
:10570000FEE7A16A04F1200809B140468847204617
:1057100000F098FE064638BB03208DF80F000DF10F
:105720000F0094F835C0411C042200230026BCF170
:10573000000F08BF032200BFD8431044C00027FA5F
:1057400000F00136C854F3B29A42F5D8676A0522D0
:105750000DF10F0140462B46BCF1000F08BF04229B
:10576000CDF80090B8470646E16A09B1404688473F
:10577000304605B0BDE8F08364617461000000004C
:105780002DE9F04F8FB0F8B104460020CDE90600B6
:1057900084F8440006AA204600210823FFF7BCF83D
:1057A00047F29737C0F6000798B30FF2D87047F664
:1057B0003D6147F69C620090C0F60001C0F6000211
:1057C00003208023802561E047F67B6447F2CA30DE
:1057D00047F2045147F63D65C0F60004C0F60000EC
:1057E000C0F60001C0F60005CDE9001001202946F1
:1057F000224656230294FDF771FF47F29737C0F611
:10580000000703202946224656230097FDF766FF2E
:10581000FEE79DF81800532828D19DF81900462866
:1058200024D19DF81A00442820D19DF81B0050284F
:105830001CD19DF81D109DF81C00022984F846001B
:1058400084F8451052D347F63722C0F60002CDE95E
:10585000002147F63D6147F69C620290C0F60001C8
:10586000C0F6000203208E238E250FE047F643008A
:10587000C0F6000047F63D6147F69C620090C0F616
:105880000001C0F60002012086238625FDF726FFD1
:1058900047F63D6147F69C62C0F60001C0F6000283
:1058A00003202B460097FDF719FF266847F68F0067
:1058B00047F63D6447F67B65C0F60000C0F600047D
:1058C000C0F600050090032021462A466323019676
:1058D000FDF704FF032021462A4663230097FDF7C6
:1058E000FDFE002528460FB000F08ABB47F63D6854
:1058F00047F69C669DF81E500FF2A862C0F600089D
:10590000C0F60006CDE90021029001204146324652
:1059100092230395FDF7E2FE03204146324692238F
:105920000097FDF7DBFE0020CDE9060006AA204621
:1059300008210823FEF7F0FF80B147F60140C0F6CA
:10594000000047F63D6147F68A620090C0F600010C
:10595000C0F600020320AC23AC252DE09DF81A1000
:105960009DF81900022912D347F66C22C0F60002F6
:10597000CDE9002147F63D6147F68A620290C0F604
:105980000001C0F600020320B923B92514E09DF8F8
:105990001B20082A1BD847F64E50C0F60000CDE960
:1059A000000247F63D6147F68A62C0F60001C0F684
:1059B00000020320BF23BF25FDF790FE47F63D619F
:1059C00047F68A62C0F60001C0F6000268E7BDF83B
:1059D0001C309DF81E609DF8185043EA064647F6B5
:1059E0006713C0F60003CDE9003547F63D6547F67D
:1059F0008A68C0F60005C0F60008CDE902100492DE
:105A0000012029464246C6230596FDF767FE03207E
:105A100029464246C6230097FDF760FE06AD28469C
:105A20002421FAF71CFC204631462A462423FEF79F
:105A300073FFB8B147F63D6447F66A6547F6F2264C
:105A4000C0F60004C0F60005C0F60006032021469B
:105A50002A46E0230096FDF741FE032021462A4610
:105A6000E0233BE747F6E35047F63D6947F66A68AF
:105A7000C0F60000C0F60009C0F600080090012042
:105A800049464246E4230126FDF728FE0320494605
:105A90004246E4230097FDF721FE0FF2485C012007
:105AA00049464246E523CDF800C0FDF717FE032026
:105AB00049464246E5230097FDF710FE47F60B6A7C
:105AC0000135C0F6000A15F8010C29786A78AB7820
:105AD000CDF800A0CDE90232CDE9041001204946FD
:105AE0004246E9230196FDF7F9FD03204946424667
:105AF000E9230097FDF7F2FD01360A2E05F10405B2
:105B0000E1D19DF818109DF8190001F00301032957
:105B100084F84B0016D0012950D1012184F84A1095
:105B200047F6E901C0F60001CDE9001047F63D61F6
:105B300047F66A62C0F60001C0F600020120F323B6
:105B4000F32612E0002084F84A0047F6BF20C0F692
:105B5000000047F63D6147F66A620090C0F600011A
:105B6000C0F600020120F723F726FDF7B7FD47F640
:105B70003D6147F66A62C0F60001C0F600020320EC
:105B800033460097FDF7AAFD9DF8180040072DD475
:105B90000120A4F8480047F69B30C0F6000047F605
:105BA0003D6147F66A620090C0F60001C0F600024F
:105BB000012040F2031340F203162DE047F63D6446
:105BC00047F66A6547F69556C0F60004C0F600052C
:105BD000C0F60006032021462A46FA230096FDF768
:105BE0007DFD032021462A46FA2377E64FF4807094
:105BF000A4F8480047F63740C0F6000047F63D617C
:105C000047F66A620090C0F60001C0F6000201206B
:105C100040F2071340F20716FDF760FD47F63D61BD
:105C200047F66A62C0F60001C0F600020320334660
:105C30000097FDF753FD9DF81800000715D40120CB
:105C400084F84C0047F66D30C0F6000047F63D6121
:105C500047F66A620090C0F60001C0F6000201201B
:105C600040F2131340F213164EE047F63D6647F636
:105C70006A65002047F6293CC0F60006C0F600051C
:105C800084F84C00C0F6000C012031462A464FF43F
:105C90008C73CDF800C0FDF721FD032031462A4664
:105CA0004FF48C730097FDF719FD9DF81800C0069E
:105CB00015D4502084F84D0047F66040C0F600002F
:105CC00047F63D6147F66A620090C0F60001C0F6F3
:105CD000000201204FF490734FF4907614E00620F8
:105CE00084F84D0047F6D740C0F6000047F63D6106
:105CF00047F66A620090C0F60001C0F6000201207B
:105D00004FF493734FF49376FDF7E8FC47F63D614B
:105D100047F66A62C0F60001C0F60002032033466F
:105D20000097FDF7DBFC9DF81A00C0F34100022844
:105D30001AD001282FD0002840F087800120A4F835
:105D40004E0047F6D130C0F6000047F63D6147F6F9
:105D50006A620090C0F60001C0F60002012040F225
:105D6000311340F231162CE04FF48070A4F84E004D
:105D700047F6E930C0F6000047F63D6147F66A6233
:105D80000090C0F60001C0F60002012040F23B1373
:105D900040F23B1615E040F20110A4F84E0047F621
:105DA000B830C0F6000047F63D6147F66A620090E1
:105DB000C0F60001C0F6000201204FF49B734FF4BF
:105DC0009B76FDF78BFC47F63D6147F66A62C0F6AD
:105DD0000001C0F60002032033460097FDF77EFC69
:105DE0009DF81E209DF81F309DF81D1012049DF88F
:105DF0001C0042EA036242EA01211A06084403D465
:105E0000012101EBD00045E020F0004024283DD3E3
:105E10000025256547F63D6447F66A6647F6F21C9D
:105E2000C0F60004C0F60006C0F6000C03202146B0
:105E300032464FF4A873CDF800C0FDF74FFC0320A5
:105E4000214632464FF4A8731CE00025A4F84E50BA
:105E500047F63D6447F66A6647F6220CC0F6000432
:105E6000C0F60006C0F6000C0320214632464FF46F
:105E7000A073CDF800C0FDF731FC03202146324667
:105E80004FF4A0730097FDF729FC2BE5033801219F
:105E900001FA00F047F6CC5147F63D6A47F66A69C9
:105EA000C0F60001C0F6000AC0F600092065CDE981
:105EB0000010012051464A464FF4AB73FDF70EFC2B
:105EC000032051464A464FF4AB730097FDF706FC9A
:105ED00047F62B1B0026C0F6000B4FF0000806AD5E
:105EE00005EB4600017F01B3012202FA01F15FFADE
:105EF00088F2457F04EBC202880A516582F8585047
:105F0000CDE900B0012051464A4640F25F130295A8
:105F100006ADFDF7E3FB032051464A4640F25F130E
:105F20000097FDF7DBFB08F101080136042ED7D1FD
:105F30000020022800F1010C1BD804EBC0031A4614
:105F400052F8547FAFB103F1580E04EBC007FE6D59
:105F500066B11568B54209D99EF8001097F860300F
:105F600016608EF80030FD6587F860100130032858
:105F7000EBD1BCF1040F6046DBD1012584F844501D
:105F8000B0E400BF4572726F723A2043616E2774AD
:105F900020726561642053464450206865616465E1
:105FA000722E0000436865636B205346445020689E
:105FB0006561646572206973204F4B2E20546865BB
:105FC00020726576657273696F6E2069732056253D
:105FD000642E25642C204E504E2069732025642E9B
:105FE000000000004D53422D4C534220203320200E
:105FF00020203220202020312020202030000000CE
:1060000030BCBDE8C08F0000B0B584B090F844301B
:1060100043B1436DB1FBF3F505FB13133BB3002014
:1060200004B0B0BD47F6AD6447F2045147F63D6594
:10603000C0F6000417A0C0F60001C0F60005CDE9C7
:10604000001001202946224640F299130294FDF7E0
:1060500045FB47F2973CC0F6000C03202946224638
:1060600040F29913CDF800C0FDF738FBFEE700F1D0
:106070006C03002053F830506C1E944204D2B1FBE4
:10608000F5F404FB15151DB1C51CC8D00138F1E7A6
:106090000330C5E7666C6173682D3E736664702ECD
:1060A000617661696C61626C65000000014642F6D0
:1060B0005330C0F6000042F64B3242F64F3301F146
:1060C000240CC0F60002C0F600038CE80D0000208E
:1060D0004FF0FF3288630020CA6370472DE9F04F0C
:1060E00087B00446808A99461546C2070F4603D1F9
:1060F00040070FD4002609E0204639462A464FF4CF
:106100008073CDF80090FEF7A7FA0646304607B038
:1061100000F008B994F8340028B32069E9198142E5
:1061200049D947F2C46447F2747547F28947C0F60B
:106130000004C0F60005C0F60007032021462A46E9
:106140004FF43F730097FDF7C9FA47F29737C0F64F
:106150000007032021462A464FF43F730097FDF7BE
:10616000BDFA0526D2E747F2747447F2867047F20B
:10617000045147F2C465C0F60004C0F60000C0F642
:106180000001C0F60005CDE9001001202946224695
:106190004FF43E730294FDF7A1FA47F29737C0F629
:1061A00000070320294622464FF43E730097FDF76F
:1061B00095FA00BFFEE7A16A04F1200809B1404644
:1061C0008847F8070DD02046394601220123CDF833
:1061D0000090FEF741FA064648B909F10109013776
:1061E000013D20460121FEF76DFC064650B12046D8
:1061F0000021FEF767FCE16A00293FF487AF4046C3
:10620000884783E7AD20022D8DF814004ED30DF1A1
:10621000140A05F001000AF1010B04900020C007E8
:1062200009D099F800008DF8150099F801008DF853
:106230001600012021E094F83500042100220023FB
:10624000002808BF032100BFD6430E44F60027FAFA
:1062500006F601330BF80260DAB29142F4D899F8ED
:10626000001000284FF0050008BF04200AF80010B5
:1062700099F801100AEB00025170D4F824C040F0E4
:10628000020240465146002300260096E04718BB14
:10629000204600F0D7F8002842D1023D023709F12C
:1062A0000209012D4FF00100B9D8049D20460021BC
:1062B000FEF708FC012D064608BF002E08D1204637
:1062C000394601220123CDF80090FEF7C5F90646B4
:1062D000002E8CD100268EE747F2C46547F2747712
:1062E00047F2DA4CC0F60005C0F600070646C0F6D5
:1062F000000C032029463A4640F22B33CDF800C06B
:10630000FDF7ECF947F2973CC0F6000C0320294654
:106310003A4640F22B33CDF800C0FDF7DFF966E7CF
:10632000064664E730BCBDE8C08F0000F0B585B01C
:1063300098B11446054600F12006B1B350206F6AAB
:106340008DF812004FF0000C0DF1120130460122C1
:106350000023CDF800C0B8472BE047F2D07447F2D5
:10636000CA3047F2045147F2C465C0F60004C0F6D3
:106370000000C0F60001C0F60005CDE900100120C4
:106380002946224640F275430294FDF7A7F947F2E9
:106390009737C0F6000703202946224640F275438E
:1063A0000097FDF79BF900BFFEE728460121FEF7A5
:1063B00089FB074678B901206F6A8DF81200002525
:1063C0000DF112013046022200238DF81340009592
:1063D000B8470746F8B147F2C46447F2D075C0F633
:1063E0000004C0F600050DA6032021462A4640F20F
:1063F0008A430096FDF772F947F29736C0F6000619
:10640000032021462A4640F28A430096FDF766F9AA
:10641000384605B0F0BD0027FAE700BF4572726F3D
:10642000723A2057726974655F7374617475732072
:106430007265676973746572206661696C65642E44
:10644000000000002DE9F04F85B0002844D0C66B55
:10645000044600F120054FF005094FF0010A0DF147
:1064600013080DF1120B00BF676A2846414601224E
:106470005B468DF81390CDF800A0B84718B99DF889
:106480001200C0074FD026B1A06B00B18047013E7B
:10649000EAE79DF8120047F2C46547F6180624A102
:1064A000C0F60005C0F60006042400910290032007
:1064B0002946324640F251430194FDF70FF947F265
:1064C0009737C0F6000703202946324640F2514371
:1064D0000097FDF703F927E047F6180447F2CA30A2
:1064E00047F2045147F2C465C0F60004C0F600004C
:1064F000C0F60001C0F60005CDE9001001202946D4
:10650000224640F242430294FDF7E8F847F29737FB
:10651000C0F6000703202946224640F24243009776
:10652000FDF7DCF8FEE70024204605B000F016B8C1
:106530004572726F723A20466C61736820776169A8
:106540007420627573792068617320616E206572B2
:10655000726F722E202564202564000030BCBDE8D7
:10656000C08F00000FB4084B10B504A902AA03980D
:1065700000F0FCF8044602A9002000F09CFC204634
:1065800010BC5DF814FB0000B76E00087CB50C0071
:106590001D461646014601D0601E00E00020CDE9F0
:1065A0000010064B6A462946304600F0DFF8002C02
:1065B00002D0009A002111707CBD0000A16E00087D
:1065C00002E008C8121F08C1002AFAD170477047BC
:1065D000002001E001C1121F002AFBD1704700001A
:1065E0002DE9FF5F82B00021DDE90430020DDDF806
:1065F00040B0034318D044F61050A2F2FF32424399
:106600001514119801281FD0A5EB0B00401C5FEA60
:10661000000A4FF000064E4FDFF83891B046504662
:1066200015D5CAF1000413E0119801244AA30128EA
:1066300001D16FEA0B010298119AC0E90031C0E95B
:10664000024206B000F08EB8CBF10000DFE704464E
:106650000021404A491842EB0450CDE9001012E0F5
:10666000E00707D032463B4640464946F9F717FE59
:106670008046894632463B4610461946F9F70FFEDA
:1066800006460F466410002CEAD1DDE90401DDE97D
:106690000023BAF1000F06DAF9F701FE42464B4635
:1066A000F9F7FDFD05E0F9F76FFE42464B46F9F7B5
:1066B0006BFE04460E460022284BFAF753F803D827
:1066C0004FF0FF30014607E00022254B20463146BF
:1066D000F9F781FFFAF72EF8102409E0002C0ADB05
:1066E0000A220023F9F76EFD039B30321A55641E0F
:1066F00050EA0102F2D1641C039AC4F1110314445C
:10670000119A012A03D0012208430DD10AE008435F
:1067100004D000204FF0110B119072E7A3EB0B0592
:106720006D1E0DE05B4504DD4FF0000205F1010533
:1067300004E003DA4FF00002A5F10105002AECD0D5
:1067400002981199C0E90231C0E9004579E70000DB
:10675000000014400000F03F300000000000F04353
:106760000000E03F30BCBDE8C09F00002DE9FF4FB6
:1067700095B09B468946064600250FE2252877D12D
:1067800000242746F84A0121059400E0044316F846
:10679000013F203B01FA03F01042F7D130782A285C
:1067A00011D06FF02F033078A0F13002092A16D8EB
:1067B000059A44F0020402EB820203EB4202104409
:1067C000761C0590EFE759F8042B0592002A03DAAE
:1067D000504244F40054059044F00204761C307892
:1067E0002E2816D116F8010F44F004042A280DD0E3
:1067F0006FF02F023078A0F13003092B09D807EB96
:10680000870302EB4303C718761CF3E759F8047BB0
:10681000761C30786C280FD006DC4C2817D06828FE
:106820000DD06A2814D104E0742810D07A280FD132
:106830000DE044F400140AE044F4801401E044F450
:1068400040147278824202D104F58014761C761CC2
:10685000307866280BD013DC582877D009DC002864
:1068600075D04528F6D04628F4D047281AD19DE1A6
:1068700018E0632835D0642879D0652812D195E1D5
:10688000702873D008DC6728F1D069286FD06E2893
:106890000DD06F2806D1B5E073282CD0752875D09F
:1068A000782874D05A46179990476D1C75E1C4F347
:1068B0000250022809D003280DD0D9F8001004286E
:1068C0000DD00D6009F1040967E1D9F80010EA174D
:1068D000C1E90052F6E7D9F800100D80F2E70D701B
:1068E000F0E719F8041B8DF8001000208DF8010066
:1068F000EA46012003E059F804AB4FF0FF3061078E
:106900004FF0000102D40DE008F101018846B942C0
:106910000FDA8045F8DB1AF808100029F4D108E0F6
:1069200008F1010188468142FADB1AF808100029B3
:10693000F6D105985B46A0EB080721463846179A22
:1069400000F097FA284400EB080507E04DE029E144
:106950000DE01AF8010B5A4617999047B8F1010853
:10696000F7D25B4621463846179A13E142E00A22E5
:106970000092C4F302524FF0000A022A08D059F8DC
:1069800004CB032A4FEAEC710AD00DE029E02AE09B
:1069900009F1070121F00702F2E802C1914609E07E
:1069A0000FFA8CFC4FEAEC71042A03D14FFA8CFCED
:1069B0004FEAEC71002907DA0A460021DCF1000CED
:1069C00061EB02012D2202E0220504D52B228DF875
:1069D0000420012203E0E20701D02022F7E79046DD
:1069E00059E00A2102E010220DE010214FF0000AC8
:1069F00000910BE010224FF0000A44F00404082735
:106A0000009203E008224FF0000A0092C4F3025201
:106A1000022A05D059F804CB0021032A08D009E046
:106A200009F1070121F00702F2E802C1914605E0F1
:106A30001FFA8CFC042A01D10CF0FF0C4FF0000867
:106A4000220728D5702806D0009B83F0100353EA54
:106A50000A0305D00EE040228DF80420012208E050
:106A60005CEA010206D030228DF804208DF8050082
:106A700002229046009B83F0080353EA0A030AD1DE
:106A80005CEA010201D1620705D530228DF80420AD
:106A90004FF001087F1E582804D034A003900EA8A0
:106AA00002900DE036A0F9E753466046009AF9F7E8
:106AB00089FB84460398825C0298401E0290027013
:106AC0005CEA0100F0D1029806A9081A00F1200A38
:106AD000600702D524F4803400E00127574502DD29
:106AE000A7EB0A0000E0002000EB0A0100900598E7
:106AF0004144401A0590E00306D45B462146179AAC
:106B0000059800F0B6F90544002706E001A85A46AA
:106B1000C05D179990476D1C7F1C4745F6DBE0036D
:106B20000CD55B462146179A059800F0A2F905445A
:106B300004E030205A46179990476D1C0099481E72
:106B400000900029F5DC08E0029802995A46007886
:106B5000491C0291179990476D1CBAF10001AAF1E6
:106B6000010AF1DC65E1000009280100303132330F
:106B70003435363738396162636465660000000079
:106B80003031323334353637383941424344454663
:106B90000000000000F05BF90544761C3078002806
:106BA0007FF4ECAD19B0284600F04EB9620700D46E
:106BB000062709F1070222F0070CFCE80223E14650
:106BC00003F000485FEA080C02D00FF2702C0DE0D1
:106BD0005FEA045C02D50FF2682C07E05FEAC47C30
:106BE00002D00FF2602C01E0AFF2700C4FF0FF38D2
:106BF00023F00043CDF850C065280CD006DC4528B2
:106C000009D046281DD047283DD13DE0662818D040
:106C100067287ED138E00021112F01DB112000E030
:106C2000781CCDE9000106A90EA8FFF7D9FCDDE923
:106C30000F010E9A03910021009207F1010A0491BD
:106C40004DE04FF000400097CDE9011006A90EA8D5
:106C5000FFF7C6FCDDE90F0203920E9B119900229B
:106C6000DDF80CA00093049211B9791C00EB010A25
:106C7000B7EB0A0004D4C0F1FF3007F1010A049019
:106C8000AAEB0700019044E0012F00DA0127002160
:106C9000112F01DD112000E03846CDE9000106A9E1
:106CA0000EA8FFF79DFCDDE90F010E9A039100216C
:106CB00004910092BA4621070CD40399514500DA99
:106CC0008A46BAF1010F05DD009AAAF10101515C73
:106CD000302908D0B84202DA10F1040F06DA012197
:106CE000CDE9011015E0AAF10101E9E7002805DC72
:106CF000049901440491AAEB000102E0411C5145B2
:106D000000DD8A460499401A401C01904FF0004073
:106D10000290200704D40198504501DBCDF804808F
:106D200000208DF84F0002980DF14F07B0F1004F91
:106D300025D02B200E9002984FF0020800280CDA84
:106D4000404202902D200E9007E00A210298F9F7A8
:106D5000B0FB3031029007F8011DB8F10001A8F135
:106D60000108F2DC02980028EFD1791E0E98087015
:106D7000307800F0200040F0450007F8020D12A81E
:106D8000C01B00F107081498007800B1012000EB47
:106D90000A01019801EBE07105984144401A401E38
:106DA0000590E00306D45B462146179A059800F04B
:106DB00060F805441498007818B15A46179990471E
:106DC0006D1CE00324D55B462146179A059800F018
:106DD00050F805441CE00498002807DBDDE90301B6
:106DE000884203DD0098405C179901E01799302034
:106DF0005A469047049805F10105401C04900198FB
:106E0000401E019004D12E205A46179990476D1CC0
:106E1000BAF10001AAF1010ADDDC05E017F8010B67
:106E20005A46179990476D1CB8F10001A8F1010866
:106E3000F4DC5B462146179A0598ABE62D0000006E
:106E40002B0000002000000030BCBDE8C08F2DE901
:106E5000F041044600251E461746880404D405E088
:106E600039462020B0476D1C641EF9D52846BDE880
:106E7000F0812DE9F041044600251E469046C803E6
:106E800001D5302700E02027880404D505E04146DD
:106E90003846B0476D1C641EF9D52846BDE8F08120
:106EA0004A68002A06D00A68531C0B6010704868B4
:106EB000401E486070470A68531C0B601070704792
:106EC000FFFFFFFF000000000000000000000000C6
:106ED000FFFFFFFFFFFFFFFF00000000FFFFFFFFBE
:106EE000FFFFFFFF0000000000000000FFFFFFFFAA
:106EF000FFFFFFFF0000000000000000010203048C
:106F0000060708090000000001020304A086010032
:106F1000400D0300801A060000350C0040420F00AF
:106F200080841E0000093D0000127A000024F40055
:106F300000366E010048E801006CDC0200300140C0
:106F400000380040003C0040D0730008BE730008C9
:106F5000C7730008000F0A000000000000000000D6
:106F6000000000000000000000000000040000001D
:106F7000020000000800000000380140004400400A
:106F800000480040004C0040527600081F260000D8
:106F9000000020000A000000000200008100000044
:106FA00083760008EF401300000008000100000095
:106FB0000010000020000000A7760008EF30150048
:106FC0000000200001000000001000002000000070
:106FD0009E760008EF401500000020000100000030
:106FE00000100000200000008C760008EF40160022
:106FF0000000400001000000001000002000000020
:1070000095760008EF4017000000800001000000A6
:107010000010000020000000B0760008EF401800CB
:10702000000000010100000000100000200000002E
:10703000BA760008EF4019000000000201000000CD
:1070400000100000200000000E760008BF258E0012
:1070500000001000060000000010000020000000EA
:1070600038760008BF25410000002000060000001F
:107070000010000020000000FF750008202016000E
:10708000000040000100000000000100D8000000E6
:10709000F875000820201400000010000100000016
:1070A00000000100D8000000E9750008202013004E
:1070B000000008000100000000000100D8000000EE
:1070C0001A7600081C301600000040000100000085
:1070D000001000002000000023760008C8401700C0
:1070E00000008000010000000010000020000000EF
:1070F00044760008C8401500000020000100000090
:107100000010000020000000627600080140150019
:10711000000020000100000000100000200000001E
:107120007076000801021500000040000100000018
:107130000010000020000000F07500083730140037
:1071400000001000010000000010000020000000FE
:10715000067600088C2013000000080006000000DE
:1071600000100000200000002C760008BF25410020
:1071700000002000060000000010000020000000B9
:10718000C87700080100000007780008040000002C
:107190006C7600081C000000957700081F000000B6
:1071A000A7770008200000004D7600083700000097
:1071B000AE770008620000009B770008890000009D
:1071C0007A7600088C000000A1770008A10000007A
:1071D0007E770008AD0000007F760008BF00000049
:1071E0001E770008C80000005D760008D50000008A
:1071F00016770008EF0000000F780008C2000000BA
:10720000626F7300202020202020202020202020BA
:10721000202020202020202020202020202F20205F
:10722000202020202020202020202020202020205E
:1072300020200D0A0020202F20202020292020207F
:107240002F20202029202F20202029202F202020FF
:107250002F202F202020202F2020202020205C20C5
:107260002020200D0A00202020205F5F5F5F20206B
:10727000202020202020202020202020202020200E
:10728000202020202020205F5F2020202020202080
:107290005F5F20200D0A002D2D2D2F5F5F202F2DE9
:1072A0002D2D2D2D5F5F2D2D2D2F5F5F2D2D2D2D44
:1072B0002D2D2D2D2D2F2D2D2D2D2F2D2D2D2D5CCB
:1072C0002D2D2D2D2D0D0A00202020202F202020B7
:1072D00029202020202020202020202F2020202096
:1072E000202020202020202F202020202920202086
:1072F0002F202020205C0D0A005F2F5F5F5F5F2F33
:107300005F5F5F285F5F5F285F285F5F5F2F5F2899
:107310005F5F5F2F5F285F5F5F5F2F5F5F5F285F4B
:107320005F5F5F2F5F5F5F0D0A005F5F5F5F5F5FA3
:107330005F5F5F5F5F5F5F5F5F5F5F5F5F5F5F5F5D
:107340005F5F5F5F5F5F5F5F5F5F5F5F5F5F5F5F4D
:107350005F5F5F5F5F5F5F5F0D0A002E2E2F2E2E37
:107360002F2E2E2F426162794F532F626F732F633E
:107370006F72652F625F636F72652E630062496E84
:1073800069740025640909253136730925640D0ADD
:10739000002573206572720D0A002E2E2F2E2E2FBF
:1073A0002E2E2F426162794F532F626F732F636FBE
:1073B00072652F625F6465766963652E6300737022
:1073C00069666C617368006D6375666C61736800F3
:1073D0006E756C6C0062446576696365496E6974AC
:1073E0000054686520666C61736820646576696323
:1073F00065206D616E756661637475726572204992
:1074000044206973203078253032582C206D656D0A
:107410006F72792074797065204944206973203037
:1074200078253032582C206361706163697479204B
:107430004944206973203078253032582E00457237
:10744000726F723A20257320342D42797465206161
:10745000646472657373696E67206D6F646520661E
:1074600061696C65642E004572726F723A20466CD9
:1074700061736820646576696365207265736574FD
:10748000206661696C65642E004572726F723A20E5
:10749000466C6173682061646472657373206973FC
:1074A000206F7574206F6620626F756E642E0045C4
:1074B00072726F723A20257320666C617368206463
:1074C000657669636520697320696E697469616CAA
:1074D000697A65206661696C2E004572726F723A36
:1074E00020466C6173682077726974652053504937
:1074F00020636F6D6D756E6963617465206572726E
:107500006F722E00282573292068617320617373C0
:10751000657274206661696C6564206174202573EE
:107520002E0046696E64206120257320666C6173AD
:107530006820636869702E2053697A65206973201A
:10754000256C642062797465732E00257320342DB8
:10755000427974652061646472657373696E672033
:107560006D6F646520737563636573732E00257397
:1075700020666C6173682064657669636520697351
:1075800020696E697469616C697A652073756363DB
:107590006573732E00466C61736820646576696359
:1075A0006520726573657420737563636573732EEC
:1075B000005761726E696E673A205468697320667D
:1075C0006C61736820646576696365206973206EF9
:1075D0006F7420666F756E64206F72206E6F7420FA
:1075E000737570706F72742E004D323550343000E8
:1075F0004132354C303830004D3235503830004D46
:107600003235503332004632354C3030340053532B
:1076100054323556463038304200454E32355133BB
:1076200032420047443235513634420050435432DE
:107630003556463031364200535354323556463073
:1076400031364200474432355131364200414D49CE
:107650004300415434354442313631450049535397
:107660004900533235464C3231364B00454F4E00BF
:10767000533235464C303332500045534D5400534D
:107680005354005732355134304256005732355139
:107690003332425600573235513634425600573253
:1076A0003551313642560057323558313642560040
:1076B0005732355131323842560057323551323512
:1076C000364656002E2E2F2E2E2F2E2E2F42616242
:1076D000794F532F626F732F647269766572732FBF
:1076E000736675642F736675642E630073667564C4
:1076F0005F72656164007365745F77726974655F5A
:10770000656E61626C656400726561645F6A656480
:1077100065635F69640057696E626F6E64004769F4
:107720006761446576696365007365745F345F62A1
:107730007974655F616464726573735F6D6F6465AE
:1077400000736675645F6572617365007366756466
:107750005F636869705F657261736500706167651A
:107760003235365F6F725F315F627974655F777251
:10777000697465006161695F777269746500487951
:10778000756E64616900666C6173682D3E696E692F
:10779000745F6F6B0041746D656C00496E74656C4D
:1077A00000467564616E004D6963726F6E005361CF
:1077B0006E796F00456E74657200666C6173682D3A
:1077C0003E7370692E77720043797072657373002F
:1077D000736675645F77726974655F7374617475DD
:1077E0007300726573657400736675645F646576B3
:1077F0006963655F696E697400686172647761725C
:10780000655F696E69740046756A69747375004DC9
:107810006963726F6E697800776169745F6275730E
:1078200079004572726F723A20526561642061641A
:107830006472657373206279746573206572726F08
:107840007221004572726F723A20436865636B2043
:1078500053464450207369676E6174757265206584
:1078600072726F722E2049742773206D75737420A5
:107870006265203530343434363533682827532751
:10788000202746272027442720275027292E005726
:1078900061726E696E673A20526561642053464496
:1078A0005020706172616D657465722068656164F5
:1078B000657220696E666F726D6174696F6E2066A5
:1078C00061696C65642E2054686520257320697396
:1078D000206E6F7420737570706F7274204A454407
:1078E000454320534644502E0034204B42204572DD
:1078F00061736520697320737570706F727465644D
:10790000207468726F7567686F757420746865207D
:107910006465766963652E20436F6D6D616E6420CA
:107920006973203078253032582E00466C617368B8
:107930002064657669636520737570706F72747307
:1079400020256C644B4220626C6F636B2065726112
:1079500073652E20436F6D6D616E642069732030F6
:1079600078253032582E00436865636B204A4544C1
:10797000454320626173696320666C61736820709F
:107980006172616D657465722068656164657220FD
:107990006973204F4B2E20546865207461626C65BA
:1079A0002069642069732025642C207265766572D5
:1079B00073696F6E206973205625642E25642C2010
:1079C0006C656E6774682069732025642C20706173
:1079D00072616D65746572207461626C6520706F90
:1079E000696E7465722069732030782530366C5862
:1079F0002E004572726F723A2054686520666C6181
:107A000073682063617061636974792069732067AA
:107A10007261746572207468616E2033322047622F
:107A20002F203420474221204E6F742053757070F0
:107A30006F727465642E004572726F723A205468DA
:107A4000697320726576657273696F6E2856256456
:107A50002E2564292053464450206973206E6F748C
:107A600020737570706F727465642E004572726F4A
:107A7000723A205468697320726576657273696F13
:107A80006E285625642E256429204A454445432006
:107A9000626173696320666C6173682070617261F2
:107AA0006D65746572206865616465722069732014
:107AB0006E6F7420737570706F727465642E0055EC
:107AC0006E69666F726D2034204B4220657261735F
:107AD0006520697320756E617661696C61626C65A1
:107AE00020666F72207468697320646576696365C7
:107AF0002E005761726E696E673A2043616E27747B
:107B00002072656164204A4544454320626173697F
:107B10006320666C61736820706172616D65746565
:107B200072207461626C652E00426C6F636B205032
:107B3000726F74656374206269747320696E206467
:107B40006576696365277320737461747573207239
:107B5000656769737465722061726520736F6C6507
:107B60006C7920766F6C6174696C652E005461725B
:107B700067657420666C61736820737461747573D3
:107B8000207265676973746572206973206E6F6E09
:107B90002D766F6C6174696C652E0057726974651F
:107BA000206772616E756C617269747920697320E7
:107BB0003120627974652E00332D206F7220342DB0
:107BC000427974652061646472657373696E672EAF
:107BD00000332D42797465206F6E6C792061646486
:107BE00072657373696E672E00342D427974652057
:107BF0006F6E6C792061646472657373696E672E51
:107C0000004572726F723A2043616E27742072656C
:107C10006164204A4544454320626173696320667C
:107C20006C61736820706172616D65746572206843
:107C300065616465722E00577269746520677261B0
:107C40006E756C61726974792069732036342062B4
:107C500079746573206F72206C61726765722E0093
:107C6000466C61736820646576696365207265712E
:107C7000756972657320696E737472756374696F68
:107C80006E203530682061732074686520777269D2
:107C9000746520656E61626C65207072696F722018
:107CA000746F20706572666F726D696E67206120F7
:107CB000766F6C6174696C65207772697465207485
:107CC0006F207468652073746174757320726567C2
:107CD00069737465722E00466C6173682064657602
:107CE00069636520726571756972657320696E7369
:107CF0007472756374696F6E20303668206173200A
:107D000074686520777269746520656E61626C6560
:107D1000207072696F7220746F20706572666F7266
:107D20006D696E67206120766F6C6174696C652087
:107D3000777269746520746F20746865207374614C
:107D40007475732072656769737465722E0045726D
:107D5000726F723A20546865204A45444543206258
:107D60006173696320666C61736820706172616D14
:107D700065746572207461626C65206C656E6774F1
:107D80006820286E6F77206973202564292065722A
:107D9000726F722E004572726F723A20556E69666C
:107DA0006F726D2034204B422065726173652073C1
:107DB0007570706F7274656420696E666F726D6144
:107DC00074696F6E206572726F722E00436170610C
:107DD0006369747920697320256C64204279746525
:107DE000732E004A454445432062617369632066EF
:107DF0006C61736820706172616D65746572207466
:107E000061626C6520696E666F3A005B2530346490
:107E10005D20307825303258203078253032582097
:107E2000307825303258203078253032580072654D
:107E300061645F736664705F64617461002E2E2FED
:107E40002E2E2F2E2E2F426162794F532F626F7389
:107E50002F647269766572732F736675642F73660B
:107E600075645F736664702E6300726561645F623F
:107E7000617369635F7461626C6500736675645FEA
:107E8000726561645F7366647000726561645F62ED
:107E9000617369635F6865616465720072656164DE
:107EA0005F736664705F68656164657200736675B0
:107EB000645F736664705F6765745F73756974612E
:107EC000626C655F6572617365720000287F0008EF
:107ED0000000002090000000C0650008B87F000886
:107EE00090000020380D0000D065000800720008E6
:107EF000E1280008A52800089F260008752C000826
:107F0000B12C0008E526000800000000A1260008AA
:107F10000F000000B93F00080A0000000138000807
:107F200000000000A126000800093D000400002018
:107F3000040000200C0000200C00002000000000C5
:107F40000000000000000000000000000000000031
:107F5000000000009100002000046400CF2700080A
:107F60000000000000000000000000000000000011
:107F70000000000000720008000000000000000087
:107F80000000000000000000E93E0008640000203E
:107F9000640000206C0000206C00002074000020B1
:107FA000740000200A000000FFFFFFFF0100000036
:087FB0001000000000000000B9
:040000050800018D61
:00000001FF
