Component: ARM Compiler 6.14 Tool: armlink [5db06800]

==============================================================================

Section Cross References

    startup_stm32l431xx.o(RESET) refers to startup_stm32l431xx.o(STACK) for __initial_sp
    startup_stm32l431xx.o(RESET) refers to startup_stm32l431xx.o(.text) for Reset_Handler
    startup_stm32l431xx.o(RESET) refers to stm32l4xx_it.o(.text.NMI_Handler) for NMI_Handler
    startup_stm32l431xx.o(RESET) refers to stm32l4xx_it.o(.text.HardFault_Handler) for HardFault_Handler
    startup_stm32l431xx.o(RESET) refers to stm32l4xx_it.o(.text.MemManage_Handler) for MemManage_Handler
    startup_stm32l431xx.o(RESET) refers to stm32l4xx_it.o(.text.BusFault_Handler) for BusFault_Handler
    startup_stm32l431xx.o(RESET) refers to stm32l4xx_it.o(.text.UsageFault_Handler) for UsageFault_Handler
    startup_stm32l431xx.o(RESET) refers to stm32l4xx_it.o(.text.SVC_Handler) for SVC_Handler
    startup_stm32l431xx.o(RESET) refers to stm32l4xx_it.o(.text.DebugMon_Handler) for DebugMon_Handler
    startup_stm32l431xx.o(RESET) refers to stm32l4xx_it.o(.text.PendSV_Handler) for PendSV_Handler
    startup_stm32l431xx.o(RESET) refers to stm32l4xx_it.o(.text.SysTick_Handler) for SysTick_Handler
    startup_stm32l431xx.o(RESET) refers to stm32l4xx_it.o(.text.USART1_IRQHandler) for USART1_IRQHandler
    startup_stm32l431xx.o(RESET) refers to stm32l4xx_it.o(.text.LPUART1_IRQHandler) for LPUART1_IRQHandler
    startup_stm32l431xx.o(.text) refers to system_stm32l4xx.o(.text.SystemInit) for SystemInit
    startup_stm32l431xx.o(.text) refers to entry.o(.ARM.Collect$$$$00000000) for __main
    main.o(.text.HAL_UART_RxCpltCallback) refers to main.o(.bss.huart1) for huart1
    main.o(.text.HAL_UART_RxCpltCallback) refers to main.o(.bss.sgUartData) for sgUartData
    main.o(.text.HAL_UART_RxCpltCallback) refers to b_hal_it.o(.text.bHalItInvoke) for bHalItInvoke
==============================================================================

Removing Unused input sections from the image.

    Removing startup_stm32l431xx.o(HEAP), (512 bytes).
    Removing main.o(.text), (0 bytes).
    Removing main.o(.ARM.exidx.text.HAL_UART_RxCpltCallback), (8 bytes).
    Removing main.o(.ARM.exidx.text.main), (8 bytes).
    Removing main.o(.ARM.exidx.text.SystemClock_Config), (8 bytes).
    Removing main.o(.ARM.exidx.text.Error_Handler), (8 bytes).
    Removing main.o(.bss.hsd1), (132 bytes).
    Removing main.o(.bss.hspi2), (100 bytes).
    Removing main.o(.ARM.use_no_argv), (4 bytes).
    Removing stm32l4xx_it.o(.text), (0 bytes).
    Removing stm32l4xx_it.o(.ARM.exidx.text.NMI_Handler), (8 bytes).
    Removing stm32l4xx_it.o(.ARM.exidx.text.HardFault_Handler), (8 bytes).
    Removing stm32l4xx_it.o(.ARM.exidx.text.MemManage_Handler), (8 bytes).
    Removing stm32l4xx_it.o(.ARM.exidx.text.BusFault_Handler), (8 bytes).
    Removing stm32l4xx_it.o(.ARM.exidx.text.UsageFault_Handler), (8 bytes).
    Removing stm32l4xx_it.o(.ARM.exidx.text.SVC_Handler), (8 bytes).
    Removing stm32l4xx_it.o(.ARM.exidx.text.DebugMon_Handler), (8 bytes).
    Removing stm32l4xx_it.o(.ARM.exidx.text.PendSV_Handler), (8 bytes).
==============================================================================

Image Symbol Table

    Local Symbols

    Symbol Name                              Value     Ov Type        Size  Object(Section)

    ../clib/microlib/division.c              0x00000000   Number         0  uldiv.o ABSOLUTE
    ../clib/microlib/division.c              0x00000000   Number         0  ldiv.o ABSOLUTE
    ../clib/microlib/division.c              0x00000000   Number         0  uidiv.o ABSOLUTE
    ../clib/microlib/init/entry.s            0x00000000   Number         0  entry.o ABSOLUTE
    ../clib/microlib/init/entry.s            0x00000000   Number         0  entry2.o ABSOLUTE
    ../clib/microlib/init/entry.s            0x00000000   Number         0  entry5.o ABSOLUTE
    ../clib/microlib/init/entry.s            0x00000000   Number         0  entry7a.o ABSOLUTE
    ../clib/microlib/init/entry.s            0x00000000   Number         0  entry7b.o ABSOLUTE
    ../clib/microlib/init/entry.s            0x00000000   Number         0  entry8a.o ABSOLUTE
    ../clib/microlib/init/entry.s            0x00000000   Number         0  entry8b.o ABSOLUTE
    ../clib/microlib/init/entry.s            0x00000000   Number         0  entry9a.o ABSOLUTE
    ../clib/microlib/init/entry.s            0x00000000   Number         0  entry9b.o ABSOLUTE
    ../clib/microlib/init/entry.s            0x00000000   Number         0  entry10a.o ABSOLUTE
    ../clib/microlib/init/entry.s            0x00000000   Number         0  entry10b.o ABSOLUTE
    ../clib/microlib/init/entry.s            0x00000000   Number         0  entry11a.o ABSOLUTE
    ../clib/microlib/init/entry.s            0x00000000   Number         0  entry11b.o ABSOLUTE
    ../clib/microlib/longlong.c              0x00000000   Number         0  llshl.o ABSOLUTE
    ../clib/microlib/longlong.c              0x00000000   Number         0  llushr.o ABSOLUTE
    ../clib/microlib/longlong.c              0x00000000   Number         0  llsshr.o ABSOLUTE
    ../clib/microlib/printf/printf.c         0x00000000   Number         0  printfb.o ABSOLUTE
    ../clib/microlib/printf/printf.c         0x00000000   Number         0  printf0.o ABSOLUTE
    ../clib/microlib/printf/printf.c         0x00000000   Number         0  printf1.o ABSOLUTE
    ../clib/microlib/printf/printf.c         0x00000000   Number         0  printf2.o ABSOLUTE
    ../clib/microlib/printf/printf.c         0x00000000   Number         0  printf3.o ABSOLUTE
    ../clib/microlib/printf/printf.c         0x00000000   Number         0  printf4.o ABSOLUTE
    ../clib/microlib/printf/printf.c         0x00000000   Number         0  printf5.o ABSOLUTE
    ../clib/microlib/printf/printf.c         0x00000000   Number         0  printf6.o ABSOLUTE
    ../clib/microlib/printf/printf.c         0x00000000   Number         0  printf7.o ABSOLUTE
    ../clib/microlib/printf/printf.c         0x00000000   Number         0  printf8.o ABSOLUTE
    ../clib/microlib/printf/printf.c         0x00000000   Number         0  printfa.o ABSOLUTE
    ../clib/microlib/printf/stubs.s          0x00000000   Number         0  printfstubs.o ABSOLUTE
    ../clib/microlib/stdio/streams.c         0x00000000   Number         0  stdout.o ABSOLUTE
    ../clib/microlib/string/memcpy.c         0x00000000   Number         0  memcpya.o ABSOLUTE
    ../clib/microlib/string/memcpy.c         0x00000000   Number         0  memcpyb.o ABSOLUTE
    ../clib/microlib/string/memset.c         0x00000000   Number         0  memseta.o ABSOLUTE
    ../clib/microlib/string/strcmp.c         0x00000000   Number         0  strcmp.o ABSOLUTE
    ../clib/microlib/string/strlen.c         0x00000000   Number         0  strlen.o ABSOLUTE
    ../clib/microlib/stubs.s                 0x00000000   Number         0  iusefp.o ABSOLUTE
    ../fplib/microlib/fpadd.c                0x00000000   Number         0  dadd.o ABSOLUTE
    ../fplib/microlib/fpdiv.c                0x00000000   Number         0  ddiv.o ABSOLUTE
    ../fplib/microlib/fpepilogue.c           0x00000000   Number         0  depilogue.o ABSOLUTE
    ../fplib/microlib/fpfix.c                0x00000000   Number         0  dfixui.o ABSOLUTE
    ../fplib/microlib/fpfix.c                0x00000000   Number         0  dfixul.o ABSOLUTE
    ../fplib/microlib/fpflt.c                0x00000000   Number         0  dfltui.o ABSOLUTE
    ../fplib/microlib/fpmul.c                0x00000000   Number         0  dmul.o ABSOLUTE
    algo_base64.c                            0x00000000   Number         0  algo_base64.o ABSOLUTE
    algo_crc.c                               0x00000000   Number         0  algo_crc.o ABSOLUTE
    algo_hmac_sha1.c                         0x00000000   Number         0  algo_hmac_sha1.o ABSOLUTE
    algo_md5.c                               0x00000000   Number         0  algo_md5.o ABSOLUTE
    algo_sort.c                              0x00000000   Number         0  algo_sort.o ABSOLUTE
    algo_utf8_unicode.c                      0x00000000   Number         0  algo_utf8_unicode.o ABSOLUTE
    b_core.c                                 0x00000000   Number         0  b_core.o ABSOLUTE
    b_device.c                               0x00000000   Number         0  b_device.o ABSOLUTE
    b_drv_mcuflash.c                         0x00000000   Number         0  b_drv_mcuflash.o ABSOLUTE
    b_drv_spiflash.c                         0x00000000   Number         0  b_drv_spiflash.o ABSOLUTE
    b_hal.c                                  0x00000000   Number         0  b_hal.o ABSOLUTE
    b_hal_flash.c                            0x00000000   Number         0  b_hal_flash.o ABSOLUTE
    b_hal_gpio.c                             0x00000000   Number         0  b_hal_gpio.o ABSOLUTE
    b_hal_i2c.c                              0x00000000   Number         0  b_hal_i2c.o ABSOLUTE
    b_hal_it.c                               0x00000000   Number         0  b_hal_it.o ABSOLUTE
    b_hal_qspi.c                             0x00000000   Number         0  b_hal_qspi.o ABSOLUTE
    b_hal_sdio.c                             0x00000000   Number         0  b_hal_sdio.o ABSOLUTE
    b_hal_spi.c                              0x00000000   Number         0  b_hal_spi.o ABSOLUTE
    b_hal_uart.c                             0x00000000   Number         0  b_hal_uart.o ABSOLUTE
    b_mod_adchub.c                           0x00000000   Number         0  b_mod_adchub.o ABSOLUTE
    b_mod_button.c                           0x00000000   Number         0  b_mod_button.o ABSOLUTE
    b_mod_error.c                            0x00000000   Number         0  b_mod_error.o ABSOLUTE
    b_mod_fs.c                               0x00000000   Number         0  b_mod_fs.o ABSOLUTE
    b_mod_gui.c                              0x00000000   Number         0  b_mod_gui.o ABSOLUTE
    b_mod_iap.c                              0x00000000   Number         0  b_mod_iap.o ABSOLUTE
    b_mod_kv.c                               0x00000000   Number         0  b_mod_kv.o ABSOLUTE
    b_mod_menu.c                             0x00000000   Number         0  b_mod_menu.o ABSOLUTE
    b_mod_modbus.c                           0x00000000   Number         0  b_mod_modbus.o ABSOLUTE
    b_mod_param.c                            0x00000000   Number         0  b_mod_param.o ABSOLUTE
    b_mod_protocol.c                         0x00000000   Number         0  b_mod_protocol.o ABSOLUTE
    b_mod_pwm.c                              0x00000000   Number         0  b_mod_pwm.o ABSOLUTE
    b_mod_shell.c                            0x00000000   Number         0  b_mod_shell.o ABSOLUTE
    b_mod_state.c                            0x00000000   Number         0  b_mod_state.o ABSOLUTE
    b_mod_trace.c                            0x00000000   Number         0  b_mod_trace.o ABSOLUTE
    b_mod_xm128.c                            0x00000000   Number         0  b_mod_xm128.o ABSOLUTE
    b_mod_ymodem.c                           0x00000000   Number         0  b_mod_ymodem.o ABSOLUTE
    b_queue.c                                0x00000000   Number         0  b_queue.o ABSOLUTE
    b_sem.c                                  0x00000000   Number         0  b_sem.o ABSOLUTE
    b_srv_protocol.c                         0x00000000   Number         0  b_srv_protocol.o ABSOLUTE
    b_task.c                                 0x00000000   Number         0  b_task.o ABSOLUTE
    b_timer.c                                0x00000000   Number         0  b_timer.o ABSOLUTE
    b_util_fifo.c                            0x00000000   Number         0  b_util_fifo.o ABSOLUTE
    b_util_log.c                             0x00000000   Number         0  b_util_log.o ABSOLUTE
    b_util_lunar.c                           0x00000000   Number         0  b_util_lunar.o ABSOLUTE
    b_util_memp.c                            0x00000000   Number         0  b_util_memp.o ABSOLUTE
    b_util_uart.c                            0x00000000   Number         0  b_util_uart.o ABSOLUTE
    b_util_utc.c                             0x00000000   Number         0  b_util_utc.o ABSOLUTE
    cdrcmple.s                               0x00000000   Number         0  cdrcmple.o ABSOLUTE
    dc.s                                     0x00000000   Number         0  dc.o ABSOLUTE
    handlers.s                               0x00000000   Number         0  handlers.o ABSOLUTE
    init.s                                   0x00000000   Number         0  init.o ABSOLUTE
    main.c                                   0x00000000   Number         0  main.o ABSOLUTE
    mcu_stm32l41x_flash.c                    0x00000000   Number         0  mcu_stm32l41x_flash.o ABSOLUTE
    mcu_stm32l41x_gpio.c                     0x00000000   Number         0  mcu_stm32l41x_gpio.o ABSOLUTE
    mcu_stm32l41x_i2c.c                      0x00000000   Number         0  mcu_stm32l41x_i2c.o ABSOLUTE
    mcu_stm32l41x_it.c                       0x00000000   Number         0  mcu_stm32l41x_it.o ABSOLUTE
    mcu_stm32l41x_qspi.c                     0x00000000   Number         0  mcu_stm32l41x_qspi.o ABSOLUTE
    mcu_stm32l41x_sdio.c                     0x00000000   Number         0  mcu_stm32l41x_sdio.o ABSOLUTE
    mcu_stm32l41x_spi.c                      0x00000000   Number         0  mcu_stm32l41x_spi.o ABSOLUTE
    mcu_stm32l41x_uart.c                     0x00000000   Number         0  mcu_stm32l41x_uart.o ABSOLUTE
    sfud.c                                   0x00000000   Number         0  sfud.o ABSOLUTE
    sfud_sfdp.c                              0x00000000   Number         0  sfud_sfdp.o ABSOLUTE
    startup_stm32l431xx.s                    0x00000000   Number         0  startup_stm32l431xx.o ABSOLUTE
    stm32l4xx_hal.c                          0x00000000   Number         0  stm32l4xx_hal.o ABSOLUTE
    stm32l4xx_hal_adc.c                      0x00000000   Number         0  stm32l4xx_hal_adc.o ABSOLUTE
    stm32l4xx_hal_adc_ex.c                   0x00000000   Number         0  stm32l4xx_hal_adc_ex.o ABSOLUTE
    stm32l4xx_hal_cortex.c                   0x00000000   Number         0  stm32l4xx_hal_cortex.o ABSOLUTE
    stm32l4xx_hal_dma.c                      0x00000000   Number         0  stm32l4xx_hal_dma.o ABSOLUTE
    stm32l4xx_hal_dma_ex.c                   0x00000000   Number         0  stm32l4xx_hal_dma_ex.o ABSOLUTE
    stm32l4xx_hal_flash.c                    0x00000000   Number         0  stm32l4xx_hal_flash.o ABSOLUTE
    stm32l4xx_hal_flash_ex.c                 0x00000000   Number         0  stm32l4xx_hal_flash_ex.o ABSOLUTE
    stm32l4xx_hal_flash_ramfunc.c            0x00000000   Number         0  stm32l4xx_hal_flash_ramfunc.o ABSOLUTE
    stm32l4xx_hal_gpio.c                     0x00000000   Number         0  stm32l4xx_hal_gpio.o ABSOLUTE
    stm32l4xx_hal_i2c.c                      0x00000000   Number         0  stm32l4xx_hal_i2c.o ABSOLUTE
    stm32l4xx_hal_i2c_ex.c                   0x00000000   Number         0  stm32l4xx_hal_i2c_ex.o ABSOLUTE
    stm32l4xx_hal_iwdg.c                     0x00000000   Number         0  stm32l4xx_hal_iwdg.o ABSOLUTE
    stm32l4xx_hal_mmc.c                      0x00000000   Number         0  stm32l4xx_hal_mmc.o ABSOLUTE
    stm32l4xx_hal_mmc_ex.c                   0x00000000   Number         0  stm32l4xx_hal_mmc_ex.o ABSOLUTE
    stm32l4xx_hal_msp.c                      0x00000000   Number         0  stm32l4xx_hal_msp.o ABSOLUTE
    stm32l4xx_hal_pwr.c                      0x00000000   Number         0  stm32l4xx_hal_pwr.o ABSOLUTE
    stm32l4xx_hal_pwr_ex.c                   0x00000000   Number         0  stm32l4xx_hal_pwr_ex.o ABSOLUTE
    stm32l4xx_hal_qspi.c                     0x00000000   Number         0  stm32l4xx_hal_qspi.o ABSOLUTE
    stm32l4xx_hal_rcc.c                      0x00000000   Number         0  stm32l4xx_hal_rcc.o ABSOLUTE
    stm32l4xx_hal_rcc_ex.c                   0x00000000   Number         0  stm32l4xx_hal_rcc_ex.o ABSOLUTE
    stm32l4xx_hal_sd.c                       0x00000000   Number         0  stm32l4xx_hal_sd.o ABSOLUTE
    stm32l4xx_hal_sd_ex.c                    0x00000000   Number         0  stm32l4xx_hal_sd_ex.o ABSOLUTE
    stm32l4xx_hal_smartcard.c                0x00000000   Number         0  stm32l4xx_hal_smartcard.o ABSOLUTE
    stm32l4xx_hal_smartcard_ex.c             0x00000000   Number         0  stm32l4xx_hal_smartcard_ex.o ABSOLUTE
    stm32l4xx_hal_spi.c                      0x00000000   Number         0  stm32l4xx_hal_spi.o ABSOLUTE
    stm32l4xx_hal_spi_ex.c                   0x00000000   Number         0  stm32l4xx_hal_spi_ex.o ABSOLUTE
    stm32l4xx_hal_tim.c                      0x00000000   Number         0  stm32l4xx_hal_tim.o ABSOLUTE
    stm32l4xx_hal_tim_ex.c                   0x00000000   Number         0  stm32l4xx_hal_tim_ex.o ABSOLUTE
    stm32l4xx_hal_uart.c                     0x00000000   Number         0  stm32l4xx_hal_uart.o ABSOLUTE
    stm32l4xx_hal_uart_ex.c                  0x00000000   Number         0  stm32l4xx_hal_uart_ex.o ABSOLUTE
    stm32l4xx_hal_usart.c                    0x00000000   Number         0  stm32l4xx_hal_usart.o ABSOLUTE
    stm32l4xx_hal_usart_ex.c                 0x00000000   Number         0  stm32l4xx_hal_usart_ex.o ABSOLUTE
    stm32l4xx_hal_wwdg.c                     0x00000000   Number         0  stm32l4xx_hal_wwdg.o ABSOLUTE
    stm32l4xx_it.c                           0x00000000   Number         0  stm32l4xx_it.o ABSOLUTE
    stm32l4xx_ll_sdmmc.c                     0x00000000   Number         0  stm32l4xx_ll_sdmmc.o ABSOLUTE
    system_stm32l4xx.c                       0x00000000   Number         0  system_stm32l4xx.o ABSOLUTE
    transfile.c                              0x00000000   Number         0  transfile.o ABSOLUTE
    RESET                                    0x08000000   Section      396  startup_stm32l431xx.o(RESET)
    .ARM.Collect$$$$00000000                 0x0800018c   Section        0  entry.o(.ARM.Collect$$$$00000000)
    .ARM.Collect$$$$00000001                 0x0800018c   Section        4  entry2.o(.ARM.Collect$$$$00000001)
    .ARM.Collect$$$$00000004                 0x08000190   Section        4  entry5.o(.ARM.Collect$$$$00000004)
    .ARM.Collect$$$$00000008                 0x08000194   Section        0  entry7b.o(.ARM.Collect$$$$00000008)
    .ARM.Collect$$$$0000000A                 0x08000194   Section        0  entry8b.o(.ARM.Collect$$$$0000000A)
    .ARM.Collect$$$$0000000B                 0x08000194   Section        8  entry9a.o(.ARM.Collect$$$$0000000B)
    __lit__00000000                          0x0800019c   Data           4  entry2.o(.ARM.Collect$$$$00002712)
    .ARM.Collect$$$$0000000D                 0x0800019c   Section        0  entry10a.o(.ARM.Collect$$$$0000000D)
    .ARM.Collect$$$$0000000F                 0x0800019c   Section        0  entry11a.o(.ARM.Collect$$$$0000000F)
    .ARM.Collect$$$$00002712                 0x0800019c   Section        4  entry2.o(.ARM.Collect$$$$00002712)
    $v0                                      0x080001a0   Number         0  startup_stm32l431xx.o(.text)
    .text                                    0x080001a0   Section       36  startup_stm32l431xx.o(.text)
    .text                                    0x080001c4   Section        0  uldiv.o(.text)
    .text                                    0x0800022c   Section        0  memcpya.o(.text)
    .text                                    0x08000250   Section        0  memseta.o(.text)
    .text                                    0x08000274   Section        0  strlen.o(.text)
    .text                                    0x08000282   Section        0  strcmp.o(.text)
    .text                                    0x0800029e   Section        0  dmul.o(.text)
    .text                                    0x08000388   Section        0  ddiv.o(.text)
    .text                                    0x08000466   Section        0  dfltui.o(.text)
    .text                                    0x08000480   Section        0  dfixui.o(.text)
    .text                                    0x080004b2   Section        0  uidiv.o(.text)
    .text                                    0x080004de   Section        0  llshl.o(.text)
    .text                                    0x080004fc   Section        0  llushr.o(.text)
    .text                                    0x0800051c   Section        0  iusefp.o(.text)
    .text                                    0x0800051c   Section        0  depilogue.o(.text)
    .text                                    0x080005d6   Section        0  dadd.o(.text)
    .text                                    0x08000734   Section        0  dfixul.o(.text)
    .text                                    0x08000764   Section       48  cdrcmple.o(.text)
    .text                                    0x08000794   Section       36  init.o(.text)
    .text                                    0x080007b8   Section        0  llsshr.o(.text)
    [Anonymous Symbol]                       0x080007dc   Section        0  stm32l4xx_it.o(.text.BusFault_Handler)
    [Anonymous Symbol]                       0x080007de   Section        0  stm32l4xx_it.o(.text.DebugMon_Handler)
    [Anonymous Symbol]                       0x080007e0   Section        0  main.o(.text.Error_Handler)
    [Anonymous Symbol]                       0x080007ea   Section        0  stm32l4xx_hal_dma.o(.text.HAL_DMA_Abort)
    [Anonymous Symbol]                       0x0800082e   Section        0  stm32l4xx_hal_dma.o(.text.HAL_DMA_Abort_IT)
    [Anonymous Symbol]                       0x08000884   Section        0  stm32l4xx_hal_gpio.o(.text.HAL_GPIO_Init)
    [Anonymous Symbol]                       0x08000a62   Section        0  stm32l4xx_hal_gpio.o(.text.HAL_GPIO_WritePin)
    [Anonymous Symbol]                       0x08000a6e   Section        0  stm32l4xx_hal.o(.text.HAL_GetTick)
    [Anonymous Symbol]                       0x08000a7a   Section        0  stm32l4xx_hal.o(.text.HAL_IncTick)
    [Anonymous Symbol]                       0x08000a94   Section        0  stm32l4xx_hal.o(.text.HAL_Init)
    [Anonymous Symbol]                       0x08000ab0   Section        0  stm32l4xx_hal.o(.text.HAL_InitTick)
    [Anonymous Symbol]                       0x08000b04   Section        0  stm32l4xx_hal_msp.o(.text.HAL_MspInit)
    [Anonymous Symbol]                       0x08000b36   Section        0  stm32l4xx_hal_cortex.o(.text.HAL_NVIC_EnableIRQ)
    [Anonymous Symbol]                       0x08000b54   Section        0  stm32l4xx_hal_cortex.o(.text.HAL_NVIC_SetPriority)
    [Anonymous Symbol]                       0x08000baa   Section        0  stm32l4xx_hal_cortex.o(.text.HAL_NVIC_SetPriorityGrouping)
    [Anonymous Symbol]                       0x08000bcc   Section        0  stm32l4xx_hal_pwr_ex.o(.text.HAL_PWREx_ControlVoltageScaling)
    [Anonymous Symbol]                       0x08000c40   Section        0  stm32l4xx_hal_pwr_ex.o(.text.HAL_PWREx_GetVoltageRange)
    [Anonymous Symbol]                       0x08000c50   Section        0  stm32l4xx_hal_qspi.o(.text.HAL_QSPI_Init)
    [Anonymous Symbol]                       0x08000d04   Section        0  stm32l4xx_hal_msp.o(.text.HAL_QSPI_MspInit)
    [Anonymous Symbol]                       0x08000d74   Section        0  stm32l4xx_hal_rcc_ex.o(.text.HAL_RCCEx_PeriphCLKConfig)
    [Anonymous Symbol]                       0x08000fe4   Section        0  stm32l4xx_hal_rcc.o(.text.HAL_RCC_ClockConfig)
    [Anonymous Symbol]                       0x08001140   Section        0  stm32l4xx_hal_rcc.o(.text.HAL_RCC_GetPCLK1Freq)
    [Anonymous Symbol]                       0x0800116a   Section        0  stm32l4xx_hal_rcc.o(.text.HAL_RCC_GetPCLK2Freq)
    [Anonymous Symbol]                       0x08001194   Section        0  stm32l4xx_hal_rcc.o(.text.HAL_RCC_GetSysClockFreq)
    [Anonymous Symbol]                       0x0800124c   Section        0  stm32l4xx_hal_rcc.o(.text.HAL_RCC_OscConfig)
    [Anonymous Symbol]                       0x0800183e   Section        0  stm32l4xx_hal_cortex.o(.text.HAL_SYSTICK_Config)
    [Anonymous Symbol]                       0x0800186a   Section        0  stm32l4xx_hal_uart.o(.text.HAL_UARTEx_RxEventCallback)
    [Anonymous Symbol]                       0x0800186c   Section        0  stm32l4xx_hal_uart_ex.o(.text.HAL_UARTEx_WakeupCallback)
    [Anonymous Symbol]                       0x0800186e   Section        0  stm32l4xx_hal_uart.o(.text.HAL_UART_ErrorCallback)
    [Anonymous Symbol]                       0x08001870   Section        0  stm32l4xx_hal_uart.o(.text.HAL_UART_IRQHandler)
    [Anonymous Symbol]                       0x08001b3a   Section        0  stm32l4xx_hal_uart.o(.text.HAL_UART_Init)
    [Anonymous Symbol]                       0x08001b9a   Section        0  stm32l4xx_hal_msp.o(.text.HAL_UART_MspInit)
    [Anonymous Symbol]                       0x08001c94   Section        0  stm32l4xx_hal_uart.o(.text.HAL_UART_Receive_IT)
    [Anonymous Symbol]                       0x08001cfa   Section        0  main.o(.text.HAL_UART_RxCpltCallback)
    [Anonymous Symbol]                       0x08001d40   Section        0  stm32l4xx_hal_uart.o(.text.HAL_UART_TxCpltCallback)
    [Anonymous Symbol]                       0x08001d44   Section        0  stm32l4xx_it.o(.text.HardFault_Handler)
    [Anonymous Symbol]                       0x08001d46   Section        0  stm32l4xx_it.o(.text.LPUART1_IRQHandler)
    [Anonymous Symbol]                       0x08001d54   Section        0  stm32l4xx_it.o(.text.MemManage_Handler)
    [Anonymous Symbol]                       0x08001d58   Section        0  stm32l4xx_it.o(.text.NMI_Handler)
    [Anonymous Symbol]                       0x08001d5a   Section        0  stm32l4xx_it.o(.text.PendSV_Handler)
    QSPI_WaitFlagStateUntilTimeout           0x08001d5d   Thumb Code    96  stm32l4xx_hal_qspi.o(.text.QSPI_WaitFlagStateUntilTimeout)
    [Anonymous Symbol]                       0x08001d5c   Section        0  stm32l4xx_hal_qspi.o(.text.QSPI_WaitFlagStateUntilTimeout)
    RCCEx_PLLSAI1_Config                     0x08001dbd   Thumb Code   298  stm32l4xx_hal_rcc_ex.o(.text.RCCEx_PLLSAI1_Config)
    [Anonymous Symbol]                       0x08001dbc   Section        0  stm32l4xx_hal_rcc_ex.o(.text.RCCEx_PLLSAI1_Config)
    RCC_SetFlashLatencyFromMSIRange          0x08001ee7   Thumb Code   138  stm32l4xx_hal_rcc.o(.text.RCC_SetFlashLatencyFromMSIRange)
    [Anonymous Symbol]                       0x08001ee6   Section        0  stm32l4xx_hal_rcc.o(.text.RCC_SetFlashLatencyFromMSIRange)
    [Anonymous Symbol]                       0x08001f70   Section        0  stm32l4xx_it.o(.text.SVC_Handler)
    [Anonymous Symbol]                       0x08001f72   Section        0  stm32l4xx_it.o(.text.SysTick_Handler)
    [Anonymous Symbol]                       0x08001f80   Section        0  main.o(.text.SystemClock_Config)
    [Anonymous Symbol]                       0x08002002   Section        0  system_stm32l4xx.o(.text.SystemInit)
    [Anonymous Symbol]                       0x08002014   Section        0  stm32l4xx_hal_uart.o(.text.UART_AdvFeatureConfig)
    [Anonymous Symbol]                       0x080020e0   Section        0  stm32l4xx_hal_uart.o(.text.UART_CheckIdleState)
    UART_DMAAbortOnError                     0x08002149   Thumb Code    16  stm32l4xx_hal_uart.o(.text.UART_DMAAbortOnError)
    [Anonymous Symbol]                       0x08002148   Section        0  stm32l4xx_hal_uart.o(.text.UART_DMAAbortOnError)
    UART_EndRxTransfer                       0x08002159   Thumb Code    80  stm32l4xx_hal_uart.o(.text.UART_EndRxTransfer)
    [Anonymous Symbol]                       0x08002158   Section        0  stm32l4xx_hal_uart.o(.text.UART_EndRxTransfer)
    UART_RxISR_16BIT                         0x080021a9   Thumb Code   158  stm32l4xx_hal_uart.o(.text.UART_RxISR_16BIT)
    [Anonymous Symbol]                       0x080021a8   Section        0  stm32l4xx_hal_uart.o(.text.UART_RxISR_16BIT)
    UART_RxISR_8BIT                          0x08002249   Thumb Code   158  stm32l4xx_hal_uart.o(.text.UART_RxISR_8BIT)
    [Anonymous Symbol]                       0x08002248   Section        0  stm32l4xx_hal_uart.o(.text.UART_RxISR_8BIT)
    [Anonymous Symbol]                       0x080022e8   Section        0  stm32l4xx_hal_uart.o(.text.UART_SetConfig)
    [Anonymous Symbol]                       0x080024e8   Section        0  stm32l4xx_hal_uart.o(.text.UART_Start_Receive_IT)
    [Anonymous Symbol]                       0x080025b8   Section        0  stm32l4xx_hal_uart.o(.text.UART_WaitOnFlagUntilTimeout)
    [Anonymous Symbol]                       0x08002690   Section        0  stm32l4xx_it.o(.text.USART1_IRQHandler)
    [Anonymous Symbol]                       0x0800269c   Section        0  stm32l4xx_it.o(.text.UsageFault_Handler)
    _bCoreMonitor                            0x0800269f   Thumb Code     2  b_core.o(.text._bCoreMonitor)
    [Anonymous Symbol]                       0x0800269e   Section        0  b_core.o(.text._bCoreMonitor)
    _bDriverNullInit                         0x080026a1   Thumb Code     4  b_device.o(.text._bDriverNullInit)
    [Anonymous Symbol]                       0x080026a0   Section        0  b_device.o(.text._bDriverNullInit)
    _bHalItHandler                           0x080026a5   Thumb Code    64  b_hal_uart.o(.text._bHalItHandler)
    [Anonymous Symbol]                       0x080026a4   Section        0  b_hal_uart.o(.text._bHalItHandler)
    _bHalUartDetectIdle                      0x080026e5   Thumb Code   144  b_hal_uart.o(.text._bHalUartDetectIdle)
    [Anonymous Symbol]                       0x080026e4   Section        0  b_hal_uart.o(.text._bHalUartDetectIdle)
    _bMCUFLASHClose                          0x08002775   Thumb Code     4  b_drv_mcuflash.o(.text._bMCUFLASHClose)
    [Anonymous Symbol]                       0x08002774   Section        0  b_drv_mcuflash.o(.text._bMCUFLASHClose)
    _bMCUFLASHCtl                            0x08002779   Thumb Code    62  b_drv_mcuflash.o(.text._bMCUFLASHCtl)
    [Anonymous Symbol]                       0x08002778   Section        0  b_drv_mcuflash.o(.text._bMCUFLASHCtl)
    _bMCUFLASHOpen                           0x080027b7   Thumb Code     4  b_drv_mcuflash.o(.text._bMCUFLASHOpen)
    [Anonymous Symbol]                       0x080027b6   Section        0  b_drv_mcuflash.o(.text._bMCUFLASHOpen)
    _bMCUFLASHRead                           0x080027bb   Thumb Code    10  b_drv_mcuflash.o(.text._bMCUFLASHRead)
    [Anonymous Symbol]                       0x080027ba   Section        0  b_drv_mcuflash.o(.text._bMCUFLASHRead)
    _bMCUFLASHWrite                          0x080027c5   Thumb Code    10  b_drv_mcuflash.o(.text._bMCUFLASHWrite)
    [Anonymous Symbol]                       0x080027c4   Section        0  b_drv_mcuflash.o(.text._bMCUFLASHWrite)
    _bProtoRevHandle                         0x080027cf   Thumb Code    58  transfile.o(.text._bProtoRevHandle)
    [Anonymous Symbol]                       0x080027ce   Section        0  transfile.o(.text._bProtoRevHandle)
    _bProtocolPack                           0x08002809   Thumb Code   156  b_mod_protocol.o(.text._bProtocolPack)
    [Anonymous Symbol]                       0x08002808   Section        0  b_mod_protocol.o(.text._bProtocolPack)
    _bProtocolPackage                        0x080028a5   Thumb Code    58  b_mod_protocol.o(.text._bProtocolPackage)
    [Anonymous Symbol]                       0x080028a4   Section        0  b_mod_protocol.o(.text._bProtocolPackage)
    _bProtocolParse                          0x080028e1   Thumb Code   328  b_mod_protocol.o(.text._bProtocolParse)
    [Anonymous Symbol]                       0x080028e0   Section        0  b_mod_protocol.o(.text._bProtocolParse)
    _bSPIFLASH_Close                         0x08002a29   Thumb Code    96  b_drv_spiflash.o(.text._bSPIFLASH_Close)
    [Anonymous Symbol]                       0x08002a28   Section        0  b_drv_spiflash.o(.text._bSPIFLASH_Close)
    _bSPIFLASH_Ctl                           0x08002a89   Thumb Code    62  b_drv_spiflash.o(.text._bSPIFLASH_Ctl)
    [Anonymous Symbol]                       0x08002a88   Section        0  b_drv_spiflash.o(.text._bSPIFLASH_Ctl)
    _bSPIFLASH_Open                          0x08002ac7   Thumb Code    96  b_drv_spiflash.o(.text._bSPIFLASH_Open)
    [Anonymous Symbol]                       0x08002ac6   Section        0  b_drv_spiflash.o(.text._bSPIFLASH_Open)
    _bSPIFLASH_ReadBuf                       0x08002b27   Thumb Code    18  b_drv_spiflash.o(.text._bSPIFLASH_ReadBuf)
    [Anonymous Symbol]                       0x08002b26   Section        0  b_drv_spiflash.o(.text._bSPIFLASH_ReadBuf)
    _bSPIFLASH_WriteBuf                      0x08002b39   Thumb Code    18  b_drv_spiflash.o(.text._bSPIFLASH_WriteBuf)
    [Anonymous Symbol]                       0x08002b38   Section        0  b_drv_spiflash.o(.text._bSPIFLASH_WriteBuf)
    _bSPIFlashSPI_Lock                       0x08002b4b   Thumb Code     4  b_drv_spiflash.o(.text._bSPIFlashSPI_Lock)
    [Anonymous Symbol]                       0x08002b4a   Section        0  b_drv_spiflash.o(.text._bSPIFlashSPI_Lock)
    _bSPIFlashSPI_Unlock                     0x08002b4f   Thumb Code     4  b_drv_spiflash.o(.text._bSPIFlashSPI_Unlock)
    [Anonymous Symbol]                       0x08002b4e   Section        0  b_drv_spiflash.o(.text._bSPIFlashSPI_Unlock)
    _bSPIFlashSPI_WR                         0x08002b53   Thumb Code   290  b_drv_spiflash.o(.text._bSPIFlashSPI_WR)
    [Anonymous Symbol]                       0x08002b52   Section        0  b_drv_spiflash.o(.text._bSPIFlashSPI_WR)
    _bTaskCore                               0x08002c75   Thumb Code    60  b_task.o(.text._bTaskCore)
    [Anonymous Symbol]                       0x08002c74   Section        0  b_task.o(.text._bTaskCore)
    _bTimerCore                              0x08002cb1   Thumb Code    84  b_timer.o(.text._bTimerCore)
    [Anonymous Symbol]                       0x08002cb0   Section        0  b_timer.o(.text._bTimerCore)
    [Anonymous Symbol]                       0x08002d04   Section        0  b_core.o(.text.bClose)
    [Anonymous Symbol]                       0x08002d38   Section        0  b_core.o(.text.bCtl)
    [Anonymous Symbol]                       0x08002d58   Section        0  b_device.o(.text.bDeviceClose)
    [Anonymous Symbol]                       0x08002dd4   Section        0  b_device.o(.text.bDeviceCtl)
    [Anonymous Symbol]                       0x08002e4c   Section        0  b_device.o(.text.bDeviceInit)
    [Anonymous Symbol]                       0x08002ffc   Section        0  b_device.o(.text.bDeviceOpen)
    [Anonymous Symbol]                       0x08003074   Section        0  b_device.o(.text.bDeviceRead)
    [Anonymous Symbol]                       0x080030f0   Section        0  b_device.o(.text.bDeviceWrite)
    [Anonymous Symbol]                       0x08003174   Section        0  b_core.o(.text.bExec)
    [Anonymous Symbol]                       0x080031a4   Section        0  b_hal.o(.text.bHalDelayUs)
    [Anonymous Symbol]                       0x080031c2   Section        0  b_hal_flash.o(.text.bHalFlashChipSize)
    [Anonymous Symbol]                       0x080031c6   Section        0  b_hal_flash.o(.text.bHalFlashErase)
    [Anonymous Symbol]                       0x080031ca   Section        0  b_hal_flash.o(.text.bHalFlashInit)
    [Anonymous Symbol]                       0x080031ce   Section        0  b_hal_flash.o(.text.bHalFlashLock)
    [Anonymous Symbol]                       0x080031d2   Section        0  b_hal_flash.o(.text.bHalFlashRead)
    [Anonymous Symbol]                       0x080031d6   Section        0  b_hal_flash.o(.text.bHalFlashSectorSize)
    [Anonymous Symbol]                       0x080031da   Section        0  b_hal_flash.o(.text.bHalFlashUnlock)
    [Anonymous Symbol]                       0x080031de   Section        0  b_hal_flash.o(.text.bHalFlashWrite)
    [Anonymous Symbol]                       0x080031e2   Section        0  b_hal.o(.text.bHalGetSysTick)
    [Anonymous Symbol]                       0x080031ee   Section        0  b_hal_gpio.o(.text.bHalGpioReadPin)
    [Anonymous Symbol]                       0x080031f2   Section        0  b_hal_gpio.o(.text.bHalGpioWritePin)
    [Anonymous Symbol]                       0x080031f6   Section        0  b_hal.o(.text.bHalIncSysTick)
    [Anonymous Symbol]                       0x08003220   Section        0  b_hal.o(.text.bHalInit)
    [Anonymous Symbol]                       0x080032a8   Section        0  b_hal_it.o(.text.bHalIntDisable)
    [Anonymous Symbol]                       0x080032ac   Section        0  b_hal_it.o(.text.bHalIntEnable)
    [Anonymous Symbol]                       0x080032b0   Section        0  b_hal_it.o(.text.bHalItInvoke)
    [Anonymous Symbol]                       0x080032f2   Section        0  b_hal_it.o(.text.bHalItRegister)
    [Anonymous Symbol]                       0x08003316   Section        0  b_hal_qspi.o(.text.bHalQSPIReceiveData)
    [Anonymous Symbol]                       0x08003326   Section        0  b_hal_qspi.o(.text.bHalQSPISendCmd)
    [Anonymous Symbol]                       0x08003336   Section        0  b_hal_qspi.o(.text.bHalQSPITransmitData)
    [Anonymous Symbol]                       0x08003348   Section        0  b_hal_spi.o(.text.bHalSpiReceive)
    [Anonymous Symbol]                       0x08003388   Section        0  b_hal_spi.o(.text.bHalSpiSend)
    [Anonymous Symbol]                       0x080033c4   Section        0  b_hal_spi.o(.text.bHalSpiTransfer)
    [Anonymous Symbol]                       0x080034b8   Section        0  b_hal_uart.o(.text.bHalUartReceiveIdle)
    [Anonymous Symbol]                       0x08003520   Section        0  b_hal_uart.o(.text.bHalUartSend)
    [Anonymous Symbol]                       0x08003524   Section        0  b_hal.o(.text.bHalUserInit)
    [Anonymous Symbol]                       0x08003528   Section        0  b_core.o(.text.bInit)
    [Anonymous Symbol]                       0x080036dc   Section        0  b_util_log.o(.text.bLogOut)
    bLogParamTable                           0x080037d0   Number         0  b_util_log.o(.text.bLogOut)
    bLogPrefix                               0x080037d4   Number         0  b_util_log.o(.text.bLogOut)
    [Anonymous Symbol]                       0x080037dc   Section        0  b_core.o(.text.bLseek)
    [Anonymous Symbol]                       0x08003800   Section        0  b_drv_mcuflash.o(.text.bMCUFLASH_Init)
    [Anonymous Symbol]                       0x08003862   Section        0  mcu_stm32l41x_flash.o(.text.bMcuFlashChipSize)
    [Anonymous Symbol]                       0x08003870   Section        0  mcu_stm32l41x_flash.o(.text.bMcuFlashErase)
    [Anonymous Symbol]                       0x0800390e   Section        0  mcu_stm32l41x_flash.o(.text.bMcuFlashInit)
    [Anonymous Symbol]                       0x08003928   Section        0  mcu_stm32l41x_flash.o(.text.bMcuFlashLock)
    [Anonymous Symbol]                       0x0800393c   Section        0  mcu_stm32l41x_flash.o(.text.bMcuFlashRead)
    [Anonymous Symbol]                       0x0800397e   Section        0  mcu_stm32l41x_flash.o(.text.bMcuFlashSectorSize)
    [Anonymous Symbol]                       0x08003984   Section        0  mcu_stm32l41x_flash.o(.text.bMcuFlashUnlock)
    [Anonymous Symbol]                       0x080039a4   Section        0  mcu_stm32l41x_flash.o(.text.bMcuFlashWrite)
    [Anonymous Symbol]                       0x08003a92   Section        0  mcu_stm32l41x_gpio.o(.text.bMcuGpioReadPin)
    [Anonymous Symbol]                       0x08003ab8   Section        0  mcu_stm32l41x_gpio.o(.text.bMcuGpioWritePin)
    [Anonymous Symbol]                       0x08003ae2   Section        0  mcu_stm32l41x_it.o(.text.bMcuIntDisable)
    [Anonymous Symbol]                       0x08003aea   Section        0  mcu_stm32l41x_it.o(.text.bMcuIntEnable)
    [Anonymous Symbol]                       0x08003af0   Section        0  mcu_stm32l41x_qspi.o(.text.bMcuQSPIReceiveData)
    [Anonymous Symbol]                       0x08003b64   Section        0  mcu_stm32l41x_qspi.o(.text.bMcuQSPISendCmd)
    [Anonymous Symbol]                       0x08003c3c   Section        0  mcu_stm32l41x_qspi.o(.text.bMcuQSPITransmitData)
    [Anonymous Symbol]                       0x08003ca8   Section        0  mcu_stm32l41x_spi.o(.text.bMcuSpiReceive)
    [Anonymous Symbol]                       0x08003cd0   Section        0  mcu_stm32l41x_spi.o(.text.bMcuSpiSend)
    [Anonymous Symbol]                       0x08003cf8   Section        0  mcu_stm32l41x_spi.o(.text.bMcuSpiTransfer)
    [Anonymous Symbol]                       0x08003d3c   Section        0  mcu_stm32l41x_uart.o(.text.bMcuUartSend)
    [Anonymous Symbol]                       0x08003dbc   Section        0  b_core.o(.text.bOpen)
    [Anonymous Symbol]                       0x08003e48   Section        0  b_srv_protocol.o(.text.bProtSrvInit)
    [Anonymous Symbol]                       0x08003ea4   Section        0  b_srv_protocol.o(.text.bProtSrvPackage)
    [Anonymous Symbol]                       0x08003ec6   Section        0  b_srv_protocol.o(.text.bProtSrvParse)
    [Anonymous Symbol]                       0x08003ee8   Section        0  transfile.o(.text.bProtoCallback)
    [Anonymous Symbol]                       0x08003f66   Section        0  b_core.o(.text.bRead)
    [Anonymous Symbol]                       0x08003fb8   Section        0  b_drv_spiflash.o(.text.bSPIFLASH_Init)
    [Anonymous Symbol]                       0x08004054   Section        0  b_sem.o(.text.bSemAcquireNonblock)
    [Anonymous Symbol]                       0x08004084   Section        0  b_sem.o(.text.bSemCreate)
    [Anonymous Symbol]                       0x080040c8   Section        0  b_sem.o(.text.bSemRelease)
    [Anonymous Symbol]                       0x080040fc   Section        0  b_task.o(.text.bTaskCreate)
    [Anonymous Symbol]                       0x08004164   Section        0  transfile.o(.text.bTransFileInit)
    [Anonymous Symbol]                       0x080041dc   Section        0  transfile.o(.text.bTransFileTask)
    [Anonymous Symbol]                       0x080043f6   Section        0  b_core.o(.text.bWrite)
    [Anonymous Symbol]                       0x08004448   Section        0  algo_crc.o(.text.crc32_d)
    [Anonymous Symbol]                       0x0800448a   Section        0  algo_crc.o(.text.crc_calculate_sbs)
    [Anonymous Symbol]                       0x080044e0   Section        0  main.o(.text.main)
    page256_or_1_byte_write                  0x08004659   Thumb Code   696  sfud.o(.text.page256_or_1_byte_write)
    [Anonymous Symbol]                       0x08004658   Section        0  sfud.o(.text.page256_or_1_byte_write)
    read_sfdp_data                           0x08004919   Thumb Code   428  sfud_sfdp.o(.text.read_sfdp_data)
    [Anonymous Symbol]                       0x08004918   Section        0  sfud_sfdp.o(.text.read_sfdp_data)
    set_write_enabled                        0x08004ac5   Thumb Code   284  sfud.o(.text.set_write_enabled)
    [Anonymous Symbol]                       0x08004ac4   Section        0  sfud.o(.text.set_write_enabled)
    [Anonymous Symbol]                       0x08004be0   Section        0  sfud.o(.text.sfud_chip_erase)
    [Anonymous Symbol]                       0x08004d7c   Section        0  sfud.o(.text.sfud_device_init)
    [Anonymous Symbol]                       0x08005340   Section        0  sfud.o(.text.sfud_erase)
    [Anonymous Symbol]                       0x080055b0   Section        0  sfud.o(.text.sfud_read)
    [Anonymous Symbol]                       0x08005780   Section        0  sfud_sfdp.o(.text.sfud_read_sfdp)
    [Anonymous Symbol]                       0x08006008   Section        0  sfud_sfdp.o(.text.sfud_sfdp_get_suitable_eraser)
    [Anonymous Symbol]                       0x080060ac   Section        0  b_drv_spiflash.o(.text.sfud_spi_port_init)
    [Anonymous Symbol]                       0x080060dc   Section        0  sfud.o(.text.sfud_write)
    [Anonymous Symbol]                       0x0800632c   Section        0  sfud.o(.text.sfud_write_status)
    wait_busy                                0x08006445   Thumb Code   280  sfud.o(.text.wait_busy)
    [Anonymous Symbol]                       0x08006444   Section        0  sfud.o(.text.wait_busy)
    i.__0sprintf                             0x08006564   Section        0  printfa.o(i.__0sprintf)
    i.__0vsnprintf                           0x0800658c   Section        0  printfa.o(i.__0vsnprintf)
    i.__scatterload_copy                     0x080065c0   Section       14  handlers.o(i.__scatterload_copy)
    i.__scatterload_null                     0x080065ce   Section        2  handlers.o(i.__scatterload_null)
    i.__scatterload_zeroinit                 0x080065d0   Section       14  handlers.o(i.__scatterload_zeroinit)
    _fp_digits                               0x080065e1   Thumb Code   366  printfa.o(i._fp_digits)
    i._fp_digits                             0x080065e0   Section        0  printfa.o(i._fp_digits)
    _printf_core                             0x0800676d   Thumb Code  1744  printfa.o(i._printf_core)
    i._printf_core                           0x0800676c   Section        0  printfa.o(i._printf_core)
    _printf_post_padding                     0x08006e4f   Thumb Code    36  printfa.o(i._printf_post_padding)
    i._printf_post_padding                   0x08006e4e   Section        0  printfa.o(i._printf_post_padding)
    _printf_pre_padding                      0x08006e73   Thumb Code    46  printfa.o(i._printf_pre_padding)
    i._printf_pre_padding                    0x08006e72   Section        0  printfa.o(i._printf_pre_padding)
    _snputc                                  0x08006ea1   Thumb Code    22  printfa.o(i._snputc)
    i._snputc                                0x08006ea0   Section        0  printfa.o(i._snputc)
    _sputc                                   0x08006eb7   Thumb Code    10  printfa.o(i._sputc)
    i._sputc                                 0x08006eb6   Section        0  printfa.o(i._sputc)
    .Lswitch.table.crc_calculate_sbs         0x08006ec0   Data          52  algo_crc.o(.rodata..Lswitch.table.crc_calculate_sbs)
    SpiTable                                 0x08006f3c   Data          12  mcu_stm32l41x_spi.o(.rodata.SpiTable)
    [Anonymous Symbol]                       0x08006f3c   Section        0  mcu_stm32l41x_spi.o(.rodata.SpiTable)
    bDeviceDescTable                         0x08006f48   Data          12  b_device.o(.rodata.bDeviceDescTable)
    [Anonymous Symbol]                       0x08006f48   Section        0  b_device.o(.rodata.bDeviceDescTable)
    bDriverNumberTable                       0x08006f54   Data           3  b_device.o(.rodata.bDriverNumberTable)
    [Anonymous Symbol]                       0x08006f54   Section        0  b_device.o(.rodata.bDriverNumberTable)
    bHalIf_MCUFLASH                          0x08006f58   Data           4  b_drv_mcuflash.o(.rodata.bHalIf_MCUFLASH)
    [Anonymous Symbol]                       0x08006f58   Section        0  b_drv_mcuflash.o(.rodata.bHalIf_MCUFLASH)
    bHalIf_SPIFLASH                          0x08006f5c   Data          12  b_drv_spiflash.o(.rodata.bHalIf_SPIFLASH)
    [Anonymous Symbol]                       0x08006f5c   Section        0  b_drv_spiflash.o(.rodata.bHalIf_SPIFLASH)
    .Lswitch.table.UART_SetConfig.3          0x08006f68   Data          16  stm32l4xx_hal_uart.o(.rodata.cst16)
    UartTable                                0x08006f78   Data          16  mcu_stm32l41x_uart.o(.rodata.cst16)
    flash_chip_table                         0x08006f88   Data         504  sfud.o(.rodata.flash_chip_table)
    [Anonymous Symbol]                       0x08006f88   Section        0  sfud.o(.rodata.flash_chip_table)
    mf_table                                 0x08007180   Data         128  sfud.o(.rodata.mf_table)
    [Anonymous Symbol]                       0x08007180   Section        0  sfud.o(.rodata.mf_table)
    .L.str                                   0x08007200   Data           4  transfile.o(.rodata.str1.1)
    .L.str.1                                 0x08007200   Data           4  transfile.o(.rodata.str1.1)
    [Anonymous Symbol]                       0x08007200   Section        0  transfile.o(.rodata.str1.1)
    .L.str.7                                 0x08007204   Data          49  b_core.o(.rodata.str1.1)
    [Anonymous Symbol]                       0x08007204   Section        0  b_core.o(.rodata.str1.1)
    .L.str.5                                 0x08007235   Data          49  b_core.o(.rodata.str1.1)
    .L.str.2                                 0x08007266   Data          49  b_core.o(.rodata.str1.1)
    .L.str.4                                 0x08007297   Data          49  b_core.o(.rodata.str1.1)
    .L.str.3                                 0x080072c8   Data          49  b_core.o(.rodata.str1.1)
    .L.str.6                                 0x080072f9   Data          49  b_core.o(.rodata.str1.1)
    .L.str.1                                 0x0800732a   Data          49  b_core.o(.rodata.str1.1)
    .L.str                                   0x0800735b   Data          34  b_core.o(.rodata.str1.1)
    .L__func__.bInit                         0x0800737d   Data           6  b_core.o(.rodata.str1.1)
    .L.str.3                                 0x08007383   Data          14  b_device.o(.rodata.str1.1)
    [Anonymous Symbol]                       0x08007383   Section        0  b_device.o(.rodata.str1.1)
    .L.str.6                                 0x08007391   Data           9  b_device.o(.rodata.str1.1)
    .L.str.2                                 0x08007397   Data           3  b_device.o(.rodata.str1.1)
    .L.str.3                                 0x08007397   Data           3  b_device.o(.rodata.str1.1)
    .L.str                                   0x0800739a   Data          36  b_device.o(.rodata.str1.1)
    .L.str.9                                 0x080073be   Data           9  b_device.o(.rodata.str1.1)
    .L.str.10                                0x080073c7   Data           9  b_device.o(.rodata.str1.1)
    .L.str.2                                 0x080073ca   Data           6  b_device.o(.rodata.str1.1)
    .L.str.5                                 0x080073ca   Data           6  b_device.o(.rodata.str1.1)
    .L.str.8                                 0x080073d0   Data           5  b_device.o(.rodata.str1.1)
    .L__func__.bDeviceInit                   0x080073d5   Data          12  b_device.o(.rodata.str1.1)
    .L.str.18                                0x080073e1   Data          93  sfud.o(.rodata.str1.1)
    [Anonymous Symbol]                       0x080073e1   Section        0  sfud.o(.rodata.str1.1)
    .L.str.62                                0x0800743e   Data          41  sfud.o(.rodata.str1.1)
    .L.str.57                                0x08007467   Data          34  sfud.o(.rodata.str1.1)
    .L.str.8                                 0x08007489   Data          38  sfud.o(.rodata.str1.1)
    .L.str.3                                 0x080074af   Data          43  sfud.o(.rodata.str1.1)
    .L.str.64                                0x080074da   Data          42  sfud.o(.rodata.str1.1)
    .L__func__.sfud_read_status              0x080074ed   Data          17  sfud.o(.rodata.str1.1)
    .L.str.1                                 0x08007504   Data          30  sfud.o(.rodata.str1.1)
    .L.str.4                                 0x08007504   Data          30  sfud.o(.rodata.str1.1)
    .L.str.16                                0x08007522   Data          41  sfud.o(.rodata.str1.1)
    .L.str.59                                0x0800754b   Data          35  sfud.o(.rodata.str1.1)
    .L.str.1                                 0x0800756e   Data          39  sfud.o(.rodata.str1.1)
    .L.str.58                                0x08007595   Data          28  sfud.o(.rodata.str1.1)
    .L.str.14                                0x080075b1   Data          56  sfud.o(.rodata.str1.1)
    .L.str.32                                0x080075e9   Data           7  sfud.o(.rodata.str1.1)
    .L.str.38                                0x080075f0   Data           8  sfud.o(.rodata.str1.1)
    .L.str.31                                0x080075f8   Data           7  sfud.o(.rodata.str1.1)
    .L.str.30                                0x080075ff   Data           7  sfud.o(.rodata.str1.1)
    .L.str.39                                0x08007606   Data           8  sfud.o(.rodata.str1.1)
    .L.str.28                                0x0800760e   Data          12  sfud.o(.rodata.str1.1)
    .L.str.33                                0x0800761a   Data           9  sfud.o(.rodata.str1.1)
    .L.str.34                                0x08007623   Data           9  sfud.o(.rodata.str1.1)
    .L.str.40                                0x0800762c   Data          12  sfud.o(.rodata.str1.1)
    .L.str.29                                0x08007638   Data          12  sfud.o(.rodata.str1.1)
    .L.str.35                                0x08007644   Data           9  sfud.o(.rodata.str1.1)
    .L.str.46                                0x0800764d   Data           5  sfud.o(.rodata.str1.1)
    .L.str.20                                0x08007652   Data          11  sfud.o(.rodata.str1.1)
    .L.str.54                                0x0800765d   Data           5  sfud.o(.rodata.str1.1)
    .L.str.36                                0x08007662   Data          10  sfud.o(.rodata.str1.1)
    .L.str.43                                0x0800766c   Data           4  sfud.o(.rodata.str1.1)
    .L.str.37                                0x08007670   Data          10  sfud.o(.rodata.str1.1)
    .L.str.49                                0x0800767a   Data           5  sfud.o(.rodata.str1.1)
    .L.str.52                                0x0800767f   Data           4  sfud.o(.rodata.str1.1)
    .L.str.21                                0x08007683   Data           9  sfud.o(.rodata.str1.1)
    .L.str.24                                0x0800768c   Data           9  sfud.o(.rodata.str1.1)
    .L.str.25                                0x08007695   Data           9  sfud.o(.rodata.str1.1)
    .L.str.23                                0x0800769e   Data           9  sfud.o(.rodata.str1.1)
    .L.str.22                                0x080076a7   Data           9  sfud.o(.rodata.str1.1)
    .L.str.26                                0x080076b0   Data          10  sfud.o(.rodata.str1.1)
    .L.str.27                                0x080076ba   Data          10  sfud.o(.rodata.str1.1)
    .L.str                                   0x080076c4   Data          40  sfud.o(.rodata.str1.1)
    .L__func__.sfud_read                     0x080076ec   Data          10  sfud.o(.rodata.str1.1)
    .L__func__.set_write_enabled             0x080076f6   Data          18  sfud.o(.rodata.str1.1)
    .L__func__.read_jedec_id                 0x08007708   Data          14  sfud.o(.rodata.str1.1)
    .L.str.55                                0x08007716   Data           8  sfud.o(.rodata.str1.1)
    .L.str.53                                0x0800771e   Data          11  sfud.o(.rodata.str1.1)
    .L__func__.set_4_byte_address_mode       0x08007729   Data          24  sfud.o(.rodata.str1.1)
    .L__func__.sfud_erase                    0x08007741   Data          11  sfud.o(.rodata.str1.1)
    .L__func__.sfud_chip_erase               0x0800774c   Data          16  sfud.o(.rodata.str1.1)
    .L__func__.page256_or_1_byte_write       0x0800775c   Data          24  sfud.o(.rodata.str1.1)
    .L__func__.aai_write                     0x08007774   Data          10  sfud.o(.rodata.str1.1)
    .L.str.51                                0x0800777e   Data           8  sfud.o(.rodata.str1.1)
    .L.str.7                                 0x08007786   Data          15  sfud.o(.rodata.str1.1)
    .L.str.44                                0x08007795   Data           6  sfud.o(.rodata.str1.1)
    .L.str.48                                0x0800779b   Data           6  sfud.o(.rodata.str1.1)
    .L.str.50                                0x080077a1   Data           6  sfud.o(.rodata.str1.1)
    .L.str.45                                0x080077a7   Data           7  sfud.o(.rodata.str1.1)
    .L.str.47                                0x080077ae   Data           6  sfud.o(.rodata.str1.1)
    .L.str.60                                0x080077b4   Data           6  sfud.o(.rodata.str1.1)
    .L.str.13                                0x080077ba   Data          14  sfud.o(.rodata.str1.1)
    .L.str.41                                0x080077c8   Data           8  sfud.o(.rodata.str1.1)
    .L__func__.sfud_write_status             0x080077d0   Data          18  sfud.o(.rodata.str1.1)
    .L__func__.reset                         0x080077e2   Data           6  sfud.o(.rodata.str1.1)
    .L__func__.sfud_device_init              0x080077e8   Data          17  sfud.o(.rodata.str1.1)
    .L__func__.hardware_init                 0x080077f9   Data          14  sfud.o(.rodata.str1.1)
    .L.str.42                                0x08007807   Data           8  sfud.o(.rodata.str1.1)
    .L.str.56                                0x0800780f   Data           9  sfud.o(.rodata.str1.1)
    .L__func__.wait_busy                     0x08007818   Data          10  sfud.o(.rodata.str1.1)
    .L.str.34                                0x08007822   Data          33  sfud_sfdp.o(.rodata.str1.1)
    [Anonymous Symbol]                       0x08007822   Section        0  sfud_sfdp.o(.rodata.str1.1)
    .L.str.7                                 0x08007843   Data          76  sfud_sfdp.o(.rodata.str1.1)
    .L.str.4                                 0x0800788f   Data          90  sfud_sfdp.o(.rodata.str1.1)
    .L.str.22                                0x080078e9   Data          66  sfud_sfdp.o(.rodata.str1.1)
    .L.str.37                                0x0800792b   Data          60  sfud_sfdp.o(.rodata.str1.1)
    .L.str.17                                0x08007967   Data         139  sfud_sfdp.o(.rodata.str1.1)
    .L.str.35                                0x080079f2   Data          69  sfud_sfdp.o(.rodata.str1.1)
    .L.str.8                                 0x08007a37   Data          53  sfud_sfdp.o(.rodata.str1.1)
    .L.str.15                                0x08007a6c   Data          83  sfud_sfdp.o(.rodata.str1.1)
    .L.str.23                                0x08007abf   Data          51  sfud_sfdp.o(.rodata.str1.1)
    .L.str.18                                0x08007af2   Data          55  sfud_sfdp.o(.rodata.str1.1)
    .L.str.28                                0x08007b29   Data          68  sfud_sfdp.o(.rodata.str1.1)
    .L.str.27                                0x08007b6d   Data          46  sfud_sfdp.o(.rodata.str1.1)
    .L.str.25                                0x08007b9b   Data          29  sfud_sfdp.o(.rodata.str1.1)
    .L.str.32                                0x08007bb8   Data          25  sfud_sfdp.o(.rodata.str1.1)
    .L.str.31                                0x08007bd1   Data          24  sfud_sfdp.o(.rodata.str1.1)
    .L.str.33                                0x08007be9   Data          24  sfud_sfdp.o(.rodata.str1.1)
    .L.str.14                                0x08007c01   Data          54  sfud_sfdp.o(.rodata.str1.1)
    .L.str.26                                0x08007c37   Data          41  sfud_sfdp.o(.rodata.str1.1)
    .L.str.29                                0x08007c60   Data         119  sfud_sfdp.o(.rodata.str1.1)
    .L.str.30                                0x08007cd7   Data         119  sfud_sfdp.o(.rodata.str1.1)
    .L.str.16                                0x08007d4e   Data          71  sfud_sfdp.o(.rodata.str1.1)
    .L.str.24                                0x08007d95   Data          55  sfud_sfdp.o(.rodata.str1.1)
    .L.str.36                                0x08007dcc   Data          23  sfud_sfdp.o(.rodata.str1.1)
    .L.str.19                                0x08007de3   Data          40  sfud_sfdp.o(.rodata.str1.1)
    .L.str.21                                0x08007e0b   Data          35  sfud_sfdp.o(.rodata.str1.1)
    .L__func__.read_sfdp_data                0x08007e2e   Data          15  sfud_sfdp.o(.rodata.str1.1)
    .L.str                                   0x08007e3d   Data          45  sfud_sfdp.o(.rodata.str1.1)
    .L__func__.read_basic_table              0x08007e6a   Data          17  sfud_sfdp.o(.rodata.str1.1)
    .L__func__.sfud_read_sfdp                0x08007e7b   Data          15  sfud_sfdp.o(.rodata.str1.1)
    .L__func__.read_basic_header             0x08007e8a   Data          18  sfud_sfdp.o(.rodata.str1.1)
    .L__func__.read_sfdp_header              0x08007e9c   Data          17  sfud_sfdp.o(.rodata.str1.1)
    .L__func__.sfud_sfdp_get_suitable_eraser 0x08007ead   Data          30  sfud_sfdp.o(.rodata.str1.1)
    __tagsym$$used.0                         0x08007eec   Number         0  b_mod_protocol.o(b_srv_protocol)
    __tagsym$$used.0                         0x08007ef8   Number         0  b_core.o(bos_polling)
    __tagsym$$used.0                         0x08007efc   Number         0  b_task.o(bos_polling)
    __tagsym$$used.0                         0x08007f00   Number         0  b_timer.o(bos_polling)
    __tagsym$$used.0                         0x08007f04   Number         0  b_hal_uart.o(bos_polling)
    __tagsym$$used.1                         0x08007f08   Number         0  b_device.o(driver_init)
    __tagsym$$used.0                         0x08007f10   Number         0  b_drv_spiflash.o(driver_init)
    __tagsym$$used.0                         0x08007f18   Number         0  b_drv_mcuflash.o(driver_init)
    __tagsym$$used.0                         0x08007f20   Number         0  b_device.o(driver_init_0)
    bHalItListHead                           0x20000004   Data           8  b_hal_it.o(.data.bHalItListHead)
    [Anonymous Symbol]                       0x20000004   Section        0  b_hal_it.o(.data.bHalItListHead)
    bHalUartListHead                         0x2000000c   Data           8  b_hal_uart.o(.data.bHalUartListHead)
    [Anonymous Symbol]                       0x2000000c   Section        0  b_hal_uart.o(.data.bHalUartListHead)
    bProtoUart                               0x20000014   Data          56  transfile.o(.data.bProtoUart)
    [Anonymous Symbol]                       0x20000014   Section        0  transfile.o(.data.bProtoUart)
    bProtol                                  0x2000004c   Data          24  transfile.o(.data.bProtol)
    [Anonymous Symbol]                       0x2000004c   Section        0  transfile.o(.data.bProtol)
    bSemListHead                             0x20000064   Data           8  b_sem.o(.data.bSemListHead)
    [Anonymous Symbol]                       0x20000064   Section        0  b_sem.o(.data.bSemListHead)
    bTaskListHead                            0x2000006c   Data           8  b_task.o(.data.bTaskListHead)
    [Anonymous Symbol]                       0x2000006c   Section        0  b_task.o(.data.bTaskListHead)
    bTimerListHead                           0x20000074   Data           8  b_timer.o(.data.bTimerListHead)
    [Anonymous Symbol]                       0x20000074   Section        0  b_timer.o(.data.bTimerListHead)
    bUsDelayParam                            0x2000007c   Data           4  b_hal.o(.data.bUsDelayParam)
    [Anonymous Symbol]                       0x2000007c   Section        0  b_hal.o(.data.bUsDelayParam)
    sgFd                                     0x20000080   Data           4  transfile.o(.data.sgFd)
    [Anonymous Symbol]                       0x20000080   Section        0  transfile.o(.data.sgFd)
    _bCoreCreateFd.init                      0x20000090   Data           1  b_core.o(.bss._bCoreCreateFd.init)
    [Anonymous Symbol]                       0x20000090   Section        0  b_core.o(.bss._bCoreCreateFd.init)
    bBufbProtoUart                           0x20000091   Data        1024  transfile.o(.bss.bBufbProtoUart)
    [Anonymous Symbol]                       0x20000091   Section        0  transfile.o(.bss.bBufbProtoUart)
    bCoreFdTable                             0x20000494   Data          36  b_core.o(.bss.bCoreFdTable)
    [Anonymous Symbol]                       0x20000494   Section        0  b_core.o(.bss.bCoreFdTable)
    bDriverInterfaceTable                    0x200004b8   Data         204  b_device.o(.bss.bDriverInterfaceTable)
    [Anonymous Symbol]                       0x200004b8   Section        0  b_device.o(.bss.bDriverInterfaceTable)
    bLogBuff                                 0x20000584   Data         256  b_util_log.o(.bss.bLogBuff)
    [Anonymous Symbol]                       0x20000584   Section        0  b_util_log.o(.bss.bLogBuff)
    bSpiFlashPrivate                         0x20000684   Data         116  b_drv_spiflash.o(.bss.bSpiFlashPrivate)
    [Anonymous Symbol]                       0x20000684   Section        0  b_drv_spiflash.o(.bss.bSpiFlashPrivate)
    bSysTick                                 0x200006f8   Data           4  b_hal.o(.bss.bSysTick)
    [Anonymous Symbol]                       0x200006f8   Section        0  b_hal.o(.bss.bSysTick)
    bSysTickOvr                              0x200006fc   Data           4  b_hal.o(.bss.bSysTickOvr)
    [Anonymous Symbol]                       0x200006fc   Section        0  b_hal.o(.bss.bSysTickOvr)
    bTransFileAttr                           0x20000700   Data          44  transfile.o(.bss.bTransFileAttr)
    [Anonymous Symbol]                       0x20000700   Section        0  transfile.o(.bss.bTransFileAttr)
    bTransFileSemAttr                        0x20000740   Data          16  transfile.o(.bss.bTransFileSemAttr)
    [Anonymous Symbol]                       0x20000740   Section        0  transfile.o(.bss.bTransFileSemAttr)
    pCurrentTaskAttr                         0x200008a4   Data           4  b_task.o(.bss.pCurrentTaskAttr)
    [Anonymous Symbol]                       0x200008a4   Section        0  b_task.o(.bss.pCurrentTaskAttr)
    page256_or_1_byte_write.cmd_data         0x200008a8   Data         261  sfud.o(.bss.page256_or_1_byte_write.cmd_data)
    [Anonymous Symbol]                       0x200008a8   Section        0  sfud.o(.bss.page256_or_1_byte_write.cmd_data)
    sMcuFlashSize                            0x200009b0   Data           4  mcu_stm32l41x_flash.o(.bss.sMcuFlashSize)
    [Anonymous Symbol]                       0x200009b0   Section        0  mcu_stm32l41x_flash.o(.bss.sMcuFlashSize)
    sgSemId                                  0x200009b4   Data           4  transfile.o(.bss.sgSemId)
    [Anonymous Symbol]                       0x200009b4   Section        0  transfile.o(.bss.sgSemId)
    sgSrvId                                  0x200009b8   Data           4  transfile.o(.bss.sgSrvId)
    [Anonymous Symbol]                       0x200009b8   Section        0  transfile.o(.bss.sgSrvId)
    sgUartData                               0x200009bc   Data           1  main.o(.bss.sgUartData)
    [Anonymous Symbol]                       0x200009bc   Section        0  main.o(.bss.sgUartData)
    STACK                                    0x200009c8   Section     1024  startup_stm32l431xx.o(STACK)

    Global Symbols

    Symbol Name                              Value     Ov Type        Size  Object(Section)

    BuildAttributes$$THM_ISAv4$E$P$D$K$B$S$7EM$VFPi3$EXTD16$VFPS$VFMA$PE$A:L22UL41UL21$X:L11$S22US41US21$IEEE1$IW$~IW$USESV6$~STKCKD$USESV7$~SHL$OSPACE$ROPI$EBA8$MICROLIB$REQ8$PRES8$EABIv2 0x00000000   Number         0  anon$$obj.o ABSOLUTE
    _printf_a                                0x00000000   Number         0  printfstubs.o ABSOLUTE
    _printf_c                                0x00000000   Number         0  printfstubs.o ABSOLUTE
    _printf_charcount                        0x00000000   Number         0  printfstubs.o ABSOLUTE
    _printf_d                                0x00000000   Number         0  printfstubs.o ABSOLUTE
    _printf_e                                0x00000000   Number         0  printfstubs.o ABSOLUTE
    _printf_f                                0x00000000   Number         0  printfstubs.o ABSOLUTE
    _printf_flags                            0x00000000   Number         0  printfstubs.o ABSOLUTE
    _printf_fp_dec                           0x00000000   Number         0  printfstubs.o ABSOLUTE
    _printf_fp_hex                           0x00000000   Number         0  printfstubs.o ABSOLUTE
    _printf_g                                0x00000000   Number         0  printfstubs.o ABSOLUTE
    _printf_i                                0x00000000   Number         0  printfstubs.o ABSOLUTE
    _printf_int_dec                          0x00000000   Number         0  printfstubs.o ABSOLUTE
    _printf_l                                0x00000000   Number         0  printfstubs.o ABSOLUTE
    _printf_lc                               0x00000000   Number         0  printfstubs.o ABSOLUTE
    _printf_ll                               0x00000000   Number         0  printfstubs.o ABSOLUTE
    _printf_lld                              0x00000000   Number         0  printfstubs.o ABSOLUTE
    _printf_lli                              0x00000000   Number         0  printfstubs.o ABSOLUTE
    _printf_llo                              0x00000000   Number         0  printfstubs.o ABSOLUTE
    _printf_llu                              0x00000000   Number         0  printfstubs.o ABSOLUTE
    _printf_llx                              0x00000000   Number         0  printfstubs.o ABSOLUTE
    _printf_longlong_dec                     0x00000000   Number         0  printfstubs.o ABSOLUTE
    _printf_longlong_hex                     0x00000000   Number         0  printfstubs.o ABSOLUTE
    _printf_longlong_oct                     0x00000000   Number         0  printfstubs.o ABSOLUTE
    _printf_ls                               0x00000000   Number         0  printfstubs.o ABSOLUTE
    _printf_mbtowc                           0x00000000   Number         0  printfstubs.o ABSOLUTE
    _printf_n                                0x00000000   Number         0  printfstubs.o ABSOLUTE
    _printf_o                                0x00000000   Number         0  printfstubs.o ABSOLUTE
    _printf_p                                0x00000000   Number         0  printfstubs.o ABSOLUTE
    _printf_percent                          0x00000000   Number         0  printfstubs.o ABSOLUTE
    _printf_pre_padding                      0x00000000   Number         0  printfstubs.o ABSOLUTE
    _printf_return_value                     0x00000000   Number         0  printfstubs.o ABSOLUTE
    _printf_s                                0x00000000   Number         0  printfstubs.o ABSOLUTE
    _printf_sizespec                         0x00000000   Number         0  printfstubs.o ABSOLUTE
    _printf_str                              0x00000000   Number         0  printfstubs.o ABSOLUTE
    _printf_truncate_signed                  0x00000000   Number         0  printfstubs.o ABSOLUTE
    _printf_truncate_unsigned                0x00000000   Number         0  printfstubs.o ABSOLUTE
    _printf_u                                0x00000000   Number         0  printfstubs.o ABSOLUTE
    _printf_wc                               0x00000000   Number         0  printfstubs.o ABSOLUTE
    _printf_wctomb                           0x00000000   Number         0  printfstubs.o ABSOLUTE
    _printf_widthprec                        0x00000000   Number         0  printfstubs.o ABSOLUTE
    _printf_x                                0x00000000   Number         0  printfstubs.o ABSOLUTE
    __cpp_initialize__aeabi_                  - Undefined Weak Reference
    __cxa_finalize                            - Undefined Weak Reference
    __decompress                              - Undefined Weak Reference
    _clock_init                               - Undefined Weak Reference
    _microlib_exit                            - Undefined Weak Reference
    __Vectors_Size                           0x0000018c   Number         0  startup_stm32l431xx.o ABSOLUTE
    __Vectors                                0x08000000   Data           4  startup_stm32l431xx.o(RESET)
    __Vectors_End                            0x0800018c   Data           0  startup_stm32l431xx.o(RESET)
    __main                                   0x0800018d   Thumb Code     0  entry.o(.ARM.Collect$$$$00000000)
    _main_stk                                0x0800018d   Thumb Code     0  entry2.o(.ARM.Collect$$$$00000001)
    _main_scatterload                        0x08000191   Thumb Code     0  entry5.o(.ARM.Collect$$$$00000004)
    __main_after_scatterload                 0x08000195   Thumb Code     0  entry5.o(.ARM.Collect$$$$00000004)
    _main_clock                              0x08000195   Thumb Code     0  entry7b.o(.ARM.Collect$$$$00000008)
    _main_cpp_init                           0x08000195   Thumb Code     0  entry8b.o(.ARM.Collect$$$$0000000A)
    _main_init                               0x08000195   Thumb Code     0  entry9a.o(.ARM.Collect$$$$0000000B)
    __rt_final_cpp                           0x0800019d   Thumb Code     0  entry10a.o(.ARM.Collect$$$$0000000D)
    __rt_final_exit                          0x0800019d   Thumb Code     0  entry11a.o(.ARM.Collect$$$$0000000F)
    Reset_Handler                            0x080001a1   Thumb Code     8  startup_stm32l431xx.o(.text)
    ADC1_IRQHandler                          0x080001bb   Thumb Code     0  startup_stm32l431xx.o(.text)
    CAN1_RX0_IRQHandler                      0x080001bb   Thumb Code     0  startup_stm32l431xx.o(.text)
    CAN1_RX1_IRQHandler                      0x080001bb   Thumb Code     0  startup_stm32l431xx.o(.text)
    CAN1_SCE_IRQHandler                      0x080001bb   Thumb Code     0  startup_stm32l431xx.o(.text)
    CAN1_TX_IRQHandler                       0x080001bb   Thumb Code     0  startup_stm32l431xx.o(.text)
    COMP_IRQHandler                          0x080001bb   Thumb Code     0  startup_stm32l431xx.o(.text)
    CRS_IRQHandler                           0x080001bb   Thumb Code     0  startup_stm32l431xx.o(.text)
    DMA1_Channel1_IRQHandler                 0x080001bb   Thumb Code     0  startup_stm32l431xx.o(.text)
    DMA1_Channel2_IRQHandler                 0x080001bb   Thumb Code     0  startup_stm32l431xx.o(.text)
    DMA1_Channel3_IRQHandler                 0x080001bb   Thumb Code     0  startup_stm32l431xx.o(.text)
    DMA1_Channel4_IRQHandler                 0x080001bb   Thumb Code     0  startup_stm32l431xx.o(.text)
    DMA1_Channel5_IRQHandler                 0x080001bb   Thumb Code     0  startup_stm32l431xx.o(.text)
    DMA1_Channel6_IRQHandler                 0x080001bb   Thumb Code     0  startup_stm32l431xx.o(.text)
    DMA1_Channel7_IRQHandler                 0x080001bb   Thumb Code     0  startup_stm32l431xx.o(.text)
    DMA2_Channel1_IRQHandler                 0x080001bb   Thumb Code     0  startup_stm32l431xx.o(.text)
    DMA2_Channel2_IRQHandler                 0x080001bb   Thumb Code     0  startup_stm32l431xx.o(.text)
    DMA2_Channel3_IRQHandler                 0x080001bb   Thumb Code     0  startup_stm32l431xx.o(.text)
    DMA2_Channel4_IRQHandler                 0x080001bb   Thumb Code     0  startup_stm32l431xx.o(.text)
    DMA2_Channel5_IRQHandler                 0x080001bb   Thumb Code     0  startup_stm32l431xx.o(.text)
    DMA2_Channel6_IRQHandler                 0x080001bb   Thumb Code     0  startup_stm32l431xx.o(.text)
    DMA2_Channel7_IRQHandler                 0x080001bb   Thumb Code     0  startup_stm32l431xx.o(.text)
    EXTI0_IRQHandler                         0x080001bb   Thumb Code     0  startup_stm32l431xx.o(.text)
    EXTI15_10_IRQHandler                     0x080001bb   Thumb Code     0  startup_stm32l431xx.o(.text)
    EXTI1_IRQHandler                         0x080001bb   Thumb Code     0  startup_stm32l431xx.o(.text)
    EXTI2_IRQHandler                         0x080001bb   Thumb Code     0  startup_stm32l431xx.o(.text)
    EXTI3_IRQHandler                         0x080001bb   Thumb Code     0  startup_stm32l431xx.o(.text)
    EXTI4_IRQHandler                         0x080001bb   Thumb Code     0  startup_stm32l431xx.o(.text)
    EXTI9_5_IRQHandler                       0x080001bb   Thumb Code     0  startup_stm32l431xx.o(.text)
    FLASH_IRQHandler                         0x080001bb   Thumb Code     0  startup_stm32l431xx.o(.text)
    FPU_IRQHandler                           0x080001bb   Thumb Code     0  startup_stm32l431xx.o(.text)
    I2C1_ER_IRQHandler                       0x080001bb   Thumb Code     0  startup_stm32l431xx.o(.text)
    I2C1_EV_IRQHandler                       0x080001bb   Thumb Code     0  startup_stm32l431xx.o(.text)
    I2C2_ER_IRQHandler                       0x080001bb   Thumb Code     0  startup_stm32l431xx.o(.text)
    I2C2_EV_IRQHandler                       0x080001bb   Thumb Code     0  startup_stm32l431xx.o(.text)
    I2C3_ER_IRQHandler                       0x080001bb   Thumb Code     0  startup_stm32l431xx.o(.text)
    I2C3_EV_IRQHandler                       0x080001bb   Thumb Code     0  startup_stm32l431xx.o(.text)
    LPTIM1_IRQHandler                        0x080001bb   Thumb Code     0  startup_stm32l431xx.o(.text)
    LPTIM2_IRQHandler                        0x080001bb   Thumb Code     0  startup_stm32l431xx.o(.text)
    PVD_PVM_IRQHandler                       0x080001bb   Thumb Code     0  startup_stm32l431xx.o(.text)
    QUADSPI_IRQHandler                       0x080001bb   Thumb Code     0  startup_stm32l431xx.o(.text)
    RCC_IRQHandler                           0x080001bb   Thumb Code     0  startup_stm32l431xx.o(.text)
    RNG_IRQHandler                           0x080001bb   Thumb Code     0  startup_stm32l431xx.o(.text)
    RTC_Alarm_IRQHandler                     0x080001bb   Thumb Code     0  startup_stm32l431xx.o(.text)
    RTC_WKUP_IRQHandler                      0x080001bb   Thumb Code     0  startup_stm32l431xx.o(.text)
    SAI1_IRQHandler                          0x080001bb   Thumb Code     0  startup_stm32l431xx.o(.text)
    SDMMC1_IRQHandler                        0x080001bb   Thumb Code     0  startup_stm32l431xx.o(.text)
    SPI1_IRQHandler                          0x080001bb   Thumb Code     0  startup_stm32l431xx.o(.text)
    SPI2_IRQHandler                          0x080001bb   Thumb Code     0  startup_stm32l431xx.o(.text)
    SPI3_IRQHandler                          0x080001bb   Thumb Code     0  startup_stm32l431xx.o(.text)
    SWPMI1_IRQHandler                        0x080001bb   Thumb Code     0  startup_stm32l431xx.o(.text)
    TAMP_STAMP_IRQHandler                    0x080001bb   Thumb Code     0  startup_stm32l431xx.o(.text)
    TIM1_BRK_TIM15_IRQHandler                0x080001bb   Thumb Code     0  startup_stm32l431xx.o(.text)
    TIM1_CC_IRQHandler                       0x080001bb   Thumb Code     0  startup_stm32l431xx.o(.text)
    TIM1_TRG_COM_IRQHandler                  0x080001bb   Thumb Code     0  startup_stm32l431xx.o(.text)
    TIM1_UP_TIM16_IRQHandler                 0x080001bb   Thumb Code     0  startup_stm32l431xx.o(.text)
    TIM2_IRQHandler                          0x080001bb   Thumb Code     0  startup_stm32l431xx.o(.text)
    TIM6_DAC_IRQHandler                      0x080001bb   Thumb Code     0  startup_stm32l431xx.o(.text)
    TIM7_IRQHandler                          0x080001bb   Thumb Code     0  startup_stm32l431xx.o(.text)
    TSC_IRQHandler                           0x080001bb   Thumb Code     0  startup_stm32l431xx.o(.text)
    USART2_IRQHandler                        0x080001bb   Thumb Code     0  startup_stm32l431xx.o(.text)
    USART3_IRQHandler                        0x080001bb   Thumb Code     0  startup_stm32l431xx.o(.text)
    WWDG_IRQHandler                          0x080001bb   Thumb Code     0  startup_stm32l431xx.o(.text)
    __aeabi_uldivmod                         0x080001c5   Thumb Code    98  uldiv.o(.text)
    __aeabi_memcpy                           0x0800022d   Thumb Code    36  memcpya.o(.text)
    __aeabi_memcpy4                          0x0800022d   Thumb Code     0  memcpya.o(.text)
    __aeabi_memcpy8                          0x0800022d   Thumb Code     0  memcpya.o(.text)
    __aeabi_memset                           0x08000251   Thumb Code    14  memseta.o(.text)
    __aeabi_memset4                          0x08000251   Thumb Code     0  memseta.o(.text)
    __aeabi_memset8                          0x08000251   Thumb Code     0  memseta.o(.text)
    __aeabi_memclr                           0x0800025f   Thumb Code     4  memseta.o(.text)
    __aeabi_memclr4                          0x0800025f   Thumb Code     0  memseta.o(.text)
    __aeabi_memclr8                          0x0800025f   Thumb Code     0  memseta.o(.text)
    _memset$wrapper                          0x08000263   Thumb Code    18  memseta.o(.text)
    strlen                                   0x08000275   Thumb Code    14  strlen.o(.text)
    strcmp                                   0x08000283   Thumb Code    28  strcmp.o(.text)
    __aeabi_dmul                             0x0800029f   Thumb Code   228  dmul.o(.text)
    __aeabi_ddiv                             0x08000389   Thumb Code   222  ddiv.o(.text)
    __aeabi_ui2d                             0x08000467   Thumb Code    26  dfltui.o(.text)
    __aeabi_d2uiz                            0x08000481   Thumb Code    50  dfixui.o(.text)
    __aeabi_uidiv                            0x080004b3   Thumb Code     0  uidiv.o(.text)
    __aeabi_uidivmod                         0x080004b3   Thumb Code    44  uidiv.o(.text)
    __aeabi_llsl                             0x080004df   Thumb Code    30  llshl.o(.text)
    _ll_shift_l                              0x080004df   Thumb Code     0  llshl.o(.text)
    __aeabi_llsr                             0x080004fd   Thumb Code    32  llushr.o(.text)
    _ll_ushift_r                             0x080004fd   Thumb Code     0  llushr.o(.text)
    __I$use$fp                               0x0800051d   Thumb Code     0  iusefp.o(.text)
    _double_round                            0x0800051d   Thumb Code    30  depilogue.o(.text)
    _double_epilogue                         0x0800053b   Thumb Code   156  depilogue.o(.text)
    __aeabi_dadd                             0x080005d7   Thumb Code   322  dadd.o(.text)
    __aeabi_dsub                             0x08000719   Thumb Code     6  dadd.o(.text)
    __aeabi_drsub                            0x0800071f   Thumb Code     6  dadd.o(.text)
    __aeabi_d2ulz                            0x08000735   Thumb Code    48  dfixul.o(.text)
    __aeabi_cdrcmple                         0x08000765   Thumb Code    48  cdrcmple.o(.text)
    __scatterload                            0x08000795   Thumb Code    28  init.o(.text)
    __scatterload_rt2                        0x08000795   Thumb Code     0  init.o(.text)
    __aeabi_lasr                             0x080007b9   Thumb Code    36  llsshr.o(.text)
    _ll_sshift_r                             0x080007b9   Thumb Code     0  llsshr.o(.text)
    BusFault_Handler                         0x080007dd   Thumb Code     2  stm32l4xx_it.o(.text.BusFault_Handler)
    DebugMon_Handler                         0x080007df   Thumb Code     2  stm32l4xx_it.o(.text.DebugMon_Handler)
    Error_Handler                            0x080007e1   Thumb Code    10  main.o(.text.Error_Handler)
    HAL_DMA_Abort                            0x080007eb   Thumb Code    68  stm32l4xx_hal_dma.o(.text.HAL_DMA_Abort)
    HAL_DMA_Abort_IT                         0x0800082f   Thumb Code    86  stm32l4xx_hal_dma.o(.text.HAL_DMA_Abort_IT)
    HAL_GPIO_Init                            0x08000885   Thumb Code   472  stm32l4xx_hal_gpio.o(.text.HAL_GPIO_Init)
    HAL_GPIO_WritePin                        0x08000a63   Thumb Code    12  stm32l4xx_hal_gpio.o(.text.HAL_GPIO_WritePin)
    HAL_GetTick                              0x08000a6f   Thumb Code    12  stm32l4xx_hal.o(.text.HAL_GetTick)
    HAL_IncTick                              0x08000a7b   Thumb Code    26  stm32l4xx_hal.o(.text.HAL_IncTick)
    HAL_Init                                 0x08000a95   Thumb Code    28  stm32l4xx_hal.o(.text.HAL_Init)
    HAL_InitTick                             0x08000ab1   Thumb Code    84  stm32l4xx_hal.o(.text.HAL_InitTick)
    HAL_MspInit                              0x08000b05   Thumb Code    50  stm32l4xx_hal_msp.o(.text.HAL_MspInit)
    HAL_NVIC_EnableIRQ                       0x08000b37   Thumb Code    30  stm32l4xx_hal_cortex.o(.text.HAL_NVIC_EnableIRQ)
    HAL_NVIC_SetPriority                     0x08000b55   Thumb Code    86  stm32l4xx_hal_cortex.o(.text.HAL_NVIC_SetPriority)
    HAL_NVIC_SetPriorityGrouping             0x08000bab   Thumb Code    32  stm32l4xx_hal_cortex.o(.text.HAL_NVIC_SetPriorityGrouping)
    HAL_PWREx_ControlVoltageScaling          0x08000bcd   Thumb Code   116  stm32l4xx_hal_pwr_ex.o(.text.HAL_PWREx_ControlVoltageScaling)
    HAL_PWREx_GetVoltageRange                0x08000c41   Thumb Code    16  stm32l4xx_hal_pwr_ex.o(.text.HAL_PWREx_GetVoltageRange)
    HAL_QSPI_Init                            0x08000c51   Thumb Code   180  stm32l4xx_hal_qspi.o(.text.HAL_QSPI_Init)
    HAL_QSPI_MspInit                         0x08000d05   Thumb Code   112  stm32l4xx_hal_msp.o(.text.HAL_QSPI_MspInit)
    HAL_RCCEx_PeriphCLKConfig                0x08000d75   Thumb Code   622  stm32l4xx_hal_rcc_ex.o(.text.HAL_RCCEx_PeriphCLKConfig)
    HAL_RCC_ClockConfig                      0x08000fe5   Thumb Code   348  stm32l4xx_hal_rcc.o(.text.HAL_RCC_ClockConfig)
    HAL_RCC_GetPCLK1Freq                     0x08001141   Thumb Code    42  stm32l4xx_hal_rcc.o(.text.HAL_RCC_GetPCLK1Freq)
    HAL_RCC_GetPCLK2Freq                     0x0800116b   Thumb Code    42  stm32l4xx_hal_rcc.o(.text.HAL_RCC_GetPCLK2Freq)
    HAL_RCC_GetSysClockFreq                  0x08001195   Thumb Code   182  stm32l4xx_hal_rcc.o(.text.HAL_RCC_GetSysClockFreq)
    HAL_RCC_OscConfig                        0x0800124d   Thumb Code  1522  stm32l4xx_hal_rcc.o(.text.HAL_RCC_OscConfig)
    HAL_SYSTICK_Config                       0x0800183f   Thumb Code    44  stm32l4xx_hal_cortex.o(.text.HAL_SYSTICK_Config)
    HAL_UARTEx_RxEventCallback               0x0800186b   Thumb Code     2  stm32l4xx_hal_uart.o(.text.HAL_UARTEx_RxEventCallback)
    HAL_UARTEx_WakeupCallback                0x0800186d   Thumb Code     2  stm32l4xx_hal_uart_ex.o(.text.HAL_UARTEx_WakeupCallback)
    HAL_UART_ErrorCallback                   0x0800186f   Thumb Code     2  stm32l4xx_hal_uart.o(.text.HAL_UART_ErrorCallback)
    HAL_UART_IRQHandler                      0x08001871   Thumb Code   714  stm32l4xx_hal_uart.o(.text.HAL_UART_IRQHandler)
    HAL_UART_Init                            0x08001b3b   Thumb Code    96  stm32l4xx_hal_uart.o(.text.HAL_UART_Init)
    HAL_UART_MspInit                         0x08001b9b   Thumb Code   248  stm32l4xx_hal_msp.o(.text.HAL_UART_MspInit)
    HAL_UART_Receive_IT                      0x08001c95   Thumb Code   102  stm32l4xx_hal_uart.o(.text.HAL_UART_Receive_IT)
    HAL_UART_RxCpltCallback                  0x08001cfb   Thumb Code    70  main.o(.text.HAL_UART_RxCpltCallback)
    HAL_UART_TxCpltCallback                  0x08001d41   Thumb Code     2  stm32l4xx_hal_uart.o(.text.HAL_UART_TxCpltCallback)
    HardFault_Handler                        0x08001d45   Thumb Code     2  stm32l4xx_it.o(.text.HardFault_Handler)
    LPUART1_IRQHandler                       0x08001d47   Thumb Code    12  stm32l4xx_it.o(.text.LPUART1_IRQHandler)
    MemManage_Handler                        0x08001d55   Thumb Code     2  stm32l4xx_it.o(.text.MemManage_Handler)
    NMI_Handler                              0x08001d59   Thumb Code     2  stm32l4xx_it.o(.text.NMI_Handler)
    PendSV_Handler                           0x08001d5b   Thumb Code     2  stm32l4xx_it.o(.text.PendSV_Handler)
    SVC_Handler                              0x08001f71   Thumb Code     2  stm32l4xx_it.o(.text.SVC_Handler)
    SysTick_Handler                          0x08001f73   Thumb Code    14  stm32l4xx_it.o(.text.SysTick_Handler)
    SystemClock_Config                       0x08001f81   Thumb Code   130  main.o(.text.SystemClock_Config)
    SystemInit                               0x08002003   Thumb Code    18  system_stm32l4xx.o(.text.SystemInit)
    UART_AdvFeatureConfig                    0x08002015   Thumb Code   204  stm32l4xx_hal_uart.o(.text.UART_AdvFeatureConfig)
    UART_CheckIdleState                      0x080020e1   Thumb Code   104  stm32l4xx_hal_uart.o(.text.UART_CheckIdleState)
    UART_SetConfig                           0x080022e9   Thumb Code   512  stm32l4xx_hal_uart.o(.text.UART_SetConfig)
    UART_Start_Receive_IT                    0x080024e9   Thumb Code   208  stm32l4xx_hal_uart.o(.text.UART_Start_Receive_IT)
    UART_WaitOnFlagUntilTimeout              0x080025b9   Thumb Code   216  stm32l4xx_hal_uart.o(.text.UART_WaitOnFlagUntilTimeout)
    USART1_IRQHandler                        0x08002691   Thumb Code    12  stm32l4xx_it.o(.text.USART1_IRQHandler)
    UsageFault_Handler                       0x0800269d   Thumb Code     2  stm32l4xx_it.o(.text.UsageFault_Handler)
    bClose                                   0x08002d05   Thumb Code    52  b_core.o(.text.bClose)
    bCtl                                     0x08002d39   Thumb Code    32  b_core.o(.text.bCtl)
    bDeviceClose                             0x08002d59   Thumb Code   124  b_device.o(.text.bDeviceClose)
    bDeviceCtl                               0x08002dd5   Thumb Code   120  b_device.o(.text.bDeviceCtl)
    bDeviceInit                              0x08002e4d   Thumb Code   424  b_device.o(.text.bDeviceInit)
    bDeviceOpen                              0x08002ffd   Thumb Code   120  b_device.o(.text.bDeviceOpen)
    bDeviceRead                              0x08003075   Thumb Code   124  b_device.o(.text.bDeviceRead)
    bDeviceWrite                             0x080030f1   Thumb Code   132  b_device.o(.text.bDeviceWrite)
    bExec                                    0x08003175   Thumb Code    46  b_core.o(.text.bExec)
    bHalDelayUs                              0x080031a5   Thumb Code    30  b_hal.o(.text.bHalDelayUs)
    bHalFlashChipSize                        0x080031c3   Thumb Code     4  b_hal_flash.o(.text.bHalFlashChipSize)
    bHalFlashErase                           0x080031c7   Thumb Code     4  b_hal_flash.o(.text.bHalFlashErase)
    bHalFlashInit                            0x080031cb   Thumb Code     4  b_hal_flash.o(.text.bHalFlashInit)
    bHalFlashLock                            0x080031cf   Thumb Code     4  b_hal_flash.o(.text.bHalFlashLock)
    bHalFlashRead                            0x080031d3   Thumb Code     4  b_hal_flash.o(.text.bHalFlashRead)
    bHalFlashSectorSize                      0x080031d7   Thumb Code     4  b_hal_flash.o(.text.bHalFlashSectorSize)
    bHalFlashUnlock                          0x080031db   Thumb Code     4  b_hal_flash.o(.text.bHalFlashUnlock)
    bHalFlashWrite                           0x080031df   Thumb Code     4  b_hal_flash.o(.text.bHalFlashWrite)
    bHalGetSysTick                           0x080031e3   Thumb Code    12  b_hal.o(.text.bHalGetSysTick)
    bHalGpioReadPin                          0x080031ef   Thumb Code     4  b_hal_gpio.o(.text.bHalGpioReadPin)
    bHalGpioWritePin                         0x080031f3   Thumb Code     4  b_hal_gpio.o(.text.bHalGpioWritePin)
    bHalIncSysTick                           0x080031f7   Thumb Code    36  b_hal.o(.text.bHalIncSysTick)
    bHalInit                                 0x08003221   Thumb Code   136  b_hal.o(.text.bHalInit)
    bHalIntDisable                           0x080032a9   Thumb Code     4  b_hal_it.o(.text.bHalIntDisable)
    bHalIntEnable                            0x080032ad   Thumb Code     4  b_hal_it.o(.text.bHalIntEnable)
    bHalItInvoke                             0x080032b1   Thumb Code    66  b_hal_it.o(.text.bHalItInvoke)
    bHalItRegister                           0x080032f3   Thumb Code    36  b_hal_it.o(.text.bHalItRegister)
    bHalQSPIReceiveData                      0x08003317   Thumb Code    16  b_hal_qspi.o(.text.bHalQSPIReceiveData)
    bHalQSPISendCmd                          0x08003327   Thumb Code    16  b_hal_qspi.o(.text.bHalQSPISendCmd)
    bHalQSPITransmitData                     0x08003337   Thumb Code    16  b_hal_qspi.o(.text.bHalQSPITransmitData)
    bHalSpiReceive                           0x08003349   Thumb Code    62  b_hal_spi.o(.text.bHalSpiReceive)
    bHalSpiSend                              0x08003389   Thumb Code    60  b_hal_spi.o(.text.bHalSpiSend)
    bHalSpiTransfer                          0x080033c5   Thumb Code   226  b_hal_spi.o(.text.bHalSpiTransfer)
    bHalUartReceiveIdle                      0x080034b9   Thumb Code   104  b_hal_uart.o(.text.bHalUartReceiveIdle)
    bHalUartSend                             0x08003521   Thumb Code     4  b_hal_uart.o(.text.bHalUartSend)
    bHalUserInit                             0x08003525   Thumb Code     2  b_hal.o(.text.bHalUserInit)
    bInit                                    0x08003529   Thumb Code   436  b_core.o(.text.bInit)
    bLogOut                                  0x080036dd   Thumb Code   256  b_util_log.o(.text.bLogOut)
    bLseek                                   0x080037dd   Thumb Code    36  b_core.o(.text.bLseek)
    bMCUFLASH_Init                           0x08003801   Thumb Code    98  b_drv_mcuflash.o(.text.bMCUFLASH_Init)
    bMcuFlashChipSize                        0x08003863   Thumb Code    12  mcu_stm32l41x_flash.o(.text.bMcuFlashChipSize)
    bMcuFlashErase                           0x08003871   Thumb Code   158  mcu_stm32l41x_flash.o(.text.bMcuFlashErase)
    bMcuFlashInit                            0x0800390f   Thumb Code    26  mcu_stm32l41x_flash.o(.text.bMcuFlashInit)
    bMcuFlashLock                            0x08003929   Thumb Code    20  mcu_stm32l41x_flash.o(.text.bMcuFlashLock)
    bMcuFlashRead                            0x0800393d   Thumb Code    66  mcu_stm32l41x_flash.o(.text.bMcuFlashRead)
    bMcuFlashSectorSize                      0x0800397f   Thumb Code     6  mcu_stm32l41x_flash.o(.text.bMcuFlashSectorSize)
    bMcuFlashUnlock                          0x08003985   Thumb Code    32  mcu_stm32l41x_flash.o(.text.bMcuFlashUnlock)
    bMcuFlashWrite                           0x080039a5   Thumb Code   238  mcu_stm32l41x_flash.o(.text.bMcuFlashWrite)
    bMcuGpioReadPin                          0x08003a93   Thumb Code    38  mcu_stm32l41x_gpio.o(.text.bMcuGpioReadPin)
    bMcuGpioWritePin                         0x08003ab9   Thumb Code    42  mcu_stm32l41x_gpio.o(.text.bMcuGpioWritePin)
    bMcuIntDisable                           0x08003ae3   Thumb Code     8  mcu_stm32l41x_it.o(.text.bMcuIntDisable)
    bMcuIntEnable                            0x08003aeb   Thumb Code     4  mcu_stm32l41x_it.o(.text.bMcuIntEnable)
    bMcuQSPIReceiveData                      0x08003af1   Thumb Code   116  mcu_stm32l41x_qspi.o(.text.bMcuQSPIReceiveData)
    bMcuQSPISendCmd                          0x08003b65   Thumb Code   216  mcu_stm32l41x_qspi.o(.text.bMcuQSPISendCmd)
    bMcuQSPITransmitData                     0x08003c3d   Thumb Code   108  mcu_stm32l41x_qspi.o(.text.bMcuQSPITransmitData)
    bMcuSpiReceive                           0x08003ca9   Thumb Code    40  mcu_stm32l41x_spi.o(.text.bMcuSpiReceive)
    bMcuSpiSend                              0x08003cd1   Thumb Code    38  mcu_stm32l41x_spi.o(.text.bMcuSpiSend)
    bMcuSpiTransfer                          0x08003cf9   Thumb Code    66  mcu_stm32l41x_spi.o(.text.bMcuSpiTransfer)
    bMcuUartSend                             0x08003d3d   Thumb Code   128  mcu_stm32l41x_uart.o(.text.bMcuUartSend)
    bOpen                                    0x08003dbd   Thumb Code   140  b_core.o(.text.bOpen)
    bProtSrvInit                             0x08003e49   Thumb Code    92  b_srv_protocol.o(.text.bProtSrvInit)
    bProtSrvPackage                          0x08003ea5   Thumb Code    34  b_srv_protocol.o(.text.bProtSrvPackage)
    bProtSrvParse                            0x08003ec7   Thumb Code    34  b_srv_protocol.o(.text.bProtSrvParse)
    bProtoCallback                           0x08003ee9   Thumb Code   126  transfile.o(.text.bProtoCallback)
    bRead                                    0x08003f67   Thumb Code    82  b_core.o(.text.bRead)
    bSPIFLASH_Init                           0x08003fb9   Thumb Code   156  b_drv_spiflash.o(.text.bSPIFLASH_Init)
    bSemAcquireNonblock                      0x08004055   Thumb Code    46  b_sem.o(.text.bSemAcquireNonblock)
    bSemCreate                               0x08004085   Thumb Code    68  b_sem.o(.text.bSemCreate)
    bSemRelease                              0x080040c9   Thumb Code    50  b_sem.o(.text.bSemRelease)
    bTaskCreate                              0x080040fd   Thumb Code   104  b_task.o(.text.bTaskCreate)
    bTransFileInit                           0x08004165   Thumb Code   120  transfile.o(.text.bTransFileInit)
    bTransFileTask                           0x080041dd   Thumb Code   532  transfile.o(.text.bTransFileTask)
    bWrite                                   0x080043f7   Thumb Code    80  b_core.o(.text.bWrite)
    crc32_d                                  0x08004449   Thumb Code    66  algo_crc.o(.text.crc32_d)
    crc_calculate_sbs                        0x0800448b   Thumb Code    86  algo_crc.o(.text.crc_calculate_sbs)
    main                                     0x080044e1   Thumb Code   374  main.o(.text.main)
    sfud_chip_erase                          0x08004be1   Thumb Code   412  sfud.o(.text.sfud_chip_erase)
    sfud_device_init                         0x08004d7d   Thumb Code  1476  sfud.o(.text.sfud_device_init)
    sfud_erase                               0x08005341   Thumb Code   616  sfud.o(.text.sfud_erase)
    sfud_read                                0x080055b1   Thumb Code   464  sfud.o(.text.sfud_read)
    sfud_read_sfdp                           0x08005781   Thumb Code  2176  sfud_sfdp.o(.text.sfud_read_sfdp)
    sfud_sfdp_get_suitable_eraser            0x08006009   Thumb Code   164  sfud_sfdp.o(.text.sfud_sfdp_get_suitable_eraser)
    sfud_spi_port_init                       0x080060ad   Thumb Code    48  b_drv_spiflash.o(.text.sfud_spi_port_init)
    sfud_write                               0x080060dd   Thumb Code   584  sfud.o(.text.sfud_write)
    sfud_write_status                        0x0800632d   Thumb Code   280  sfud.o(.text.sfud_write_status)
    __0sprintf                               0x08006565   Thumb Code    34  printfa.o(i.__0sprintf)
    __1sprintf                               0x08006565   Thumb Code     0  printfa.o(i.__0sprintf)
    __2sprintf                               0x08006565   Thumb Code     0  printfa.o(i.__0sprintf)
    __c89sprintf                             0x08006565   Thumb Code     0  printfa.o(i.__0sprintf)
    sprintf                                  0x08006565   Thumb Code     0  printfa.o(i.__0sprintf)
    __0vsnprintf                             0x0800658d   Thumb Code    46  printfa.o(i.__0vsnprintf)
    __1vsnprintf                             0x0800658d   Thumb Code     0  printfa.o(i.__0vsnprintf)
    __2vsnprintf                             0x0800658d   Thumb Code     0  printfa.o(i.__0vsnprintf)
    __c89vsnprintf                           0x0800658d   Thumb Code     0  printfa.o(i.__0vsnprintf)
    vsnprintf                                0x0800658d   Thumb Code     0  printfa.o(i.__0vsnprintf)
    __scatterload_copy                       0x080065c1   Thumb Code    14  handlers.o(i.__scatterload_copy)
    __scatterload_null                       0x080065cf   Thumb Code     2  handlers.o(i.__scatterload_null)
    __scatterload_zeroinit                   0x080065d1   Thumb Code    14  handlers.o(i.__scatterload_zeroinit)
    AHBPrescTable                            0x08006ef4   Data          16  system_stm32l4xx.o(.rodata.AHBPrescTable)
    APBPrescTable                            0x08006f04   Data           8  system_stm32l4xx.o(.rodata.APBPrescTable)
    MSIRangeTable                            0x08006f0c   Data          48  system_stm32l4xx.o(.rodata.MSIRangeTable)
    Region$$Table$$Base                      0x08007ecc   Number         0  anon$$obj.o(Region$$Table)
    Region$$Table$$Limit                     0x08007eec   Number         0  anon$$obj.o(Region$$Table)
    b_srv_protocol$$Base                     0x08007eec   Number         0  b_mod_protocol.o(b_srv_protocol)
    do__bProtocolParse                       0x08007eec   Data          12  b_mod_protocol.o(b_srv_protocol)
    b_srv_protocol$$Limit                    0x08007ef8   Number         0  b_mod_protocol.o(b_srv_protocol)
    bos_polling$$Base                        0x08007ef8   Number         0  b_core.o(bos_polling)
    polling_bCoreMonitor                     0x08007ef8   Data           4  b_core.o(bos_polling)
    polling_bTaskCore                        0x08007efc   Data           4  b_task.o(bos_polling)
    polling_bTimerCore                       0x08007f00   Data           4  b_timer.o(bos_polling)
    polling_bHalUartDetectIdle               0x08007f04   Data           4  b_hal_uart.o(bos_polling)
    bos_polling$$Limit                       0x08007f08   Number         0  b_hal_uart.o(bos_polling)
    driver_init$$Base                        0x08007f08   Number         0  b_device.o(driver_init)
    init_bDriverNullInit                     0x08007f08   Data           8  b_device.o(driver_init)
    initbSPIFLASH_Init                       0x08007f10   Data           8  b_drv_spiflash.o(driver_init)
    initbMCUFLASH_Init                       0x08007f18   Data           8  b_drv_mcuflash.o(driver_init)
    driver_init$$Limit                       0x08007f20   Number         0  b_drv_mcuflash.o(driver_init)
    driver_init_0$$Base                      0x08007f20   Number         0  b_device.o(driver_init_0)
    init0_bDriverNullInit                    0x08007f20   Data           8  b_device.o(driver_init_0)
    driver_init_0$$Limit                     0x08007f28   Number         0  b_device.o(driver_init_0)
    SystemCoreClock                          0x20000000   Data           4  system_stm32l4xx.o(.data.SystemCoreClock)
    uwTickFreq                               0x20000084   Data           1  stm32l4xx_hal.o(.data.uwTickFreq)
    uwTickPrio                               0x20000088   Data           4  stm32l4xx_hal.o(.data.uwTickPrio)
    bTransFileRunParam                       0x2000072c   Data          20  transfile.o(.bss.bTransFileRunParam)
    hlpuart1                                 0x20000750   Data         132  main.o(.bss.hlpuart1)
    hqspi                                    0x200007d4   Data          76  main.o(.bss.hqspi)
    huart1                                   0x20000820   Data         132  main.o(.bss.huart1)
    uwTick                                   0x200009c0   Data           4  stm32l4xx_hal.o(.bss.uwTick)
    __initial_sp                             0x20000dc8   Data           0  startup_stm32l431xx.o(STACK)



==============================================================================

Memory Map of the image

  Image Entry point : 0x0800018d

  Load Region LR_IROM1 (Base: 0x08000000, Size: 0x00007fb8, Max: 0x00040000, ABSOLUTE)

    Execution Region ER_IROM1 (Exec base: 0x08000000, Load base: 0x08000000, Size: 0x00007f28, Max: 0x00040000, ABSOLUTE)

    Exec Addr    Load Addr    Size         Type   Attr      Idx    E Section Name        Object

    0x08000000   0x08000000   0x0000018c   Data   RO            3    RESET               startup_stm32l431xx.o
    0x0800018c   0x0800018c   0x00000000   Code   RO         2135  * .ARM.Collect$$$$00000000  mc_w.l(entry.o)
    0x0800018c   0x0800018c   0x00000004   Code   RO         2421    .ARM.Collect$$$$00000001  mc_w.l(entry2.o)
    0x08000190   0x08000190   0x00000004   Code   RO         2424    .ARM.Collect$$$$00000004  mc_w.l(entry5.o)
    0x08000194   0x08000194   0x00000000   Code   RO         2426    .ARM.Collect$$$$00000008  mc_w.l(entry7b.o)
    0x08000194   0x08000194   0x00000000   Code   RO         2428    .ARM.Collect$$$$0000000A  mc_w.l(entry8b.o)
    0x08000194   0x08000194   0x00000008   Code   RO         2429    .ARM.Collect$$$$0000000B  mc_w.l(entry9a.o)
    0x0800019c   0x0800019c   0x00000000   Code   RO         2431    .ARM.Collect$$$$0000000D  mc_w.l(entry10a.o)
    0x0800019c   0x0800019c   0x00000000   Code   RO         2433    .ARM.Collect$$$$0000000F  mc_w.l(entry11a.o)
    0x0800019c   0x0800019c   0x00000004   Code   RO         2422    .ARM.Collect$$$$00002712  mc_w.l(entry2.o)
    0x080001a0   0x080001a0   0x00000024   Code   RO            4    .text               startup_stm32l431xx.o
    0x080001c4   0x080001c4   0x00000068   Code   RO         2138    .text               mc_w.l(uldiv.o)
    0x0800022c   0x0800022c   0x00000024   Code   RO         2142    .text               mc_w.l(memcpya.o)
    0x08000250   0x08000250   0x00000024   Code   RO         2144    .text               mc_w.l(memseta.o)
    0x08000274   0x08000274   0x0000000e   Code   RO         2146    .text               mc_w.l(strlen.o)
    0x08000282   0x08000282   0x0000001c   Code   RO         2148    .text               mc_w.l(strcmp.o)
    0x0800029e   0x0800029e   0x000000ea   Code   RO         2413    .text               mf_w.l(dmul.o)
    0x08000388   0x08000388   0x000000de   Code   RO         2415    .text               mf_w.l(ddiv.o)
    0x08000466   0x08000466   0x0000001a   Code   RO         2417    .text               mf_w.l(dfltui.o)
    0x08000480   0x08000480   0x00000032   Code   RO         2419    .text               mf_w.l(dfixui.o)
    0x080004b2   0x080004b2   0x0000002c   Code   RO         2436    .text               mc_w.l(uidiv.o)
    0x080004de   0x080004de   0x0000001e   Code   RO         2438    .text               mc_w.l(llshl.o)
    0x080004fc   0x080004fc   0x00000020   Code   RO         2440    .text               mc_w.l(llushr.o)
    0x0800051c   0x0800051c   0x00000000   Code   RO         2442    .text               mc_w.l(iusefp.o)
    0x0800051c   0x0800051c   0x000000ba   Code   RO         2443    .text               mf_w.l(depilogue.o)
    0x080005d6   0x080005d6   0x0000015e   Code   RO         2445    .text               mf_w.l(dadd.o)
    0x08000734   0x08000734   0x00000030   Code   RO         2447    .text               mf_w.l(dfixul.o)
    0x08000764   0x08000764   0x00000030   Code   RO         2449    .text               mf_w.l(cdrcmple.o)
    0x08000794   0x08000794   0x00000024   Code   RO         2451    .text               mc_w.l(init.o)
    0x080007b8   0x080007b8   0x00000024   Code   RO         2453    .text               mc_w.l(llsshr.o)
    0x080007dc   0x080007dc   0x00000002   Code   RO           40    .text.BusFault_Handler  stm32l4xx_it.o
    0x080007de   0x080007de   0x00000002   Code   RO           46    .text.DebugMon_Handler  stm32l4xx_it.o
    0x080007e0   0x080007e0   0x0000000a   Code   RO           17    .text.Error_Handler  main.o
    0x080007ea   0x080007ea   0x00000044   Code   RO         1194    .text.HAL_DMA_Abort  stm32l4xx_hal_dma.o
    0x0800082e   0x0800082e   0x00000056   Code   RO         1196    .text.HAL_DMA_Abort_IT  stm32l4xx_hal_dma.o
    0x08000884   0x08000884   0x000001de   Code   RO          308    .text.HAL_GPIO_Init  stm32l4xx_hal_gpio.o
    0x08000a62   0x08000a62   0x0000000c   Code   RO          314    .text.HAL_GPIO_WritePin  stm32l4xx_hal_gpio.o
    0x08000a6e   0x08000a6e   0x0000000c   Code   RO          127    .text.HAL_GetTick   stm32l4xx_hal.o
    0x08000a7a   0x08000a7a   0x0000001a   Code   RO          125    .text.HAL_IncTick   stm32l4xx_hal.o
    0x08000a94   0x08000a94   0x0000001c   Code   RO          115    .text.HAL_Init      stm32l4xx_hal.o
    0x08000ab0   0x08000ab0   0x00000054   Code   RO          117    .text.HAL_InitTick  stm32l4xx_hal.o
    0x08000b04   0x08000b04   0x00000032   Code   RO           63    .text.HAL_MspInit   stm32l4xx_hal_msp.o
    0x08000b36   0x08000b36   0x0000001e   Code   RO          202    .text.HAL_NVIC_EnableIRQ  stm32l4xx_hal_cortex.o
    0x08000b54   0x08000b54   0x00000056   Code   RO          200    .text.HAL_NVIC_SetPriority  stm32l4xx_hal_cortex.o
    0x08000baa   0x08000baa   0x00000020   Code   RO          198    .text.HAL_NVIC_SetPriorityGrouping  stm32l4xx_hal_cortex.o
    0x08000bca   0x08000bca   0x00000002   PAD
    0x08000bcc   0x08000bcc   0x00000074   Code   RO         1122    .text.HAL_PWREx_ControlVoltageScaling  stm32l4xx_hal_pwr_ex.o
    0x08000c40   0x08000c40   0x00000010   Code   RO         1120    .text.HAL_PWREx_GetVoltageRange  stm32l4xx_hal_pwr_ex.o
    0x08000c50   0x08000c50   0x000000b4   Code   RO          512    .text.HAL_QSPI_Init  stm32l4xx_hal_qspi.o
    0x08000d04   0x08000d04   0x00000070   Code   RO           69    .text.HAL_QSPI_MspInit  stm32l4xx_hal_msp.o
    0x08000d74   0x08000d74   0x0000026e   Code   RO          642    .text.HAL_RCCEx_PeriphCLKConfig  stm32l4xx_hal_rcc_ex.o
    0x08000fe2   0x08000fe2   0x00000002   PAD
    0x08000fe4   0x08000fe4   0x0000015c   Code   RO          612    .text.HAL_RCC_ClockConfig  stm32l4xx_hal_rcc.o
    0x08001140   0x08001140   0x0000002a   Code   RO          618    .text.HAL_RCC_GetPCLK1Freq  stm32l4xx_hal_rcc.o
    0x0800116a   0x0800116a   0x0000002a   Code   RO          620    .text.HAL_RCC_GetPCLK2Freq  stm32l4xx_hal_rcc.o
    0x08001194   0x08001194   0x000000b6   Code   RO          610    .text.HAL_RCC_GetSysClockFreq  stm32l4xx_hal_rcc.o
    0x0800124a   0x0800124a   0x00000002   PAD
    0x0800124c   0x0800124c   0x000005f2   Code   RO          606    .text.HAL_RCC_OscConfig  stm32l4xx_hal_rcc.o
    0x0800183e   0x0800183e   0x0000002c   Code   RO          210    .text.HAL_SYSTICK_Config  stm32l4xx_hal_cortex.o
    0x0800186a   0x0800186a   0x00000002   Code   RO          998    .text.HAL_UARTEx_RxEventCallback  stm32l4xx_hal_uart.o
    0x0800186c   0x0800186c   0x00000002   Code   RO         1049    .text.HAL_UARTEx_WakeupCallback  stm32l4xx_hal_uart_ex.o
    0x0800186e   0x0800186e   0x00000002   Code   RO          996    .text.HAL_UART_ErrorCallback  stm32l4xx_hal_uart.o
    0x08001870   0x08001870   0x000002ca   Code   RO          992    .text.HAL_UART_IRQHandler  stm32l4xx_hal_uart.o
    0x08001b3a   0x08001b3a   0x00000060   Code   RO          910    .text.HAL_UART_Init  stm32l4xx_hal_uart.o
    0x08001b9a   0x08001b9a   0x000000f8   Code   RO           65    .text.HAL_UART_MspInit  stm32l4xx_hal_msp.o
    0x08001c92   0x08001c92   0x00000002   PAD
    0x08001c94   0x08001c94   0x00000066   Code   RO          942    .text.HAL_UART_Receive_IT  stm32l4xx_hal_uart.o
    0x08001cfa   0x08001cfa   0x00000046   Code   RO           11    .text.HAL_UART_RxCpltCallback  main.o
    0x08001d40   0x08001d40   0x00000002   Code   RO         1000    .text.HAL_UART_TxCpltCallback  stm32l4xx_hal_uart.o
    0x08001d42   0x08001d42   0x00000002   PAD
    0x08001d44   0x08001d44   0x00000002   Code   RO           36    .text.HardFault_Handler  stm32l4xx_it.o
    0x08001d46   0x08001d46   0x0000000c   Code   RO           54    .text.LPUART1_IRQHandler  stm32l4xx_it.o
    0x08001d52   0x08001d52   0x00000002   PAD
    0x08001d54   0x08001d54   0x00000002   Code   RO           38    .text.MemManage_Handler  stm32l4xx_it.o
    0x08001d56   0x08001d56   0x00000002   PAD
    0x08001d58   0x08001d58   0x00000002   Code   RO           34    .text.NMI_Handler   stm32l4xx_it.o
    0x08001d5a   0x08001d5a   0x00000002   Code   RO           48    .text.PendSV_Handler  stm32l4xx_it.o
    0x08001d5c   0x08001d5c   0x00000060   Code   RO          518    .text.QSPI_WaitFlagStateUntilTimeout  stm32l4xx_hal_qspi.o
    0x08001dbc   0x08001dbc   0x0000012a   Code   RO          644    .text.RCCEx_PLLSAI1_Config  stm32l4xx_hal_rcc_ex.o
    0x08001ee6   0x08001ee6   0x0000008a   Code   RO          608    .text.RCC_SetFlashLatencyFromMSIRange  stm32l4xx_hal_rcc.o
    0x08001f70   0x08001f70   0x00000002   Code   RO           44    .text.SVC_Handler   stm32l4xx_it.o
    0x08001f72   0x08001f72   0x0000000e   Code   RO           50    .text.SysTick_Handler  stm32l4xx_it.o
    0x08001f80   0x08001f80   0x00000082   Code   RO           15    .text.SystemClock_Config  main.o
    0x08002002   0x08002002   0x00000012   Code   RO         1319    .text.SystemInit    system_stm32l4xx.o
    0x08002014   0x08002014   0x000000cc   Code   RO          916    .text.UART_AdvFeatureConfig  stm32l4xx_hal_uart.o
    0x080020e0   0x080020e0   0x00000068   Code   RO          918    .text.UART_CheckIdleState  stm32l4xx_hal_uart.o
    0x08002148   0x08002148   0x00000010   Code   RO          994    .text.UART_DMAAbortOnError  stm32l4xx_hal_uart.o
    0x08002158   0x08002158   0x00000050   Code   RO          964    .text.UART_EndRxTransfer  stm32l4xx_hal_uart.o
    0x080021a8   0x080021a8   0x0000009e   Code   RO         1030    .text.UART_RxISR_16BIT  stm32l4xx_hal_uart.o
    0x08002246   0x08002246   0x00000002   PAD
    0x08002248   0x08002248   0x0000009e   Code   RO         1032    .text.UART_RxISR_8BIT  stm32l4xx_hal_uart.o
    0x080022e6   0x080022e6   0x00000002   PAD
    0x080022e8   0x080022e8   0x00000200   Code   RO          914    .text.UART_SetConfig  stm32l4xx_hal_uart.o
    0x080024e8   0x080024e8   0x000000d0   Code   RO          944    .text.UART_Start_Receive_IT  stm32l4xx_hal_uart.o
    0x080025b8   0x080025b8   0x000000d8   Code   RO          932    .text.UART_WaitOnFlagUntilTimeout  stm32l4xx_hal_uart.o
    0x08002690   0x08002690   0x0000000c   Code   RO           52    .text.USART1_IRQHandler  stm32l4xx_it.o
    0x0800269c   0x0800269c   0x00000002   Code   RO           42    .text.UsageFault_Handler  stm32l4xx_it.o
    0x0800269e   0x0800269e   0x00000002   Code   RO         1335    .text._bCoreMonitor  b_core.o
    0x080026a0   0x080026a0   0x00000004   Code   RO         1377    .text._bDriverNullInit  b_device.o
    0x080026a4   0x080026a4   0x00000040   Code   RO         1939    .text._bHalItHandler  b_hal_uart.o
    0x080026e4   0x080026e4   0x00000090   Code   RO         1941    .text._bHalUartDetectIdle  b_hal_uart.o
    0x08002774   0x08002774   0x00000004   Code   RO         1596    .text._bMCUFLASHClose  b_drv_mcuflash.o
    0x08002778   0x08002778   0x0000003e   Code   RO         1600    .text._bMCUFLASHCtl  b_drv_mcuflash.o
    0x080027b6   0x080027b6   0x00000004   Code   RO         1602    .text._bMCUFLASHOpen  b_drv_mcuflash.o
    0x080027ba   0x080027ba   0x0000000a   Code   RO         1598    .text._bMCUFLASHRead  b_drv_mcuflash.o
    0x080027c4   0x080027c4   0x0000000a   Code   RO         1604    .text._bMCUFLASHWrite  b_drv_mcuflash.o
    0x080027ce   0x080027ce   0x0000003a   Code   RO           95    .text._bProtoRevHandle  transfile.o
    0x08002808   0x08002808   0x0000009c   Code   RO         1630    .text._bProtocolPack  b_mod_protocol.o
    0x080028a4   0x080028a4   0x0000003a   Code   RO         1628    .text._bProtocolPackage  b_mod_protocol.o
    0x080028de   0x080028de   0x00000002   PAD
    0x080028e0   0x080028e0   0x00000148   Code   RO         1626    .text._bProtocolParse  b_mod_protocol.o
    0x08002a28   0x08002a28   0x00000060   Code   RO         1524    .text._bSPIFLASH_Close  b_drv_spiflash.o
    0x08002a88   0x08002a88   0x0000003e   Code   RO         1526    .text._bSPIFLASH_Ctl  b_drv_spiflash.o
    0x08002ac6   0x08002ac6   0x00000060   Code   RO         1522    .text._bSPIFLASH_Open  b_drv_spiflash.o
    0x08002b26   0x08002b26   0x00000012   Code   RO         1528    .text._bSPIFLASH_ReadBuf  b_drv_spiflash.o
    0x08002b38   0x08002b38   0x00000012   Code   RO         1530    .text._bSPIFLASH_WriteBuf  b_drv_spiflash.o
    0x08002b4a   0x08002b4a   0x00000004   Code   RO         1516    .text._bSPIFlashSPI_Lock  b_drv_spiflash.o
    0x08002b4e   0x08002b4e   0x00000004   Code   RO         1518    .text._bSPIFlashSPI_Unlock  b_drv_spiflash.o
    0x08002b52   0x08002b52   0x00000122   Code   RO         1514    .text._bSPIFlashSPI_WR  b_drv_spiflash.o
    0x08002c74   0x08002c74   0x0000003c   Code   RO         1477    .text._bTaskCore    b_task.o
    0x08002cb0   0x08002cb0   0x00000054   Code   RO         1500    .text._bTimerCore   b_timer.o
    0x08002d04   0x08002d04   0x00000034   Code   RO         1347    .text.bClose        b_core.o
    0x08002d38   0x08002d38   0x00000020   Code   RO         1345    .text.bCtl          b_core.o
    0x08002d58   0x08002d58   0x0000007c   Code   RO         1389    .text.bDeviceClose  b_device.o
    0x08002dd4   0x08002dd4   0x00000078   Code   RO         1391    .text.bDeviceCtl    b_device.o
    0x08002e4c   0x08002e4c   0x000001ae   Code   RO         1379    .text.bDeviceInit   b_device.o
    0x08002ffa   0x08002ffa   0x00000002   PAD
    0x08002ffc   0x08002ffc   0x00000078   Code   RO         1383    .text.bDeviceOpen   b_device.o
    0x08003074   0x08003074   0x0000007c   Code   RO         1385    .text.bDeviceRead   b_device.o
    0x080030f0   0x080030f0   0x00000084   Code   RO         1387    .text.bDeviceWrite  b_device.o
    0x08003174   0x08003174   0x0000002e   Code   RO         1355    .text.bExec         b_core.o
    0x080031a2   0x080031a2   0x00000002   PAD
    0x080031a4   0x080031a4   0x0000001e   Code   RO         1728    .text.bHalDelayUs   b_hal.o
    0x080031c2   0x080031c2   0x00000004   Code   RO         1771    .text.bHalFlashChipSize  b_hal_flash.o
    0x080031c6   0x080031c6   0x00000004   Code   RO         1763    .text.bHalFlashErase  b_hal_flash.o
    0x080031ca   0x080031ca   0x00000004   Code   RO         1757    .text.bHalFlashInit  b_hal_flash.o
    0x080031ce   0x080031ce   0x00000004   Code   RO         1761    .text.bHalFlashLock  b_hal_flash.o
    0x080031d2   0x080031d2   0x00000004   Code   RO         1767    .text.bHalFlashRead  b_hal_flash.o
    0x080031d6   0x080031d6   0x00000004   Code   RO         1769    .text.bHalFlashSectorSize  b_hal_flash.o
    0x080031da   0x080031da   0x00000004   Code   RO         1759    .text.bHalFlashUnlock  b_hal_flash.o
    0x080031de   0x080031de   0x00000004   Code   RO         1765    .text.bHalFlashWrite  b_hal_flash.o
    0x080031e2   0x080031e2   0x0000000c   Code   RO         1722    .text.bHalGetSysTick  b_hal.o
    0x080031ee   0x080031ee   0x00000004   Code   RO         1797    .text.bHalGpioReadPin  b_hal_gpio.o
    0x080031f2   0x080031f2   0x00000004   Code   RO         1793    .text.bHalGpioWritePin  b_hal_gpio.o
    0x080031f6   0x080031f6   0x00000024   Code   RO         1720    .text.bHalIncSysTick  b_hal.o
    0x0800321a   0x0800321a   0x00000006   PAD
    0x08003220   0x08003220   0x00000088   Code   RO         1718    .text.bHalInit      b_hal.o
    0x080032a8   0x080032a8   0x00000004   Code   RO         1854    .text.bHalIntDisable  b_hal_it.o
    0x080032ac   0x080032ac   0x00000004   Code   RO         1852    .text.bHalIntEnable  b_hal_it.o
    0x080032b0   0x080032b0   0x00000042   Code   RO         1858    .text.bHalItInvoke  b_hal_it.o
    0x080032f2   0x080032f2   0x00000024   Code   RO         1856    .text.bHalItRegister  b_hal_it.o
    0x08003316   0x08003316   0x00000010   Code   RO         1877    .text.bHalQSPIReceiveData  b_hal_qspi.o
    0x08003326   0x08003326   0x00000010   Code   RO         1875    .text.bHalQSPISendCmd  b_hal_qspi.o
    0x08003336   0x08003336   0x00000010   Code   RO         1879    .text.bHalQSPITransmitData  b_hal_qspi.o
    0x08003346   0x08003346   0x00000002   PAD
    0x08003348   0x08003348   0x0000003e   Code   RO         1919    .text.bHalSpiReceive  b_hal_spi.o
    0x08003386   0x08003386   0x00000002   PAD
    0x08003388   0x08003388   0x0000003c   Code   RO         1917    .text.bHalSpiSend   b_hal_spi.o
    0x080033c4   0x080033c4   0x000000f2   Code   RO         1915    .text.bHalSpiTransfer  b_hal_spi.o
    0x080034b6   0x080034b6   0x00000002   PAD
    0x080034b8   0x080034b8   0x00000068   Code   RO         1937    .text.bHalUartReceiveIdle  b_hal_uart.o
    0x08003520   0x08003520   0x00000004   Code   RO         1933    .text.bHalUartSend  b_hal_uart.o
    0x08003524   0x08003524   0x00000002   Code   RO         1716    .text.bHalUserInit  b_hal.o
    0x08003526   0x08003526   0x00000002   PAD
    0x08003528   0x08003528   0x000001b4   Code   RO         1351    .text.bInit         b_core.o
    0x080036dc   0x080036dc   0x00000100   Code   RO         1674    .text.bLogOut       b_util_log.o
    0x080037dc   0x080037dc   0x00000024   Code   RO         1343    .text.bLseek        b_core.o
    0x08003800   0x08003800   0x00000062   Code   RO         1594    .text.bMCUFLASH_Init  b_drv_mcuflash.o
    0x08003862   0x08003862   0x0000000c   Code   RO         1967    .text.bMcuFlashChipSize  mcu_stm32l41x_flash.o
    0x0800386e   0x0800386e   0x00000002   PAD
    0x08003870   0x08003870   0x0000009e   Code   RO         1959    .text.bMcuFlashErase  mcu_stm32l41x_flash.o
    0x0800390e   0x0800390e   0x0000001a   Code   RO         1953    .text.bMcuFlashInit  mcu_stm32l41x_flash.o
    0x08003928   0x08003928   0x00000014   Code   RO         1957    .text.bMcuFlashLock  mcu_stm32l41x_flash.o
    0x0800393c   0x0800393c   0x00000042   Code   RO         1963    .text.bMcuFlashRead  mcu_stm32l41x_flash.o
    0x0800397e   0x0800397e   0x00000006   Code   RO         1965    .text.bMcuFlashSectorSize  mcu_stm32l41x_flash.o
    0x08003984   0x08003984   0x00000020   Code   RO         1955    .text.bMcuFlashUnlock  mcu_stm32l41x_flash.o
    0x080039a4   0x080039a4   0x000000ee   Code   RO         1961    .text.bMcuFlashWrite  mcu_stm32l41x_flash.o
    0x08003a92   0x08003a92   0x00000026   Code   RO         1982    .text.bMcuGpioReadPin  mcu_stm32l41x_gpio.o
    0x08003ab8   0x08003ab8   0x0000002a   Code   RO         1980    .text.bMcuGpioWritePin  mcu_stm32l41x_gpio.o
    0x08003ae2   0x08003ae2   0x00000008   Code   RO         2014    .text.bMcuIntDisable  mcu_stm32l41x_it.o
    0x08003aea   0x08003aea   0x00000004   Code   RO         2012    .text.bMcuIntEnable  mcu_stm32l41x_it.o
    0x08003aee   0x08003aee   0x00000002   PAD
    0x08003af0   0x08003af0   0x00000074   Code   RO         2025    .text.bMcuQSPIReceiveData  mcu_stm32l41x_qspi.o
    0x08003b64   0x08003b64   0x000000d8   Code   RO         2023    .text.bMcuQSPISendCmd  mcu_stm32l41x_qspi.o
    0x08003c3c   0x08003c3c   0x0000006c   Code   RO         2027    .text.bMcuQSPITransmitData  mcu_stm32l41x_qspi.o
    0x08003ca8   0x08003ca8   0x00000028   Code   RO         2055    .text.bMcuSpiReceive  mcu_stm32l41x_spi.o
    0x08003cd0   0x08003cd0   0x00000026   Code   RO         2053    .text.bMcuSpiSend   mcu_stm32l41x_spi.o
    0x08003cf6   0x08003cf6   0x00000002   PAD
    0x08003cf8   0x08003cf8   0x00000042   Code   RO         2051    .text.bMcuSpiTransfer  mcu_stm32l41x_spi.o
    0x08003d3a   0x08003d3a   0x00000002   PAD
    0x08003d3c   0x08003d3c   0x00000080   Code   RO         2066    .text.bMcuUartSend  mcu_stm32l41x_uart.o
    0x08003dbc   0x08003dbc   0x0000008c   Code   RO         1337    .text.bOpen         b_core.o
    0x08003e48   0x08003e48   0x0000005c   Code   RO         2122    .text.bProtSrvInit  b_srv_protocol.o
    0x08003ea4   0x08003ea4   0x00000022   Code   RO         2126    .text.bProtSrvPackage  b_srv_protocol.o
    0x08003ec6   0x08003ec6   0x00000022   Code   RO         2124    .text.bProtSrvParse  b_srv_protocol.o
    0x08003ee8   0x08003ee8   0x0000007e   Code   RO           89    .text.bProtoCallback  transfile.o
    0x08003f66   0x08003f66   0x00000052   Code   RO         1339    .text.bRead         b_core.o
    0x08003fb8   0x08003fb8   0x0000009c   Code   RO         1520    .text.bSPIFLASH_Init  b_drv_spiflash.o
    0x08004054   0x08004054   0x0000002e   Code   RO         1450    .text.bSemAcquireNonblock  b_sem.o
    0x08004082   0x08004082   0x00000002   PAD
    0x08004084   0x08004084   0x00000044   Code   RO         1448    .text.bSemCreate    b_sem.o
    0x080040c8   0x080040c8   0x00000032   Code   RO         1452    .text.bSemRelease   b_sem.o
    0x080040fa   0x080040fa   0x00000002   PAD
    0x080040fc   0x080040fc   0x00000068   Code   RO         1465    .text.bTaskCreate   b_task.o
    0x08004164   0x08004164   0x00000078   Code   RO           93    .text.bTransFileInit  transfile.o
    0x080041dc   0x080041dc   0x0000021a   Code   RO           91    .text.bTransFileTask  transfile.o
    0x080043f6   0x080043f6   0x00000050   Code   RO         1341    .text.bWrite        b_core.o
    0x08004446   0x08004446   0x00000002   PAD
    0x08004448   0x08004448   0x00000042   Code   RO         2080    .text.crc32_d       algo_crc.o
    0x0800448a   0x0800448a   0x00000056   Code   RO         2084    .text.crc_calculate_sbs  algo_crc.o
    0x080044e0   0x080044e0   0x00000176   Code   RO           13    .text.main          main.o
    0x08004656   0x08004656   0x00000002   PAD
    0x08004658   0x08004658   0x000002be   Code   RO         1559    .text.page256_or_1_byte_write  sfud.o
    0x08004916   0x08004916   0x00000002   PAD
    0x08004918   0x08004918   0x000001ac   Code   RO         1583    .text.read_sfdp_data  sfud_sfdp.o
    0x08004ac4   0x08004ac4   0x0000011c   Code   RO         1553    .text.set_write_enabled  sfud.o
    0x08004be0   0x08004be0   0x0000019c   Code   RO         1551    .text.sfud_chip_erase  sfud.o
    0x08004d7c   0x08004d7c   0x000005c4   Code   RO         1545    .text.sfud_device_init  sfud.o
    0x08005340   0x08005340   0x0000026e   Code   RO         1555    .text.sfud_erase    sfud.o
    0x080055ae   0x080055ae   0x00000002   PAD
    0x080055b0   0x080055b0   0x000001d0   Code   RO         1547    .text.sfud_read     sfud.o
    0x08005780   0x08005780   0x00000886   Code   RO         1579    .text.sfud_read_sfdp  sfud_sfdp.o
    0x08006006   0x08006006   0x00000002   PAD
    0x08006008   0x08006008   0x000000a4   Code   RO         1581    .text.sfud_sfdp_get_suitable_eraser  sfud_sfdp.o
    0x080060ac   0x080060ac   0x00000030   Code   RO         1512    .text.sfud_spi_port_init  b_drv_spiflash.o
    0x080060dc   0x080060dc   0x0000024e   Code   RO         1557    .text.sfud_write    sfud.o
    0x0800632a   0x0800632a   0x00000002   PAD
    0x0800632c   0x0800632c   0x00000118   Code   RO         1565    .text.sfud_write_status  sfud.o
    0x08006444   0x08006444   0x0000011e   Code   RO         1549    .text.wait_busy     sfud.o
    0x08006562   0x08006562   0x00000002   PAD
    0x08006564   0x08006564   0x00000028   Code   RO         2387    i.__0sprintf        mc_w.l(printfa.o)
    0x0800658c   0x0800658c   0x00000034   Code   RO         2390    i.__0vsnprintf      mc_w.l(printfa.o)
    0x080065c0   0x080065c0   0x0000000e   Code   RO         2457    i.__scatterload_copy  mc_w.l(handlers.o)
    0x080065ce   0x080065ce   0x00000002   Code   RO         2458    i.__scatterload_null  mc_w.l(handlers.o)
    0x080065d0   0x080065d0   0x0000000e   Code   RO         2459    i.__scatterload_zeroinit  mc_w.l(handlers.o)
    0x080065de   0x080065de   0x00000002   PAD
    0x080065e0   0x080065e0   0x0000018a   Code   RO         2392    i._fp_digits        mc_w.l(printfa.o)
    0x0800676a   0x0800676a   0x00000002   PAD
    0x0800676c   0x0800676c   0x000006e2   Code   RO         2393    i._printf_core      mc_w.l(printfa.o)
    0x08006e4e   0x08006e4e   0x00000024   Code   RO         2394    i._printf_post_padding  mc_w.l(printfa.o)
    0x08006e72   0x08006e72   0x0000002e   Code   RO         2395    i._printf_pre_padding  mc_w.l(printfa.o)
    0x08006ea0   0x08006ea0   0x00000016   Code   RO         2396    i._snputc           mc_w.l(printfa.o)
    0x08006eb6   0x08006eb6   0x0000000a   Code   RO         2397    i._sputc            mc_w.l(printfa.o)
    0x08006ec0   0x08006ec0   0x00000034   Data   RO         2086    .rodata..Lswitch.table.crc_calculate_sbs  algo_crc.o
    0x08006ef4   0x08006ef4   0x00000010   Data   RO         1324    .rodata.AHBPrescTable  system_stm32l4xx.o
    0x08006f04   0x08006f04   0x00000008   Data   RO         1325    .rodata.APBPrescTable  system_stm32l4xx.o
    0x08006f0c   0x08006f0c   0x00000030   Data   RO         1326    .rodata.MSIRangeTable  system_stm32l4xx.o
    0x08006f3c   0x08006f3c   0x0000000c   Data   RO         2057    .rodata.SpiTable    mcu_stm32l41x_spi.o
    0x08006f48   0x08006f48   0x0000000c   Data   RO         1411    .rodata.bDeviceDescTable  b_device.o
    0x08006f54   0x08006f54   0x00000003   Data   RO         1410    .rodata.bDriverNumberTable  b_device.o
    0x08006f57   0x08006f57   0x00000001   PAD
    0x08006f58   0x08006f58   0x00000004   Data   RO         1606    .rodata.bHalIf_MCUFLASH  b_drv_mcuflash.o
    0x08006f5c   0x08006f5c   0x0000000c   Data   RO         1534    .rodata.bHalIf_SPIFLASH  b_drv_spiflash.o
    0x08006f68   0x08006f68   0x00000010   Data   RO         1038    .rodata.cst16       stm32l4xx_hal_uart.o
    0x08006f78   0x08006f78   0x00000010   Data   RO         2070    .rodata.cst16       mcu_stm32l41x_uart.o
    0x08006f88   0x08006f88   0x000001f8   Data   RO         1568    .rodata.flash_chip_table  sfud.o
    0x08007180   0x08007180   0x00000080   Data   RO         1569    .rodata.mf_table    sfud.o
    0x08007200   0x08007200   0x00000004   Data   RO          106    .rodata.str1.1      transfile.o
    0x08007204   0x08007204   0x0000017f   Data   RO         1367    .rodata.str1.1      b_core.o
    0x08007383   0x08007383   0x0000005e   Data   RO         1412    .rodata.str1.1      b_device.o
    0x080073e1   0x080073e1   0x00000441   Data   RO         1567    .rodata.str1.1      sfud.o
    0x08007822   0x08007822   0x000006a9   Data   RO         1585    .rodata.str1.1      sfud_sfdp.o
    0x08007ecb   0x08007ecb   0x00000001   PAD
    0x08007ecc   0x08007ecc   0x00000020   Data   RO         2456    Region$$Table       anon$$obj.o
    0x08007eec   0x08007eec   0x0000000c   Data   RO         1633    b_srv_protocol      b_mod_protocol.o
    0x08007ef8   0x08007ef8   0x00000004   Data   RO         1365    bos_polling         b_core.o
    0x08007efc   0x08007efc   0x00000004   Data   RO         1479    bos_polling         b_task.o
    0x08007f00   0x08007f00   0x00000004   Data   RO         1502    bos_polling         b_timer.o
    0x08007f04   0x08007f04   0x00000004   Data   RO         1943    bos_polling         b_hal_uart.o
    0x08007f08   0x08007f08   0x00000008   Data   RO         1408    driver_init         b_device.o
    0x08007f10   0x08007f10   0x00000008   Data   RO         1533    driver_init         b_drv_spiflash.o
    0x08007f18   0x08007f18   0x00000008   Data   RO         1607    driver_init         b_drv_mcuflash.o
    0x08007f20   0x08007f20   0x00000008   Data   RO         1407    driver_init_0       b_device.o


    Execution Region RW_IRAM2 (Exec base: 0x10000000, Load base: 0x08007fb8, Size: 0x00000000, Max: 0x00004000, ABSOLUTE)

    **** No section assigned to this execution region ****


    Execution Region RW_IRAM1 (Exec base: 0x20000000, Load base: 0x08007f28, Size: 0x00000dc8, Max: 0x0000c000, ABSOLUTE)

    Exec Addr    Load Addr    Size         Type   Attr      Idx    E Section Name        Object

    0x20000000   0x08007f28   0x00000004   Data   RW         1323    .data.SystemCoreClock  system_stm32l4xx.o
    0x20000004   0x08007f2c   0x00000008   Data   RW         1860    .data.bHalItListHead  b_hal_it.o
    0x2000000c   0x08007f34   0x00000008   Data   RW         1944    .data.bHalUartListHead  b_hal_uart.o
    0x20000014   0x08007f3c   0x00000038   Data   RW          101    .data.bProtoUart    transfile.o
    0x2000004c   0x08007f74   0x00000018   Data   RW          102    .data.bProtol       transfile.o
    0x20000064   0x08007f8c   0x00000008   Data   RW         1456    .data.bSemListHead  b_sem.o
    0x2000006c   0x08007f94   0x00000008   Data   RW         1480    .data.bTaskListHead  b_task.o
    0x20000074   0x08007f9c   0x00000008   Data   RW         1503    .data.bTimerListHead  b_timer.o
    0x2000007c   0x08007fa4   0x00000004   Data   RW         1732    .data.bUsDelayParam  b_hal.o
    0x20000080   0x08007fa8   0x00000004   Data   RW           98    .data.sgFd          transfile.o
    0x20000084   0x08007fac   0x00000001   Data   RW          186    .data.uwTickFreq    stm32l4xx_hal.o
    0x20000085   0x08007fad   0x00000003   PAD
    0x20000088   0x08007fb0   0x00000004   Data   RW          185    .data.uwTickPrio    stm32l4xx_hal.o
    0x2000008c   0x08007fb4   0x00000004   PAD
    0x20000090        -       0x00000001   Zero   RW         1368    .bss._bCoreCreateFd.init  b_core.o
    0x20000091        -       0x00000400   Zero   RW          105    .bss.bBufbProtoUart  transfile.o
    0x20000491   0x08007fb4   0x00000003   PAD
    0x20000494        -       0x00000024   Zero   RW         1366    .bss.bCoreFdTable   b_core.o
    0x200004b8        -       0x000000cc   Zero   RW         1409    .bss.bDriverInterfaceTable  b_device.o
    0x20000584        -       0x00000100   Zero   RW         1676    .bss.bLogBuff       b_util_log.o
    0x20000684        -       0x00000074   Zero   RW         1532    .bss.bSpiFlashPrivate  b_drv_spiflash.o
    0x200006f8        -       0x00000004   Zero   RW         1730    .bss.bSysTick       b_hal.o
    0x200006fc        -       0x00000004   Zero   RW         1731    .bss.bSysTickOvr    b_hal.o
    0x20000700        -       0x0000002c   Zero   RW          103    .bss.bTransFileAttr  transfile.o
    0x2000072c        -       0x00000014   Zero   RW           97    .bss.bTransFileRunParam  transfile.o
    0x20000740        -       0x00000010   Zero   RW          104    .bss.bTransFileSemAttr  transfile.o
    0x20000750        -       0x00000084   Zero   RW           21    .bss.hlpuart1       main.o
    0x200007d4        -       0x0000004c   Zero   RW           22    .bss.hqspi          main.o
    0x20000820        -       0x00000084   Zero   RW           20    .bss.huart1         main.o
    0x200008a4        -       0x00000004   Zero   RW         1481    .bss.pCurrentTaskAttr  b_task.o
    0x200008a8        -       0x00000105   Zero   RW         1570    .bss.page256_or_1_byte_write.cmd_data  sfud.o
    0x200009ad   0x08007fb4   0x00000003   PAD
    0x200009b0        -       0x00000004   Zero   RW         1969    .bss.sMcuFlashSize  mcu_stm32l41x_flash.o
    0x200009b4        -       0x00000004   Zero   RW           99    .bss.sgSemId        transfile.o
    0x200009b8        -       0x00000004   Zero   RW          100    .bss.sgSrvId        transfile.o
    0x200009bc        -       0x00000001   Zero   RW           19    .bss.sgUartData     main.o
    0x200009bd   0x08007fb4   0x00000003   PAD
    0x200009c0        -       0x00000004   Zero   RW          187    .bss.uwTick         stm32l4xx_hal.o
    0x200009c4   0x08007fb4   0x00000004   PAD
    0x200009c8        -       0x00000400   Zero   RW            1    STACK               startup_stm32l431xx.o


==============================================================================

Image component sizes


      Code (inc. data)   RO Data    RW Data    ZI Data      Debug   Object Name

       152          0         52          0          0       2479   algo_crc.o
       906        136        387          0         37       5253   b_core.o
      1054        112        125          0        204       7144   b_device.o
       188          0         12          0          0       4146   b_drv_mcuflash.o
       792          0         20          0        116       9382   b_drv_spiflash.o
       216          8          0          4          8       1954   b_hal.o
        32          0          0          0          0       2309   b_hal_flash.o
         8          0          0          0          0       4060   b_hal_gpio.o
       110          0          0          8          0       2810   b_hal_it.o
        48          0          0          0          0       1971   b_hal_qspi.o
       364          0          0          0          0       4926   b_hal_spi.o
       316          0          4          8          0       4676   b_hal_uart.o
       542         80         12          0          0       6169   b_mod_protocol.o
       164          0          0          8          0       3023   b_sem.o
       160          0          0          0          0       2926   b_srv_protocol.o
       164          8          4          8          4       4403   b_task.o
        84          0          4          8          0       4321   b_timer.o
       256         12          0          0        256       3410   b_util_log.o
       584          0          0          0        341      10861   main.o
       558          0          0          0          4       3696   mcu_stm32l41x_flash.o
        80          0          0          0          0       3775   mcu_stm32l41x_gpio.o
        12          0          0          0          0        544   mcu_stm32l41x_it.o
       440          0          0          0          0       3150   mcu_stm32l41x_qspi.o
       144          0         12          0          0       3601   mcu_stm32l41x_spi.o
       128          0         16          0          0       2404   mcu_stm32l41x_uart.o
      5116        388       1721          0        261      14688   sfud.o
      2774        192       1705          0          0       5944   sfud_sfdp.o
        36          8        396          0       1024        848   startup_stm32l431xx.o
       150          0          0          5          4       8512   stm32l4xx_hal.o
       192          0          0          0          0       9919   stm32l4xx_hal_cortex.o
       154          0          0          0          0       7248   stm32l4xx_hal_dma.o
       490          0          0          0          0       5366   stm32l4xx_hal_gpio.o
       410          0          0          0          0      12759   stm32l4xx_hal_msp.o
       132          0          0          0          0       8056   stm32l4xx_hal_pwr_ex.o
       276          0          0          0          0      17443   stm32l4xx_hal_qspi.o
      2274          0          0          0          0       9766   stm32l4xx_hal_rcc.o
       920          0          0          0          0      13476   stm32l4xx_hal_rcc_ex.o
      2574         46         16          0          0      27943   stm32l4xx_hal_uart.o
         2          0          0          0          0       8095   stm32l4xx_hal_uart_ex.o
        54          0          0          0          0       4277   stm32l4xx_it.o
        18          0         72          4          0       2990   system_stm32l4xx.o
       842         12          4         84       1112       6679   transfile.o

    ----------------------------------------------------------------------
     23980       1002       4596        140       3388     267402   Object Totals
         0          0         32          0          0          0   (incl. Generated)
        64          0          2          3         17          0   (incl. Padding)

    ----------------------------------------------------------------------

      Code (inc. data)   RO Data    RW Data    ZI Data      Debug   Library Member Name

         0          0          0          0          0          0   entry.o
         0          0          0          0          0          0   entry10a.o
         0          0          0          0          0          0   entry11a.o
         8          4          0          0          0          0   entry2.o
         4          0          0          0          0          0   entry5.o
         0          0          0          0          0          0   entry7b.o
         0          0          0          0          0          0   entry8b.o
         8          4          0          0          0          0   entry9a.o
        30          0          0          0          0          0   handlers.o
        36          8          0          0          0         68   init.o
         0          0          0          0          0          0   iusefp.o
        30          0          0          0          0         68   llshl.o
        36          0          0          0          0         68   llsshr.o
        32          0          0          0          0         68   llushr.o
        36          0          0          0          0         68   memcpya.o
        36          0          0          0          0        108   memseta.o
      2362         92          0          0          0        668   printfa.o
        28          0          0          0          0         76   strcmp.o
        14          0          0          0          0         68   strlen.o
        44          0          0          0          0         80   uidiv.o
       104          0          0          0          0         92   uldiv.o
        48          0          0          0          0         68   cdrcmple.o
       350          0          0          0          0        148   dadd.o
       222          0          0          0          0        100   ddiv.o
       186          0          0          0          0        176   depilogue.o
        50          0          0          0          0         76   dfixui.o
        48          0          0          0          0         68   dfixul.o
        26          0          0          0          0         76   dfltui.o
       234          0          0          0          0         96   dmul.o

    ----------------------------------------------------------------------
      3976        108          0          0          0       2240   Library Totals
         4          0          0          0          0          0   (incl. Padding)

    ----------------------------------------------------------------------

      Code (inc. data)   RO Data    RW Data    ZI Data      Debug   Library Name

      2808        108          0          0          0       1432   mc_w.l
      1164          0          0          0          0        808   mf_w.l

    ----------------------------------------------------------------------
      3976        108          0          0          0       2240   Library Totals

    ----------------------------------------------------------------------

==============================================================================


      Code (inc. data)   RO Data    RW Data    ZI Data      Debug   

     27956       1110       4596        140       3388     267850   Grand Totals
     27956       1110       4596        140       3388     267850   ELF Image Totals
     27956       1110       4596        140          0          0   ROM Totals

==============================================================================

    Total RO  Size (Code + RO Data)                32552 (  31.79kB)
    Total RW  Size (RW Data + ZI Data)              3528 (   3.45kB)
    Total ROM Size (Code + RO Data + RW Data)      32692 (  31.93kB)

==============================================================================

