:020000040800F2
:10000000483A002005030008593800084538000820
:10001000553800088D180008214400080000000031
:10002000000000000000000000000000033F000886
:100030008F180008000000005B380008053F00082A
:100040001F0300081F0300081F0300081F03000808
:100050001F0300081F0300081F0300081F030008F8
:100060001F0300081F0300081F0300081F030008E8
:100070001F0300081F0300081F0300081F030008D8
:100080001F0300081F0300081F0300081F030008C8
:100090001F0300081F0300081F0300081F030008B8
:1000A0001F0300081F0300081F0300081F030008A8
:1000B0001F03000800000000000000001F030008EC
:1000C0001F0300081F0300081F0300081F03000888
:1000D0001F030008154400081F0300081F03000841
:1000E0001F0300081F0300080000000000000000BC
:1000F0000000000000000000000000000000000000
:10010000000000001F030008000000001F0300089B
:1001100000000000000000001F0300081F0300088B
:100120001F0300081F0300081F0300081F03000827
:100130001F03000800000000000000000000000095
:100140001F0300081F0300081F0300080000000031
:100150001F0300081F030008473800081F0300089A
:100160001F0300081F0300081F0300080000000011
:100170001F0300081F03000800000000000000002B
:100180001F0300081F0300081F03000800F002F807
:1001900000F0A8F814A696E8000CB244B344DA457F
:1001A00001D100F09FF8BAE80F000FA696E83000E2
:1001B000A5EB040504EB0607AAEB0704A7F101076A
:1001C0004FEA15154FEA3414A4F10104AC4201D3EF
:1001D00000F088F813F0010F18BFFB1A43F0010379
:1001E00000F001F8DBE71847F890000018910000D4
:1001F000103A24BF78C878C1FAD8520724BF30C853
:1002000030C144BF04680C607047000070470000B4
:100210000023002400250026103A28BF78C1FBD80F
:10022000520728BF30C148BF0B6070476E2900F0ED
:10023000E883702900F03785662908F0F88565297C
:1002400008F0F585672908F0F285612908F0F18545
:1002500003681B0A28BF41F08001692900F01E8154
:10026000642900F01B81752900F018816F2900F0C6
:10027000C584782900F00385E92900F05F84E4292A
:1002800000F05C84F52900F05984EF2900F0C28465
:10029000F82900F002850368DB0928BF41F08001DE
:1002A000632901F07881732901F07D81E32901F050
:1002B0008881F32901F08D81002070471FB508F077
:1002C000A9FD00F083FD04000020002108F0DEFA03
:1002D000401C60600020002108F0EEFAE0601FBDC5
:1002E00010B510BD01F0ABF91146FFF7E7FF07F0BD
:1002F0006BFB01F07BFA03B4FFF7F2FF03BC01F0E4
:10030000BDFA00000948804709480047FEE7FEE7BC
:10031000FEE7FEE7FEE7FEE7FEE7FEE7FEE7FEE7B5
:1003200004480549054A064B70470000933F000802
:100330008D01000848340020483A0020483600204B
:100340004836002053EA020C00F069802DE9F04B9A
:100350004FF00006002B1FBFB3FA83F503FA05F434
:1003600024FA05F65E4012BF1643B2FA82F502FA8D
:1003700005F4C5F120051EBF22FA05FC44EA0C0471
:10038000203556EA044C4FEA144418BF641C4FF061
:1003900000084FF00009904271EB030C39D300299B
:1003A00019BFB1FA81F701FA07F6B0FA80F700FA3F
:1003B00007F6C7F120071EBF20FA07FC46EA0C0625
:1003C0002037B6FBF4FCA7EB0507103F07F01F0B27
:1003D000CBF120062CFA06F60CFA0BFB44BFB34611
:1003E0000026202FA4BF5E464FF0000B5BEA060CF0
:1003F00008BF4FF0010B19EB0B0948EB0608ABFBEC
:10040000027C06FB02CC0BFB03CCC01B71EB0C0186
:10041000C1E70B46024641464846BDE8F08B13B59E
:10042000084318BF4FF0FF300146AFF30080BDE82E
:100430001C4070477CB51D4616460C00009007D046
:100440004142A14202D32044401E01E04FF0FF3060
:10045000064B7B442A4669460190304600F0EBFA91
:10046000002C02D0009A002111707CBD1106000002
:100470000FB41CB5084B06AA7B446946009005984A
:1004800000F0D9FA04460020694600F0E7FA204659
:100490001CBC5DF814FB0000E10500002DE9F041F3
:1004A0000646002410687529314616A510D000F0C4
:1004B00014FA002802DA404213A507E031688A07DF
:1004C00001D512A502E0490704D511A5012401E0D8
:1004D00000F00CFA00210A2206F1240709E0B0FB23
:1004E000F2FCB0FBF2F302FB1C00303078541846EB
:1004F000491C0028F3D123462A463046BDE8F04186
:1005000000F026BA000000002D0000002B000000C3
:10051000200000002DE9F05F894604464FF0000AF4
:10052000DFF874B1FB44C0F820A02046E16888479A
:10053000002874D0252806D0D4E901219047206AEC
:10054000401C2062F1E700265F462046E1688847AC
:100550002028054607DB312D05D2781910F8200C2C
:1005600008B10643F1E7B00701D526F00406C4F848
:100570001CA00027C4F818A02A2D09D0284608F08E
:100580007DF938B304EB8708303DC8F8185019E0FE
:1005900059F8041B204604EB87029161E168884703
:1005A000012F054618D1E069002820DA26F0200640
:1005B0001DE0D8F8180000EB800005EB4000303853
:1005C000C8F818002046E1688847054608F056F943
:1005D0000028EED1012F0AD02E2D08D12046E16847
:1005E00088477F1C0546022F46F02006C4DBA06921
:1005F000002803DA404246F00106A061F00701D06E
:1006000026F010066C2D0BD0682D09D04C2D39D05A
:100610006A2D35D0742D35D07A2D33D016E038E0E0
:10062000E1682F4620468847B842054609D16C2F1D
:1006300026D04FF48060E16806432046884705468F
:1006400004E06C2F1AD04FF4807006430DB3A5F16F
:100650004100192802D8203546F400664A4629464A
:10066000204626604E46FFF7E1FD80B101280BD001
:10067000F61D26F0070000F1080956E74020E4E7E0
:100680008020D8E70020D6E706F104094DE7284688
:1006900052E7206A00F002B80E89000030BCBDE8C5
:1006A000C09F2DE9F04791460F468046044600263C
:1006B00014F8015B2DB100F0DDF80068405DC00763
:1006C000F6D12B2D02D02D2D18D0641E4A46394666
:1006D000204600F0F3FA27B13968A14201D1C7F8EA
:1006E00000804FF0020471050BD54042002803DD65
:1006F00000F0C8F80460A007BDE8F08746F4806603
:10070000E4E70028F8DA00F0BDF804606FF000407C
:10071000F2E710B5431C02E010F8011B71B181072C
:10072000FAD14FF0013202C88C1A8C4314EAC2117C
:10073000F9D0C01A0A0603D0C01E10BDC01A10BDE1
:100740000A0401D0801E10BD0902FCD0401E10BD5D
:10075000032A40F2308010F0030C00F0158011F8ED
:10076000013BBCF1020F624498BF11F801CB00F8C5
:10077000013B38BF11F8013BA2F1040298BF00F819
:1007800001CB38BF00F8013B11F0030300F0E88211
:10079000083AC0F0088051F8043B083A51F804CBFD
:1007A000A0E80810F5E7121D5CBF51F8043B40F8C3
:1007B000043BAFF30080D20724BF11F8013B11F8CE
:1007C00001CB48BF11F8012B24BF00F8013B00F812
:1007D00001CB48BF00F8012B70474FF000020429FD
:1007E000C0F0128010F0030C00F01B80CCF1040C60
:1007F000BCF1020F18BF00F8012BA8BF20F8022B94
:10080000A1EB0C0100F00DB85FEAC17C24BF00F839
:10081000012B00F8012B48BF00F8012B70474FF067
:10082000000200B5134694469646203922BFA0E840
:100830000C50A0E80C50B1F12001BFF4F7AF09074C
:1008400028BFA0E80C5048BF0CC05DF804EB89003D
:1008500028BF40F8042B08BF704748BF20F8022B80
:1008600011F0804F18BF00F8012B70477047704798
:100870007047000010B500F0A9FA001D10BD00BFC0
:100880000D800000004870472800002070B5044625
:1008900085690068C10601D5302600E02026C00722
:1008A00007D070BDD4E9012130469047206A401C32
:1008B00020626D1EF6D570BD70B50446856900785E
:1008C000C00707D170BDD4E9012120209047206ADC
:1008D000401C20626D1EF6D570BD09684A0501D521
:1008E00040B27047C905FCD500B2704709684A0597
:1008F00001D5C0B27047C905FCD580B2704770B54C
:100900000C460546012A05D02878800600D5EA69FC
:10091000002302E0012305E05B1C934202D2E05C6D
:100920000028F9D1A869E618C01AA861286A1844F5
:1009300028622846FFF7AAFF04E0D5E9012114F850
:10094000010B9047B442F8D32846FFF7B5FF70BDBE
:100950002DE9F0470D4699469246044600F12408D9
:100960000168880604D5E06921F01001216000E0EB
:100970000120A84201DD471B00E00027A1697A1988
:1009800002EB0900081AA0612078C00602D42046B4
:10099000FFF77CFF002608E0D4E901211AF80600E1
:1009A0009047206A401C761C20624E45F4DB20787C
:1009B000C0060AD52046FFF769FF06E0D4E9012109
:1009C00030209047206A401C2062381EA7F10107A2
:1009D000F4DC07E0D4E9012118F805009047206A0B
:1009E000401C2062281EA5F10105F3DC2046FFF71C
:1009F00063FF2078000602D50220BDE8F0870120C1
:100A0000FBE711680268006A530501D508700AE027
:100A1000D30501D5088006E0130603D5C217C1E946
:100A2000000200E0086001207047000001694A1CD4
:100A300002610878704700B58FB0CDE9013100211F
:100A4000059105497944CDE9031011466846FFF741
:100A500061FD0FB000BD0000E5FFFFFF0A6802F86E
:100A6000010B0A607047D1E900239A4202D2531C5D
:100A70000B601070704700002DE9FF5F15468A4635
:100A80000446DFF8AC80F8440027D8E900103E4661
:100A9000CDE9001010E03AF816106A4602A800F0FE
:100AA000AAFD411C07D02178890603D5E2693918CF
:100AB00091420DD80744761C2078800602D5E06963
:100AC000B84205DDAE42E6DB3AF816000028E2D176
:100AD000A069C01BA0612046FFF7D8FED8E900102E
:100AE000CDE90010002017E03AF818106A4602A875
:100AF00000F081FDB0F1FF3F81460BD000250DF1E4
:100B0000080B05E0D4E901211BF8050090476D1C96
:100B10004D45F7D308F10100B0428046E4DB206A7E
:100B2000384420622046FFF7C7FE00F003B80000FB
:100B3000BE8300003FBCBDE8C09F00002DE9F0412E
:100B40008046D21D22F007020025D2E90002F529D5
:100B500015A614D0011E72F1000106DA0023D0EBB5
:100B6000030063EB020211A608E0D8F800108B071F
:100B700001D50FA602E0490701D50EA601251146B1
:100B8000002408F1240704E000F024F930323A553B
:100B9000641C50EA0102F7D12B46324621464046FA
:100BA000BDE8F041FFF7D4BE000000002D000000BA
:100BB0002B0000002000000030B4002100F12404CC
:100BC00008E002F00705D208303542EA4372DB083C
:100BD0006554491C52EA0305F3D10468002310A2AE
:100BE000250708D504F020040C4304D0C469012370
:100BF0000CA2641EC46130BCFFF7AABE10B5044647
:100C000021461068FFF772FE02462046BDE81040FC
:100C10000023D1E7D21D22F00701D1E90023CBE761
:100C20000000000030000000F0B40D460188090506
:100C300002D5214C7C4402E01F4C7C440E34002140
:100C400000F1240608E002F00F071209E75D42EA0E
:100C500003721B097754491C52EA0307F3D1027847
:100C60000023120704D5702D06D009B102231134D8
:100C70002246F0BCFFF76CBE01231034F8E770B5D4
:100C800004460D4621461068FFF730FE024629460D
:100C90002046BDE870400023C6E7D21D22F00703BE
:100CA000D3E90023C0E70368126843F02003036020
:100CB0000823C3610023B7E7188200002DE9F05F25
:100CC000824615468B4600270AF10104B946007892
:100CD000302801D09DB113E014F8010B01277828CA
:100CE00003D0582801D045B10AE00DB1102D07D12D
:100CF000002714F8010B102502E0082500E00A2562
:100D00000026B0460EE005FB080005FB06F10127B2
:100D10001FFA80F801EB1046B6F5803F00D3B946C4
:100D200014F8010B294600F058FC0028EBDABBF15F
:100D3000000F05D00FB1641E00E05446CBF8004010
:100D4000B9F1000F06D0FFF79DFD02210160C81E1A
:100D500000F003B848EA0640FAE730BCBDE8C09F9F
:100D600010B5203AC0F00B80B1E81850A0E8185038
:100D7000B1E81850A0E81850203ABFF4F5AF5FEA88
:100D8000027C24BFB1E81850A0E8185044BF18C92D
:100D900018C0BDE810405FEA827C24BF51F8043BD4
:100DA00040F8043B08BF7047D20728BF31F8023B28
:100DB00048BF11F8012B28BF20F8023B48BF00F8BC
:100DC000012B7047004870472800002000487047FA
:100DD0004800002030B5B0F10A0271F100034FEA7B
:100DE000900E4EEA817EB0EB0E0061EB91014FEA6E
:100DF000101E4EEA017E10EB0E0041EB11114FEA7E
:100E0000102E4EEA016E10EB0E0041EB11214FEA5D
:100E1000104E4EEA014E10EB0E0041EB114140180E
:100E200041F100014FEAD00040EA41704FEAD101A0
:100E30004FEA810444EA907410EB800544EB01040E
:100E40006D1944EB0404521BA3414FF0000348BF4B
:100E50000A3200D530BD401C41F1000130BD2DE902
:100E6000FF4F0C461E464FF0FF378BB0D2E9000112
:100E7000DDF860800A908A46C1F30A5505B93D46FF
:100E8000002108464FF00000BAF1000F00F44000C6
:100E900005DA00EB80004FF4400101EA50004FEA10
:100EA0009059B9F1010F00DDB9460A9850EA4A009D
:100EB0000ED044F61050A5F2FF3545432F14B8F17B
:100EC000000F1ED07542291E1EDDC9F100021CE074
:100ED000B8F1010F4FF0000001D0302103E0F243E0
:100EE00005E02154401CB042FBDB304600220021CB
:100EF00021540B99C1F80880C1E900200FB000F01F
:100F0000BCB9BD1B6D1CDEE74A4600DA694206A883
:100F100000F0FAFB06AB93E8070003AB83E8070099
:100F200050460A9907F0CAF88DE80700A0F500506E
:100F30001F3800900398002D0ADD42F21F014A4637
:100F40000844002303A90390684607F033FB09E037
:100F5000A0F500504A461F38002303A903906846B5
:100F600007F03DFB8DE807000004000C03D04FF0B4
:100F7000FF30410800E01046B8F1000F03D0002216
:100F8000009215461EE0751E05D4FFF723FF303290
:100F900062556D1EF9D5B3460122084302D00022E6
:100FA0007F1C04E02078302801D100227F1E002A17
:100FB000099784D01DE0112D07DAFFF70BFF3032BF
:100FC00062556D1C50EA0102F5D1084302D0009829
:100FD000C8B10EE00021681E05E0235C625C63542A
:100FE0002254401E491C8142F7DBAB46A81B401E21
:100FF0000990002004F80B000B98099AC0F80880AB
:10100000C0E9002B7AE711264FF0000857E72DE9D9
:10101000F04F88460446D21D22F0070191B0D1E975
:101020000001CDE90A0107F011FC02460B98C00F40
:1010300001D02D2007E02068810701D52B2002E098
:10104000202101EAC000032A099001D0072A05DB0C
:1010500003464146204600F017FB0BE1207880064E
:1010600001D5E06900E00620B8F1650F814606D0A1
:10107000B8F1660F18D0B8F1670F70D131E00020D9
:10108000B9F1110F009001DB112301E009F1010317
:101090000AAA01A90CA8FFF7E2FEDDE90C70002600
:1010A00009F10105834647E001204B4600904FF0CF
:1010B00000470AAA01A90CA8FFF7D1FEDDE90DB08F
:1010C0000C995D46002610B909F101000D18B9EB25
:1010D000050003D4C0F1FF3609F10105A5EB0900B5
:1010E0002BE0B9F1010F01DA4FF001090020B9F14D
:1010F000110F0090484601DD112300E003460AAAC3
:1011000001A90CA8FFF7ABFEDDE90C704D460026E7
:101110008346207800070AD4AB4500DA5D4601A873
:10112000012D04DD411911F8011C302907D04F456C
:1011300002DA17F1040F04DA012082460FE06D1E77
:10114000EEE7002F02DCED1B3E4403E0781CA842D2
:1011500000DD7D1CB81B00F1010A4FF0004720782C
:10116000000703D4AA4501DB4FF0FF3A0021B7F195
:10117000004F0DF143088DF8431024D002202B239B
:10118000002F01DA7F422D230A21021EA0F1010067
:1011900000DC5FB197FBF1FC97FBF1F201FB1C7CDB
:1011A00017460CF1300C08F801CDEEE7A8F101006C
:1011B00003702188090501D5452100E06521A0F1D2
:1011C000010800F8011C09980FA9A1EB0807FF1DF1
:1011D00000B10120411901EBEA70A1693844081AF5
:1011E000401EA0612078C00602D42046FFF74EFBC7
:1011F000099828B1D4E901219047206A401C206257
:101200002078C00622D52046FFF740FB1EE0002EC6
:1012100004DBB34502DD01A8805D00E03020D4E9A5
:1012200001219047206A401C2062761CAAF101002F
:101230005FEA000A0AD1FFF7C9FDC0680168405C97
:10124000D4E901219047206A401C2062281EA5F1A4
:101250000105DCDC07E0D4E9012118F8010B904717
:10126000206A401C2062381EA7F10107F3DC2046EB
:10127000FFF722FB032011B041E630BCBDE8C08F70
:101280002DE9F04F04460D46D21D22F0070089B02B
:10129000D0E900974846394607F0D8FA0246F80FD9
:1012A00001D02D2307E02068810701D52B2302E020
:1012B000202101EAC0038DF820300BB1012000E0AD
:1012C0000020032A824601D0072A04DB2946204653
:1012D00000F0DAF93FE12078800601D40D2500E026
:1012E000E569C7F30A560D2D49DA00214FEA175B6D
:1012F00008464FF00000002F00F4400007DA00EB32
:1013000080004FF4400100EBD07001EA60008115CD
:10131000012901DD4FF0FF3100224FEA850CBCF1BD
:10132000180F06D31346ACF118004FF08052C2409C
:1013300003E04FF4801323FA0CF30CF10C0CBCF116
:10134000200F04D3ACF1200C09FA0CF001E007FAED
:101350000CF000294FF0004801DD18B90FE00ED164
:1013600040450CD319EB02095F4121B9404502D138
:101370009F4329EA0209BBEB175F00D0761C208847
:10138000000502D57B48784402E07A487844193851
:1013900008AA302302F80A30037C0AF10101002E6A
:1013A0000AF1020A53546A4602DC4FF0300101E0B0
:1013B0004FF031014FF001088DF8001002D0A6F275
:1013C000FF3603E059EA470100D06B4E002D02DCE6
:1013D0002178090704D54FF002082E218DF801105D
:1013E000C44600210BE0C7F303433F01C35C491C23
:1013F0006D1E02F80830052908F1010801DA002DF8
:10140000F1DC00210CE000EB1973491C1B786D1E08
:10141000082902F808304FEA091908F1010801DA31
:10142000002DF0DC21688B0602D516E0A8F101083A
:10143000E04505DD02EB080313F8013C302BF5D045
:10144000B8F1000F09DD02EB080313F8013C2E2B65
:1014500003D1090701D4A8F10108002D05DD3E21C3
:1014600002F808106D1E08F10108407C002E02F8F9
:10147000080008F1010804DA2D20764202F808007D
:1014800002E02B2002F808000A214FF47A7086420D
:1014900008F101080BDB96FBF0F3303302F808305B
:1014A00096FBF0F308F1010800FB136601E0642EDF
:1014B0000CDB642096FBF0F3303302F8083096FB27
:1014C000F0F308F1010800FB136601E00A2E06DBC9
:1014D00096FBF1F0303002F8080008F1010896FBA5
:1014E000F1F001FB1060303002F80800A16908F14A
:1014F000010808EB050202EB0A00081AA061207837
:10150000C00602D42046FFF7C1F9216A08AE01EBFC
:101510000A00206204E0D4E9012116F8010B90478B
:10152000BAF1010AF7D22078C00602D52046FFF7AB
:10153000ADF96E4609E016F8010B3E280FD0D4E94C
:1015400001219047206A401C2062B8F10108F2D2C4
:101550002046FFF7B1F909B0032000F00FB8206A68
:101560002844206203E0D4E90121302090476D1E19
:10157000EBD3F8E7017B000002FCFFFF30BCBDE8C5
:10158000C08F10B5436913B1AFF3008001E0FFF7DE
:10159000B6F9012010BD127800F124010A70002272
:1015A0004A700122EDE711684FF0FF32E9E710B50C
:1015B000436913B1AFF3008001E0FFF75DFA01204A
:1015C00010BD128800F1240182840022C28401220D
:1015D000EDE711684FF0FF32E9E73A2800D23038E2
:1015E00020F02002412A01D3A2F13700884201D322
:1015F0004FF0FF3070472DE9F04116460C46054686
:10160000FFF738F9036893F80101012807D0FF2C90
:1016100012D8185D80B101202C70BDE8F081D3F89C
:1016200007013246214603F20713C7182846BC4675
:10163000BDE8F041002360474FF0FF30EDE775460D
:10164000FFF7C0FBAE4605006946534620F0070091
:10165000854618B020B5FEF763FEBDE820404FF088
:1016600000064FF000074FF000084FF0000BAC46AB
:10167000ACE8C009ACE8C009ACE8C009ACE8C009F6
:1016800021F007018D4670472DE9F0411F460446C1
:1016900003260168072A01F4006004DB08B116A5DF
:1016A00005E016A503E008B115A500E015A521F099
:1016B00010002060A069C01EA0610FB1401EA06193
:1016C0002046FFF7E3F84FB1D4E9012138469047AF
:1016D000206A401C2062C01C206206E0206AFAE7F3
:1016E000D4E9012115F8010B9047761EF8D2204667
:1016F000FFF7E2F8BDE8F0814E414E006E616E00EA
:10170000494E4600696E66002DE9F047814616464F
:101710008AB0354878440DC88DE80D0032487844C9
:10172000801C03AC0DC884E80D0041F69B300844D2
:10173000372190FBF1F290FBF1F5A5F1800501FB5B
:1017400012041B3C02D56442012000E00020DFF8B7
:1017500098A080460027FA44AAF1BE0A0EE0E007EE
:101760000AD03246684607EB470101230AEB8101A4
:1017700006F035FF8DE8070064107F1C002CEED1C9
:10178000194F7F44AE3F19E0E80715D007EB04106E
:101790000DF1180A90E80E008AE80E00C068F042C9
:1017A00001D1981908903246012306A903A806F032
:1017B00016FF03AB83E807006D10641C002DE3D116
:1017C0004FF0010332466946B8F1000F03A802D07A
:1017D00006F0F0FE01E006F002FFC9E90001C9F8D9
:1017E00008200AB0BDE8F0870478000010B5044670
:1017F000AFF300802046BDE81040FEF77CBD00003E
:1018000030B44FF0013C50F8042B51F8043BCCFAB3
:1018100052F4D51A20D1FCB950F8042B51F8043BEE
:10182000CCFA52F4D51A17D1B4B950F8042B51F8A8
:10183000043BCCFA52F4D51A0ED16CB950F8042BF3
:1018400051F8043BCCFA52F4D51A05D1002CDAD069
:1018500030BC4FF00000704729BAB1FA81F111F0A5
:101860001801D1F120008440F2D1CA40CB4012F0DF
:10187000FF0213F0FF0330BCD01A70470149182053
:10188000ABBEFEE72600020070470000FEE770478F
:10189000EFF3108072B600BFFEE7014690F8250016
:1018A000022815D10868D1E910C3026822F00E029F
:1018B0000260026822F00102026003F01C000122B3
:1018C00002FA00F0CCF8040081F82520002002E0A4
:1018D0000420C8630120002281F82420704790F87A
:1018E0002510022923D180B50168D0F838E0D0E96D
:1018F00010C30A68BEF1000F22F00E020A600A68E7
:1019000022F001020A6003F01C014FF0010202FA0A
:1019100001F1CCF804104FF0000180F8252080F888
:10192000241001D0F0470021BDE8804002E00421EE
:10193000C163012108467047B0B5044600F0E8F8DD
:10194000054640F22000C2F200000078611C18BF7A
:10195000044400BF00F0DCF8401BA042FAD3B0BD45
:101960002DE9F04F82B00D68002D00F0C58000F128
:101970003847860546EA972741F20006C4F6000676
:10198000072240F2004EB04208BF0422C4F2010E0A
:10199000042F38BF3A464FF0000C012400270026E0
:1019A000009200BF04FA06FB15EA0B0800F09A80CB
:1019B000D1F804A003230AF003056A1EBB40012AE4
:1019C0006FEA030910D88268CB6802EA0902BB40BB
:1019D0001A4382604268CAF3001322EA0B02B34042
:1019E0001A43426004E000BF032D01D103251FE02C
:1019F000C2688B6802EA0902BB401A43022DC2602A
:101A000016D16FF0030202EA560202440CF01C05E4
:101A10000F23D2F820A003FA05FB0B692AEA0B0A70
:101A2000AB4043EA0A031362D1F804A00AF00305AD
:101A3000026805FA07F302EA09021A431AF4403F62
:101A400002604FD041F26003C4F202031A684FF6FD
:101A5000084A42F001021A601A68CFF6FF7A02F0D3
:101A600001020192019A26F00302724452F80A9090
:101A70000CF00C050F23009CAB4029EA030304FA89
:101A800005F52B4342F80A30DEF808204B6842EA9D
:101A9000080540F20C49DC0258BF22EA0805CEF8DE
:101AA0000850C4F20109D9F800209D0242EA080456
:101AB00058BF22EA0804C9F80040DEF804209D035C
:101AC00042EA080458BF22EA0804CEF80440DEF8CF
:101AD0000020DB0342EA080458BF22EA0804CEF8DB
:101AE000004001240D68013635FA06F207F10207BD
:101AF0000CF1040C7FF456AF02B000F000B830BC1B
:101B0000BDE8C08F1823002A08BF2823C1507047A2
:101B100043F24440C2F200000068704740F22000E7
:101B200043F24441C2F20000C2F2000100780A68A8
:101B300010440860704780B5032000F088F800204A
:101B400000F007F808B1012080BD00F02CF800205B
:101B500080BDB0B540F22001C2F200010978F9B1B0
:101B6000044640F20000C2F200004FF47A720068AE
:101B7000B2FBF1F1B0FBF1F001F03FFC0F2C4FF0A4
:101B800001050ED868B94FF0FF302146002200252C
:101B900000F032F840F22400C2F20000046000E0DD
:101BA00001252846B0BD82B041F25800C4F20200BF
:101BB000816841F001018160816801F001010191BA
:101BC0000199016841F080510160006800F0805087
:101BD0000090009802B0704700280CD400F01F015C
:101BE000012202FA01F11C2202EAD0004EF2001298
:101BF000CEF200028150704710B54EF60C5CCEF26A
:101C0000000CDCF80030C3F3022E8EF00704042C25
:101C100028BF0424BEF103034FF0FF3E0EFA04F484
:101C200038BF0023A14399400EFA03F39A431143AE
:101C300000F00F0200F160430901043A03F5644328
:101C40006244002848BF02F10C03197010BD4EF623
:101C50000C51CEF200010A684FF6FF031A4060F300
:101C60000A2242F0806040F0FD700860704700007A
:101C700047F2000CC4F2000CDCF80020B0F5007F45
:101C800002F4C0602AD1B0F5007F31D0DCF800004A
:101C9000012262F34A20CCF8000040F20000C2F2B8
:101CA00000000068322358434DF68363C4F21B33AF
:101CB000A0FB030302EB9340002200BFDCF81410EA
:101CC000013842F10003490501D5002BF6D1DCF8BB
:101CD0001400400544BF0320704709E0B0F5806F51
:101CE00006D0DCF80000022161F34A20CCF80000A5
:101CF0000020704747F20000C4F20000006800F4C2
:101D0000C060704741F20002B0F5003FC4F2020229
:101D100010D1D2F8900000F44070B0F5407F1FD091
:101D2000B0F5007F00F02281B0F5807F40F06B813C
:101D30007BE070470146D06800F00300032816D00E
:101D4000022806D0012802D11068800718D4002389
:101D500026E0106842F200434005C0F2F4030CE0B4
:101D600010684DF290018003C0F2030103E1106896
:101D700041F200238003C0F27A0303EAE0730FE02C
:101D80001068000703D4D2F89400000900E010683E
:101D90003C2303EA900048F6CC73C0F600031B58BE
:101DA000B1F5007F4FF0000014DA1F292CDD7F29E8
:101DB00074DC202900F09A804029BAD1D2F888003A
:101DC00000F44050B0F5005F17D0B0F5805F40F0F0
:101DD000E080E1E0B1F5804F2FDBB1F5802F70DAC4
:101DE000B1F5804F00F08C80B1F5004FA1D1D2F851
:101DF0008800400058BF00F02DBB106842F200413F
:101E00004005C0F2F401B6E0012900F08580022906
:101E100000F08E8004297FF48CAFD2F88800C0F3E4
:101E20000110DFE800F0B7B90902D2F890004FF4D2
:101E3000004101EA80307CE7DFE7B1F5007F00F088
:101E40008180B1F5806F00F08780B1F5006F7FF47D
:101E500070AFD2F8880010F4400000F0D680B0F5E2
:101E6000400F00F0F180B0F5000F40F0CC8010681A
:101E7000800144BFD0685FEAC030BED5D068D16869
:101E8000C0F3021000F1010CD068B3FBFCFCC30EE0
:101E9000C1F3062140F0D380D068CCE0802900F067
:101EA0006D80B1F5807F7FF444AFD2F8880000F4F4
:101EB0004030B0F5003FA0D0B0F5803F40F06980E1
:101EC0006AE003D0B1F5002F18BF7047D2F8880040
:101ED000C0F38160DFE800F002627186D2F89800FA
:101EE00046F600418007C0F2DC2144E0D2F88800C9
:101EF000C0F38120DFE800F04E50030295E77CE755
:101F0000D2F8880000F04050B0F1805F00F074809B
:101F1000B0F1405F40D076E0D2F8880000F00300D6
:101F2000DFE800F0043A03027FE766E700F0A7BAB3
:101F3000D2F88800C0F38100DFE800F02C2E030205
:101F400073E75AE7D2F88800C0F38140DFE800F079
:101F5000220E030269E750E7D2F88800C0F301506F
:101F6000DFE800F0180403025FE746E7D2F89400C8
:101F70004FF4FA41800701EAE0707047D2F8880018
:101F800000F44040B0F5004F3FF437AFB0F5804F5C
:101F900002D0C0BB00F05EBA00F086BA1068000143
:101FA00044BF10695FEAC0202DD51069D168C0F325
:101FB0000620C1F3021112690DE01068800144BFD0
:101FC000D0685FEAC0201ED5D068D168C0F3062073
:101FD000C1F30211D26858430131B0FBF1F0C2F3F2
:101FE00041514DE0106880070DD51068000730D4CE
:101FF000D2F8940000092DE01068000144BF106978
:102000005FEAC0102FD4002070471068000144BF61
:1020100010695FEAC0307FF5F0AED0681169C0F397
:10202000021000F1010C1069B3FBFCFCC30EC1F3FC
:10203000062104D110691123800358BF072301FB37
:102040000CF0B0FBF3F070474FF66870C0F21F0061
:10205000704710683C2101EA900048F6CC71C0F648
:102060000001085870471069D168C0F30620C1F319
:102070000211126958430131B0FBF1F0C2F3416122
:10208000022202EB4101B0FBF1F070472DE9F04371
:1020900081B00446407841F20C070007C4F2020701
:1020A0001BD5606C68B1B0F5400F11D0B0F5000FD2
:1020B00040F00A81386840F4803038604FF4000006
:1020C00006E0201D002101F0C9FB814638B9606C93
:1020D000F96F21F440010843F8674FF00009A07838
:1020E000800753D5F86C5FEAC00808D4F86C40F05C
:1020F0008050F864F86C00F080500090009847F22F
:102100000005C4F20005286840F480702860FFF7DD
:10211000FFFC06462868C00507D4FFF7F9FC801BC2
:102120000228F7D94FF0030929E0B9F1000F26D1B1
:10213000D7F8840010F4407017D0A16D884211D0F8
:10214000D7F88400D7F8841020F4407041F480312F
:10215000C7F88410D7F8841021F48031C7F88410B0
:10216000C7F88400C00740F0B280D7F88400A16DA2
:1021700020F4407008434FF00009C7F88400B8F11C
:10218000000F03D4F86C20F08050F8642168C80771
:1021900005D0F86F226A20F003001043F867880723
:1021A00005D5F86F626A20F00C001043F867480705
:1021B00005D5F86FA26A20F030001043F867880652
:1021C00005D5F86FE26A20F440601043F86788058F
:1021D00005D5F86FE26B20F440201043F8674805FE
:1021E00005D5F86F226C20F440101043F8674806BC
:1021F00005D5F86F226B20F440501043F8670806AD
:1022000005D5F86F626B20F440401043F867C805AD
:1022100005D5F86FA26B20F440301043F86708032F
:1022200018D5FA6FA06C22F040620243B0F1806FC3
:10223000FA6707D0B0F1006F0CD1386840F4801015
:10224000386007E0201D012101F008FB216800280B
:1022500018BF8146480318D5FA6FE06C22F040623F
:102260000243B0F1806FFA6707D0B0F1006F0CD174
:10227000386840F48010386007E0201D012101F02B
:10228000EDFA2168002818BF8146480410D5F86F80
:10229000226D20F040501043B2F1805FF86707D103
:1022A000201D022101F0DAFA2168002818BF8146BA
:1022B000080405D5F86F616D20F080400843F86789
:1022C000484601B0BDE8F0834FF0010907E7FFF78A
:1022D0001FFC064641F288354FF00309D7F8840009
:1022E00080073FF542AFFFF713FC801BA842F5D9EA
:1022F00045E700002DE9F04381B0002800F0A680FA
:1023000042F20008C4F202080446D8F800000D4664
:1023100000F0070088420DD2D8F8000020F0070036
:102320002843C8F80000D8F8000000F00700A842D1
:1023300040F08C80206841F20809C107C4F202090C
:1023400034D0606840B102280BD003280ED159F870
:10235000081C89010ED479E059F8081C890709D4B2
:1023600074E059F8081C890304D46FE059F8081C7C
:1023700049056BD5D9F8001021F003010843C9F8CD
:102380000000FFF7C5FB064641F28837D9F8000088
:10239000616800F00C00B0EB810F06D0FFF7B8FBCE
:1023A000801BB842F2D9032051E02068810707D58D
:1023B000D9F80010A26821F0F0011143C9F800100B
:1023C000D8F8001001F00701A9420CD9D8F8001084
:1023D00021F007012943C8F80010D8F8001001F0D7
:1023E0000701A94232D1410707D5D9F80010E268A8
:1023F00021F4E0611143C9F80010000708D5D9F8AD
:102400000000216920F4605040EAC100C9F80000D2
:1024100000F04AF8D9F8001048F63472C1F30311FD
:10242000C0F60002515C40F2000201F01F0120FAE8
:1024300001F140F22400C2F200000068C2F2000282
:10244000116001B0BDE8F043FFF783BB012001B08C
:10245000BDE8F08340F2000041F20801C2F2000042
:10246000C4F202010068096848F64472C1F302210F
:10247000C0F60002515C01F01F01C840704740F2F5
:10248000000041F20801C2F20000C4F2020100683B
:10249000096848F64472C1F3C221C0F60002515CDB
:1024A00001F01F01C840704741F20001C4F202016F
:1024B000886810F00C02C86805D00C2A27D100F0FB
:1024C0000300012823D10868000703D4D1F8940041
:1024D000000A01E00868000948F6CC7300F00F001C
:1024E000C0F6000353F82030002A184618BF002019
:1024F0000C2A18BF7047C86800F0030002280FD0EC
:10250000032804BF41F20023C0F27A030CE0042A3E
:102510001DD0082A20D141F20020C0F27A00704775
:1025200042F20043C0F2F403C868CA68C0F3021064
:10253000C2F30622C96801305A43B2FBF0F0C1F37E
:102540004161022202EB4101B0FBF1F0704742F21F
:102550000040C0F2F400704700200023C8E70000EC
:1025600060B32DE9F04381B041F200060446C4F2A5
:102570000206B068F168227800F00C08D00601F07D
:1025800003071DD42078C00751D0B8F1080F47D0F9
:10259000B8F10C0F08BF032F42D06068B0F5803F40
:1025A00007D0B0F5A02F40F04182306840F4802081
:1025B0003060306840F48030306040E20120704785
:1025C000B8F1000F1CD0B8F10C0F08BF012F17D0C5
:1025D000A1693068002900F08E8140F00100306070
:1025E000FFF796FA054600BF3068800700F1968134
:1025F000FFF78EFA401B02284FF00300F4D9A6E241
:102600003068800703D5A069002800F00D82206A99
:102610003168090700F10B81D6F89410090907E128
:102620003068800303D56068002800F0FD812078C1
:1026300080072CD5B8F1040F1BD0B8F10C0F08BFE0
:10264000022F16D0E1683068002900F0078240F4BC
:1026500080703060FFF75CFA054600BF30684005C7
:102660000ED4FFF755FA401B02284FF00300F5D9AE
:102670006DE23068400503D5E068002800F0D481A1
:102680007068216920F0F85040EA0160706020789D
:10269000000760D42078400774D42078800600F1C9
:1026A000AB80A06A002800F05182022840F04881E7
:1026B000F068E16A00F003028A4240F06581226B13
:1026C0006FF00F0300F0700103EB0212914240F033
:1026D0005B81616B00F4FE42B2EB012F40F054814C
:1026E000A16B00F07842B2EBC16F40F04D81E26B1C
:1026F0000023CFF6E07303EA025200F4C001A2F512
:102700000012914240F04081216C4FF07E4202EA7B
:10271000016100F0C06001F17E41884240F03481E7
:102720003068800100F11282306840F080703060C3
:10273000F06840F08070F060FFF7EAF90446306816
:10274000800100F10382FFF7E3F9001B02284FF03C
:102750000300F4D9FBE16169D6F89400002900F088
:10276000B58040F00100C6F89400FFF7D1F90546A6
:10277000D6F8940080078DD4FFF7CAF9401B0228D1
:10278000F6D94AE1B06D5FEAC00908D4B06D40F0F7
:102790008050B065B06D00F080500090009847F216
:1027A0000007C4F200073868C00512D4386840F446
:1027B00080703860FFF7ACF9054600BF3868C00587
:1027C00007D4FFF7A5F9401B02284FF00300F5D905
:1027D000BDE1A068012808D0052840F00281D6F8A4
:1027E000900040F00400C6F89000D6F8900040F049
:1027F0000100C6F8900002E1616AD6F8980000294D
:1028000000F0DB8040F00100C6F89800FFF780F987
:10281000054600BFD6F8980080073FF542AFFFF7A6
:1028200077F9401B02284FF00300F3D98FE131689C
:1028300001F0F001884216D901F0ADF8002840F00F
:10284000F380306840F0080030603068D4E9071247
:1028500020F0F00010433060706820F47F4040EAC0
:102860000120706014E03168B8F1000F41F00801F8
:102870003160316821F0F00141EA00013160716896
:10288000E26921F47F4141EA0221716000F0C780D2
:10289000FFF70AFEB16848F63472C1F30311C0F6BF
:1028A0000002515C40F2000201F01F0120FA01F128
:1028B00040F22400C2F200000068C2F2000211607F
:1028C000FFF747F9002840F042815BE620F0010065
:1028D000C6F89400FFF71CF9054600BFD6F894002F
:1028E00080077FF5D7AEFFF713F9401B02284FF0A2
:1028F0000300F3D92BE120F001003060FFF708F965
:10290000054600BF306880077FF53CAEFFF700F951
:10291000401B02284FF00300F4D918E1306840F062
:10292000080030603068D4E9071220F0F00010434E
:102930003060706820F47F4040EA0120706021E63A
:10294000B8F10C0F70D0306820F0807030603068C3
:10295000000103D4F06820F00300F060F0684FF647
:10296000FF71CFF6EE610840F060FFF7D1F8044642
:102970003068800140F1EA80FFF7CAF8001B0328A5
:102980004FF00300F4D3E2E0B8F10C0F4CD0306804
:10299000400149D4306820F080703060FFF7B8F80B
:1029A00005463068800140F19480FFF7B1F8401B84
:1029B00002284FF00300F4D9C9E020F00100C6F866
:1029C0009800FFF7A5F80546D6F8980080077FF530
:1029D00068AEFFF79DF8401B02284FF00300F3D9C3
:1029E000B5E0D6F89010002821F00101C6F890104B
:1029F000D6F8901021F00401C6F8901040D0FFF7EF
:102A000087F8054641F28837D6F89000800748D409
:102A1000FFF77EF8401BB842F6D9032097E000F09C
:102A2000BAFF00283FF434AF012090E0316821F470
:102A300080313160316821F480213160D0B3FFF7FB
:102A400067F80546306880033FF5F1ADFFF760F8A1
:102A5000401B64284FF00300F4D978E020F4807024
:102A60003060FFF755F80546306840057FF50FAE3A
:102A7000FFF74EF8401B02284FF00300F4D966E040
:102A8000FFF746F8054641F28837D6F890008007F0
:102A900007D5FFF73DF8401BB8424FF00300F4D9CB
:102AA00055E0B9F1000F3FF5F8ADB06D20F0805062
:102AB000B065F2E5FFF72CF80546306880037FF536
:102AC000B6ADFFF725F8401B64284FF00300F4D99A
:102AD0003DE0F06848F28C01C0F29D1104F12C0732
:102AE00000EA010C8ECF6FF00F00D4E90F5400EB19
:102AF00002100022CFF6E07241EA0C0102EA055210
:102B00000843A2F500124FF07E4540EA032005EA93
:102B10000465104305F17E4540EAC7602843F06034
:102B2000306840F080703060F06840F08070F06095
:102B3000FEF7EEFF04463068800107D4FEF7E8FF99
:102B4000001B02284FF00300F5D900E0002001B07F
:102B5000BDE8F08380B5D0E9193ED0F844C09A0FA3
:102B60000A70C3F383624A70C3F301628A701A0C5D
:102B7000CA701A0A0A714FEA1E524B71CA80CEF30C
:102B800003420A72CEF3C0324A72CEF380328A72A6
:102B9000CEF34032CA72CEF300320A730022BCF187
:102BA000010F4A7335D0BCF1000F40F0858040F62C
:102BB000FC72C36E02EA8E0242EA93720A61C26E2E
:102BC000C2F3C2630B75C2F302634B75C2F3425387
:102BD0008B75C2F38243CB75C2F3C2330B76D1F847
:102BE00010C00B7E0CF1010C03F0070302330CFA4A
:102BF00003FCC0F854C00B7A03F00F0E012303FA54
:102C00000EF383655B0A03FB0CF3C3654FF400739B
:102C100011E0B0F86E200EF03F0342EA03420A6171
:102C20000A694FF4806303EB82224FF40073C0E91A
:102C30001523C265C26E0366C2F380334B76C2F3BE
:102C4000C61302F07F028B76CA76006FC20F0A7736
:102C5000C0F341724A77C0F382628A77C0F383522D
:102C6000CA77C0F3405281F820200022C0F300430D
:102C700081F8212081F82230C0F3C03381F823305D
:102C8000C0F3803381F82430C0F3403381F825301D
:102C9000C0F3003381F82630C0F3812381F8273058
:102CA000C0F30123C0B2400881F8283081F8290020
:102CB000012081F82A000CE0016840F2FF52C0F2C6
:102CC00040028A63816B012241F08051816380F868
:102CD0003420104680BD10B5016D0446006809041B
:102CE00000F02AFF20B1A16B0843A063002010BDB3
:102CF0002068002101F0DBF8C0F3432010BDD8B1FB
:102D000010B5044690F8340020B900202077204602
:102D100000F037F9032084F83400204600F00EF864
:102D200000284FF0010018BF10BD0021A1632163EE
:102D300084F83400002010BD01207047F0B58FB03A
:102D400004464FF40020FEF7DDFFC0B348F65931CA
:102D50000546C009C0F24F11A0FB01016FF001024E
:102D60000F09206802EB11110026029100210022B8
:102D700000230096019601F09DF82068416821F437
:102D80008071416001F0ACF82068B5FBF7F242F2C7
:102D900010134168C0F20103B3FBF2F241F48071F9
:102DA0004160501CFEF7C8FD0496206800F05EFEEE
:102DB00070B1012584F83450A16B084304E001256B
:102DC0004FF0006084F83450A06328460FB0F0BD87
:102DD000206800F06FFE50B120680021A16400F06F
:102DE00045FE0028E5D1A06C012802D009E00120B1
:102DF000A0642068002100F013FE10B14FF0805055
:102E0000D7E704984FF6FE76B0421FD80025CCF2E3
:102E1000101500BF2068002100F002FE0028C8D174
:102E20002068294600F008FE0028E7D1206800212C
:102E300001F03DF80499013104910499B14202D89E
:102E4000B0F1FF3FE6DCC0F3807000E000200499A1
:102E50004FF6FF72914202D34FF08070A9E7606491
:102E600020680125ADF80E5001F01DF888B1606CA6
:102E7000032811D12068042101F019F8000DE06445
:102E800004A92046FFF766FE002853D04FF080507B
:102E900090E74FF080608DE7206800F03AFE002850
:102EA0007FF488AF2068002101F001F82168606795
:102EB0000846042100F0FBFF2168A06708460821AE
:102EC00000F0F5FF2168E06708460C2100F0EFFFF5
:102ED000616CC4F880000329CCD020680DF10E018C
:102EE00000F036FE00287FF465AF606C0328C1D087
:102EF000BDF80E1020682165090400F014FE0028BA
:102F00007FF458AF2068002100F0D1FF216860668F
:102F10000846042100F0CBFF2168A066084608217E
:102F200000F0C5FF2168E06608460C2100F0BFFFF5
:102F300020679FE7216D20680A04002300F0DDFD73
:102F400000287FF437AF94E88F00D4E90565CDE918
:102F50000076029500F0AEFF20684FF4007100F09B
:102F600078FD60B1216840F2FF52C0F240028A63EE
:102F7000A16B01250843A06384F8345025E70025A0
:102F800023E72DE9F0479EB004460020CDE91C0060
:102F900002A820303C21FDF742FC206842F60001E7
:102FA000C4F2010188425AD14FF4002002904FF040
:102FB000806014900120049008200590072006905E
:102FC0004FF480104FF002094FF00408099002A856
:102FD000CDF80C90CDE90789FFF758F808B1FEF756
:102FE00057FC41F24C00C4F20200416940F6000473
:102FF00041F4806141614169C4F6000401F48061DB
:1030000001910199016819AD41F004010160016865
:103010004FF0000A01F004010191019901680326B3
:1030200041F00801016000680C2700F008000190E1
:1030300001984FF48850CDE9190920462946CDF86A
:103040006CA01C961D97FEF78BFC19A880E8000762
:1030500004F580602946CDE91C67FEF781FC1EB0AF
:10306000BDE8F0872DE9F04786B09A4616460D4632
:103070000446FEF74DFD7DB1804694F834000128EA
:103080000ED10021A163E06D0AEB060282420FD946
:10309000A06B40F0007006E0A06B40F0006002E022
:1030A000A06B40F00050A063012006B0BDE8F0879F
:1030B000032084F83400626C2068012A4FF0FF324C
:1030C000C16218BF760200924FEA4A224FF002090D
:1030D00001929022CDE9039101276946029205975A
:1030E00000F069FDBAF1020F06D3C4F830902068F1
:1030F000314600F0EAFC04E027632068314600F026
:10310000F0FC70B1216840F2FF52C0F240028A63C5
:10311000A16B0843A0630120002184F834002163DF
:10312000C3E7DDF83890019E2068426B416B12F4D2
:10313000957F23D108040AD54EB10027206800F0FE
:10314000D7FEE8510437202FF8D1203E3D44FEF74A
:10315000DFFCA0EB08004845E6D3206840F2FF51B1
:10316000C0F240018163A06B40F00040A0630120E9
:1031700084F8340000202063032096E7BAF1020FA0
:1031800012D311F480710FD0616C03290CD000F0C0
:10319000EBFC0146206839B140F2FF52C0F2400218
:1031A0008263A06B0843B5E7416B09071FD4416BED
:1031B000890725D4416B89062BD42068416B89028D
:1031C00030D57EB300F094FE45F8040B043EFEF7C4
:1031D0009FFCA0EB08004845EFD3206840F2FF5168
:1031E000C0F240018163A06B40F0004092E740F2E2
:1031F000FF51C0F240018163A06B40F0080089E7F5
:1032000040F2FF51C0F240018163A06B40F0020028
:1032100080E740F2FF51C0F240018163A06B40F0B3
:10322000200077E740F23A518163012084F83400AE
:1032300000203AE72DE9F04F87B0984615460E4634
:103240000446FEF765FC7EB1824694F834000128FE
:103250000ED10021A163E06D08EB050282420FD977
:10326000A06B40F0007006E0A06B40F0006002E050
:10327000A06B40F00050A063012007B000F0BAB886
:10328000032084F83400626C2068012A4FF0FF327A
:10329000C16218BF6D0201924FEA48220292902249
:1032A000CDE9032105910121069101A900F083FCDC
:1032B000B8F1020F06D3202020632068294600F0D1
:1032C00062FC05E0102020632068294600F067FCBE
:1032D00070B1216840F2FF52C0F240028A63A16BD4
:1032E0000843A0630120002184F834002163C4E76F
:1032F000DDF84090DDF808B06D4600BF2068426BF5
:10330000416B12F48D7F33D148041CD5BBF1000F03
:1033100019D00027F05DF11900904A7840EA0220A8
:1033200000908A7840EA02400090C97840EA016142
:1033300020680091294600F0DEFD0437202FE9D1F6
:10334000ABF1200B3E44FEF7E3FBA0EB0A0048453F
:10335000D4D3206840F2FF51C0F240018163A06BDA
:10336000A063012084F8340000202063032084E758
:10337000B8F1020F12D311F480710FD0616C0329E0
:103380000CD000F0F1FB0146206839B140F2FF5249
:10339000C0F240028263A06B0843A2E7416B0907B9
:1033A0000DD4416B890713D4416BC90619D440F27F
:1033B0003A518163012084F8340000205DE740F237
:1033C000FF51C0F240018163A06B40F0080088E724
:1033D00040F2FF51C0F240018163A06B40F0020057
:1033E0007FE740F2FF51C0F240018163A06B40F0E3
:1033F000100076E730BCBDE8C08F411E0020B0EB66
:10340000116F1CBF012070474EF21002CEF2000275
:1034100051604EF62351CEF20001F0230B700721CC
:1034200090601160704770477047704770B50168D1
:103430000446C8690E6840F62F028B680240202AB5
:1034400006F0200E0AD1BEF1000F07D0616E0029F0
:1034500000F04B812046BDE87040084740F60F025F
:10346000104209D040F22012C0F2004203F0010CD9
:10347000324012EB0C024FD1226EC5063DD5012A17
:103480003BD116F0100238D0102008628868400640
:1034900000F1A380B4F85800B4F85A10B4F85A20D8
:1034A000002A00F02281884200F01F81401A00BFEC
:1034B000216851E8001F226821F4907142E800134E
:1034C000002BF5D1216851E8021F226821F001018B
:1034D00042E80213002BF5D12021E167002121668B
:1034E000616600BF216851E8001F226821F01001C9
:1034F00042E80013002BF5D1B4E0C20240F1B880DD
:1035000013F4800200F0B4804FF4801220460A6267
:10351000BDE87040FFF788BFC20718BF16F480727D
:1035200007D001220A62D4F8802042F00102C4F8D8
:10353000802082070AD5BCF1000F07D002220A6260
:10354000D4F8802042F00402C4F8802042070AD553
:10355000BCF1000F07D004220A62D4F8802042F0A8
:103560000202C4F8802002070AD55CEA0E0207D0E6
:1035700008220A62D4F8802042F00802C4F88020B1
:1035800002050BD516F0806208D04FF400620A6283
:10359000D4F8802042F02002C4F88020D4F88020A3
:1035A000002A00F0A280800607D5BEF1000F04D0EB
:1035B000626E12B1204690472168D4F88000896875
:1035C00000F0280001F04001401858D12046FFF7D4
:1035D0002CFF0020C4F8800087E0206F01684A6853
:1035E00093B2002B00F08180B4F85800834280F041
:1035F0007C80A4F85A200968890630D4206850E8F5
:10360000000F216820F4807041E80002002AF5D103
:10361000206850E8020F216820F0010041E8020212
:10362000002AF5D1206850E8020F216820F0400000
:1036300041E80202002AF5D12020E0670020206640
:10364000206850E8000F216820F0100041E80002D7
:10365000002AF5D1206FFEF720F9B4F85800B4F82D
:103660005A10401A81B22046BDE87040FFF7DBBE19
:10367000010622D516F080011FD0A16EE7E6204694
:1036800000F032FD2068806840062FD5206850E8A1
:10369000020F216820F0400041E80202002AF5D123
:1036A000206F18B344F2D901C0F600018163FEF720
:1036B00016F9D0B1206F816BCDE6400615D516F016
:1036C000400012D0206850E8000F216820F0400030
:1036D00041E80002002AF5D120200021A067204601
:1036E000A166BDE8704000F0ACB870BD2046BDE8F2
:1036F0007040FFF79ABE10B598B10446806F28B9A4
:10370000002084F87400204600F024F82420A067EC
:103710002068016821F001010160204600F00CFDE5
:1037200008B1012010BD606A10B1204600F03AFCDB
:103730002168486820F490404860886820F02A009A
:103740008860086840F0010220460A60BDE8104029
:1037500000F08EBC10B59EB0044619A81421FDF7E8
:103760005EF802A85C21FDF75AF8206843F60001D4
:10377000C4F2010188422BD048F20001C4F20001DA
:1037800088425CD12020029002A8FEF77FFC08B19D
:10379000FEF77EF841F24C00C4F2020001694624B3
:1037A00041F0010101610169032201F00101019170
:1037B0000199016841F0040101600068082100F0EE
:1037C00004000190019840F60000C4F6000023E0D8
:1037D0000120029002A8FEF759FC08B1FEF758F844
:1037E00041F24C00C4F202004169252441F48041B9
:1037F000416141694FF4C06201F480410191019936
:10380000016841F0010101600068072100F001003A
:10381000019001984FF09040199202221A920022D2
:103820001B920322CDE91C2119A9FEF799F8204625
:1038300002210022FEF7E0F92046FEF7CDF91EB086
:1038400010BD7047FEE743F2B020C2F20000FFF760
:10385000EDBD0000FEE70000FEE77047F0B581B067
:1038600041F20007C4F20207FA680D4691070446C8
:1038700013D0F868216800F0030088424FF001007F
:1038800040F08780002900F08480F8686168C0F308
:103890000210013088420AD11DE02068032808D0B8
:1038A000022838D0012802D13968890708D40120BC
:1038B0006FE0396889035CBF39685FEA4131F6D54A
:1038C000F96862686FF00F0321F0730103EB0212D5
:1038D00011430843F860386820F080603860FEF7D4
:1038E00017F906463868000105D5FEF711F9801B67
:1038F0000228F7D946E0012D11D015BB386948F2EE
:10390000FF01C0F2FF71D4E90223084040EA02201F
:1039100040EAC36026E039684905C8D5D0E748F2D7
:10392000FF013869CFF6FF112269002301F1B4616C
:10393000CFF6E0730840A16803EA0252A2F5001234
:103940000DE0386948F2FF016269CFF6FF114FF0D0
:103950007E430840A16803EA026202F17E4240EA27
:10396000012010433861386840F080603860FEF70D
:10397000CFF805463868000106D4FEF7C9F8401BA9
:103980000228F7D9032004E0A069396908433861A7
:10399000002001B0F0BDB0B582B041F25805C4F2CC
:1039A000020529680446C9000FD4286840F08050F9
:1039B0002860286800F0805001900198FEF79AF97D
:1039C000296821F08051296001E0FEF793F9B0F5F4
:1039D000007F06D1812C08D30120A02C88BF0220B3
:1039E0000DE0802C03D9032009E0002007E0A4F1BA
:1039F0007000B0FA80F04009802C08BF022042F22B
:103A00000001C4F202010A6822F0070202440A60BF
:103A1000096801F00701081A18BF012002B0B0BD03
:103A20008160C36840F2774161F30B03372141F2B3
:103A30008832C36000F0D2B841F0004141F48011F7
:103A40008160C16840F2694262F30B01C16000F01D
:103A500087B98160C3684FF48A6161F30B03102159
:103A600041F28832C36000F0B9B8000000218160E3
:103A7000C1684FF4806262F30B01C16040F2000143
:103A8000C2F20001096844F6D352C1F26202A1FBFE
:103A90000212510A41F288325143C943013124BF15
:103AA0004FF000407047426B1206F7D5C521816385
:103AB000002070474FF4D5718160C1684FF489626E
:103AC00062F30B01C16000F0BDB98160C36840F2D0
:103AD000524161F30B03122141F28832C36000F0BE
:103AE0007DB88160C36840F2514161F30B0311213D
:103AF00041F28832C36000F071B88260C36840F25E
:103B0000474161F30B03072141F28832C36000F0A3
:103B100065B800218160C16840F2C24262F30B01C6
:103B2000C16000F0F1B88160C16840F2C94262F33F
:103B30000B01C16000F0E8B88160C36840F24D41FC
:103B400061F30B030D2141F28832C36000F046B8E7
:103B50000A4600218160C36840F2434161F30B03D0
:103B60000321C36000F022B900218160C36840F2E4
:103B70004C414EF2001261F30B03C0F2F5520C21DE
:103B8000C36000F02BB88160C36840F2594161F313
:103B90000B03192141F28832C36000F01FB8816025
:103BA000C3684FF48B6161F30B03182141F2883233
:103BB000C36000F013B880B5024691E80950506226
:103BC000936208694EEA0C0318434969D36A0843B3
:103BD00023F0F70101430020D16280BD40F20003D1
:103BE000C2F20003D3F800C044F6D353C1F262031B
:103BF000ACFB033C03464FEA5C205043013000BF5E
:103C0000013804BF4FF0004070475A6B12F0450F67
:103C1000F6D012F40062F3D1586B400742BF042083
:103C200098637047586BC0071EBF012098637047A8
:103C3000C52098631869C0B288421CBF0120704734
:103C400058694EF20801CFF6FF51084204BF002028
:103C50007047002854D4410044BF40207047810081
:103C600044BF80207047C10044BF4FF4807070474C
:103C7000010144BF4FF400707047410144BF4FF44D
:103C800080607047C10144BF4FF40060704701027B
:103C900044BF4FF480507047410244BF4FF400507E
:103CA0007047810244BF4FF480407047C10244BF57
:103CB0004FF400407047410344BF4FF40030704759
:103CC000810344BF4FF480207047C10344BF4FF4C9
:103CD00000207047010444BF4FF480107047410436
:103CE00044BF4FF400107047810444BF4FF480007C
:103CF000704700074FF4000058BF4FF48030704702
:103D00004FF000707047000040F20001C2F2000165
:103D1000096844F6D352C1F26202A1FB0212510AB1
:103D200041F288325143C943013110D2426B12F043
:103D3000450FF9D012F40062F6D1416B490709D45E
:103D4000416BC90708D1C5218163002106E04FF00E
:103D5000004103E0042100E001218163084670472F
:103D600040F20001C2F20001096844F6D352C1F2E8
:103D70006202A1FB0212510A41F288325143C94347
:103D800001310ED2426B12F0450FF9D012F40062ED
:103D9000F6D1416B042211F0040108BFC5228263F1
:103DA00001E04FF0004108467047000080B540F246
:103DB0000003C2F20003D3F800C044F6D353C1F2AB
:103DC0006203ACFB033C4FEA5C2C41F288330CFBF2
:103DD00003F36FEA030E00BF1EF1010E20D2D0F8EC
:103DE00034C01CF0450FF7D01CF40063F4D1436BD2
:103DF0005B0718D4436BDB0717D10369DBB28B4237
:103E000017D1C5218163406910F4604F13D041047C
:103E100015D44FF48051000458BF4FF4803106E0B0
:103E20004FF0004103E0042100E0012181630846D6
:103E300080BD0121FBE7000C10800021F7E74FF463
:103E40000051F4E740F20001C2F20001096844F6B3
:103E5000D352C1F26202A1FB0212510A41F288322E
:103E60005143C943013113D2426B12F0450FF9D0CF
:103E700012F40062F6D1416B49070CD4416BC907BB
:103E80000CD1416B49064FF000010AD5402207E0F2
:103E90004FF0004105E00422042101E0012201214C
:103EA000826308467047006800F0030070470844CA
:103EB0004069704710B58446DDE902401943DDF8DA
:103EC00010E02143084340EA0E00DCF804101043E0
:103ED00047F6FF62914301430020CCF8041010BD67
:103EE00080B5032101600220FDF726FD002080BD82
:103EF000D0F880007047096802460020C2F88010A0
:103F00007047704780B5FDF709FEBDE8804001F0BD
:103F100051BB000080B596B005A804302421FCF701
:103F20007EFC4FF40070FDF7A3FE20B1EFF310808C
:103F300072B600BFFEE74FF480710891102109911D
:103F4000012111910A210220129107210590CDE94A
:103F50000F00CDE91310159005A8FEF701FB20B165
:103F6000EFF3108072B600BFFEE70F200090032031
:103F700001900020CDE90200049068460421FEF77C
:103F8000B9F920B1EFF3108072B600BFFEE716B0AA
:103F900080BD4EF68850CEF20000016841F47001F9
:103FA00001607047416ACA0708D00268D0F828C08B
:103FB000536823F4003343EA0C0353608A0708D59F
:103FC0000268D0F82CC0536823F4803343EA0C0312
:103FD00053604A0708D50268D0F830C0536823F40C
:103FE000802343EA0C0353600A0708D50268D0F81F
:103FF00034C0536823F4004343EA0C035360CA06F9
:1040000008D50268D0F838C0936823F4805343EA97
:104010000C0393608A0608D50268D0F83CC0936808
:1040200023F4005343EA0C03936080B54A0614D589
:104030000268D0F840C05368BCF5801F23F4801399
:1040400043EA0C03536008D1D2F804C0D0F844E02E
:104050002CF4C00343EA0E035360090658BF80BD29
:104060000168806C4A6822F400221043486080BDD9
:10407000B0B582B004460020C4F88000FDF748FDCA
:10408000216805460A6812070CD56FF07E4C204661
:104090004FF4001100222B46CDF800C000F04CF97F
:1040A00078B92168086840070DD56FF07E4C20462E
:1040B0004FF4800100222B46CDF800C000F03CF9FF
:1040C00008B1032006E02020A067E06700202066FA
:1040D00084F8740002B0B0BD806A0021A0F85A10C4
:1040E000A0F85210FFF7A1B9016851E8001F02685B
:1040F00021F4907142E80013002BF5D1016851E8DA
:10410000021F026821F0010142E80213002BF5D1E1
:10411000016E01290AD100BF016851E8001F026841
:1041200021F0100142E80013002BF5D12021C167D6
:104130000021016641667047B0B5054605F10804E7
:104140001ECC0068194341EA0403D5F81CE004685A
:1041500046F6F311CEF6FF712140194341EA0E01F4
:104160000160416848F2000C21F440511143416064
:10417000AA69C4F2000C60451CBF296A0A43816821
:10418000102321F430611143816047F6FF71C4F2BE
:104190000001884212DC44F20041C4F2000188426E
:1041A0001BD044F60001C4F2000188422AD141F23A
:1041B0008801C4F2020109680B091BE0604513D0B5
:1041C00043F60001C4F2010188421BD141F288018B
:1041D000C4F202010B6854A210E041F28801C4F25B
:1041E000020109688B0805E041F28801C4F202016E
:1041F00009688B0A49F23402C0F6000203F0030199
:1042000052F82130604542F20040C0F2F40011D073
:10421000BEF5004F1DD1082B4FF0010100F27E804A
:10422000DFE803F00547507C4A7C7C7C4E00FEF7BB
:1042300011F943E0082B4FF0010100F26F80DFE835
:1042400003F0056D1C6D166D6D6D1A00FEF702F919
:104250000FE0082B4FF0010160D8DFE803F00546BE
:104260004F5F495F5F5F4D00FEF7F4F842E0FEF7F5
:104270001BF910B94FE04FF400406A6802EB4201AD
:1042800088424FF0010149D31303984246D8010EEA
:10429000000210EB520041F100010023FCF752F83C
:1042A0004FF60052A0F54071C0F20F02914230D398
:1042B00033E0FEF7E4F801E0FEF7F6F810B92AE083
:1042C0004FF4004069684A0802EB4000B0FBF1F08F
:1042D0004FF6EF72A0F1100191421ED84FF6F07127
:1042E0000140C0F34200084413E0FEF7C8F801E0C3
:1042F000FEF7DAF810B90EE04FF4004069684FF6A7
:10430000EF7200EB5100B0FBF1F0A0F1100191420F
:1043100003D82968C860002100E001210022084676
:104320006A66AA66B0BD00BF01000000040000007C
:1043300002000000080000002DE9F04381B00446AF
:1043400000681546C2690E461140891BB1FA81F119
:104350004909A9421ED1DDF82080994608F10107DC
:1043600087B1FDF7D5FBB8F1000F15D0A0EB090020
:10437000404511D820680168490744BFC1695FEA18
:10438000015122D4C1693140891BB1FA81F1490937
:10439000A942E5D000203AE0206850E8000F2168EB
:1043A00020F4D07041E80002002AF5D1206850E8DE
:1043B000020F216820F0010041E80202002AF5D135
:1043C0002020A06704F17C001BE04FF40061016233
:1043D000206850E8000F216820F4D07041E8000206
:1043E000002AF5D1206850E8020F216820F0010072
:1043F00041E80202002AF5D12020A067E06704F11D
:10440000800020210160002084F87400032001B0A6
:10441000BDE8F08343F2B830C2F20000FFF706B8FF
:10442000FEE770470020704770B540F20404C2F206
:1044300000042568A54208BF70BD002635F8080CA9
:1044400040B335F8061C35F8080CE9B135F8061C00
:10445000884217D101F0A4F855F8041C35F8142C43
:10446000401A904216D955F8103C7BB135F8081C1B
:1044700055F81C0C55F80C2C984700280ED455F80C
:10448000181C11E035F8080C25F8060C01F088F826
:1044900045F8040C2D68A542D0D10CE035F8081C75
:1044A00055F8180C8842F1D155F81C0CFCF795F919
:1044B00025F8086CEAE770BD2DE9F04F85B0044699
:1044C000C0699346C27A4F0A002A4FEA532600F089
:1044D0008580B3F5007F0193C0F096804FF0000A0D
:1044E00040F6FF780120012E98BF0646CDE902670D
:1044F000D4F81C9099F80B00002865D0206C99F82E
:104500000A10062899F809000AEB07054FF0000287
:1045100018BF6D0201F04CF8204651212A460023B5
:1045200000F07AF899F8092099F80A100546104623
:10453000012201F03DF8002D66D1E069FF218DF8E0
:1045400012100DF1120101225F460BEB4A2B01F014
:1045500095F899F8090099F80A100022002601F050
:1045600027F8E5692846FF2101F0A6F8FE2803D0C8
:10457000464506F10106F5D3FE283ED14FF40076FC
:104580002846FF21013E01F097F831040BF8010B9A
:10459000F6D12846FF2101F08FF82846FF2101F0CF
:1045A0008BF899F8090099F80A10012201F000F837
:1045B000E069FF218DF813100DF11301012201F0C4
:1045C0005DF8BB46DDE902670AF1010AB2458FD109
:1045D000019940F2FF1021EA000017E000781C4624
:1045E00059463A46334601F037F8B0F1FF3F0BDD4C
:1045F00040F2FF1024EA000008E099F8090099F859
:104600000A10012200F0D4FF4FF0FF3005B000F097
:1046100000B830BCBDE8C08F2DE9F04385B0C56956
:10462000994617460446884600F0BAFFE4690646F4
:104630002046FF2101F040F8FF2806D000F0B0FF2F
:10464000801BB0F5FA7FF3D92CE0380E8DF80F00FF
:10465000380C8DF81000380A8DF811000DF10E019C
:10466000284606228DF80E808DF812708DF8139072
:1046700001F004F8002100BF0C462846FF2101F09C
:104680001BF8FF2803D1C92C04F10101F4D3C92C74
:104690000AD307A70AA114A20220BE23CDE90078FD
:1046A00001F076F94FF0FF3005B0BDE8F08300BFB0
:1046B000636D642564206572722E2E0D0A00000061
:1046C0002E2E2F2E2E2F2E2E2F426162794F532FFA
:1046D000626F732F647269766572732F625F6472A2
:1046E000765F73642E6300005F6253445F53656EB0
:1046F00064436D64000000002DE9F04F87B005466B
:10470000C0691F46C37A90464A0A002B4FEA5723D6
:1047100000F0A180B7F5007F0592C0F0AE80194689
:104720004FF0000A0DF119064FF6FC7B0120012B1A
:1047300098BF01460397CDE90118D5F81C9099F868
:104740000B00002800F08180286C059906280AEBF0
:10475000010499F8090099F80A104FF0000218BFF7
:10476000640200F025FF2846582122460023FFF767
:1047700053FF99F8092099F80A10044610460122BF
:1047800000F016FF002C78D108EB4A200490E8696D
:10479000FF2706A901228DF8187000F06FFF99F825
:1047A000090099F80A100022002400F001FFD5F852
:1047B0001C808DF8197000BF40463146012200F080
:1047C0005DFF022C04F10104F6D34846FE2100F0FF
:1047D00073FF049948464FF4007200F04FFFEC69F4
:1047E000FF200DF11A078DF81A00204639460122E4
:1047F00000F044FF20463946012200F03FFF4846C2
:10480000FF2100F059FF00F01F00DDE902870528B5
:104810002CD100244846FF2100F04EFF20B95C4512
:1048200004F10104F6D921E099F8090099F80A1079
:10483000012200F0BDFEE869FF218DF81B100DF18B
:104840001B01012200F01AFF01990AF1010A8A45B1
:104850007FF473AF05E00078414600F006FF0028C2
:104860000BD440F2FF1027EA000008E099F8090095
:1048700099F80A10012200F09BFE4FF0FF3007B0BC
:1048800000F000B830BCBDE8C08F000070B540F249
:104890000C04C2F200042568A54208BF70BD43F2B3
:1048A0004046C2F2000600BF55F81C2C5AB115F85C
:1048B000140C012807D1A5F12000306055F8181C10
:1048C000A5F1100090472D68A542EDD170BD000004
:1048D00070B540F21404C2F200042568A54208BF76
:1048E00070BD002655F8180CC0B115F8100C012841
:1048F00014D100F055FE55E90312401A90420DD92B
:1049000055E90610884715F8040C20B100F048FE60
:1049100045F80C0C02E005F8106C00BF2D68A542AC
:10492000E0D170BD012884BF4FF0FF30704710B553
:1049300040F2900100EB4000C2F2000101EB800068
:10494000044614F8011F39B1406800F021F82078BE
:1049500010B10020207010BD4FF0FF3010BD0128B5
:1049600084BF4FF0FF30704780B540F2900300EBFA
:104970004000C2F2000303EB8000406800F042F800
:1049800001466FF0FD00081A18BF084680BD000000
:10499000012884BF4FF0FF30704740F2A80200EBBF
:1049A0000011C2F2000252F82130DBB180B582B0B2
:1049B00049F20801C0F6000151F820C049F2042E66
:1049C00049F20D21C0F6000EC0F6000109A2022036
:1049D00040F22B13CDE900EC00F0DAFF6FF0FE009F
:1049E00002B080BD02EB8100C16801B108476FF0E1
:1049F000FD00704762446576696365436C6F73655B
:104A00000000000080B582B0012802D94FF0FF30CD
:104A100020E040F2A80C00EB001EC2F2000C5CF893
:104A20002E30CBB149F20801C0F6000151F820C088
:104A300049F2042E49F20D21C0F6000EC0F6000125
:104A40000BA2022040F24113CDE900EC00F0A0FFE0
:104A50006FF0FE0002B080BD0CEB8E0003691BB14D
:104A600002B0BDE8804018476FF0FD00F2E700BFDC
:104A70006244657669636543746C00002DE9F04F0C
:104A800085B040F2A80BC2F2000B58468821FBF714
:104A9000C6FE49F2203749F2100A49F2080949F2E4
:104AA0002838C0F60007C0F6000AC0F60009C0F6B4
:104AB000000800BF01260021002200BF1AF80200F2
:104AC0003B7898420DD102EB021559F822207B6801
:104AD0000BEB85004C1CC0E90821984721464BF898
:104AE00025000122F0074FF00006E7D108374745BF
:104AF000E0D149F2103749F22038C0F60007C0F67D
:104B0000000800BF01260021002200BF1AF80200A1
:104B10003B7898420DD102EB021559F822207B68B0
:104B20000BEB85004C1CC0E90821984721464BF847
:104B300025000122F0074FF00006E7D1083747456E
:104B4000E0D149F20D2A49F23E26C0F6000AC0F62D
:104B5000000624A724A5032051463246B923CDE9F7
:104B6000005700F015FF49F2F615002001274FF01D
:104B7000FF380FF28C09C0F6000500BF00EB0012F1
:104B80000BEB8201096A49B15BF8222001AB07C334
:104B9000032051463246C223009509E0CDE900507A
:104BA000CDF80890032051463246BE23CDF80C8044
:104BB00000F0EEFE0120F9074FF00007DED149F2C8
:104BC0000D2149F23E2211A7C0F60001C0F60002F5
:104BD0000320C423009700F0DBFE002005B000F0A6
:104BE00017B800BF646573000D0A6465765F6E6F69
:104BF0000909253136730973746174650D0A000063
:104C00006E6F206472697665000000000D0A000076
:104C100030BCBDE8C08F012884BF0120704740F23E
:104C2000A80100EB0010C2F2000151F8200000289A
:104C300018BF012070470000012884BF4FF0FF30EB
:104C4000704740F2A80200EB0011C2F2000252F8D5
:104C50002130D3B180B582B049F20801C0F600011D
:104C600051F820C049F2042E49F20D21C0F6000E81
:104C7000C0F6000109A20220E723CDE900EC00F014
:104C800087FE6FF0FE0002B080BD02EB81008168FC
:104C900001B108476FF0FD00704700BF62446576C0
:104CA0006963654F70656E0010B582B001284FF0E2
:104CB000FF3C20D8FAB140F2A80E00EB001CC2F273
:104CC000000E5EF82C40CCB149F20801C0F600019C
:104CD00051F8204049F2042C49F20D21C0F6000C95
:104CE000C0F600010CA20220FE23CDE900C400F0B2
:104CF0004FFE6FF0FE0C604602B010BD0EEB8C0054
:104D0000D0F818C0BCF1000F03D002B0BDE81040CD
:104D100060476FF0FD0CEEE76244657669636552AB
:104D20006561640010B582B001284FF0FF3C21D8C6
:104D300002B340F2A80E00EB001CC2F2000E5EF8B7
:104D40002C40D4B149F20801C0F6000151F82040CE
:104D500049F2042C49F20D21C0F6000CC0F6000106
:104D60000DA2022040F21513CDE900C400F010FEA0
:104D70006FF0FE0C604602B010BD0EEB8C00D0F858
:104D800014C0BCF1000F03D002B0BDE81040604772
:104D90006FF0FD0CEEE700BF62446576696365570E
:104DA0007269746500000000B0B549F2003449F240
:104DB0001035C0F60004C0F6000500BF54F8040B1F
:104DC0008047AC42FAD10020B0BD00000128BCBF32
:104DD0004FF0FF30704780B582B041F22801415852
:104DE00099B101F011FC98B149F25B2E49F27021A2
:104DF0008446C0F6000EC0F6000107A2022040F271
:104E0000B723CDE900EC00F0C3FD4FF0FF3000E028
:104E1000002002B080BD00BF624653436C6F7365D3
:104E2000000000000128B1BF4FF0FF30C0680860EB
:104E30000020704770B582B00D4601464FF0FF303C
:104E40002DB314461AB342F26826C2F20006327835
:104E5000012A1CD1B0680078884208D10020CDE931
:104E60000000701C01A96A4601F0DEFB10B14FF092
:104E7000FF300CE00098B26881694089128A019B7A
:104E8000023950434143584329602060002002B05A
:104E900070BD00004FF0FF3C01B343F2AC22C2F200
:104EA00000021368D3B180B543F2A822C2F2000217
:104EB00092F800E0BEF1000F0ED000BF1A788242D7
:104EC00007D0BEF1010E03F11403F7D14FF0FF3C00
:104ED00002E04FF0000C0B60BDE880406046704778
:104EE00043F2AC21C2F200010B684FF0FF31E3B195
:104EF00043F2A822C2F200021278B2B180B5191DA5
:104F000011F8043C834206D0013A01F11401F7D1B3
:104F10004FF0FF3107E00868FFF77DFE01460028EB
:104F200018BF4FF0FF31BDE8804008467047024689
:104F300000284FF0FF3018BF002900D1704743F21E
:104F4000AC2CC2F2000CDCF80030002BF6D180B59E
:104F500043F2A820C2F20000017042F26820C2F2BF
:104F600000004FF48251CCF80020FBF758FC0020E1
:104F7000BDE88040704700000128BCBF4FF0FF3003
:104F8000704780B582B041F22803C35803B3032AA7
:104F900004D0022A06D100F1140201E000F10C0253
:104FA0001268114421EAE17101F0B2FB98B149F2B3
:104FB0005B2E49F270218446C0F6000EC0F6000157
:104FC00006A2022040F2FB23CDE900EC00F0E0FC59
:104FD0004FF0FF3000E0002002B080BD6246534C2D
:104FE0007365656B0000000010B582B042F2682165
:104FF000C2F200010A78012A20D18A68127882421E
:105000001CD140F23022481CC2F2000200214FF4B1
:105010008053002401F03EFC90B149F25B2449F238
:1050200070218446C0F60004C0F6000106A20220EA
:1050300040F22933CDE9004C00F0AAFC4FF0FF34D8
:10504000204602B010BD00BF6246534D6B66730030
:105050002DE9F04182B042F26826C2F200063278B1
:105060000D46012A044610D1B0680078A0420CD148
:1050700049F2702149F29F224FA7C0F60001C0F605
:10508000000202204FF4C5731DE043F2A820C2F2D3
:105090000000017859B143F2AC20C2F20000006870
:1050A0000378A34217D0013900F11400F8D149F276
:1050B000702149F29F223BA7C0F60001C0F6000212
:1050C00002204FF4C873009700F062FC4FF0FF30ED
:1050D00002B0BDE8F0818AB149F2702149F29F2205
:1050E00024A7C0F60001C0F60002022040F29D1382
:1050F000009700F04DFC6FF00100E9E70021374612
:10510000717147F8011F01210278B060317024A14C
:105110003846FBF7ADF906F10C0840463946012246
:1051200001F026FF012D054608BF0D2D02D035B92F
:105130000020CDE72046FFF757FFA0B10D25002046
:1051400049F2642749F2702149F29F223070C0F67B
:105150000007C0F60001C0F6000202204FF4DA7327
:10516000CDE90075B0E7711C4046012201F000FF57
:105170000546DCE7546865206D6178696D756D20C2
:105180006E756D626572206F66206D6F756E7473DB
:1051900020697320726561636865640D0A00000010
:1051A00025643A00696E76616C696420696E646595
:1051B000782E2E2E0D0A0000616C726561647920D4
:1051C0006D6F756E7465642E2E2E0D0A0000000042
:1051D000F0B583B0044600284FF0FF3075D00D467F
:1051E000002972D0164602A928460A22FBF759FA6E
:1051F000029909783A293CD100283AD4B0F5807F49
:1052000037DA42F26827C2F200073978012948D11B
:10521000B968C0B20978814243D170074FF00C02DF
:105220004FF0030006F0080102EA960258BF06F0AC
:10523000030042EA41010A1870062046294648BF89
:1052400042F0300201F0CCFE002840D049F25B274A
:1052500049F2702149F297220646C0F60007C0F6CF
:105260000001C0F60002022040F23523CDE90076AD
:1052700027E049F2702449F29725C0F60004C0F6F1
:10528000000515A7022021462A4640F20723009771
:1052900000F07EFB15A7022021462A464FF4027338
:1052A0000EE049F24A2749F2702149F29722C0F6EE
:1052B0000007C0F60001C0F60002022040F20E23F3
:1052C000009700F065FB4FF0FF3003B0F0BD41F2F6
:1052D000280027502046F8E77061746820696E76D0
:1052E000616C69642E2E2E0D0A0000005468652042
:1052F0007269676874206578616D706C653A202208
:10530000303A626162796F732E7478742220223190
:105310003A626162796F732E74787422202E2E2E79
:105320000D0A0000F0B583B09AB30D4643F2A821F0
:10533000C2F20001097861B3144643F2AC22C2F212
:105340000002126802F1080717F8082C824204D004
:10535000013907F11407F7D11BE07868A84218D982
:1053600057F8040C022100F0A5FC002816D4398956
:1053700006463868B4FBF1F12844CDE9010101AAE1
:1053800030460021FFF7EBFA04463046FFF7CAFA31
:1053900001E04FF0FF34204603B0F0BD6FF0010490
:1053A000F9E700002DE9F04381B00E464FF0FF31E0
:1053B000E2B31C46D3B343F2A821C2F2000109783C
:1053C00091B3154643F2AC22C2F20002126802F118
:1053D000080700BF17F8082C824204D0013907F1F2
:1053E0001407F7D120E0D7F80490B1451CD957F83D
:1053F000040C022100F05EFC00281BD439688046B2
:10540000A9EB0600A04238BF04463144404600F0F4
:1054100043FB40462946224600F09BFC044640469A
:10542000FFF780FA204602E04FF0FF31084601B056
:10543000BDE8F0836FF00101F8E700002DE9F043CB
:1054400081B00E464FF0FF31E2B31C46D3B343F2B6
:10545000A821C2F20001097891B3154643F2AC22AB
:10546000C2F20002126802F1080700BF17F8082C08
:10547000824204D0013907F11407F7D120E0D7F8B0
:105480000490B1451CD957F8040C022100F012FC1D
:1054900000281BD439688046A9EB0600A04238BF1B
:1054A00004463144404600F0F7FA40462946224679
:1054B00000F04EFD04464046FFF734FA204602E075
:1054C0004FF0FF31084601B0BDE8F0836FF00101F5
:1054D000F8E7000080B584B0844600200390BCF15A
:1054E000010F4FF0FF3020DBF9B1F2B141F228009B
:1054F0005CF80000A8B103AB604601F083FE98B1F0
:1055000049F25B2E49F270218446C0F6000EC0F6C7
:10551000000107A202204FF42673CDE900EC00F051
:1055200037FA4FF0FF3000E0039804B080BD00BFB1
:10553000624653526561640080B584B084460020A1
:105540000390BCF1010F4FF0FF3020DBF9B1F2B155
:1055500041F228005CF80000A8B103AB604601F0FE
:105560007BFF98B149F25B2E49F270218446C0F668
:10557000000EC0F6000107A202204FF41E73CDE911
:1055800000EC00F005FA4FF0FF3000E0039804B0A3
:1055900080BD00BF62465357726974650000000009
:1055A00041F23020C2F200000068704700F086BA75
:1055B00000F097BA41F23020C2F2000001680131D8
:1055C0000160006800B1704741F23420C2F200006F
:1055D0000168013101607047F0B583B000F0F3F865
:1055E00040F21C07C2F200073C6848F2A060C0F21B
:1055F00001006043029000200190009041F23020B1
:10560000C2F200000168019102994A1E002902922B
:10561000FAD10068009000980199401A03F0E9FA65
:105620009FED0B0B02460B4651EC100B03F05AF9A1
:10563000054620460E4603F0DCFA02460B46284695
:10564000314603F0E9FA03F0A7FA386003B0F0BD81
:10565000000000000000594020B919B113B100202A
:1056600000F055BA4FF0FF30704720B919B113B1AF
:10567000002000F05FBA4FF0FF30704770B506466B
:1056800000284FF0FF300FD00D4669B13078144636
:1056900001280AD13CB100BF15F8011B304600F0CB
:1056A0000BF8013CF8D1002070BD30462946224657
:1056B000BDE8704000F066BA2DE9F04F85B078B3D0
:1056C0000C46017801292DD1B0F8019090F807A07F
:1056D000B0F80510B0F8038090F808B056464FEACD
:1056E0001920BAF1000F18BF012603904FEA1820C5
:1056F0000D0ACFB20290384629463246FFF758FFCE
:10570000BBF1000FCDF810B0019611D0BAFA8AF0B3
:105710004FEA501B384629465A46FFF749FF08E032
:1057200000243DE0214605B000F03EB800F056BA36
:10573000B3468BF001064FF0000A5FFA88F85FFA73
:1057400089F900BF029904F080024046FFF730FF5C
:10575000384629463246FFF72BFF03994846FFF7A4
:1057600025FF002818BF0120049940EA44040129BC
:1057700008BFBAF1070F0AD0384629465A46FFF744
:1057800017FFBAF1070F0AF1010ADBD35E46019851
:10579000864205D086F0010238462946FFF708FF09
:1057A000E0B205B000F005B830BCBDE8C04FFFF76F
:1057B000BDBF30BCBDE8C08F11B10AB100F030BA36
:1057C0004FF0FF307047704770B58AB0FFF704FFA5
:1057D00049F2CE1449F2F01549F29D1CC0F60004BE
:1057E000C0F60005C0F6000C032021462A4640F210
:1057F0005113CDF800C000F0CBF849F2D90CC0F637
:10580000000C032021462A464FF4A973CDF800C0AE
:1058100000F0BEF849F23B1CC0F6000C0320214604
:105820002A4640F25313CDF800C000F0B1F849F217
:105830000A1CC0F6000C032021462A464FF4AA7326
:10584000CDF800C000F0A4F849F2A80CC0F6000C96
:10585000032021462A4640F25513CDF800C000F03F
:1058600097F849F26C1CC0F6000C032021462A462A
:105870004FF4AB73CDF800C000F08AF849F2770C12
:10588000C0F6000C032021462A4640F25713CDF8FB
:1058900000C000F07DF80FF2700C032021462A466C
:1058A0004FF4AC73CDF800C000F072F823A008905C
:1058B000012108220C23152026A60FF28C0C4FF094
:1058C000060ECDE90060CDE90233CDE904210320C5
:1058D00021462A4640F25B13CDF818E0CDF81CC0F3
:1058E00000F056F84FF0020C24A6032021462A4669
:1058F0004FF4AE73CDE9006C00F04AF80AB0BDE891
:105900007040FFF7BBB800BF2020202020202020BF
:1059100020202020202020202020202020285F2040
:105920002F20202020202020202020202020202068
:105930002020202020200D0A0000000032323A35BD
:10594000363A3030000000004A756C202037203293
:105950003032340048573A25642E25642E256420C1
:1059600046573A25642E25642E256420434F4D501A
:10597000494C453A25732D25730D0A0064657669F7
:105980006365206E756D6265723A25640D0A0000CC
:10599000032888BF70472DE9F04383B040F23018E8
:1059A000C2F2000804460F4640464FF48071994603
:1059B0001646FAF734FF032C01D100274AE033A042
:1059C00033A1095D055D88F800103A20690788F861
:1059D000010001D4022716E03846FAF79AFEC4B255
:1059E00057FA80F00A2C88BFA0F10A0728BF0A24C2
:1059F00008F1020039462246FAF7AAFE04EB080035
:105A0000E71C20218170A8070FD53046FAF781FEE8
:105A1000044608EB0700E2B23146FAF799FE57FA5E
:105A200084F0471C202108F80010E80712D019A1C3
:105A300001A84A46FAF71CFD002822D4044608EBC8
:105A4000070001A92246FAF783FEE019471C20212E
:105A500008F800100A9A0BAB08EB0700C7F1FF012A
:105A60000093FAF7E7FC00280BD440F23014C2F29E
:105A700000042046FAF74DFE82B200202146FFF7CF
:105A80009BFE03B0BDE8F043704700BF0003070072
:105A9000495745002564000001280CD840F29002C7
:105AA00000EB4000C2F2000202EB8000427812B12B
:105AB0008160002070474FF0FF30704702460B288E
:105AC0004FF000000CD001F0FE03102B08BF704710
:105AD00090021022C4F600021058C84000F00100E5
:105AE00070470B2812D001F0FE03102B08BF70473F
:105AF0000123002A40F218024FEA802008BF4FF429
:105B0000803303FA01F1C4F600021150704780B5EA
:105B100082B043F234304FF0FF3CC2F20000CDF8C7
:105B200000C0FDF79FFA002818BF4FF0FF3002B009
:105B300080BD000070B582B043F234304FF0FF34C6
:105B4000C2F200000094FDF775FBB8B9FFF728FD1D
:105B500043F234350446C2F2000541F2883600BFF4
:105B60002846FDF7B8F8042807D0FFF719FD001BF9
:105B7000B042F5D34FF0FF3400E00024204602B0DD
:105B800070BD0000034600284FF0FF3018BF002909
:105B900000D17047587802281ED848F6FC73C0F62A
:105BA000000353F82000436843F4805343600368C4
:105BB0005B0603D4036843F04003036062B14FF017
:105BC000000C00BF83689B07FCD511F80C300CF16A
:105BD000010C94450373F5D10020704710B1407853
:105BE000022801D90020704748F6FC72C0F6000276
:105BF00052F82000027B426842F480524260026800
:105C0000520603D4026842F04002026082689207A2
:105C1000FCD501738168C907FCD0007B7047000088
:105C20004FF0000C032888BF4FF0010CB0F10803BF
:105C300018BF01231CEA030F4FF0FF3331D181B3AA
:105C4000082804D148F20000C4F2000005E049F23F
:105C50004403C0F6000353F8200010B5AAB140F287
:105C6000010C4FF0000EC0F20B0C6346C4696406D1
:105C700004D4013B022BF9D20FE000BF11F80E3023
:105C80000EF1010E96458362EFD14FF4302100BF33
:105C9000C3695B0607D40139FAD86FF00103BDE888
:105CA00010401846704713460029D8BF6FF0010313
:105CB000F5E70000F0B581B0022945D840F28E0327
:105CC000C2F200031A7840F2900CC2F2000C32B912
:105CD00000228CF801208CF80D2001221A7000257A
:105CE000012300BF05EB45020CEB82025678012E22
:105CF00002D15268824227D00125DA074FF0000313
:105D0000F0D10027012300BF07EB47040CEB84020E
:105D1000154615F8016F2EB10127DA074FF0000381
:105D2000F2D111E00CF82410012129700021C2E900
:105D30000101FEF781FFB0F1FF3F07DCFE3005D027
:105D4000287808B1002028704FF0FF37384601B09E
:105D5000F0BD13460A46014601284FF0FF3027D810
:105D600032B310B501EB410040F29001C2F20001E4
:105D700011F8204044F00204022C15D101EB8004FC
:105D8000607888B154F8081F54F8040CFEF78CFFB3
:105D90006FF0FD01411A18BF0146002906D42068A2
:105DA00008442060084601E04FF0FF30BDE8104095
:105DB000704780B501464B6A45F6B35C49F2120262
:105DC0000020C0F6000C03EB4303C0F6000202EB18
:105DD000830244F2B94E44F2F963C1E9000C01F1C7
:105DE000100C886248630864C0F6000EC0F6000319
:105DF000C1E902008CE80940CA6180BD2DE9F0418B
:105E0000A6B041F23828C2F2000898F800700020CD
:105E1000002F0590049047D005A904AAFFF70AF8BF
:105E2000DDE9041049F26F02800A8E0A3DA1CDE936
:105E3000001049F25401C0F60001C0F60002032030
:105E40006D230296FFF7A4FD06AC20468021FAF7E9
:105E5000E6FC41F23C2049F26701C2F20000C0F6C4
:105E600000010122FFF7B4F901280DDB6FF00301F7
:105E700003220546FFF780F806A928468022FFF78F
:105E800029FB2846FEF7A2FF49F2540149F26F02AE
:105E90002DA6C0F60001C0F6000203207923CDE94B
:105EA0000064FFF775FD28E041F23C2049F26701EC
:105EB000C2F20000C0F600014C22FFF789F9012868
:105EC0001BDB04A90446FEF7ADFF049D49F2540113
:105ED00049F26F020CA6C0F60001C0F600020320D2
:105EE0006223CDE90065FFF753FD0CA12046042293
:105EF000FFF722FB2046FEF769FF87F0010088F8D4
:105F0000000026B0BDE8F08166696C652D302D7308
:105F1000697A653A25642842290D0A00626162792E
:105F2000000000006469736B5B305D2D746F7461F9
:105F30006C3A2564284B422920667265653A2564CF
:105F4000284B42290D0A000025730D0A00000000AD
:105F500013460A46014601284FF0FF3026D82AB3DF
:105F600010B501EB410040F29001C2F2000111F8BE
:105F70002040013C012C15D801EB8004607888B1E9
:105F800054F8081F54F8040CFEF7CCFE6FF0FD0126
:105F9000411A18BF0146002906D420680844206031
:105FA000084601E04FF0FF30BDE8104070470000A8
:105FB00010B504460020E0704FF0FF30206320460B
:105FC00001F012FF08B1042010BDB4F832024AF605
:105FD000552188421CBF032010BD94F83400E838D6
:105FE000032823D8022821D004F16A0000210FF2EF
:105FF000400C00BF435C1CF80120022903D09342EF
:1060000001F10101F6D093420ED004F18600002187
:1060100008A200BF435C545C042903D0A34201F1F1
:106020000101F7D0A34201D1002010BD022010BD14
:106030004641540046415433320000002DE9F047F8
:10604000D0F800A08846064639B13046414601F0F6
:106050001EFC02280FD2012554E0DAF810401CB1D2
:10606000DAF8180084420ED3D14659F8140F0028EC
:1060700047D001242EE00546013023D0DAF818007D
:10608000444685423ED3D14659F8141FC9B344450E
:1060900020D108F10107874228BF02273046394640
:1060A00001F0F5FB054601302CD075B1012D29D04A
:1060B000DAF81040022C0CD3DAF81800844228BF1A
:1060C000444607E04FF0FF351CE044463D46EFB93B
:1060D00000E04446274600BFDAF81800013787423F
:1060E00028BF022701D3022C0BD33046394601F0DA
:1060F000CEFB0546013005D03DB1012D02D0A742AF
:10610000EAD100252846BDE8F0873D46504629469D
:106110004FF0FF3201F084FEB8F1000F05D020B936
:10612000504641462A4601F07BFE28B10125012850
:1061300008BF4FF0FF35E5E7DAE90501CAF810506E
:10614000023988429CBF0138C9F800009AF804005F
:1061500040F001008AF80400D4E700002DE9F04F78
:1061600087B017468A4606AA01211D460646012425
:1061700000F0DAF9002840F0B380DDF818B0082408
:106180004FF63F4001960597E1B2BBFBF1F181422A
:1061900003D364002106F7D1FF2428464FF4805131
:1061A0000295FAF71AFBBBF1400FC0F08B8048F262
:1061B0001F50C5F2EB10ABFB00014809029E049092
:1061C000E0B23F224FF00008039000BF5AF8285079
:1061D0005C46642D049818BF05FB00F4652D28BFAC
:1061E0002C46A518ABEB020928BF4C465D4588BF7D
:1061F0004C46002C66D044F2051CC0F2104CA2FBA9
:106200000C50130C170E111A86F8C831230A00EB34
:10621000510086F8C97186F8CB31230C039F4009E1
:1062200086F8CC31230E150A86F8CD31B0FBF7F392
:1062300086F8C751059DA0EB801103FB170086F877
:10624000C6211144224486F8C251C025B2F1010E84
:1062500001F1010186F8BF0105EA9300D946D34652
:10626000AEFB0CCA40EA010086F8C001AEEB0A00A2
:106270000AEB50004FEA5010B0FBF7F186F8C1313D
:106280004FF0000386F8CA4143F1000401FB1703F5
:10629000A0EB80107044013086F8C33105EA910309
:1062A0001843B8F1020F86F8C40186F8C51109D861
:1062B00044B1DA46CB4608F101084A4506F110061A
:1062C000FFF484AF02994AF65520A1F8FE01019827
:1062D0000022012300F070F90446002818BF0124B1
:1062E000204607B000F000B830BCBDE8C08F000009
:1062F000F0B581B00D46044601F0A6FE08B10120BC
:1063000027E0A169A81E0239884204D2E16A6789A0
:1063100000FB071601E06789002604F134052846D2
:106320004FF480512663FAF758FA6FB1002700BF87
:106330006078F2192946012300F03EF9618928B9F5
:1063400001378F42F4D301E000210027781A18BFEB
:10635000012001B0F0BD2DE9F0410446006900F1D3
:106360002007B7F5001F02D30020A0610FE0A2694B
:106370006AB12568A88980B2B7FBF0F303FB1070FF
:1063800048B1284434302761E061002000E0042057
:10639000C0B2BDE8F0810E466169501CA06129B110
:1063A00068890138184208D00020EAE72889B0EB54
:1063B000571F4FF00000D8D9E3E7204601F067FAF5
:1063C000022801D20220E3E78046013032D0A869DA
:1063D00080450BD2A8F1020102388142C4F8148032
:1063E0001BD2E86A6A8901FB020117E0002EBBD0CC
:1063F00061692046FFF722FE80460130032814D24F
:106400004FF6F871C0F2FF0101EAC00040F20171DD
:10641000C0F2020121FA00F0BAE70021A889A161C7
:10642000B7FBF0F202FB1070ABE728464146FFF7DE
:106430005FFF08B10120ABE7A869CBE7B0B50468FE
:10644000054600F031F858B1B0BD00BFE8690078EA
:1064500068B1E5280BD028460121FFF77CFF68B919
:10646000A969204601F0C0FC0028EFD004E0A9692A
:10647000204601F0B9FC28B10120B0BD042808BFB6
:106480000720B0BDE8692021FAF7A7F9E86905F10E
:10649000200100228B5C835401320B2AFAD10120A7
:1064A000E0700020B0BD0000F0B581B086680568DE
:1064B00004460020206196B16889A98901FB00F794
:1064C000314600BFB7B9204601F0E1F9014601307D
:1064D0001AD0022923D3A8698142F3D31FE0287878
:1064E000032802D3AE6A002EE6D12889B8B1A86A83
:1064F00000260CE0A969B01E0239884206D2E96A7A
:106500006A8900FB021002E0012009E00020C4E9D2
:10651000056020B105F13400E061002000E00220B8
:1065200001B0F0BD00207047B0B582B00D4600212B
:10653000019101A91446FEF7ADFC00280CD4032DEF
:106540000CD0022D0CD0012D0DD10198C168008A0C
:10655000B1FBF0F0206006E0012005E0012001E041
:106560000198008A2080002002B0B0BDF0B581B053
:10657000064600200C460090694630461D461746E8
:10658000FEF788FC00280DD400982246008A00FB04
:1065900007F100FB05F33046FEF704FF042101EA92
:1065A000507000E0012001B0F0BD80B5FEF798FC0E
:1065B000002818BF012080BDF0B581B0064600203C
:1065C0000C460090694630461D461746FEF762FCB1
:1065D000002816D40098008A00FB07F100FB05F2A2
:1065E0003046FEF79FFE00280BD400982246008A12
:1065F00000FB07F100FB05F33046FEF71FFFC00F5D
:1066000000E0012001B0F0BD10B582B0044600F0FA
:10661000D7FE30B901A9204601F038FD08B90020A5
:10662000206002B010BD00002DE9F04786B016468C
:106630008846059005A804A9002201F09FFA0028C9
:1066400063D1049D3560D5E90507B91E884219D983
:1066500095F800C0BCF1010F18D1022600246F4646
:10666000009500BF3846314601F011F920B1411CB8
:1066700041D0012801D140E00134A86901368642A9
:10668000F0D336E0C8F8000000203EE0D5F824A0A2
:1066900005F134090024002646B92846514601F088
:1066A000A3FB40BB95F800C00AF1010ABCF1020F40
:1066B00009EB060106D109880222B1FA81F14909E4
:1066C0000EE000BF88780A784B78C978000240EA6B
:1066D0000140184460F31B22B2FA82F041090422FF
:1066E000A8893244B2FBF0F3013F03FB10260C44AF
:1066F000D2D1002002E0012000E00220C8F80040D2
:1067000029796C6141F00101297106B0BDE8F0877B
:106710002DE9F04182B00D4601A9044601F0B6FC16
:106720000746002840F0A480677C002F40F0A0803E
:10673000E168A94208D2207C800706D5274657F891
:10674000140F0021396007E02946274657F8140F37
:1067500000260D463E60A1B1DDF80480B8F80A10AD
:10676000B8F80C2002FB01F638B1691E0138B1FB04
:10677000F6F1B0FBF6F2914205D2A16849B3A161EE
:1067800006E0002057E071420840A16960612D1ABF
:10679000E9B1B5422CD96069227C3044920760612E
:1067A000204603D401F073F8014603E0FFF746FCEE
:1067B0000146D8B1481C17D0022957D3D8F8180081
:1067C000814253D2AD1BB542A161E4D810E03868D4
:1067D00028E020460021FFF731FC0146013003D0BC
:1067E000012943D0A160CAE7012740E0002100252C
:1067F000B8F80C003B6880B2B5FBF0F202FB105613
:106800005819386076B1D8F818300239023B9942ED
:106810002CD2D8F82C30B8F80A7001FB073129B314
:10682000561800E00026E168884204D9217CE06027
:1068300041F040012174019DA989B0FBF1F202FBF6
:10684000110088B1E26996420ED094F91000B0F1BF
:10685000FF3F11DD687804F128013246012301274A
:10686000FFF784FE18B9E661002701E0022767748C
:10687000384602B0BDE8F081687804F128010123B0
:106880000127FFF799FE0028F1D1207C00F07F005E
:106890002074DFE72DE9F04F95B0002858D01E4650
:1068A00092460022835C551C212B02D33A2B2A46A8
:1068B000F8D13A2B05D100780B27302808BF022DDC
:1068C0004BD140F28800C2F20000006808B10022FB
:1068D00002700FF250650020002918BF0D46FFF727
:1068E00021FEC10736D1400736D46868139048B9F5
:1068F00013AA00200321FFF717FE00281ABF01206A
:1069000013901398411E0022B2EBD13F15D14FF0E6
:10691000553101EA5001401A4FF0333101EA90013C
:1069200020F0CC30084400EB101020F0F0304FF095
:1069300001314843000E022801D3012013900DF1CC
:10694000520200200221FFF7EFFD50B1012704E0C1
:106950000B2702E0032700E00A27384615B000F0B5
:1069600003BBBDF852400127A4F5007080B2B0F51A
:10697000606FF2D845F2555000EA5400201A43F2F5
:10698000333101EA90020840104400EB101000F48B
:10699000706100F00F0000EB11200128DDD895F8A0
:1069A0000180A968A8F101000228A1F101024FF0BD
:1069B000000028BF4FF00108B0EBD23F4FF4007B3E
:1069C00008D162098BB2B3FBF2F707FB1232002A3F
:1069D00008BF8B46E9684FF000094A1E114208BF04
:1069E0008946B1F1807F88BF8146BAF1000F4FF030
:1069F0001107B2D0B442B0D82D7812AA012112905A
:106A00000127FFF791FD0028A7D105F00F01129A89
:106A100007294FF000000F9005D8402A03D33F3AD2
:106A20003F2012920F90802A0C9201D20E2794E7F9
:106A300001F00303022B04D011F0010001D1132750
:106A40008BE70591B9FBF4F1B6FBF4F080290490D3
:106A500028BF80210C9CBDF85200220B0992421ED7
:106A6000139E0892620C0792721E4FEA4B170B920C
:106A700072420A92B7FBF0F24FF0020E022B08BFEF
:106A80004FF0030E0692CDF80CB05FFA8EF3032B95
:106A90008C4626D1079A49F2D027BCF1000F6646F2
:106AA000C0F600070AD10126002137F811309342C1
:106AB00004D8013106294FEA4606F6D1B4FBF6F1B7
:106AC0000A22CFF200028B180022CFF20102934279
:106AD000ACD300EB8101CC1D4FF0030E002220212E
:106AE0002BE0099A49F2C225BCF1000F6646C0F6B8
:106AF00000050AD10126002135F811309A4204D34D
:106B0000013106294FEA4606F6D1B4FBF6F303221B
:106B100003EB4301013102EB510140F6F57504220C
:106B2000AB4288BF02EB4301089AAB4202EB01047F
:106B30004FF0010198BF8E46069A0546B4FBF0F966
:106B40000F980D920F1809FB08730B989C180319E6
:106B50000A985FFA8EF20340032AA3EB040B0CD0D1
:106B6000BBFBF8F303FB18B3002B18BF0123ABEBFF
:106B70000300B0FBF8F09B468144CDF838900F98A5
:106B8000C0EB061020440C9C8442FFF44FAF0D98DC
:106B9000B9460BEB01070E99384401FB0800032AA4
:106BA000A4EB0000B0FBF6F111D14FF6F570814275
:106BB0000DD8BCF1000F4FF00E077FF4CEAE284683
:106BC0007108022E4FF0030EBFF45FAFC5E6022A34
:106BD0003CD14FF6F670814226D3BCFA8CF072009D
:106BE00000214009412A38BF012110EA0103614612
:106BF0004FF0030E18BF710018BF4FF0020E05983A
:106C0000800728463FF541AF002B7FF43EAFBCF133
:106C1000000F4FF00E077FF4A0AE4FF0020E812A56
:106C20001146FFF432AF98E640F6F570814220D865
:106C3000BCF1000F4FF00E077FF48FAE71002846B5
:106C400081294FF0020EFFF420AF86E64FF0FF30AF
:106C500050FA8EF0B0FA80F0012A4FEA50100B90F3
:106C6000CDE9011209D140F6F57081423FF6DEAE62
:106C700003E00020CDE901120B9050462946F9F7B8
:106C8000ACFD0020ABA10A5C0AF8002001300B2803
:106C9000F9D1280A8AF80C008AF80E70380A029F87
:106CA0008AF80F00F81E8AF80B508AF80D608AF8EF
:106CB0001080039918BF08468AF81100000A0E9A3E
:106CC0008AF81200210C4FEA142009D08AF821001A
:106CD000200E8AF820408AF822108AF8230003E068
:106CE0008AF813408AF81400F8208AF815003F202B
:106CF000C0F2FF00CAF818000F98032F8AF81C0092
:106D00004FF00000AAF81D008AF81F004FEA122079
:106D10004FF04E0125D18AF82500100C8AF8260084
:106D2000100E8AF827000220CAF82C000120C0F2B9
:106D30000600CAF8300080208AF840002920C2F2FC
:106D400000108AF846108AF82420CAF842000AF196
:106D5000470000217FA2535C435401311329FAD12B
:106D600016E08AF8170080208AF824002920C2F251
:106D700000108AF82A108AF81620CAF826000AF1AC
:106D80002B0000216EA2535C435401311329FAD128
:106D90004AF655200F9AAAF8FE0100205146012319
:106DA0000127FFF709FC00287FF4D7AD02980BEB11
:106DB0000907032837D10F9C0020A21D514601234B
:106DC000FFF7FAFBBDF852105046F9F706FD45F201
:106DD0005220C4F26110CAF8000047F27220C6F2D5
:106DE0004110CAF8E4010198E21D0138010A8AF84D
:106DF000E8018AF8E911010C000E8AF8EB01022083
:106E0000CAF8EC014AF655208AF8EA11AAF8FE0100
:106E1000002051460123FFF7CFFB621C00205146A2
:106E20000123FFF7C9FBBDF85200049941435046C6
:106E3000F9F7D3FCB8F1000F39D00B980AF101042F
:106E400001384FF0000B0F90029803284FF0F80024
:106E50008AF8000008D14FF0FF3020816060206088
:106E60000F208AF80B0006E04FF6FF70AAF8010029
:106E70000F988AF80300DDF83890049D0020A9459A
:106E800038BF4D4651463A462B46FFF795FB002842
:106E90007FF45CADBDF852105046F9F79EFCB9EB9B
:106EA00005092F44E9D10BF1010BC345CCD1029860
:106EB0000D9C032808BF3446049D0020AC4238BF17
:106EC000254651463A462B46FFF776FB00287FF4CD
:106ED0003DAD641B2F44EFD10598072818D8029BBD
:106EE00012980122022B08BF04220021B1EB104F9F
:106EF00018BF0622032B08BF0C22CDE9100110A9F0
:106F0000002053460127FFF729F900287FF425AD1B
:106F1000002000210022FFF707FB0746002818BFCA
:106F200001271AE507000000000000000000000033
:106F300000000000EBFE904D53444F53352E3000BF
:106F40004E4F204E414D45202020204641542020C8
:106F5000202020004E4F204E414D4520202020462D
:106F6000415433322020200030BCBDE8C08F0000E7
:106F700080B582B0009169B3002300BF11F803E02F
:106F800003F1010CBEF1210F03D3BEF13A0F6346AA
:106F9000F4D1BEF13A0F07D1097830294FF00B0137
:106FA00008BFBCF1020F18D140F2880CC2F2000CED
:106FB000DCF800300BB10021197008B1002101701C
:106FC000CCF8000042B1684601A9002200F0D6FDCD
:106FD000014602E00B2100E00021084602B080BD1E
:106FE0002DE9F04F8DB00C9170B102F03F0A1546BB
:106FF00083460CA86946524600F0C0FD074640B1E2
:107000000020CBF8000000E0092738460DB000F062
:10701000F5B8DDF800800C9901A8CDF8048000F0E7
:107020003BFB9DF92F100746B1F1FF3FD8BF062764
:10703000002818BF07461AF01C0F00F09C80002F94
:1070400000F0A780042F03D101A8FFF7F7F9074646
:107050004AF0080A9FBB1AF0080030D0089898F848
:107060000010458B032905D1417D027D090641EAC7
:1070700002410D440021C4F62161C0F80E10202108
:10708000C1720021418398F80020032A08BF818241
:10709000C161012088F803009DB1D8F8309001A8A3
:1070A0002946002200F056FF07460028A8D1404696
:1070B000494600F099FE0746681EC8F81000002FE8
:1070C0009ED1D8F8301008980AF00802CBE90810D1
:1070D00098F80010458B03294AEAC20105D1427D88
:1070E000037D120642EA03421544CBF80850C669F4
:1070F000CBF80080CBF80C60B8F806000BF128093B
:10710000ABF804008BF81010002748464FF480516C
:107110008BF81170CBF81C70CBF81470F9F75DFB8D
:107120005FEA8A607FF571AF002E3FF46EAFCBF857
:107130001460B8F80A00B8F80C1001FB00F4A6427D
:1071400034D900BF5846294600F0A1FB0546022865
:107150004FF0000038BF01204700681C08BF01271E
:10716000A6EB04060FB9A642ECD8002FCBF81850B6
:107170007FF446AF1CE0002F7FF442AF9DF80A0079
:10718000C10611D45FEA8A719BD510F0010005D1C8
:1071900097E79DF80A0010F0110F01D007272FE79D
:1071A000082000EA450755E7042729E7CBF81850DF
:1071B000B8F80C0081B2B6FBF1F000FB1161C9B167
:1071C000D8F81820A91E023A914215D2D8F82C20DE
:1071D000B8F80A3001FB032171B14218CBF81C202A
:1071E00098F80100494601230127FFF7BFF900285D
:1071F0007FF406AF002708E7022701E730BCBDE8AF
:10720000C08F00002DE9F04F83B0044600200F46E8
:10721000186002A920469A46164600F037FF054638
:10722000002840F0C680657C002D40F0C280207CA4
:10723000C00701D10725BCE0E1686069091AB142C5
:1072400038BF0E46002E00F0AE80DDF808B004F125
:1072500028010191BBF80C10B0FBF1F303FB110204
:10726000002A52D1BBF80A10013911EA030801D0F3
:10727000A0690DE020B1A169204600F008FB00E004
:10728000A0680228C0F09180411C00F09080A061AD
:10729000DBF8181002380239884280F08680DBF86B
:1072A0002C10BBF80A2000FB021000287DD0BBF890
:1072B0000C1000EB08098E4239D2E2694A451DD014
:1072C00094F91000B0F1FF3F0CDC9BF8010001992C
:1072D00001230125FFF770F9002869D1207C00F017
:1072E0007F0020749BF8010001994A460123012583
:1072F000FFF73CF900285BD1BBF80C106069C4F8BB
:107300001C90B0FBF1F202FB1102881AB04228BFB8
:10731000304650B101993B461144024611F8015BD9
:10732000013A03F8015BF9D12EE000202CE0B6FB16
:10733000F1F5394605EB080090429BF8010088BF43
:10734000A2EB08054A462B46FFF710F978BB94F9E3
:107350001000B0F1FF3F13DCE069A0EB0901A94286
:107360000ED2BBF80C0058B101FB0071019A00BFAE
:1073700012F8013B013801F8013BF9D1DDF808B002
:10738000BBF80C00684300BFDAF80010361A01445D
:10739000CAF800106169074408444FF000056061B5
:1073A0007FF458AF05E0002503E0022500E0012549
:1073B0006574284603B000F000B830BCBDE8C08F4B
:1073C00070B582B001A9044600F060FE0646C8B957
:1073D000207C410601D4002614E040B2019DB0F1AA
:1073E000FF3F06DD216A284600F0FEFC68B1012659
:1073F00008E06878E26904F1280101230126FFF71B
:10740000DBF820B3304602B070BD606AC17A41F04B
:107410002001C172A168226841831278032A03D136
:107420000A0C090E02754175E168C1610021C4F6BC
:107430002161C0F81610002141820120E870284621
:1074400000F0C1FD217C01F0BF012174DBE7207C4D
:1074500000F07F002074C5E72DE9F04F83B00446AB
:1074600000200F46186002A920469946164600F0F3
:107470000DFE002840F0E280607C002840F0DE80B5
:10748000207C810701D40720D8E06169CA43B24259
:1074900038BF1646002E00F0C880DDF808B004F1B1
:1074A000280ACDF804A000BFBBF80C00B1FBF0F334
:1074B00003FB1012002A61D1BBF80A00013810EA60
:1074C000030817D121B1A1692046FEF7B7FD03E0FB
:1074D000A068002800F0A680411C00F0AD800028C4
:1074E00000F0A280012800F0A580A168A06109B980
:1074F000A06000BF94F91000B0F1FF3F0DDC9BF8D5
:107500000100E26951460123FFF756F8002840F0D8
:107510009380207C00F07F002074A069DBF81810B5
:1075200002380239884280F08580DBF82C20BBF8D5
:107530000A1000FB0122002A7CD0BBF80C0002EBF1
:10754000080A864241D2E269616952450ED0E2687A
:1075500091420BD29BF80100019952460123FFF79B
:1075600005F8002868D1BBF80C006169B1FBF0F2A6
:10757000C4F81CA002FB1012DDF804A0801AB0426F
:1075800028BF304650B10AEB020102463B4600BF1D
:1075900013F8015B013A01F8015BF9D1217C41F05C
:1075A00080012174D9F80010361A0144C9F800107E
:1075B0006169E268014491420744616188BF0A46FB
:1075C000002EE2607FF470AF2EE0B6FBF0F552467D
:1075D00005EB080088429BF8010088BFA1EB080575
:1075E00039462B46FEF7E8FF30BBE069A0EB0A0105
:1075F000BBF80C00DDF804A0A94211D258B101FB80
:107600000071524611F8013B013802F8013BF9D1F3
:10761000BBF80C0000E00020217C01F07F01217408
:107620006843BFE700214FE7207C40F04000207412
:10763000002003E0022000E00120607403B000F0AD
:1076400000B830BCBDE8C08F70B584B000210446DE
:10765000FEF7AEFC02281CD16D460020294600BF73
:107660002218D2F8FA211030402841F8042BF7D123
:10767000002600BF55F8261021B12046FEF798FCE1
:1076800001E000BF0320022E03D8012806F1010605
:10769000F0D804B070BD00002DE9F04F83B002684F
:1076A00082460D4628785C2801D02F2801D101356B
:1076B000F8E70020CAF808002878202808D280219E
:1076C00050468AF82B1003B000F0D9B8FEF7ECBE94
:1076D00002F1340049F2B3290AF120080292019024
:1076E0004FF02030C0F60009C8F80700C8F80400C1
:1076F000C8F800004FF0000C0823002100206E5C49
:107700000131212EC0F0A580CA18A2EB000E00BFE7
:10771000F2B22E2A2CD05C2A39D02F2A37D07145CC
:1077200025D072B2B2F1FF3F06DC48F64C7306F08A
:107730007F02C0F600039E5CF2B24C4614F9017B56
:10774000FBB20BB19742F9D1002B40F08E80A6F12D
:107750006102D2B21A2A38BF203E08F800606E5C7F
:1077600001F1010B0130212E5946D1D218E07146AA
:10777000B2F12E0018BF01204CEA000208200B23B2
:107780004FF0010CD207BAD06FE000BF01316A5C44
:107790005C2AFBD02F2AF9D000228B4608B964E07E
:1077A000042298F80000E52804BF052088F80000AE
:1077B000DAF8006050468AF82B20FEF775FE0028A4
:1077C00056D15D44DAF81810304600F00DFB002861
:1077D0004DD1DAF81C10087800283ED0C87A00F0A5
:1077E0003F028AF80620CA7A12070CD4002200BF92
:1077F0008B5C18F802400A2A03D0A34202F101026E
:10780000F6D0A34206D050460021FEF7A4FD002882
:10781000D8D020E09AF82B1049072CD4C0062CD5DC
:10782000029BDAF810009989B0FBF1F202FB11001B
:1078300001991A780144488B032A05D14A7D097DB4
:10784000120642EA01410844CAF808004FF020300D
:107850004AE70422A1E704280AD19AF82B0040073E
:107860004FF0040058BF052002E0062000E0012090
:1078700003B000F009B80020FAE70520F8E730BCB3
:10788000BDE8C04FFFF722BF30BCBDE8C08F022962
:107890003CBF01207047F0B581B005680C46A8696F
:1078A000884234D92878032833D0022852D00128BE
:1078B0002DD1A88904EB5406696AB6FBF0F00144A7
:1078C000284600F091FA00284ED1A8896A6AB6FBD2
:1078D000F0F101FB10610136B6FBF0F0294491F89C
:1078E00034708118284600F07FFAE8BBA889E207C7
:1078F000B6FBF0F101FB1060284490F8340047EA31
:10790000002108466FF31F3018BF08092EE0012040
:107910002CE0A889696A8008B4FBF0F0014428468D
:1079200000F062FA00BBA889A100B1FBF0F1484366
:10793000C0EB8400291891F8363091F8340091F8A2
:10794000352091F837101B0243EA0141114461F3DD
:107950001B200BE0A889696A4008B4FBF0F00144E1
:10796000284600F041FA18B14FF0FF3001B0F0BDE9
:10797000A8896100B1FBF0F14843C0EB4400284402
:10798000808EF3E7D0F800C0BCF1000F17D00023C1
:107990001CF803105A1C212902D33A291346F7D1A7
:1079A0003A290AD19CF8001030294FF0FF3108BF66
:1079B000022A06D10CEB02010160002101E04FF028
:1079C000FF3108467047000088B0FAF7B4F8FCF7BA
:1079D000A1FA002741F24C000797C4F202000168A7
:1079E00040F6000941F0040101600168C4F6000995
:1079F00001F00401029102990168002241F00201A4
:107A00000160016801F0020102910299016841F0F0
:107A100001010160016801F0010102910299016810
:107A200041F00801016000684FF4015100F00800C6
:107A3000029002984846FAF765F8A9F5806528464D
:107A40004FF4004101224FF4004B4FF00108FAF7C8
:107A500059F8484680210122FAF754F84FF40050B3
:107A600003AECDE9030848463146CDE90577F9F77D
:107A700077FF4FF00C0A28463146CDE903A7CDF831
:107A80001480F9F76DFF0224284642F600053146BE
:107A9000CDE903B805970694C4F20105F9F760FF34
:107AA000C020CDE9030848463146CDE90574F9F711
:107AB00057FF43F2B83005F58051C2F200004FF491
:107AC000E13280E88600C0E90377C0E905A7C0E994
:107AD00007774762FBF70FFE18B1EFF3108072B61D
:107AE000FEE743F23434C2F20004201D1421256065
:107AF000F8F795FE0420A0612046FBF700F920B1BD
:107B0000EFF3108072B600BFFEE7FDF75DFE49F2AD
:107B10002000C0F600000121FDF709FA0020012134
:107B2000FDF796FA49F254010EA7C0F6000111A222
:107B30000320B6230097FDF72BFF43F23C44C2F22B
:107B4000000400BFFDF730F9FDF72AFD2168401A57
:107B5000B0F57A7FF6D9FDF723FD2060FEF74EF9E8
:107B6000F0E700BF6D6F756E74206F6B2E2E2E0DBB
:107B70000A0000006D61696E000000002DE9F04F01
:107B800081B00F46002115463960FFF7FBFE002843
:107B90001AD4064640F28800C2F2000050F826408F
:107BA00064B320783C6088B16078FEF7FEFC014643
:107BB000C0070BD115F0FE004FEA41714FF00A02E9
:107BC00018BF02EAE1701EE00B201CE000202070CC
:107BD000F0B26670FEF7A6FCC10711D115F0FE0FDA
:107BE00018BF10F004000DD1607804F10C050221DB
:107BF0002A46FEF799FC48B1012004E00C2002E07F
:107C0000032000E00A2001B000F0EBB82988A1F5BC
:107C1000007080B2B0F5606F4FF00100F3D845F20C
:107C2000555202EA5102891A43F2333202EA9103B1
:107C30001140194401EB111101F4706201F00F01C0
:107C400001EB12210129DED82046FFF7FDFC0428B4
:107C5000D2D001282AD8B4F83F10A089814225D17A
:107C6000B4F84A2002B9A26D94F84450D4F830B068
:107C7000681E0128E261A57018D894F84160701E52
:107C80003040B6FA86F318BF01205B0918436681BD
:107C90000CD1B4F8453048091FFA83FA87B2BAFB11
:107CA000F7F7238107FB1030000401D00D20AAE76D
:107CB000B4F8470000B9606DB4F842C0BCF1000FE1
:107CC000F4D002FB05F909EB0C053D44A842EDD3C5
:107CD000401BB042EAD3B0FBF6F64FF6F670C0F6A2
:107CE000FF704FF0000886424FF6F67038BF4FF035
:107CF0000308864240F6F57038BF4FF0020886420E
:107D000098BF4FF00108B8F1000FCFD006F1020E76
:107D10000BEB0C0005EB0B07B8F1030FC4F818E0F0
:107D2000C4E908B0E76209D1B4F85E0050EA0A007D
:107D3000BCD1206EA0624FEA8E0010E01B04B5D0CB
:107D4000A6F6F67348441B0B0E2BA06291BF4FEAB8
:107D50004E000EEB4E0006F0010303EB500008440A
:107D60000138B0FBF1F08242A0D34FF0FF30C4E9FC
:107D700004008020B8F1030F207126D1B4F864000C
:107D8000012822D10BF10101204600F02DF8E0B9C5
:107D9000B4F832124AF6552200209142207114D1D3
:107DA000606B45F25221C4F2611188420DD1D4F8C2
:107DB000180247F27221C6F24111884205D1D4F867
:107DC0001C02D4F82012C4E9041040F28C00C2F264
:107DD0000000018884F80080013101800020E180EA
:107DE00011E730BCBDE8C08FB0B50446006B8842D7
:107DF00004BF0020B0BD20460D4600F025F908B1B3
:107E00000120B0BD607804F134012A460123FEF759
:107E1000ADFB00281CBF4FF0FF3501202563B0BD2E
:107E20002DE9F047022926D3054680690E4688428F
:107E300021D928781446032821D0022845D00128CA
:107E400019D1A88906EB5607696AB7FBF0F001441F
:107E50002846FFF7C9FF002841D1A88905F1340859
:107E6000B7FBF0F15FEAC67901FB107107F1010A77
:107E700045D1E2B249E002263046BDE8F087A88944
:107E8000696A8008B6FBF0F001442846FFF7ACFFB2
:107E900028BBA889B100B1FBF0F104F0706248433F
:107EA000C0EB8600284490F8371080F8344001F089
:107EB000F00142EA0161220A80F83520220C090E05
:107EC00080F8362080F8371014E0A889696A4008E5
:107ED000B6FBF0F001442846FFF786FF08B1012603
:107EE000CAE7A8897100B1FBF0F14843C0EB460036
:107EF00028448486EF1C012000263870BCE718F85F
:107F0000012002F00F0264F30B1208F80120696AE5
:107F1000BAFBF0F001262F460144284607F8036F0C
:107F2000FFF762FF0028A7D1A889B9F1000FBAFBBB
:107F3000F0F101FB10A007D118F80010C4F30322E0
:107F400001F0F001114401E0C4F3071108F800103A
:107F5000D1E7000002293CBF02207047F0B581B094
:107F600005680446A8690E46884227D932B12846DA
:107F700011464FF0FF32FFF753FF00BB204631465A
:107F8000FFF785FC074601301BD0AFB1012F15D09C
:107F9000284631460022FFF743FF80B9D5E9051096
:107FA000821E914205D22A790131696142F00101B4
:107FB000297187423E46E1D3002000E0022001B053
:107FC000F0BD0120FBE7B0B5044600F03DF808B174
:107FD0000120B0BD207803282DD1207901282AD195
:107FE00004F1380040F6FC71F8F7F7FB45F2522037
:107FF000C4F26110254645F8340F4AF65520A5F81D
:10800000FE0147F27220C6F2411055E90921C5F878
:10801000E40155F8140CC5F8EC21421C15F8330C9A
:10802000C5F8E8112946012345F8042CFEF7C4FAE7
:10803000002005F8300C607800210022FEF774FA69
:10804000002818BF0120B0BD70B50446C078D0B17B
:108050006078226B04F13405294601230126FEF7DE
:10806000ABFA88B9606A216BE269081A002690426F
:10807000E67009D2A078022806D160780A44294621
:108080000123FEF799FA0026304670BDB0B50C46C4
:1080900080B10546006868B1017859B1A988C288E5
:1080A000914207D14078FEF780FAC00702D12968D3
:1080B000002001E0002109202160B0BD5FEA400CF2
:1080C00008BF91F0000F4FEA8C234FEAC12243EA28
:1080D00051514FEA1C5018BF00F5F0404FEA3000F4
:1080E00018BF41F000415FEA6C5C00F02980BCF1F0
:1080F000FF3F08BF40F080407047130C06BF1204DA
:108100004FF0100C4FF0000C130E04BF12020CF1D4
:10811000080C130F04BF12010CF1040C930F04BFE1
:1081200092000CF1020CD30F04BF52000CF1010CB1
:1081300011464FF00002A0F11F00A0EB0C007047A9
:1081400011F0004F08BF704731F000413FF4D5AF48
:108150000B0C06BF09044FF0100C4FF0000C0B0E77
:1081600004BF09020CF1080C0B0F04BF09010CF14C
:10817000040C8B0F04BF89000CF1020CCB0F04BF61
:1081800049000CF1010CCCF1200322FA03F341EA7F
:10819000030102FA0CF2A0EB0C0000F101007047A1
:1081A00023F07F4720F07F4C80EA030000F000407E
:1081B000ACEB070303F57C5303F1FF032DE9804982
:1081C00009B44FEA144324EA03484FEA154B25EA61
:1081D0000B4E0FF2042606EB13273E7803FB0667CF
:1081E000C7F5000707FB06F64FEAD64606F102067A
:1081F0004FEA543707FB066CCCF1005C4FEA1C4792
:108200002CEA074C0CFB06F507FB06F404EB1546BD
:108210004FEA961649085FEA320234BF00204FF059
:1082200000404FEAD13706FB07FC4FEA1C4C0CFB21
:108230000BF7D21B03FB0CF761EB07010CFB0EF7EE
:10824000B0EB074072EB17420CFB08F734BFA2EB10
:108250000742B2EB074261EB17414FEA0C444FEA89
:10826000910706FB07FC4FEA1C4C0CFB0BF7B0EB2D
:10827000C74072EB573203FB0CF734BFA2EBC74287
:10828000B2EBC74261EB57310CFB0EF7B0EBC70006
:1082900072EB57720CFB08F734BFA2EBC702B2EBCC
:1082A000C70261EB57714FEA816141EA92114FEACF
:1082B000826242EA90124FEA806004EBCC04039F92
:1082C0004FEAD13706FB07FC4FEA1C4C0CFB0BF7BF
:1082D000D21B03FB0CF761EB07010CFB0EF7B0EBB5
:1082E000074072EB17420CFB08F734BFA2EB0742C2
:1082F000B2EB074261EB17414FEA8C5504EB9C242B
:108300004FEA910706FB07FC4FEA1C4C0CFB0BF7EE
:10831000B0EBC74072EB573203FB0CF734BFA2EB54
:10832000C742B2EBC74261EB57310CFB0EF7B0EB23
:10833000C70072EB57720CFB08F734BFA2EBC70201
:10834000B2EBC70261EB57714FEA816141EA9211CA
:108350004FEA826242EA90124FEA806015EB4C25A8
:1083600044F100044FEAD13706FB07FC4FEA1C4CEE
:108370000CFB0BF7D21B03FB0CF761EB07010CFBAB
:108380000EF7B0EB074072EB17420CFB08F734BF57
:10839000A2EB0742B2EB074261EB17414FEA813192
:1083A00041EA92414FEA823242EA90424FEA8030FB
:1083B0004FEA0C7615EB1C1544F1000448EA034320
:1083C0004EEA0B484FF0000EB2EB080C71EB0307BE
:1083D00024BF624639464EEB0E0E4FF0000B0018DC
:1083E000524149414BEB0B0BB2EB080C71EB03070D
:1083F0007BF1000B24BF624639464EEB0E0E4FF068
:10840000000B0018524149414BEB0B0BB2EB080C2F
:1084100071EB03077BF1000B24BF624639464EEB3C
:108420000E0E51EA020718BF46F0010616EB0E7653
:1084300055F1000254F1000103D5BDE88901BDE802
:108440000088BDE88901BDE80048B619524141EBFA
:108450000101A3F10103704780807F7E7D7C7B7AE0
:108460007978777676757473727171706F6E6E6DE0
:108470006C6C6B6A6A696868676666656464636386
:1084800062616160605F5F5E5E5D5D5C5C5B5B5A0C
:108490005A59595858575756565555555454535379
:1084A00052525251515050504F4F4F4E4E4D4D4DD4
:1084B0004C4C4C4B4B4B4A4A4A494949484848471F
:1084C000474747464646454545444444444343435D
:1084D00043424242424141419C46002B30D4770006
:1084E0002BD04FEA37071CB503B44FF010004FF004
:1084F0001001BAF1000F06D0BCF1000FDCBF40F054
:10850000080040F008014FF000000FBCBDE810402B
:108510000BF1010BBBF1010F08BF5FEA170722BF88
:1085200012F1010211F101014FF0004143F100038A
:1085300000F0004043EA00007047F9D35708D0E745
:1085400046EA06464FEA164613F1400F1FDD13F1C7
:10855000200FDFBF16430A46002120335B42BED006
:10856000C3F1200746EA06464FEA164602FA07F725
:1085700046EA070622FA03F2C3F1200701FA07F7D9
:1085800042EA070221FA03F14FF00003A7E746EAA7
:10859000020646EA06464FEA164646EA0106BCBF10
:1085A00046EA0646360C4FF000034FF000024FF04B
:1085B000000194E72DE9804C70B49A46934691E807
:1085C000380007C831EA400C48BF34EA430C03D5F1
:1085D000FFF7E6FDFFF780FFF0BCBDE8008C2DE95A
:1085E000804C70B49A46934691E8380007C810F062
:1085F000804F08BF13F0804F03D100F005F8FFF75C
:108600006BFFF0BCBDE8008C20F07F4723F07F4C6F
:1086100080EA030000F0004007EB0C03A3F57C5355
:10862000A3F1FE0392F0000F00F0B38095F0000F6D
:1086300000F077802DE901494FEA114021EA004816
:108640004FEA144624EA064700FB06FC08FB06F640
:1086500007FB08F818EB06484CEB164C00FB07F735
:1086600018EB07484CEB17404FEA124B22EA0B4E2F
:108670004FEA154625EA06470BFB06FC0EFB06F6FD
:1086800007FB0EFE1EEB064E4CEB164C0BFB07F7E2
:108690001EEB074E4CEB174B18EB0B0840F100009C
:1086A00018EB0E0B58EB000840F100008F1A4FF04A
:1086B00000014FF000063CBFC943661B14BFB5EB79
:1086C000040C00213CBFC943F61B4FEA174427EABC
:1086D00004454FEA1C472CEA074C04FB076205FBE4
:1086E00007F70CFB05F616EB074642EB174204FBB7
:1086F0000CFC16EB0C4642EB1C421BEB060658EB3F
:10870000020241414EEA8E0E46EA9E0601D5BDE8C0
:108710000189B619524141EB0101A3F10103BDE802
:1087200001894FEA144524EA05464FEA114721EA38
:10873000074C05FB07F406FB07F70CFB06F111EBF2
:10874000074144EB174405FB0CFC11EB0C4144EBD7
:108750001C444FEA124722EA074C05FB07F206FBCE
:1087600007F70CFB06F616EB074642EB174205FB34
:108770000CFC16EB0C4642EB1C456A1854F1000148
:1087800048BF7047B619524141EB0101A3F1010303
:10879000704795F0000F37D04FEA114221EA0246A8
:1087A0004FEA144724EA074C02FB07F106FB07F7E0
:1087B0000CFB06F414EB074441EB174102FB0CFCE5
:1087C00014EB0C4441EB1C414FEA154725EA074CDA
:1087D00002FB07F506FB07F70CFB06F616EB074650
:1087E00045EB174502FB0CFC16EB0C4645EB1C4217
:1087F000121951F1000148BF7047B619524141EBBF
:108800000101A3F1010370474FEA144524EA05462C
:108810004FEA114721EA074C05FB07F106FB07F772
:108820000CFB06F212EB074241EB174105FB0CFC77
:1088300012EB0C4251EB1C414FF0000648BF704751
:10884000921841EB0101A3F10103704703B40198B1
:108850004100009850EAC12018BF04204A0D18BFFB
:1088600040F0010040F2FF72B2EB515F08BF40F0F0
:108870000200012808BF052002B0704730380A28DE
:1088800001D20120704700207047000010B5002978
:108890000AD00878002807D005487844F8F7B0FFD8
:1088A000002801D0002010BD0248784410BD00000F
:1088B0008E0A0000860A000010B500290AD0087848
:1088C000002807D005487844F8F79AFF002801D01F
:1088D000002010BD0248784410BD0000720B00005B
:1088E0006A0B00002DE9C04130B4DFF8A4C23CEAB5
:1088F000111418BF3CEA131400F0ED801CEA1114A7
:1089000081EA030544EAD57418BF1CEA131500F088
:10891000C880A4EB050404F17F7404F500344FF023
:10892000004545EAC12145EAC32341EA505143EAE3
:1089300052534FEAC0204FEAC222994208BF9042E8
:1089400000F09D804FEA13650FF24416765D4FEA02
:10895000134506FB05F7C7F1807706FB07F74FEADB
:10896000D737A7FB03687642A7FB06CEC8F5803849
:1089700038BFA8F1010807FB08E6A6FB028C4FF000
:10898000000EE6FB03CEDCF1000CCEF1004E38BF4A
:10899000AEF1010EA6FB0C584FF00007E6FB0E8768
:1089A000A1FB08C6A0FB07CE16EB0E064FF0000594
:1089B00045F10005E1FB076515F1E04E7EBFA4F52A
:1089C00080345FEA46066D4116F1800745F10005E7
:1089D0004FEA172747EA05674FEA15254FEA06666B
:1089E000A6F1DE46B6F1805F20D9384605EBC471AA
:1089F00024F0010C01EB0C11BCF1FE6F02D8F0BCAD
:108A0000BDE8008124425CBF01F5801E9EEAC47F60
:108A100002D4F0BCBDE80081244200F13980A1F10C
:108A2000C041F0BCBDE8004100F0EEB94FEAD020F3
:108A300040EA41504FEAD1214FEAD22242EA435262
:108A40004FEAD323A7FB028607FB036605FB0266FA
:108A50001EEA0E0F58BFA6EB0056B6EB00564FEAC3
:108A6000520E4EEAC37E18EB0E0E56EB530EBCD5DB
:108A700018EB02085E417F1C55F10005B5E74FF485
:108A800080154FF000074FF000064FF00008ACE7EC
:108A900001F1C04101F000414FF00000F0BCBDE821
:108AA00000810CEA131511EA0C1F00D00CE013EA48
:108AB0000C1F00F026804FF0000081EA030101F056
:108AC0000041F0BCBDE80081F0BCBDE8004181EA96
:108AD000030100F099B9F0BCBDE8004170B500F0A9
:108AE00045F900BF097EFC3E00F007B84FF00000DA
:108AF00081EA030101F00041704781EA030100F0BF
:108B000083B9F0BCBDE8004122494FF00000704736
:108B1000FFFDFBF9F7F5F4F2F0EEEDEBE9E8E6E442
:108B2000E3E1E0DEDDDBDAD8D7D5D4D3D1D0CFCDC9
:108B3000CCCBCAC8C7C6C5C4C2C1C0BFBEBDBCBB02
:108B4000BAB9B8B7B6B5B4B3B2B1B0AFAEADACABFD
:108B5000AAA9A8A8A7A6A5A4A3A3A2A1A09F9F9ED7
:108B60009D9C9C9B9A999998979796959594939389
:108B7000929191908F8F8E8E8D8C8C8B8B8A898920
:108B800088888787868585848483838282818180A3
:108B90000000FF070000F87F4FEA1153A3F5806340
:108BA000D3F11E03A8BFD3F1200C08DB4FF0004225
:108BB00042EAC12252EA505232FA03F070470942A7
:108BC0000BD4102BC4BF0020704703F5787CBCF198
:108BD000FF3F05D04FF0FF3070474FF00000704767
:108BE00070B500F0C3F800BF4992248000207047A0
:108BF000F0E7B0FA80F310FA03F10AD0C3F11D03D5
:108C000003F580634FEA03524FEA415002EBD12152
:108C100070474FF00000704770B5DFF848C11CEA9C
:108C2000111E1EBF1CEA13159EEA0C0F95EA0C0FCD
:108C300000F06F8081EA03044EEAD47EAE4421EA5C
:108C40004C1123EA4C1341F4801143F48013AEF12C
:108C50007F7EA1FB024CA0FB0365361955EB0C058A
:108C6000A1FB034C4CF10003A0FB021C16EB0C060D
:108C7000654153F10003094218BF46F0010613F4A1
:108C8000007F0BD14FEA03314FEA053041EA15511D
:108C900040EA165034036FF003020AE04FEAC321A2
:108CA0004FEAC52041EA555140EA5650F4026FF0B0
:108CB000020202EB2E4201EB025585EACE710AD088
:108CC0005FEA440C18BF24F0004450F1000041F169
:108CD000000120EAD47040F2FE7C624500D270BDF3
:108CE000A84214BF4FF080444FF04044002E08BF0C
:108CF0000024BEF1806FA8BFA1F1C041BDE8704063
:108D000080F2828001F1C04101F000414FF000008B
:108D100070470CEA13159EEA0C0F18BF95EA0C0F6A
:108D200006D081EA030E4FF000000EF0004170BD46
:108D300000F01CF88900013E00F007B800F009B807
:108D40004FEA430C5FEA5C5C08D081EA030100F063
:108D50005BB84FEA410C5FEA5C5CF6D102494FF028
:108D6000000070470000FF070000F87F0EF1020EC0
:108D70002EF0030E5EF8046B364205D4012A43EB55
:108D8000030515F5001F12D8012841EB010C1CF555
:108D9000001F0CD80ED14FEAD17C0CEB4C0C0CF11F
:108DA000020C15F5001F08BF4CEBD37C04E04FF01C
:108DB000080C01E04FEAD37C0CEB4C0526FA05F6D3
:108DC00006F00706B6F1040C06D20EEB860CBDE8E1
:108DD00070404CF0010C6047DFE80CF0090B020218
:108DE0004FF00041A1F500214FF0000070BD194681
:108DF0001046012851EB010418BFD4F5001484BFBC
:108E0000002001F0004170BD0808A0F500114FEAF4
:108E100031017047F1EE100A4FF6FF71C0F2C03118
:108E200020EA010040F04070E1EE100A7047F8F7C8
:108E3000EEB8F8F725BA04000008000000000000B2
:108E4000000200010000100000000000000000000F
:108E50003031323334353637383941424344454670
:108E6000403058003031323334353637383961626A
:108E700063646566403078003031323334353637DC
:108E8000383961626364656678700030313233343A
:108E90003536373839414243444546585000000082
:108EA00002400000000000A000000000054000009B
:108EB000000000C8000000000C4000000000409CC2
:108EC00000000000194000000020BCBE00000000AF
:108ED00034400000BFC91B8E00000004B5400000F4
:108EE000504BCFD06607E2CF010000006C4100007C
:108EF0003E8251AADFEEA73401000000D9420000F3
:108F0000DCB5A0E23A301F97FFFFFFFFB445000039
:108F1000FD25A0C8E9A3C14FFFFFFFFFFF3F0000F1
:108F20000000008000000000FF3F00000000008003
:108F30000000000000000000000000000102030427
:108F4000060708090000000001020304809A454159
:108F50008E418F804545454949498E8F9092924F69
:108F6000994F555559999A9B9C9D9E9F41494F55A4
:108F7000A5A5A6A7A8A9AAABACADAEAFB0B1B2B338
:108F8000B4B5B6B7B8B9BABBBCBDBEBFC0C1C2C329
:108F9000C4C5C6C7C8C9CACBCCCDCECFD0D1D2D319
:108FA000D4D5D6D7D8D9DADBDCDDDEDFE0E1E2E309
:108FB000E4E5E6E7E8E9EAEBECEDEEEFF0F1F2F3F9
:108FC000F4F5F6F7F8F9FAFBFCFDFEFFA0860100C8
:108FD000400D0300801A060000350C0040420F00CF
:108FE00080841E0000093D0000127A000024F40075
:108FF00000366E010048E801006CDC0200300140E0
:1090000000380040003C00403992000831920008CE
:10901000001600000000000000000000000000003A
:1090200000000000010000000000000000000080BF
:109030000002000000000000040000000200000028
:109040000800000000380140004400400048004093
:10905000004C00402E2E2F436F72652F5372632FEA
:109060006D61696E2E6300303A68656C6C6F0062EA
:109070005465737446730020202020202020202077
:1090800020202020202020202020202020202020E0
:109090002F202020202020202020202020202020C1
:1090A00020202020200D0A0020202F2020202029F1
:1090B0002020202F20202029202F20202029202F71
:1090C0002020202F202F202020202F202020202073
:1090D000205C202020200D0A00202020205F5F5FE0
:1090E0005F20202020202020202020202020202041
:1090F000202020202020202020205F5F20202020F2
:109100002020205F5F20200D0A002D2D2D2F5F5F76
:10911000202F2D2D2D2D2D5F5F2D2D2D2F5F5F2DC0
:109120002D2D2D2D2D2D2D2D2F2D2D2D2D2F2D2D6B
:109130002D2D5C2D2D2D2D2D0D0A00202020202FD2
:1091400020202029202020202020202020202F2007
:10915000202020202020202020202F2020202029F7
:109160002020202F202020205C0D0A005F2F5F5F31
:109170005F5F2F5F5F5F285F5F5F285F285F5F5FD4
:109180002F5F285F5F5F2F5F285F5F5F5F2F5F5FED
:109190005F285F5F5F5F2F5F5F5F0D0A005F5F5F4C
:1091A0005F5F5F5F5F5F5F5F5F5F5F5F5F5F5F5FCF
:1091B0005F5F5F5F5F5F5F5F5F5F5F5F5F5F5F5FBF
:1091C0005F5F5F5F5F5F5F5F5F5F5F0D0A002E2E17
:1091D0002F2E2E2F2E2E2F426162794F532F626F2A
:1091E000732F636F72652F625F636F72652E63000A
:1091F00062496E69740025640909253136730925B1
:10920000640D0A002573206572720D0A002E2E2F40
:109210002E2E2F2E2E2F426162794F532F626F73A5
:109220002F636F72652F625F6465766963652E6375
:109230000074662D63617264006E756C6C0062442C
:109240006576696365496E6974004E6F74206D6F51
:10925000756E7465642E2E2E0D0A007265743A25A3
:10926000640D0A00726573756C743A25640D0A000A
:109270002E2E2F2E2E2F2E2E2F426162794F532FFE
:10928000626F732F6D6F64756C65732F625F6D6FA6
:10929000645F66732E63006246534F70656E0062B2
:1092A00046534D6F756E7400624653556E6D6F7503
:1092B0006E7400222A2B2C3A3B3C3D3E3F5B5D7C8A
:1092C0007F000100040010004000000100020000C7
:1092D000010002000400080010002000000000004F
:1092E000589400080000002028000000F001000849
:1092F0008094000828000020203A00001002000896
:10930000234400088D480008D1480008294400087B
:10931000000000002544000816000000B35D0008AE
:109320000000000025440008100100004300000078
:10933000F8FFFFFF00404040404040404040414176
:10934000414141404040404040404040404040401A
:1093500040404040400502020202020202020202B4
:1093600002020202022020202020202020202002B1
:109370000202020202029090909090901010101041
:1093800010101010101010101010101010101010DD
:109390000202020202028888888888880808080871
:1093A000080808080808080808080808080808083D
:1093B0000202020240000000000000000000000065
:1093C000000000000000000000000000000000009D
:1093D000000000000000000000000000000000008D
:1093E000000000000000000000000000000000007D
:1093F000000000000000000000000000000000006D
:10940000000000000000000000000000000000005C
:10941000000000000000000000000000000000004C
:10942000000000000000000000000000000000003C
:1094300000000000000000001C00000043000000CD
:10944000F8FFFFFF0C0000000E0000000F000000FE
:109450002E0000000000000000093D000400002074
:10946000040000200C0000200C000020140000204C
:10947000140000200A00000001000000100000009D
:040000050800018D61
:00000001FF
