Component: Arm Compiler for Embedded 6.21 Tool: armlink [5ec1fa00]

==============================================================================

Section Cross References

    startup_stm32l431xx.o(STACK) refers (Special) to heapauxi.o(.text) for __use_two_region_memory
    startup_stm32l431xx.o(HEAP) refers (Special) to heapauxi.o(.text) for __use_two_region_memory
    startup_stm32l431xx.o(RESET) refers (Special) to heapauxi.o(.text) for __use_two_region_memory
    startup_stm32l431xx.o(RESET) refers to startup_stm32l431xx.o(STACK) for __initial_sp
    startup_stm32l431xx.o(RESET) refers to startup_stm32l431xx.o(.text) for Reset_Handler
    startup_stm32l431xx.o(RESET) refers to stm32l4xx_it.o(.text.NMI_Handler) for NMI_Handler
    startup_stm32l431xx.o(RESET) refers to stm32l4xx_it.o(.text.HardFault_Handler) for HardFault_Handler
    startup_stm32l431xx.o(RESET) refers to stm32l4xx_it.o(.text.MemManage_Handler) for MemManage_Handler
    startup_stm32l431xx.o(RESET) refers to stm32l4xx_it.o(.text.BusFault_Handler) for BusFault_Handler
    startup_stm32l431xx.o(RESET) refers to stm32l4xx_it.o(.text.UsageFault_Handler) for UsageFault_Handler
    startup_stm32l431xx.o(RESET) refers to stm32l4xx_it.o(.text.SVC_Handler) for SVC_Handler
    startup_stm32l431xx.o(RESET) refers to stm32l4xx_it.o(.text.DebugMon_Handler) for DebugMon_Handler
    startup_stm32l431xx.o(RESET) refers to stm32l4xx_it.o(.text.PendSV_Handler) for PendSV_Handler
    startup_stm32l431xx.o(RESET) refers to stm32l4xx_it.o(.text.SysTick_Handler) for SysTick_Handler
    startup_stm32l431xx.o(RESET) refers to stm32l4xx_it.o(.text.USART1_IRQHandler) for USART1_IRQHandler
    startup_stm32l431xx.o(RESET) refers to stm32l4xx_it.o(.text.LPUART1_IRQHandler) for LPUART1_IRQHandler
    startup_stm32l431xx.o(.text) refers (Special) to heapauxi.o(.text) for __use_two_region_memory
    startup_stm32l431xx.o(.text) refers to system_stm32l4xx.o(.text.SystemInit) for SystemInit
==============================================================================

Removing Unused input sections from the image.

    Removing main.o(.text), (0 bytes).
    Removing main.o(.ARM.exidx.text.bTestFs), (8 bytes).
    Removing main.o(.ARM.exidx.text.main), (8 bytes).
    Removing main.o(.ARM.exidx.text.SystemClock_Config), (8 bytes).
    Removing main.o(.ARM.exidx.text.Error_Handler), (8 bytes).
    Removing main.o(.bss.hqspi), (76 bytes).
    Removing main.o(.bss.hspi2), (100 bytes).
    Removing main.o(.ARM.use_no_argv), (4 bytes).
    Removing stm32l4xx_it.o(.text), (0 bytes).
    Removing stm32l4xx_it.o(.ARM.exidx.text.NMI_Handler), (8 bytes).
    Removing stm32l4xx_it.o(.ARM.exidx.text.HardFault_Handler), (8 bytes).
    Removing stm32l4xx_it.o(.ARM.exidx.text.MemManage_Handler), (8 bytes).
    Removing stm32l4xx_it.o(.ARM.exidx.text.BusFault_Handler), (8 bytes).
    Removing stm32l4xx_it.o(.ARM.exidx.text.UsageFault_Handler), (8 bytes).
    Removing stm32l4xx_it.o(.ARM.exidx.text.SVC_Handler), (8 bytes).
    Removing stm32l4xx_it.o(.ARM.exidx.text.DebugMon_Handler), (8 bytes).
    Removing stm32l4xx_it.o(.ARM.exidx.text.PendSV_Handler), (8 bytes).
    Removing stm32l4xx_it.o(.ARM.exidx.text.SysTick_Handler), (8 bytes).
==============================================================================

Image Symbol Table

    Local Symbols

    Symbol Name                              Value     Ov Type        Size  Object(Section)

    ../clib/angel/boardlib.s                 0x00000000   Number         0  boardinit1.o ABSOLUTE
    ../clib/angel/boardlib.s                 0x00000000   Number         0  boardinit2.o ABSOLUTE
    ../clib/angel/boardlib.s                 0x00000000   Number         0  boardinit3.o ABSOLUTE
    ../clib/angel/boardlib.s                 0x00000000   Number         0  boardshut.o ABSOLUTE
    ../clib/angel/handlers.s                 0x00000000   Number         0  __scatter_copy.o ABSOLUTE
    ../clib/angel/handlers.s                 0x00000000   Number         0  __scatter_zi.o ABSOLUTE
    ../clib/angel/kernel.s                   0x00000000   Number         0  __rtentry.o ABSOLUTE
    ../clib/angel/kernel.s                   0x00000000   Number         0  __rtentry2.o ABSOLUTE
    ../clib/angel/kernel.s                   0x00000000   Number         0  __rtentry4.o ABSOLUTE
    ../clib/angel/kernel.s                   0x00000000   Number         0  rtexit.o ABSOLUTE
    ../clib/angel/kernel.s                   0x00000000   Number         0  rtexit2.o ABSOLUTE
    ../clib/angel/rt.s                       0x00000000   Number         0  rt_ctype_table.o ABSOLUTE
    ../clib/angel/rt.s                       0x00000000   Number         0  aeabi_ldiv0.o ABSOLUTE
    ../clib/angel/rt.s                       0x00000000   Number         0  aeabi_ldiv0_sigfpe.o ABSOLUTE
    ../clib/angel/rt.s                       0x00000000   Number         0  rt_errno_addr.o ABSOLUTE
    ../clib/angel/rt.s                       0x00000000   Number         0  rt_errno_addr_intlibspace.o ABSOLUTE
    ../clib/angel/rt.s                       0x00000000   Number         0  rt_div0.o ABSOLUTE
    ../clib/angel/rt.s                       0x00000000   Number         0  rt_locale.o ABSOLUTE
    ../clib/angel/rt.s                       0x00000000   Number         0  rt_locale_intlibspace.o ABSOLUTE
    ../clib/angel/rt.s                       0x00000000   Number         0  rt_raise.o ABSOLUTE
    ../clib/angel/scatter.s                  0x00000000   Number         0  __scatter.o ABSOLUTE
    ../clib/angel/startup.s                  0x00000000   Number         0  __main.o ABSOLUTE
    ../clib/angel/sys.s                      0x00000000   Number         0  libspace.o ABSOLUTE
    ../clib/angel/sys.s                      0x00000000   Number         0  sys_stackheap_outer.o ABSOLUTE
    ../clib/angel/sys.s                      0x00000000   Number         0  use_no_semi.o ABSOLUTE
    ../clib/angel/sys.s                      0x00000000   Number         0  indicate_semi.o ABSOLUTE
    ../clib/angel/sysapp.c                   0x00000000   Number         0  sys_exit.o ABSOLUTE
    ../clib/angel/sysapp.c                   0x00000000   Number         0  sys_exit_hlt.o ABSOLUTE
    ../clib/angel/sysapp.c                   0x00000000   Number         0  sys_wrch.o ABSOLUTE
    ../clib/angel/sysapp.c                   0x00000000   Number         0  sys_command.o ABSOLUTE
    ../clib/angel/sysapp.c                   0x00000000   Number         0  sys_wrch_hlt.o ABSOLUTE
    ../clib/angel/sysapp.c                   0x00000000   Number         0  sys_command_hlt.o ABSOLUTE
    ../clib/armsys.c                         0x00000000   Number         0  argv_veneer.o ABSOLUTE
    ../clib/armsys.c                         0x00000000   Number         0  argv_veneer.o ABSOLUTE
    ../clib/armsys.c                         0x00000000   Number         0  _get_argv_nomalloc.o ABSOLUTE
    ../clib/armsys.c                         0x00000000   Number         0  no_argv.o ABSOLUTE
    ../clib/bigflt.c                         0x00000000   Number         0  bigflt0.o ABSOLUTE
    ../clib/btod.s                           0x00000000   Number         0  btod.o ABSOLUTE
    ../clib/btod_accurate.c                  0x00000000   Number         0  btod_accurate.o ABSOLUTE
    ../clib/btod_accurate.c                  0x00000000   Number         0  btod_accurate_common.o ABSOLUTE
    ../clib/heapalloc.c                      0x00000000   Number         0  hrguard.o ABSOLUTE
    ../clib/heapaux.c                        0x00000000   Number         0  heapauxi.o ABSOLUTE
    ../clib/libinit.s                        0x00000000   Number         0  libinit.o ABSOLUTE
    ../clib/libinit.s                        0x00000000   Number         0  libinit2.o ABSOLUTE
    ../clib/libinit.s                        0x00000000   Number         0  libshutdown.o ABSOLUTE
    ../clib/libinit.s                        0x00000000   Number         0  libshutdown2.o ABSOLUTE
    ../clib/locale.c                         0x00000000   Number         0  _c16rtomb.o ABSOLUTE
    ../clib/locale.s                         0x00000000   Number         0  lc_ctype_c.o ABSOLUTE
    ../clib/locale.s                         0x00000000   Number         0  lc_numeric_c.o ABSOLUTE
    ../clib/longlong.s                       0x00000000   Number         0  lludivv7m.o ABSOLUTE
    ../clib/longlong.s                       0x00000000   Number         0  llsdiv.o ABSOLUTE
    ../clib/longlong.s                       0x00000000   Number         0  lludiv10.o ABSOLUTE
    ../clib/longlong.s                       0x00000000   Number         0  llushr.o ABSOLUTE
    ../clib/memcpset.s                       0x00000000   Number         0  rt_memcpy_v6.o ABSOLUTE
    ../clib/memcpset.s                       0x00000000   Number         0  rt_memclr.o ABSOLUTE
    ../clib/memcpset.s                       0x00000000   Number         0  rt_memclr_w.o ABSOLUTE
    ../clib/memcpset.s                       0x00000000   Number         0  rt_memcpy_w.o ABSOLUTE
    ../clib/memcpset.s                       0x00000000   Number         0  strcmpv7em.o ABSOLUTE
    ../clib/misc.s                           0x00000000   Number         0  printf_stubs.o ABSOLUTE
    ../clib/printf.c                         0x00000000   Number         0  vsnprintf.o ABSOLUTE
    ../clib/printf.c                         0x00000000   Number         0  __2sprintf.o ABSOLUTE
    ../clib/printf.c                         0x00000000   Number         0  noretval__2sprintf.o ABSOLUTE
    ../clib/printf.c                         0x00000000   Number         0  __printf.o ABSOLUTE
    ../clib/printf.c                         0x00000000   Number         0  _printf_dec.o ABSOLUTE
    ../clib/printf.c                         0x00000000   Number         0  __printf_flags.o ABSOLUTE
    ../clib/printf.c                         0x00000000   Number         0  __printf_ss.o ABSOLUTE
    ../clib/printf.c                         0x00000000   Number         0  __printf_flags_ss.o ABSOLUTE
    ../clib/printf.c                         0x00000000   Number         0  __printf_wp.o ABSOLUTE
    ../clib/printf.c                         0x00000000   Number         0  __printf_flags_wp.o ABSOLUTE
    ../clib/printf.c                         0x00000000   Number         0  __printf_ss_wp.o ABSOLUTE
    ../clib/printf.c                         0x00000000   Number         0  __printf_flags_ss_wp.o ABSOLUTE
    ../clib/printf.c                         0x00000000   Number         0  _printf_pad.o ABSOLUTE
    ../clib/printf.c                         0x00000000   Number         0  _printf_truncate.o ABSOLUTE
    ../clib/printf.c                         0x00000000   Number         0  _printf_str.o ABSOLUTE
    ../clib/printf.c                         0x00000000   Number         0  _printf_intcommon.o ABSOLUTE
    ../clib/printf.c                         0x00000000   Number         0  _printf_charcount.o ABSOLUTE
    ../clib/printf.c                         0x00000000   Number         0  _printf_char_common.o ABSOLUTE
    ../clib/printf.c                         0x00000000   Number         0  _sputc.o ABSOLUTE
    ../clib/printf.c                         0x00000000   Number         0  _snputc.o ABSOLUTE
    ../clib/printf.c                         0x00000000   Number         0  _printf_wctomb.o ABSOLUTE
    ../clib/printf.c                         0x00000000   Number         0  _printf_longlong_dec.o ABSOLUTE
    ../clib/printf.c                         0x00000000   Number         0  _printf_oct_ll.o ABSOLUTE
    ../clib/printf.c                         0x00000000   Number         0  _printf_oct_int.o ABSOLUTE
    ../clib/printf.c                         0x00000000   Number         0  _printf_oct_int_ll.o ABSOLUTE
    ../clib/printf.c                         0x00000000   Number         0  _printf_hex_ll.o ABSOLUTE
    ../clib/printf.c                         0x00000000   Number         0  _printf_hex_int.o ABSOLUTE
    ../clib/printf.c                         0x00000000   Number         0  _printf_hex_int_ll.o ABSOLUTE
    ../clib/printf.c                         0x00000000   Number         0  _printf_hex_ptr.o ABSOLUTE
    ../clib/printf.c                         0x00000000   Number         0  _printf_hex_int_ptr.o ABSOLUTE
    ../clib/printf.c                         0x00000000   Number         0  _printf_hex_ll_ptr.o ABSOLUTE
    ../clib/printf.c                         0x00000000   Number         0  _printf_hex_int_ll_ptr.o ABSOLUTE
    ../clib/printf.c                         0x00000000   Number         0  _printf_fp_dec.o ABSOLUTE
    ../clib/printf.c                         0x00000000   Number         0  _printf_fp_dec_accurate.o ABSOLUTE
    ../clib/printf.c                         0x00000000   Number         0  _printf_fp_hex.o ABSOLUTE
    ../clib/printf.c                         0x00000000   Number         0  __printf_nopercent.o ABSOLUTE
    ../clib/printf.c                         0x00000000   Number         0  _printf_char.o ABSOLUTE
    ../clib/printf.c                         0x00000000   Number         0  _printf_wchar.o ABSOLUTE
    ../clib/printf.c                         0x00000000   Number         0  _printf_fp_infnan.o ABSOLUTE
    ../clib/printf_percent.s                 0x00000000   Number         0  _printf_d.o ABSOLUTE
    ../clib/printf_percent.s                 0x00000000   Number         0  _printf_percent.o ABSOLUTE
    ../clib/printf_percent.s                 0x00000000   Number         0  _printf_c.o ABSOLUTE
    ../clib/printf_percent.s                 0x00000000   Number         0  _printf_s.o ABSOLUTE
    ../clib/printf_percent.s                 0x00000000   Number         0  _printf_n.o ABSOLUTE
    ../clib/printf_percent.s                 0x00000000   Number         0  _printf_x.o ABSOLUTE
    ../clib/printf_percent.s                 0x00000000   Number         0  _printf_p.o ABSOLUTE
    ../clib/printf_percent.s                 0x00000000   Number         0  _printf_o.o ABSOLUTE
    ../clib/printf_percent.s                 0x00000000   Number         0  _printf_i.o ABSOLUTE
    ../clib/printf_percent.s                 0x00000000   Number         0  _printf_u.o ABSOLUTE
    ../clib/printf_percent.s                 0x00000000   Number         0  _printf_f.o ABSOLUTE
    ../clib/printf_percent.s                 0x00000000   Number         0  _printf_e.o ABSOLUTE
    ../clib/printf_percent.s                 0x00000000   Number         0  _printf_g.o ABSOLUTE
    ../clib/printf_percent.s                 0x00000000   Number         0  _printf_a.o ABSOLUTE
    ../clib/printf_percent.s                 0x00000000   Number         0  _printf_percent_end.o ABSOLUTE
    ../clib/printf_percent.s                 0x00000000   Number         0  _printf_lli.o ABSOLUTE
    ../clib/printf_percent.s                 0x00000000   Number         0  _printf_lld.o ABSOLUTE
    ../clib/printf_percent.s                 0x00000000   Number         0  _printf_llu.o ABSOLUTE
    ../clib/printf_percent.s                 0x00000000   Number         0  _printf_ll.o ABSOLUTE
    ../clib/printf_percent.s                 0x00000000   Number         0  _printf_l.o ABSOLUTE
    ../clib/printf_percent.s                 0x00000000   Number         0  _printf_lc.o ABSOLUTE
    ../clib/printf_percent.s                 0x00000000   Number         0  _printf_ls.o ABSOLUTE
    ../clib/printf_percent.s                 0x00000000   Number         0  _printf_llo.o ABSOLUTE
    ../clib/printf_percent.s                 0x00000000   Number         0  _printf_llx.o ABSOLUTE
    ../clib/scanf.c                          0x00000000   Number         0  strtol.o ABSOLUTE
    ../clib/scanf.c                          0x00000000   Number         0  _strtoul.o ABSOLUTE
    ../clib/scanf.c                          0x00000000   Number         0  _chval.o ABSOLUTE
    ../clib/signal.c                         0x00000000   Number         0  defsig_fpe_outer.o ABSOLUTE
    ../clib/signal.c                         0x00000000   Number         0  defsig_fpe_formal.o ABSOLUTE
    ../clib/signal.c                         0x00000000   Number         0  defsig_exit.o ABSOLUTE
    ../clib/signal.c                         0x00000000   Number         0  defsig_fpe_inner.o ABSOLUTE
    ../clib/signal.c                         0x00000000   Number         0  __raise.o ABSOLUTE
    ../clib/signal.c                         0x00000000   Number         0  defsig_general.o ABSOLUTE
    ../clib/signal.c                         0x00000000   Number         0  defsig_rtmem_outer.o ABSOLUTE
    ../clib/signal.c                         0x00000000   Number         0  defsig_rtmem_formal.o ABSOLUTE
    ../clib/signal.c                         0x00000000   Number         0  defsig_abrt_inner.o ABSOLUTE
    ../clib/signal.c                         0x00000000   Number         0  defsig_rtred_inner.o ABSOLUTE
    ../clib/signal.c                         0x00000000   Number         0  defsig_rtmem_inner.o ABSOLUTE
    ../clib/signal.c                         0x00000000   Number         0  defsig_stak_inner.o ABSOLUTE
    ../clib/signal.c                         0x00000000   Number         0  defsig_pvfn_inner.o ABSOLUTE
    ../clib/signal.c                         0x00000000   Number         0  defsig_cppl_inner.o ABSOLUTE
    ../clib/signal.c                         0x00000000   Number         0  defsig_segv_inner.o ABSOLUTE
    ../clib/signal.c                         0x00000000   Number         0  defsig_other.o ABSOLUTE
    ../clib/signal.s                         0x00000000   Number         0  defsig.o ABSOLUTE
    ../clib/stdlib.c                         0x00000000   Number         0  exit.o ABSOLUTE
    ../clib/string.c                         0x00000000   Number         0  strlen.o ABSOLUTE
    ../fplib/daddsub.s                       0x00000000   Number         0  daddsub_clz.o ABSOLUTE
    ../fplib/ddiv.s                          0x00000000   Number         0  ddiv.o ABSOLUTE
    ../fplib/dfixll.s                        0x00000000   Number         0  dfixll.o ABSOLUTE
    ../fplib/dfixu.s                         0x00000000   Number         0  dfixu.o ABSOLUTE
    ../fplib/dflt.s                          0x00000000   Number         0  dflt_clz.o ABSOLUTE
    ../fplib/dfltll.s                        0x00000000   Number         0  dfltll_clz.o ABSOLUTE
    ../fplib/dmul.s                          0x00000000   Number         0  dmul.o ABSOLUTE
    ../fplib/dnaninf.s                       0x00000000   Number         0  dnaninf.o ABSOLUTE
    ../fplib/dretinf.s                       0x00000000   Number         0  dretinf.o ABSOLUTE
    ../fplib/fpinit.s                        0x00000000   Number         0  fpinit.o ABSOLUTE
    ../fplib/istatus.s                       0x00000000   Number         0  istatus.o ABSOLUTE
    ../fplib/printf1.s                       0x00000000   Number         0  printf1.o ABSOLUTE
    ../fplib/printf2.s                       0x00000000   Number         0  printf2.o ABSOLUTE
    ../fplib/printf2a.s                      0x00000000   Number         0  printf2a.o ABSOLUTE
    ../fplib/printf2b.s                      0x00000000   Number         0  printf2b.o ABSOLUTE
    ../fplib/usenofp.s                       0x00000000   Number         0  usenofp.o ABSOLUTE
    ../mathlib/fpclassify.c                  0x00000000   Number         0  fpclassify.o ABSOLUTE
    b_core.c                                 0x00000000   Number         0  b_core.o ABSOLUTE
    b_device.c                               0x00000000   Number         0  b_device.o ABSOLUTE
    b_drv_sd.c                               0x00000000   Number         0  b_drv_sd.o ABSOLUTE
    b_hal.c                                  0x00000000   Number         0  b_hal.o ABSOLUTE
    b_hal_flash.c                            0x00000000   Number         0  b_hal_flash.o ABSOLUTE
    b_hal_gpio.c                             0x00000000   Number         0  b_hal_gpio.o ABSOLUTE
    b_hal_i2c.c                              0x00000000   Number         0  b_hal_i2c.o ABSOLUTE
    b_hal_it.c                               0x00000000   Number         0  b_hal_it.o ABSOLUTE
    b_hal_qspi.c                             0x00000000   Number         0  b_hal_qspi.o ABSOLUTE
    b_hal_sdio.c                             0x00000000   Number         0  b_hal_sdio.o ABSOLUTE
    b_hal_spi.c                              0x00000000   Number         0  b_hal_spi.o ABSOLUTE
    b_hal_uart.c                             0x00000000   Number         0  b_hal_uart.o ABSOLUTE
    b_mod_adchub.c                           0x00000000   Number         0  b_mod_adchub.o ABSOLUTE
    b_mod_button.c                           0x00000000   Number         0  b_mod_button.o ABSOLUTE
    b_mod_error.c                            0x00000000   Number         0  b_mod_error.o ABSOLUTE
    b_mod_fs.c                               0x00000000   Number         0  b_mod_fs.o ABSOLUTE
    b_mod_gui.c                              0x00000000   Number         0  b_mod_gui.o ABSOLUTE
    b_mod_iap.c                              0x00000000   Number         0  b_mod_iap.o ABSOLUTE
    b_mod_kv.c                               0x00000000   Number         0  b_mod_kv.o ABSOLUTE
    b_mod_menu.c                             0x00000000   Number         0  b_mod_menu.o ABSOLUTE
    b_mod_modbus.c                           0x00000000   Number         0  b_mod_modbus.o ABSOLUTE
    b_mod_param.c                            0x00000000   Number         0  b_mod_param.o ABSOLUTE
    b_mod_protocol.c                         0x00000000   Number         0  b_mod_protocol.o ABSOLUTE
    b_mod_pwm.c                              0x00000000   Number         0  b_mod_pwm.o ABSOLUTE
    b_mod_shell.c                            0x00000000   Number         0  b_mod_shell.o ABSOLUTE
    b_mod_state.c                            0x00000000   Number         0  b_mod_state.o ABSOLUTE
    b_mod_trace.c                            0x00000000   Number         0  b_mod_trace.o ABSOLUTE
    b_mod_xm128.c                            0x00000000   Number         0  b_mod_xm128.o ABSOLUTE
    b_mod_ymodem.c                           0x00000000   Number         0  b_mod_ymodem.o ABSOLUTE
    b_queue.c                                0x00000000   Number         0  b_queue.o ABSOLUTE
    b_sem.c                                  0x00000000   Number         0  b_sem.o ABSOLUTE
    b_task.c                                 0x00000000   Number         0  b_task.o ABSOLUTE
    b_timer.c                                0x00000000   Number         0  b_timer.o ABSOLUTE
    b_util_fifo.c                            0x00000000   Number         0  b_util_fifo.o ABSOLUTE
    b_util_log.c                             0x00000000   Number         0  b_util_log.o ABSOLUTE
    b_util_lunar.c                           0x00000000   Number         0  b_util_lunar.o ABSOLUTE
    b_util_memp.c                            0x00000000   Number         0  b_util_memp.o ABSOLUTE
    b_util_uart.c                            0x00000000   Number         0  b_util_uart.o ABSOLUTE
    b_util_utc.c                             0x00000000   Number         0  b_util_utc.o ABSOLUTE
    dc.s                                     0x00000000   Number         0  dc.o ABSOLUTE
    diskio.c                                 0x00000000   Number         0  diskio.o ABSOLUTE
    ff.c                                     0x00000000   Number         0  ff.o ABSOLUTE
    ffsystem.c                               0x00000000   Number         0  ffsystem.o ABSOLUTE
    ffunicode.c                              0x00000000   Number         0  ffunicode.o ABSOLUTE
    main.c                                   0x00000000   Number         0  main.o ABSOLUTE
    mcu_stm32l41x_flash.c                    0x00000000   Number         0  mcu_stm32l41x_flash.o ABSOLUTE
    mcu_stm32l41x_gpio.c                     0x00000000   Number         0  mcu_stm32l41x_gpio.o ABSOLUTE
    mcu_stm32l41x_i2c.c                      0x00000000   Number         0  mcu_stm32l41x_i2c.o ABSOLUTE
    mcu_stm32l41x_it.c                       0x00000000   Number         0  mcu_stm32l41x_it.o ABSOLUTE
    mcu_stm32l41x_qspi.c                     0x00000000   Number         0  mcu_stm32l41x_qspi.o ABSOLUTE
    mcu_stm32l41x_sdio.c                     0x00000000   Number         0  mcu_stm32l41x_sdio.o ABSOLUTE
    mcu_stm32l41x_spi.c                      0x00000000   Number         0  mcu_stm32l41x_spi.o ABSOLUTE
    mcu_stm32l41x_uart.c                     0x00000000   Number         0  mcu_stm32l41x_uart.o ABSOLUTE
    startup_stm32l431xx.s                    0x00000000   Number         0  startup_stm32l431xx.o ABSOLUTE
    stm32l4xx_hal.c                          0x00000000   Number         0  stm32l4xx_hal.o ABSOLUTE
    stm32l4xx_hal_adc.c                      0x00000000   Number         0  stm32l4xx_hal_adc.o ABSOLUTE
    stm32l4xx_hal_adc_ex.c                   0x00000000   Number         0  stm32l4xx_hal_adc_ex.o ABSOLUTE
    stm32l4xx_hal_cortex.c                   0x00000000   Number         0  stm32l4xx_hal_cortex.o ABSOLUTE
    stm32l4xx_hal_dma.c                      0x00000000   Number         0  stm32l4xx_hal_dma.o ABSOLUTE
    stm32l4xx_hal_dma_ex.c                   0x00000000   Number         0  stm32l4xx_hal_dma_ex.o ABSOLUTE
    stm32l4xx_hal_flash.c                    0x00000000   Number         0  stm32l4xx_hal_flash.o ABSOLUTE
    stm32l4xx_hal_flash_ex.c                 0x00000000   Number         0  stm32l4xx_hal_flash_ex.o ABSOLUTE
    stm32l4xx_hal_flash_ramfunc.c            0x00000000   Number         0  stm32l4xx_hal_flash_ramfunc.o ABSOLUTE
    stm32l4xx_hal_gpio.c                     0x00000000   Number         0  stm32l4xx_hal_gpio.o ABSOLUTE
    stm32l4xx_hal_i2c.c                      0x00000000   Number         0  stm32l4xx_hal_i2c.o ABSOLUTE
    stm32l4xx_hal_i2c_ex.c                   0x00000000   Number         0  stm32l4xx_hal_i2c_ex.o ABSOLUTE
    stm32l4xx_hal_iwdg.c                     0x00000000   Number         0  stm32l4xx_hal_iwdg.o ABSOLUTE
    stm32l4xx_hal_mmc.c                      0x00000000   Number         0  stm32l4xx_hal_mmc.o ABSOLUTE
    stm32l4xx_hal_mmc_ex.c                   0x00000000   Number         0  stm32l4xx_hal_mmc_ex.o ABSOLUTE
    stm32l4xx_hal_msp.c                      0x00000000   Number         0  stm32l4xx_hal_msp.o ABSOLUTE
    stm32l4xx_hal_pwr.c                      0x00000000   Number         0  stm32l4xx_hal_pwr.o ABSOLUTE
    stm32l4xx_hal_pwr_ex.c                   0x00000000   Number         0  stm32l4xx_hal_pwr_ex.o ABSOLUTE
    stm32l4xx_hal_qspi.c                     0x00000000   Number         0  stm32l4xx_hal_qspi.o ABSOLUTE
    stm32l4xx_hal_rcc.c                      0x00000000   Number         0  stm32l4xx_hal_rcc.o ABSOLUTE
    stm32l4xx_hal_rcc_ex.c                   0x00000000   Number         0  stm32l4xx_hal_rcc_ex.o ABSOLUTE
    stm32l4xx_hal_sd.c                       0x00000000   Number         0  stm32l4xx_hal_sd.o ABSOLUTE
    stm32l4xx_hal_sd_ex.c                    0x00000000   Number         0  stm32l4xx_hal_sd_ex.o ABSOLUTE
    stm32l4xx_hal_smartcard.c                0x00000000   Number         0  stm32l4xx_hal_smartcard.o ABSOLUTE
    stm32l4xx_hal_smartcard_ex.c             0x00000000   Number         0  stm32l4xx_hal_smartcard_ex.o ABSOLUTE
    stm32l4xx_hal_spi.c                      0x00000000   Number         0  stm32l4xx_hal_spi.o ABSOLUTE
    stm32l4xx_hal_spi_ex.c                   0x00000000   Number         0  stm32l4xx_hal_spi_ex.o ABSOLUTE
    stm32l4xx_hal_tim.c                      0x00000000   Number         0  stm32l4xx_hal_tim.o ABSOLUTE
    stm32l4xx_hal_tim_ex.c                   0x00000000   Number         0  stm32l4xx_hal_tim_ex.o ABSOLUTE
    stm32l4xx_hal_uart.c                     0x00000000   Number         0  stm32l4xx_hal_uart.o ABSOLUTE
    stm32l4xx_hal_uart_ex.c                  0x00000000   Number         0  stm32l4xx_hal_uart_ex.o ABSOLUTE
    stm32l4xx_hal_usart.c                    0x00000000   Number         0  stm32l4xx_hal_usart.o ABSOLUTE
    stm32l4xx_hal_usart_ex.c                 0x00000000   Number         0  stm32l4xx_hal_usart_ex.o ABSOLUTE
    stm32l4xx_hal_wwdg.c                     0x00000000   Number         0  stm32l4xx_hal_wwdg.o ABSOLUTE
    stm32l4xx_it.c                           0x00000000   Number         0  stm32l4xx_it.o ABSOLUTE
    stm32l4xx_ll_sdmmc.c                     0x00000000   Number         0  stm32l4xx_ll_sdmmc.o ABSOLUTE
    system_stm32l4xx.c                       0x00000000   Number         0  system_stm32l4xx.o ABSOLUTE
    RESET                                    0x08000000   Section      396  startup_stm32l431xx.o(RESET)
    !!!main                                  0x0800018c   Section        8  __main.o(!!!main)
    !!!scatter                               0x08000194   Section       92  __scatter.o(!!!scatter)
    !!handler_copy                           0x080001f0   Section       26  __scatter_copy.o(!!handler_copy)
    !!handler_null                           0x0800020c   Section        2  __scatter.o(!!handler_null)
    !!handler_zi                             0x08000210   Section       28  __scatter_zi.o(!!handler_zi)
    .ARM.Collect$$_printf_percent$$00000000  0x0800022c   Section        0  _printf_percent.o(.ARM.Collect$$_printf_percent$$00000000)
    .ARM.Collect$$_printf_percent$$00000001  0x0800022c   Section        6  _printf_n.o(.ARM.Collect$$_printf_percent$$00000001)
    .ARM.Collect$$_printf_percent$$00000002  0x08000232   Section        6  _printf_p.o(.ARM.Collect$$_printf_percent$$00000002)
    .ARM.Collect$$_printf_percent$$00000003  0x08000238   Section        6  _printf_f.o(.ARM.Collect$$_printf_percent$$00000003)
    .ARM.Collect$$_printf_percent$$00000004  0x0800023e   Section        6  _printf_e.o(.ARM.Collect$$_printf_percent$$00000004)
    .ARM.Collect$$_printf_percent$$00000005  0x08000244   Section        6  _printf_g.o(.ARM.Collect$$_printf_percent$$00000005)
    .ARM.Collect$$_printf_percent$$00000006  0x0800024a   Section        6  _printf_a.o(.ARM.Collect$$_printf_percent$$00000006)
    .ARM.Collect$$_printf_percent$$00000007  0x08000250   Section       10  _printf_ll.o(.ARM.Collect$$_printf_percent$$00000007)
    .ARM.Collect$$_printf_percent$$00000008  0x0800025a   Section        6  _printf_i.o(.ARM.Collect$$_printf_percent$$00000008)
    .ARM.Collect$$_printf_percent$$00000009  0x08000260   Section        6  _printf_d.o(.ARM.Collect$$_printf_percent$$00000009)
    .ARM.Collect$$_printf_percent$$0000000A  0x08000266   Section        6  _printf_u.o(.ARM.Collect$$_printf_percent$$0000000A)
    .ARM.Collect$$_printf_percent$$0000000B  0x0800026c   Section        6  _printf_o.o(.ARM.Collect$$_printf_percent$$0000000B)
    .ARM.Collect$$_printf_percent$$0000000C  0x08000272   Section        6  _printf_x.o(.ARM.Collect$$_printf_percent$$0000000C)
    .ARM.Collect$$_printf_percent$$0000000D  0x08000278   Section        6  _printf_lli.o(.ARM.Collect$$_printf_percent$$0000000D)
    .ARM.Collect$$_printf_percent$$0000000E  0x0800027e   Section        6  _printf_lld.o(.ARM.Collect$$_printf_percent$$0000000E)
    .ARM.Collect$$_printf_percent$$0000000F  0x08000284   Section        6  _printf_llu.o(.ARM.Collect$$_printf_percent$$0000000F)
    .ARM.Collect$$_printf_percent$$00000010  0x0800028a   Section        6  _printf_llo.o(.ARM.Collect$$_printf_percent$$00000010)
    .ARM.Collect$$_printf_percent$$00000011  0x08000290   Section        6  _printf_llx.o(.ARM.Collect$$_printf_percent$$00000011)
    .ARM.Collect$$_printf_percent$$00000012  0x08000296   Section       10  _printf_l.o(.ARM.Collect$$_printf_percent$$00000012)
    .ARM.Collect$$_printf_percent$$00000013  0x080002a0   Section        6  _printf_c.o(.ARM.Collect$$_printf_percent$$00000013)
    .ARM.Collect$$_printf_percent$$00000014  0x080002a6   Section        6  _printf_s.o(.ARM.Collect$$_printf_percent$$00000014)
    .ARM.Collect$$_printf_percent$$00000015  0x080002ac   Section        6  _printf_lc.o(.ARM.Collect$$_printf_percent$$00000015)
    .ARM.Collect$$_printf_percent$$00000016  0x080002b2   Section        6  _printf_ls.o(.ARM.Collect$$_printf_percent$$00000016)
    .ARM.Collect$$_printf_percent$$00000017  0x080002b8   Section        4  _printf_percent_end.o(.ARM.Collect$$_printf_percent$$00000017)
    .ARM.Collect$$libinit$$00000000          0x080002bc   Section        2  libinit.o(.ARM.Collect$$libinit$$00000000)
    .ARM.Collect$$libinit$$00000001          0x080002be   Section        4  libinit2.o(.ARM.Collect$$libinit$$00000001)
    .ARM.Collect$$libinit$$00000004          0x080002c2   Section        0  libinit2.o(.ARM.Collect$$libinit$$00000004)
    .ARM.Collect$$libinit$$00000006          0x080002c2   Section        0  libinit2.o(.ARM.Collect$$libinit$$00000006)
    .ARM.Collect$$libinit$$0000000C          0x080002c2   Section        0  libinit2.o(.ARM.Collect$$libinit$$0000000C)
    .ARM.Collect$$libinit$$0000000E          0x080002c2   Section        0  libinit2.o(.ARM.Collect$$libinit$$0000000E)
    .ARM.Collect$$libinit$$00000010          0x080002c2   Section        0  libinit2.o(.ARM.Collect$$libinit$$00000010)
    .ARM.Collect$$libinit$$00000011          0x080002c2   Section        6  libinit2.o(.ARM.Collect$$libinit$$00000011)
    .ARM.Collect$$libinit$$00000013          0x080002c8   Section        0  libinit2.o(.ARM.Collect$$libinit$$00000013)
    .ARM.Collect$$libinit$$00000014          0x080002c8   Section       12  libinit2.o(.ARM.Collect$$libinit$$00000014)
    .ARM.Collect$$libinit$$00000015          0x080002d4   Section        0  libinit2.o(.ARM.Collect$$libinit$$00000015)
    .ARM.Collect$$libinit$$00000017          0x080002d4   Section        0  libinit2.o(.ARM.Collect$$libinit$$00000017)
    .ARM.Collect$$libinit$$00000018          0x080002d4   Section       10  libinit2.o(.ARM.Collect$$libinit$$00000018)
    .ARM.Collect$$libinit$$00000019          0x080002de   Section        0  libinit2.o(.ARM.Collect$$libinit$$00000019)
    .ARM.Collect$$libinit$$0000001B          0x080002de   Section        0  libinit2.o(.ARM.Collect$$libinit$$0000001B)
    .ARM.Collect$$libinit$$0000001D          0x080002de   Section        0  libinit2.o(.ARM.Collect$$libinit$$0000001D)
    .ARM.Collect$$libinit$$0000001F          0x080002de   Section        0  libinit2.o(.ARM.Collect$$libinit$$0000001F)
    .ARM.Collect$$libinit$$00000021          0x080002de   Section        0  libinit2.o(.ARM.Collect$$libinit$$00000021)
    .ARM.Collect$$libinit$$00000023          0x080002de   Section        0  libinit2.o(.ARM.Collect$$libinit$$00000023)
    .ARM.Collect$$libinit$$00000025          0x080002de   Section        0  libinit2.o(.ARM.Collect$$libinit$$00000025)
    .ARM.Collect$$libinit$$00000027          0x080002de   Section        0  libinit2.o(.ARM.Collect$$libinit$$00000027)
    .ARM.Collect$$libinit$$0000002E          0x080002de   Section        0  libinit2.o(.ARM.Collect$$libinit$$0000002E)
    .ARM.Collect$$libinit$$00000030          0x080002de   Section        0  libinit2.o(.ARM.Collect$$libinit$$00000030)
    .ARM.Collect$$libinit$$00000032          0x080002de   Section        0  libinit2.o(.ARM.Collect$$libinit$$00000032)
    .ARM.Collect$$libinit$$00000034          0x080002de   Section        0  libinit2.o(.ARM.Collect$$libinit$$00000034)
    .ARM.Collect$$libinit$$00000035          0x080002de   Section        2  libinit2.o(.ARM.Collect$$libinit$$00000035)
    .ARM.Collect$$libshutdown$$00000000      0x080002e0   Section        2  libshutdown.o(.ARM.Collect$$libshutdown$$00000000)
    .ARM.Collect$$libshutdown$$00000002      0x080002e2   Section        0  libshutdown2.o(.ARM.Collect$$libshutdown$$00000002)
    .ARM.Collect$$libshutdown$$00000004      0x080002e2   Section        0  libshutdown2.o(.ARM.Collect$$libshutdown$$00000004)
    .ARM.Collect$$libshutdown$$00000007      0x080002e2   Section        0  libshutdown2.o(.ARM.Collect$$libshutdown$$00000007)
    .ARM.Collect$$libshutdown$$0000000A      0x080002e2   Section        0  libshutdown2.o(.ARM.Collect$$libshutdown$$0000000A)
    .ARM.Collect$$libshutdown$$0000000C      0x080002e2   Section        0  libshutdown2.o(.ARM.Collect$$libshutdown$$0000000C)
    .ARM.Collect$$libshutdown$$0000000F      0x080002e2   Section        0  libshutdown2.o(.ARM.Collect$$libshutdown$$0000000F)
    .ARM.Collect$$libshutdown$$00000010      0x080002e2   Section        2  libshutdown2.o(.ARM.Collect$$libshutdown$$00000010)
    .ARM.Collect$$rtentry$$00000000          0x080002e4   Section        0  __rtentry.o(.ARM.Collect$$rtentry$$00000000)
    .ARM.Collect$$rtentry$$00000002          0x080002e4   Section        0  __rtentry2.o(.ARM.Collect$$rtentry$$00000002)
    .ARM.Collect$$rtentry$$00000004          0x080002e4   Section        6  __rtentry4.o(.ARM.Collect$$rtentry$$00000004)
    .ARM.Collect$$rtentry$$00000009          0x080002ea   Section        0  __rtentry2.o(.ARM.Collect$$rtentry$$00000009)
    .ARM.Collect$$rtentry$$0000000A          0x080002ea   Section        4  __rtentry2.o(.ARM.Collect$$rtentry$$0000000A)
    .ARM.Collect$$rtentry$$0000000C          0x080002ee   Section        0  __rtentry2.o(.ARM.Collect$$rtentry$$0000000C)
    .ARM.Collect$$rtentry$$0000000D          0x080002ee   Section        8  __rtentry2.o(.ARM.Collect$$rtentry$$0000000D)
    .ARM.Collect$$rtexit$$00000000           0x080002f6   Section        2  rtexit.o(.ARM.Collect$$rtexit$$00000000)
    .ARM.Collect$$rtexit$$00000002           0x080002f8   Section        0  rtexit2.o(.ARM.Collect$$rtexit$$00000002)
    .ARM.Collect$$rtexit$$00000003           0x080002f8   Section        4  rtexit2.o(.ARM.Collect$$rtexit$$00000003)
    .ARM.Collect$$rtexit$$00000004           0x080002fc   Section        6  rtexit2.o(.ARM.Collect$$rtexit$$00000004)
    $v0                                      0x08000304   Number         0  startup_stm32l431xx.o(.text)
    .text                                    0x08000304   Section       64  startup_stm32l431xx.o(.text)
    .text                                    0x08000344   Section      240  lludivv7m.o(.text)
    .text                                    0x08000434   Section        0  vsnprintf.o(.text)
    .text                                    0x08000470   Section        0  __2sprintf.o(.text)
    .text                                    0x0800049c   Section        0  _printf_dec.o(.text)
    .text                                    0x08000514   Section        0  __printf_flags_ss_wp.o(.text)
    .text                                    0x080006a2   Section        0  strtol.o(.text)
    .text                                    0x08000712   Section        0  strlen.o(.text)
    .text                                    0x08000750   Section      138  rt_memcpy_v6.o(.text)
    .text                                    0x080007da   Section       68  rt_memclr.o(.text)
    .text                                    0x0800081e   Section       78  rt_memclr_w.o(.text)
    .text                                    0x0800086c   Section        0  heapauxi.o(.text)
    .text                                    0x08000874   Section       16  rt_ctype_table.o(.text)
    .text                                    0x08000884   Section        8  rt_errno_addr_intlibspace.o(.text)
    .text                                    0x0800088c   Section        0  _printf_pad.o(.text)
    .text                                    0x080008da   Section        0  _printf_truncate.o(.text)
    .text                                    0x080008fe   Section        0  _printf_str.o(.text)
    .text                                    0x08000950   Section        0  _printf_intcommon.o(.text)
    .text                                    0x08000a02   Section        0  _printf_charcount.o(.text)
    _printf_input_char                       0x08000a2d   Thumb Code    10  _printf_char_common.o(.text)
    .text                                    0x08000a2c   Section        0  _printf_char_common.o(.text)
    .text                                    0x08000a5c   Section        0  _sputc.o(.text)
    .text                                    0x08000a66   Section        0  _snputc.o(.text)
    .text                                    0x08000a78   Section        0  _printf_wctomb.o(.text)
    .text                                    0x08000b3c   Section        0  _printf_longlong_dec.o(.text)
    _printf_longlong_oct_internal            0x08000bb9   Thumb Code     0  _printf_oct_int_ll.o(.text)
    .text                                    0x08000bb8   Section        0  _printf_oct_int_ll.o(.text)
    _printf_hex_common                       0x08000c29   Thumb Code     0  _printf_hex_int_ll_ptr.o(.text)
    .text                                    0x08000c28   Section        0  _printf_hex_int_ll_ptr.o(.text)
    .text                                    0x08000cbc   Section        0  _strtoul.o(.text)
    .text                                    0x08000d60   Section      100  rt_memcpy_w.o(.text)
    .text                                    0x08000dc4   Section        8  libspace.o(.text)
    .text                                    0x08000dcc   Section        8  rt_locale_intlibspace.o(.text)
    .text                                    0x08000dd4   Section      138  lludiv10.o(.text)
    _fp_digits                               0x08000e5f   Thumb Code   432  _printf_fp_dec.o(.text)
    .text                                    0x08000e5e   Section        0  _printf_fp_dec.o(.text)
    .text                                    0x08001280   Section        0  _printf_fp_hex.o(.text)
    .text                                    0x08001582   Section        0  _printf_char.o(.text)
    .text                                    0x080015ae   Section        0  _printf_wchar.o(.text)
    .text                                    0x080015da   Section        0  _chval.o(.text)
    .text                                    0x080015f6   Section        0  _c16rtomb.o(.text)
    .text                                    0x0800163e   Section       74  sys_stackheap_outer.o(.text)
    .text                                    0x08001688   Section        0  _printf_fp_infnan.o(.text)
    .text                                    0x08001708   Section        0  bigflt0.o(.text)
    .text                                    0x080017ec   Section        0  exit.o(.text)
    .text                                    0x08001800   Section      124  strcmpv7em.o(.text)
    .text                                    0x0800187c   Section        0  sys_exit.o(.text)
    .text                                    0x08001888   Section        2  use_no_semi.o(.text)
    .text                                    0x0800188a   Section        0  indicate_semi.o(.text)
    [Anonymous Symbol]                       0x0800188c   Section        0  stm32l4xx_it.o(.text.BusFault_Handler)
    [Anonymous Symbol]                       0x0800188e   Section        0  stm32l4xx_it.o(.text.DebugMon_Handler)
    [Anonymous Symbol]                       0x08001890   Section        0  main.o(.text.Error_Handler)
    [Anonymous Symbol]                       0x0800189a   Section        0  stm32l4xx_hal_dma.o(.text.HAL_DMA_Abort)
    [Anonymous Symbol]                       0x080018de   Section        0  stm32l4xx_hal_dma.o(.text.HAL_DMA_Abort_IT)
    [Anonymous Symbol]                       0x08001938   Section        0  stm32l4xx_hal.o(.text.HAL_Delay)
    [Anonymous Symbol]                       0x08001960   Section        0  stm32l4xx_hal_gpio.o(.text.HAL_GPIO_Init)
    [Anonymous Symbol]                       0x08001b04   Section        0  stm32l4xx_hal_gpio.o(.text.HAL_GPIO_WritePin)
    [Anonymous Symbol]                       0x08001b10   Section        0  stm32l4xx_hal.o(.text.HAL_GetTick)
    [Anonymous Symbol]                       0x08001b1c   Section        0  stm32l4xx_hal.o(.text.HAL_IncTick)
    [Anonymous Symbol]                       0x08001b36   Section        0  stm32l4xx_hal.o(.text.HAL_Init)
    [Anonymous Symbol]                       0x08001b52   Section        0  stm32l4xx_hal.o(.text.HAL_InitTick)
    [Anonymous Symbol]                       0x08001ba6   Section        0  stm32l4xx_hal_msp.o(.text.HAL_MspInit)
    [Anonymous Symbol]                       0x08001bd8   Section        0  stm32l4xx_hal_cortex.o(.text.HAL_NVIC_EnableIRQ)
    [Anonymous Symbol]                       0x08001bf8   Section        0  stm32l4xx_hal_cortex.o(.text.HAL_NVIC_SetPriority)
    [Anonymous Symbol]                       0x08001c4e   Section        0  stm32l4xx_hal_cortex.o(.text.HAL_NVIC_SetPriorityGrouping)
    [Anonymous Symbol]                       0x08001c70   Section        0  stm32l4xx_hal_pwr_ex.o(.text.HAL_PWREx_ControlVoltageScaling)
    [Anonymous Symbol]                       0x08001cf4   Section        0  stm32l4xx_hal_pwr_ex.o(.text.HAL_PWREx_GetVoltageRange)
    [Anonymous Symbol]                       0x08001d04   Section        0  stm32l4xx_hal_rcc_ex.o(.text.HAL_RCCEx_GetPeriphCLKFreq)
    [Anonymous Symbol]                       0x0800208c   Section        0  stm32l4xx_hal_rcc_ex.o(.text.HAL_RCCEx_PeriphCLKConfig)
    [Anonymous Symbol]                       0x080022f4   Section        0  stm32l4xx_hal_rcc.o(.text.HAL_RCC_ClockConfig)
    [Anonymous Symbol]                       0x08002454   Section        0  stm32l4xx_hal_rcc.o(.text.HAL_RCC_GetPCLK1Freq)
    [Anonymous Symbol]                       0x0800247e   Section        0  stm32l4xx_hal_rcc.o(.text.HAL_RCC_GetPCLK2Freq)
    [Anonymous Symbol]                       0x080024a8   Section        0  stm32l4xx_hal_rcc.o(.text.HAL_RCC_GetSysClockFreq)
    [Anonymous Symbol]                       0x08002560   Section        0  stm32l4xx_hal_rcc.o(.text.HAL_RCC_OscConfig)
    [Anonymous Symbol]                       0x08002b54   Section        0  stm32l4xx_hal_sd.o(.text.HAL_SD_GetCardCSD)
    [Anonymous Symbol]                       0x08002cd6   Section        0  stm32l4xx_hal_sd.o(.text.HAL_SD_GetCardState)
    [Anonymous Symbol]                       0x08002cfe   Section        0  stm32l4xx_hal_sd.o(.text.HAL_SD_Init)
    [Anonymous Symbol]                       0x08002d3c   Section        0  stm32l4xx_hal_sd.o(.text.HAL_SD_InitCard)
    [Anonymous Symbol]                       0x08002f82   Section        0  stm32l4xx_hal_msp.o(.text.HAL_SD_MspInit)
    [Anonymous Symbol]                       0x08003064   Section        0  stm32l4xx_hal_sd.o(.text.HAL_SD_ReadBlocks)
    [Anonymous Symbol]                       0x08003234   Section        0  stm32l4xx_hal_sd.o(.text.HAL_SD_WriteBlocks)
    [Anonymous Symbol]                       0x080033fa   Section        0  stm32l4xx_hal_cortex.o(.text.HAL_SYSTICK_Config)
    [Anonymous Symbol]                       0x08003426   Section        0  stm32l4xx_hal_uart.o(.text.HAL_UARTEx_RxEventCallback)
    [Anonymous Symbol]                       0x08003428   Section        0  stm32l4xx_hal_uart_ex.o(.text.HAL_UARTEx_WakeupCallback)
    [Anonymous Symbol]                       0x0800342a   Section        0  stm32l4xx_hal_uart.o(.text.HAL_UART_ErrorCallback)
    [Anonymous Symbol]                       0x0800342c   Section        0  stm32l4xx_hal_uart.o(.text.HAL_UART_IRQHandler)
    [Anonymous Symbol]                       0x080036f6   Section        0  stm32l4xx_hal_uart.o(.text.HAL_UART_Init)
    [Anonymous Symbol]                       0x08003754   Section        0  stm32l4xx_hal_msp.o(.text.HAL_UART_MspInit)
    [Anonymous Symbol]                       0x08003842   Section        0  stm32l4xx_hal_uart.o(.text.HAL_UART_TxCpltCallback)
    [Anonymous Symbol]                       0x08003844   Section        0  stm32l4xx_it.o(.text.HardFault_Handler)
    [Anonymous Symbol]                       0x08003846   Section        0  stm32l4xx_it.o(.text.LPUART1_IRQHandler)
    [Anonymous Symbol]                       0x08003854   Section        0  stm32l4xx_it.o(.text.MemManage_Handler)
    [Anonymous Symbol]                       0x08003858   Section        0  stm32l4xx_it.o(.text.NMI_Handler)
    [Anonymous Symbol]                       0x0800385a   Section        0  stm32l4xx_it.o(.text.PendSV_Handler)
    RCCEx_PLLSAI1_Config                     0x0800385d   Thumb Code   314  stm32l4xx_hal_rcc_ex.o(.text.RCCEx_PLLSAI1_Config)
    [Anonymous Symbol]                       0x0800385c   Section        0  stm32l4xx_hal_rcc_ex.o(.text.RCCEx_PLLSAI1_Config)
    RCC_SetFlashLatencyFromMSIRange          0x08003997   Thumb Code   138  stm32l4xx_hal_rcc.o(.text.RCC_SetFlashLatencyFromMSIRange)
    [Anonymous Symbol]                       0x08003996   Section        0  stm32l4xx_hal_rcc.o(.text.RCC_SetFlashLatencyFromMSIRange)
    [Anonymous Symbol]                       0x08003a20   Section        0  stm32l4xx_ll_sdmmc.o(.text.SDMMC_CmdAppCommand)
    [Anonymous Symbol]                       0x08003a38   Section        0  stm32l4xx_ll_sdmmc.o(.text.SDMMC_CmdAppOperCommand)
    [Anonymous Symbol]                       0x08003a52   Section        0  stm32l4xx_ll_sdmmc.o(.text.SDMMC_CmdBlockLength)
    [Anonymous Symbol]                       0x08003a6c   Section        0  stm32l4xx_ll_sdmmc.o(.text.SDMMC_CmdGoIdleState)
    [Anonymous Symbol]                       0x08003ab4   Section        0  stm32l4xx_ll_sdmmc.o(.text.SDMMC_CmdOperCond)
    [Anonymous Symbol]                       0x08003aca   Section        0  stm32l4xx_ll_sdmmc.o(.text.SDMMC_CmdReadMultiBlock)
    [Anonymous Symbol]                       0x08003ae2   Section        0  stm32l4xx_ll_sdmmc.o(.text.SDMMC_CmdReadSingleBlock)
    [Anonymous Symbol]                       0x08003afa   Section        0  stm32l4xx_ll_sdmmc.o(.text.SDMMC_CmdSelDesel)
    [Anonymous Symbol]                       0x08003b12   Section        0  stm32l4xx_ll_sdmmc.o(.text.SDMMC_CmdSendCID)
    [Anonymous Symbol]                       0x08003b26   Section        0  stm32l4xx_ll_sdmmc.o(.text.SDMMC_CmdSendCSD)
    [Anonymous Symbol]                       0x08003b38   Section        0  stm32l4xx_ll_sdmmc.o(.text.SDMMC_CmdSendStatus)
    [Anonymous Symbol]                       0x08003b50   Section        0  stm32l4xx_ll_sdmmc.o(.text.SDMMC_CmdSetRelAdd)
    [Anonymous Symbol]                       0x08003b68   Section        0  stm32l4xx_ll_sdmmc.o(.text.SDMMC_CmdStopTransfer)
    [Anonymous Symbol]                       0x08003b86   Section        0  stm32l4xx_ll_sdmmc.o(.text.SDMMC_CmdWriteMultiBlock)
    [Anonymous Symbol]                       0x08003b9e   Section        0  stm32l4xx_ll_sdmmc.o(.text.SDMMC_CmdWriteSingleBlock)
    [Anonymous Symbol]                       0x08003bb6   Section        0  stm32l4xx_ll_sdmmc.o(.text.SDMMC_ConfigData)
    [Anonymous Symbol]                       0x08003bdc   Section        0  stm32l4xx_ll_sdmmc.o(.text.SDMMC_GetCmdResp1)
    [Anonymous Symbol]                       0x08003d08   Section        0  stm32l4xx_ll_sdmmc.o(.text.SDMMC_GetCmdResp2)
    [Anonymous Symbol]                       0x08003d60   Section        0  stm32l4xx_ll_sdmmc.o(.text.SDMMC_GetCmdResp3)
    [Anonymous Symbol]                       0x08003dac   Section        0  stm32l4xx_ll_sdmmc.o(.text.SDMMC_GetCmdResp6)
    [Anonymous Symbol]                       0x08003e44   Section        0  stm32l4xx_ll_sdmmc.o(.text.SDMMC_GetCmdResp7)
    [Anonymous Symbol]                       0x08003ea6   Section        0  stm32l4xx_ll_sdmmc.o(.text.SDMMC_GetPowerState)
    [Anonymous Symbol]                       0x08003eae   Section        0  stm32l4xx_ll_sdmmc.o(.text.SDMMC_GetResponse)
    [Anonymous Symbol]                       0x08003eb4   Section        0  stm32l4xx_ll_sdmmc.o(.text.SDMMC_Init)
    [Anonymous Symbol]                       0x08003ee0   Section        0  stm32l4xx_ll_sdmmc.o(.text.SDMMC_PowerState_ON)
    [Anonymous Symbol]                       0x08003ef0   Section        0  stm32l4xx_ll_sdmmc.o(.text.SDMMC_ReadFIFO)
    [Anonymous Symbol]                       0x08003ef6   Section        0  stm32l4xx_ll_sdmmc.o(.text.SDMMC_WriteFIFO)
    [Anonymous Symbol]                       0x08003f02   Section        0  stm32l4xx_it.o(.text.SVC_Handler)
    [Anonymous Symbol]                       0x08003f04   Section        0  stm32l4xx_it.o(.text.SysTick_Handler)
    [Anonymous Symbol]                       0x08003f14   Section        0  main.o(.text.SystemClock_Config)
    [Anonymous Symbol]                       0x08003f92   Section        0  system_stm32l4xx.o(.text.SystemInit)
    [Anonymous Symbol]                       0x08003fa4   Section        0  stm32l4xx_hal_uart.o(.text.UART_AdvFeatureConfig)
    [Anonymous Symbol]                       0x08004070   Section        0  stm32l4xx_hal_uart.o(.text.UART_CheckIdleState)
    UART_DMAAbortOnError                     0x080040d9   Thumb Code    16  stm32l4xx_hal_uart.o(.text.UART_DMAAbortOnError)
    [Anonymous Symbol]                       0x080040d8   Section        0  stm32l4xx_hal_uart.o(.text.UART_DMAAbortOnError)
    UART_EndRxTransfer                       0x080040e9   Thumb Code    80  stm32l4xx_hal_uart.o(.text.UART_EndRxTransfer)
    [Anonymous Symbol]                       0x080040e8   Section        0  stm32l4xx_hal_uart.o(.text.UART_EndRxTransfer)
    [Anonymous Symbol]                       0x08004138   Section        0  stm32l4xx_hal_uart.o(.text.UART_SetConfig)
    [Anonymous Symbol]                       0x08004338   Section        0  stm32l4xx_hal_uart.o(.text.UART_WaitOnFlagUntilTimeout)
    [Anonymous Symbol]                       0x08004414   Section        0  stm32l4xx_it.o(.text.USART1_IRQHandler)
    [Anonymous Symbol]                       0x08004420   Section        0  stm32l4xx_it.o(.text.UsageFault_Handler)
    _bCoreMonitor                            0x08004423   Thumb Code     2  b_core.o(.text._bCoreMonitor)
    [Anonymous Symbol]                       0x08004422   Section        0  b_core.o(.text._bCoreMonitor)
    _bDriverNullInit                         0x08004425   Thumb Code     4  b_device.o(.text._bDriverNullInit)
    [Anonymous Symbol]                       0x08004424   Section        0  b_device.o(.text._bDriverNullInit)
    _bHalUartDetectIdle                      0x08004429   Thumb Code   144  b_hal_uart.o(.text._bHalUartDetectIdle)
    [Anonymous Symbol]                       0x08004428   Section        0  b_hal_uart.o(.text._bHalUartDetectIdle)
    _bSD_Read                                0x080044b9   Thumb Code   346  b_drv_sd.o(.text._bSD_Read)
    [Anonymous Symbol]                       0x080044b8   Section        0  b_drv_sd.o(.text._bSD_Read)
    _bSD_SendCmd                             0x08004619   Thumb Code   152  b_drv_sd.o(.text._bSD_SendCmd)
    [Anonymous Symbol]                       0x08004618   Section        0  b_drv_sd.o(.text._bSD_SendCmd)
    _bSD_Write                               0x080046f9   Thumb Code   396  b_drv_sd.o(.text._bSD_Write)
    [Anonymous Symbol]                       0x080046f8   Section        0  b_drv_sd.o(.text._bSD_Write)
    _bTaskCore                               0x0800488d   Thumb Code    66  b_task.o(.text._bTaskCore)
    [Anonymous Symbol]                       0x0800488c   Section        0  b_task.o(.text._bTaskCore)
    _bTimerCore                              0x080048d1   Thumb Code    84  b_timer.o(.text._bTimerCore)
    [Anonymous Symbol]                       0x080048d0   Section        0  b_timer.o(.text._bTimerCore)
    [Anonymous Symbol]                       0x08004924   Section        0  b_core.o(.text.bClose)
    [Anonymous Symbol]                       0x0800495e   Section        0  b_core.o(.text.bCtl)
    [Anonymous Symbol]                       0x08004990   Section        0  b_device.o(.text.bDeviceClose)
    [Anonymous Symbol]                       0x08004a04   Section        0  b_device.o(.text.bDeviceCtl)
    [Anonymous Symbol]                       0x08004a7c   Section        0  b_device.o(.text.bDeviceInit)
    [Anonymous Symbol]                       0x08004c16   Section        0  b_device.o(.text.bDeviceIsAbnormal)
    [Anonymous Symbol]                       0x08004c38   Section        0  b_device.o(.text.bDeviceOpen)
    [Anonymous Symbol]                       0x08004ca8   Section        0  b_device.o(.text.bDeviceRead)
    [Anonymous Symbol]                       0x08004d24   Section        0  b_device.o(.text.bDeviceWrite)
    [Anonymous Symbol]                       0x08004da8   Section        0  b_core.o(.text.bExec)
    [Anonymous Symbol]                       0x08004dcc   Section        0  b_mod_fs.o(.text.bFSClose)
    [Anonymous Symbol]                       0x08004e24   Section        0  b_mod_fs.o(.text.bFSFileGetInfo)
    [Anonymous Symbol]                       0x08004e34   Section        0  b_mod_fs.o(.text.bFSGetInfo)
    [Anonymous Symbol]                       0x08004e94   Section        0  b_mod_fs.o(.text.bFSGetPartitionInfo)
    [Anonymous Symbol]                       0x08004ee0   Section        0  b_mod_fs.o(.text.bFSGetPartitionState)
    [Anonymous Symbol]                       0x08004f2e   Section        0  b_mod_fs.o(.text.bFSInit)
    [Anonymous Symbol]                       0x08004f78   Section        0  b_mod_fs.o(.text.bFSLseek)
    [Anonymous Symbol]                       0x08004fe8   Section        0  b_mod_fs.o(.text.bFSMkfs)
    [Anonymous Symbol]                       0x08005050   Section        0  b_mod_fs.o(.text.bFSMount)
    [Anonymous Symbol]                       0x080051d0   Section        0  b_mod_fs.o(.text.bFSOpen)
    [Anonymous Symbol]                       0x08005324   Section        0  b_mod_fs.o(.text.bFSPartitionErase)
    [Anonymous Symbol]                       0x080053a4   Section        0  b_mod_fs.o(.text.bFSPartitionRead)
    [Anonymous Symbol]                       0x0800543c   Section        0  b_mod_fs.o(.text.bFSPartitionWrite)
    [Anonymous Symbol]                       0x080054d4   Section        0  b_mod_fs.o(.text.bFSRead)
    [Anonymous Symbol]                       0x08005538   Section        0  b_mod_fs.o(.text.bFSWrite)
    [Anonymous Symbol]                       0x080055a0   Section        0  b_hal.o(.text.bHalGetSysTick)
    [Anonymous Symbol]                       0x080055ac   Section        0  b_hal_gpio.o(.text.bHalGpioReadPin)
    [Anonymous Symbol]                       0x080055b0   Section        0  b_hal_gpio.o(.text.bHalGpioWritePin)
    [Anonymous Symbol]                       0x080055b4   Section        0  b_hal.o(.text.bHalIncSysTick)
    [Anonymous Symbol]                       0x080055d8   Section        0  b_hal.o(.text.bHalInit)
    [Anonymous Symbol]                       0x08005658   Section        0  b_hal_sdio.o(.text.bHalSDIOReadBlocks)
    [Anonymous Symbol]                       0x0800566a   Section        0  b_hal_sdio.o(.text.bHalSDIOWriteBlocks)
    [Anonymous Symbol]                       0x0800567c   Section        0  b_hal_spi.o(.text.bHalSpiSend)
    [Anonymous Symbol]                       0x080056b8   Section        0  b_hal_spi.o(.text.bHalSpiTransfer)
    [Anonymous Symbol]                       0x080057b8   Section        0  b_hal_uart.o(.text.bHalUartSend)
    [Anonymous Symbol]                       0x080057c6   Section        0  b_hal.o(.text.bHalUserInit)
    [Anonymous Symbol]                       0x080057c8   Section        0  b_core.o(.text.bInit)
    [Anonymous Symbol]                       0x08005990   Section        0  b_util_log.o(.text.bLogOut)
    bLogParamTable                           0x08005a8c   Number         0  b_util_log.o(.text.bLogOut)
    bLogPrefix                               0x08005a90   Number         0  b_util_log.o(.text.bLogOut)
    [Anonymous Symbol]                       0x08005a98   Section        0  b_core.o(.text.bLseek)
    [Anonymous Symbol]                       0x08005abc   Section        0  mcu_stm32l41x_gpio.o(.text.bMcuGpioReadPin)
    [Anonymous Symbol]                       0x08005ae2   Section        0  mcu_stm32l41x_gpio.o(.text.bMcuGpioWritePin)
    [Anonymous Symbol]                       0x08005b0e   Section        0  mcu_stm32l41x_sdio.o(.text.bMcuSDIOReadBlocks)
    [Anonymous Symbol]                       0x08005b34   Section        0  mcu_stm32l41x_sdio.o(.text.bMcuSDIOWriteBlocks)
    [Anonymous Symbol]                       0x08005b84   Section        0  mcu_stm32l41x_spi.o(.text.bMcuSpiSend)
    [Anonymous Symbol]                       0x08005bdc   Section        0  mcu_stm32l41x_spi.o(.text.bMcuSpiTransfer)
    [Anonymous Symbol]                       0x08005c20   Section        0  mcu_stm32l41x_uart.o(.text.bMcuUartSend)
    [Anonymous Symbol]                       0x08005cb4   Section        0  b_core.o(.text.bOpen)
    [Anonymous Symbol]                       0x08005d52   Section        0  b_core.o(.text.bRead)
    [Anonymous Symbol]                       0x08005db2   Section        0  b_drv_sd.o(.text.bSD_Init)
    [Anonymous Symbol]                       0x08005dfc   Section        0  main.o(.text.bTestFs)
    [Anonymous Symbol]                       0x08005f50   Section        0  b_core.o(.text.bWrite)
    check_fs                                 0x08005fb1   Thumb Code   128  ff.o(.text.check_fs)
    [Anonymous Symbol]                       0x08005fb0   Section        0  ff.o(.text.check_fs)
    create_chain                             0x0800603d   Thumb Code   286  ff.o(.text.create_chain)
    [Anonymous Symbol]                       0x0800603c   Section        0  ff.o(.text.create_chain)
    create_partition                         0x0800615d   Thumb Code   396  ff.o(.text.create_partition)
    [Anonymous Symbol]                       0x0800615c   Section        0  ff.o(.text.create_partition)
    dir_clear                                0x080062f1   Thumb Code   102  ff.o(.text.dir_clear)
    [Anonymous Symbol]                       0x080062f0   Section        0  ff.o(.text.dir_clear)
    dir_next                                 0x08006357   Thumb Code   230  ff.o(.text.dir_next)
    [Anonymous Symbol]                       0x08006356   Section        0  ff.o(.text.dir_next)
    dir_register                             0x0800643d   Thumb Code   106  ff.o(.text.dir_register)
    [Anonymous Symbol]                       0x0800643c   Section        0  ff.o(.text.dir_register)
    dir_sdi                                  0x080064a9   Thumb Code   124  ff.o(.text.dir_sdi)
    [Anonymous Symbol]                       0x080064a8   Section        0  ff.o(.text.dir_sdi)
    [Anonymous Symbol]                       0x08006524   Section        0  diskio.o(.text.disk_initialize)
    [Anonymous Symbol]                       0x08006528   Section        0  diskio.o(.text.disk_ioctl)
    [Anonymous Symbol]                       0x0800656c   Section        0  diskio.o(.text.disk_read)
    [Anonymous Symbol]                       0x080065aa   Section        0  diskio.o(.text.disk_status)
    [Anonymous Symbol]                       0x080065b8   Section        0  diskio.o(.text.disk_write)
    [Anonymous Symbol]                       0x08006608   Section        0  ff.o(.text.f_close)
    [Anonymous Symbol]                       0x08006628   Section        0  ff.o(.text.f_getfree)
    [Anonymous Symbol]                       0x08006710   Section        0  ff.o(.text.f_lseek)
    [Anonymous Symbol]                       0x08006894   Section        0  ff.o(.text.f_mkfs)
    f_mkfs.defopt                            0x08006f24   Number         0  ff.o(.text.f_mkfs)
    [Anonymous Symbol]                       0x08006f70   Section        0  ff.o(.text.f_mount)
    [Anonymous Symbol]                       0x08006fe0   Section        0  ff.o(.text.f_open)
    [Anonymous Symbol]                       0x08007204   Section        0  ff.o(.text.f_read)
    [Anonymous Symbol]                       0x080073c0   Section        0  ff.o(.text.f_sync)
    [Anonymous Symbol]                       0x08007458   Section        0  ff.o(.text.f_write)
    find_volume                              0x08007649   Thumb Code    78  ff.o(.text.find_volume)
    [Anonymous Symbol]                       0x08007648   Section        0  ff.o(.text.find_volume)
    follow_path                              0x08007699   Thumb Code   486  ff.o(.text.follow_path)
    [Anonymous Symbol]                       0x08007698   Section        0  ff.o(.text.follow_path)
    get_fat                                  0x0800788f   Thumb Code   246  ff.o(.text.get_fat)
    [Anonymous Symbol]                       0x0800788e   Section        0  ff.o(.text.get_fat)
    get_ldnumber                             0x08007985   Thumb Code    66  ff.o(.text.get_ldnumber)
    [Anonymous Symbol]                       0x08007984   Section        0  ff.o(.text.get_ldnumber)
    [Anonymous Symbol]                       0x080079c8   Section        0  main.o(.text.main)
    mount_volume                             0x08007b7d   Thumb Code   614  ff.o(.text.mount_volume)
    [Anonymous Symbol]                       0x08007b7c   Section        0  ff.o(.text.mount_volume)
    move_window                              0x08007de9   Thumb Code    56  ff.o(.text.move_window)
    [Anonymous Symbol]                       0x08007de8   Section        0  ff.o(.text.move_window)
    put_fat                                  0x08007e21   Thumb Code   306  ff.o(.text.put_fat)
    [Anonymous Symbol]                       0x08007e20   Section        0  ff.o(.text.put_fat)
    remove_chain                             0x08007f55   Thumb Code   114  ff.o(.text.remove_chain)
    [Anonymous Symbol]                       0x08007f54   Section        0  ff.o(.text.remove_chain)
    sync_fs                                  0x08007fc7   Thumb Code   130  ff.o(.text.sync_fs)
    [Anonymous Symbol]                       0x08007fc6   Section        0  ff.o(.text.sync_fs)
    sync_window                              0x08008049   Thumb Code    68  ff.o(.text.sync_window)
    [Anonymous Symbol]                       0x08008048   Section        0  ff.o(.text.sync_window)
    validate                                 0x0800808d   Thumb Code    48  ff.o(.text.validate)
    [Anonymous Symbol]                       0x0800808c   Section        0  ff.o(.text.validate)
    CL$$btod_d2e                             0x080080bc   Section       62  btod.o(CL$$btod_d2e)
    CL$$btod_d2e_denorm_low                  0x080080fa   Section       70  btod.o(CL$$btod_d2e_denorm_low)
    CL$$btod_d2e_norm_op1                    0x08008140   Section       96  btod.o(CL$$btod_d2e_norm_op1)
    CL$$btod_div_common                      0x080081a0   Section      824  btod.o(CL$$btod_div_common)
    CL$$btod_e2e                             0x080084d8   Section      220  btod.o(CL$$btod_e2e)
    CL$$btod_ediv                            0x080085b4   Section       42  btod.o(CL$$btod_ediv)
    CL$$btod_emul                            0x080085de   Section       42  btod.o(CL$$btod_emul)
    CL$$btod_mult_common                     0x08008608   Section      580  btod.o(CL$$btod_mult_common)
    i.__ARM_fpclassify                       0x0800884c   Section        0  fpclassify.o(i.__ARM_fpclassify)
    i._is_digit                              0x0800887c   Section        0  __printf_wp.o(i._is_digit)
    locale$$code                             0x0800888c   Section       44  lc_ctype_c.o(locale$$code)
    locale$$code                             0x080088b8   Section       44  lc_numeric_c.o(locale$$code)
    $v0                                      0x080088e4   Number         0  ddiv.o(x$fpl$ddiv)
    x$fpl$ddiv                               0x080088e4   Section      692  ddiv.o(x$fpl$ddiv)
    ddiv_entry                               0x080088eb   Thumb Code     0  ddiv.o(x$fpl$ddiv)
    $v0                                      0x08008b98   Number         0  dfixu.o(x$fpl$dfixu)
    x$fpl$dfixu                              0x08008b98   Section       90  dfixu.o(x$fpl$dfixu)
    $v0                                      0x08008bf2   Number         0  dflt_clz.o(x$fpl$dfltu)
    x$fpl$dfltu                              0x08008bf2   Section       38  dflt_clz.o(x$fpl$dfltu)
    $v0                                      0x08008c18   Number         0  dmul.o(x$fpl$dmul)
    x$fpl$dmul                               0x08008c18   Section      340  dmul.o(x$fpl$dmul)
    $v0                                      0x08008d6c   Number         0  dnaninf.o(x$fpl$dnaninf)
    x$fpl$dnaninf                            0x08008d6c   Section      156  dnaninf.o(x$fpl$dnaninf)
    $v0                                      0x08008e08   Number         0  dretinf.o(x$fpl$dretinf)
    x$fpl$dretinf                            0x08008e08   Section       12  dretinf.o(x$fpl$dretinf)
    $v0                                      0x08008e14   Number         0  fpinit.o(x$fpl$fpinit)
    x$fpl$fpinit                             0x08008e14   Section       26  fpinit.o(x$fpl$fpinit)
    $v0                                      0x08008e2e   Number         0  printf1.o(x$fpl$printf1)
    x$fpl$printf1                            0x08008e2e   Section        4  printf1.o(x$fpl$printf1)
    $v0                                      0x08008e32   Number         0  printf2.o(x$fpl$printf2)
    x$fpl$printf2                            0x08008e32   Section        4  printf2.o(x$fpl$printf2)
    maptable                                 0x08008e36   Data          17  __printf_flags_ss_wp.o(.constdata)
    .constdata                               0x08008e36   Section       17  __printf_flags_ss_wp.o(.constdata)
    x$fpl$usenofp                            0x08008e36   Section        0  usenofp.o(x$fpl$usenofp)
    initial_mbstate                          0x08008e48   Data           8  _printf_wctomb.o(.constdata)
    .constdata                               0x08008e48   Section        8  _printf_wctomb.o(.constdata)
    uc_hextab                                0x08008e50   Data          20  _printf_hex_int_ll_ptr.o(.constdata)
    .constdata                               0x08008e50   Section       40  _printf_hex_int_ll_ptr.o(.constdata)
    lc_hextab                                0x08008e64   Data          20  _printf_hex_int_ll_ptr.o(.constdata)
    lc_hextab                                0x08008e78   Data          19  _printf_fp_hex.o(.constdata)
    .constdata                               0x08008e78   Section       38  _printf_fp_hex.o(.constdata)
    uc_hextab                                0x08008e8b   Data          19  _printf_fp_hex.o(.constdata)
    tenpwrs_x                                0x08008ea0   Data          60  bigflt0.o(.constdata)
    .constdata                               0x08008ea0   Section      148  bigflt0.o(.constdata)
    tenpwrs_i                                0x08008edc   Data          64  bigflt0.o(.constdata)
    ExCvt                                    0x08008f4c   Data         128  ff.o(.rodata.ExCvt)
    [Anonymous Symbol]                       0x08008f4c   Section        0  ff.o(.rodata.ExCvt)
    SpiTable                                 0x08008ffc   Data          12  mcu_stm32l41x_spi.o(.rodata.SpiTable)
    [Anonymous Symbol]                       0x08008ffc   Section        0  mcu_stm32l41x_spi.o(.rodata.SpiTable)
    bDeviceDescTable                         0x08009008   Data           8  b_device.o(.rodata.bDeviceDescTable)
    [Anonymous Symbol]                       0x08009008   Section        0  b_device.o(.rodata.bDeviceDescTable)
    bDriverNumberTable                       0x08009010   Data           2  b_device.o(.rodata.bDriverNumberTable)
    [Anonymous Symbol]                       0x08009010   Section        0  b_device.o(.rodata.bDriverNumberTable)
    bHalIf_SD                                0x08009012   Data          12  b_drv_sd.o(.rodata.bHalIf_SD)
    [Anonymous Symbol]                       0x08009012   Section        0  b_drv_sd.o(.rodata.bHalIf_SD)
    .Lswitch.table.UART_SetConfig.3          0x08009034   Data          16  stm32l4xx_hal_uart.o(.rodata.cst16)
    UartTable                                0x08009044   Data          16  mcu_stm32l41x_uart.o(.rodata.cst16)
    [Anonymous Symbol]                       0x08009044   Section        0  mcu_stm32l41x_uart.o(.rodata.cst16)
    .L.str.1                                 0x08009054   Data          19  main.o(.rodata.str1.1)
    [Anonymous Symbol]                       0x08009054   Section        0  main.o(.rodata.str1.1)
    .L.str                                   0x08009067   Data           8  main.o(.rodata.str1.1)
    .L__func__.bTestFs                       0x0800906f   Data           8  main.o(.rodata.str1.1)
    .L.str.7                                 0x08009077   Data          49  b_core.o(.rodata.str1.1)
    [Anonymous Symbol]                       0x08009077   Section        0  b_core.o(.rodata.str1.1)
    .L.str.5                                 0x080090a8   Data          49  b_core.o(.rodata.str1.1)
    .L.str.2                                 0x080090d9   Data          49  b_core.o(.rodata.str1.1)
    .L.str.4                                 0x0800910a   Data          49  b_core.o(.rodata.str1.1)
    .L.str.3                                 0x0800913b   Data          49  b_core.o(.rodata.str1.1)
    .L.str.6                                 0x0800916c   Data          49  b_core.o(.rodata.str1.1)
    .L.str.1                                 0x0800919d   Data          49  b_core.o(.rodata.str1.1)
    .L.str                                   0x080091ce   Data          34  b_core.o(.rodata.str1.1)
    .L__func__.bInit                         0x080091f0   Data           6  b_core.o(.rodata.str1.1)
    .L.str.3                                 0x080091f6   Data          14  b_device.o(.rodata.str1.1)
    [Anonymous Symbol]                       0x080091f6   Section        0  b_device.o(.rodata.str1.1)
    .L.str.6                                 0x08009204   Data           9  b_device.o(.rodata.str1.1)
    .L.str                                   0x0800920d   Data          36  b_device.o(.rodata.str1.1)
    .L__func__.bDeviceInit                   0x0800923e   Data          12  b_device.o(.rodata.str1.1)
    .L.str.6                                 0x0800924a   Data          17  b_mod_fs.o(.rodata.str1.1)
    [Anonymous Symbol]                       0x0800924a   Section        0  b_mod_fs.o(.rodata.str1.1)
    .L.str.9                                 0x0800925b   Data           9  b_mod_fs.o(.rodata.str1.1)
    .L.str.5                                 0x08009264   Data          12  b_mod_fs.o(.rodata.str1.1)
    .L.str                                   0x08009270   Data          39  b_mod_fs.o(.rodata.str1.1)
    .L__func__.bFSUnmount                    0x08009286   Data          11  b_mod_fs.o(.rodata.str1.1)
    .L__func__.bFSOpen                       0x08009297   Data           8  b_mod_fs.o(.rodata.str1.1)
    .L__func__.bFSMount                      0x0800929f   Data           9  b_mod_fs.o(.rodata.str1.1)
    .L.str.5                                 0x080092b3   Data          15  ff.o(.rodata.str1.1)
    [Anonymous Symbol]                       0x080092b3   Section        0  ff.o(.rodata.str1.1)
    f_mkfs.cst                               0x080092c2   Data          14  ff.o(.rodata.str2.2)
    [Anonymous Symbol]                       0x080092c2   Section        0  ff.o(.rodata.str2.2)
    f_mkfs.cst32                             0x080092d0   Data          14  ff.o(.rodata.str2.2)
    __tagsym$$used.0                         0x08009300   Number         0  b_core.o(bos_polling)
    __tagsym$$used.0                         0x08009304   Number         0  b_task.o(bos_polling)
    __tagsym$$used.0                         0x08009308   Number         0  b_timer.o(bos_polling)
    __tagsym$$used.0                         0x0800930c   Number         0  b_hal_uart.o(bos_polling)
    __tagsym$$used.1                         0x08009310   Number         0  b_device.o(driver_init)
    __tagsym$$used.0                         0x08009318   Number         0  b_drv_sd.o(driver_init)
    __tagsym$$used.0                         0x08009320   Number         0  b_device.o(driver_init_0)
    locale$$data                             0x08009328   Section      272  lc_ctype_c.o(locale$$data)
    __lcctype_c_name                         0x0800932c   Data           2  lc_ctype_c.o(locale$$data)
    __lcctype_c_start                        0x08009334   Data           0  lc_ctype_c.o(locale$$data)
    __lcctype_c_end                          0x08009438   Data           0  lc_ctype_c.o(locale$$data)
    locale$$data                             0x08009438   Section       28  lc_numeric_c.o(locale$$data)
    __lcnum_c_name                           0x0800943c   Data           2  lc_numeric_c.o(locale$$data)
    __lcnum_c_start                          0x08009444   Data           0  lc_numeric_c.o(locale$$data)
    __lcnum_c_point                          0x08009450   Data           0  lc_numeric_c.o(locale$$data)
    __lcnum_c_thousands                      0x08009452   Data           0  lc_numeric_c.o(locale$$data)
    __lcnum_c_grouping                       0x08009453   Data           0  lc_numeric_c.o(locale$$data)
    __lcnum_c_end                            0x08009454   Data           0  lc_numeric_c.o(locale$$data)
    bHalUartListHead                         0x20000004   Data           8  b_hal_uart.o(.data.bHalUartListHead)
    [Anonymous Symbol]                       0x20000004   Section        0  b_hal_uart.o(.data.bHalUartListHead)
    bTaskListHead                            0x2000000c   Data           8  b_task.o(.data.bTaskListHead)
    [Anonymous Symbol]                       0x2000000c   Section        0  b_task.o(.data.bTaskListHead)
    bTimerListHead                           0x20000014   Data           8  b_timer.o(.data.bTimerListHead)
    [Anonymous Symbol]                       0x20000014   Section        0  b_timer.o(.data.bTimerListHead)
    bUsDelayParam                            0x2000001c   Data           4  b_hal.o(.data.bUsDelayParam)
    [Anonymous Symbol]                       0x2000001c   Section        0  b_hal.o(.data.bUsDelayParam)
    .bss                                     0x20000028   Section       96  libspace.o(.bss)
    FatFs                                    0x20000088   Data           4  ff.o(.bss.FatFs)
    [Anonymous Symbol]                       0x20000088   Section        0  ff.o(.bss.FatFs)
    Fsid                                     0x2000008c   Data           2  ff.o(.bss.Fsid)
    [Anonymous Symbol]                       0x2000008c   Section        0  ff.o(.bss.Fsid)
    _bCoreCreateFd.init                      0x2000008e   Data           1  b_core.o(.bss._bCoreCreateFd.init)
    [Anonymous Symbol]                       0x2000008e   Section        0  b_core.o(.bss._bCoreCreateFd.init)
    bCoreFdTable                             0x20000090   Data          24  b_core.o(.bss.bCoreFdTable)
    [Anonymous Symbol]                       0x20000090   Section        0  b_core.o(.bss.bCoreFdTable)
    bDriverInterfaceTable                    0x200000a8   Data         136  b_device.o(.bss.bDriverInterfaceTable)
    [Anonymous Symbol]                       0x200000a8   Section        0  b_device.o(.bss.bDriverInterfaceTable)
    bLogBuff                                 0x20000130   Data         256  b_util_log.o(.bss.bLogBuff)
    [Anonymous Symbol]                       0x20000130   Section        0  b_util_log.o(.bss.bLogBuff)
    bMkfsBuf                                 0x20000230   Data        4096  b_mod_fs.o(.bss.bMkfsBuf)
    [Anonymous Symbol]                       0x20000230   Section        0  b_mod_fs.o(.bss.bMkfsBuf)
    bSysTick                                 0x20001230   Data           4  b_hal.o(.bss.bSysTick)
    [Anonymous Symbol]                       0x20001230   Section        0  b_hal.o(.bss.bSysTick)
    bSysTickOvr                              0x20001234   Data           4  b_hal.o(.bss.bSysTickOvr)
    [Anonymous Symbol]                       0x20001234   Section        0  b_hal.o(.bss.bSysTickOvr)
    bTestFs.f                                0x20001238   Data           1  main.o(.bss.bTestFs.f)
    [Anonymous Symbol]                       0x20001238   Section        0  main.o(.bss.bTestFs.f)
    bTestFs.file                             0x2000123c   Data        4140  main.o(.bss.bTestFs.file)
    [Anonymous Symbol]                       0x2000123c   Section        0  main.o(.bss.bTestFs.file)
    gbFSTable                                0x20002268   Data        4160  b_mod_fs.o(.bss.gbFSTable)
    [Anonymous Symbol]                       0x20002268   Section        0  b_mod_fs.o(.bss.gbFSTable)
    gbPartitionNumber                        0x200032a8   Data           1  b_mod_fs.o(.bss.gbPartitionNumber)
    [Anonymous Symbol]                       0x200032a8   Section        0  b_mod_fs.o(.bss.gbPartitionNumber)
    gpbPartition                             0x200032ac   Data           4  b_mod_fs.o(.bss.gpbPartition)
    [Anonymous Symbol]                       0x200032ac   Section        0  b_mod_fs.o(.bss.gpbPartition)
    main.tickbTestFs                         0x2000343c   Data           4  main.o(.bss.main.tickbTestFs)
    [Anonymous Symbol]                       0x2000343c   Section        0  main.o(.bss.main.tickbTestFs)
    pCurrentTaskAttr                         0x20003440   Data           4  b_task.o(.bss.pCurrentTaskAttr)
    [Anonymous Symbol]                       0x20003440   Section        0  b_task.o(.bss.pCurrentTaskAttr)
    Heap_Mem                                 0x20003448   Data         512  startup_stm32l431xx.o(HEAP)
    HEAP                                     0x20003448   Section      512  startup_stm32l431xx.o(HEAP)
    Stack_Mem                                0x20003648   Data        1024  startup_stm32l431xx.o(STACK)
    STACK                                    0x20003648   Section     1024  startup_stm32l431xx.o(STACK)
    __initial_sp                             0x20003a48   Data           0  startup_stm32l431xx.o(STACK)

    Global Symbols

    Symbol Name                              Value     Ov Type        Size  Object(Section)

    BuildAttributes$$THM_ISAv4$E$P$D$K$B$S$7EM$VFPi3$EXTD16$VFPS$VFMA$PE$A:L22UL41UL21$X:L11$S22US41US21$IEEE1$IW$~IW$USESV6$~STKCKD$USESV7$~SHL$OTIME$ROPI$IEEEJ$EBA8$UX$STANDARDLIB$REQ8$PRES8$EABIv2 0x00000000   Number         0  anon$$obj.o ABSOLUTE
    _printf_flags                            0x00000000   Number         0  printf_stubs.o ABSOLUTE
    _printf_return_value                     0x00000000   Number         0  printf_stubs.o ABSOLUTE
    _printf_sizespec                         0x00000000   Number         0  printf_stubs.o ABSOLUTE
    _printf_widthprec                        0x00000000   Number         0  printf_stubs.o ABSOLUTE
    __ARM_exceptions_init                     - Undefined Weak Reference
    __alloca_initialize                       - Undefined Weak Reference
    __arm_preinit_                            - Undefined Weak Reference
    __arm_relocate_pie_                       - Undefined Weak Reference
    __cpp_initialize__aeabi_                  - Undefined Weak Reference
    __cxa_finalize                            - Undefined Weak Reference
    __sigvec_lookup                           - Undefined Weak Reference
    _atexit_init                              - Undefined Weak Reference
    _call_atexit_fns                          - Undefined Weak Reference
    _clock_init                               - Undefined Weak Reference
    _fp_trap_init                             - Undefined Weak Reference
    _fp_trap_shutdown                         - Undefined Weak Reference
    _get_lc_collate                           - Undefined Weak Reference
    _get_lc_monetary                          - Undefined Weak Reference
    _get_lc_time                              - Undefined Weak Reference
    _getenv_init                              - Undefined Weak Reference
    _handle_redirection                       - Undefined Weak Reference
    _init_alloc                               - Undefined Weak Reference
    _init_user_alloc                          - Undefined Weak Reference
    _initio                                   - Undefined Weak Reference
    _printf_mbtowc                            - Undefined Weak Reference
    _printf_wc                                - Undefined Weak Reference
    _rand_init                                - Undefined Weak Reference
    _signal_finish                            - Undefined Weak Reference
    _signal_init                              - Undefined Weak Reference
    _terminate_alloc                          - Undefined Weak Reference
    _terminate_user_alloc                     - Undefined Weak Reference
    _terminateio                              - Undefined Weak Reference
    __Vectors_Size                           0x0000018c   Number         0  startup_stm32l431xx.o ABSOLUTE
    __Vectors                                0x08000000   Data           4  startup_stm32l431xx.o(RESET)
    __Vectors_End                            0x0800018c   Data           0  startup_stm32l431xx.o(RESET)
    __main                                   0x0800018d   Thumb Code     8  __main.o(!!!main)
    __scatterload                            0x08000195   Thumb Code     0  __scatter.o(!!!scatter)
    __scatterload_rt2                        0x08000195   Thumb Code    84  __scatter.o(!!!scatter)
    __scatterload_rt2_thumb_only             0x08000195   Thumb Code     0  __scatter.o(!!!scatter)
    __scatterload_loop                       0x0800019f   Thumb Code     0  __scatter.o(!!!scatter)
    __scatterload_copy                       0x080001f1   Thumb Code    26  __scatter_copy.o(!!handler_copy)
    __scatterload_null                       0x0800020d   Thumb Code     2  __scatter.o(!!handler_null)
    __scatterload_zeroinit                   0x08000211   Thumb Code    28  __scatter_zi.o(!!handler_zi)
    _printf_n                                0x0800022d   Thumb Code     0  _printf_n.o(.ARM.Collect$$_printf_percent$$00000001)
    _printf_percent                          0x0800022d   Thumb Code     0  _printf_percent.o(.ARM.Collect$$_printf_percent$$00000000)
    _printf_p                                0x08000233   Thumb Code     0  _printf_p.o(.ARM.Collect$$_printf_percent$$00000002)
    _printf_f                                0x08000239   Thumb Code     0  _printf_f.o(.ARM.Collect$$_printf_percent$$00000003)
    _printf_e                                0x0800023f   Thumb Code     0  _printf_e.o(.ARM.Collect$$_printf_percent$$00000004)
    _printf_g                                0x08000245   Thumb Code     0  _printf_g.o(.ARM.Collect$$_printf_percent$$00000005)
    _printf_a                                0x0800024b   Thumb Code     0  _printf_a.o(.ARM.Collect$$_printf_percent$$00000006)
    _printf_ll                               0x08000251   Thumb Code     0  _printf_ll.o(.ARM.Collect$$_printf_percent$$00000007)
    _printf_i                                0x0800025b   Thumb Code     0  _printf_i.o(.ARM.Collect$$_printf_percent$$00000008)
    _printf_d                                0x08000261   Thumb Code     0  _printf_d.o(.ARM.Collect$$_printf_percent$$00000009)
    _printf_u                                0x08000267   Thumb Code     0  _printf_u.o(.ARM.Collect$$_printf_percent$$0000000A)
    _printf_o                                0x0800026d   Thumb Code     0  _printf_o.o(.ARM.Collect$$_printf_percent$$0000000B)
    _printf_x                                0x08000273   Thumb Code     0  _printf_x.o(.ARM.Collect$$_printf_percent$$0000000C)
    _printf_lli                              0x08000279   Thumb Code     0  _printf_lli.o(.ARM.Collect$$_printf_percent$$0000000D)
    _printf_lld                              0x0800027f   Thumb Code     0  _printf_lld.o(.ARM.Collect$$_printf_percent$$0000000E)
    _printf_llu                              0x08000285   Thumb Code     0  _printf_llu.o(.ARM.Collect$$_printf_percent$$0000000F)
    _printf_llo                              0x0800028b   Thumb Code     0  _printf_llo.o(.ARM.Collect$$_printf_percent$$00000010)
    _printf_llx                              0x08000291   Thumb Code     0  _printf_llx.o(.ARM.Collect$$_printf_percent$$00000011)
    _printf_l                                0x08000297   Thumb Code     0  _printf_l.o(.ARM.Collect$$_printf_percent$$00000012)
    _printf_c                                0x080002a1   Thumb Code     0  _printf_c.o(.ARM.Collect$$_printf_percent$$00000013)
    _printf_s                                0x080002a7   Thumb Code     0  _printf_s.o(.ARM.Collect$$_printf_percent$$00000014)
    _printf_lc                               0x080002ad   Thumb Code     0  _printf_lc.o(.ARM.Collect$$_printf_percent$$00000015)
    _printf_ls                               0x080002b3   Thumb Code     0  _printf_ls.o(.ARM.Collect$$_printf_percent$$00000016)
    _printf_percent_end                      0x080002b9   Thumb Code     0  _printf_percent_end.o(.ARM.Collect$$_printf_percent$$00000017)
    __rt_lib_init                            0x080002bd   Thumb Code     0  libinit.o(.ARM.Collect$$libinit$$00000000)
    __rt_lib_init_fp_1                       0x080002bf   Thumb Code     0  libinit2.o(.ARM.Collect$$libinit$$00000001)
    __rt_lib_init_heap_1                     0x080002c3   Thumb Code     0  libinit2.o(.ARM.Collect$$libinit$$0000000C)
    __rt_lib_init_lc_common                  0x080002c3   Thumb Code     0  libinit2.o(.ARM.Collect$$libinit$$00000011)
    __rt_lib_init_preinit_1                  0x080002c3   Thumb Code     0  libinit2.o(.ARM.Collect$$libinit$$00000006)
    __rt_lib_init_rand_1                     0x080002c3   Thumb Code     0  libinit2.o(.ARM.Collect$$libinit$$00000010)
    __rt_lib_init_relocate_pie_1             0x080002c3   Thumb Code     0  libinit2.o(.ARM.Collect$$libinit$$00000004)
    __rt_lib_init_user_alloc_1               0x080002c3   Thumb Code     0  libinit2.o(.ARM.Collect$$libinit$$0000000E)
    __rt_lib_init_lc_collate_1               0x080002c9   Thumb Code     0  libinit2.o(.ARM.Collect$$libinit$$00000013)
    __rt_lib_init_lc_ctype_2                 0x080002c9   Thumb Code     0  libinit2.o(.ARM.Collect$$libinit$$00000014)
    __rt_lib_init_lc_ctype_1                 0x080002d5   Thumb Code     0  libinit2.o(.ARM.Collect$$libinit$$00000015)
    __rt_lib_init_lc_monetary_1              0x080002d5   Thumb Code     0  libinit2.o(.ARM.Collect$$libinit$$00000017)
    __rt_lib_init_lc_numeric_2               0x080002d5   Thumb Code     0  libinit2.o(.ARM.Collect$$libinit$$00000018)
    __rt_lib_init_alloca_1                   0x080002df   Thumb Code     0  libinit2.o(.ARM.Collect$$libinit$$00000030)
    __rt_lib_init_argv_1                     0x080002df   Thumb Code     0  libinit2.o(.ARM.Collect$$libinit$$0000002E)
    __rt_lib_init_atexit_1                   0x080002df   Thumb Code     0  libinit2.o(.ARM.Collect$$libinit$$0000001D)
    __rt_lib_init_clock_1                    0x080002df   Thumb Code     0  libinit2.o(.ARM.Collect$$libinit$$00000023)
    __rt_lib_init_cpp_1                      0x080002df   Thumb Code     0  libinit2.o(.ARM.Collect$$libinit$$00000034)
    __rt_lib_init_exceptions_1               0x080002df   Thumb Code     0  libinit2.o(.ARM.Collect$$libinit$$00000032)
    __rt_lib_init_fp_trap_1                  0x080002df   Thumb Code     0  libinit2.o(.ARM.Collect$$libinit$$00000021)
    __rt_lib_init_getenv_1                   0x080002df   Thumb Code     0  libinit2.o(.ARM.Collect$$libinit$$00000025)
    __rt_lib_init_lc_numeric_1               0x080002df   Thumb Code     0  libinit2.o(.ARM.Collect$$libinit$$00000019)
    __rt_lib_init_lc_time_1                  0x080002df   Thumb Code     0  libinit2.o(.ARM.Collect$$libinit$$0000001B)
    __rt_lib_init_return                     0x080002df   Thumb Code     0  libinit2.o(.ARM.Collect$$libinit$$00000035)
    __rt_lib_init_signal_1                   0x080002df   Thumb Code     0  libinit2.o(.ARM.Collect$$libinit$$0000001F)
    __rt_lib_init_stdio_1                    0x080002df   Thumb Code     0  libinit2.o(.ARM.Collect$$libinit$$00000027)
    __rt_lib_shutdown                        0x080002e1   Thumb Code     0  libshutdown.o(.ARM.Collect$$libshutdown$$00000000)
    __rt_lib_shutdown_cpp_1                  0x080002e3   Thumb Code     0  libshutdown2.o(.ARM.Collect$$libshutdown$$00000002)
    __rt_lib_shutdown_fp_trap_1              0x080002e3   Thumb Code     0  libshutdown2.o(.ARM.Collect$$libshutdown$$00000007)
    __rt_lib_shutdown_heap_1                 0x080002e3   Thumb Code     0  libshutdown2.o(.ARM.Collect$$libshutdown$$0000000F)
    __rt_lib_shutdown_return                 0x080002e3   Thumb Code     0  libshutdown2.o(.ARM.Collect$$libshutdown$$00000010)
    __rt_lib_shutdown_signal_1               0x080002e3   Thumb Code     0  libshutdown2.o(.ARM.Collect$$libshutdown$$0000000A)
    __rt_lib_shutdown_stdio_1                0x080002e3   Thumb Code     0  libshutdown2.o(.ARM.Collect$$libshutdown$$00000004)
    __rt_lib_shutdown_user_alloc_1           0x080002e3   Thumb Code     0  libshutdown2.o(.ARM.Collect$$libshutdown$$0000000C)
    __rt_entry                               0x080002e5   Thumb Code     0  __rtentry.o(.ARM.Collect$$rtentry$$00000000)
    __rt_entry_presh_1                       0x080002e5   Thumb Code     0  __rtentry2.o(.ARM.Collect$$rtentry$$00000002)
    __rt_entry_sh                            0x080002e5   Thumb Code     0  __rtentry4.o(.ARM.Collect$$rtentry$$00000004)
    __rt_entry_li                            0x080002eb   Thumb Code     0  __rtentry2.o(.ARM.Collect$$rtentry$$0000000A)
    __rt_entry_postsh_1                      0x080002eb   Thumb Code     0  __rtentry2.o(.ARM.Collect$$rtentry$$00000009)
    __rt_entry_main                          0x080002ef   Thumb Code     0  __rtentry2.o(.ARM.Collect$$rtentry$$0000000D)
    __rt_entry_postli_1                      0x080002ef   Thumb Code     0  __rtentry2.o(.ARM.Collect$$rtentry$$0000000C)
    __rt_exit                                0x080002f7   Thumb Code     0  rtexit.o(.ARM.Collect$$rtexit$$00000000)
    __rt_exit_ls                             0x080002f9   Thumb Code     0  rtexit2.o(.ARM.Collect$$rtexit$$00000003)
    __rt_exit_prels_1                        0x080002f9   Thumb Code     0  rtexit2.o(.ARM.Collect$$rtexit$$00000002)
    __rt_exit_exit                           0x080002fd   Thumb Code     0  rtexit2.o(.ARM.Collect$$rtexit$$00000004)
    Reset_Handler                            0x08000305   Thumb Code     8  startup_stm32l431xx.o(.text)
    ADC1_IRQHandler                          0x0800031f   Thumb Code     0  startup_stm32l431xx.o(.text)
    CAN1_RX0_IRQHandler                      0x0800031f   Thumb Code     0  startup_stm32l431xx.o(.text)
    CAN1_RX1_IRQHandler                      0x0800031f   Thumb Code     0  startup_stm32l431xx.o(.text)
    CAN1_SCE_IRQHandler                      0x0800031f   Thumb Code     0  startup_stm32l431xx.o(.text)
    CAN1_TX_IRQHandler                       0x0800031f   Thumb Code     0  startup_stm32l431xx.o(.text)
    COMP_IRQHandler                          0x0800031f   Thumb Code     0  startup_stm32l431xx.o(.text)
    CRS_IRQHandler                           0x0800031f   Thumb Code     0  startup_stm32l431xx.o(.text)
    DMA1_Channel1_IRQHandler                 0x0800031f   Thumb Code     0  startup_stm32l431xx.o(.text)
    DMA1_Channel2_IRQHandler                 0x0800031f   Thumb Code     0  startup_stm32l431xx.o(.text)
    DMA1_Channel3_IRQHandler                 0x0800031f   Thumb Code     0  startup_stm32l431xx.o(.text)
    DMA1_Channel4_IRQHandler                 0x0800031f   Thumb Code     0  startup_stm32l431xx.o(.text)
    DMA1_Channel5_IRQHandler                 0x0800031f   Thumb Code     0  startup_stm32l431xx.o(.text)
    DMA1_Channel6_IRQHandler                 0x0800031f   Thumb Code     0  startup_stm32l431xx.o(.text)
    DMA1_Channel7_IRQHandler                 0x0800031f   Thumb Code     0  startup_stm32l431xx.o(.text)
    DMA2_Channel1_IRQHandler                 0x0800031f   Thumb Code     0  startup_stm32l431xx.o(.text)
    DMA2_Channel2_IRQHandler                 0x0800031f   Thumb Code     0  startup_stm32l431xx.o(.text)
    DMA2_Channel3_IRQHandler                 0x0800031f   Thumb Code     0  startup_stm32l431xx.o(.text)
    DMA2_Channel4_IRQHandler                 0x0800031f   Thumb Code     0  startup_stm32l431xx.o(.text)
    DMA2_Channel5_IRQHandler                 0x0800031f   Thumb Code     0  startup_stm32l431xx.o(.text)
    DMA2_Channel6_IRQHandler                 0x0800031f   Thumb Code     0  startup_stm32l431xx.o(.text)
    DMA2_Channel7_IRQHandler                 0x0800031f   Thumb Code     0  startup_stm32l431xx.o(.text)
    EXTI0_IRQHandler                         0x0800031f   Thumb Code     0  startup_stm32l431xx.o(.text)
    EXTI15_10_IRQHandler                     0x0800031f   Thumb Code     0  startup_stm32l431xx.o(.text)
    EXTI1_IRQHandler                         0x0800031f   Thumb Code     0  startup_stm32l431xx.o(.text)
    EXTI2_IRQHandler                         0x0800031f   Thumb Code     0  startup_stm32l431xx.o(.text)
    EXTI3_IRQHandler                         0x0800031f   Thumb Code     0  startup_stm32l431xx.o(.text)
    EXTI4_IRQHandler                         0x0800031f   Thumb Code     0  startup_stm32l431xx.o(.text)
    EXTI9_5_IRQHandler                       0x0800031f   Thumb Code     0  startup_stm32l431xx.o(.text)
    FLASH_IRQHandler                         0x0800031f   Thumb Code     0  startup_stm32l431xx.o(.text)
    FPU_IRQHandler                           0x0800031f   Thumb Code     0  startup_stm32l431xx.o(.text)
    I2C1_ER_IRQHandler                       0x0800031f   Thumb Code     0  startup_stm32l431xx.o(.text)
    I2C1_EV_IRQHandler                       0x0800031f   Thumb Code     0  startup_stm32l431xx.o(.text)
    I2C2_ER_IRQHandler                       0x0800031f   Thumb Code     0  startup_stm32l431xx.o(.text)
    I2C2_EV_IRQHandler                       0x0800031f   Thumb Code     0  startup_stm32l431xx.o(.text)
    I2C3_ER_IRQHandler                       0x0800031f   Thumb Code     0  startup_stm32l431xx.o(.text)
    I2C3_EV_IRQHandler                       0x0800031f   Thumb Code     0  startup_stm32l431xx.o(.text)
    LPTIM1_IRQHandler                        0x0800031f   Thumb Code     0  startup_stm32l431xx.o(.text)
    LPTIM2_IRQHandler                        0x0800031f   Thumb Code     0  startup_stm32l431xx.o(.text)
    PVD_PVM_IRQHandler                       0x0800031f   Thumb Code     0  startup_stm32l431xx.o(.text)
    QUADSPI_IRQHandler                       0x0800031f   Thumb Code     0  startup_stm32l431xx.o(.text)
    RCC_IRQHandler                           0x0800031f   Thumb Code     0  startup_stm32l431xx.o(.text)
    RNG_IRQHandler                           0x0800031f   Thumb Code     0  startup_stm32l431xx.o(.text)
    RTC_Alarm_IRQHandler                     0x0800031f   Thumb Code     0  startup_stm32l431xx.o(.text)
    RTC_WKUP_IRQHandler                      0x0800031f   Thumb Code     0  startup_stm32l431xx.o(.text)
    SAI1_IRQHandler                          0x0800031f   Thumb Code     0  startup_stm32l431xx.o(.text)
    SDMMC1_IRQHandler                        0x0800031f   Thumb Code     0  startup_stm32l431xx.o(.text)
    SPI1_IRQHandler                          0x0800031f   Thumb Code     0  startup_stm32l431xx.o(.text)
    SPI2_IRQHandler                          0x0800031f   Thumb Code     0  startup_stm32l431xx.o(.text)
    SPI3_IRQHandler                          0x0800031f   Thumb Code     0  startup_stm32l431xx.o(.text)
    SWPMI1_IRQHandler                        0x0800031f   Thumb Code     0  startup_stm32l431xx.o(.text)
    TAMP_STAMP_IRQHandler                    0x0800031f   Thumb Code     0  startup_stm32l431xx.o(.text)
    TIM1_BRK_TIM15_IRQHandler                0x0800031f   Thumb Code     0  startup_stm32l431xx.o(.text)
    TIM1_CC_IRQHandler                       0x0800031f   Thumb Code     0  startup_stm32l431xx.o(.text)
    TIM1_TRG_COM_IRQHandler                  0x0800031f   Thumb Code     0  startup_stm32l431xx.o(.text)
    TIM1_UP_TIM16_IRQHandler                 0x0800031f   Thumb Code     0  startup_stm32l431xx.o(.text)
    TIM2_IRQHandler                          0x0800031f   Thumb Code     0  startup_stm32l431xx.o(.text)
    TIM6_DAC_IRQHandler                      0x0800031f   Thumb Code     0  startup_stm32l431xx.o(.text)
    TIM7_IRQHandler                          0x0800031f   Thumb Code     0  startup_stm32l431xx.o(.text)
    TSC_IRQHandler                           0x0800031f   Thumb Code     0  startup_stm32l431xx.o(.text)
    USART2_IRQHandler                        0x0800031f   Thumb Code     0  startup_stm32l431xx.o(.text)
    USART3_IRQHandler                        0x0800031f   Thumb Code     0  startup_stm32l431xx.o(.text)
    WWDG_IRQHandler                          0x0800031f   Thumb Code     0  startup_stm32l431xx.o(.text)
    __user_initial_stackheap                 0x08000321   Thumb Code     0  startup_stm32l431xx.o(.text)
    __aeabi_uldivmod                         0x08000345   Thumb Code     0  lludivv7m.o(.text)
    _ll_udiv                                 0x08000345   Thumb Code   240  lludivv7m.o(.text)
    vsnprintf                                0x08000435   Thumb Code    56  vsnprintf.o(.text)
    __2sprintf                               0x08000471   Thumb Code    38  __2sprintf.o(.text)
    _printf_int_dec                          0x0800049d   Thumb Code   104  _printf_dec.o(.text)
    __printf                                 0x08000515   Thumb Code   388  __printf_flags_ss_wp.o(.text)
    strtol                                   0x080006a3   Thumb Code   112  strtol.o(.text)
    strlen                                   0x08000713   Thumb Code    62  strlen.o(.text)
    __aeabi_memcpy                           0x08000751   Thumb Code     0  rt_memcpy_v6.o(.text)
    __rt_memcpy                              0x08000751   Thumb Code   138  rt_memcpy_v6.o(.text)
    _memcpy_lastbytes                        0x080007b7   Thumb Code     0  rt_memcpy_v6.o(.text)
    __aeabi_memclr                           0x080007db   Thumb Code     0  rt_memclr.o(.text)
    __rt_memclr                              0x080007db   Thumb Code     0  rt_memclr.o(.text)
    _memset                                  0x080007df   Thumb Code    64  rt_memclr.o(.text)
    __aeabi_memclr4                          0x0800081f   Thumb Code     0  rt_memclr_w.o(.text)
    __aeabi_memclr8                          0x0800081f   Thumb Code     0  rt_memclr_w.o(.text)
    __rt_memclr_w                            0x0800081f   Thumb Code     0  rt_memclr_w.o(.text)
    _memset_w                                0x08000823   Thumb Code    74  rt_memclr_w.o(.text)
    __use_two_region_memory                  0x0800086d   Thumb Code     2  heapauxi.o(.text)
    __rt_heap_escrow$2region                 0x0800086f   Thumb Code     2  heapauxi.o(.text)
    __rt_heap_expand$2region                 0x08000871   Thumb Code     2  heapauxi.o(.text)
    __rt_ctype_table                         0x08000875   Thumb Code    16  rt_ctype_table.o(.text)
    __aeabi_errno_addr                       0x08000885   Thumb Code     8  rt_errno_addr_intlibspace.o(.text)
    __errno$intlibspace                      0x08000885   Thumb Code     0  rt_errno_addr_intlibspace.o(.text)
    __rt_errno_addr$intlibspace              0x08000885   Thumb Code     0  rt_errno_addr_intlibspace.o(.text)
    _printf_pre_padding                      0x0800088d   Thumb Code    44  _printf_pad.o(.text)
    _printf_post_padding                     0x080008b9   Thumb Code    34  _printf_pad.o(.text)
    _printf_truncate_signed                  0x080008db   Thumb Code    18  _printf_truncate.o(.text)
    _printf_truncate_unsigned                0x080008ed   Thumb Code    18  _printf_truncate.o(.text)
    _printf_str                              0x080008ff   Thumb Code    82  _printf_str.o(.text)
    _printf_int_common                       0x08000951   Thumb Code   178  _printf_intcommon.o(.text)
    _printf_charcount                        0x08000a03   Thumb Code    40  _printf_charcount.o(.text)
    _printf_char_common                      0x08000a37   Thumb Code    32  _printf_char_common.o(.text)
    _sputc                                   0x08000a5d   Thumb Code    10  _sputc.o(.text)
    _snputc                                  0x08000a67   Thumb Code    16  _snputc.o(.text)
    _printf_wctomb                           0x08000a79   Thumb Code   182  _printf_wctomb.o(.text)
    _printf_longlong_dec                     0x08000b3d   Thumb Code   108  _printf_longlong_dec.o(.text)
    _printf_longlong_oct                     0x08000bb9   Thumb Code    68  _printf_oct_int_ll.o(.text)
    _printf_int_oct                          0x08000bfd   Thumb Code    24  _printf_oct_int_ll.o(.text)
    _printf_ll_oct                           0x08000c15   Thumb Code    12  _printf_oct_int_ll.o(.text)
    _printf_longlong_hex                     0x08000c29   Thumb Code    86  _printf_hex_int_ll_ptr.o(.text)
    _printf_int_hex                          0x08000c7f   Thumb Code    28  _printf_hex_int_ll_ptr.o(.text)
    _printf_ll_hex                           0x08000c9b   Thumb Code    12  _printf_hex_int_ll_ptr.o(.text)
    _printf_hex_ptr                          0x08000ca7   Thumb Code    18  _printf_hex_int_ll_ptr.o(.text)
    _strtoul                                 0x08000cbd   Thumb Code   158  _strtoul.o(.text)
    __aeabi_memcpy4                          0x08000d61   Thumb Code     0  rt_memcpy_w.o(.text)
    __aeabi_memcpy8                          0x08000d61   Thumb Code     0  rt_memcpy_w.o(.text)
    __rt_memcpy_w                            0x08000d61   Thumb Code   100  rt_memcpy_w.o(.text)
    _memcpy_lastbytes_aligned                0x08000da9   Thumb Code     0  rt_memcpy_w.o(.text)
    __user_libspace                          0x08000dc5   Thumb Code     8  libspace.o(.text)
    __user_perproc_libspace                  0x08000dc5   Thumb Code     0  libspace.o(.text)
    __user_perthread_libspace                0x08000dc5   Thumb Code     0  libspace.o(.text)
    __rt_locale                              0x08000dcd   Thumb Code     8  rt_locale_intlibspace.o(.text)
    _ll_udiv10                               0x08000dd5   Thumb Code   138  lludiv10.o(.text)
    _printf_fp_dec_real                      0x0800100f   Thumb Code   620  _printf_fp_dec.o(.text)
    _printf_fp_hex_real                      0x08001281   Thumb Code   756  _printf_fp_hex.o(.text)
    _printf_cs_common                        0x08001583   Thumb Code    20  _printf_char.o(.text)
    _printf_char                             0x08001597   Thumb Code    16  _printf_char.o(.text)
    _printf_string                           0x080015a7   Thumb Code     8  _printf_char.o(.text)
    _printf_lcs_common                       0x080015af   Thumb Code    20  _printf_wchar.o(.text)
    _printf_wchar                            0x080015c3   Thumb Code    16  _printf_wchar.o(.text)
    _printf_wstring                          0x080015d3   Thumb Code     8  _printf_wchar.o(.text)
    _chval                                   0x080015db   Thumb Code    28  _chval.o(.text)
    _c16rtomb                                0x080015f7   Thumb Code    72  _c16rtomb.o(.text)
    _wcrtomb                                 0x080015f7   Thumb Code     0  _c16rtomb.o(.text)
    __user_setup_stackheap                   0x0800163f   Thumb Code    74  sys_stackheap_outer.o(.text)
    _printf_fp_infnan                        0x08001689   Thumb Code   112  _printf_fp_infnan.o(.text)
    _btod_etento                             0x08001709   Thumb Code   224  bigflt0.o(.text)
    exit                                     0x080017ed   Thumb Code    18  exit.o(.text)
    strcmp                                   0x08001801   Thumb Code   124  strcmpv7em.o(.text)
    _sys_exit                                0x0800187d   Thumb Code     8  sys_exit.o(.text)
    __I$use$semihosting                      0x08001889   Thumb Code     0  use_no_semi.o(.text)
    __use_no_semihosting_swi                 0x08001889   Thumb Code     2  use_no_semi.o(.text)
    __semihosting_library_function           0x0800188b   Thumb Code     0  indicate_semi.o(.text)
    BusFault_Handler                         0x0800188d   Thumb Code     2  stm32l4xx_it.o(.text.BusFault_Handler)
    DebugMon_Handler                         0x0800188f   Thumb Code     2  stm32l4xx_it.o(.text.DebugMon_Handler)
    Error_Handler                            0x08001891   Thumb Code    10  main.o(.text.Error_Handler)
    HAL_DMA_Abort                            0x0800189b   Thumb Code    68  stm32l4xx_hal_dma.o(.text.HAL_DMA_Abort)
    HAL_DMA_Abort_IT                         0x080018df   Thumb Code    90  stm32l4xx_hal_dma.o(.text.HAL_DMA_Abort_IT)
    HAL_Delay                                0x08001939   Thumb Code    40  stm32l4xx_hal.o(.text.HAL_Delay)
    HAL_GPIO_Init                            0x08001961   Thumb Code   414  stm32l4xx_hal_gpio.o(.text.HAL_GPIO_Init)
    HAL_GPIO_WritePin                        0x08001b05   Thumb Code    12  stm32l4xx_hal_gpio.o(.text.HAL_GPIO_WritePin)
    HAL_GetTick                              0x08001b11   Thumb Code    12  stm32l4xx_hal.o(.text.HAL_GetTick)
    HAL_IncTick                              0x08001b1d   Thumb Code    26  stm32l4xx_hal.o(.text.HAL_IncTick)
    HAL_Init                                 0x08001b37   Thumb Code    28  stm32l4xx_hal.o(.text.HAL_Init)
    HAL_InitTick                             0x08001b53   Thumb Code    84  stm32l4xx_hal.o(.text.HAL_InitTick)
    HAL_MspInit                              0x08001ba7   Thumb Code    50  stm32l4xx_hal_msp.o(.text.HAL_MspInit)
    HAL_NVIC_EnableIRQ                       0x08001bd9   Thumb Code    32  stm32l4xx_hal_cortex.o(.text.HAL_NVIC_EnableIRQ)
    HAL_NVIC_SetPriority                     0x08001bf9   Thumb Code    86  stm32l4xx_hal_cortex.o(.text.HAL_NVIC_SetPriority)
    HAL_NVIC_SetPriorityGrouping             0x08001c4f   Thumb Code    32  stm32l4xx_hal_cortex.o(.text.HAL_NVIC_SetPriorityGrouping)
    HAL_PWREx_ControlVoltageScaling          0x08001c71   Thumb Code   132  stm32l4xx_hal_pwr_ex.o(.text.HAL_PWREx_ControlVoltageScaling)
    HAL_PWREx_GetVoltageRange                0x08001cf5   Thumb Code    16  stm32l4xx_hal_pwr_ex.o(.text.HAL_PWREx_GetVoltageRange)
    HAL_RCCEx_GetPeriphCLKFreq               0x08001d05   Thumb Code   904  stm32l4xx_hal_rcc_ex.o(.text.HAL_RCCEx_GetPeriphCLKFreq)
    HAL_RCCEx_PeriphCLKConfig                0x0800208d   Thumb Code   614  stm32l4xx_hal_rcc_ex.o(.text.HAL_RCCEx_PeriphCLKConfig)
    HAL_RCC_ClockConfig                      0x080022f5   Thumb Code   352  stm32l4xx_hal_rcc.o(.text.HAL_RCC_ClockConfig)
    HAL_RCC_GetPCLK1Freq                     0x08002455   Thumb Code    42  stm32l4xx_hal_rcc.o(.text.HAL_RCC_GetPCLK1Freq)
    HAL_RCC_GetPCLK2Freq                     0x0800247f   Thumb Code    42  stm32l4xx_hal_rcc.o(.text.HAL_RCC_GetPCLK2Freq)
    HAL_RCC_GetSysClockFreq                  0x080024a9   Thumb Code   182  stm32l4xx_hal_rcc.o(.text.HAL_RCC_GetSysClockFreq)
    HAL_RCC_OscConfig                        0x08002561   Thumb Code  1524  stm32l4xx_hal_rcc.o(.text.HAL_RCC_OscConfig)
    HAL_SD_GetCardCSD                        0x08002b55   Thumb Code   386  stm32l4xx_hal_sd.o(.text.HAL_SD_GetCardCSD)
    HAL_SD_GetCardState                      0x08002cd7   Thumb Code    40  stm32l4xx_hal_sd.o(.text.HAL_SD_GetCardState)
    HAL_SD_Init                              0x08002cff   Thumb Code    62  stm32l4xx_hal_sd.o(.text.HAL_SD_Init)
    HAL_SD_InitCard                          0x08002d3d   Thumb Code   582  stm32l4xx_hal_sd.o(.text.HAL_SD_InitCard)
    HAL_SD_MspInit                           0x08002f83   Thumb Code   226  stm32l4xx_hal_msp.o(.text.HAL_SD_MspInit)
    HAL_SD_ReadBlocks                        0x08003065   Thumb Code   464  stm32l4xx_hal_sd.o(.text.HAL_SD_ReadBlocks)
    HAL_SD_WriteBlocks                       0x08003235   Thumb Code   448  stm32l4xx_hal_sd.o(.text.HAL_SD_WriteBlocks)
    HAL_SYSTICK_Config                       0x080033fb   Thumb Code    44  stm32l4xx_hal_cortex.o(.text.HAL_SYSTICK_Config)
    HAL_UARTEx_RxEventCallback               0x08003427   Thumb Code     2  stm32l4xx_hal_uart.o(.text.HAL_UARTEx_RxEventCallback)
    HAL_UARTEx_WakeupCallback                0x08003429   Thumb Code     2  stm32l4xx_hal_uart_ex.o(.text.HAL_UARTEx_WakeupCallback)
    HAL_UART_ErrorCallback                   0x0800342b   Thumb Code     2  stm32l4xx_hal_uart.o(.text.HAL_UART_ErrorCallback)
    HAL_UART_IRQHandler                      0x0800342d   Thumb Code   714  stm32l4xx_hal_uart.o(.text.HAL_UART_IRQHandler)
    HAL_UART_Init                            0x080036f7   Thumb Code    94  stm32l4xx_hal_uart.o(.text.HAL_UART_Init)
    HAL_UART_MspInit                         0x08003755   Thumb Code   238  stm32l4xx_hal_msp.o(.text.HAL_UART_MspInit)
    HAL_UART_TxCpltCallback                  0x08003843   Thumb Code     2  stm32l4xx_hal_uart.o(.text.HAL_UART_TxCpltCallback)
    HardFault_Handler                        0x08003845   Thumb Code     2  stm32l4xx_it.o(.text.HardFault_Handler)
    LPUART1_IRQHandler                       0x08003847   Thumb Code    12  stm32l4xx_it.o(.text.LPUART1_IRQHandler)
    MemManage_Handler                        0x08003855   Thumb Code     2  stm32l4xx_it.o(.text.MemManage_Handler)
    NMI_Handler                              0x08003859   Thumb Code     2  stm32l4xx_it.o(.text.NMI_Handler)
    PendSV_Handler                           0x0800385b   Thumb Code     2  stm32l4xx_it.o(.text.PendSV_Handler)
    SDMMC_CmdAppCommand                      0x08003a21   Thumb Code    24  stm32l4xx_ll_sdmmc.o(.text.SDMMC_CmdAppCommand)
    SDMMC_CmdAppOperCommand                  0x08003a39   Thumb Code    26  stm32l4xx_ll_sdmmc.o(.text.SDMMC_CmdAppOperCommand)
    SDMMC_CmdBlockLength                     0x08003a53   Thumb Code    24  stm32l4xx_ll_sdmmc.o(.text.SDMMC_CmdBlockLength)
    SDMMC_CmdGoIdleState                     0x08003a6d   Thumb Code    72  stm32l4xx_ll_sdmmc.o(.text.SDMMC_CmdGoIdleState)
    SDMMC_CmdOperCond                        0x08003ab5   Thumb Code    22  stm32l4xx_ll_sdmmc.o(.text.SDMMC_CmdOperCond)
    SDMMC_CmdReadMultiBlock                  0x08003acb   Thumb Code    24  stm32l4xx_ll_sdmmc.o(.text.SDMMC_CmdReadMultiBlock)
    SDMMC_CmdReadSingleBlock                 0x08003ae3   Thumb Code    24  stm32l4xx_ll_sdmmc.o(.text.SDMMC_CmdReadSingleBlock)
    SDMMC_CmdSelDesel                        0x08003afb   Thumb Code    24  stm32l4xx_ll_sdmmc.o(.text.SDMMC_CmdSelDesel)
    SDMMC_CmdSendCID                         0x08003b13   Thumb Code    20  stm32l4xx_ll_sdmmc.o(.text.SDMMC_CmdSendCID)
    SDMMC_CmdSendCSD                         0x08003b27   Thumb Code    18  stm32l4xx_ll_sdmmc.o(.text.SDMMC_CmdSendCSD)
    SDMMC_CmdSendStatus                      0x08003b39   Thumb Code    24  stm32l4xx_ll_sdmmc.o(.text.SDMMC_CmdSendStatus)
    SDMMC_CmdSetRelAdd                       0x08003b51   Thumb Code    24  stm32l4xx_ll_sdmmc.o(.text.SDMMC_CmdSetRelAdd)
    SDMMC_CmdStopTransfer                    0x08003b69   Thumb Code    30  stm32l4xx_ll_sdmmc.o(.text.SDMMC_CmdStopTransfer)
    SDMMC_CmdWriteMultiBlock                 0x08003b87   Thumb Code    24  stm32l4xx_ll_sdmmc.o(.text.SDMMC_CmdWriteMultiBlock)
    SDMMC_CmdWriteSingleBlock                0x08003b9f   Thumb Code    24  stm32l4xx_ll_sdmmc.o(.text.SDMMC_CmdWriteSingleBlock)
    SDMMC_ConfigData                         0x08003bb7   Thumb Code    38  stm32l4xx_ll_sdmmc.o(.text.SDMMC_ConfigData)
    SDMMC_GetCmdResp1                        0x08003bdd   Thumb Code   298  stm32l4xx_ll_sdmmc.o(.text.SDMMC_GetCmdResp1)
    SDMMC_GetCmdResp2                        0x08003d09   Thumb Code    88  stm32l4xx_ll_sdmmc.o(.text.SDMMC_GetCmdResp2)
    SDMMC_GetCmdResp3                        0x08003d61   Thumb Code    74  stm32l4xx_ll_sdmmc.o(.text.SDMMC_GetCmdResp3)
    SDMMC_GetCmdResp6                        0x08003dad   Thumb Code   152  stm32l4xx_ll_sdmmc.o(.text.SDMMC_GetCmdResp6)
    SDMMC_GetCmdResp7                        0x08003e45   Thumb Code    98  stm32l4xx_ll_sdmmc.o(.text.SDMMC_GetCmdResp7)
    SDMMC_GetPowerState                      0x08003ea7   Thumb Code     8  stm32l4xx_ll_sdmmc.o(.text.SDMMC_GetPowerState)
    SDMMC_GetResponse                        0x08003eaf   Thumb Code     6  stm32l4xx_ll_sdmmc.o(.text.SDMMC_GetResponse)
    SDMMC_Init                               0x08003eb5   Thumb Code    44  stm32l4xx_ll_sdmmc.o(.text.SDMMC_Init)
    SDMMC_PowerState_ON                      0x08003ee1   Thumb Code    16  stm32l4xx_ll_sdmmc.o(.text.SDMMC_PowerState_ON)
    SDMMC_ReadFIFO                           0x08003ef1   Thumb Code     6  stm32l4xx_ll_sdmmc.o(.text.SDMMC_ReadFIFO)
    SDMMC_WriteFIFO                          0x08003ef7   Thumb Code    12  stm32l4xx_ll_sdmmc.o(.text.SDMMC_WriteFIFO)
    SVC_Handler                              0x08003f03   Thumb Code     2  stm32l4xx_it.o(.text.SVC_Handler)
    SysTick_Handler                          0x08003f05   Thumb Code    14  stm32l4xx_it.o(.text.SysTick_Handler)
    SystemClock_Config                       0x08003f15   Thumb Code   126  main.o(.text.SystemClock_Config)
    SystemInit                               0x08003f93   Thumb Code    18  system_stm32l4xx.o(.text.SystemInit)
    UART_AdvFeatureConfig                    0x08003fa5   Thumb Code   204  stm32l4xx_hal_uart.o(.text.UART_AdvFeatureConfig)
    UART_CheckIdleState                      0x08004071   Thumb Code   104  stm32l4xx_hal_uart.o(.text.UART_CheckIdleState)
    UART_SetConfig                           0x08004139   Thumb Code   496  stm32l4xx_hal_uart.o(.text.UART_SetConfig)
    UART_WaitOnFlagUntilTimeout              0x08004339   Thumb Code   220  stm32l4xx_hal_uart.o(.text.UART_WaitOnFlagUntilTimeout)
    USART1_IRQHandler                        0x08004415   Thumb Code    12  stm32l4xx_it.o(.text.USART1_IRQHandler)
    UsageFault_Handler                       0x08004421   Thumb Code     2  stm32l4xx_it.o(.text.UsageFault_Handler)
    bClose                                   0x08004925   Thumb Code    58  b_core.o(.text.bClose)
    bCtl                                     0x0800495f   Thumb Code    48  b_core.o(.text.bCtl)
    bDeviceClose                             0x08004991   Thumb Code   100  b_device.o(.text.bDeviceClose)
    bDeviceCtl                               0x08004a05   Thumb Code   108  b_device.o(.text.bDeviceCtl)
    bDeviceInit                              0x08004a7d   Thumb Code   360  b_device.o(.text.bDeviceInit)
    bDeviceIsAbnormal                        0x08004c17   Thumb Code    32  b_device.o(.text.bDeviceIsAbnormal)
    bDeviceOpen                              0x08004c39   Thumb Code   100  b_device.o(.text.bDeviceOpen)
    bDeviceRead                              0x08004ca9   Thumb Code   112  b_device.o(.text.bDeviceRead)
    bDeviceWrite                             0x08004d25   Thumb Code   116  b_device.o(.text.bDeviceWrite)
    bExec                                    0x08004da9   Thumb Code    34  b_core.o(.text.bExec)
    bFSClose                                 0x08004dcd   Thumb Code    76  b_mod_fs.o(.text.bFSClose)
    bFSFileGetInfo                           0x08004e25   Thumb Code    16  b_mod_fs.o(.text.bFSFileGetInfo)
    bFSGetInfo                               0x08004e35   Thumb Code    94  b_mod_fs.o(.text.bFSGetInfo)
    bFSGetPartitionInfo                      0x08004e95   Thumb Code    76  b_mod_fs.o(.text.bFSGetPartitionInfo)
    bFSGetPartitionState                     0x08004ee1   Thumb Code    78  b_mod_fs.o(.text.bFSGetPartitionState)
    bFSInit                                  0x08004f2f   Thumb Code    72  b_mod_fs.o(.text.bFSInit)
    bFSLseek                                 0x08004f79   Thumb Code   100  b_mod_fs.o(.text.bFSLseek)
    bFSMkfs                                  0x08004fe9   Thumb Code    96  b_mod_fs.o(.text.bFSMkfs)
    bFSMount                                 0x08005051   Thumb Code   292  b_mod_fs.o(.text.bFSMount)
    bFSOpen                                  0x080051d1   Thumb Code   264  b_mod_fs.o(.text.bFSOpen)
    bFSPartitionErase                        0x08005325   Thumb Code   126  b_mod_fs.o(.text.bFSPartitionErase)
    bFSPartitionRead                         0x080053a5   Thumb Code   150  b_mod_fs.o(.text.bFSPartitionRead)
    bFSPartitionWrite                        0x0800543d   Thumb Code   150  b_mod_fs.o(.text.bFSPartitionWrite)
    bFSRead                                  0x080054d5   Thumb Code    92  b_mod_fs.o(.text.bFSRead)
    bFSWrite                                 0x08005539   Thumb Code    92  b_mod_fs.o(.text.bFSWrite)
    bHalGetSysTick                           0x080055a1   Thumb Code    12  b_hal.o(.text.bHalGetSysTick)
    bHalGpioReadPin                          0x080055ad   Thumb Code     4  b_hal_gpio.o(.text.bHalGpioReadPin)
    bHalGpioWritePin                         0x080055b1   Thumb Code     4  b_hal_gpio.o(.text.bHalGpioWritePin)
    bHalIncSysTick                           0x080055b5   Thumb Code    36  b_hal.o(.text.bHalIncSysTick)
    bHalInit                                 0x080055d9   Thumb Code   120  b_hal.o(.text.bHalInit)
    bHalSDIOReadBlocks                       0x08005659   Thumb Code    18  b_hal_sdio.o(.text.bHalSDIOReadBlocks)
    bHalSDIOWriteBlocks                      0x0800566b   Thumb Code    18  b_hal_sdio.o(.text.bHalSDIOWriteBlocks)
    bHalSpiSend                              0x0800567d   Thumb Code    60  b_hal_spi.o(.text.bHalSpiSend)
    bHalSpiTransfer                          0x080056b9   Thumb Code   240  b_hal_spi.o(.text.bHalSpiTransfer)
    bHalUartSend                             0x080057b9   Thumb Code    14  b_hal_uart.o(.text.bHalUartSend)
    bHalUserInit                             0x080057c7   Thumb Code     2  b_hal.o(.text.bHalUserInit)
    bInit                                    0x080057c9   Thumb Code   320  b_core.o(.text.bInit)
    bLogOut                                  0x08005991   Thumb Code   252  b_util_log.o(.text.bLogOut)
    bLseek                                   0x08005a99   Thumb Code    36  b_core.o(.text.bLseek)
    bMcuGpioReadPin                          0x08005abd   Thumb Code    38  mcu_stm32l41x_gpio.o(.text.bMcuGpioReadPin)
    bMcuGpioWritePin                         0x08005ae3   Thumb Code    44  mcu_stm32l41x_gpio.o(.text.bMcuGpioWritePin)
    bMcuSDIOReadBlocks                       0x08005b0f   Thumb Code    36  mcu_stm32l41x_sdio.o(.text.bMcuSDIOReadBlocks)
    bMcuSDIOWriteBlocks                      0x08005b35   Thumb Code    78  mcu_stm32l41x_sdio.o(.text.bMcuSDIOWriteBlocks)
    bMcuSpiSend                              0x08005b85   Thumb Code    88  mcu_stm32l41x_spi.o(.text.bMcuSpiSend)
    bMcuSpiTransfer                          0x08005bdd   Thumb Code    66  mcu_stm32l41x_spi.o(.text.bMcuSpiTransfer)
    bMcuUartSend                             0x08005c21   Thumb Code   146  mcu_stm32l41x_uart.o(.text.bMcuUartSend)
    bOpen                                    0x08005cb5   Thumb Code   158  b_core.o(.text.bOpen)
    bRead                                    0x08005d53   Thumb Code    96  b_core.o(.text.bRead)
    bSD_Init                                 0x08005db3   Thumb Code    74  b_drv_sd.o(.text.bSD_Init)
    bTestFs                                  0x08005dfd   Thumb Code   268  main.o(.text.bTestFs)
    bWrite                                   0x08005f51   Thumb Code    94  b_core.o(.text.bWrite)
    disk_initialize                          0x08006525   Thumb Code     4  diskio.o(.text.disk_initialize)
    disk_ioctl                               0x08006529   Thumb Code    68  diskio.o(.text.disk_ioctl)
    disk_read                                0x0800656d   Thumb Code    62  diskio.o(.text.disk_read)
    disk_status                              0x080065ab   Thumb Code    14  diskio.o(.text.disk_status)
    disk_write                               0x080065b9   Thumb Code    80  diskio.o(.text.disk_write)
    f_close                                  0x08006609   Thumb Code    30  ff.o(.text.f_close)
    f_getfree                                0x08006629   Thumb Code   232  ff.o(.text.f_getfree)
    f_lseek                                  0x08006711   Thumb Code   388  ff.o(.text.f_lseek)
    f_mkfs                                   0x08006895   Thumb Code  1680  ff.o(.text.f_mkfs)
    f_mount                                  0x08006f71   Thumb Code   112  ff.o(.text.f_mount)
    f_open                                   0x08006fe1   Thumb Code   540  ff.o(.text.f_open)
    f_read                                   0x08007205   Thumb Code   438  ff.o(.text.f_read)
    f_sync                                   0x080073c1   Thumb Code   152  ff.o(.text.f_sync)
    f_write                                  0x08007459   Thumb Code   490  ff.o(.text.f_write)
    main                                     0x080079c9   Thumb Code   412  main.o(.text.main)
    _btod_d2e                                0x080080bd   Thumb Code    62  btod.o(CL$$btod_d2e)
    _d2e_denorm_low                          0x080080fb   Thumb Code    70  btod.o(CL$$btod_d2e_denorm_low)
    _d2e_norm_op1                            0x08008141   Thumb Code    96  btod.o(CL$$btod_d2e_norm_op1)
    __btod_div_common                        0x080081a1   Thumb Code   696  btod.o(CL$$btod_div_common)
    _e2e                                     0x080084d9   Thumb Code   220  btod.o(CL$$btod_e2e)
    _btod_ediv                               0x080085b5   Thumb Code    42  btod.o(CL$$btod_ediv)
    _btod_emul                               0x080085df   Thumb Code    42  btod.o(CL$$btod_emul)
    __btod_mult_common                       0x08008609   Thumb Code   580  btod.o(CL$$btod_mult_common)
    __ARM_fpclassify                         0x0800884d   Thumb Code    48  fpclassify.o(i.__ARM_fpclassify)
    _is_digit                                0x0800887d   Thumb Code    14  __printf_wp.o(i._is_digit)
    _get_lc_ctype                            0x0800888d   Thumb Code    44  lc_ctype_c.o(locale$$code)
    _get_lc_numeric                          0x080088b9   Thumb Code    44  lc_numeric_c.o(locale$$code)
    __aeabi_ddiv                             0x080088e5   Thumb Code     0  ddiv.o(x$fpl$ddiv)
    _ddiv                                    0x080088e5   Thumb Code   556  ddiv.o(x$fpl$ddiv)
    __aeabi_d2uiz                            0x08008b99   Thumb Code     0  dfixu.o(x$fpl$dfixu)
    _dfixu                                   0x08008b99   Thumb Code    90  dfixu.o(x$fpl$dfixu)
    __aeabi_ui2d                             0x08008bf3   Thumb Code     0  dflt_clz.o(x$fpl$dfltu)
    _dfltu                                   0x08008bf3   Thumb Code    38  dflt_clz.o(x$fpl$dfltu)
    __aeabi_dmul                             0x08008c19   Thumb Code     0  dmul.o(x$fpl$dmul)
    _dmul                                    0x08008c19   Thumb Code   332  dmul.o(x$fpl$dmul)
    __fpl_dnaninf                            0x08008d6d   Thumb Code   156  dnaninf.o(x$fpl$dnaninf)
    __fpl_dretinf                            0x08008e09   Thumb Code    12  dretinf.o(x$fpl$dretinf)
    _fp_init                                 0x08008e15   Thumb Code    26  fpinit.o(x$fpl$fpinit)
    __fplib_config_fpu_vfp                   0x08008e2d   Thumb Code     0  fpinit.o(x$fpl$fpinit)
    __fplib_config_pureend_doubles           0x08008e2d   Thumb Code     0  fpinit.o(x$fpl$fpinit)
    _printf_fp_dec                           0x08008e2f   Thumb Code     4  printf1.o(x$fpl$printf1)
    _printf_fp_hex                           0x08008e33   Thumb Code     4  printf2.o(x$fpl$printf2)
    __I$use$fp                               0x08008e36   Number         0  usenofp.o(x$fpl$usenofp)
    AHBPrescTable                            0x08008f34   Data          16  system_stm32l4xx.o(.rodata.AHBPrescTable)
    APBPrescTable                            0x08008f44   Data           8  system_stm32l4xx.o(.rodata.APBPrescTable)
    MSIRangeTable                            0x08008fcc   Data          48  system_stm32l4xx.o(.rodata.MSIRangeTable)
    bPartitionTable                          0x08009020   Data          20  main.o(.rodata.bPartitionTable)
    Region$$Table$$Base                      0x080092e0   Number         0  anon$$obj.o(Region$$Table)
    Region$$Table$$Limit                     0x08009300   Number         0  anon$$obj.o(Region$$Table)
    bos_polling$$Base                        0x08009300   Number         0  b_core.o(bos_polling)
    polling_bCoreMonitor                     0x08009300   Data           4  b_core.o(bos_polling)
    polling_bTaskCore                        0x08009304   Data           4  b_task.o(bos_polling)
    polling_bTimerCore                       0x08009308   Data           4  b_timer.o(bos_polling)
    polling_bHalUartDetectIdle               0x0800930c   Data           4  b_hal_uart.o(bos_polling)
    bos_polling$$Limit                       0x08009310   Number         0  b_hal_uart.o(bos_polling)
    driver_init$$Base                        0x08009310   Number         0  b_device.o(driver_init)
    init_bDriverNullInit                     0x08009310   Data           8  b_device.o(driver_init)
    initbSD_Init                             0x08009318   Data           8  b_drv_sd.o(driver_init)
    driver_init$$Limit                       0x08009320   Number         0  b_drv_sd.o(driver_init)
    driver_init_0$$Base                      0x08009320   Number         0  b_device.o(driver_init_0)
    init0_bDriverNullInit                    0x08009320   Data           8  b_device.o(driver_init_0)
    driver_init_0$$Limit                     0x08009328   Number         0  b_device.o(driver_init_0)
    __ctype                                  0x08009335   Data           0  lc_ctype_c.o(locale$$data)
    SystemCoreClock                          0x20000000   Data           4  system_stm32l4xx.o(.data.SystemCoreClock)
    uwTickFreq                               0x20000020   Data           1  stm32l4xx_hal.o(.data.uwTickFreq)
    uwTickPrio                               0x20000024   Data           4  stm32l4xx_hal.o(.data.uwTickPrio)
    __libspace_start                         0x20000028   Data          96  libspace.o(.bss)
    __temporary_stack_top$libspace           0x20000088   Data           0  libspace.o(.bss)
    hlpuart1                                 0x200032b0   Data         132  main.o(.bss.hlpuart1)
    hsd1                                     0x20003334   Data         132  main.o(.bss.hsd1)
    huart1                                   0x200033b8   Data         132  main.o(.bss.huart1)
    uwTick                                   0x20003444   Data           4  stm32l4xx_hal.o(.bss.uwTick)



==============================================================================

Memory Map of the image

  Image Entry point : 0x0800018d

  Load Region LR_IROM1 (Base: 0x08000000, Size: 0x00009480, Max: 0x00040000, ABSOLUTE)

    Execution Region ER_IROM1 (Exec base: 0x08000000, Load base: 0x08000000, Size: 0x00009454, Max: 0x00040000, ABSOLUTE)

    Exec Addr    Load Addr    Size         Type   Attr      Idx    E Section Name        Object

    0x08000000   0x08000000   0x0000018c   Data   RO            3    RESET               startup_stm32l431xx.o
    0x0800018c   0x0800018c   0x00000008   Code   RO         2165  * !!!main             c_w.l(__main.o)
    0x08000194   0x08000194   0x0000005c   Code   RO         2533    !!!scatter          c_w.l(__scatter.o)
    0x080001f0   0x080001f0   0x0000001a   Code   RO         2537    !!handler_copy      c_w.l(__scatter_copy.o)
    0x0800020a   0x0800020a   0x00000002   PAD
    0x0800020c   0x0800020c   0x00000002   Code   RO         2534    !!handler_null      c_w.l(__scatter.o)
    0x0800020e   0x0800020e   0x00000002   PAD
    0x08000210   0x08000210   0x0000001c   Code   RO         2539    !!handler_zi        c_w.l(__scatter_zi.o)
    0x0800022c   0x0800022c   0x00000000   Code   RO         2152    .ARM.Collect$$_printf_percent$$00000000  c_w.l(_printf_percent.o)
    0x0800022c   0x0800022c   0x00000006   Code   RO         2259    .ARM.Collect$$_printf_percent$$00000001  c_w.l(_printf_n.o)
    0x08000232   0x08000232   0x00000006   Code   RO         2261    .ARM.Collect$$_printf_percent$$00000002  c_w.l(_printf_p.o)
    0x08000238   0x08000238   0x00000006   Code   RO         2265    .ARM.Collect$$_printf_percent$$00000003  c_w.l(_printf_f.o)
    0x0800023e   0x0800023e   0x00000006   Code   RO         2266    .ARM.Collect$$_printf_percent$$00000004  c_w.l(_printf_e.o)
    0x08000244   0x08000244   0x00000006   Code   RO         2267    .ARM.Collect$$_printf_percent$$00000005  c_w.l(_printf_g.o)
    0x0800024a   0x0800024a   0x00000006   Code   RO         2268    .ARM.Collect$$_printf_percent$$00000006  c_w.l(_printf_a.o)
    0x08000250   0x08000250   0x0000000a   Code   RO         2273    .ARM.Collect$$_printf_percent$$00000007  c_w.l(_printf_ll.o)
    0x0800025a   0x0800025a   0x00000006   Code   RO         2263    .ARM.Collect$$_printf_percent$$00000008  c_w.l(_printf_i.o)
    0x08000260   0x08000260   0x00000006   Code   RO         2151    .ARM.Collect$$_printf_percent$$00000009  c_w.l(_printf_d.o)
    0x08000266   0x08000266   0x00000006   Code   RO         2264    .ARM.Collect$$_printf_percent$$0000000A  c_w.l(_printf_u.o)
    0x0800026c   0x0800026c   0x00000006   Code   RO         2262    .ARM.Collect$$_printf_percent$$0000000B  c_w.l(_printf_o.o)
    0x08000272   0x08000272   0x00000006   Code   RO         2260    .ARM.Collect$$_printf_percent$$0000000C  c_w.l(_printf_x.o)
    0x08000278   0x08000278   0x00000006   Code   RO         2270    .ARM.Collect$$_printf_percent$$0000000D  c_w.l(_printf_lli.o)
    0x0800027e   0x0800027e   0x00000006   Code   RO         2271    .ARM.Collect$$_printf_percent$$0000000E  c_w.l(_printf_lld.o)
    0x08000284   0x08000284   0x00000006   Code   RO         2272    .ARM.Collect$$_printf_percent$$0000000F  c_w.l(_printf_llu.o)
    0x0800028a   0x0800028a   0x00000006   Code   RO         2277    .ARM.Collect$$_printf_percent$$00000010  c_w.l(_printf_llo.o)
    0x08000290   0x08000290   0x00000006   Code   RO         2278    .ARM.Collect$$_printf_percent$$00000011  c_w.l(_printf_llx.o)
    0x08000296   0x08000296   0x0000000a   Code   RO         2274    .ARM.Collect$$_printf_percent$$00000012  c_w.l(_printf_l.o)
    0x080002a0   0x080002a0   0x00000006   Code   RO         2257    .ARM.Collect$$_printf_percent$$00000013  c_w.l(_printf_c.o)
    0x080002a6   0x080002a6   0x00000006   Code   RO         2258    .ARM.Collect$$_printf_percent$$00000014  c_w.l(_printf_s.o)
    0x080002ac   0x080002ac   0x00000006   Code   RO         2275    .ARM.Collect$$_printf_percent$$00000015  c_w.l(_printf_lc.o)
    0x080002b2   0x080002b2   0x00000006   Code   RO         2276    .ARM.Collect$$_printf_percent$$00000016  c_w.l(_printf_ls.o)
    0x080002b8   0x080002b8   0x00000004   Code   RO         2269    .ARM.Collect$$_printf_percent$$00000017  c_w.l(_printf_percent_end.o)
    0x080002bc   0x080002bc   0x00000002   Code   RO         2390    .ARM.Collect$$libinit$$00000000  c_w.l(libinit.o)
    0x080002be   0x080002be   0x00000004   Code   RO         2391    .ARM.Collect$$libinit$$00000001  c_w.l(libinit2.o)
    0x080002c2   0x080002c2   0x00000000   Code   RO         2394    .ARM.Collect$$libinit$$00000004  c_w.l(libinit2.o)
    0x080002c2   0x080002c2   0x00000000   Code   RO         2396    .ARM.Collect$$libinit$$00000006  c_w.l(libinit2.o)
    0x080002c2   0x080002c2   0x00000000   Code   RO         2399    .ARM.Collect$$libinit$$0000000C  c_w.l(libinit2.o)
    0x080002c2   0x080002c2   0x00000000   Code   RO         2401    .ARM.Collect$$libinit$$0000000E  c_w.l(libinit2.o)
    0x080002c2   0x080002c2   0x00000000   Code   RO         2403    .ARM.Collect$$libinit$$00000010  c_w.l(libinit2.o)
    0x080002c2   0x080002c2   0x00000006   Code   RO         2404    .ARM.Collect$$libinit$$00000011  c_w.l(libinit2.o)
    0x080002c8   0x080002c8   0x00000000   Code   RO         2406    .ARM.Collect$$libinit$$00000013  c_w.l(libinit2.o)
    0x080002c8   0x080002c8   0x0000000c   Code   RO         2407    .ARM.Collect$$libinit$$00000014  c_w.l(libinit2.o)
    0x080002d4   0x080002d4   0x00000000   Code   RO         2408    .ARM.Collect$$libinit$$00000015  c_w.l(libinit2.o)
    0x080002d4   0x080002d4   0x00000000   Code   RO         2410    .ARM.Collect$$libinit$$00000017  c_w.l(libinit2.o)
    0x080002d4   0x080002d4   0x0000000a   Code   RO         2411    .ARM.Collect$$libinit$$00000018  c_w.l(libinit2.o)
    0x080002de   0x080002de   0x00000000   Code   RO         2412    .ARM.Collect$$libinit$$00000019  c_w.l(libinit2.o)
    0x080002de   0x080002de   0x00000000   Code   RO         2414    .ARM.Collect$$libinit$$0000001B  c_w.l(libinit2.o)
    0x080002de   0x080002de   0x00000000   Code   RO         2416    .ARM.Collect$$libinit$$0000001D  c_w.l(libinit2.o)
    0x080002de   0x080002de   0x00000000   Code   RO         2418    .ARM.Collect$$libinit$$0000001F  c_w.l(libinit2.o)
    0x080002de   0x080002de   0x00000000   Code   RO         2420    .ARM.Collect$$libinit$$00000021  c_w.l(libinit2.o)
    0x080002de   0x080002de   0x00000000   Code   RO         2422    .ARM.Collect$$libinit$$00000023  c_w.l(libinit2.o)
    0x080002de   0x080002de   0x00000000   Code   RO         2424    .ARM.Collect$$libinit$$00000025  c_w.l(libinit2.o)
    0x080002de   0x080002de   0x00000000   Code   RO         2426    .ARM.Collect$$libinit$$00000027  c_w.l(libinit2.o)
    0x080002de   0x080002de   0x00000000   Code   RO         2430    .ARM.Collect$$libinit$$0000002E  c_w.l(libinit2.o)
    0x080002de   0x080002de   0x00000000   Code   RO         2432    .ARM.Collect$$libinit$$00000030  c_w.l(libinit2.o)
    0x080002de   0x080002de   0x00000000   Code   RO         2434    .ARM.Collect$$libinit$$00000032  c_w.l(libinit2.o)
    0x080002de   0x080002de   0x00000000   Code   RO         2436    .ARM.Collect$$libinit$$00000034  c_w.l(libinit2.o)
    0x080002de   0x080002de   0x00000002   Code   RO         2437    .ARM.Collect$$libinit$$00000035  c_w.l(libinit2.o)
    0x080002e0   0x080002e0   0x00000002   Code   RO         2498    .ARM.Collect$$libshutdown$$00000000  c_w.l(libshutdown.o)
    0x080002e2   0x080002e2   0x00000000   Code   RO         2516    .ARM.Collect$$libshutdown$$00000002  c_w.l(libshutdown2.o)
    0x080002e2   0x080002e2   0x00000000   Code   RO         2518    .ARM.Collect$$libshutdown$$00000004  c_w.l(libshutdown2.o)
    0x080002e2   0x080002e2   0x00000000   Code   RO         2521    .ARM.Collect$$libshutdown$$00000007  c_w.l(libshutdown2.o)
    0x080002e2   0x080002e2   0x00000000   Code   RO         2524    .ARM.Collect$$libshutdown$$0000000A  c_w.l(libshutdown2.o)
    0x080002e2   0x080002e2   0x00000000   Code   RO         2526    .ARM.Collect$$libshutdown$$0000000C  c_w.l(libshutdown2.o)
    0x080002e2   0x080002e2   0x00000000   Code   RO         2529    .ARM.Collect$$libshutdown$$0000000F  c_w.l(libshutdown2.o)
    0x080002e2   0x080002e2   0x00000002   Code   RO         2530    .ARM.Collect$$libshutdown$$00000010  c_w.l(libshutdown2.o)
    0x080002e4   0x080002e4   0x00000000   Code   RO         2197    .ARM.Collect$$rtentry$$00000000  c_w.l(__rtentry.o)
    0x080002e4   0x080002e4   0x00000000   Code   RO         2300    .ARM.Collect$$rtentry$$00000002  c_w.l(__rtentry2.o)
    0x080002e4   0x080002e4   0x00000006   Code   RO         2312    .ARM.Collect$$rtentry$$00000004  c_w.l(__rtentry4.o)
    0x080002ea   0x080002ea   0x00000000   Code   RO         2302    .ARM.Collect$$rtentry$$00000009  c_w.l(__rtentry2.o)
    0x080002ea   0x080002ea   0x00000004   Code   RO         2303    .ARM.Collect$$rtentry$$0000000A  c_w.l(__rtentry2.o)
    0x080002ee   0x080002ee   0x00000000   Code   RO         2305    .ARM.Collect$$rtentry$$0000000C  c_w.l(__rtentry2.o)
    0x080002ee   0x080002ee   0x00000008   Code   RO         2306    .ARM.Collect$$rtentry$$0000000D  c_w.l(__rtentry2.o)
    0x080002f6   0x080002f6   0x00000002   Code   RO         2442    .ARM.Collect$$rtexit$$00000000  c_w.l(rtexit.o)
    0x080002f8   0x080002f8   0x00000000   Code   RO         2461    .ARM.Collect$$rtexit$$00000002  c_w.l(rtexit2.o)
    0x080002f8   0x080002f8   0x00000004   Code   RO         2462    .ARM.Collect$$rtexit$$00000003  c_w.l(rtexit2.o)
    0x080002fc   0x080002fc   0x00000006   Code   RO         2463    .ARM.Collect$$rtexit$$00000004  c_w.l(rtexit2.o)
    0x08000302   0x08000302   0x00000002   PAD
    0x08000304   0x08000304   0x00000040   Code   RO            4    .text               startup_stm32l431xx.o
    0x08000344   0x08000344   0x000000f0   Code   RO         2117    .text               c_w.l(lludivv7m.o)
    0x08000434   0x08000434   0x0000003c   Code   RO         2121    .text               c_w.l(vsnprintf.o)
    0x08000470   0x08000470   0x0000002c   Code   RO         2123    .text               c_w.l(__2sprintf.o)
    0x0800049c   0x0800049c   0x00000078   Code   RO         2129    .text               c_w.l(_printf_dec.o)
    0x08000514   0x08000514   0x0000018e   Code   RO         2148    .text               c_w.l(__printf_flags_ss_wp.o)
    0x080006a2   0x080006a2   0x00000070   Code   RO         2153    .text               c_w.l(strtol.o)
    0x08000712   0x08000712   0x0000003e   Code   RO         2155    .text               c_w.l(strlen.o)
    0x08000750   0x08000750   0x0000008a   Code   RO         2157    .text               c_w.l(rt_memcpy_v6.o)
    0x080007da   0x080007da   0x00000044   Code   RO         2159    .text               c_w.l(rt_memclr.o)
    0x0800081e   0x0800081e   0x0000004e   Code   RO         2161    .text               c_w.l(rt_memclr_w.o)
    0x0800086c   0x0800086c   0x00000006   Code   RO         2163    .text               c_w.l(heapauxi.o)
    0x08000872   0x08000872   0x00000002   PAD
    0x08000874   0x08000874   0x00000010   Code   RO         2198    .text               c_w.l(rt_ctype_table.o)
    0x08000884   0x08000884   0x00000008   Code   RO         2207    .text               c_w.l(rt_errno_addr_intlibspace.o)
    0x0800088c   0x0800088c   0x0000004e   Code   RO         2209    .text               c_w.l(_printf_pad.o)
    0x080008da   0x080008da   0x00000024   Code   RO         2211    .text               c_w.l(_printf_truncate.o)
    0x080008fe   0x080008fe   0x00000052   Code   RO         2213    .text               c_w.l(_printf_str.o)
    0x08000950   0x08000950   0x000000b2   Code   RO         2215    .text               c_w.l(_printf_intcommon.o)
    0x08000a02   0x08000a02   0x00000028   Code   RO         2217    .text               c_w.l(_printf_charcount.o)
    0x08000a2a   0x08000a2a   0x00000002   PAD
    0x08000a2c   0x08000a2c   0x00000030   Code   RO         2219    .text               c_w.l(_printf_char_common.o)
    0x08000a5c   0x08000a5c   0x0000000a   Code   RO         2221    .text               c_w.l(_sputc.o)
    0x08000a66   0x08000a66   0x00000010   Code   RO         2223    .text               c_w.l(_snputc.o)
    0x08000a76   0x08000a76   0x00000002   PAD
    0x08000a78   0x08000a78   0x000000c2   Code   RO         2225    .text               c_w.l(_printf_wctomb.o)
    0x08000b3a   0x08000b3a   0x00000002   PAD
    0x08000b3c   0x08000b3c   0x0000007c   Code   RO         2228    .text               c_w.l(_printf_longlong_dec.o)
    0x08000bb8   0x08000bb8   0x00000070   Code   RO         2234    .text               c_w.l(_printf_oct_int_ll.o)
    0x08000c28   0x08000c28   0x00000094   Code   RO         2254    .text               c_w.l(_printf_hex_int_ll_ptr.o)
    0x08000cbc   0x08000cbc   0x000000a4   Code   RO         2279    .text               c_w.l(_strtoul.o)
    0x08000d60   0x08000d60   0x00000064   Code   RO         2281    .text               c_w.l(rt_memcpy_w.o)
    0x08000dc4   0x08000dc4   0x00000008   Code   RO         2296    .text               c_w.l(libspace.o)
    0x08000dcc   0x08000dcc   0x00000008   Code   RO         2319    .text               c_w.l(rt_locale_intlibspace.o)
    0x08000dd4   0x08000dd4   0x0000008a   Code   RO         2321    .text               c_w.l(lludiv10.o)
    0x08000e5e   0x08000e5e   0x00000422   Code   RO         2323    .text               c_w.l(_printf_fp_dec.o)
    0x08001280   0x08001280   0x00000302   Code   RO         2327    .text               c_w.l(_printf_fp_hex.o)
    0x08001582   0x08001582   0x0000002c   Code   RO         2332    .text               c_w.l(_printf_char.o)
    0x080015ae   0x080015ae   0x0000002c   Code   RO         2334    .text               c_w.l(_printf_wchar.o)
    0x080015da   0x080015da   0x0000001c   Code   RO         2336    .text               c_w.l(_chval.o)
    0x080015f6   0x080015f6   0x00000048   Code   RO         2338    .text               c_w.l(_c16rtomb.o)
    0x0800163e   0x0800163e   0x0000004a   Code   RO         2343    .text               c_w.l(sys_stackheap_outer.o)
    0x08001688   0x08001688   0x00000080   Code   RO         2345    .text               c_w.l(_printf_fp_infnan.o)
    0x08001708   0x08001708   0x000000e4   Code   RO         2347    .text               c_w.l(bigflt0.o)
    0x080017ec   0x080017ec   0x00000012   Code   RO         2377    .text               c_w.l(exit.o)
    0x080017fe   0x080017fe   0x00000002   PAD
    0x08001800   0x08001800   0x0000007c   Code   RO         2383    .text               c_w.l(strcmpv7em.o)
    0x0800187c   0x0800187c   0x0000000c   Code   RO         2456    .text               c_w.l(sys_exit.o)
    0x08001888   0x08001888   0x00000002   Code   RO         2485    .text               c_w.l(use_no_semi.o)
    0x0800188a   0x0800188a   0x00000000   Code   RO         2487    .text               c_w.l(indicate_semi.o)
    0x0800188a   0x0800188a   0x00000002   PAD
    0x0800188c   0x0800188c   0x00000002   Code   RO           44    .text.BusFault_Handler  stm32l4xx_it.o
    0x0800188e   0x0800188e   0x00000002   Code   RO           50    .text.DebugMon_Handler  stm32l4xx_it.o
    0x08001890   0x08001890   0x0000000a   Code   RO           17    .text.Error_Handler  main.o
    0x0800189a   0x0800189a   0x00000044   Code   RO         1171    .text.HAL_DMA_Abort  stm32l4xx_hal_dma.o
    0x080018de   0x080018de   0x0000005a   Code   RO         1173    .text.HAL_DMA_Abort_IT  stm32l4xx_hal_dma.o
    0x08001938   0x08001938   0x00000028   Code   RO          113    .text.HAL_Delay     stm32l4xx_hal.o
    0x08001960   0x08001960   0x000001a4   Code   RO          286    .text.HAL_GPIO_Init  stm32l4xx_hal_gpio.o
    0x08001b04   0x08001b04   0x0000000c   Code   RO          292    .text.HAL_GPIO_WritePin  stm32l4xx_hal_gpio.o
    0x08001b10   0x08001b10   0x0000000c   Code   RO          105    .text.HAL_GetTick   stm32l4xx_hal.o
    0x08001b1c   0x08001b1c   0x0000001a   Code   RO          103    .text.HAL_IncTick   stm32l4xx_hal.o
    0x08001b36   0x08001b36   0x0000001c   Code   RO           93    .text.HAL_Init      stm32l4xx_hal.o
    0x08001b52   0x08001b52   0x00000054   Code   RO           95    .text.HAL_InitTick  stm32l4xx_hal.o
    0x08001ba6   0x08001ba6   0x00000032   Code   RO           67    .text.HAL_MspInit   stm32l4xx_hal_msp.o
    0x08001bd8   0x08001bd8   0x00000020   Code   RO          180    .text.HAL_NVIC_EnableIRQ  stm32l4xx_hal_cortex.o
    0x08001bf8   0x08001bf8   0x00000056   Code   RO          178    .text.HAL_NVIC_SetPriority  stm32l4xx_hal_cortex.o
    0x08001c4e   0x08001c4e   0x00000020   Code   RO          176    .text.HAL_NVIC_SetPriorityGrouping  stm32l4xx_hal_cortex.o
    0x08001c6e   0x08001c6e   0x00000002   PAD
    0x08001c70   0x08001c70   0x00000084   Code   RO         1099    .text.HAL_PWREx_ControlVoltageScaling  stm32l4xx_hal_pwr_ex.o
    0x08001cf4   0x08001cf4   0x00000010   Code   RO         1097    .text.HAL_PWREx_GetVoltageRange  stm32l4xx_hal_pwr_ex.o
    0x08001d04   0x08001d04   0x00000388   Code   RO          625    .text.HAL_RCCEx_GetPeriphCLKFreq  stm32l4xx_hal_rcc_ex.o
    0x0800208c   0x0800208c   0x00000266   Code   RO          619    .text.HAL_RCCEx_PeriphCLKConfig  stm32l4xx_hal_rcc_ex.o
    0x080022f2   0x080022f2   0x00000002   PAD
    0x080022f4   0x080022f4   0x00000160   Code   RO          589    .text.HAL_RCC_ClockConfig  stm32l4xx_hal_rcc.o
    0x08002454   0x08002454   0x0000002a   Code   RO          595    .text.HAL_RCC_GetPCLK1Freq  stm32l4xx_hal_rcc.o
    0x0800247e   0x0800247e   0x0000002a   Code   RO          597    .text.HAL_RCC_GetPCLK2Freq  stm32l4xx_hal_rcc.o
    0x080024a8   0x080024a8   0x000000b6   Code   RO          587    .text.HAL_RCC_GetSysClockFreq  stm32l4xx_hal_rcc.o
    0x0800255e   0x0800255e   0x00000002   PAD
    0x08002560   0x08002560   0x000005f4   Code   RO          583    .text.HAL_RCC_OscConfig  stm32l4xx_hal_rcc.o
    0x08002b54   0x08002b54   0x00000182   Code   RO          729    .text.HAL_SD_GetCardCSD  stm32l4xx_hal_sd.o
    0x08002cd6   0x08002cd6   0x00000028   Code   RO          737    .text.HAL_SD_GetCardState  stm32l4xx_hal_sd.o
    0x08002cfe   0x08002cfe   0x0000003e   Code   RO          679    .text.HAL_SD_Init   stm32l4xx_hal_sd.o
    0x08002d3c   0x08002d3c   0x00000246   Code   RO          683    .text.HAL_SD_InitCard  stm32l4xx_hal_sd.o
    0x08002f82   0x08002f82   0x000000e2   Code   RO           77    .text.HAL_SD_MspInit  stm32l4xx_hal_msp.o
    0x08003064   0x08003064   0x000001d0   Code   RO          689    .text.HAL_SD_ReadBlocks  stm32l4xx_hal_sd.o
    0x08003234   0x08003234   0x000001c6   Code   RO          691    .text.HAL_SD_WriteBlocks  stm32l4xx_hal_sd.o
    0x080033fa   0x080033fa   0x0000002c   Code   RO          188    .text.HAL_SYSTICK_Config  stm32l4xx_hal_cortex.o
    0x08003426   0x08003426   0x00000002   Code   RO          975    .text.HAL_UARTEx_RxEventCallback  stm32l4xx_hal_uart.o
    0x08003428   0x08003428   0x00000002   Code   RO         1026    .text.HAL_UARTEx_WakeupCallback  stm32l4xx_hal_uart_ex.o
    0x0800342a   0x0800342a   0x00000002   Code   RO          973    .text.HAL_UART_ErrorCallback  stm32l4xx_hal_uart.o
    0x0800342c   0x0800342c   0x000002ca   Code   RO          969    .text.HAL_UART_IRQHandler  stm32l4xx_hal_uart.o
    0x080036f6   0x080036f6   0x0000005e   Code   RO          887    .text.HAL_UART_Init  stm32l4xx_hal_uart.o
    0x08003754   0x08003754   0x000000ee   Code   RO           69    .text.HAL_UART_MspInit  stm32l4xx_hal_msp.o
    0x08003842   0x08003842   0x00000002   Code   RO          977    .text.HAL_UART_TxCpltCallback  stm32l4xx_hal_uart.o
    0x08003844   0x08003844   0x00000002   Code   RO           40    .text.HardFault_Handler  stm32l4xx_it.o
    0x08003846   0x08003846   0x0000000c   Code   RO           58    .text.LPUART1_IRQHandler  stm32l4xx_it.o
    0x08003852   0x08003852   0x00000002   PAD
    0x08003854   0x08003854   0x00000002   Code   RO           42    .text.MemManage_Handler  stm32l4xx_it.o
    0x08003856   0x08003856   0x00000002   PAD
    0x08003858   0x08003858   0x00000002   Code   RO           38    .text.NMI_Handler   stm32l4xx_it.o
    0x0800385a   0x0800385a   0x00000002   Code   RO           52    .text.PendSV_Handler  stm32l4xx_it.o
    0x0800385c   0x0800385c   0x0000013a   Code   RO          621    .text.RCCEx_PLLSAI1_Config  stm32l4xx_hal_rcc_ex.o
    0x08003996   0x08003996   0x0000008a   Code   RO          585    .text.RCC_SetFlashLatencyFromMSIRange  stm32l4xx_hal_rcc.o
    0x08003a20   0x08003a20   0x00000018   Code   RO         1254    .text.SDMMC_CmdAppCommand  stm32l4xx_ll_sdmmc.o
    0x08003a38   0x08003a38   0x0000001a   Code   RO         1256    .text.SDMMC_CmdAppOperCommand  stm32l4xx_ll_sdmmc.o
    0x08003a52   0x08003a52   0x00000018   Code   RO         1222    .text.SDMMC_CmdBlockLength  stm32l4xx_ll_sdmmc.o
    0x08003a6a   0x08003a6a   0x00000002   PAD
    0x08003a6c   0x08003a6c   0x00000048   Code   RO         1248    .text.SDMMC_CmdGoIdleState  stm32l4xx_ll_sdmmc.o
    0x08003ab4   0x08003ab4   0x00000016   Code   RO         1250    .text.SDMMC_CmdOperCond  stm32l4xx_ll_sdmmc.o
    0x08003aca   0x08003aca   0x00000018   Code   RO         1228    .text.SDMMC_CmdReadMultiBlock  stm32l4xx_ll_sdmmc.o
    0x08003ae2   0x08003ae2   0x00000018   Code   RO         1226    .text.SDMMC_CmdReadSingleBlock  stm32l4xx_ll_sdmmc.o
    0x08003afa   0x08003afa   0x00000018   Code   RO         1246    .text.SDMMC_CmdSelDesel  stm32l4xx_ll_sdmmc.o
    0x08003b12   0x08003b12   0x00000014   Code   RO         1264    .text.SDMMC_CmdSendCID  stm32l4xx_ll_sdmmc.o
    0x08003b26   0x08003b26   0x00000012   Code   RO         1268    .text.SDMMC_CmdSendCSD  stm32l4xx_ll_sdmmc.o
    0x08003b38   0x08003b38   0x00000018   Code   RO         1278    .text.SDMMC_CmdSendStatus  stm32l4xx_ll_sdmmc.o
    0x08003b50   0x08003b50   0x00000018   Code   RO         1270    .text.SDMMC_CmdSetRelAdd  stm32l4xx_ll_sdmmc.o
    0x08003b68   0x08003b68   0x0000001e   Code   RO         1244    .text.SDMMC_CmdStopTransfer  stm32l4xx_ll_sdmmc.o
    0x08003b86   0x08003b86   0x00000018   Code   RO         1232    .text.SDMMC_CmdWriteMultiBlock  stm32l4xx_ll_sdmmc.o
    0x08003b9e   0x08003b9e   0x00000018   Code   RO         1230    .text.SDMMC_CmdWriteSingleBlock  stm32l4xx_ll_sdmmc.o
    0x08003bb6   0x08003bb6   0x00000026   Code   RO         1214    .text.SDMMC_ConfigData  stm32l4xx_ll_sdmmc.o
    0x08003bdc   0x08003bdc   0x0000012a   Code   RO         1224    .text.SDMMC_GetCmdResp1  stm32l4xx_ll_sdmmc.o
    0x08003d06   0x08003d06   0x00000002   PAD
    0x08003d08   0x08003d08   0x00000058   Code   RO         1266    .text.SDMMC_GetCmdResp2  stm32l4xx_ll_sdmmc.o
    0x08003d60   0x08003d60   0x0000004a   Code   RO         1258    .text.SDMMC_GetCmdResp3  stm32l4xx_ll_sdmmc.o
    0x08003daa   0x08003daa   0x00000002   PAD
    0x08003dac   0x08003dac   0x00000098   Code   RO         1272    .text.SDMMC_GetCmdResp6  stm32l4xx_ll_sdmmc.o
    0x08003e44   0x08003e44   0x00000062   Code   RO         1252    .text.SDMMC_GetCmdResp7  stm32l4xx_ll_sdmmc.o
    0x08003ea6   0x08003ea6   0x00000008   Code   RO         1206    .text.SDMMC_GetPowerState  stm32l4xx_ll_sdmmc.o
    0x08003eae   0x08003eae   0x00000006   Code   RO         1212    .text.SDMMC_GetResponse  stm32l4xx_ll_sdmmc.o
    0x08003eb4   0x08003eb4   0x0000002c   Code   RO         1196    .text.SDMMC_Init    stm32l4xx_ll_sdmmc.o
    0x08003ee0   0x08003ee0   0x00000010   Code   RO         1202    .text.SDMMC_PowerState_ON  stm32l4xx_ll_sdmmc.o
    0x08003ef0   0x08003ef0   0x00000006   Code   RO         1198    .text.SDMMC_ReadFIFO  stm32l4xx_ll_sdmmc.o
    0x08003ef6   0x08003ef6   0x0000000c   Code   RO         1200    .text.SDMMC_WriteFIFO  stm32l4xx_ll_sdmmc.o
    0x08003f02   0x08003f02   0x00000002   Code   RO           48    .text.SVC_Handler   stm32l4xx_it.o
    0x08003f04   0x08003f04   0x0000000e   Code   RO           54    .text.SysTick_Handler  stm32l4xx_it.o
    0x08003f12   0x08003f12   0x00000002   PAD
    0x08003f14   0x08003f14   0x0000007e   Code   RO           15    .text.SystemClock_Config  main.o
    0x08003f92   0x08003f92   0x00000012   Code   RO         1296    .text.SystemInit    system_stm32l4xx.o
    0x08003fa4   0x08003fa4   0x000000cc   Code   RO          893    .text.UART_AdvFeatureConfig  stm32l4xx_hal_uart.o
    0x08004070   0x08004070   0x00000068   Code   RO          895    .text.UART_CheckIdleState  stm32l4xx_hal_uart.o
    0x080040d8   0x080040d8   0x00000010   Code   RO          971    .text.UART_DMAAbortOnError  stm32l4xx_hal_uart.o
    0x080040e8   0x080040e8   0x00000050   Code   RO          941    .text.UART_EndRxTransfer  stm32l4xx_hal_uart.o
    0x08004138   0x08004138   0x00000200   Code   RO          891    .text.UART_SetConfig  stm32l4xx_hal_uart.o
    0x08004338   0x08004338   0x000000dc   Code   RO          909    .text.UART_WaitOnFlagUntilTimeout  stm32l4xx_hal_uart.o
    0x08004414   0x08004414   0x0000000c   Code   RO           56    .text.USART1_IRQHandler  stm32l4xx_it.o
    0x08004420   0x08004420   0x00000002   Code   RO           46    .text.UsageFault_Handler  stm32l4xx_it.o
    0x08004422   0x08004422   0x00000002   Code   RO         1312    .text._bCoreMonitor  b_core.o
    0x08004424   0x08004424   0x00000004   Code   RO         1356    .text._bDriverNullInit  b_device.o
    0x08004428   0x08004428   0x00000090   Code   RO         1978    .text._bHalUartDetectIdle  b_hal_uart.o
    0x080044b8   0x080044b8   0x00000160   Code   RO         1495    .text._bSD_Read     b_drv_sd.o
    0x08004618   0x08004618   0x000000e0   Code   RO         1499    .text._bSD_SendCmd  b_drv_sd.o
    0x080046f8   0x080046f8   0x00000192   Code   RO         1497    .text._bSD_Write    b_drv_sd.o
    0x0800488a   0x0800488a   0x00000002   PAD
    0x0800488c   0x0800488c   0x00000042   Code   RO         1458    .text._bTaskCore    b_task.o
    0x080048ce   0x080048ce   0x00000002   PAD
    0x080048d0   0x080048d0   0x00000054   Code   RO         1481    .text._bTimerCore   b_timer.o
    0x08004924   0x08004924   0x0000003a   Code   RO         1324    .text.bClose        b_core.o
    0x0800495e   0x0800495e   0x00000030   Code   RO         1322    .text.bCtl          b_core.o
    0x0800498e   0x0800498e   0x00000002   PAD
    0x08004990   0x08004990   0x00000074   Code   RO         1368    .text.bDeviceClose  b_device.o
    0x08004a04   0x08004a04   0x00000078   Code   RO         1370    .text.bDeviceCtl    b_device.o
    0x08004a7c   0x08004a7c   0x0000019a   Code   RO         1358    .text.bDeviceInit   b_device.o
    0x08004c16   0x08004c16   0x00000020   Code   RO         1384    .text.bDeviceIsAbnormal  b_device.o
    0x08004c36   0x08004c36   0x00000002   PAD
    0x08004c38   0x08004c38   0x00000070   Code   RO         1362    .text.bDeviceOpen   b_device.o
    0x08004ca8   0x08004ca8   0x0000007c   Code   RO         1364    .text.bDeviceRead   b_device.o
    0x08004d24   0x08004d24   0x00000084   Code   RO         1366    .text.bDeviceWrite  b_device.o
    0x08004da8   0x08004da8   0x00000022   Code   RO         1332    .text.bExec         b_core.o
    0x08004dca   0x08004dca   0x00000002   PAD
    0x08004dcc   0x08004dcc   0x00000058   Code   RO         1538    .text.bFSClose      b_mod_fs.o
    0x08004e24   0x08004e24   0x00000010   Code   RO         1544    .text.bFSFileGetInfo  b_mod_fs.o
    0x08004e34   0x08004e34   0x0000005e   Code   RO         1542    .text.bFSGetInfo    b_mod_fs.o
    0x08004e92   0x08004e92   0x00000002   PAD
    0x08004e94   0x08004e94   0x0000004c   Code   RO         1518    .text.bFSGetPartitionInfo  b_mod_fs.o
    0x08004ee0   0x08004ee0   0x0000004e   Code   RO         1516    .text.bFSGetPartitionState  b_mod_fs.o
    0x08004f2e   0x08004f2e   0x00000048   Code   RO         1514    .text.bFSInit       b_mod_fs.o
    0x08004f76   0x08004f76   0x00000002   PAD
    0x08004f78   0x08004f78   0x00000070   Code   RO         1540    .text.bFSLseek      b_mod_fs.o
    0x08004fe8   0x08004fe8   0x00000068   Code   RO         1528    .text.bFSMkfs       b_mod_fs.o
    0x08005050   0x08005050   0x00000180   Code   RO         1526    .text.bFSMount      b_mod_fs.o
    0x080051d0   0x080051d0   0x00000154   Code   RO         1532    .text.bFSOpen       b_mod_fs.o
    0x08005324   0x08005324   0x0000007e   Code   RO         1524    .text.bFSPartitionErase  b_mod_fs.o
    0x080053a2   0x080053a2   0x00000002   PAD
    0x080053a4   0x080053a4   0x00000096   Code   RO         1520    .text.bFSPartitionRead  b_mod_fs.o
    0x0800543a   0x0800543a   0x00000002   PAD
    0x0800543c   0x0800543c   0x00000096   Code   RO         1522    .text.bFSPartitionWrite  b_mod_fs.o
    0x080054d2   0x080054d2   0x00000002   PAD
    0x080054d4   0x080054d4   0x00000064   Code   RO         1536    .text.bFSRead       b_mod_fs.o
    0x08005538   0x08005538   0x00000068   Code   RO         1534    .text.bFSWrite      b_mod_fs.o
    0x080055a0   0x080055a0   0x0000000c   Code   RO         1759    .text.bHalGetSysTick  b_hal.o
    0x080055ac   0x080055ac   0x00000004   Code   RO         1834    .text.bHalGpioReadPin  b_hal_gpio.o
    0x080055b0   0x080055b0   0x00000004   Code   RO         1830    .text.bHalGpioWritePin  b_hal_gpio.o
    0x080055b4   0x080055b4   0x00000024   Code   RO         1757    .text.bHalIncSysTick  b_hal.o
    0x080055d8   0x080055d8   0x00000080   Code   RO         1755    .text.bHalInit      b_hal.o
    0x08005658   0x08005658   0x00000012   Code   RO         1930    .text.bHalSDIOReadBlocks  b_hal_sdio.o
    0x0800566a   0x0800566a   0x00000012   Code   RO         1932    .text.bHalSDIOWriteBlocks  b_hal_sdio.o
    0x0800567c   0x0800567c   0x0000003c   Code   RO         1954    .text.bHalSpiSend   b_hal_spi.o
    0x080056b8   0x080056b8   0x00000100   Code   RO         1952    .text.bHalSpiTransfer  b_hal_spi.o
    0x080057b8   0x080057b8   0x0000000e   Code   RO         1970    .text.bHalUartSend  b_hal_uart.o
    0x080057c6   0x080057c6   0x00000002   Code   RO         1753    .text.bHalUserInit  b_hal.o
    0x080057c8   0x080057c8   0x000001c8   Code   RO         1328    .text.bInit         b_core.o
    0x08005990   0x08005990   0x00000108   Code   RO         1604    .text.bLogOut       b_util_log.o
    0x08005a98   0x08005a98   0x00000024   Code   RO         1320    .text.bLseek        b_core.o
    0x08005abc   0x08005abc   0x00000026   Code   RO         2019    .text.bMcuGpioReadPin  mcu_stm32l41x_gpio.o
    0x08005ae2   0x08005ae2   0x0000002c   Code   RO         2017    .text.bMcuGpioWritePin  mcu_stm32l41x_gpio.o
    0x08005b0e   0x08005b0e   0x00000024   Code   RO         2074    .text.bMcuSDIOReadBlocks  mcu_stm32l41x_sdio.o
    0x08005b32   0x08005b32   0x00000002   PAD
    0x08005b34   0x08005b34   0x0000004e   Code   RO         2076    .text.bMcuSDIOWriteBlocks  mcu_stm32l41x_sdio.o
    0x08005b82   0x08005b82   0x00000002   PAD
    0x08005b84   0x08005b84   0x00000058   Code   RO         2090    .text.bMcuSpiSend   mcu_stm32l41x_spi.o
    0x08005bdc   0x08005bdc   0x00000042   Code   RO         2088    .text.bMcuSpiTransfer  mcu_stm32l41x_spi.o
    0x08005c1e   0x08005c1e   0x00000002   PAD
    0x08005c20   0x08005c20   0x00000092   Code   RO         2103    .text.bMcuUartSend  mcu_stm32l41x_uart.o
    0x08005cb2   0x08005cb2   0x00000002   PAD
    0x08005cb4   0x08005cb4   0x0000009e   Code   RO         1314    .text.bOpen         b_core.o
    0x08005d52   0x08005d52   0x00000060   Code   RO         1316    .text.bRead         b_core.o
    0x08005db2   0x08005db2   0x0000004a   Code   RO         1493    .text.bSD_Init      b_drv_sd.o
    0x08005dfc   0x08005dfc   0x00000154   Code   RO           11    .text.bTestFs       main.o
    0x08005f50   0x08005f50   0x0000005e   Code   RO         1318    .text.bWrite        b_core.o
    0x08005fae   0x08005fae   0x00000002   PAD
    0x08005fb0   0x08005fb0   0x0000008c   Code   RO         1732    .text.check_fs      ff.o
    0x0800603c   0x0800603c   0x0000011e   Code   RO         1688    .text.create_chain  ff.o
    0x0800615a   0x0800615a   0x00000002   PAD
    0x0800615c   0x0800615c   0x00000192   Code   RO         1728    .text.create_partition  ff.o
    0x080062ee   0x080062ee   0x00000002   PAD
    0x080062f0   0x080062f0   0x00000066   Code   RO         1722    .text.dir_clear     ff.o
    0x08006356   0x08006356   0x000000e6   Code   RO         1710    .text.dir_next      ff.o
    0x0800643c   0x0800643c   0x0000006a   Code   RO         1674    .text.dir_register  ff.o
    0x080064a6   0x080064a6   0x00000002   PAD
    0x080064a8   0x080064a8   0x0000007c   Code   RO         1700    .text.dir_sdi       ff.o
    0x08006524   0x08006524   0x00000004   Code   RO         1648    .text.disk_initialize  diskio.o
    0x08006528   0x08006528   0x00000044   Code   RO         1654    .text.disk_ioctl    diskio.o
    0x0800656c   0x0800656c   0x0000003e   Code   RO         1650    .text.disk_read     diskio.o
    0x080065aa   0x080065aa   0x0000000e   Code   RO         1646    .text.disk_status   diskio.o
    0x080065b8   0x080065b8   0x00000050   Code   RO         1652    .text.disk_write    diskio.o
    0x08006608   0x08006608   0x0000001e   Code   RO         1694    .text.f_close       ff.o
    0x08006626   0x08006626   0x00000002   PAD
    0x08006628   0x08006628   0x000000e8   Code   RO         1714    .text.f_getfree     ff.o
    0x08006710   0x08006710   0x00000184   Code   RO         1696    .text.f_lseek       ff.o
    0x08006894   0x08006894   0x000006da   Code   RO         1726    .text.f_mkfs        ff.o
    0x08006f6e   0x08006f6e   0x00000002   PAD
    0x08006f70   0x08006f70   0x00000070   Code   RO         1664    .text.f_mount       ff.o
    0x08006fe0   0x08006fe0   0x00000222   Code   RO         1670    .text.f_open        ff.o
    0x08007202   0x08007202   0x00000002   PAD
    0x08007204   0x08007204   0x000001bc   Code   RO         1682    .text.f_read        ff.o
    0x080073c0   0x080073c0   0x00000098   Code   RO         1690    .text.f_sync        ff.o
    0x08007458   0x08007458   0x000001f0   Code   RO         1686    .text.f_write       ff.o
    0x08007648   0x08007648   0x0000004e   Code   RO         1730    .text.find_volume   ff.o
    0x08007696   0x08007696   0x00000002   PAD
    0x08007698   0x08007698   0x000001f6   Code   RO         1672    .text.follow_path   ff.o
    0x0800788e   0x0800788e   0x000000f6   Code   RO         1680    .text.get_fat       ff.o
    0x08007984   0x08007984   0x00000042   Code   RO         1666    .text.get_ldnumber  ff.o
    0x080079c6   0x080079c6   0x00000002   PAD
    0x080079c8   0x080079c8   0x000001b4   Code   RO           13    .text.main          main.o
    0x08007b7c   0x08007b7c   0x0000026c   Code   RO         1668    .text.mount_volume  ff.o
    0x08007de8   0x08007de8   0x00000038   Code   RO         1678    .text.move_window   ff.o
    0x08007e20   0x08007e20   0x00000132   Code   RO         1734    .text.put_fat       ff.o
    0x08007f52   0x08007f52   0x00000002   PAD
    0x08007f54   0x08007f54   0x00000072   Code   RO         1676    .text.remove_chain  ff.o
    0x08007fc6   0x08007fc6   0x00000082   Code   RO         1692    .text.sync_fs       ff.o
    0x08008048   0x08008048   0x00000044   Code   RO         1736    .text.sync_window   ff.o
    0x0800808c   0x0800808c   0x00000030   Code   RO         1684    .text.validate      ff.o
    0x080080bc   0x080080bc   0x0000003e   Code   RO         2350    CL$$btod_d2e        c_w.l(btod.o)
    0x080080fa   0x080080fa   0x00000046   Code   RO         2352    CL$$btod_d2e_denorm_low  c_w.l(btod.o)
    0x08008140   0x08008140   0x00000060   Code   RO         2351    CL$$btod_d2e_norm_op1  c_w.l(btod.o)
    0x080081a0   0x080081a0   0x00000338   Code   RO         2360    CL$$btod_div_common  c_w.l(btod.o)
    0x080084d8   0x080084d8   0x000000dc   Code   RO         2357    CL$$btod_e2e        c_w.l(btod.o)
    0x080085b4   0x080085b4   0x0000002a   Code   RO         2354    CL$$btod_ediv       c_w.l(btod.o)
    0x080085de   0x080085de   0x0000002a   Code   RO         2353    CL$$btod_emul       c_w.l(btod.o)
    0x08008608   0x08008608   0x00000244   Code   RO         2359    CL$$btod_mult_common  c_w.l(btod.o)
    0x0800884c   0x0800884c   0x00000030   Code   RO         2440    i.__ARM_fpclassify  m_wm.l(fpclassify.o)
    0x0800887c   0x0800887c   0x0000000e   Code   RO         2141    i._is_digit         c_w.l(__printf_wp.o)
    0x0800888a   0x0800888a   0x00000002   PAD
    0x0800888c   0x0800888c   0x0000002c   Code   RO         2341    locale$$code        c_w.l(lc_ctype_c.o)
    0x080088b8   0x080088b8   0x0000002c   Code   RO         2375    locale$$code        c_w.l(lc_numeric_c.o)
    0x080088e4   0x080088e4   0x000002b4   Code   RO         2174    x$fpl$ddiv          fz_wm.l(ddiv.o)
    0x08008b98   0x08008b98   0x0000005a   Code   RO         2181    x$fpl$dfixu         fz_wm.l(dfixu.o)
    0x08008bf2   0x08008bf2   0x00000026   Code   RO         2185    x$fpl$dfltu         fz_wm.l(dflt_clz.o)
    0x08008c18   0x08008c18   0x00000154   Code   RO         2195    x$fpl$dmul          fz_wm.l(dmul.o)
    0x08008d6c   0x08008d6c   0x0000009c   Code   RO         2283    x$fpl$dnaninf       fz_wm.l(dnaninf.o)
    0x08008e08   0x08008e08   0x0000000c   Code   RO         2285    x$fpl$dretinf       fz_wm.l(dretinf.o)
    0x08008e14   0x08008e14   0x0000001a   Code   RO         2454    x$fpl$fpinit        fz_wm.l(fpinit.o)
    0x08008e2e   0x08008e2e   0x00000004   Code   RO         2287    x$fpl$printf1       fz_wm.l(printf1.o)
    0x08008e32   0x08008e32   0x00000004   Code   RO         2289    x$fpl$printf2       fz_wm.l(printf2.o)
    0x08008e36   0x08008e36   0x00000000   Code   RO         2295    x$fpl$usenofp       fz_wm.l(usenofp.o)
    0x08008e36   0x08008e36   0x00000011   Data   RO         2149    .constdata          c_w.l(__printf_flags_ss_wp.o)
    0x08008e47   0x08008e47   0x00000001   PAD
    0x08008e48   0x08008e48   0x00000008   Data   RO         2226    .constdata          c_w.l(_printf_wctomb.o)
    0x08008e50   0x08008e50   0x00000028   Data   RO         2255    .constdata          c_w.l(_printf_hex_int_ll_ptr.o)
    0x08008e78   0x08008e78   0x00000026   Data   RO         2328    .constdata          c_w.l(_printf_fp_hex.o)
    0x08008e9e   0x08008e9e   0x00000002   PAD
    0x08008ea0   0x08008ea0   0x00000094   Data   RO         2348    .constdata          c_w.l(bigflt0.o)
    0x08008f34   0x08008f34   0x00000010   Data   RO         1301    .rodata.AHBPrescTable  system_stm32l4xx.o
    0x08008f44   0x08008f44   0x00000008   Data   RO         1302    .rodata.APBPrescTable  system_stm32l4xx.o
    0x08008f4c   0x08008f4c   0x00000080   Data   RO         1741    .rodata.ExCvt       ff.o
    0x08008fcc   0x08008fcc   0x00000030   Data   RO         1303    .rodata.MSIRangeTable  system_stm32l4xx.o
    0x08008ffc   0x08008ffc   0x0000000c   Data   RO         2094    .rodata.SpiTable    mcu_stm32l41x_spi.o
    0x08009008   0x08009008   0x00000008   Data   RO         1392    .rodata.bDeviceDescTable  b_device.o
    0x08009010   0x08009010   0x00000002   Data   RO         1391    .rodata.bDriverNumberTable  b_device.o
    0x08009012   0x08009012   0x0000000c   Data   RO         1502    .rodata.bHalIf_SD   b_drv_sd.o
    0x0800901e   0x0800901e   0x00000002   PAD
    0x08009020   0x08009020   0x00000014   Data   RO           19    .rodata.bPartitionTable  main.o
    0x08009034   0x08009034   0x00000010   Data   RO         1015    .rodata.cst16       stm32l4xx_hal_uart.o
    0x08009044   0x08009044   0x00000010   Data   RO         2107    .rodata.cst16       mcu_stm32l41x_uart.o
    0x08009054   0x08009054   0x00000023   Data   RO           22    .rodata.str1.1      main.o
    0x08009077   0x08009077   0x0000017f   Data   RO         1346    .rodata.str1.1      b_core.o
    0x080091f6   0x080091f6   0x00000054   Data   RO         1393    .rodata.str1.1      b_device.o
    0x0800924a   0x0800924a   0x00000069   Data   RO         1549    .rodata.str1.1      b_mod_fs.o
    0x080092b3   0x080092b3   0x0000000f   Data   RO         1742    .rodata.str1.1      ff.o
    0x080092c2   0x080092c2   0x0000001c   Data   RO         1739    .rodata.str2.2      ff.o
    0x080092de   0x080092de   0x00000002   PAD
    0x080092e0   0x080092e0   0x00000020   Data   RO         2532    Region$$Table       anon$$obj.o
    0x08009300   0x08009300   0x00000004   Data   RO         1344    bos_polling         b_core.o
    0x08009304   0x08009304   0x00000004   Data   RO         1460    bos_polling         b_task.o
    0x08009308   0x08009308   0x00000004   Data   RO         1483    bos_polling         b_timer.o
    0x0800930c   0x0800930c   0x00000004   Data   RO         1980    bos_polling         b_hal_uart.o
    0x08009310   0x08009310   0x00000008   Data   RO         1389    driver_init         b_device.o
    0x08009318   0x08009318   0x00000008   Data   RO         1501    driver_init         b_drv_sd.o
    0x08009320   0x08009320   0x00000008   Data   RO         1388    driver_init_0       b_device.o
    0x08009328   0x08009328   0x00000110   Data   RO         2340    locale$$data        c_w.l(lc_ctype_c.o)
    0x08009438   0x08009438   0x0000001c   Data   RO         2374    locale$$data        c_w.l(lc_numeric_c.o)


    Execution Region RW_IRAM2 (Exec base: 0x10000000, Load base: 0x08009480, Size: 0x00000000, Max: 0x00004000, ABSOLUTE)

    **** No section assigned to this execution region ****


    Execution Region RW_IRAM1 (Exec base: 0x20000000, Load base: 0x08009458, Size: 0x00003a48, Max: 0x0000c000, ABSOLUTE)

    Exec Addr    Load Addr    Size         Type   Attr      Idx    E Section Name        Object

    0x20000000   0x08009458   0x00000004   Data   RW         1300    .data.SystemCoreClock  system_stm32l4xx.o
    0x20000004   0x0800945c   0x00000008   Data   RW         1981    .data.bHalUartListHead  b_hal_uart.o
    0x2000000c   0x08009464   0x00000008   Data   RW         1461    .data.bTaskListHead  b_task.o
    0x20000014   0x0800946c   0x00000008   Data   RW         1484    .data.bTimerListHead  b_timer.o
    0x2000001c   0x08009474   0x00000004   Data   RW         1769    .data.bUsDelayParam  b_hal.o
    0x20000020   0x08009478   0x00000001   Data   RW          164    .data.uwTickFreq    stm32l4xx_hal.o
    0x20000021   0x08009479   0x00000003   PAD
    0x20000024   0x0800947c   0x00000004   Data   RW          163    .data.uwTickPrio    stm32l4xx_hal.o
    0x20000028        -       0x00000060   Zero   RW         2297    .bss                c_w.l(libspace.o)
    0x20000088        -       0x00000004   Zero   RW         1738    .bss.FatFs          ff.o
    0x2000008c        -       0x00000002   Zero   RW         1740    .bss.Fsid           ff.o
    0x2000008e        -       0x00000001   Zero   RW         1347    .bss._bCoreCreateFd.init  b_core.o
    0x2000008f   0x08009480   0x00000001   PAD
    0x20000090        -       0x00000018   Zero   RW         1345    .bss.bCoreFdTable   b_core.o
    0x200000a8        -       0x00000088   Zero   RW         1390    .bss.bDriverInterfaceTable  b_device.o
    0x20000130        -       0x00000100   Zero   RW         1606    .bss.bLogBuff       b_util_log.o
    0x20000230        -       0x00001000   Zero   RW         1550    .bss.bMkfsBuf       b_mod_fs.o
    0x20001230        -       0x00000004   Zero   RW         1767    .bss.bSysTick       b_hal.o
    0x20001234        -       0x00000004   Zero   RW         1768    .bss.bSysTickOvr    b_hal.o
    0x20001238        -       0x00000001   Zero   RW           20    .bss.bTestFs.f      main.o
    0x20001239   0x08009480   0x00000003   PAD
    0x2000123c        -       0x0000102c   Zero   RW           21    .bss.bTestFs.file   main.o
    0x20002268        -       0x00001040   Zero   RW         1548    .bss.gbFSTable      b_mod_fs.o
    0x200032a8        -       0x00000001   Zero   RW         1547    .bss.gbPartitionNumber  b_mod_fs.o
    0x200032a9   0x08009480   0x00000003   PAD
    0x200032ac        -       0x00000004   Zero   RW         1546    .bss.gpbPartition   b_mod_fs.o
    0x200032b0        -       0x00000084   Zero   RW           24    .bss.hlpuart1       main.o
    0x20003334        -       0x00000084   Zero   RW           27    .bss.hsd1           main.o
    0x200033b8        -       0x00000084   Zero   RW           25    .bss.huart1         main.o
    0x2000343c        -       0x00000004   Zero   RW           23    .bss.main.tickbTestFs  main.o
    0x20003440        -       0x00000004   Zero   RW         1462    .bss.pCurrentTaskAttr  b_task.o
    0x20003444        -       0x00000004   Zero   RW          165    .bss.uwTick         stm32l4xx_hal.o
    0x20003448        -       0x00000200   Zero   RW            2    HEAP                startup_stm32l431xx.o
    0x20003648        -       0x00000400   Zero   RW            1    STACK               startup_stm32l431xx.o


==============================================================================

Image component sizes


      Code (inc. data)   RO Data    RW Data    ZI Data      Debug   Object Name

       982        136        387          0         25       6031   b_core.o
      1050        112        110          0        136       8030   b_device.o
      1052         72         20          0          0       9883   b_drv_sd.o
       178          8          0          4          8       2077   b_hal.o
         8          0          0          0          0       4170   b_hal_gpio.o
        36          0          0          0          0       1571   b_hal_sdio.o
       316          0          0          0          0       4902   b_hal_spi.o
       158          0          4          8          0       4705   b_hal_uart.o
      1994        220        105          0       8261      12045   b_mod_fs.o
        66          0          4          8          4       4188   b_task.o
        84          0          4          8          0       4049   b_timer.o
       264         12          0          0        256       3475   b_util_log.o
       228          0          0          0          0       2835   diskio.o
      7778         80        171          0          6      44915   ff.o
       912         96         55          0       4541      12798   main.o
        82          0          0          0          0       4032   mcu_stm32l41x_gpio.o
       114          0          0          0          0       2157   mcu_stm32l41x_sdio.o
       154          0         12          0          0       3826   mcu_stm32l41x_spi.o
       146          0         16          0          0       2525   mcu_stm32l41x_uart.o
        64         26        396          0       1536        868   startup_stm32l431xx.o
       190          0          0          5          4       8599   stm32l4xx_hal.o
       194          0          0          0          0      10069   stm32l4xx_hal_cortex.o
       158          0          0          0          0       7507   stm32l4xx_hal_dma.o
       432          0          0          0          0       5255   stm32l4xx_hal_gpio.o
       514          0          0          0          0      14359   stm32l4xx_hal_msp.o
       148          0          0          0          0       8443   stm32l4xx_hal_pwr_ex.o
      2280          0          0          0          0       9814   stm32l4xx_hal_rcc.o
      1832         28          0          0          0      13403   stm32l4xx_hal_rcc_ex.o
      1988          0          0          0          0      24440   stm32l4xx_hal_sd.o
      1950         46         16          0          0      28554   stm32l4xx_hal_uart.o
         2          0          0          0          0       8210   stm32l4xx_hal_uart_ex.o
        54          0          0          0          0       4314   stm32l4xx_it.o
      1244          0          0          0          0      18387   stm32l4xx_ll_sdmmc.o
        18          0         72          4          0       3000   system_stm32l4xx.o

    ----------------------------------------------------------------------
     26736        836       1408         40      14784     303436   Object Totals
         0          0         32          0          0          0   (incl. Generated)
        66          0          4          3          7          0   (incl. Padding)

    ----------------------------------------------------------------------

      Code (inc. data)   RO Data    RW Data    ZI Data      Debug   Library Member Name

        44          6          0          0          0         84   __2sprintf.o
         8          0          0          0          0         68   __main.o
       398          4         17          0          0         92   __printf_flags_ss_wp.o
        14          0          0          0          0         68   __printf_wp.o
         0          0          0          0          0          0   __rtentry.o
        12          0          0          0          0          0   __rtentry2.o
         6          0          0          0          0          0   __rtentry4.o
        94          8          0          0          0          0   __scatter.o
        26          0          0          0          0          0   __scatter_copy.o
        28          0          0          0          0          0   __scatter_zi.o
        72          0          0          0          0         96   _c16rtomb.o
        28          0          0          0          0         68   _chval.o
         6          0          0          0          0          0   _printf_a.o
         6          0          0          0          0          0   _printf_c.o
        44          0          0          0          0        108   _printf_char.o
        48          6          0          0          0         96   _printf_char_common.o
        40          0          0          0          0         68   _printf_charcount.o
         6          0          0          0          0          0   _printf_d.o
       120         16          0          0          0         92   _printf_dec.o
         6          0          0          0          0          0   _printf_e.o
         6          0          0          0          0          0   _printf_f.o
      1058          0          0          0          0        148   _printf_fp_dec.o
       770          8         38          0          0        100   _printf_fp_hex.o
       128         16          0          0          0         84   _printf_fp_infnan.o
         6          0          0          0          0          0   _printf_g.o
       148          4         40          0          0        160   _printf_hex_int_ll_ptr.o
         6          0          0          0          0          0   _printf_i.o
       178          0          0          0          0         88   _printf_intcommon.o
        10          0          0          0          0          0   _printf_l.o
         6          0          0          0          0          0   _printf_lc.o
        10          0          0          0          0          0   _printf_ll.o
         6          0          0          0          0          0   _printf_lld.o
         6          0          0          0          0          0   _printf_lli.o
         6          0          0          0          0          0   _printf_llo.o
         6          0          0          0          0          0   _printf_llu.o
         6          0          0          0          0          0   _printf_llx.o
       124         16          0          0          0         92   _printf_longlong_dec.o
         6          0          0          0          0          0   _printf_ls.o
         6          0          0          0          0          0   _printf_n.o
         6          0          0          0          0          0   _printf_o.o
       112          8          0          0          0        124   _printf_oct_int_ll.o
         6          0          0          0          0          0   _printf_p.o
        78          0          0          0          0        108   _printf_pad.o
         0          0          0          0          0          0   _printf_percent.o
         4          0          0          0          0          0   _printf_percent_end.o
         6          0          0          0          0          0   _printf_s.o
        82          0          0          0          0         80   _printf_str.o
        36          0          0          0          0         84   _printf_truncate.o
         6          0          0          0          0          0   _printf_u.o
        44          0          0          0          0        108   _printf_wchar.o
       194          6          8          0          0         92   _printf_wctomb.o
         6          0          0          0          0          0   _printf_x.o
        16          0          0          0          0         68   _snputc.o
        10          0          0          0          0         68   _sputc.o
       164          0          0          0          0         92   _strtoul.o
       228          4        148          0          0         96   bigflt0.o
      1936        128          0          0          0        668   btod.o
        18          0          0          0          0         80   exit.o
         6          0          0          0          0        152   heapauxi.o
         0          0          0          0          0          0   indicate_semi.o
        44         10        272          0          0         76   lc_ctype_c.o
        44         10         28          0          0         76   lc_numeric_c.o
         2          0          0          0          0          0   libinit.o
        34          0          0          0          0          0   libinit2.o
         2          0          0          0          0          0   libshutdown.o
         2          0          0          0          0          0   libshutdown2.o
         8          4          0          0         96         68   libspace.o
       138          0          0          0          0         80   lludiv10.o
       240          0          0          0          0        100   lludivv7m.o
        16          4          0          0          0         76   rt_ctype_table.o
         8          4          0          0          0         68   rt_errno_addr_intlibspace.o
         8          4          0          0          0         68   rt_locale_intlibspace.o
        68          0          0          0          0         68   rt_memclr.o
        78          0          0          0          0         80   rt_memclr_w.o
       138          0          0          0          0         68   rt_memcpy_v6.o
       100          0          0          0          0         80   rt_memcpy_w.o
         2          0          0          0          0          0   rtexit.o
        10          0          0          0          0          0   rtexit2.o
       124          0          0          0          0         88   strcmpv7em.o
        62          0          0          0          0         76   strlen.o
       112          0          0          0          0         88   strtol.o
        12          4          0          0          0         68   sys_exit.o
        74          0          0          0          0         80   sys_stackheap_outer.o
         2          0          0          0          0         68   use_no_semi.o
        60          4          0          0          0         80   vsnprintf.o
       692        140          0          0          0        264   ddiv.o
        90          4          0          0          0        140   dfixu.o
        38          0          0          0          0        116   dflt_clz.o
       340         12          0          0          0        152   dmul.o
       156          4          0          0          0        140   dnaninf.o
        12          0          0          0          0        116   dretinf.o
        26          0          0          0          0        116   fpinit.o
         4          0          0          0          0        116   printf1.o
         4          0          0          0          0        116   printf2.o
         0          0          0          0          0          0   usenofp.o
        48          0          0          0          0        124   fpclassify.o

    ----------------------------------------------------------------------
      9274        434        554          0         96       6188   Library Totals
        20          0          3          0          0          0   (incl. Padding)

    ----------------------------------------------------------------------

      Code (inc. data)   RO Data    RW Data    ZI Data      Debug   Library Name

      7844        274        551          0         96       4788   c_w.l
      1362        160          0          0          0       1276   fz_wm.l
        48          0          0          0          0        124   m_wm.l

    ----------------------------------------------------------------------
      9274        434        554          0         96       6188   Library Totals

    ----------------------------------------------------------------------

==============================================================================


      Code (inc. data)   RO Data    RW Data    ZI Data      Debug   

     36010       1270       1962         40      14880     305600   Grand Totals
     36010       1270       1962         40      14880     305600   ELF Image Totals
     36010       1270       1962         40          0          0   ROM Totals

==============================================================================

    Total RO  Size (Code + RO Data)                37972 (  37.08kB)
    Total RW  Size (RW Data + ZI Data)             14920 (  14.57kB)
    Total ROM Size (Code + RO Data + RW Data)      38012 (  37.12kB)

==============================================================================

