:020000040800F2
:10000000A0060020A10100080D2B00088D29000882
:10001000092B0008C1070008013900080000000092
:10002000000000000000000000000000FD2E00089D
:10003000C507000800000000812B0008552F0008AC
:10004000BB010008BB010008BB010008BB010008A0
:10005000BB010008BB010008BB010008BB01000890
:10006000BB010008BB010008BB010008BB01000880
:10007000BB010008BB010008BB010008BB01000870
:10008000BB010008BB010008BB010008BB01000860
:10009000BB010008BB010008BB010008BB01000850
:1000A000BB010008BB010008BB010008BB01000840
:1000B000BB0100080000000000000000BB010008B8
:1000C000BB010008BB010008BB010008BB01000820
:1000D000BB010008F1380008BB010008BB010008A3
:1000E000BB010008BB010008000000000000000088
:1000F0000000000000000000000000000000000000
:1001000000000000BB01000800000000BB01000867
:100110000000000000000000BB010008BB01000857
:10012000BB010008BB010008BB010008BB010008BF
:10013000BB010008000000000000000000000000FB
:10014000BB010008BB010008BB0100080000000063
:10015000BB010008BB01000891290008BB01000891
:10016000BB010008BB010008BB0100080000000043
:10017000BB010008BB0100080000000000000000F7
:10018000BB010008BB010008BB010008DFF80CD070
:1001900000F0F2FA0048004749440008A006002099
:1001A0000648804706480047FEE7FEE7FEE7FEE711
:1001B000FEE7FEE7FEE7FEE7FEE7FEE7E92F0008C1
:1001C0008D0100082DE9F05F0546002092469B4610
:1001D00088460646814640241BE02846414647465D
:1001E000224600F07DF953465A46C01A914110D379
:1001F00011461846224600F064F92D1A67EB0108F3
:100200004F4622460120002100F05BF917EB000960
:100210004E41201EA4F10104DFDC484631462A4647
:10022000434600F000B830BCBDE8C09F40EA01037F
:100230009B0703D009E008C9121F08C0042AFAD29C
:1002400003E011F8013B00F8013B521EF9D2704760
:10025000D2B201E000F8012B491EFBD27047002208
:10026000F6E710B513460A4604461946FFF7F0FFB5
:10027000204610BD421C10F8011B0029FBD1801A3A
:1002800070472DE9FE4F81EA030404F0004421F099
:10029000004100944FF0000B23F0004350EA0104AA
:1002A0005ED052EA03045BD0C3F30A54C1F30A558B
:1002B0002C44A4F2F3340194A0FB0254C1F31301C3
:1002C00041F48011C3F3130343F4801301FB024490
:1002D00000FB034E840A970A44EA815447EA835795
:1002E000A4FB076802958D0A05FB07854FEA932C4E
:1002F00004FB0C542705029D4FEA065847EA1637BF
:10030000B5EB08056EEB070C870E920E47EA8117D6
:1003100042EA8312A7FB0201B6EB0B0164EB000477
:100320002B0D43EA0C335E1844EB1C50DA46514661
:10033000E7FB0201C5F313044FEA0B3343EA1453FE
:100340004FEA0432019C43EA0603A4F10C04029430
:10035000009CCDE900B400F0E2F803B000F003B86F
:1003600000200146F9E730BCBDE8C08F2DE9F04D13
:1003700081EA030404F0004B21F0004514464FF0DD
:10038000000A23F0004150EA050220D054EA01029D
:100390001DD0C5F30A570246C5F31303C1F313007A
:1003A000C1F30A5640F4801543F48013A7EB060806
:1003B000101BD64608F2FD3873EB050002D308F196
:1003C000010801E092185B41B8F1000F03DA002048
:1003D0000146BDE8F08D00204FF4801106468446AA
:1003E0000EE0171B73EB050705D3121B63EB050328
:1003F00006434CEA010C49084FEA300092185B4171
:1004000050EA0107EDD152EA030012D082EA04005B
:1004100083EA0501084305D0101BAB4106D2012237
:10042000002306E000224FF0004302E06FF00102DB
:1004300053101AEB06004CEB085110EB0A0041EB8D
:100440000B01BDE8F04D00F05BB80EB540F2334152
:1004500002910021CDE900110A460B4600F05FF839
:1004600003B000BDC1F30A5210B5C1F3130140F24D
:10047000FF3341F480119A4201DA002010BD40F2AE
:1004800033439A42A2F2334203DC524200F028F88E
:1004900010BD904010BD30B50B4601460020202213
:1004A000012409E021FA02F59D4205D303FA02F581
:1004B000491B04FA02F52844151EA2F10102F1DCE1
:1004C00030BD202A04DB203A00FA02F100207047F8
:1004D0009140C2F1200320FA03F319439040704782
:1004E000202A04DB203A21FA02F00021704721FA89
:1004F00002F3D040C2F120029140084319467047F0
:1005000010B5141E73F1000408DA401C41F100011B
:1005100092185B411A4301D120F0010010BD2DE972
:10052000F04D92469B4611B1B1FA81F202E0B0FA69
:1005300080F220329046FFF7C4FF04460F4640EA9F
:100540000A0041EA0B0153465A46084313D01146AC
:1005500053EA010019D0C8F140025046FFF7C0FF2E
:1005600005460E46504659464246FFF7AAFF084345
:1005700005D0012004E020463946BDE8F08D00207A
:10058000054346EAE0762C4337430A986305E40ABC
:10059000A0EB08000022FD0A44EA47540A3002D5C5
:1005A00000200146E9E7010510196941DDE9084528
:1005B00000196941BDE8F04DA2E72DE9FE4F8046E4
:1005C00081EA0300C00F0C46009021F0004123F0A7
:1005D0000045B8EB0200A94105D2404621469046AD
:1005E0001C460B46024623F00040104347D0270D1F
:1005F000C7F30A00C3F30A510290401A0190402841
:100600006BDAC3F3130040F4801B0098924620B1CC
:100610000023D2EB030A63EB0B0B01985946C0F1A0
:1006200040025046FFF74DFF06460D4650465946DC
:10063000019A00F0B3F810EB08006141002487EA4A
:10064000115284EAE7731A4340D0009A62B3019AC8
:10065000012A4FEA075215DC001B61EB02014FF043
:10066000004202EA0752CDE90042001C41F5801128
:1006700032462B46FFF753FF03B000F045B8404623
:100680002146F9E7001B61EB0201001C41F58013D4
:1006900000185B412018A2F5001747EB030140EA60
:1006A000D570B6196D4111E06D084FEA360645EA7E
:1006B000C0754FEA0752001B61EB0201001C41F5B7
:1006C000801149084FEA30000019514132462B464B
:1006D00003B000F01CB8FFF713BF009801224000E0
:1006E0000023D0EB020263EBE073009821464FEA4F
:1006F000E074B8EB000061EB0401E9E783F000432C
:100700005BE781F0004158E730BCBDE8C08F30BCEA
:10071000BDE8C04FFFF7DFBFC1F30A52C1F31301B9
:1007200040F2FF3341F480119A4202DA0020014680
:10073000704740F233439A42A2F2334202DC524203
:10074000FFF7CEBEFFF7BDBE30B5041E71F1000449
:1007500004DB4FF00044404264EB0101141E73F1CE
:10076000000405DB1C464FF00043524263EB0403D8
:10077000994208BF904230BD064C074D06E0E06844
:1007800040F0010394E8070098471034AC42F6D3D8
:10079000FFF700FDB0500008D0500008202A06DB0B
:1007A000CB17203A41FA02F043EAE07306E041FA3F
:1007B00002F3D040C2F1200291400843194670472D
:1007C000FFE7FEE77047000081B0EFF3108072B6DC
:1007D0000090FFE7FEE7000083B0019000208DF855
:1007E0000300019890F8250002280DD0FFE701983A
:1007F0000421C163FFE70198002180F82410FFE77E
:1008000001208DF80B0022E001980068016821F0BA
:100810000E01016001980068016821F0010101608A
:100820000198016C406C00F01C00012202FA00F0FB
:100830004860019880F82520FFE70198002180F8A2
:100840002410FFE79DF803008DF80B00FFE79DF8EB
:100850000B0003B07047000080B582B0019000200B
:100860008DF80300019890F82500022807D0FFE7D3
:1008700001980421C16301208DF8030027E001984D
:100880000068016821F00E010160019800680168AC
:1008900021F0010101600198016C406C00F01C0026
:1008A000012202FA00F04860019880F82520FFE755
:1008B0000198002180F82410FFE70198806B002840
:1008C00004D0FFE70198816B8847FFE7FFE79DF8B9
:1008D000030002B080BD00008AB00990089100209A
:1008E0000790FFE7089800680799C840002800F0C3
:1008F0009D81FFE7089800680799012202FA01F13B
:10090000084006900698002800F08C81FFE70898C0
:10091000406800F00300012807D0FFE7089840680E
:1009200000F0030002282FD1FFE7099880680590A6
:1009300007984000032101FA00F0059921EA000020
:1009400005900898C06807994900884005990843B0
:10095000059005980999886009984068059007985E
:10096000012101FA00F0059921EA0000059008989C
:100970004068C0F300100799884005990843059026
:10098000059809994860FFE70898406800F003005F
:10099000032818D0FFE70998C06805900798400021
:1009A000032101FA00F0059921EA0000059008985A
:1009B0008068079949008840059908430590059883
:1009C0000999C860FFE70898406800F00300022812
:1009D00026D1FFE7099807996FF0030202EA510157
:1009E0000844006A0590079800F0070080000F2176
:1009F00001FA00F0059921EA0000059008980069C5
:100A0000079901F00701890088400599084305907E
:100A100005980999079B02EA530211440862FFE70F
:100A200009980068059007984000032101FA00F03A
:100A3000059921EA000005900898406800F003003D
:100A40000799490088400599084305900598099938
:100A50000860089880798007002800F0E280FFE7AE
:100A6000FFE741F26000C4F20200016841F00101B9
:100A70000160006800F0010004900498FFE7079807
:100A800020F003000821C4F20101405805900798A6
:100A900000F0030080000F2101FA00F0059921EA1F
:100AA000000005900998B0F1904F03D1FFE70020B6
:100AB000039034E0099840F20041C4F600018842F6
:100AC00003D1FFE70120029026E0099840F60001DB
:100AD000C4F60001884203D1FFE70220019018E02C
:100AE000099840F60041C4F60001884203D1FFE7AF
:100AF000032000900AE0099841F20001C4F60001C9
:100B00000722884208BF04220092FFE70098019064
:100B1000FFE701980290FFE702980390FFE7039830
:100B2000079901F003018900884005990843059061
:100B30000598079921F003010822C4F201028850A8
:100B400040F20840C4F2010000680590069805993B
:100B500021EA0000059008988079C006002805D594
:100B6000FFE70698059908430590FFE7059840F2CE
:100B70000841C4F20101086040F20C40C4F20100D7
:100B8000006805900698059921EA000005900898EC
:100B900080798006002805D5FFE706980599084367
:100BA0000590FFE7059840F20C41C4F2010108608E
:100BB00040F20440C4F201000068059006980599CF
:100BC00021EA00000590089880798007002805D563
:100BD000FFE70698059908430590FFE7059840F25E
:100BE0000441C4F20101086040F20040C4F2010077
:100BF000006805900698059921EA0000059008987C
:100C00008079C007002805D0FFE7069805990843BA
:100C10000590FFE7059840F20041C4F20101086029
:100C2000FFE7FFE70798013007905BE60AB07047DF
:100C300082B013468C460190ADF802108DF8012069
:100C40009DF80100002805D0FFE7BDF802000199DA
:100C5000886104E0BDF8020001998862FFE702B0F4
:100C60007047000040F29C20C2F20000006870470C
:100C700040F23400C2F20000007840F29C21C2F23F
:100C800000010A68104408607047000080B582B017
:100C900000208DF8070003210090084600F0A6F818
:100CA000009800F00FF8002804D0FFE701208DF82D
:100CB000070002E000F04CF8FFE79DF8070002B0E3
:100CC00080BD000080B582B0019000208DF8030047
:100CD00040F23400C2F200000078002830D0FFE774
:100CE00040F20000C2F20000006840F23401C2F29B
:100CF000000109784FF47A72B2FBF1F1B0FBF1F028
:100D000001F0A8FA002816D1FFE701980F280DD8A6
:100D1000FFE701994FF0FF30002200F047F80198FB
:100D200040F23801C2F20001086003E001208DF8B2
:100D30000300FFE703E001208DF80300FFE703E075
:100D400001208DF80300FFE79DF8030002B080BD8D
:100D500082B0FFE741F26000C4F20200016841F096
:100D600001010160006800F0010001900198FFE7B7
:100D7000FFE741F25800C4F20200016841F08051DF
:100D80000160006800F0805000900098FFE702B01A
:100D90007047000080B582B001468DF807009DF9CC
:100DA0000700009102F0AEFD02B080BD80B588B0B2
:100DB00003468DF81F0006910592002004900393CE
:100DC00002F0BAFD04909DF91F000499069A059B54
:100DD0000290084611461A4601F09AFE02990190C7
:100DE0000846019902F0B0FD08B080BD80B582B020
:100DF0000190019802F0CAFD02B080BD84B002905B
:100E00000298B0F5007F4ED1FFE747F20000C4F230
:100E10000000006800F4C060B0F5007F42D0FFE73A
:100E200047F20000C4F200000168012262F34A2187
:100E3000016040F20000C2F2000000683221484325
:100E40004DF68361C4F21B31A0FB010102EB91411D
:100E50000191FFE747F21400C4F20000006800218E
:100E600040050028009106D5FFE70198002818BF2B
:100E700001200090FFE70098C007002804D0FFE79A
:100E8000019801380190E5E747F21400C4F2000030
:100E900000684005002804D5FFE703208DF80F0007
:100EA0001BE0FFE715E047F20000C4F20000006815
:100EB00000F4C060B0F5806F0AD0FFE747F2000091
:100EC000C4F200000168022262F34A210160FFE7D8
:100ED000FFE700208DF80F00FFE79DF80F0004B03A
:100EE0007047000047F20000C4F20000006800F400
:100EF000C060704780B586B0059000208DF80B006B
:100F00008DF80A0005984078000700283DD5FFE7D6
:100F10000598406C0028009013D0FFE70098B0F5CA
:100F2000000F05D0FFE70098B0F5400F11D011E099
:100F300041F20C00C4F20200016841F4803101600A
:100F40000CE005980430002101F01CFE8DF80B0028
:100F500004E003E001208DF80B00FFE79DF80B0093
:100F600000280CD1FFE741F28800C4F202000168BA
:100F700021F44001059A526C1143016004E09DF890
:100F80000B008DF80A00FFE7FFE7059880788007DF
:100F9000002840F1B880FFE700208DF8090041F2F9
:100FA0005800C4F202000068C000002813D4FFE714
:100FB000FFE741F25800C4F20200016841F080519D
:100FC0000160006800F0805001900198FFE7012067
:100FD0008DF80900FFE747F20000C4F20000016845
:100FE00041F480710160FFF73DFE0390FFE747F297
:100FF0000000C4F200000068C00500280CD4FFE720
:10100000FFF730FE0399401A032804D3FFE70320BB
:101010008DF80B0000E0EAE79DF80B0000285ED198
:10102000FFE741F29000C4F20200006800F4407053
:1010300004900498002819D0FFE704980599896D59
:10104000884213D0FFE741F29000C4F20200016829
:1010500021F440710491016841F48031016001681C
:1010600021F48031016004990160FFE79DF81000D0
:10107000C00700281CD0FFE7FFF7F4FD0390FFE74F
:1010800041F29000C4F202000068800700280ED4EC
:10109000FFE7FFF7E7FD0399401A41F289318842E3
:1010A00004D3FFE703208DF80B0000E0E8E7FFE73B
:1010B0009DF80B0000280CD1FFE741F29000C4F22C
:1010C0000200016821F44071059A926D114301609C
:1010D00004E09DF80B008DF80A00FFE704E09DF89E
:1010E0000B008DF80A00FFE79DF80900012809D1DF
:1010F000FFE741F25800C4F20200016821F080517C
:101100000160FFE7FFE705980078C00700280CD0D2
:10111000FFE741F28800C4F20200016821F00301F8
:10112000059A126A11430160FFE70598007880076D
:1011300000280CD5FFE741F28800C4F202000168E4
:1011400021F00C01059A526A11430160FFE70598EE
:101150000078400700280CD5FFE741F28800C4F270
:101160000200016821F03001059A926A1143016082
:10117000FFE705980078800600280CD5FFE741F2CC
:101180008800C4F20200016821F44061059AD26A25
:1011900011430160FFE705984078800700280CD5CF
:1011A000FFE741F28800C4F20200016821F4402107
:1011B000059AD26B11430160FFE70598407840071C
:1011C00000280CD5FFE741F28800C4F20200016854
:1011D00021F44011059A126C11430160FFE7059854
:1011E0000078400600280CD5FFE741F28800C4F2E1
:1011F0000200016821F44051059A126B114301600D
:10120000FFE705980078000600280CD5FFE741F2BB
:101210008800C4F20200016821F44041059A526B33
:1012200011430160FFE705984078C00700280CD003
:10123000FFE741F28800C4F20200016821F4403166
:10124000059A926B11430160FFE7059880780007CB
:10125000002835D5FFE741F28800C4F2020001689A
:1012600021F04061059A926C114301600598806CF1
:10127000B0F1006F09D1FFE741F20C00C4F20200A7
:10128000016841F48011016019E00598806CB0F1AB
:10129000806F12D1FFE705980430012101F072FC44
:1012A0008DF80B009DF80B00002805D0FFE79DF896
:1012B0000B008DF80A00FFE700E0FFE7FFE7FFE71C
:1012C000059880784007002835D5FFE741F288006F
:1012D000C4F20200016821F04061059AD26C11430A
:1012E00001600598C06CB0F1006F09D1FFE741F2D1
:1012F0000C00C4F20200016841F48011016019E0A1
:101300000598C06CB0F1806F12D1FFE705980430EA
:10131000012101F037FC8DF80B009DF80B0000282F
:1013200005D0FFE79DF80B008DF80A00FFE700E00D
:10133000FFE7FFE7FFE7059840784006002824D53F
:10134000FFE741F28800C4F20200016821F0405139
:10135000059A126D114301600598006DB0F1805F30
:1013600012D1FFE705980430022101F00BFC8DF843
:101370000B009DF80B00002805D0FFE79DF80B003F
:101380008DF80A00FFE7FFE7FFE7059840780006C1
:1013900000280CD5FFE741F28800C4F20200016882
:1013A00021F08041059A526D11430160FFE79DF8DD
:1013B0000A0006B080BD000080B586B0049003919D
:1013C0000498002804D1FFE701208DF8170016E1EA
:1013D000039842F20001C4F20201096801F007011A
:1013E000884216D9FFE742F20000C4F20200016809
:1013F00021F00701039A11430160006800F0070023
:101400000399884204D0FFE701208DF81700F6E029
:10141000FFE704980078C007002874D0FFE704981D
:10142000406803280ED1FFE741F20000C4F2020039
:1014300000688001002804D4FFE701208DF8170020
:10144000DDE035E00498406802280ED1FFE741F264
:101450000000C4F2020000688003002804D4FFE703
:1014600001208DF81700CAE021E0049840680028A8
:101470000ED1FFE741F20000C4F2020000688007CD
:10148000002804D4FFE701208DF81700B7E00DE035
:1014900041F20000C4F2020000684005002804D4B4
:1014A000FFE701208DF81700A9E0FFE7FFE7FFE75E
:1014B00041F20800C4F20200016821F00301049A1D
:1014C000526811430160FFF7CDFB0290FFE741F244
:1014D0000800C4F20200006800F00C00049949689A
:1014E000B0EB810F0ED0FFE7FFF7BCFB0299401A6B
:1014F00041F28931884204D3FFE703208DF81700B9
:101500007DE0E4E7FFE704980078800700280CD529
:10151000FFE741F20800C4F20200016821F0F00187
:10152000049A926811430160FFE7039842F20001B8
:10153000C4F20201096801F00701884216D2FFE7F0
:1015400042F20000C4F20200016821F00701039A90
:1015500011430160006800F007000399884204D03D
:10156000FFE701208DF8170049E0FFE704980078B5
:10157000400700280CD5FFE741F20800C4F2020042
:10158000016821F4E061049AD26811430160FFE729
:1015900004980078000700280DD5FFE741F2080005
:1015A000C4F20200016821F46051049A126941EA10
:1015B000C2010160FFE700F055F841F20801C4F2F2
:1015C00002010968C9B2090944F6CC52C0F600020A
:1015D000515C01F01F01C84040F20001C2F200015D
:1015E000086040F23800C2F200000068FFF76AFBB2
:1015F0008DF807009DF807008DF81700FFE79DF8AC
:10160000170006B080BD000040F20000C2F20000EA
:101610000068704780B5FFF7F7FF41F20801C4F298
:1016200002010968C1F3022144F6DC52C0F600024F
:10163000515C01F01F01C84080BD000080B5FFF77C
:10164000E3FF41F20801C4F202010968C1F3C221BB
:1016500044F6DC52C0F60002515C01F01F01C840A4
:1016600080BD000089B000200890079041F208007A
:10167000C4F20200006800F00C00029041F20C007D
:10168000C4F20200006800F00300019002980028F4
:1016900008D0FFE702980C282FD1FFE70198012816
:1016A0002BD1FFE741F20000C4F2020000680007FE
:1016B000002809D4FFE741F29400C4F20200006858
:1016C000C0F30320089008E041F20000C4F20200D9
:1016D0000068C0B200090890FFE7089844F6E4519A
:1016E000C0F6000151F8200008900298002803D1AC
:1016F000FFE708980790FFE716E00298042806D154
:10170000FFE742F20040C0F2F40007900BE00298BD
:10171000082806D1FFE741F20020C0F27A000790C6
:1017200000E0FFE7FFE7FFE702980C2846D1FFE75C
:1017300041F20C00C4F20200006800F003000590C2
:1017400005980128009014D0FFE70098022804D0E3
:10175000FFE70098032806D00CE042F20040C0F2F8
:10176000F400069009E041F20020C0F27A000690F1
:1017700003E0FFE708980690FFE741F20C00C4F28F
:101780000200016801F07001012202EB11110391C6
:1017900006990268C2F306225143039AB1FBF2F1A3
:1017A0000691006800F0C060022101EB1060049017
:1017B00006980499B0FBF1F00790FFE7079809B08D
:1017C00070470000B0B58AB008900898002805D18D
:1017D000FFE701208DF8270000F038BD41F2080036
:1017E000C4F20200006800F00C00059041F20C0009
:1017F000C4F20200006800F003000490089800782A
:10180000C006002840F13481FFE7059800280AD07F
:10181000FFE705980C2840F0C280FFE704980128F4
:1018200040F0BD80FFE741F20000C4F20200006812
:10183000800700280AD5FFE708988069002805D1AD
:10184000FFE701208DF8270000F000BD0898006A2E
:1018500041F20001C4F20201096809070029019060
:1018600009D5FFE741F20000C4F20200006800F071
:10187000F000009009E041F29400C4F20200006818
:1018800000F4706000090090FFE700980199814220
:101890002AD9FFE70898006A01F0B8FA002805D0B5
:1018A000FFE701208DF8270000F0D0BCFFE741F2F0
:1018B0000000C4F20200016841F008010160016803
:1018C00021F0F001089A126A11430160FFE741F22A
:1018D0000400C4F20200016821F47F41089AD26931
:1018E00041EA022101602EE0FFE741F20000C4F26C
:1018F0000200016841F008010160016821F0F00177
:10190000089A126A11430160FFE741F20400C4F231
:101910000200016821F47F41089AD26941EA02215C
:101920000160059800280DD1FFE70898006A01F0D2
:101930006DFA002805D0FFE701208DF8270000F0A0
:1019400085BCFFE7FFE7FFF78DFE41F20801C4F217
:1019500002010968C9B2090944F6CC52C0F6000276
:10196000515C01F01F01C84040F20001C2F20001C9
:10197000086040F23800C2F200000068FFF7A2F9E8
:101980008DF81B009DF81B00002806D0FFE79DF88E
:101990001B008DF8270000F059BCFFE767E00898AE
:1019A0008069002840D0FFE741F20000C4F2020045
:1019B000016841F001010160FFF754F90790FFE76A
:1019C00041F20000C4F202000068800700280DD434
:1019D000FFE7FFF747F90799401A032805D3FFE708
:1019E00003208DF8270000F031BCE9E7FFE741F262
:1019F0000000C4F20200016841F0080101600168C2
:101A000021F0F001089A126A11430160FFE741F2E8
:101A10000400C4F20200016821F47F41089AD269EF
:101A200041EA0221016021E041F20000C4F202001B
:101A3000016821F001010160FFF714F90790FFE749
:101A400041F20000C4F202000068800700280CD5B3
:101A5000FFE7FFF707F90799401A032804D3FFE7C8
:101A600003208DF82700F1E3EAE7FFE7FFE7FFE750
:101A700008980078C007002800F08D80FFE70598DF
:101A8000082808D0FFE705980C2817D1FFE704982D
:101A9000032813D1FFE741F20000C4F202000068FE
:101AA0008003002809D5FFE708984068002804D182
:101AB000FFE701208DF82700C8E36BE0FFE70898F7
:101AC0004068B0F5803F09D1FFE741F20000C4F261
:101AD0000200016841F48031016020E0089840680C
:101AE000B0F5A02F0DD1FFE741F20000C4F20200D3
:101AF000016841F480210160016841F48031016096
:101B00000CE041F20000C4F20200016821F48031CF
:101B10000160016821F480210160FFE7FFE7FFE732
:101B20000898406800281AD0FFE7FFF79BF8079055
:101B3000FFE741F20000C4F20200006880030028C1
:101B40000CD4FFE7FFF78EF80799401A652804D3F5
:101B5000FFE703208DF8270078E3EAE719E0FFF7B5
:101B600081F80790FFE741F20000C4F2020000682C
:101B7000800300280CD5FFE7FFF774F80799401A97
:101B8000652804D3FFE703208DF827005EE3EAE72A
:101B9000FFE7FFE7FFE7089800788007002840F19B
:101BA0008480FFE70598042808D0FFE705980C28F3
:101BB00024D1FFE70498022820D1FFE741F200007A
:101BC000C4F2020000684005002809D5FFE7089824
:101BD000C068002804D1FFE701208DF8270035E315
:101BE00041F20400C4F20200016821F0F851089AA1
:101BF000126941EA02610160FFE755E00898C06898
:101C000000282ED0FFE741F20000C4F20200016874
:101C100041F480710160FFF725F80790FFE741F27A
:101C20000000C4F202000068400500280CD4FFE761
:101C3000FFF718F80799401A032804D3FFE7032099
:101C40008DF8270002E3EAE741F20400C4F2020043
:101C5000016821F0F851089A126941EA02610160B5
:101C600021E041F20000C4F20200016821F4807119
:101C70000160FEF7F7FF0790FFE741F20000C4F2B2
:101C800002000068400500280CD5FFE7FEF7EAFFD8
:101C90000799401A032804D3FFE703208DF8270093
:101CA000D4E2EAE7FFE7FFE7FFE7089800780007DC
:101CB00000284AD5FFE708984069002822D0FFE7AE
:101CC00041F29400C4F20200016841F00101016098
:101CD000FEF7C8FF0790FFE741F29400C4F202004C
:101CE0000068800700280CD4FFE7FEF7BBFF0799C8
:101CF000401A032804D3FFE703208DF82700A5E24C
:101D0000EAE721E041F29400C4F20200016821F008
:101D100001010160FEF7A6FF0790FFE741F2940082
:101D2000C4F202000068800700280CD5FFE7FEF728
:101D300099FF0799401A032804D3FFE703208DF881
:101D4000270083E2EAE7FFE7FFE70898007840070B
:101D5000002840F1C780FFE700208DF80F0041F216
:101D60005800C4F202000068C000002813D4FFE746
:101D7000FFE741F25800C4F20200016841F08051CF
:101D80000160006800F0805002900298FFE7012097
:101D90008DF80F00FFE747F20000C4F20000006872
:101DA000C005002822D4FFE747F20000C4F200007B
:101DB000016841F480710160FEF754FF0790FFE76E
:101DC00047F20000C4F200000068C00500280CD4EF
:101DD000FFE7FEF747FF0799401A032804D3FFE700
:101DE00003208DF8270031E2EAE7FFE7FFE70898D4
:101DF0008068012809D1FFE741F29000C4F2020097
:101E0000016841F0010101601FE008988068052821
:101E10000DD1FFE741F29000C4F20200016841F0E9
:101E200004010160016841F0010101600CE041F230
:101E30009000C4F20200016821F001010160016814
:101E400021F004010160FFE7FFE7FFE708988068E1
:101E500000281CD0FFE7FEF705FF0790FFE741F2DF
:101E60009000C4F202000068800700280ED4FFE74B
:101E7000FEF7F8FE0799401A41F28931884204D3EF
:101E8000FFE703208DF82700E0E1E8E71BE0FEF71D
:101E9000E9FE0790FFE741F29000C4F202000068FB
:101EA000800700280ED5FFE7FEF7DCFE0799401AF1
:101EB00041F28931884204D3FFE703208DF82700DF
:101EC000C4E1E8E7FFE79DF80F00012809D1FFE72B
:101ED00041F25800C4F20200016821F08051016013
:101EE000FFE7FFE708980078800600284AD5FFE75B
:101EF0000898406A002822D0FFE741F29800C4F217
:101F00000200016841F001010160FEF7ABFE07909D
:101F1000FFE741F29800C4F2020000688007002841
:101F20000CD4FFE7FEF79EFE0799401A032804D35E
:101F3000FFE703208DF8270088E1EAE721E041F27E
:101F40009800C4F20200016821F001010160FEF76F
:101F500089FE0790FFE741F29800C4F20200006892
:101F6000800700280CD5FFE7FEF77CFE0799401A92
:101F7000032804D3FFE703208DF8270066E1EAE792
:101F8000FFE7FFE70898806A002800F05B81FFE721
:101F90000898806A022840F01081FFE741F20C00A7
:101FA000C4F2020000680490049800F0030008994D
:101FB000C96A88423CD1FFE7049800F07000089994
:101FC000096B6FF00F0202EB0111884230D1FFE77D
:101FD000049800F4FE400899496BB0EB012F27D11B
:101FE000FFE7049800F078400899896BB0EBC16F67
:101FF0001ED1FFE7049800F4C0000899C96B0022C5
:10200000CFF6E07202EA0151A1F5001188420FD12A
:10201000FFE7049800F0C0600899096C4FF07E4219
:1020200002EA016101F17E41884200F09180FFE700
:1020300005980C2800F08780FFE741F20000C4F209
:10204000020000684001002804D5FFE701208DF858
:102050002700FBE041F20000C4F20200016821F019
:1020600080710160FEF7FEFD0790FFE741F200007E
:10207000C4F202000068800100280CD5FFE7FEF7DB
:10208000F1FD0799401A032804D3FFE703208DF8D8
:102090002700DBE0EAE741F20C00C4F2020001682D
:1020A00048F28C02C0F29D121140089AD36AD2F80D
:1020B00030C0D2F834E0946B6FF00F0505EB0C1CC8
:1020C00043EA0C0343EA0E23D2F83CC040F2000E70
:1020D000CFF6E07E0EEA0C5CACF5001C43EA0C0384
:1020E000126C4FF07E4C0CEA026202F17E421A43FF
:1020F00042EAC4621143016041F20001C4F20201EC
:102100000A6842F080720A60016841F080710160E3
:10211000FEF7A8FD0790FFE741F20000C4F20200BD
:102120000068800100280CD4FFE7FEF79BFD0799AB
:10213000401A032804D3FFE703208DF8270085E029
:10214000EAE7FFE703E001208DF827007EE033E0B7
:1021500041F20000C4F202000068800100282AD485
:10216000FFE741F20000C4F20200016841F0807113
:10217000016041F20C00C4F20200016841F080717C
:102180000160FEF76FFD0790FFE741F20000C4F227
:1021900002000068800100280CD4FFE7FEF762FD12
:1021A0000799401A032804D3FFE703208DF827007E
:1021B0004CE0EAE7FFE7FFE743E005980C283BD057
:1021C000FFE741F20000C4F20200016821F08071D3
:1021D000016000680001002809D4FFE741F20C000B
:1021E000C4F20200016821F003010160FFE741F23F
:1021F0000C00C4F2020001684FF6FF72CFF6EE62E7
:1022000011400160FEF72EFD0790FFE741F200004C
:10221000C4F202000068800100280CD5FFE7FEF739
:1022200021FD0799401A032804D3FFE703208DF806
:1022300027000BE0EAE703E001208DF8270005E026
:10224000FFE7FFE700208DF82700FFE79DF8270054
:102250000AB0B0BD80B582B00190019800F050FE88
:1022600002B080BD82B00A460190ADF8021002B003
:102270007047000081B0009001B0704781B00090BD
:1022800001B0704780B590B00F900F980068C0699A
:102290000E900F98006800680D900F980068806895
:1022A0000C900E9840F60F0108400B900B980028F8
:1022B00017D1FFE79DF838008006002810D5FFE70A
:1022C0009DF83400800600280AD5FFE70F98406E7D
:1022D000002804D0FFE70F98416E8847FFE743E2EC
:1022E000FFE70B98002800F00781FFE79DF830001A
:1022F000C007002809D1FFE70D9840F22011C0F275
:102300000041084200F0F880FFE79DF83800C00760
:10231000002812D0FFE79DF83500C00700280CD038
:10232000FFE70F980068012101620F98D0F8801034
:1023300041F00101C0F88010FFE79DF838008007E8
:10234000002812D5FFE79DF83000C00700280CD008
:10235000FFE70F980068022101620F98D0F8801003
:1023600041F00401C0F88010FFE79DF838004007F5
:10237000002812D5FFE79DF83000C00700280CD0D8
:10238000FFE70F980068042101620F98D0F88010D1
:1023900041F00201C0F88010FFE79DF83800000707
:1023A000002818D5FFE79DF834008006002806D4E1
:1023B000FFE79DF83000C00700280CD0FFE70F981A
:1023C0000068082101620F98D0F8801041F00801E0
:1023D000C0F88010FFE79DF839000007002813D5EA
:1023E000FFE79DF83700400700280DD5FFE70F985D
:1023F00000684FF4006101620F98D0F8801041F03E
:102400002001C0F88010FFE70F98D0F88000002866
:1024100071D0FFE79DF838008006002810D5FFE74F
:102420009DF83400800600280AD5FFE70F98406E1B
:10243000002804D0FFE70F98416E8847FFE7FFE7C9
:102440000F98D0F880000A900F980068806800F01C
:102450004000402806D0FFE79DF8280010F0280F24
:1024600040D0FFE70F9800F0D5FE0F980068806815
:102470004006002831D5FFE7FFE7FFE70F98006827
:1024800050E8020F20F040000990FFE709980F99EB
:10249000096841E80202002AF0D1FFE7FFE70F9840
:1024A000006F002814D0FFE70F98006F43F2F1117E
:1024B000C0F6000181630F98006FFEF7CDF9002888
:1024C00005D0FFE70F98006F816B8847FFE703E0B7
:1024D0000F98FFF7D3FEFFE703E00F98FFF7CEFE5C
:1024E000FFE707E00F98FFF7C9FE0F980021C0F83B
:1024F0008010FFE7FFE737E10F98006E012840F0FA
:10250000F880FFE79DF83800C006002840F1F18010
:10251000FFE79DF83400C006002840F1EA80FFE79D
:102520000F980068102101620F98006880684006CB
:10253000002840F18380FFE70F98006F0068406833
:10254000ADF82200BDF82200002876D0FFE7BDF8E4
:1025500022000F99B1F8581088426EDAFFE7BDF8F3
:1025600022000F99A1F85A000F98006F00680068C8
:102570008006002857D4FFE7FFE7FFE70F980068C1
:1025800050E8000F20F480700790FFE707980F993C
:10259000096841E80002002AF0D1FFE7FFE7FFE702
:1025A000FFE70F98006850E8020F20F00100069046
:1025B000FFE706980F99096841E80202002AF0D166
:1025C000FFE7FFE7FFE7FFE70F98006850E8020F1B
:1025D00020F040000590FFE705980F99096841E851
:1025E0000202002AF0D1FFE7FFE70F982021C16720
:1025F0000F9800210166FFE7FFE70F98006850E899
:10260000000F20F010000490FFE704980F9909686C
:1026100041E80002002AF0D1FFE7FFE70F98006FC2
:10262000FEF7DAF8FFE70F98B0F85810B0F85A2024
:10263000891A89B2FFF716FEFFE795E00F98B0F808
:102640005810B0F85A00081AADF80E000F98B0F8FC
:102650005A0000284CD0FFE7BDF80E00002847D0F4
:10266000FFE7FFE7FFE70F98006850E8000F20F44E
:1026700090700290FFE702980F99096841E8000204
:10268000002AF0D1FFE7FFE7FFE7FFE70F980068B8
:1026900050E8020F20F001000190FFE701980F9928
:1026A000096841E80202002AF0D1FFE7FFE70F982E
:1026B0002021C1670F98002101660F984166FFE74E
:1026C000FFE70F98006850E8000F20F0100000901E
:1026D000FFE700980F99096841E80002002AF0D14D
:1026E000FFE7FFE70F98BDF80E10FFF7BBFDFFE710
:1026F0003AE09DF83A00C00600280FD5FFE79DF8A4
:1027000032004006002809D5FFE70F9800684FF413
:10271000801101620F98FFF7ADFD25E09DF83800AC
:102720000006002810D5FFE79DF8340000060028B9
:102730000AD5FFE70F98806E002804D0FFE70F98B6
:10274000816E8847FFE70FE09DF8380040060028BB
:102750000AD5FFE79DF834004006002804D5FFE7BE
:102760000F9800F0A3FDFFE710B080BD80B582B0E8
:1027700000900098002804D1FFE701208DF80700A1
:1027800047E000988069002801D0FFE700E0FFE7FC
:102790000098806F002808D1FFE70098002180F89A
:1027A0007410009800F03AF8FFE700982421816740
:1027B00000980068016821F001010160009800F0B4
:1027C00097FD012804D1FFE701208DF8070020E0E4
:1027D0000098406A002804D0FFE7009800F00EFC43
:1027E000FFE700980068416821F49041416000983B
:1027F0000068816821F02A01816000980068016802
:1028000041F001010160009800F09EFC8DF8070086
:10281000FFE79DF8070002B080BD000080B5A8B0BA
:1028200027900020269025902490239022900BA89A
:102830005C21FDF714FD2798006848F20001C4F2FE
:102840000001884248D1FFE720200B90002016901D
:102850000BA8FEF74FFB002803D0FFE7FDF7B4FFFE
:10286000FFE7FFE741F25C00C4F20200016841F0BB
:1028700001010160006800F001000A900A98FFE77A
:10288000FFE741F24C00C4F20200016841F004018C
:102890000160006800F0040009900998FFE7032038
:1028A0002290022123910022249225900820269034
:1028B00040F60000C4F6000022AB069119460592CE
:1028C000FEF70AF8462004900699059AFEF76EFA7C
:1028D0000498FEF75FFA52E02798006843F600017B
:1028E000C4F20101884249D1FFE701200B9000208A
:1028F00013900BA8FEF7FEFA002803D0FFE7FDF7C0
:1029000063FFFFE7FFE741F26000C4F202000168E5
:1029100041F480410160006800F48040089008980C
:10292000FFE7FFE741F24C00C4F20200016841F00A
:1029300001010160006800F0010007900798FFE7BF
:102940004FF4C060229002202390002124910322A2
:102950002592072226924FF0904222AB0390104618
:1029600002911946FDF7B8FF252001900399029ABC
:10297000FEF71CFA0198FEF70DFAFFE7FFE728B013
:1029800080BD000081B0009001B07047FFE7FEE716
:1029900080B540F29010C2F20000FFF773FC80BDDA
:1029A00080B590B000200F900E900D900C900B9081
:1029B000FFE741F24C00C4F20200016841F004015B
:1029C0000160006800F004000A900A98FFE7FFE742
:1029D00041F24C00C4F20200016841F002010160C2
:1029E000006800F0020009900998FFE7FFE741F254
:1029F0004C00C4F20200016841F00101016000686E
:102A000000F0010008900898FFE7FFE741F24C0052
:102A1000C4F20200016841F008010160006800F0A2
:102A2000080007900798FFE740F60000C4F6000092
:102A30004FF40151002206900592FEF7F9F840F29A
:102A40000040C4F600004FF40041012204900391BD
:102A50000292FEF7EDF880210698029AFEF7E8F858
:102A60004FF400500B9002980C9005990D910E9127
:102A70000BAA069811460192FDF72EFF0C200B9031
:102A800005980C9002990D9104980199FDF724FF87
:102A900003980B9002990C91059A0D9202230E93C4
:102AA000049801990093FDF717FFC0200B9002983E
:102AB0000C9005990D91009A0E9206980199FDF7D8
:102AC0000BFF10B080BD000080B540F21420C2F2B0
:102AD000000043F60001C4F2010101604FF4E1314E
:102AE000416000218160C16001610C22426181610D
:102AF000C16101624162FFF739FE002803D0FFE7A0
:102B0000FDF762FEFFE780BDFFE7FEE7FFE7FEE7B8
:102B100088B0079006910592079800F0070004908E
:102B20000498C0F10700052803D3FFE704200190B3
:102B300004E00498C0F107000190FFE701980390BA
:102B400004980430062803D8FFE70020009003E033
:102B5000049803380090FFE70098029006980399C4
:102B6000012202FA01F10139084002998840059BCF
:102B700002FA01F101391940084308B0704700001A
:102B80007047000080B586B00590049100208DF854
:102B90000B0041F20C00C4F202000068800700281C
:102BA00025D0FFE741F20C00C4F20200006800F0FB
:102BB000030005990968884214D1FFE70598006869
:102BC00000280FD0FFE741F20C00C4F202000068B9
:102BD00000F07000012101EB10100599496888424E
:102BE00004D0FFE701208DF80B00FFE75DE00598BA
:102BF00000680128019008D0FFE70198022812D050
:102C0000FFE7019803281CD033E041F20000C4F232
:102C1000020000688007002804D4FFE701208DF837
:102C20000B00FFE729E041F20000C4F20200006857
:102C30004005002804D4FFE701208DF80B00FFE7D2
:102C40001BE041F20000C4F202000068800300288B
:102C50000ED4FFE741F20000C4F202000068400316
:102C6000002804D4FFE701208DF80B00FFE7FFE701
:102C700003E001208DF80B00FFE79DF80B00002812
:102C800012D1FFE741F20C00C4F20200016821F00A
:102C90007301059A136852686FF00F0C0CEB021267
:102CA0001A4311430160FFE7FFE79DF80B0000287E
:102CB00040F0A880FFE741F20000C4F20200016882
:102CC00021F080610160FDF7CDFF0390FFE741F245
:102CD0000000C4F202000068000100280CD5FFE7E4
:102CE000FDF7C0FF0399401A032804D3FFE7032030
:102CF0008DF80B0000E0EAE79DF80B00002840F09B
:102D00008080FFE70498002813D1FFE741F210000C
:102D1000C4F20200016848F2FF02C0F2FF721140E3
:102D2000059A9368D2681B0243EAC26211430160AC
:102D300036E0049801281AD1FFE741F21000C4F2EE
:102D40000200016848F2FF02CFF69F721140059A17
:102D50009368126940F2000CCFF6E07C0CEA025254
:102D6000A2F5001242EA03221143016017E041F28A
:102D70001000C4F20200016848F2FF02CFF6FF1211
:102D80001140059A936852694FF07E4C0CEA02623A
:102D900002F17E4242EA032211430160FFE7FFE7AE
:102DA00041F20000C4F20200016841F0806101605C
:102DB000FDF758FF0390FFE741F20000C4F2020064
:102DC0000068000100280CD4FFE7FDF74BFF0399D2
:102DD000401A032804D3FFE703208DF80B0000E01E
:102DE000EAE79DF80B0000280AD1FFE70598806903
:102DF00041F21001C4F202010A6810430860FFE7C3
:102E0000FFE7FFE79DF80B0006B080BD80B586B0F8
:102E100004900020029041F25800C4F202000068C1
:102E2000C000002804D5FFE7FEF75CF803901AE025
:102E3000FFE741F25800C4F20200016841F08051FE
:102E40000160006800F0805001900198FFE7FEF7F4
:102E500049F8039041F25800C4F20200016821F0E1
:102E600080510160FFE70398B0F5007F10D1FFE7C4
:102E7000049881280BD3FFE70498A12803D3FFE728
:102E80000220029002E001200290FFE7FFE717E036
:102E90000498812803D3FFE7032002900FE00498F1
:102EA000802803D1FFE70220029007E004987028F1
:102EB00003D1FFE701200290FFE7FFE7FFE7FFE70D
:102EC00042F20000C4F20200016821F00701029AF8
:102ED00011430160006800F007000299884204D0A5
:102EE000FFE701208DF8170003E000208DF81700A0
:102EF000FFE79DF8170006B080BD00007047000096
:102F000080B582B0009000980138B0F1807F03D383
:102F1000FFE70120019019E0009801384EF21401FA
:102F2000CEF2000108604FF0FF300F2100F00CFDE1
:102F30004EF21800CEF20000002101604EF21000A7
:102F4000CEF20000072202600191FFE7019802B073
:102F500080BD000080B5FDF78BFE01F025F880BD37
:102F600080B596B005A84421FDF779F900200490BA
:102F700003900290019000904FF40070FDF73EFF27
:102F8000002803D0FFE7FDF71FFCFFE702200590B4
:102F90004FF480710891102109910F901090012138
:102FA00011910A211291072113911490159005A8EF
:102FB000FEF708FC002803D0FFE7FDF705FCFFE75C
:102FC0000F200090032001900020029003900490B5
:102FD00068460421FEF7F0F9002803D0FFE7FDF76B
:102FE000F3FBFFE716B080BD4EF68850CEF200002E
:102FF000016841F4700101607047000081B00090E9
:10300000009890F82400C00700280BD0FFE7009834
:103010000068406820F4003000990A68896A084313
:103020005060FFE7009890F82400800700280BD537
:10303000FFE700980068406820F4803000990A6833
:10304000C96A08435060FFE7009890F824004007E1
:1030500000280BD5FFE700980068406820F4802026
:1030600000990A68096B08435060FFE7009890F8E0
:103070002400000700280BD5FFE70098006840688F
:1030800020F4004000990A68496B08435060FFE74C
:10309000009890F82400C00600280BD5FFE70098A0
:1030A0000068806820F4805000990A68896B0843A2
:1030B0009060FFE7009890F82400800600280BD568
:1030C000FFE700980068806820F4005000990A68C3
:1030D000C96B08439060FFE7009890F82400400611
:1030E00000281CD5FFE700980068406820F4801095
:1030F00000990A68096C084350600098006CB0F5AC
:10310000801F0BD1FFE700980068406820F4C000E2
:1031100000990A68496C08435060FFE7FFE7009890
:1031200090F82400000600280BD5FFE700980068FF
:10313000406820F4002000990A68896C08435060B8
:10314000FFE701B07047000080B584B0029002989C
:103150000021C0F88010FDF785FD019002980068FD
:1031600000680007002813D5FFE70298019B694615
:103170006FF07E420A604FF40011002200F0FEFA68
:10318000002804D0FFE703208DF80F002CE0FFE7B4
:103190000298006800684007002813D5FFE70298EE
:1031A000019B69466FF07E420A604FF48001002265
:1031B00000F0E4FA002804D0FFE703208DF80F00A8
:1031C00012E0FFE70298202181670298C167029808
:1031D00000210166FFE70298002180F87410FFE7E4
:1031E00000208DF80F00FFE79DF80F0004B080BDB0
:1031F00080B582B001900198806A0090009800210B
:10320000A0F85A100098A0F852100098FFF736F86E
:1032100002B080BD84B00390FFE7FFE70398006829
:1032200050E8000F20F490700290FFE70298039995
:10323000096841E80002002AF0D1FFE7FFE7FFE755
:10324000FFE70398006850E8020F20F001000190AA
:10325000FFE701980399096841E80202002AF0D1CA
:10326000FFE7FFE70398006E012814D1FFE7FFE7AF
:10327000FFE70398006850E8000F20F0100000906E
:10328000FFE700980399096841E80002002AF0D19D
:10329000FFE7FFE7FFE703982021C16703980021BC
:1032A00001660398416604B07047000080B582B0A3
:1032B0000190FFE7FFE70198006850E8000F20F059
:1032C00040000090FFE700980199096841E800027A
:1032D000002AF0D1FFE7FFE70198202181670198DC
:1032E000002181660198FFF74DFB02B080BD000010
:1032F00080B58EB00D9000208DF827000D980068E5
:1033000048F20001C4F20001884201D1FFE700E069
:10331000FFE70D98816802694369C0691143194349
:1033200008430C900D980068006846F6F311CEF63D
:10333000FF7108400C9908430D99096808600D98C1
:103340000068406820F440500D990A68C968084335
:1033500050600D9880690C900D98006848F200014B
:10336000C4F20001884206D0FFE70D98006A0C996C
:1033700008430C90FFE70D980068806820F43060E7
:103380000C9908430D9909688860FFE70D9800685B
:1033900043F60001C4F20101884225D1FFE741F262
:1033A0008800C4F20200006800F003000146032810
:1033B000079114D80799DFE801F0020A060E0120F0
:1033C0008DF82D000FE002208DF82D000BE0042079
:1033D0008DF82D0007E008208DF82D0003E0102067
:1033E0008DF82D00FFE7A8E00D98006844F2004139
:1033F000C4F2000188422AD1FFE741F28800C4F2FA
:103400000200006800F00C0001460C28069119D853
:103410000699DFE801F0071717170F1717170B1793
:103420001717130000208DF82D000FE002208DF8F3
:103430002D000BE004208DF82D0007E008208DF80A
:103440002D0003E010208DF82D00FFE774E00D98AB
:10345000006844F60001C4F2000188422DD1FFE764
:1034600041F28800C4F20200006800F0300001461A
:10347000002805910CD0FFE70598102810D0FFE731
:103480000598202808D0FFE7059830280CD00FE0D9
:1034900000208DF82D000FE002208DF82D000BE0AC
:1034A00004208DF82D0007E008208DF82D0003E0A2
:1034B00010208DF82D00FFE73DE00D98006848F2E0
:1034C0000001C4F20001884230D1FFE741F28800D8
:1034D000C4F20200006800F4406001460028049134
:1034E0000FD0FFE70498B0F5806F12D0FFE7049883
:1034F000B0F5006F09D0FFE70498B0F5406F0CD02D
:103500000FE000208DF82D000FE002208DF82D0037
:103510000BE004208DF82D0007E008208DF82D0029
:1035200003E010208DF82D00FFE703E010208DF858
:103530002D00FFE7FFE7FFE7FFE7FFE70D980068D3
:1035400048F20001C4F20001884262D1FFE79DF811
:103550002D0001460828039119D80399DFE801F0EE
:10356000051709170F1717171300FEF753F80890E0
:1035700013E042F20040C0F2F40008900DE0FEF7C4
:1035800071F8089009E04FF40040089005E0002031
:10359000089001208DF82700FFE70898002837D011
:1035A000FFE708980D99496801EB4101884207D36C
:1035B000FFE708980D994968B0EB013F04D9FFE790
:1035C00001208DF8270022E00898010E00020D9AD4
:1035D000526810EB520041F100014FF00003FCF77C
:1035E000F1FD0A900A98B0F5407F0BD3FFE70A98E7
:1035F0000021B1EB105F05D1FFE70A980D9909682A
:10360000C86003E001208DF82700FFE7FFE7FFE730
:10361000ABE00D98C069B0F5004F5AD1FFE79DF8B7
:103620002D000146082802911DD80299DFE801F01B
:1036300005090D1B131B1B1B1700FDF7EBFF089063
:1036400017E0FDF7FBFF089013E042F20040C0F2E4
:10365000F40008900DE0FEF705F8089009E04FF43B
:103660000040089005E00020089001208DF8270018
:10367000FFE7089800282BD0FFE7089840000D9935
:10368000496800EB5100B0FBF1F00A900A9810284D
:1036900019D3FFE7BDF82A00002814D1FFE70A98E4
:1036A00020F00F00ADF82E000A9800F00E00BDF8D3
:1036B0002E1041EA5000ADF82E00BDF82E000D99F5
:1036C0000968C86003E001208DF82700FFE7FFE7E5
:1036D0004AE09DF82D000146082801911DD8019966
:1036E000DFE801F005090D1B131B1B1B1700FDF77D
:1036F00091FF089017E0FDF7A1FF089013E042F258
:103700000040C0F2F40008900DE0FDF7ABFF089018
:1037100009E04FF40040089005E0002008900120E7
:103720008DF82700FFE7089800281CD0FFE70898CD
:103730000D99496800EB5100B0FBF1F00A900A982E
:1037400010280BD3FFE7BDF82A00002806D1FFE7B9
:10375000BDF828000D990968C86003E001208DF8C4
:103760002700FFE7FFE7FFE7FFE70D98002141662D
:103770000D9881669DF827000EB080BD80B58AB097
:10378000DDF830C09646089007918DF81B20059310
:10379000FFE708980068C06907990840401AB0FA26
:1037A00080F040099DF81B10884240F09980FFE7A7
:1037B0000C980130002800F09280FFE7FDF752FAE4
:1037C0000599401A0C99884204D8FFE70C98002804
:1037D00035D1FFE7FFE7FFE70898006850E8000FE2
:1037E00020F4D0700490FFE704980899096841E834
:1037F0000002002AF0D1FFE7FFE7FFE7FFE70898A4
:10380000006850E8020F20F001000390FFE70398E2
:103810000899096841E80202002AF0D1FFE7FFE7B2
:103820000898202181670898C167FFE70898002160
:1038300080F87410FFE703208DF8270054E0089803
:10384000006800684007002848D5FFE7089800682E
:10385000C06900F400600121B1EBD02F3DD1FFE73A
:10386000089800684FF400610162FFE7FFE70898DD
:10387000006850E8000F20F4D0700290FFE7029833
:103880000899096841E80002002AF0D1FFE7FFE744
:10389000FFE7FFE70898006850E8020F20F00100FA
:1038A0000190FFE701980899096841E80202002A9F
:1038B000F0D1FFE7FFE70898202181670898C167EA
:1038C0000898C0F88010FFE70898002180F874106D
:1038D000FFE703208DF8270006E0FFE7FFE758E742
:1038E00000208DF82700FFE79DF827000AB080BD73
:1038F00080B540F21420C2F20000FEF7C3FC80BD88
:10390000FFE7FEE781B001468DF803009DF9030053
:1039100000280FD4FFE79DF9030000F01F010122EA
:1039200002FA01F140094EF20012CEF2000242F812
:103930002010FFE701B070474EF60C50CEF20000A9
:103940000068C0F30220704782B002468DF807007D
:1039500000919DF9070000280AD4FFE700980001B4
:103960009DF907104EF20042CEF2000288540BE09F
:10397000009800019DF8071001F00F014EF6145257
:10398000CEF200028854FFE702B0704783B0029085
:10399000029800F0070000904EF60C50CEF20000A6
:1039A0000168019101994FF6FF02114001910199BF
:1039B000009A41EA02210022C0F2FA521143019119
:1039C0000199016003B070477047000080B584B072
:1039D000039045F22800C0F600006946086045F2F1
:1039E0005901C0F6000145F29B02C0F6000200201A
:1039F0007A23029000F0BEFB029804B080BD000064
:103A000080B586B00020059004904FF0FF30039001
:103A100040F21800C2F2000000680590FFE7059828
:103A200040F21801C2F2000100F002FD002869D145
:103A3000FFE70598303804900498008D01285CDB7E
:103A4000FFE70498408D002809D1FFE70498008D16
:103A50000499488500F0A2FA0499C8624CE00498E1
:103A6000008D0499498D884209D0FFE70498008DA4
:103A70000499488500F092FA0499C8623BE000F08E
:103A80008DFA0499C96A401A0499C98B884231D9C0
:103A9000FFE70498006A002827D0FFE704988169AF
:103AA000026A008D049B5B6A0290084602990192AB
:103AB0001A46019B984703900398B0F1FF3F07DC3B
:103AC000FFE70498008D0499898B88420CD1FFE7A9
:103AD00004988169808B009008460099FCF7BFFB31
:103AE000049800210185FFE7FFE700F057FA0499E9
:103AF000C862FFE7FFE7FFE7FFE7FFE70598006819
:103B000005908CE706B080BD80B586B040F23000ED
:103B1000C2F20000006848F2A061C0F2010148430F
:103B2000059000200490039040F28810C2F200003B
:103B300000680490FFE70598411E0591002801D018
:103B4000FFE7F8E740F28810C2F200000068039037
:103B500003980499401AFCF778FC41EC100B53ECE5
:103B6000102B9FED130B51EC100BFCF7FFFB41ECFE
:103B7000100B40F23000C2F20000016802900846CB
:103B80008DED000BFCF761FC41EC100B9DED001B73
:103B900051EC110B53EC102BFCF773FB41EC100BA9
:103BA00051EC100BFCF75EFC0299086006B080BD7A
:103BB000000000000000594080B582B001900198DB
:103BC0000090FCF757FB82B20020009900F006FA43
:103BD00002B080BD80B584B000200390029040F216
:103BE0002000C2F2000000680390FFE7039840F253
:103BF0002001C2F2000100F003FC002826D1FFE7FB
:103C0000039824380290029800281AD0FFE70298FF
:103C10004068002815D0FFE70298007B012810D1EA
:103C2000FFE7029840F29821C2F200010860029872
:103C300000F11001426880680190084601999047A0
:103C4000FFE7FFE7039800680390CFE704B080BD6B
:103C500080B582B000200190009040F22800C2F2AE
:103C6000000000680190FFE7019840F22801C2F2CD
:103C7000000100F0D1FB002833D1FFE7019818388C
:103C800000900098002827D0FFE7009800680028DF
:103C900022D0FFE70098007A01281DD1FFE700F04D
:103CA0007DF90099CA680969801A884213D9FFE72B
:103CB00000980168406888470098007D002804D17A
:103CC000FFE700980021017204E000F067F9009915
:103CD000C860FFE7FFE7FFE7FFE701980068019092
:103CE000C2E702B080BD000080B58CB000200B9010
:103CF0000A9040F24000C2F200004421FCF7AFFA03
:103D000045F2E800C0F600000990FFE7099845F287
:103D1000F001C0F60001884249D0FFE700200A9078
:103D20000B90FFE70B9800283CD1FFE70B9840F27F
:103D30008401C2F20001085C0999097888422CD1FB
:103D4000FFE70A98411C0A910B9901EB011140F21F
:103D50004002C2F2000202EB810148620B9840F27D
:103D60001401C2F2000151F8201000EB001002EB28
:103D700080000162099840680B9901EB011102EB88
:103D80008101079008460799069288470B9901EB35
:103D90000111069A42F82100FFE7FFE70B98013076
:103DA0000B90BFE7FFE7099808300990AEE745F2AE
:103DB000E000C0F600000890FFE7089845F2E8012F
:103DC000C0F60001884249D0FFE700200A900B901E
:103DD000FFE70B9800283CD1FFE70B9840F28401E5
:103DE000C2F20001085C0899097888422CD1FFE7EB
:103DF0000A98411C0A910B9901EB011140F2400213
:103E0000C2F2000202EB810148620B9840F21401F9
:103E1000C2F2000151F8201000EB001002EB80000C
:103E20000162089840680B9901EB011102EB8101D6
:103E3000059008460599049288470B9901EB0111FA
:103E4000049A42F82100FFE7FFE70B9801300B903E
:103E5000BFE7FFE7089808300890AEE745F28B000F
:103E6000C0F600006946486045F24200C0F6000016
:103E7000086045F25901C0F6000145F28F02C0F614
:103E800000020320AD2300F075F900200B90FFE73E
:103E90000B98002850D1FFE70B9800EB001040F280
:103EA0004001C2F2000101EB8000006A00281DD130
:103EB000FFE70B9869464FF0FF32CA6045F27D027A
:103EC000C0F600028A60486045F21A00C0F60000A1
:103ED000086045F25901C0F6000145F28F02C0F6B4
:103EE00000020320B22300F045F921E00B9800EB1B
:103EF000001140F24002C2F2000202EB81031B6A91
:103F000052F821106A46D1609360506045F21A0061
:103F1000C0F60000106045F25901C0F6000145F2FC
:103F20008F02C0F600020320B62300F023F9FFE75A
:103F30000B9801300B90ABE744F6DA70C0F6000046
:103F40006946086045F25901C0F6000145F28F024A
:103F5000C0F600020320B82300F00CF900200CB0DA
:103F600080BD000080B582B045F2D000C0F60000F0
:103F70000190FFE7019845F2E001C0F60001884298
:103F800008D0FFE7019800688047FFE701980430F8
:103F90000190EFE7002002B080BD000040F28810E1
:103FA000C2F200000068704740F28810C2F20000C0
:103FB0000168013101600068002808D1FFE740F284
:103FC0008C10C2F20000016801310160FFE7704708
:103FD00080B5FFF799FD00F017F880BD80B586B079
:103FE000134684468DF817000491ADF80E209DF815
:103FF00017000499BDF80E200293CDF804C000F01C
:104000008BF906B080BD00007047000080B58EB00F
:10401000FFF7DEFF44F67170C0F6000069460860E5
:1040200044F6F270C0F6000045F21401C0F600013B
:10403000032240F239130D901046DDF834C00C9184
:104040006146DDF830E00B92724600F093F844F6DA
:10405000AD60C0F60000694608604FF49D730B9890
:104060000D990C9A00F086F844F60F70C0F6000027
:104070006946086040F23B130B980D990C9A00F0CA
:1040800079F844F6DE60C0F60000694608604FF437
:104090009E730B980D990C9A00F06CF844F67C60B6
:1040A000C0F600006946086040F23D130B980D9978
:1040B0000C9A00F05FF844F64070C0F600006946C4
:1040C00008604FF49F730B980D990C9A00F052F80A
:1040D00044F64B60C0F600006946086040F23F13AA
:1040E0000B980D990C9A00F045F844F61A60C0F64A
:1040F0000000694608604FF4A0730B980D990C9A64
:1041000000F038F844F6E970C0F60000694608622D
:1041100044F6DD70C0F60000C86106208861012009
:10412000486108220A610C22CA608A6015224A602E
:1041300044F6B572C0F600020A6040F243130B99D0
:104140000A9008460D990C9A00F014F868460A99EE
:10415000416044F6A272C0F6000202604FF4A273FE
:104160000B980D990C9A00F005F8FFF7BDFD0EB005
:1041700080BD000080B58EB0DDF840C086468DF869
:1041800037000C910B920A930020099008908DF84B
:104190001F000690059040F28500C2F200000490D6
:1041A0009DF83700042801DBFFE7B3E004984FF4E3
:1041B0008071FCF754F89DF83700022800F39480D2
:1041C000FFE79DF8370044F61461C0F60001085C73
:1041D00008909DF8370044F61761C0F60001085CAE
:1041E0000499099A531C09938854049809994A1C04
:1041F00009923A2242549DF82000400700282AD50F
:10420000FFE70C98FCF736F88DF81F000C98059026
:104210009DF81F000B280ADBFFE70C989DF81F1084
:1042200008440A3805900A208DF81F00FFE704981B
:104230000999084405999DF81F20FBF7F7FF9DF8A1
:104240001F10099A114409910499099A531C099362
:1042500020238B54FFE79DF82000800700281BD502
:10426000FFE70B9805900B98FCF704F88DF81F00FA
:1042700004980999084405999DF81F20FBF7D6FF7B
:104280009DF81F10099A114409910499099A531C29
:10429000099320238B54FFE79DF82000C0070028D6
:1042A00021D0FFE70A9A45F2AC01C0F6000102A84E
:1042B00000F0DEF806900698B0F1FF3F01DCFFE762
:1042C00028E0049809990844069A02A9FBF7AEFF72
:1042D0000699099A114409910499099A531C099362
:1042E00020238B54FFE7FFE711A801900498099958
:1042F0000844C1F1FF01109A019B00F0CDF806902F
:104300000698B0F1FF3F01DCFFE703E00498FFF7F8
:1043100053FCFFE70EB080BD88B0134684468DF88D
:104320001B000591ADF81220002003904FF43021BE
:10433000029101909DF81B00042805DBFFE79DF822
:104340001B00082804D1FFE70598002804D1FFE7E7
:104350004FF0FF3007904FE09DF81B00082806D172
:10436000FFE748F20000C4F20000019009E09DF868
:104370001B0040F20401C2F2000151F8200001903C
:10438000FFE700200390FFE70398BDF81210884272
:104390002EDAFFE74FF430200290FFE70298002169
:1043A0000128009109DBFFE70198C06900F0400097
:1043B000012181EA90100090FFE70098C0070028D3
:1043C00004D0FFE7029801380290E7E7029800283E
:1043D00004DCFFE76FF0010007900DE005980399FA
:1043E000405C01998862FFE7039801300390CBE7B6
:1043F000BDF812000790FFE7079808B0704700006B
:1044000082B00190009101980099401AB0FA80F0B2
:10441000400902B07047000082B0019000910198FD
:104420000099401AB0FA80F0400902B070470000CD
:1044300082B00190009101980099401AB0FA80F082
:10444000400902B07047000080B584B0002003909E
:10445000FCF71CFC0290FEF783FDFEF7A1FAFEF7C5
:1044600033FBFFF7D3FDFFE7FFF77CFD0190FBE790
:104470000FB4084B10B504A902AA039800F0FCF889
:10448000044602A9002000F09CFC204610BC5DF808
:1044900014FB0000C34D00087CB50C001D461646F9
:1044A000014601D0601E00E00020CDE90010064B5F
:1044B0006A462946304600F0DFF8002C02D0009A08
:1044C000002111707CBD0000AD4D000802E008C85D
:1044D000121F08C1002AFAD170477047002001E07E
:1044E00001C1121F002AFBD1704700002DE9FF5FB8
:1044F00082B00021DDE90430020DDDF840B0034355
:1045000018D044F61050A2F2FF324243151411980D
:1045100001281FD0A5EB0B00401C5FEA000A4FF0FA
:1045200000064E4FDFF83891B046504615D5CAF117
:10453000000413E0119801244AA3012801D16FEA75
:104540000B010298119AC0E90031C0E9024206B09D
:1045500000F08EB8CBF10000DFE704460021404AAE
:10456000491842EB0450CDE9001012E0E00707D0F3
:1045700032463B4640464946FBF783FE8046894625
:1045800032463B4610461946FBF77BFE06460F4671
:104590006410002CEAD1DDE90401DDE90023BAF161
:1045A000000F06DAFBF76DFE42464B46FBF769FE4D
:1045B00005E0FBF7DBFE42464B46FBF7D7FE044621
:1045C0000E460022284BFCF7BFF803D84FF0FF300F
:1045D000014607E00022254B20463146FBF7EDFF60
:1045E000FCF79AF8102409E0002C0ADB0A220023C9
:1045F000FBF7E8FD039B30321A55641E50EA0102B6
:10460000F2D1641C039AC4F111031444119A012AD3
:1046100003D0012208430DD10AE0084304D0002052
:104620004FF0110B119072E7A3EB0B056D1E0DE01F
:104630005B4504DD4FF0000205F1010504E003DAFB
:104640004FF00002A5F10105002AECD00298119963
:10465000C0E90231C0E9004579E7000000001440DC
:104660000000F03F300000000000F0430000E03F99
:1046700030BCBDE8C09F00002DE9FF4F95B09B46C0
:104680008946064600250FE2252877D100242746D3
:10469000F84A0121059400E0044316F8013F203B4D
:1046A00001FA03F01042F7D130782A2811D06FF0C8
:1046B0002F033078A0F13002092A16D8059A44F069
:1046C000020402EB820203EB42021044761C0590C6
:1046D000EFE759F8042B0592002A03DA504244F41C
:1046E0000054059044F00204761C30782E2816D130
:1046F00016F8010F44F004042A280DD06FF02F02A1
:104700003078A0F13003092B09D807EB870302EBBF
:104710004303C718761CF3E759F8047B761C3078FE
:104720006C280FD006DC4C2817D068280DD06A28DA
:1047300014D104E0742810D07A280FD10DE044F48D
:1047400000140AE044F4801401E044F44014727848
:10475000824202D104F58014761C761C30786628DB
:104760000BD013DC582877D009DC002875D04528F9
:10477000F6D04628F4D047281AD19DE118E06328E6
:1047800035D0642879D0652812D195E1702873D08E
:1047900008DC6728F1D069286FD06E280DD06F280B
:1047A00006D1B5E073282CD0752875D0782874D040
:1047B0005A46179990476D1C75E1C4F302500228C0
:1047C00009D003280DD0D9F8001004280DD00D60B1
:1047D00009F1040967E1D9F80010EA17C1E90052AC
:1047E000F6E7D9F800100D80F2E70D70F0E719F840
:1047F000041B8DF8001000208DF80100EA4601200E
:1048000003E059F804AB4FF0FF3061074FF00001AF
:1048100002D40DE008F101018846B9420FDA804563
:10482000F8DB1AF808100029F4D108E008F10101BA
:1048300088468142FADB1AF808100029F6D105985B
:104840005B46A0EB080721463846179A00F097FA16
:10485000284400EB080507E04DE029E10DE01AF8D7
:10486000010B5A4617999047B8F10108F7D25B46F9
:1048700021463846179A13E142E00A220092C4F317
:1048800002524FF0000A022A08D059F804CB032A3A
:104890004FEAEC710AD00DE029E02AE009F10701A6
:1048A00021F00702F2E802C1914609E00FFA8CFC00
:1048B0004FEAEC71042A03D14FFA8CFC4FEAEC71F9
:1048C000002907DA0A460021DCF1000C61EB020145
:1048D0002D2202E0220504D52B228DF8042001228E
:1048E00003E0E20701D02022F7E7904659E00A21D1
:1048F00002E010220DE010214FF0000A00910BE0C1
:1049000010224FF0000A44F004040827009203E04C
:1049100008224FF0000A0092C4F30252022A05D086
:1049200059F804CB0021032A08D009E009F1070156
:1049300021F00702F2E802C1914605E01FFA8CFC63
:10494000042A01D10CF0FF0C4FF00008220728D5F3
:10495000702806D0009B83F0100353EA0A0305D0A9
:104960000EE040228DF80420012208E05CEA0102FA
:1049700006D030228DF804208DF8050002229046E2
:10498000009B83F0080353EA0A030AD15CEA0102A0
:1049900001D1620705D530228DF804204FF00108BF
:1049A0007F1E582804D034A003900EA802900DE07A
:1049B00036A0F9E753466046009AFBF703FC8446AD
:1049C0000398825C0298401E029002705CEA01002B
:1049D000F0D1029806A9081A00F1200A600702D552
:1049E00024F4803400E00127574502DDA7EB0A00DC
:1049F00000E0002000EB0A01009005984144401AB5
:104A00000590E00306D45B462146179A059800F00E
:104A1000B6F90544002706E001A85A46C05D17997B
:104A200090476D1C7F1C4745F6DBE0030CD55B46C9
:104A30002146179A059800F0A2F9054404E03020B9
:104A40005A46179990476D1C0099481E00900029FE
:104A5000F5DC08E0029802995A460078491C029158
:104A6000179990476D1CBAF10001AAF1010AF1DC17
:104A700065E1000009280100303132333435363722
:104A8000383961626364656600000000303132339A
:104A9000343536373839414243444546000000003A
:104AA00000F05BF90544761C307800287FF4ECAD0B
:104AB00019B0284600F04EB9620700D4062709F164
:104AC000070222F0070CFCE80223E14603F000484D
:104AD0005FEA080C02D00FF2702C0DE05FEA045C74
:104AE00002D50FF2682C07E05FEAC47C02D00FF217
:104AF000602C01E0AFF2700C4FF0FF3823F0004360
:104B0000CDF850C065280CD006DC452809D04628D1
:104B10001DD047283DD13DE0662818D067287ED1BA
:104B200038E00021112F01DB112000E0781CCDE9D5
:104B3000000106A90EA8FFF7D9FCDDE90F010E9AC6
:104B400003910021009207F1010A04914DE04FF01A
:104B500000400097CDE9011006A90EA8FFF7C6FC9A
:104B6000DDE90F0203920E9B11990022DDF80CA0E3
:104B70000093049211B9791C00EB010AB7EB0A000B
:104B800004D4C0F1FF3007F1010A0490AAEB07003A
:104B9000019044E0012F00DA01270021112F01DDEF
:104BA000112000E03846CDE9000106A90EA8FFF764
:104BB0009DFCDDE90F010E9A039100210491009202
:104BC000BA4621070CD40399514500DA8A46BAF156
:104BD000010F05DD009AAAF10101515C302908D0CE
:104BE000B84202DA10F1040F06DA0121CDE9011012
:104BF00015E0AAF10101E9E7002805DC0499014468
:104C00000491AAEB000102E0411C514500DD8A46F7
:104C10000499401A401C01904FF000400290200778
:104C200004D40198504501DBCDF8048000208DF8B4
:104C30004F0002980DF14F07B0F1004F25D02B2007
:104C40000E9002984FF0020800280CDA40420290C1
:104C50002D200E9007E00A210298FBF71CFC303152
:104C6000029007F8011DB8F10001A8F10108F2DC7B
:104C700002980028EFD1791E0E980870307800F065
:104C8000200040F0450007F8020D12A8C01B00F1FB
:104C900007081498007800B1012000EB0A01019880
:104CA00001EBE07105984144401A401E0590E00375
:104CB00006D45B462146179A059800F060F8054433
:104CC0001498007818B15A46179990476D1CE00364
:104CD00024D55B462146179A059800F050F8054404
:104CE0001CE00498002807DBDDE90301884203DDAE
:104CF0000098405C179901E0179930205A46904778
:104D0000049805F10105401C04900198401E019093
:104D100004D12E205A46179990476D1CBAF1000114
:104D2000AAF1010ADDDC05E017F8010B5A461799D4
:104D300090476D1CB8F10001A8F10108F4DC5B4656
:104D40002146179A0598ABE62D0000002B000000C5
:104D50002000000030BCBDE8C08F2DE9F0410446C2
:104D600000251E461746880404D405E03946202055
:104D7000B0476D1C641EF9D52846BDE8F0812DE9C9
:104D8000F041044600251E469046C80301D5302751
:104D900000E02027880404D505E041463846B047A6
:104DA0006D1C641EF9D52846BDE8F0814A68002ACA
:104DB00006D00A68531C0B6010704868401E48609B
:104DC00070470A68531C0B601070704700000000A9
:104DD00000000000010203040607080900000000AB
:104DE00001020304A0860100400D0300801A0600A2
:104DF00000350C0040420F0080841E0000093D0079
:104E000000127A000024F40000366E010048E80128
:104E1000006CDC0200030749574520202020202099
:104E2000202020202020202020202020202020287A
:104E30005F202F2020202020202020202020202024
:104E400020202020202020200D0A002020202020AB
:104E50002020202020202020202020202020202052
:104E6000202020202F202020202020202020202033
:104E70002020202020202020200D0A0020202F206C
:104E8000202020292020202F20202029202F2020F2
:104E90002029202F2020202F202F202020202F20CD
:104EA00020202020205C202020200D0A002020200F
:104EB000205F5F5F5F2020202020202020202020F6
:104EC00020202020202020202020202020205F5F64
:104ED000202020202020205F5F20200D0A002D2D83
:104EE0002D2F5F5F202F2D2D2D2D2D5F5F2D2D2D33
:104EF0002F5F5F2D2D2D2D2D2D2D2D2D2F2D2D2D7A
:104F00002D2F2D2D2D2D5C2D2D2D2D2D0D0A00201D
:104F10002020202F20202029202020202020202079
:104F200020202F20202020202020202020202F2063
:104F3000202020292020202F202020205C0D0A0066
:104F40005F2F5F5F5F5F2F5F5F5F285F5F5F285F3F
:104F5000285F5F5F2F5F285F5F5F2F5F285F5F5F66
:104F60005F2F5F5F5F285F5F5F5F2F5F5F5F0D0A8F
:104F7000005F5F5F5F5F5F5F5F5F5F5F5F5F5F5FA0
:104F80005F5F5F5F5F5F5F5F5F5F5F5F5F5F5F5F31
:104F90005F5F5F5F5F5F5F5F5F5F5F5F5F5F5F0D73
:104FA0000A00646576696365206E756D6265723AA4
:104FB00025640D0A0048573A25642E25642E256481
:104FC0002046573A25642E25642E256420434F4DF4
:104FD00050494C453A25732D25730D0A004A756CCE
:104FE00020323920323032330030323A30373A35DD
:104FF00037002E2E2F2E2E2F2E2E2F426162794F0C
:10500000532F626F732F636F72652F625F636F72CE
:10501000652E630062496E697400256409092531B3
:1050200036730925640D0A004E6F20646576696346
:105030006520697320726567697374657265640DB4
:105040000A000D0A6465765F6E6F090925313673B3
:105050000973746174650D0A002E2E2F2E2E2F2ECB
:105060002E2F426162794F532F626F732F636F72DD
:10507000652F625F6465766963652E63006E6F20DD
:105080006472697665006E756C6C006465730062AD
:10509000446576696365496E6974005F624472694C
:1050A0007665724E756C6C496E69740025640000FB
:1050B000F05000080000002040000000CC44000830
:1050C000305100084000002060060000DC44000869
:1050D000C9390008D53B0008513C0008013A0008D6
:1050E00000000000CD39000800000000CD390008A4
:1050F00000093D00003801400044004000480040E5
:10510000004C0040865000081800002018000020C5
:10511000200000202000002028000020280000207F
:105120000A00000001000000100000000000000064
:040000050800018D61
:00000001FF
