Component: ARM Compiler 6.14 Tool: armlink [5db06800]

==============================================================================

Section Cross References

    startup_stm32l431xx.o(RESET) refers to startup_stm32l431xx.o(STACK) for __initial_sp
    startup_stm32l431xx.o(RESET) refers to startup_stm32l431xx.o(.text) for Reset_Handler
    startup_stm32l431xx.o(RESET) refers to stm32l4xx_it.o(.text.NMI_Handler) for NMI_Handler
    startup_stm32l431xx.o(RESET) refers to stm32l4xx_it.o(.text.HardFault_Handler) for HardFault_Handler
    startup_stm32l431xx.o(RESET) refers to stm32l4xx_it.o(.text.MemManage_Handler) for MemManage_Handler
    startup_stm32l431xx.o(RESET) refers to stm32l4xx_it.o(.text.BusFault_Handler) for BusFault_Handler
    startup_stm32l431xx.o(RESET) refers to stm32l4xx_it.o(.text.UsageFault_Handler) for UsageFault_Handler
    startup_stm32l431xx.o(RESET) refers to stm32l4xx_it.o(.text.SVC_Handler) for SVC_Handler
    startup_stm32l431xx.o(RESET) refers to stm32l4xx_it.o(.text.DebugMon_Handler) for DebugMon_Handler
    startup_stm32l431xx.o(RESET) refers to stm32l4xx_it.o(.text.PendSV_Handler) for PendSV_Handler
    startup_stm32l431xx.o(RESET) refers to stm32l4xx_it.o(.text.SysTick_Handler) for SysTick_Handler
    startup_stm32l431xx.o(RESET) refers to stm32l4xx_it.o(.text.USART1_IRQHandler) for USART1_IRQHandler
    startup_stm32l431xx.o(RESET) refers to stm32l4xx_it.o(.text.LPUART1_IRQHandler) for LPUART1_IRQHandler
    startup_stm32l431xx.o(.text) refers to system_stm32l4xx.o(.text.SystemInit) for SystemInit
    startup_stm32l431xx.o(.text) refers to entry.o(.ARM.Collect$$$$00000000) for __main
    main.o(.text.main) refers to stm32l4xx_hal.o(.text.HAL_Init) for HAL_Init
    main.o(.text.main) refers to main.o(.text.SystemClock_Config) for SystemClock_Config
    main.o(.text.main) refers to main.o(.text.MX_GPIO_Init) for MX_GPIO_Init
==============================================================================

Removing Unused input sections from the image.

    Removing startup_stm32l431xx.o(HEAP), (512 bytes).
    Removing main.o(.text), (0 bytes).
    Removing main.o(.ARM.exidx.text.main), (8 bytes).
    Removing main.o(.ARM.exidx.text.SystemClock_Config), (8 bytes).
    Removing main.o(.ARM.exidx.text.MX_GPIO_Init), (8 bytes).
    Removing main.o(.ARM.exidx.text.MX_USART1_UART_Init), (8 bytes).
    Removing main.o(.ARM.exidx.text.Error_Handler), (8 bytes).
    Removing main.o(.bss.hqspi), (76 bytes).
    Removing main.o(.bss.hsd1), (132 bytes).
    Removing main.o(.bss.hspi2), (100 bytes).
    Removing stm32l4xx_it.o(.text), (0 bytes).
    Removing stm32l4xx_it.o(.ARM.exidx.text.NMI_Handler), (8 bytes).
    Removing stm32l4xx_it.o(.ARM.exidx.text.HardFault_Handler), (8 bytes).
    Removing stm32l4xx_it.o(.ARM.exidx.text.MemManage_Handler), (8 bytes).
    Removing stm32l4xx_it.o(.ARM.exidx.text.BusFault_Handler), (8 bytes).
    Removing stm32l4xx_it.o(.ARM.exidx.text.UsageFault_Handler), (8 bytes).
    Removing stm32l4xx_it.o(.ARM.exidx.text.SVC_Handler), (8 bytes).
    Removing stm32l4xx_it.o(.ARM.exidx.text.DebugMon_Handler), (8 bytes).
==============================================================================

Image Symbol Table

    Local Symbols

    Symbol Name                              Value     Ov Type        Size  Object(Section)

    ../clib/microlib/division.c              0x00000000   Number         0  uldiv.o ABSOLUTE
    ../clib/microlib/division.c              0x00000000   Number         0  ldiv.o ABSOLUTE
    ../clib/microlib/division.c              0x00000000   Number         0  uidiv.o ABSOLUTE
    ../clib/microlib/init/entry.s            0x00000000   Number         0  entry.o ABSOLUTE
    ../clib/microlib/init/entry.s            0x00000000   Number         0  entry2.o ABSOLUTE
    ../clib/microlib/init/entry.s            0x00000000   Number         0  entry5.o ABSOLUTE
    ../clib/microlib/init/entry.s            0x00000000   Number         0  entry7a.o ABSOLUTE
    ../clib/microlib/init/entry.s            0x00000000   Number         0  entry7b.o ABSOLUTE
    ../clib/microlib/init/entry.s            0x00000000   Number         0  entry8a.o ABSOLUTE
    ../clib/microlib/init/entry.s            0x00000000   Number         0  entry8b.o ABSOLUTE
    ../clib/microlib/init/entry.s            0x00000000   Number         0  entry9a.o ABSOLUTE
    ../clib/microlib/init/entry.s            0x00000000   Number         0  entry9b.o ABSOLUTE
    ../clib/microlib/init/entry.s            0x00000000   Number         0  entry10a.o ABSOLUTE
    ../clib/microlib/init/entry.s            0x00000000   Number         0  entry10b.o ABSOLUTE
    ../clib/microlib/init/entry.s            0x00000000   Number         0  entry11a.o ABSOLUTE
    ../clib/microlib/init/entry.s            0x00000000   Number         0  entry11b.o ABSOLUTE
    ../clib/microlib/longlong.c              0x00000000   Number         0  llshl.o ABSOLUTE
    ../clib/microlib/longlong.c              0x00000000   Number         0  llushr.o ABSOLUTE
    ../clib/microlib/longlong.c              0x00000000   Number         0  llsshr.o ABSOLUTE
    ../clib/microlib/printf/printf.c         0x00000000   Number         0  printfa.o ABSOLUTE
    ../clib/microlib/stdio/streams.c         0x00000000   Number         0  stdout.o ABSOLUTE
    ../clib/microlib/string/memcpy.c         0x00000000   Number         0  memcpya.o ABSOLUTE
    ../clib/microlib/string/memcpy.c         0x00000000   Number         0  memcpyb.o ABSOLUTE
    ../clib/microlib/string/memset.c         0x00000000   Number         0  memseta.o ABSOLUTE
    ../clib/microlib/string/strlen.c         0x00000000   Number         0  strlen.o ABSOLUTE
    ../clib/microlib/stubs.s                 0x00000000   Number         0  iusefp.o ABSOLUTE
    ../fplib/microlib/fpadd.c                0x00000000   Number         0  dadd.o ABSOLUTE
    ../fplib/microlib/fpdiv.c                0x00000000   Number         0  ddiv.o ABSOLUTE
    ../fplib/microlib/fpepilogue.c           0x00000000   Number         0  depilogue.o ABSOLUTE
    ../fplib/microlib/fpfix.c                0x00000000   Number         0  dfixui.o ABSOLUTE
    ../fplib/microlib/fpfix.c                0x00000000   Number         0  dfixul.o ABSOLUTE
    ../fplib/microlib/fpflt.c                0x00000000   Number         0  dfltui.o ABSOLUTE
    ../fplib/microlib/fpmul.c                0x00000000   Number         0  dmul.o ABSOLUTE
    algo_base64.c                            0x00000000   Number         0  algo_base64.o ABSOLUTE
    algo_crc.c                               0x00000000   Number         0  algo_crc.o ABSOLUTE
    algo_hmac_sha1.c                         0x00000000   Number         0  algo_hmac_sha1.o ABSOLUTE
    algo_md5.c                               0x00000000   Number         0  algo_md5.o ABSOLUTE
    algo_sort.c                              0x00000000   Number         0  algo_sort.o ABSOLUTE
    algo_utf8_unicode.c                      0x00000000   Number         0  algo_utf8_unicode.o ABSOLUTE
    b_core.c                                 0x00000000   Number         0  b_core.o ABSOLUTE
    b_device.c                               0x00000000   Number         0  b_device.o ABSOLUTE
    b_hal.c                                  0x00000000   Number         0  b_hal.o ABSOLUTE
    b_hal_flash.c                            0x00000000   Number         0  b_hal_flash.o ABSOLUTE
    b_hal_gpio.c                             0x00000000   Number         0  b_hal_gpio.o ABSOLUTE
    b_hal_i2c.c                              0x00000000   Number         0  b_hal_i2c.o ABSOLUTE
    b_hal_it.c                               0x00000000   Number         0  b_hal_it.o ABSOLUTE
    b_hal_qspi.c                             0x00000000   Number         0  b_hal_qspi.o ABSOLUTE
    b_hal_sdio.c                             0x00000000   Number         0  b_hal_sdio.o ABSOLUTE
    b_hal_spi.c                              0x00000000   Number         0  b_hal_spi.o ABSOLUTE
    b_hal_uart.c                             0x00000000   Number         0  b_hal_uart.o ABSOLUTE
    b_mod_adchub.c                           0x00000000   Number         0  b_mod_adchub.o ABSOLUTE
    b_mod_button.c                           0x00000000   Number         0  b_mod_button.o ABSOLUTE
    b_mod_error.c                            0x00000000   Number         0  b_mod_error.o ABSOLUTE
    b_mod_fs.c                               0x00000000   Number         0  b_mod_fs.o ABSOLUTE
    b_mod_gui.c                              0x00000000   Number         0  b_mod_gui.o ABSOLUTE
    b_mod_iap.c                              0x00000000   Number         0  b_mod_iap.o ABSOLUTE
    b_mod_kv.c                               0x00000000   Number         0  b_mod_kv.o ABSOLUTE
    b_mod_menu.c                             0x00000000   Number         0  b_mod_menu.o ABSOLUTE
    b_mod_modbus.c                           0x00000000   Number         0  b_mod_modbus.o ABSOLUTE
    b_mod_param.c                            0x00000000   Number         0  b_mod_param.o ABSOLUTE
    b_mod_protocol.c                         0x00000000   Number         0  b_mod_protocol.o ABSOLUTE
    b_mod_pwm.c                              0x00000000   Number         0  b_mod_pwm.o ABSOLUTE
    b_mod_select.c                           0x00000000   Number         0  b_mod_select.o ABSOLUTE
    b_mod_shell.c                            0x00000000   Number         0  b_mod_shell.o ABSOLUTE
    b_mod_state.c                            0x00000000   Number         0  b_mod_state.o ABSOLUTE
    b_mod_trace.c                            0x00000000   Number         0  b_mod_trace.o ABSOLUTE
    b_mod_wifi.c                             0x00000000   Number         0  b_mod_wifi.o ABSOLUTE
    b_mod_xm128.c                            0x00000000   Number         0  b_mod_xm128.o ABSOLUTE
    b_mod_ymodem.c                           0x00000000   Number         0  b_mod_ymodem.o ABSOLUTE
    b_queue.c                                0x00000000   Number         0  b_queue.o ABSOLUTE
    b_sem.c                                  0x00000000   Number         0  b_sem.o ABSOLUTE
    b_task.c                                 0x00000000   Number         0  b_task.o ABSOLUTE
    b_timer.c                                0x00000000   Number         0  b_timer.o ABSOLUTE
    b_util_fifo.c                            0x00000000   Number         0  b_util_fifo.o ABSOLUTE
    b_util_log.c                             0x00000000   Number         0  b_util_log.o ABSOLUTE
    b_util_lunar.c                           0x00000000   Number         0  b_util_lunar.o ABSOLUTE
    b_util_memp.c                            0x00000000   Number         0  b_util_memp.o ABSOLUTE
    b_util_uart.c                            0x00000000   Number         0  b_util_uart.o ABSOLUTE
    b_util_utc.c                             0x00000000   Number         0  b_util_utc.o ABSOLUTE
    cdrcmple.s                               0x00000000   Number         0  cdrcmple.o ABSOLUTE
    dc.s                                     0x00000000   Number         0  dc.o ABSOLUTE
    handlers.s                               0x00000000   Number         0  handlers.o ABSOLUTE
    init.s                                   0x00000000   Number         0  init.o ABSOLUTE
    main.c                                   0x00000000   Number         0  main.o ABSOLUTE
    mcu_stm32l41x_flash.c                    0x00000000   Number         0  mcu_stm32l41x_flash.o ABSOLUTE
    mcu_stm32l41x_gpio.c                     0x00000000   Number         0  mcu_stm32l41x_gpio.o ABSOLUTE
    mcu_stm32l41x_i2c.c                      0x00000000   Number         0  mcu_stm32l41x_i2c.o ABSOLUTE
    mcu_stm32l41x_it.c                       0x00000000   Number         0  mcu_stm32l41x_it.o ABSOLUTE
    mcu_stm32l41x_qspi.c                     0x00000000   Number         0  mcu_stm32l41x_qspi.o ABSOLUTE
    mcu_stm32l41x_sdio.c                     0x00000000   Number         0  mcu_stm32l41x_sdio.o ABSOLUTE
    mcu_stm32l41x_spi.c                      0x00000000   Number         0  mcu_stm32l41x_spi.o ABSOLUTE
    mcu_stm32l41x_uart.c                     0x00000000   Number         0  mcu_stm32l41x_uart.o ABSOLUTE
    startup_stm32l431xx.s                    0x00000000   Number         0  startup_stm32l431xx.o ABSOLUTE
    stm32l4xx_hal.c                          0x00000000   Number         0  stm32l4xx_hal.o ABSOLUTE
    stm32l4xx_hal_adc.c                      0x00000000   Number         0  stm32l4xx_hal_adc.o ABSOLUTE
    stm32l4xx_hal_adc_ex.c                   0x00000000   Number         0  stm32l4xx_hal_adc_ex.o ABSOLUTE
    stm32l4xx_hal_cortex.c                   0x00000000   Number         0  stm32l4xx_hal_cortex.o ABSOLUTE
    stm32l4xx_hal_dma.c                      0x00000000   Number         0  stm32l4xx_hal_dma.o ABSOLUTE
    stm32l4xx_hal_dma_ex.c                   0x00000000   Number         0  stm32l4xx_hal_dma_ex.o ABSOLUTE
    stm32l4xx_hal_flash.c                    0x00000000   Number         0  stm32l4xx_hal_flash.o ABSOLUTE
    stm32l4xx_hal_flash_ex.c                 0x00000000   Number         0  stm32l4xx_hal_flash_ex.o ABSOLUTE
    stm32l4xx_hal_flash_ramfunc.c            0x00000000   Number         0  stm32l4xx_hal_flash_ramfunc.o ABSOLUTE
    stm32l4xx_hal_gpio.c                     0x00000000   Number         0  stm32l4xx_hal_gpio.o ABSOLUTE
    stm32l4xx_hal_i2c.c                      0x00000000   Number         0  stm32l4xx_hal_i2c.o ABSOLUTE
    stm32l4xx_hal_i2c_ex.c                   0x00000000   Number         0  stm32l4xx_hal_i2c_ex.o ABSOLUTE
    stm32l4xx_hal_iwdg.c                     0x00000000   Number         0  stm32l4xx_hal_iwdg.o ABSOLUTE
    stm32l4xx_hal_mmc.c                      0x00000000   Number         0  stm32l4xx_hal_mmc.o ABSOLUTE
    stm32l4xx_hal_mmc_ex.c                   0x00000000   Number         0  stm32l4xx_hal_mmc_ex.o ABSOLUTE
    stm32l4xx_hal_msp.c                      0x00000000   Number         0  stm32l4xx_hal_msp.o ABSOLUTE
    stm32l4xx_hal_pwr.c                      0x00000000   Number         0  stm32l4xx_hal_pwr.o ABSOLUTE
    stm32l4xx_hal_pwr_ex.c                   0x00000000   Number         0  stm32l4xx_hal_pwr_ex.o ABSOLUTE
    stm32l4xx_hal_qspi.c                     0x00000000   Number         0  stm32l4xx_hal_qspi.o ABSOLUTE
    stm32l4xx_hal_rcc.c                      0x00000000   Number         0  stm32l4xx_hal_rcc.o ABSOLUTE
    stm32l4xx_hal_rcc_ex.c                   0x00000000   Number         0  stm32l4xx_hal_rcc_ex.o ABSOLUTE
    stm32l4xx_hal_sd.c                       0x00000000   Number         0  stm32l4xx_hal_sd.o ABSOLUTE
    stm32l4xx_hal_sd_ex.c                    0x00000000   Number         0  stm32l4xx_hal_sd_ex.o ABSOLUTE
    stm32l4xx_hal_smartcard.c                0x00000000   Number         0  stm32l4xx_hal_smartcard.o ABSOLUTE
    stm32l4xx_hal_smartcard_ex.c             0x00000000   Number         0  stm32l4xx_hal_smartcard_ex.o ABSOLUTE
    stm32l4xx_hal_spi.c                      0x00000000   Number         0  stm32l4xx_hal_spi.o ABSOLUTE
    stm32l4xx_hal_spi_ex.c                   0x00000000   Number         0  stm32l4xx_hal_spi_ex.o ABSOLUTE
    stm32l4xx_hal_tim.c                      0x00000000   Number         0  stm32l4xx_hal_tim.o ABSOLUTE
    stm32l4xx_hal_tim_ex.c                   0x00000000   Number         0  stm32l4xx_hal_tim_ex.o ABSOLUTE
    stm32l4xx_hal_uart.c                     0x00000000   Number         0  stm32l4xx_hal_uart.o ABSOLUTE
    stm32l4xx_hal_uart_ex.c                  0x00000000   Number         0  stm32l4xx_hal_uart_ex.o ABSOLUTE
    stm32l4xx_hal_usart.c                    0x00000000   Number         0  stm32l4xx_hal_usart.o ABSOLUTE
    stm32l4xx_hal_usart_ex.c                 0x00000000   Number         0  stm32l4xx_hal_usart_ex.o ABSOLUTE
    stm32l4xx_hal_wwdg.c                     0x00000000   Number         0  stm32l4xx_hal_wwdg.o ABSOLUTE
    stm32l4xx_it.c                           0x00000000   Number         0  stm32l4xx_it.o ABSOLUTE
    stm32l4xx_ll_sdmmc.c                     0x00000000   Number         0  stm32l4xx_ll_sdmmc.o ABSOLUTE
    system_stm32l4xx.c                       0x00000000   Number         0  system_stm32l4xx.o ABSOLUTE
    RESET                                    0x08000000   Section      396  startup_stm32l431xx.o(RESET)
    .ARM.Collect$$$$00000000                 0x0800018c   Section        0  entry.o(.ARM.Collect$$$$00000000)
    .ARM.Collect$$$$00000001                 0x0800018c   Section        4  entry2.o(.ARM.Collect$$$$00000001)
    .ARM.Collect$$$$00000004                 0x08000190   Section        4  entry5.o(.ARM.Collect$$$$00000004)
    .ARM.Collect$$$$00000008                 0x08000194   Section        0  entry7b.o(.ARM.Collect$$$$00000008)
    .ARM.Collect$$$$0000000A                 0x08000194   Section        0  entry8b.o(.ARM.Collect$$$$0000000A)
    .ARM.Collect$$$$0000000B                 0x08000194   Section        8  entry9a.o(.ARM.Collect$$$$0000000B)
    __lit__00000000                          0x0800019c   Data           4  entry2.o(.ARM.Collect$$$$00002712)
    .ARM.Collect$$$$0000000D                 0x0800019c   Section        0  entry10a.o(.ARM.Collect$$$$0000000D)
    .ARM.Collect$$$$0000000F                 0x0800019c   Section        0  entry11a.o(.ARM.Collect$$$$0000000F)
    .ARM.Collect$$$$00002712                 0x0800019c   Section        4  entry2.o(.ARM.Collect$$$$00002712)
    $v0                                      0x080001a0   Number         0  startup_stm32l431xx.o(.text)
    .text                                    0x080001a0   Section       36  startup_stm32l431xx.o(.text)
    .text                                    0x080001c4   Section        0  uldiv.o(.text)
    .text                                    0x0800022c   Section        0  memcpya.o(.text)
    .text                                    0x08000250   Section        0  memseta.o(.text)
    .text                                    0x08000274   Section        0  strlen.o(.text)
    .text                                    0x08000282   Section        0  dmul.o(.text)
    .text                                    0x0800036c   Section        0  ddiv.o(.text)
    .text                                    0x0800044a   Section        0  dfltui.o(.text)
    .text                                    0x08000464   Section        0  dfixui.o(.text)
    .text                                    0x08000496   Section        0  uidiv.o(.text)
    .text                                    0x080004c2   Section        0  llshl.o(.text)
    .text                                    0x080004e0   Section        0  llushr.o(.text)
    .text                                    0x08000500   Section        0  iusefp.o(.text)
    .text                                    0x08000500   Section        0  depilogue.o(.text)
    .text                                    0x080005ba   Section        0  dadd.o(.text)
    .text                                    0x08000718   Section        0  dfixul.o(.text)
    .text                                    0x08000748   Section       48  cdrcmple.o(.text)
    .text                                    0x08000778   Section       36  init.o(.text)
    .text                                    0x0800079c   Section        0  llsshr.o(.text)
    [Anonymous Symbol]                       0x080007c0   Section        0  stm32l4xx_it.o(.text.BusFault_Handler)
    [Anonymous Symbol]                       0x080007c4   Section        0  stm32l4xx_it.o(.text.DebugMon_Handler)
    [Anonymous Symbol]                       0x080007c8   Section        0  main.o(.text.Error_Handler)
    [Anonymous Symbol]                       0x080007d8   Section        0  stm32l4xx_hal_dma.o(.text.HAL_DMA_Abort)
    [Anonymous Symbol]                       0x08000858   Section        0  stm32l4xx_hal_dma.o(.text.HAL_DMA_Abort_IT)
    [Anonymous Symbol]                       0x080008d8   Section        0  stm32l4xx_hal_gpio.o(.text.HAL_GPIO_Init)
    [Anonymous Symbol]                       0x08000c30   Section        0  stm32l4xx_hal_gpio.o(.text.HAL_GPIO_WritePin)
    [Anonymous Symbol]                       0x08000c64   Section        0  stm32l4xx_hal.o(.text.HAL_GetTick)
    [Anonymous Symbol]                       0x08000c70   Section        0  stm32l4xx_hal.o(.text.HAL_IncTick)
    [Anonymous Symbol]                       0x08000c8c   Section        0  stm32l4xx_hal.o(.text.HAL_Init)
    [Anonymous Symbol]                       0x08000cc4   Section        0  stm32l4xx_hal.o(.text.HAL_InitTick)
    [Anonymous Symbol]                       0x08000d50   Section        0  stm32l4xx_hal_msp.o(.text.HAL_MspInit)
    [Anonymous Symbol]                       0x08000d94   Section        0  stm32l4xx_hal_cortex.o(.text.HAL_NVIC_EnableIRQ)
    [Anonymous Symbol]                       0x08000dac   Section        0  stm32l4xx_hal_cortex.o(.text.HAL_NVIC_SetPriority)
    [Anonymous Symbol]                       0x08000dec   Section        0  stm32l4xx_hal_cortex.o(.text.HAL_NVIC_SetPriorityGrouping)
    [Anonymous Symbol]                       0x08000dfc   Section        0  stm32l4xx_hal_pwr_ex.o(.text.HAL_PWREx_ControlVoltageScaling)
    [Anonymous Symbol]                       0x08000ee4   Section        0  stm32l4xx_hal_pwr_ex.o(.text.HAL_PWREx_GetVoltageRange)
    [Anonymous Symbol]                       0x08000ef4   Section        0  stm32l4xx_hal_rcc_ex.o(.text.HAL_RCCEx_PeriphCLKConfig)
    [Anonymous Symbol]                       0x080013b8   Section        0  stm32l4xx_hal_rcc.o(.text.HAL_RCC_ClockConfig)
    [Anonymous Symbol]                       0x08001608   Section        0  stm32l4xx_hal_rcc.o(.text.HAL_RCC_GetHCLKFreq)
    [Anonymous Symbol]                       0x08001614   Section        0  stm32l4xx_hal_rcc.o(.text.HAL_RCC_GetPCLK1Freq)
    [Anonymous Symbol]                       0x0800163c   Section        0  stm32l4xx_hal_rcc.o(.text.HAL_RCC_GetPCLK2Freq)
    [Anonymous Symbol]                       0x08001664   Section        0  stm32l4xx_hal_rcc.o(.text.HAL_RCC_GetSysClockFreq)
    [Anonymous Symbol]                       0x080017c4   Section        0  stm32l4xx_hal_rcc.o(.text.HAL_RCC_OscConfig)
    [Anonymous Symbol]                       0x08002254   Section        0  stm32l4xx_hal_cortex.o(.text.HAL_SYSTICK_Config)
    [Anonymous Symbol]                       0x08002264   Section        0  stm32l4xx_hal_uart.o(.text.HAL_UARTEx_RxEventCallback)
    [Anonymous Symbol]                       0x08002274   Section        0  stm32l4xx_hal_uart_ex.o(.text.HAL_UARTEx_WakeupCallback)
    [Anonymous Symbol]                       0x0800227c   Section        0  stm32l4xx_hal_uart.o(.text.HAL_UART_ErrorCallback)
    [Anonymous Symbol]                       0x08002284   Section        0  stm32l4xx_hal_uart.o(.text.HAL_UART_IRQHandler)
    [Anonymous Symbol]                       0x0800276c   Section        0  stm32l4xx_hal_uart.o(.text.HAL_UART_Init)
    [Anonymous Symbol]                       0x0800281c   Section        0  stm32l4xx_hal_msp.o(.text.HAL_UART_MspInit)
    [Anonymous Symbol]                       0x08002984   Section        0  stm32l4xx_hal_uart.o(.text.HAL_UART_TxCpltCallback)
    [Anonymous Symbol]                       0x0800298c   Section        0  stm32l4xx_it.o(.text.HardFault_Handler)
    [Anonymous Symbol]                       0x08002990   Section        0  stm32l4xx_it.o(.text.LPUART1_IRQHandler)
    MX_GPIO_Init                             0x080029a1   Thumb Code   294  main.o(.text.MX_GPIO_Init)
    [Anonymous Symbol]                       0x080029a0   Section        0  main.o(.text.MX_GPIO_Init)
    MX_USART1_UART_Init                      0x08002ac9   Thumb Code    64  main.o(.text.MX_USART1_UART_Init)
    [Anonymous Symbol]                       0x08002ac8   Section        0  main.o(.text.MX_USART1_UART_Init)
    [Anonymous Symbol]                       0x08002b08   Section        0  stm32l4xx_it.o(.text.MemManage_Handler)
    [Anonymous Symbol]                       0x08002b0c   Section        0  stm32l4xx_it.o(.text.NMI_Handler)
    NVIC_EncodePriority                      0x08002b11   Thumb Code   110  stm32l4xx_hal_cortex.o(.text.NVIC_EncodePriority)
    [Anonymous Symbol]                       0x08002b10   Section        0  stm32l4xx_hal_cortex.o(.text.NVIC_EncodePriority)
    [Anonymous Symbol]                       0x08002b80   Section        0  stm32l4xx_it.o(.text.PendSV_Handler)
    RCCEx_PLLSAI1_Config                     0x08002b85   Thumb Code   648  stm32l4xx_hal_rcc_ex.o(.text.RCCEx_PLLSAI1_Config)
    [Anonymous Symbol]                       0x08002b84   Section        0  stm32l4xx_hal_rcc_ex.o(.text.RCCEx_PLLSAI1_Config)
    RCC_SetFlashLatencyFromMSIRange          0x08002e0d   Thumb Code   238  stm32l4xx_hal_rcc.o(.text.RCC_SetFlashLatencyFromMSIRange)
    [Anonymous Symbol]                       0x08002e0c   Section        0  stm32l4xx_hal_rcc.o(.text.RCC_SetFlashLatencyFromMSIRange)
    [Anonymous Symbol]                       0x08002efc   Section        0  stm32l4xx_it.o(.text.SVC_Handler)
    SysTick_Config                           0x08002f01   Thumb Code    82  stm32l4xx_hal_cortex.o(.text.SysTick_Config)
    [Anonymous Symbol]                       0x08002f00   Section        0  stm32l4xx_hal_cortex.o(.text.SysTick_Config)
    [Anonymous Symbol]                       0x08002f54   Section        0  stm32l4xx_it.o(.text.SysTick_Handler)
    [Anonymous Symbol]                       0x08002f60   Section        0  main.o(.text.SystemClock_Config)
    [Anonymous Symbol]                       0x08002fe8   Section        0  system_stm32l4xx.o(.text.SystemInit)
    [Anonymous Symbol]                       0x08002ffc   Section        0  stm32l4xx_hal_uart.o(.text.UART_AdvFeatureConfig)
    [Anonymous Symbol]                       0x08003148   Section        0  stm32l4xx_hal_uart.o(.text.UART_CheckIdleState)
    UART_DMAAbortOnError                     0x080031f1   Thumb Code    36  stm32l4xx_hal_uart.o(.text.UART_DMAAbortOnError)
    [Anonymous Symbol]                       0x080031f0   Section        0  stm32l4xx_hal_uart.o(.text.UART_DMAAbortOnError)
    UART_EndRxTransfer                       0x08003215   Thumb Code   150  stm32l4xx_hal_uart.o(.text.UART_EndRxTransfer)
    [Anonymous Symbol]                       0x08003214   Section        0  stm32l4xx_hal_uart.o(.text.UART_EndRxTransfer)
    UART_EndTransmit_IT                      0x080032ad   Thumb Code    66  stm32l4xx_hal_uart.o(.text.UART_EndTransmit_IT)
    [Anonymous Symbol]                       0x080032ac   Section        0  stm32l4xx_hal_uart.o(.text.UART_EndTransmit_IT)
    [Anonymous Symbol]                       0x080032f0   Section        0  stm32l4xx_hal_uart.o(.text.UART_SetConfig)
    [Anonymous Symbol]                       0x0800377c   Section        0  stm32l4xx_hal_uart.o(.text.UART_WaitOnFlagUntilTimeout)
    [Anonymous Symbol]                       0x080038f0   Section        0  stm32l4xx_it.o(.text.USART1_IRQHandler)
    [Anonymous Symbol]                       0x08003900   Section        0  stm32l4xx_it.o(.text.UsageFault_Handler)
    __NVIC_EnableIRQ                         0x08003905   Thumb Code    52  stm32l4xx_hal_cortex.o(.text.__NVIC_EnableIRQ)
    [Anonymous Symbol]                       0x08003904   Section        0  stm32l4xx_hal_cortex.o(.text.__NVIC_EnableIRQ)
    __NVIC_GetPriorityGrouping               0x08003939   Thumb Code    16  stm32l4xx_hal_cortex.o(.text.__NVIC_GetPriorityGrouping)
    [Anonymous Symbol]                       0x08003938   Section        0  stm32l4xx_hal_cortex.o(.text.__NVIC_GetPriorityGrouping)
    __NVIC_SetPriority                       0x08003949   Thumb Code    68  stm32l4xx_hal_cortex.o(.text.__NVIC_SetPriority)
    [Anonymous Symbol]                       0x08003948   Section        0  stm32l4xx_hal_cortex.o(.text.__NVIC_SetPriority)
    __NVIC_SetPriorityGrouping               0x0800398d   Thumb Code    60  stm32l4xx_hal_cortex.o(.text.__NVIC_SetPriorityGrouping)
    [Anonymous Symbol]                       0x0800398c   Section        0  stm32l4xx_hal_cortex.o(.text.__NVIC_SetPriorityGrouping)
    _bCoreMonitor                            0x080039c9   Thumb Code     2  b_core.o(.text._bCoreMonitor)
    [Anonymous Symbol]                       0x080039c8   Section        0  b_core.o(.text._bCoreMonitor)
    _bDriverNullInit                         0x080039cd   Thumb Code    50  b_device.o(.text._bDriverNullInit)
    [Anonymous Symbol]                       0x080039cc   Section        0  b_device.o(.text._bDriverNullInit)
    _bHalUartDetectIdle                      0x08003a01   Thumb Code   264  b_hal_uart.o(.text._bHalUartDetectIdle)
    [Anonymous Symbol]                       0x08003a00   Section        0  b_hal_uart.o(.text._bHalUartDetectIdle)
    _bHalUpdateDelayParam                    0x08003b09   Thumb Code   176  b_hal.o(.text._bHalUpdateDelayParam)
    [Anonymous Symbol]                       0x08003b08   Section        0  b_hal.o(.text._bHalUpdateDelayParam)
    _bLogOutput                              0x08003bb9   Thumb Code    28  b_util_log.o(.text._bLogOutput)
    [Anonymous Symbol]                       0x08003bb8   Section        0  b_util_log.o(.text._bLogOutput)
    _bTaskCore                               0x08003bd5   Thumb Code   124  b_task.o(.text._bTaskCore)
    [Anonymous Symbol]                       0x08003bd4   Section        0  b_task.o(.text._bTaskCore)
    _bTimerCore                              0x08003c51   Thumb Code   150  b_timer.o(.text._bTimerCore)
    [Anonymous Symbol]                       0x08003c50   Section        0  b_timer.o(.text._bTimerCore)
    [Anonymous Symbol]                       0x08003ce8   Section        0  b_device.o(.text.bDeviceInit)
    [Anonymous Symbol]                       0x08003f64   Section        0  b_core.o(.text.bExec)
    [Anonymous Symbol]                       0x08003f9c   Section        0  b_hal.o(.text.bHalGetSysTick)
    [Anonymous Symbol]                       0x08003fa8   Section        0  b_hal.o(.text.bHalIncSysTick)
    [Anonymous Symbol]                       0x08003fd0   Section        0  b_hal.o(.text.bHalInit)
    [Anonymous Symbol]                       0x08003fdc   Section        0  b_hal_uart.o(.text.bHalUartSend)
    [Anonymous Symbol]                       0x08004008   Section        0  b_hal.o(.text.bHalUserInit)
    [Anonymous Symbol]                       0x0800400c   Section        0  b_core.o(.text.bInit)
    [Anonymous Symbol]                       0x08004174   Section        0  b_util_log.o(.text.bLogOut)
    [Anonymous Symbol]                       0x08004318   Section        0  mcu_stm32l41x_uart.o(.text.bMcuUartSend)
    list_is_head                             0x08004401   Thumb Code    22  b_task.o(.text.list_is_head)
    [Anonymous Symbol]                       0x08004400   Section        0  b_task.o(.text.list_is_head)
    list_is_head                             0x08004419   Thumb Code    22  b_timer.o(.text.list_is_head)
    [Anonymous Symbol]                       0x08004418   Section        0  b_timer.o(.text.list_is_head)
    list_is_head                             0x08004431   Thumb Code    22  b_hal_uart.o(.text.list_is_head)
    [Anonymous Symbol]                       0x08004430   Section        0  b_hal_uart.o(.text.list_is_head)
    [Anonymous Symbol]                       0x08004448   Section        0  main.o(.text.main)
    i.__0sprintf                             0x08004470   Section        0  printfa.o(i.__0sprintf)
    i.__0vsnprintf                           0x08004498   Section        0  printfa.o(i.__0vsnprintf)
    i.__scatterload_copy                     0x080044cc   Section       14  handlers.o(i.__scatterload_copy)
    i.__scatterload_null                     0x080044da   Section        2  handlers.o(i.__scatterload_null)
    i.__scatterload_zeroinit                 0x080044dc   Section       14  handlers.o(i.__scatterload_zeroinit)
    _fp_digits                               0x080044ed   Thumb Code   366  printfa.o(i._fp_digits)
    i._fp_digits                             0x080044ec   Section        0  printfa.o(i._fp_digits)
    _printf_core                             0x08004679   Thumb Code  1744  printfa.o(i._printf_core)
    i._printf_core                           0x08004678   Section        0  printfa.o(i._printf_core)
    _printf_post_padding                     0x08004d5b   Thumb Code    36  printfa.o(i._printf_post_padding)
    i._printf_post_padding                   0x08004d5a   Section        0  printfa.o(i._printf_post_padding)
    _printf_pre_padding                      0x08004d7f   Thumb Code    46  printfa.o(i._printf_pre_padding)
    i._printf_pre_padding                    0x08004d7e   Section        0  printfa.o(i._printf_pre_padding)
    _snputc                                  0x08004dad   Thumb Code    22  printfa.o(i._snputc)
    i._snputc                                0x08004dac   Section        0  printfa.o(i._snputc)
    _sputc                                   0x08004dc3   Thumb Code    10  printfa.o(i._sputc)
    i._sputc                                 0x08004dc2   Section        0  printfa.o(i._sputc)
    bLogParamTable                           0x08004e14   Data           3  b_util_log.o(.rodata.bLogParamTable)
    [Anonymous Symbol]                       0x08004e14   Section        0  b_util_log.o(.rodata.bLogParamTable)
    bLogPrefix                               0x08004e17   Data           3  b_util_log.o(.rodata.bLogPrefix)
    [Anonymous Symbol]                       0x08004e17   Section        0  b_util_log.o(.rodata.bLogPrefix)
    .L.str.8                                 0x08004e1a   Data          49  b_core.o(.rodata.str1.1)
    [Anonymous Symbol]                       0x08004e1a   Section        0  b_core.o(.rodata.str1.1)
    .L.str.7                                 0x08004e4b   Data          49  b_core.o(.rodata.str1.1)
    .L.str.5                                 0x08004e7c   Data          49  b_core.o(.rodata.str1.1)
    .L.str.2                                 0x08004ead   Data          49  b_core.o(.rodata.str1.1)
    .L.str.4                                 0x08004ede   Data          49  b_core.o(.rodata.str1.1)
    .L.str.3                                 0x08004f0f   Data          49  b_core.o(.rodata.str1.1)
    .L.str.6                                 0x08004f40   Data          49  b_core.o(.rodata.str1.1)
    .L.str.1                                 0x08004f71   Data          49  b_core.o(.rodata.str1.1)
    .L.str.12                                0x08004fa2   Data          19  b_core.o(.rodata.str1.1)
    .L.str.9                                 0x08004fb5   Data          40  b_core.o(.rodata.str1.1)
    .L.str.5                                 0x08004fda   Data           3  b_core.o(.rodata.str1.1)
    .L.str.10                                0x08004fdd   Data          12  b_core.o(.rodata.str1.1)
    .L.str.11                                0x08004fe9   Data           9  b_core.o(.rodata.str1.1)
    .L.str                                   0x08004ff2   Data          34  b_core.o(.rodata.str1.1)
    .L__func__.bInit                         0x08005014   Data           6  b_core.o(.rodata.str1.1)
    .L.str.3                                 0x0800501a   Data          14  b_device.o(.rodata.str1.1)
    [Anonymous Symbol]                       0x0800501a   Section        0  b_device.o(.rodata.str1.1)
    .L.str.8                                 0x08005028   Data          26  b_device.o(.rodata.str1.1)
    .L.str.1                                 0x08005042   Data          23  b_device.o(.rodata.str1.1)
    .L.str                                   0x08005059   Data          36  b_device.o(.rodata.str1.1)
    .L.str.4                                 0x0800507d   Data           9  b_device.o(.rodata.str1.1)
    .L__func__.bDeviceOpen                   0x0800507f   Data          12  b_device.o(.rodata.str1.1)
    .L.str.9                                 0x08005086   Data           5  b_device.o(.rodata.str1.1)
    .L.str.2                                 0x0800508b   Data           4  b_device.o(.rodata.str1.1)
    .L.str.6                                 0x0800508b   Data           9  b_device.o(.rodata.str1.1)
    .L__func__.bDeviceInit                   0x0800508f   Data          12  b_device.o(.rodata.str1.1)
    .L__func__.bDeviceRead                   0x08005094   Data          12  b_device.o(.rodata.str1.1)
    .L__func__._bDriverNullInit              0x0800509b   Data          17  b_device.o(.rodata.str1.1)
    .L__func__.bDeviceWrite                  0x080050a0   Data          13  b_device.o(.rodata.str1.1)
    .L.str                                   0x080050ac   Data           3  b_util_log.o(.rodata.str1.1)
    [Anonymous Symbol]                       0x080050ac   Section        0  b_util_log.o(.rodata.str1.1)
    .L__func__.bDeviceClose                  0x080050ad   Data          13  b_device.o(.rodata.str1.1)
    .L__func__.bDeviceCtl                    0x080050ba   Data          11  b_device.o(.rodata.str1.1)
    .L__func__.bDeviceISNormal               0x080050c5   Data          16  b_device.o(.rodata.str1.1)
    __tagsym$$used.0                         0x080050d0   Number         0  b_core.o(bos_polling)
    __tagsym$$used.0                         0x080050d4   Number         0  b_task.o(bos_polling)
    .L.str.7                                 0x080050d5   Data           9  b_device.o(.rodata.str1.1)
    __tagsym$$used.0                         0x080050d8   Number         0  b_timer.o(bos_polling)
    __tagsym$$used.0                         0x080050dc   Number         0  b_hal_uart.o(bos_polling)
    __tagsym$$used.1                         0x080050e0   Number         0  b_device.o(driver_init)
    __tagsym$$used.0                         0x080050e8   Number         0  b_device.o(driver_init_0)
    UartTable                                0x20000004   Data          16  mcu_stm32l41x_uart.o(.data.UartTable)
    [Anonymous Symbol]                       0x20000004   Section        0  mcu_stm32l41x_uart.o(.data.UartTable)
    bDeviceDescTable                         0x20000014   Data           4  b_device.o(.data.bDeviceDescTable)
    [Anonymous Symbol]                       0x20000014   Section        0  b_device.o(.data.bDeviceDescTable)
    bHalUartListHead                         0x20000018   Data           8  b_hal_uart.o(.data.bHalUartListHead)
    [Anonymous Symbol]                       0x20000018   Section        0  b_hal_uart.o(.data.bHalUartListHead)
    bTaskListHead                            0x20000020   Data           8  b_task.o(.data.bTaskListHead)
    [Anonymous Symbol]                       0x20000020   Section        0  b_task.o(.data.bTaskListHead)
    bTimerListHead                           0x20000028   Data           8  b_timer.o(.data.bTimerListHead)
    [Anonymous Symbol]                       0x20000028   Section        0  b_timer.o(.data.bTimerListHead)
    bUsDelayParam                            0x20000030   Data           4  b_hal.o(.data.bUsDelayParam)
    [Anonymous Symbol]                       0x20000030   Section        0  b_hal.o(.data.bUsDelayParam)
    bDriverInterfaceTable                    0x20000040   Data          68  b_device.o(.bss.bDriverInterfaceTable)
    [Anonymous Symbol]                       0x20000040   Section        0  b_device.o(.bss.bDriverInterfaceTable)
    bDriverNumberTable                       0x20000084   Data           1  b_device.o(.bss.bDriverNumberTable)
    [Anonymous Symbol]                       0x20000084   Section        0  b_device.o(.bss.bDriverNumberTable)
    bLogBuff                                 0x20000085   Data         256  b_util_log.o(.bss.bLogBuff)
    [Anonymous Symbol]                       0x20000085   Section        0  b_util_log.o(.bss.bLogBuff)
    bSysTick                                 0x20000188   Data           4  b_hal.o(.bss.bSysTick)
    [Anonymous Symbol]                       0x20000188   Section        0  b_hal.o(.bss.bSysTick)
    bSysTickOvr                              0x2000018c   Data           4  b_hal.o(.bss.bSysTickOvr)
    [Anonymous Symbol]                       0x2000018c   Section        0  b_hal.o(.bss.bSysTickOvr)
    pCurrentTaskAttr                         0x20000298   Data           4  b_task.o(.bss.pCurrentTaskAttr)
    [Anonymous Symbol]                       0x20000298   Section        0  b_task.o(.bss.pCurrentTaskAttr)
    STACK                                    0x200002a0   Section     1024  startup_stm32l431xx.o(STACK)

    Global Symbols

    Symbol Name                              Value     Ov Type        Size  Object(Section)

    BuildAttributes$$THM_ISAv4$E$P$D$K$B$S$7EM$VFPi3$EXTD16$VFPS$VFMA$PE$A:L22UL41UL21$X:L11$S22US41US21$IEEE1$IW$~IW$USESV6$~STKCKD$USESV7$~SHL$OSPACE$ROPI$EBA8$MICROLIB$REQ8$PRES8$EABIv2 0x00000000   Number         0  anon$$obj.o ABSOLUTE
    __cpp_initialize__aeabi_                  - Undefined Weak Reference
    __cxa_finalize                            - Undefined Weak Reference
    __decompress                              - Undefined Weak Reference
    _clock_init                               - Undefined Weak Reference
    _microlib_exit                            - Undefined Weak Reference
    __Vectors_Size                           0x0000018c   Number         0  startup_stm32l431xx.o ABSOLUTE
    __Vectors                                0x08000000   Data           4  startup_stm32l431xx.o(RESET)
    __Vectors_End                            0x0800018c   Data           0  startup_stm32l431xx.o(RESET)
    __main                                   0x0800018d   Thumb Code     0  entry.o(.ARM.Collect$$$$00000000)
    _main_stk                                0x0800018d   Thumb Code     0  entry2.o(.ARM.Collect$$$$00000001)
    _main_scatterload                        0x08000191   Thumb Code     0  entry5.o(.ARM.Collect$$$$00000004)
    __main_after_scatterload                 0x08000195   Thumb Code     0  entry5.o(.ARM.Collect$$$$00000004)
    _main_clock                              0x08000195   Thumb Code     0  entry7b.o(.ARM.Collect$$$$00000008)
    _main_cpp_init                           0x08000195   Thumb Code     0  entry8b.o(.ARM.Collect$$$$0000000A)
    _main_init                               0x08000195   Thumb Code     0  entry9a.o(.ARM.Collect$$$$0000000B)
    __rt_final_cpp                           0x0800019d   Thumb Code     0  entry10a.o(.ARM.Collect$$$$0000000D)
    __rt_final_exit                          0x0800019d   Thumb Code     0  entry11a.o(.ARM.Collect$$$$0000000F)
    Reset_Handler                            0x080001a1   Thumb Code     8  startup_stm32l431xx.o(.text)
    ADC1_IRQHandler                          0x080001bb   Thumb Code     0  startup_stm32l431xx.o(.text)
    CAN1_RX0_IRQHandler                      0x080001bb   Thumb Code     0  startup_stm32l431xx.o(.text)
    CAN1_RX1_IRQHandler                      0x080001bb   Thumb Code     0  startup_stm32l431xx.o(.text)
    CAN1_SCE_IRQHandler                      0x080001bb   Thumb Code     0  startup_stm32l431xx.o(.text)
    CAN1_TX_IRQHandler                       0x080001bb   Thumb Code     0  startup_stm32l431xx.o(.text)
    COMP_IRQHandler                          0x080001bb   Thumb Code     0  startup_stm32l431xx.o(.text)
    CRS_IRQHandler                           0x080001bb   Thumb Code     0  startup_stm32l431xx.o(.text)
    DMA1_Channel1_IRQHandler                 0x080001bb   Thumb Code     0  startup_stm32l431xx.o(.text)
    DMA1_Channel2_IRQHandler                 0x080001bb   Thumb Code     0  startup_stm32l431xx.o(.text)
    DMA1_Channel3_IRQHandler                 0x080001bb   Thumb Code     0  startup_stm32l431xx.o(.text)
    DMA1_Channel4_IRQHandler                 0x080001bb   Thumb Code     0  startup_stm32l431xx.o(.text)
    DMA1_Channel5_IRQHandler                 0x080001bb   Thumb Code     0  startup_stm32l431xx.o(.text)
    DMA1_Channel6_IRQHandler                 0x080001bb   Thumb Code     0  startup_stm32l431xx.o(.text)
    DMA1_Channel7_IRQHandler                 0x080001bb   Thumb Code     0  startup_stm32l431xx.o(.text)
    DMA2_Channel1_IRQHandler                 0x080001bb   Thumb Code     0  startup_stm32l431xx.o(.text)
    DMA2_Channel2_IRQHandler                 0x080001bb   Thumb Code     0  startup_stm32l431xx.o(.text)
    DMA2_Channel3_IRQHandler                 0x080001bb   Thumb Code     0  startup_stm32l431xx.o(.text)
    DMA2_Channel4_IRQHandler                 0x080001bb   Thumb Code     0  startup_stm32l431xx.o(.text)
    DMA2_Channel5_IRQHandler                 0x080001bb   Thumb Code     0  startup_stm32l431xx.o(.text)
    DMA2_Channel6_IRQHandler                 0x080001bb   Thumb Code     0  startup_stm32l431xx.o(.text)
    DMA2_Channel7_IRQHandler                 0x080001bb   Thumb Code     0  startup_stm32l431xx.o(.text)
    EXTI0_IRQHandler                         0x080001bb   Thumb Code     0  startup_stm32l431xx.o(.text)
    EXTI15_10_IRQHandler                     0x080001bb   Thumb Code     0  startup_stm32l431xx.o(.text)
    EXTI1_IRQHandler                         0x080001bb   Thumb Code     0  startup_stm32l431xx.o(.text)
    EXTI2_IRQHandler                         0x080001bb   Thumb Code     0  startup_stm32l431xx.o(.text)
    EXTI3_IRQHandler                         0x080001bb   Thumb Code     0  startup_stm32l431xx.o(.text)
    EXTI4_IRQHandler                         0x080001bb   Thumb Code     0  startup_stm32l431xx.o(.text)
    EXTI9_5_IRQHandler                       0x080001bb   Thumb Code     0  startup_stm32l431xx.o(.text)
    FLASH_IRQHandler                         0x080001bb   Thumb Code     0  startup_stm32l431xx.o(.text)
    FPU_IRQHandler                           0x080001bb   Thumb Code     0  startup_stm32l431xx.o(.text)
    I2C1_ER_IRQHandler                       0x080001bb   Thumb Code     0  startup_stm32l431xx.o(.text)
    I2C1_EV_IRQHandler                       0x080001bb   Thumb Code     0  startup_stm32l431xx.o(.text)
    I2C2_ER_IRQHandler                       0x080001bb   Thumb Code     0  startup_stm32l431xx.o(.text)
    I2C2_EV_IRQHandler                       0x080001bb   Thumb Code     0  startup_stm32l431xx.o(.text)
    I2C3_ER_IRQHandler                       0x080001bb   Thumb Code     0  startup_stm32l431xx.o(.text)
    I2C3_EV_IRQHandler                       0x080001bb   Thumb Code     0  startup_stm32l431xx.o(.text)
    LPTIM1_IRQHandler                        0x080001bb   Thumb Code     0  startup_stm32l431xx.o(.text)
    LPTIM2_IRQHandler                        0x080001bb   Thumb Code     0  startup_stm32l431xx.o(.text)
    PVD_PVM_IRQHandler                       0x080001bb   Thumb Code     0  startup_stm32l431xx.o(.text)
    QUADSPI_IRQHandler                       0x080001bb   Thumb Code     0  startup_stm32l431xx.o(.text)
    RCC_IRQHandler                           0x080001bb   Thumb Code     0  startup_stm32l431xx.o(.text)
    RNG_IRQHandler                           0x080001bb   Thumb Code     0  startup_stm32l431xx.o(.text)
    RTC_Alarm_IRQHandler                     0x080001bb   Thumb Code     0  startup_stm32l431xx.o(.text)
    RTC_WKUP_IRQHandler                      0x080001bb   Thumb Code     0  startup_stm32l431xx.o(.text)
    SAI1_IRQHandler                          0x080001bb   Thumb Code     0  startup_stm32l431xx.o(.text)
    SDMMC1_IRQHandler                        0x080001bb   Thumb Code     0  startup_stm32l431xx.o(.text)
    SPI1_IRQHandler                          0x080001bb   Thumb Code     0  startup_stm32l431xx.o(.text)
    SPI2_IRQHandler                          0x080001bb   Thumb Code     0  startup_stm32l431xx.o(.text)
    SPI3_IRQHandler                          0x080001bb   Thumb Code     0  startup_stm32l431xx.o(.text)
    SWPMI1_IRQHandler                        0x080001bb   Thumb Code     0  startup_stm32l431xx.o(.text)
    TAMP_STAMP_IRQHandler                    0x080001bb   Thumb Code     0  startup_stm32l431xx.o(.text)
    TIM1_BRK_TIM15_IRQHandler                0x080001bb   Thumb Code     0  startup_stm32l431xx.o(.text)
    TIM1_CC_IRQHandler                       0x080001bb   Thumb Code     0  startup_stm32l431xx.o(.text)
    TIM1_TRG_COM_IRQHandler                  0x080001bb   Thumb Code     0  startup_stm32l431xx.o(.text)
    TIM1_UP_TIM16_IRQHandler                 0x080001bb   Thumb Code     0  startup_stm32l431xx.o(.text)
    TIM2_IRQHandler                          0x080001bb   Thumb Code     0  startup_stm32l431xx.o(.text)
    TIM6_DAC_IRQHandler                      0x080001bb   Thumb Code     0  startup_stm32l431xx.o(.text)
    TIM7_IRQHandler                          0x080001bb   Thumb Code     0  startup_stm32l431xx.o(.text)
    TSC_IRQHandler                           0x080001bb   Thumb Code     0  startup_stm32l431xx.o(.text)
    USART2_IRQHandler                        0x080001bb   Thumb Code     0  startup_stm32l431xx.o(.text)
    USART3_IRQHandler                        0x080001bb   Thumb Code     0  startup_stm32l431xx.o(.text)
    WWDG_IRQHandler                          0x080001bb   Thumb Code     0  startup_stm32l431xx.o(.text)
    __aeabi_uldivmod                         0x080001c5   Thumb Code    98  uldiv.o(.text)
    __aeabi_memcpy                           0x0800022d   Thumb Code    36  memcpya.o(.text)
    __aeabi_memcpy4                          0x0800022d   Thumb Code     0  memcpya.o(.text)
    __aeabi_memcpy8                          0x0800022d   Thumb Code     0  memcpya.o(.text)
    __aeabi_memset                           0x08000251   Thumb Code    14  memseta.o(.text)
    __aeabi_memset4                          0x08000251   Thumb Code     0  memseta.o(.text)
    __aeabi_memset8                          0x08000251   Thumb Code     0  memseta.o(.text)
    __aeabi_memclr                           0x0800025f   Thumb Code     4  memseta.o(.text)
    __aeabi_memclr4                          0x0800025f   Thumb Code     0  memseta.o(.text)
    __aeabi_memclr8                          0x0800025f   Thumb Code     0  memseta.o(.text)
    _memset$wrapper                          0x08000263   Thumb Code    18  memseta.o(.text)
    strlen                                   0x08000275   Thumb Code    14  strlen.o(.text)
    __aeabi_dmul                             0x08000283   Thumb Code   228  dmul.o(.text)
    __aeabi_ddiv                             0x0800036d   Thumb Code   222  ddiv.o(.text)
    __aeabi_ui2d                             0x0800044b   Thumb Code    26  dfltui.o(.text)
    __aeabi_d2uiz                            0x08000465   Thumb Code    50  dfixui.o(.text)
    __aeabi_uidiv                            0x08000497   Thumb Code     0  uidiv.o(.text)
    __aeabi_uidivmod                         0x08000497   Thumb Code    44  uidiv.o(.text)
    __aeabi_llsl                             0x080004c3   Thumb Code    30  llshl.o(.text)
    _ll_shift_l                              0x080004c3   Thumb Code     0  llshl.o(.text)
    __aeabi_llsr                             0x080004e1   Thumb Code    32  llushr.o(.text)
    _ll_ushift_r                             0x080004e1   Thumb Code     0  llushr.o(.text)
    __I$use$fp                               0x08000501   Thumb Code     0  iusefp.o(.text)
    _double_round                            0x08000501   Thumb Code    30  depilogue.o(.text)
    _double_epilogue                         0x0800051f   Thumb Code   156  depilogue.o(.text)
    __aeabi_dadd                             0x080005bb   Thumb Code   322  dadd.o(.text)
    __aeabi_dsub                             0x080006fd   Thumb Code     6  dadd.o(.text)
    __aeabi_drsub                            0x08000703   Thumb Code     6  dadd.o(.text)
    __aeabi_d2ulz                            0x08000719   Thumb Code    48  dfixul.o(.text)
    __aeabi_cdrcmple                         0x08000749   Thumb Code    48  cdrcmple.o(.text)
    __scatterload                            0x08000779   Thumb Code    28  init.o(.text)
    __scatterload_rt2                        0x08000779   Thumb Code     0  init.o(.text)
    __aeabi_lasr                             0x0800079d   Thumb Code    36  llsshr.o(.text)
    _ll_sshift_r                             0x0800079d   Thumb Code     0  llsshr.o(.text)
    BusFault_Handler                         0x080007c1   Thumb Code     4  stm32l4xx_it.o(.text.BusFault_Handler)
    DebugMon_Handler                         0x080007c5   Thumb Code     2  stm32l4xx_it.o(.text.DebugMon_Handler)
    Error_Handler                            0x080007c9   Thumb Code    14  main.o(.text.Error_Handler)
    HAL_DMA_Abort                            0x080007d9   Thumb Code   126  stm32l4xx_hal_dma.o(.text.HAL_DMA_Abort)
    HAL_DMA_Abort_IT                         0x08000859   Thumb Code   126  stm32l4xx_hal_dma.o(.text.HAL_DMA_Abort_IT)
    HAL_GPIO_Init                            0x080008d9   Thumb Code   856  stm32l4xx_hal_gpio.o(.text.HAL_GPIO_Init)
    HAL_GPIO_WritePin                        0x08000c31   Thumb Code    50  stm32l4xx_hal_gpio.o(.text.HAL_GPIO_WritePin)
    HAL_GetTick                              0x08000c65   Thumb Code    12  stm32l4xx_hal.o(.text.HAL_GetTick)
    HAL_IncTick                              0x08000c71   Thumb Code    26  stm32l4xx_hal.o(.text.HAL_IncTick)
    HAL_Init                                 0x08000c8d   Thumb Code    54  stm32l4xx_hal.o(.text.HAL_Init)
    HAL_InitTick                             0x08000cc5   Thumb Code   140  stm32l4xx_hal.o(.text.HAL_InitTick)
    HAL_MspInit                              0x08000d51   Thumb Code    66  stm32l4xx_hal_msp.o(.text.HAL_MspInit)
    HAL_NVIC_EnableIRQ                       0x08000d95   Thumb Code    24  stm32l4xx_hal_cortex.o(.text.HAL_NVIC_EnableIRQ)
    HAL_NVIC_SetPriority                     0x08000dad   Thumb Code    64  stm32l4xx_hal_cortex.o(.text.HAL_NVIC_SetPriority)
    HAL_NVIC_SetPriorityGrouping             0x08000ded   Thumb Code    16  stm32l4xx_hal_cortex.o(.text.HAL_NVIC_SetPriorityGrouping)
    HAL_PWREx_ControlVoltageScaling          0x08000dfd   Thumb Code   230  stm32l4xx_hal_pwr_ex.o(.text.HAL_PWREx_ControlVoltageScaling)
    HAL_PWREx_GetVoltageRange                0x08000ee5   Thumb Code    16  stm32l4xx_hal_pwr_ex.o(.text.HAL_PWREx_GetVoltageRange)
    HAL_RCCEx_PeriphCLKConfig                0x08000ef5   Thumb Code  1218  stm32l4xx_hal_rcc_ex.o(.text.HAL_RCCEx_PeriphCLKConfig)
    HAL_RCC_ClockConfig                      0x080013b9   Thumb Code   590  stm32l4xx_hal_rcc.o(.text.HAL_RCC_ClockConfig)
    HAL_RCC_GetHCLKFreq                      0x08001609   Thumb Code    12  stm32l4xx_hal_rcc.o(.text.HAL_RCC_GetHCLKFreq)
    HAL_RCC_GetPCLK1Freq                     0x08001615   Thumb Code    38  stm32l4xx_hal_rcc.o(.text.HAL_RCC_GetPCLK1Freq)
    HAL_RCC_GetPCLK2Freq                     0x0800163d   Thumb Code    38  stm32l4xx_hal_rcc.o(.text.HAL_RCC_GetPCLK2Freq)
    HAL_RCC_GetSysClockFreq                  0x08001665   Thumb Code   350  stm32l4xx_hal_rcc.o(.text.HAL_RCC_GetSysClockFreq)
    HAL_RCC_OscConfig                        0x080017c5   Thumb Code  2704  stm32l4xx_hal_rcc.o(.text.HAL_RCC_OscConfig)
    HAL_SYSTICK_Config                       0x08002255   Thumb Code    16  stm32l4xx_hal_cortex.o(.text.HAL_SYSTICK_Config)
    HAL_UARTEx_RxEventCallback               0x08002265   Thumb Code    14  stm32l4xx_hal_uart.o(.text.HAL_UARTEx_RxEventCallback)
    HAL_UARTEx_WakeupCallback                0x08002275   Thumb Code     8  stm32l4xx_hal_uart_ex.o(.text.HAL_UARTEx_WakeupCallback)
    HAL_UART_ErrorCallback                   0x0800227d   Thumb Code     8  stm32l4xx_hal_uart.o(.text.HAL_UART_ErrorCallback)
    HAL_UART_IRQHandler                      0x08002285   Thumb Code  1256  stm32l4xx_hal_uart.o(.text.HAL_UART_IRQHandler)
    HAL_UART_Init                            0x0800276d   Thumb Code   174  stm32l4xx_hal_uart.o(.text.HAL_UART_Init)
    HAL_UART_MspInit                         0x0800281d   Thumb Code   358  stm32l4xx_hal_msp.o(.text.HAL_UART_MspInit)
    HAL_UART_TxCpltCallback                  0x08002985   Thumb Code     8  stm32l4xx_hal_uart.o(.text.HAL_UART_TxCpltCallback)
    HardFault_Handler                        0x0800298d   Thumb Code     4  stm32l4xx_it.o(.text.HardFault_Handler)
    LPUART1_IRQHandler                       0x08002991   Thumb Code    16  stm32l4xx_it.o(.text.LPUART1_IRQHandler)
    MemManage_Handler                        0x08002b09   Thumb Code     4  stm32l4xx_it.o(.text.MemManage_Handler)
    NMI_Handler                              0x08002b0d   Thumb Code     4  stm32l4xx_it.o(.text.NMI_Handler)
    PendSV_Handler                           0x08002b81   Thumb Code     2  stm32l4xx_it.o(.text.PendSV_Handler)
    SVC_Handler                              0x08002efd   Thumb Code     2  stm32l4xx_it.o(.text.SVC_Handler)
    SysTick_Handler                          0x08002f55   Thumb Code    12  stm32l4xx_it.o(.text.SysTick_Handler)
    SystemClock_Config                       0x08002f61   Thumb Code   136  main.o(.text.SystemClock_Config)
    SystemInit                               0x08002fe9   Thumb Code    18  system_stm32l4xx.o(.text.SystemInit)
    UART_AdvFeatureConfig                    0x08002ffd   Thumb Code   330  stm32l4xx_hal_uart.o(.text.UART_AdvFeatureConfig)
    UART_CheckIdleState                      0x08003149   Thumb Code   168  stm32l4xx_hal_uart.o(.text.UART_CheckIdleState)
    UART_SetConfig                           0x080032f1   Thumb Code  1164  stm32l4xx_hal_uart.o(.text.UART_SetConfig)
    UART_WaitOnFlagUntilTimeout              0x0800377d   Thumb Code   372  stm32l4xx_hal_uart.o(.text.UART_WaitOnFlagUntilTimeout)
    USART1_IRQHandler                        0x080038f1   Thumb Code    16  stm32l4xx_it.o(.text.USART1_IRQHandler)
    UsageFault_Handler                       0x08003901   Thumb Code     4  stm32l4xx_it.o(.text.UsageFault_Handler)
    bDeviceInit                              0x08003ce9   Thumb Code   634  b_device.o(.text.bDeviceInit)
    bExec                                    0x08003f65   Thumb Code    54  b_core.o(.text.bExec)
    bHalGetSysTick                           0x08003f9d   Thumb Code    12  b_hal.o(.text.bHalGetSysTick)
    bHalIncSysTick                           0x08003fa9   Thumb Code    40  b_hal.o(.text.bHalIncSysTick)
    bHalInit                                 0x08003fd1   Thumb Code    12  b_hal.o(.text.bHalInit)
    bHalUartSend                             0x08003fdd   Thumb Code    42  b_hal_uart.o(.text.bHalUartSend)
    bHalUserInit                             0x08004009   Thumb Code     2  b_hal.o(.text.bHalUserInit)
    bInit                                    0x0800400d   Thumb Code   358  b_core.o(.text.bInit)
    bLogOut                                  0x08004175   Thumb Code   420  b_util_log.o(.text.bLogOut)
    bMcuUartSend                             0x08004319   Thumb Code   230  mcu_stm32l41x_uart.o(.text.bMcuUartSend)
    main                                     0x08004449   Thumb Code    40  main.o(.text.main)
    __0sprintf                               0x08004471   Thumb Code    34  printfa.o(i.__0sprintf)
    __1sprintf                               0x08004471   Thumb Code     0  printfa.o(i.__0sprintf)
    __2sprintf                               0x08004471   Thumb Code     0  printfa.o(i.__0sprintf)
    __c89sprintf                             0x08004471   Thumb Code     0  printfa.o(i.__0sprintf)
    sprintf                                  0x08004471   Thumb Code     0  printfa.o(i.__0sprintf)
    __0vsnprintf                             0x08004499   Thumb Code    46  printfa.o(i.__0vsnprintf)
    __1vsnprintf                             0x08004499   Thumb Code     0  printfa.o(i.__0vsnprintf)
    __2vsnprintf                             0x08004499   Thumb Code     0  printfa.o(i.__0vsnprintf)
    __c89vsnprintf                           0x08004499   Thumb Code     0  printfa.o(i.__0vsnprintf)
    vsnprintf                                0x08004499   Thumb Code     0  printfa.o(i.__0vsnprintf)
    __scatterload_copy                       0x080044cd   Thumb Code    14  handlers.o(i.__scatterload_copy)
    __scatterload_null                       0x080044db   Thumb Code     2  handlers.o(i.__scatterload_null)
    __scatterload_zeroinit                   0x080044dd   Thumb Code    14  handlers.o(i.__scatterload_zeroinit)
    AHBPrescTable                            0x08004dcc   Data          16  system_stm32l4xx.o(.rodata.AHBPrescTable)
    APBPrescTable                            0x08004ddc   Data           8  system_stm32l4xx.o(.rodata.APBPrescTable)
    MSIRangeTable                            0x08004de4   Data          48  system_stm32l4xx.o(.rodata.MSIRangeTable)
    Region$$Table$$Base                      0x080050b0   Number         0  anon$$obj.o(Region$$Table)
    Region$$Table$$Limit                     0x080050d0   Number         0  anon$$obj.o(Region$$Table)
    bos_polling$$Base                        0x080050d0   Number         0  b_core.o(bos_polling)
    polling_bCoreMonitor                     0x080050d0   Data           4  b_core.o(bos_polling)
    polling_bTaskCore                        0x080050d4   Data           4  b_task.o(bos_polling)
    polling_bTimerCore                       0x080050d8   Data           4  b_timer.o(bos_polling)
    polling_bHalUartDetectIdle               0x080050dc   Data           4  b_hal_uart.o(bos_polling)
    bos_polling$$Limit                       0x080050e0   Number         0  b_hal_uart.o(bos_polling)
    driver_init$$Base                        0x080050e0   Number         0  b_device.o(driver_init)
    init_bDriverNullInit                     0x080050e0   Data           8  b_device.o(driver_init)
    driver_init$$Limit                       0x080050e8   Number         0  b_device.o(driver_init)
    driver_init_0$$Base                      0x080050e8   Number         0  b_device.o(driver_init_0)
    init0_bDriverNullInit                    0x080050e8   Data           8  b_device.o(driver_init_0)
    driver_init_0$$Limit                     0x080050f0   Number         0  b_device.o(driver_init_0)
    SystemCoreClock                          0x20000000   Data           4  system_stm32l4xx.o(.data.SystemCoreClock)
    uwTickFreq                               0x20000034   Data           1  stm32l4xx_hal.o(.data.uwTickFreq)
    uwTickPrio                               0x20000038   Data           4  stm32l4xx_hal.o(.data.uwTickPrio)
    hlpuart1                                 0x20000190   Data         132  main.o(.bss.hlpuart1)
    huart1                                   0x20000214   Data         132  main.o(.bss.huart1)
    uwTick                                   0x2000029c   Data           4  stm32l4xx_hal.o(.bss.uwTick)
    __initial_sp                             0x200006a0   Data           0  startup_stm32l431xx.o(STACK)



==============================================================================

Memory Map of the image

  Image Entry point : 0x0800018d

  Load Region LR_IROM1 (Base: 0x08000000, Size: 0x00005130, Max: 0x00040000, ABSOLUTE)

    Execution Region ER_IROM1 (Exec base: 0x08000000, Load base: 0x08000000, Size: 0x000050f0, Max: 0x00040000, ABSOLUTE)

    Exec Addr    Load Addr    Size         Type   Attr      Idx    E Section Name        Object

    0x08000000   0x08000000   0x0000018c   Data   RO            3    RESET               startup_stm32l431xx.o
    0x0800018c   0x0800018c   0x00000000   Code   RO         2059  * .ARM.Collect$$$$00000000  mc_w.l(entry.o)
    0x0800018c   0x0800018c   0x00000004   Code   RO         2110    .ARM.Collect$$$$00000001  mc_w.l(entry2.o)
    0x08000190   0x08000190   0x00000004   Code   RO         2113    .ARM.Collect$$$$00000004  mc_w.l(entry5.o)
    0x08000194   0x08000194   0x00000000   Code   RO         2115    .ARM.Collect$$$$00000008  mc_w.l(entry7b.o)
    0x08000194   0x08000194   0x00000000   Code   RO         2117    .ARM.Collect$$$$0000000A  mc_w.l(entry8b.o)
    0x08000194   0x08000194   0x00000008   Code   RO         2118    .ARM.Collect$$$$0000000B  mc_w.l(entry9a.o)
    0x0800019c   0x0800019c   0x00000000   Code   RO         2120    .ARM.Collect$$$$0000000D  mc_w.l(entry10a.o)
    0x0800019c   0x0800019c   0x00000000   Code   RO         2122    .ARM.Collect$$$$0000000F  mc_w.l(entry11a.o)
    0x0800019c   0x0800019c   0x00000004   Code   RO         2111    .ARM.Collect$$$$00002712  mc_w.l(entry2.o)
    0x080001a0   0x080001a0   0x00000024   Code   RO            4    .text               startup_stm32l431xx.o
    0x080001c4   0x080001c4   0x00000068   Code   RO         2062    .text               mc_w.l(uldiv.o)
    0x0800022c   0x0800022c   0x00000024   Code   RO         2066    .text               mc_w.l(memcpya.o)
    0x08000250   0x08000250   0x00000024   Code   RO         2068    .text               mc_w.l(memseta.o)
    0x08000274   0x08000274   0x0000000e   Code   RO         2070    .text               mc_w.l(strlen.o)
    0x08000282   0x08000282   0x000000ea   Code   RO         2102    .text               mf_w.l(dmul.o)
    0x0800036c   0x0800036c   0x000000de   Code   RO         2104    .text               mf_w.l(ddiv.o)
    0x0800044a   0x0800044a   0x0000001a   Code   RO         2106    .text               mf_w.l(dfltui.o)
    0x08000464   0x08000464   0x00000032   Code   RO         2108    .text               mf_w.l(dfixui.o)
    0x08000496   0x08000496   0x0000002c   Code   RO         2125    .text               mc_w.l(uidiv.o)
    0x080004c2   0x080004c2   0x0000001e   Code   RO         2127    .text               mc_w.l(llshl.o)
    0x080004e0   0x080004e0   0x00000020   Code   RO         2129    .text               mc_w.l(llushr.o)
    0x08000500   0x08000500   0x00000000   Code   RO         2131    .text               mc_w.l(iusefp.o)
    0x08000500   0x08000500   0x000000ba   Code   RO         2132    .text               mf_w.l(depilogue.o)
    0x080005ba   0x080005ba   0x0000015e   Code   RO         2134    .text               mf_w.l(dadd.o)
    0x08000718   0x08000718   0x00000030   Code   RO         2136    .text               mf_w.l(dfixul.o)
    0x08000748   0x08000748   0x00000030   Code   RO         2138    .text               mf_w.l(cdrcmple.o)
    0x08000778   0x08000778   0x00000024   Code   RO         2140    .text               mc_w.l(init.o)
    0x0800079c   0x0800079c   0x00000024   Code   RO         2142    .text               mc_w.l(llsshr.o)
    0x080007c0   0x080007c0   0x00000004   Code   RO           39    .text.BusFault_Handler  stm32l4xx_it.o
    0x080007c4   0x080007c4   0x00000002   Code   RO           45    .text.DebugMon_Handler  stm32l4xx_it.o
    0x080007c6   0x080007c6   0x00000002   PAD
    0x080007c8   0x080007c8   0x0000000e   Code   RO           19    .text.Error_Handler  main.o
    0x080007d6   0x080007d6   0x00000002   PAD
    0x080007d8   0x080007d8   0x0000007e   Code   RO         1233    .text.HAL_DMA_Abort  stm32l4xx_hal_dma.o
    0x08000856   0x08000856   0x00000002   PAD
    0x08000858   0x08000858   0x0000007e   Code   RO         1235    .text.HAL_DMA_Abort_IT  stm32l4xx_hal_dma.o
    0x080008d6   0x080008d6   0x00000002   PAD
    0x080008d8   0x080008d8   0x00000358   Code   RO          324    .text.HAL_GPIO_Init  stm32l4xx_hal_gpio.o
    0x08000c30   0x08000c30   0x00000032   Code   RO          330    .text.HAL_GPIO_WritePin  stm32l4xx_hal_gpio.o
    0x08000c62   0x08000c62   0x00000002   PAD
    0x08000c64   0x08000c64   0x0000000c   Code   RO           99    .text.HAL_GetTick   stm32l4xx_hal.o
    0x08000c70   0x08000c70   0x0000001a   Code   RO           97    .text.HAL_IncTick   stm32l4xx_hal.o
    0x08000c8a   0x08000c8a   0x00000002   PAD
    0x08000c8c   0x08000c8c   0x00000036   Code   RO           87    .text.HAL_Init      stm32l4xx_hal.o
    0x08000cc2   0x08000cc2   0x00000002   PAD
    0x08000cc4   0x08000cc4   0x0000008c   Code   RO           89    .text.HAL_InitTick  stm32l4xx_hal.o
    0x08000d50   0x08000d50   0x00000042   Code   RO           62    .text.HAL_MspInit   stm32l4xx_hal_msp.o
    0x08000d92   0x08000d92   0x00000002   PAD
    0x08000d94   0x08000d94   0x00000018   Code   RO          181    .text.HAL_NVIC_EnableIRQ  stm32l4xx_hal_cortex.o
    0x08000dac   0x08000dac   0x00000040   Code   RO          173    .text.HAL_NVIC_SetPriority  stm32l4xx_hal_cortex.o
    0x08000dec   0x08000dec   0x00000010   Code   RO          169    .text.HAL_NVIC_SetPriorityGrouping  stm32l4xx_hal_cortex.o
    0x08000dfc   0x08000dfc   0x000000e6   Code   RO         1160    .text.HAL_PWREx_ControlVoltageScaling  stm32l4xx_hal_pwr_ex.o
    0x08000ee2   0x08000ee2   0x00000002   PAD
    0x08000ee4   0x08000ee4   0x00000010   Code   RO         1158    .text.HAL_PWREx_GetVoltageRange  stm32l4xx_hal_pwr_ex.o
    0x08000ef4   0x08000ef4   0x000004c2   Code   RO          662    .text.HAL_RCCEx_PeriphCLKConfig  stm32l4xx_hal_rcc_ex.o
    0x080013b6   0x080013b6   0x00000002   PAD
    0x080013b8   0x080013b8   0x0000024e   Code   RO          633    .text.HAL_RCC_ClockConfig  stm32l4xx_hal_rcc.o
    0x08001606   0x08001606   0x00000002   PAD
    0x08001608   0x08001608   0x0000000c   Code   RO          637    .text.HAL_RCC_GetHCLKFreq  stm32l4xx_hal_rcc.o
    0x08001614   0x08001614   0x00000026   Code   RO          639    .text.HAL_RCC_GetPCLK1Freq  stm32l4xx_hal_rcc.o
    0x0800163a   0x0800163a   0x00000002   PAD
    0x0800163c   0x0800163c   0x00000026   Code   RO          641    .text.HAL_RCC_GetPCLK2Freq  stm32l4xx_hal_rcc.o
    0x08001662   0x08001662   0x00000002   PAD
    0x08001664   0x08001664   0x0000015e   Code   RO          631    .text.HAL_RCC_GetSysClockFreq  stm32l4xx_hal_rcc.o
    0x080017c2   0x080017c2   0x00000002   PAD
    0x080017c4   0x080017c4   0x00000a90   Code   RO          627    .text.HAL_RCC_OscConfig  stm32l4xx_hal_rcc.o
    0x08002254   0x08002254   0x00000010   Code   RO          193    .text.HAL_SYSTICK_Config  stm32l4xx_hal_cortex.o
    0x08002264   0x08002264   0x0000000e   Code   RO         1036    .text.HAL_UARTEx_RxEventCallback  stm32l4xx_hal_uart.o
    0x08002272   0x08002272   0x00000002   PAD
    0x08002274   0x08002274   0x00000008   Code   RO         1087    .text.HAL_UARTEx_WakeupCallback  stm32l4xx_hal_uart_ex.o
    0x0800227c   0x0800227c   0x00000008   Code   RO         1034    .text.HAL_UART_ErrorCallback  stm32l4xx_hal_uart.o
    0x08002284   0x08002284   0x000004e8   Code   RO         1030    .text.HAL_UART_IRQHandler  stm32l4xx_hal_uart.o
    0x0800276c   0x0800276c   0x000000ae   Code   RO          946    .text.HAL_UART_Init  stm32l4xx_hal_uart.o
    0x0800281a   0x0800281a   0x00000002   PAD
    0x0800281c   0x0800281c   0x00000166   Code   RO           64    .text.HAL_UART_MspInit  stm32l4xx_hal_msp.o
    0x08002982   0x08002982   0x00000002   PAD
    0x08002984   0x08002984   0x00000008   Code   RO         1040    .text.HAL_UART_TxCpltCallback  stm32l4xx_hal_uart.o
    0x0800298c   0x0800298c   0x00000004   Code   RO           35    .text.HardFault_Handler  stm32l4xx_it.o
    0x08002990   0x08002990   0x00000010   Code   RO           53    .text.LPUART1_IRQHandler  stm32l4xx_it.o
    0x080029a0   0x080029a0   0x00000126   Code   RO           15    .text.MX_GPIO_Init  main.o
    0x08002ac6   0x08002ac6   0x00000002   PAD
    0x08002ac8   0x08002ac8   0x00000040   Code   RO           17    .text.MX_USART1_UART_Init  main.o
    0x08002b08   0x08002b08   0x00000004   Code   RO           37    .text.MemManage_Handler  stm32l4xx_it.o
    0x08002b0c   0x08002b0c   0x00000004   Code   RO           33    .text.NMI_Handler   stm32l4xx_it.o
    0x08002b10   0x08002b10   0x0000006e   Code   RO          179    .text.NVIC_EncodePriority  stm32l4xx_hal_cortex.o
    0x08002b7e   0x08002b7e   0x00000002   PAD
    0x08002b80   0x08002b80   0x00000002   Code   RO           47    .text.PendSV_Handler  stm32l4xx_it.o
    0x08002b82   0x08002b82   0x00000002   PAD
    0x08002b84   0x08002b84   0x00000288   Code   RO          664    .text.RCCEx_PLLSAI1_Config  stm32l4xx_hal_rcc_ex.o
    0x08002e0c   0x08002e0c   0x000000ee   Code   RO          629    .text.RCC_SetFlashLatencyFromMSIRange  stm32l4xx_hal_rcc.o
    0x08002efa   0x08002efa   0x00000002   PAD
    0x08002efc   0x08002efc   0x00000002   Code   RO           43    .text.SVC_Handler   stm32l4xx_it.o
    0x08002efe   0x08002efe   0x00000002   PAD
    0x08002f00   0x08002f00   0x00000052   Code   RO          195    .text.SysTick_Config  stm32l4xx_hal_cortex.o
    0x08002f52   0x08002f52   0x00000002   PAD
    0x08002f54   0x08002f54   0x0000000c   Code   RO           49    .text.SysTick_Handler  stm32l4xx_it.o
    0x08002f60   0x08002f60   0x00000088   Code   RO           13    .text.SystemClock_Config  main.o
    0x08002fe8   0x08002fe8   0x00000012   Code   RO         1358    .text.SystemInit    system_stm32l4xx.o
    0x08002ffa   0x08002ffa   0x00000002   PAD
    0x08002ffc   0x08002ffc   0x0000014a   Code   RO          952    .text.UART_AdvFeatureConfig  stm32l4xx_hal_uart.o
    0x08003146   0x08003146   0x00000002   PAD
    0x08003148   0x08003148   0x000000a8   Code   RO          954    .text.UART_CheckIdleState  stm32l4xx_hal_uart.o
    0x080031f0   0x080031f0   0x00000024   Code   RO         1032    .text.UART_DMAAbortOnError  stm32l4xx_hal_uart.o
    0x08003214   0x08003214   0x00000096   Code   RO         1002    .text.UART_EndRxTransfer  stm32l4xx_hal_uart.o
    0x080032aa   0x080032aa   0x00000002   PAD
    0x080032ac   0x080032ac   0x00000042   Code   RO         1038    .text.UART_EndTransmit_IT  stm32l4xx_hal_uart.o
    0x080032ee   0x080032ee   0x00000002   PAD
    0x080032f0   0x080032f0   0x0000048c   Code   RO          950    .text.UART_SetConfig  stm32l4xx_hal_uart.o
    0x0800377c   0x0800377c   0x00000174   Code   RO          968    .text.UART_WaitOnFlagUntilTimeout  stm32l4xx_hal_uart.o
    0x080038f0   0x080038f0   0x00000010   Code   RO           51    .text.USART1_IRQHandler  stm32l4xx_it.o
    0x08003900   0x08003900   0x00000004   Code   RO           41    .text.UsageFault_Handler  stm32l4xx_it.o
    0x08003904   0x08003904   0x00000034   Code   RO          183    .text.__NVIC_EnableIRQ  stm32l4xx_hal_cortex.o
    0x08003938   0x08003938   0x00000010   Code   RO          175    .text.__NVIC_GetPriorityGrouping  stm32l4xx_hal_cortex.o
    0x08003948   0x08003948   0x00000044   Code   RO          177    .text.__NVIC_SetPriority  stm32l4xx_hal_cortex.o
    0x0800398c   0x0800398c   0x0000003c   Code   RO          171    .text.__NVIC_SetPriorityGrouping  stm32l4xx_hal_cortex.o
    0x080039c8   0x080039c8   0x00000002   Code   RO         1373    .text._bCoreMonitor  b_core.o
    0x080039ca   0x080039ca   0x00000002   PAD
    0x080039cc   0x080039cc   0x00000032   Code   RO         1418    .text._bDriverNullInit  b_device.o
    0x080039fe   0x080039fe   0x00000002   PAD
    0x08003a00   0x08003a00   0x00000108   Code   RO         1919    .text._bHalUartDetectIdle  b_hal_uart.o
    0x08003b08   0x08003b08   0x000000b0   Code   RO         1692    .text._bHalUpdateDelayParam  b_hal.o
    0x08003bb8   0x08003bb8   0x0000001c   Code   RO         1633    .text._bLogOutput   b_util_log.o
    0x08003bd4   0x08003bd4   0x0000007c   Code   RO         1539    .text._bTaskCore    b_task.o
    0x08003c50   0x08003c50   0x00000096   Code   RO         1572    .text._bTimerCore   b_timer.o
    0x08003ce6   0x08003ce6   0x00000002   PAD
    0x08003ce8   0x08003ce8   0x0000027a   Code   RO         1420    .text.bDeviceInit   b_device.o
    0x08003f62   0x08003f62   0x00000002   PAD
    0x08003f64   0x08003f64   0x00000036   Code   RO         1397    .text.bExec         b_core.o
    0x08003f9a   0x08003f9a   0x00000002   PAD
    0x08003f9c   0x08003f9c   0x0000000c   Code   RO         1684    .text.bHalGetSysTick  b_hal.o
    0x08003fa8   0x08003fa8   0x00000028   Code   RO         1682    .text.bHalIncSysTick  b_hal.o
    0x08003fd0   0x08003fd0   0x0000000c   Code   RO         1680    .text.bHalInit      b_hal.o
    0x08003fdc   0x08003fdc   0x0000002a   Code   RO         1907    .text.bHalUartSend  b_hal_uart.o
    0x08004006   0x08004006   0x00000002   PAD
    0x08004008   0x08004008   0x00000002   Code   RO         1678    .text.bHalUserInit  b_hal.o
    0x0800400a   0x0800400a   0x00000002   PAD
    0x0800400c   0x0800400c   0x00000166   Code   RO         1393    .text.bInit         b_core.o
    0x08004172   0x08004172   0x00000002   PAD
    0x08004174   0x08004174   0x000001a4   Code   RO         1631    .text.bLogOut       b_util_log.o
    0x08004318   0x08004318   0x000000e6   Code   RO         2042    .text.bMcuUartSend  mcu_stm32l41x_uart.o
    0x080043fe   0x080043fe   0x00000002   PAD
    0x08004400   0x08004400   0x00000016   Code   RO         1541    .text.list_is_head  b_task.o
    0x08004416   0x08004416   0x00000002   PAD
    0x08004418   0x08004418   0x00000016   Code   RO         1574    .text.list_is_head  b_timer.o
    0x0800442e   0x0800442e   0x00000002   PAD
    0x08004430   0x08004430   0x00000016   Code   RO         1921    .text.list_is_head  b_hal_uart.o
    0x08004446   0x08004446   0x00000002   PAD
    0x08004448   0x08004448   0x00000028   Code   RO           11    .text.main          main.o
    0x08004470   0x08004470   0x00000028   Code   RO         2077    i.__0sprintf        mc_w.l(printfa.o)
    0x08004498   0x08004498   0x00000034   Code   RO         2080    i.__0vsnprintf      mc_w.l(printfa.o)
    0x080044cc   0x080044cc   0x0000000e   Code   RO         2146    i.__scatterload_copy  mc_w.l(handlers.o)
    0x080044da   0x080044da   0x00000002   Code   RO         2147    i.__scatterload_null  mc_w.l(handlers.o)
    0x080044dc   0x080044dc   0x0000000e   Code   RO         2148    i.__scatterload_zeroinit  mc_w.l(handlers.o)
    0x080044ea   0x080044ea   0x00000002   PAD
    0x080044ec   0x080044ec   0x0000018a   Code   RO         2082    i._fp_digits        mc_w.l(printfa.o)
    0x08004676   0x08004676   0x00000002   PAD
    0x08004678   0x08004678   0x000006e2   Code   RO         2083    i._printf_core      mc_w.l(printfa.o)
    0x08004d5a   0x08004d5a   0x00000024   Code   RO         2084    i._printf_post_padding  mc_w.l(printfa.o)
    0x08004d7e   0x08004d7e   0x0000002e   Code   RO         2085    i._printf_pre_padding  mc_w.l(printfa.o)
    0x08004dac   0x08004dac   0x00000016   Code   RO         2086    i._snputc           mc_w.l(printfa.o)
    0x08004dc2   0x08004dc2   0x0000000a   Code   RO         2087    i._sputc            mc_w.l(printfa.o)
    0x08004dcc   0x08004dcc   0x00000010   Data   RO         1363    .rodata.AHBPrescTable  system_stm32l4xx.o
    0x08004ddc   0x08004ddc   0x00000008   Data   RO         1364    .rodata.APBPrescTable  system_stm32l4xx.o
    0x08004de4   0x08004de4   0x00000030   Data   RO         1365    .rodata.MSIRangeTable  system_stm32l4xx.o
    0x08004e14   0x08004e14   0x00000003   Data   RO         1636    .rodata.bLogParamTable  b_util_log.o
    0x08004e17   0x08004e17   0x00000003   Data   RO         1637    .rodata.bLogPrefix  b_util_log.o
    0x08004e1a   0x08004e1a   0x00000200   Data   RO         1409    .rodata.str1.1      b_core.o
    0x0800501a   0x0800501a   0x00000092   Data   RO         1453    .rodata.str1.1      b_device.o
    0x080050ac   0x080050ac   0x00000003   Data   RO         1638    .rodata.str1.1      b_util_log.o
    0x080050af   0x080050af   0x00000001   PAD
    0x080050b0   0x080050b0   0x00000020   Data   RO         2145    Region$$Table       anon$$obj.o
    0x080050d0   0x080050d0   0x00000004   Data   RO         1407    bos_polling         b_core.o
    0x080050d4   0x080050d4   0x00000004   Data   RO         1545    bos_polling         b_task.o
    0x080050d8   0x080050d8   0x00000004   Data   RO         1578    bos_polling         b_timer.o
    0x080050dc   0x080050dc   0x00000004   Data   RO         1925    bos_polling         b_hal_uart.o
    0x080050e0   0x080050e0   0x00000008   Data   RO         1449    driver_init         b_device.o
    0x080050e8   0x080050e8   0x00000008   Data   RO         1448    driver_init_0       b_device.o


    Execution Region RW_IRAM2 (Exec base: 0x10000000, Load base: 0x08005130, Size: 0x00000000, Max: 0x00004000, ABSOLUTE)

    **** No section assigned to this execution region ****


    Execution Region RW_IRAM1 (Exec base: 0x20000000, Load base: 0x080050f0, Size: 0x000006a0, Max: 0x0000c000, ABSOLUTE)

    Exec Addr    Load Addr    Size         Type   Attr      Idx    E Section Name        Object

    0x20000000   0x080050f0   0x00000004   Data   RW         1362    .data.SystemCoreClock  system_stm32l4xx.o
    0x20000004   0x080050f4   0x00000010   Data   RW         2046    .data.UartTable     mcu_stm32l41x_uart.o
    0x20000014   0x08005104   0x00000004   Data   RW         1452    .data.bDeviceDescTable  b_device.o
    0x20000018   0x08005108   0x00000008   Data   RW         1926    .data.bHalUartListHead  b_hal_uart.o
    0x20000020   0x08005110   0x00000008   Data   RW         1547    .data.bTaskListHead  b_task.o
    0x20000028   0x08005118   0x00000008   Data   RW         1579    .data.bTimerListHead  b_timer.o
    0x20000030   0x08005120   0x00000004   Data   RW         1696    .data.bUsDelayParam  b_hal.o
    0x20000034   0x08005124   0x00000001   Data   RW          158    .data.uwTickFreq    stm32l4xx_hal.o
    0x20000035   0x08005125   0x00000003   PAD
    0x20000038   0x08005128   0x00000004   Data   RW          157    .data.uwTickPrio    stm32l4xx_hal.o
    0x2000003c   0x0800512c   0x00000004   PAD
    0x20000040        -       0x00000044   Zero   RW         1450    .bss.bDriverInterfaceTable  b_device.o
    0x20000084        -       0x00000001   Zero   RW         1451    .bss.bDriverNumberTable  b_device.o
    0x20000085        -       0x00000100   Zero   RW         1635    .bss.bLogBuff       b_util_log.o
    0x20000185   0x0800512c   0x00000003   PAD
    0x20000188        -       0x00000004   Zero   RW         1694    .bss.bSysTick       b_hal.o
    0x2000018c        -       0x00000004   Zero   RW         1695    .bss.bSysTickOvr    b_hal.o
    0x20000190        -       0x00000084   Zero   RW           21    .bss.hlpuart1       main.o
    0x20000214        -       0x00000084   Zero   RW           22    .bss.huart1         main.o
    0x20000298        -       0x00000004   Zero   RW         1548    .bss.pCurrentTaskAttr  b_task.o
    0x2000029c        -       0x00000004   Zero   RW          159    .bss.uwTick         stm32l4xx_hal.o
    0x200002a0        -       0x00000400   Zero   RW            1    STACK               startup_stm32l431xx.o


==============================================================================

Image component sizes


      Code (inc. data)   RO Data    RW Data    ZI Data      Debug   Object Name

       414          0        516          0          0       4455   b_core.o
       684          0        162          4         69       6022   b_device.o
       242          8          0          4          8       1809   b_hal.o
       328          0          4          8          0       4420   b_hal_uart.o
       146          0          4          8          4       3521   b_task.o
       172          0          4          8          0       3359   b_timer.o
       448          0          9          0        256       2689   b_util_log.o
       548          0          0          0        264       9794   main.o
       230          0          0         16          0       2084   mcu_stm32l41x_uart.o
        36          8        396          0       1024        848   startup_stm32l431xx.o
       232          0          0          5          4       8274   stm32l4xx_hal.o
       508          0          0          0          0       9202   stm32l4xx_hal_cortex.o
       252          0          0          0          0       6399   stm32l4xx_hal_dma.o
       906          0          0          0          0       5334   stm32l4xx_hal_gpio.o
       424          0          0          0          0      12519   stm32l4xx_hal_msp.o
       246          0          0          0          0       6866   stm32l4xx_hal_pwr_ex.o
      3970          0          0          0          0      10031   stm32l4xx_hal_rcc.o
      1866          0          0          0          0      13235   stm32l4xx_hal_rcc_ex.o
      3746         48          0          0          0      23615   stm32l4xx_hal_uart.o
         8          0          0          0          0       6986   stm32l4xx_hal_uart_ex.o
        70          0          0          0          0       1231   stm32l4xx_it.o
        18          0         72          4          0       2885   system_stm32l4xx.o

    ----------------------------------------------------------------------
     15572         64       1200         60       1636     145578   Object Totals
         0          0         32          0          0          0   (incl. Generated)
        78          0          1          3          7          0   (incl. Padding)

    ----------------------------------------------------------------------

      Code (inc. data)   RO Data    RW Data    ZI Data      Debug   Library Member Name

         0          0          0          0          0          0   entry.o
         0          0          0          0          0          0   entry10a.o
         0          0          0          0          0          0   entry11a.o
         8          4          0          0          0          0   entry2.o
         4          0          0          0          0          0   entry5.o
         0          0          0          0          0          0   entry7b.o
         0          0          0          0          0          0   entry8b.o
         8          4          0          0          0          0   entry9a.o
        30          0          0          0          0          0   handlers.o
        36          8          0          0          0         68   init.o
         0          0          0          0          0          0   iusefp.o
        30          0          0          0          0         68   llshl.o
        36          0          0          0          0         68   llsshr.o
        32          0          0          0          0         68   llushr.o
        36          0          0          0          0         68   memcpya.o
        36          0          0          0          0        108   memseta.o
      2362         92          0          0          0        668   printfa.o
        14          0          0          0          0         68   strlen.o
        44          0          0          0          0         80   uidiv.o
       104          0          0          0          0         92   uldiv.o
        48          0          0          0          0         68   cdrcmple.o
       350          0          0          0          0        148   dadd.o
       222          0          0          0          0        100   ddiv.o
       186          0          0          0          0        176   depilogue.o
        50          0          0          0          0         76   dfixui.o
        48          0          0          0          0         68   dfixul.o
        26          0          0          0          0         76   dfltui.o
       234          0          0          0          0         96   dmul.o

    ----------------------------------------------------------------------
      3948        108          0          0          0       2164   Library Totals
         4          0          0          0          0          0   (incl. Padding)

    ----------------------------------------------------------------------

      Code (inc. data)   RO Data    RW Data    ZI Data      Debug   Library Name

      2780        108          0          0          0       1356   mc_w.l
      1164          0          0          0          0        808   mf_w.l

    ----------------------------------------------------------------------
      3948        108          0          0          0       2164   Library Totals

    ----------------------------------------------------------------------

==============================================================================


      Code (inc. data)   RO Data    RW Data    ZI Data      Debug   

     19520        172       1200         60       1636     146482   Grand Totals
     19520        172       1200         60       1636     146482   ELF Image Totals
     19520        172       1200         60          0          0   ROM Totals

==============================================================================

    Total RO  Size (Code + RO Data)                20720 (  20.23kB)
    Total RW  Size (RW Data + ZI Data)              1696 (   1.66kB)
    Total ROM Size (Code + RO Data + RW Data)      20780 (  20.29kB)

==============================================================================

